{
	"contracts/destructuring.sol": {
		"DestructuringFunctions": {
			"abi": [
				{
					"inputs": [],
					"name": "changeValue",
					"outputs": [
						{
							"internalType": "uint256",
							"name": "",
							"type": "uint256"
						}
					],
					"stateMutability": "view",
					"type": "function"
				},
				{
					"inputs": [],
					"name": "f",
					"outputs": [
						{
							"internalType": "uint8",
							"name": "",
							"type": "uint8"
						},
						{
							"internalType": "bool",
							"name": "",
							"type": "bool"
						},
						{
							"internalType": "string",
							"name": "",
							"type": "string"
						}
					],
					"stateMutability": "pure",
					"type": "function"
				},
				{
					"inputs": [],
					"name": "g",
					"outputs": [],
					"stateMutability": "nonpayable",
					"type": "function"
				},
				{
					"inputs": [],
					"name": "tom",
					"outputs": [
						{
							"internalType": "string",
							"name": "",
							"type": "string"
						}
					],
					"stateMutability": "view",
					"type": "function"
				}
			],
			"devdoc": {
				"kind": "dev",
				"methods": {},
				"version": 1
			},
			"evm": {
				"assembly": "    /* \"contracts/destructuring.sol\":70:422  contract DestructuringFunctions {... */\n  mstore(0x40, 0x80)\n    /* \"contracts/destructuring.sol\":140:168  string public tom = \"Hello!\" */\n  mload(0x40)\n  dup1\n  0x40\n  add\n  0x40\n  mstore\n  dup1\n  0x06\n  dup2\n  mstore\n  0x20\n  add\n  0x48656c6c6f210000000000000000000000000000000000000000000000000000\n  dup2\n  mstore\n  pop\n  0x01\n  swap1\n  dup2\n  tag_1\n  swap2\n  swap1\n  tag_2\n  jump\t// in\ntag_1:\n  pop\n    /* \"contracts/destructuring.sol\":70:422  contract DestructuringFunctions {... */\n  callvalue\n  dup1\n  iszero\n  tag_3\n  jumpi\n  0x00\n  dup1\n  revert\ntag_3:\n  pop\n  jump(tag_4)\n    /* \"#utility.yul\":7:106   */\ntag_5:\n    /* \"#utility.yul\":59:65   */\n  0x00\n    /* \"#utility.yul\":93:98   */\n  dup2\n    /* \"#utility.yul\":87:99   */\n  mload\n    /* \"#utility.yul\":77:99   */\n  swap1\n  pop\n    /* \"#utility.yul\":7:106   */\n  swap2\n  swap1\n  pop\n  jump\t// out\n    /* \"#utility.yul\":112:292   */\ntag_6:\n    /* \"#utility.yul\":160:237   */\n  0x4e487b7100000000000000000000000000000000000000000000000000000000\n    /* \"#utility.yul\":157:158   */\n  0x00\n    /* \"#utility.yul\":150:238   */\n  mstore\n    /* \"#utility.yul\":257:261   */\n  0x41\n    /* \"#utility.yul\":254:255   */\n  0x04\n    /* \"#utility.yul\":247:262   */\n  mstore\n    /* \"#utility.yul\":281:285   */\n  0x24\n    /* \"#utility.yul\":278:279   */\n  0x00\n    /* \"#utility.yul\":271:286   */\n  revert\n    /* \"#utility.yul\":298:478   */\ntag_7:\n    /* \"#utility.yul\":346:423   */\n  0x4e487b7100000000000000000000000000000000000000000000000000000000\n    /* \"#utility.yul\":343:344   */\n  0x00\n    /* \"#utility.yul\":336:424   */\n  mstore\n    /* \"#utility.yul\":443:447   */\n  0x22\n    /* \"#utility.yul\":440:441   */\n  0x04\n    /* \"#utility.yul\":433:448   */\n  mstore\n    /* \"#utility.yul\":467:471   */\n  0x24\n    /* \"#utility.yul\":464:465   */\n  0x00\n    /* \"#utility.yul\":457:472   */\n  revert\n    /* \"#utility.yul\":484:804   */\ntag_8:\n    /* \"#utility.yul\":528:534   */\n  0x00\n    /* \"#utility.yul\":565:566   */\n  0x02\n    /* \"#utility.yul\":559:563   */\n  dup3\n    /* \"#utility.yul\":555:567   */\n  div\n    /* \"#utility.yul\":545:567   */\n  swap1\n  pop\n    /* \"#utility.yul\":612:613   */\n  0x01\n    /* \"#utility.yul\":606:610   */\n  dup3\n    /* \"#utility.yul\":602:614   */\n  and\n    /* \"#utility.yul\":633:651   */\n  dup1\n    /* \"#utility.yul\":623:704   */\n  tag_30\n  jumpi\n    /* \"#utility.yul\":689:693   */\n  0x7f\n    /* \"#utility.yul\":681:687   */\n  dup3\n    /* \"#utility.yul\":677:694   */\n  and\n    /* \"#utility.yul\":667:694   */\n  swap2\n  pop\n    /* \"#utility.yul\":623:704   */\ntag_30:\n    /* \"#utility.yul\":751:753   */\n  0x20\n    /* \"#utility.yul\":743:749   */\n  dup3\n    /* \"#utility.yul\":740:754   */\n  lt\n    /* \"#utility.yul\":720:738   */\n  dup2\n    /* \"#utility.yul\":717:755   */\n  sub\n    /* \"#utility.yul\":714:798   */\n  tag_31\n  jumpi\n    /* \"#utility.yul\":770:788   */\n  tag_32\n  tag_7\n  jump\t// in\ntag_32:\n    /* \"#utility.yul\":714:798   */\ntag_31:\n    /* \"#utility.yul\":535:804   */\n  pop\n    /* \"#utility.yul\":484:804   */\n  swap2\n  swap1\n  pop\n  jump\t// out\n    /* \"#utility.yul\":810:951   */\ntag_9:\n    /* \"#utility.yul\":859:863   */\n  0x00\n    /* \"#utility.yul\":882:885   */\n  dup2\n    /* \"#utility.yul\":874:885   */\n  swap1\n  pop\n    /* \"#utility.yul\":905:908   */\n  dup2\n    /* \"#utility.yul\":902:903   */\n  0x00\n    /* \"#utility.yul\":895:909   */\n  mstore\n    /* \"#utility.yul\":939:943   */\n  0x20\n    /* \"#utility.yul\":936:937   */\n  0x00\n    /* \"#utility.yul\":926:944   */\n  keccak256\n    /* \"#utility.yul\":918:944   */\n  swap1\n  pop\n    /* \"#utility.yul\":810:951   */\n  swap2\n  swap1\n  pop\n  jump\t// out\n    /* \"#utility.yul\":957:1050   */\ntag_10:\n    /* \"#utility.yul\":994:1000   */\n  0x00\n    /* \"#utility.yul\":1041:1043   */\n  0x20\n    /* \"#utility.yul\":1036:1038   */\n  0x1f\n    /* \"#utility.yul\":1029:1034   */\n  dup4\n    /* \"#utility.yul\":1025:1039   */\n  add\n    /* \"#utility.yul\":1021:1044   */\n  div\n    /* \"#utility.yul\":1011:1044   */\n  swap1\n  pop\n    /* \"#utility.yul\":957:1050   */\n  swap2\n  swap1\n  pop\n  jump\t// out\n    /* \"#utility.yul\":1056:1163   */\ntag_11:\n    /* \"#utility.yul\":1100:1108   */\n  0x00\n    /* \"#utility.yul\":1150:1155   */\n  dup3\n    /* \"#utility.yul\":1144:1148   */\n  dup3\n    /* \"#utility.yul\":1140:1156   */\n  shl\n    /* \"#utility.yul\":1119:1156   */\n  swap1\n  pop\n    /* \"#utility.yul\":1056:1163   */\n  swap3\n  swap2\n  pop\n  pop\n  jump\t// out\n    /* \"#utility.yul\":1169:1562   */\ntag_12:\n    /* \"#utility.yul\":1238:1244   */\n  0x00\n    /* \"#utility.yul\":1288:1289   */\n  0x08\n    /* \"#utility.yul\":1276:1286   */\n  dup4\n    /* \"#utility.yul\":1272:1290   */\n  mul\n    /* \"#utility.yul\":1311:1408   */\n  tag_37\n    /* \"#utility.yul\":1341:1407   */\n  0xffffffffffffffffffffffffffffffffffffffffffffffffffffffffffffffff\n    /* \"#utility.yul\":1330:1339   */\n  dup3\n    /* \"#utility.yul\":1311:1408   */\n  tag_11\n  jump\t// in\ntag_37:\n    /* \"#utility.yul\":1429:1468   */\n  tag_38\n    /* \"#utility.yul\":1459:1467   */\n  dup7\n    /* \"#utility.yul\":1448:1457   */\n  dup4\n    /* \"#utility.yul\":1429:1468   */\n  tag_11\n  jump\t// in\ntag_38:\n    /* \"#utility.yul\":1417:1468   */\n  swap6\n  pop\n    /* \"#utility.yul\":1501:1505   */\n  dup1\n    /* \"#utility.yul\":1497:1506   */\n  not\n    /* \"#utility.yul\":1490:1495   */\n  dup5\n    /* \"#utility.yul\":1486:1507   */\n  and\n    /* \"#utility.yul\":1477:1507   */\n  swap4\n  pop\n    /* \"#utility.yul\":1550:1554   */\n  dup1\n    /* \"#utility.yul\":1540:1548   */\n  dup7\n    /* \"#utility.yul\":1536:1555   */\n  and\n    /* \"#utility.yul\":1529:1534   */\n  dup5\n    /* \"#utility.yul\":1526:1556   */\n  or\n    /* \"#utility.yul\":1516:1556   */\n  swap3\n  pop\n    /* \"#utility.yul\":1245:1562   */\n  pop\n  pop\n    /* \"#utility.yul\":1169:1562   */\n  swap4\n  swap3\n  pop\n  pop\n  pop\n  jump\t// out\n    /* \"#utility.yul\":1568:1645   */\ntag_13:\n    /* \"#utility.yul\":1605:1612   */\n  0x00\n    /* \"#utility.yul\":1634:1639   */\n  dup2\n    /* \"#utility.yul\":1623:1639   */\n  swap1\n  pop\n    /* \"#utility.yul\":1568:1645   */\n  swap2\n  swap1\n  pop\n  jump\t// out\n    /* \"#utility.yul\":1651:1711   */\ntag_14:\n    /* \"#utility.yul\":1679:1682   */\n  0x00\n    /* \"#utility.yul\":1700:1705   */\n  dup2\n    /* \"#utility.yul\":1693:1705   */\n  swap1\n  pop\n    /* \"#utility.yul\":1651:1711   */\n  swap2\n  swap1\n  pop\n  jump\t// out\n    /* \"#utility.yul\":1717:1859   */\ntag_15:\n    /* \"#utility.yul\":1767:1776   */\n  0x00\n    /* \"#utility.yul\":1800:1853   */\n  tag_42\n    /* \"#utility.yul\":1818:1852   */\n  tag_43\n    /* \"#utility.yul\":1827:1851   */\n  tag_44\n    /* \"#utility.yul\":1845:1850   */\n  dup5\n    /* \"#utility.yul\":1827:1851   */\n  tag_13\n  jump\t// in\ntag_44:\n    /* \"#utility.yul\":1818:1852   */\n  tag_14\n  jump\t// in\ntag_43:\n    /* \"#utility.yul\":1800:1853   */\n  tag_13\n  jump\t// in\ntag_42:\n    /* \"#utility.yul\":1787:1853   */\n  swap1\n  pop\n    /* \"#utility.yul\":1717:1859   */\n  swap2\n  swap1\n  pop\n  jump\t// out\n    /* \"#utility.yul\":1865:1940   */\ntag_16:\n    /* \"#utility.yul\":1908:1911   */\n  0x00\n    /* \"#utility.yul\":1929:1934   */\n  dup2\n    /* \"#utility.yul\":1922:1934   */\n  swap1\n  pop\n    /* \"#utility.yul\":1865:1940   */\n  swap2\n  swap1\n  pop\n  jump\t// out\n    /* \"#utility.yul\":1946:2215   */\ntag_17:\n    /* \"#utility.yul\":2056:2095   */\n  tag_47\n    /* \"#utility.yul\":2087:2094   */\n  dup4\n    /* \"#utility.yul\":2056:2095   */\n  tag_15\n  jump\t// in\ntag_47:\n    /* \"#utility.yul\":2117:2208   */\n  tag_48\n    /* \"#utility.yul\":2166:2207   */\n  tag_49\n    /* \"#utility.yul\":2190:2206   */\n  dup3\n    /* \"#utility.yul\":2166:2207   */\n  tag_16\n  jump\t// in\ntag_49:\n    /* \"#utility.yul\":2158:2164   */\n  dup5\n    /* \"#utility.yul\":2151:2155   */\n  dup5\n    /* \"#utility.yul\":2145:2156   */\n  sload\n    /* \"#utility.yul\":2117:2208   */\n  tag_12\n  jump\t// in\ntag_48:\n    /* \"#utility.yul\":2111:2115   */\n  dup3\n    /* \"#utility.yul\":2104:2209   */\n  sstore\n    /* \"#utility.yul\":2022:2215   */\n  pop\n    /* \"#utility.yul\":1946:2215   */\n  pop\n  pop\n  pop\n  jump\t// out\n    /* \"#utility.yul\":2221:2294   */\ntag_18:\n    /* \"#utility.yul\":2266:2269   */\n  0x00\n    /* \"#utility.yul\":2221:2294   */\n  swap1\n  jump\t// out\n    /* \"#utility.yul\":2300:2489   */\ntag_19:\n    /* \"#utility.yul\":2377:2409   */\n  tag_52\n  tag_18\n  jump\t// in\ntag_52:\n    /* \"#utility.yul\":2418:2483   */\n  tag_53\n    /* \"#utility.yul\":2476:2482   */\n  dup2\n    /* \"#utility.yul\":2468:2474   */\n  dup5\n    /* \"#utility.yul\":2462:2466   */\n  dup5\n    /* \"#utility.yul\":2418:2483   */\n  tag_17\n  jump\t// in\ntag_53:\n    /* \"#utility.yul\":2353:2489   */\n  pop\n    /* \"#utility.yul\":2300:2489   */\n  pop\n  pop\n  jump\t// out\n    /* \"#utility.yul\":2495:2681   */\ntag_20:\n    /* \"#utility.yul\":2555:2675   */\ntag_55:\n    /* \"#utility.yul\":2572:2575   */\n  dup2\n    /* \"#utility.yul\":2565:2570   */\n  dup2\n    /* \"#utility.yul\":2562:2576   */\n  lt\n    /* \"#utility.yul\":2555:2675   */\n  iszero\n  tag_57\n  jumpi\n    /* \"#utility.yul\":2626:2665   */\n  tag_58\n    /* \"#utility.yul\":2663:2664   */\n  0x00\n    /* \"#utility.yul\":2656:2661   */\n  dup3\n    /* \"#utility.yul\":2626:2665   */\n  tag_19\n  jump\t// in\ntag_58:\n    /* \"#utility.yul\":2599:2600   */\n  0x01\n    /* \"#utility.yul\":2592:2597   */\n  dup2\n    /* \"#utility.yul\":2588:2601   */\n  add\n    /* \"#utility.yul\":2579:2601   */\n  swap1\n  pop\n    /* \"#utility.yul\":2555:2675   */\n  jump(tag_55)\ntag_57:\n    /* \"#utility.yul\":2495:2681   */\n  pop\n  pop\n  jump\t// out\n    /* \"#utility.yul\":2687:3230   */\ntag_21:\n    /* \"#utility.yul\":2788:2790   */\n  0x1f\n    /* \"#utility.yul\":2783:2786   */\n  dup3\n    /* \"#utility.yul\":2780:2791   */\n  gt\n    /* \"#utility.yul\":2777:3223   */\n  iszero\n  tag_60\n  jumpi\n    /* \"#utility.yul\":2822:2860   */\n  tag_61\n    /* \"#utility.yul\":2854:2859   */\n  dup2\n    /* \"#utility.yul\":2822:2860   */\n  tag_9\n  jump\t// in\ntag_61:\n    /* \"#utility.yul\":2906:2935   */\n  tag_62\n    /* \"#utility.yul\":2924:2934   */\n  dup5\n    /* \"#utility.yul\":2906:2935   */\n  tag_10\n  jump\t// in\ntag_62:\n    /* \"#utility.yul\":2896:2904   */\n  dup2\n    /* \"#utility.yul\":2892:2936   */\n  add\n    /* \"#utility.yul\":3089:3091   */\n  0x20\n    /* \"#utility.yul\":3077:3087   */\n  dup6\n    /* \"#utility.yul\":3074:3092   */\n  lt\n    /* \"#utility.yul\":3071:3120   */\n  iszero\n  tag_63\n  jumpi\n    /* \"#utility.yul\":3110:3118   */\n  dup2\n    /* \"#utility.yul\":3095:3118   */\n  swap1\n  pop\n    /* \"#utility.yul\":3071:3120   */\ntag_63:\n    /* \"#utility.yul\":3133:3213   */\n  tag_64\n    /* \"#utility.yul\":3189:3211   */\n  tag_65\n    /* \"#utility.yul\":3207:3210   */\n  dup6\n    /* \"#utility.yul\":3189:3211   */\n  tag_10\n  jump\t// in\ntag_65:\n    /* \"#utility.yul\":3179:3187   */\n  dup4\n    /* \"#utility.yul\":3175:3212   */\n  add\n    /* \"#utility.yul\":3162:3173   */\n  dup3\n    /* \"#utility.yul\":3133:3213   */\n  tag_20\n  jump\t// in\ntag_64:\n    /* \"#utility.yul\":2792:3223   */\n  pop\n  pop\n    /* \"#utility.yul\":2777:3223   */\ntag_60:\n    /* \"#utility.yul\":2687:3230   */\n  pop\n  pop\n  pop\n  jump\t// out\n    /* \"#utility.yul\":3236:3353   */\ntag_22:\n    /* \"#utility.yul\":3290:3298   */\n  0x00\n    /* \"#utility.yul\":3340:3345   */\n  dup3\n    /* \"#utility.yul\":3334:3338   */\n  dup3\n    /* \"#utility.yul\":3330:3346   */\n  shr\n    /* \"#utility.yul\":3309:3346   */\n  swap1\n  pop\n    /* \"#utility.yul\":3236:3353   */\n  swap3\n  swap2\n  pop\n  pop\n  jump\t// out\n    /* \"#utility.yul\":3359:3528   */\ntag_23:\n    /* \"#utility.yul\":3403:3409   */\n  0x00\n    /* \"#utility.yul\":3436:3487   */\n  tag_68\n    /* \"#utility.yul\":3484:3485   */\n  0x00\n    /* \"#utility.yul\":3480:3486   */\n  not\n    /* \"#utility.yul\":3472:3477   */\n  dup5\n    /* \"#utility.yul\":3469:3470   */\n  0x08\n    /* \"#utility.yul\":3465:3478   */\n  mul\n    /* \"#utility.yul\":3436:3487   */\n  tag_22\n  jump\t// in\ntag_68:\n    /* \"#utility.yul\":3432:3488   */\n  not\n    /* \"#utility.yul\":3517:3521   */\n  dup1\n    /* \"#utility.yul\":3511:3515   */\n  dup4\n    /* \"#utility.yul\":3507:3522   */\n  and\n    /* \"#utility.yul\":3497:3522   */\n  swap2\n  pop\n    /* \"#utility.yul\":3410:3528   */\n  pop\n    /* \"#utility.yul\":3359:3528   */\n  swap3\n  swap2\n  pop\n  pop\n  jump\t// out\n    /* \"#utility.yul\":3533:3828   */\ntag_24:\n    /* \"#utility.yul\":3609:3613   */\n  0x00\n    /* \"#utility.yul\":3755:3784   */\n  tag_70\n    /* \"#utility.yul\":3780:3783   */\n  dup4\n    /* \"#utility.yul\":3774:3778   */\n  dup4\n    /* \"#utility.yul\":3755:3784   */\n  tag_23\n  jump\t// in\ntag_70:\n    /* \"#utility.yul\":3747:3784   */\n  swap2\n  pop\n    /* \"#utility.yul\":3817:3820   */\n  dup3\n    /* \"#utility.yul\":3814:3815   */\n  0x02\n    /* \"#utility.yul\":3810:3821   */\n  mul\n    /* \"#utility.yul\":3804:3808   */\n  dup3\n    /* \"#utility.yul\":3801:3822   */\n  or\n    /* \"#utility.yul\":3793:3822   */\n  swap1\n  pop\n    /* \"#utility.yul\":3533:3828   */\n  swap3\n  swap2\n  pop\n  pop\n  jump\t// out\n    /* \"#utility.yul\":3833:5228   */\ntag_2:\n    /* \"#utility.yul\":3950:3987   */\n  tag_72\n    /* \"#utility.yul\":3983:3986   */\n  dup3\n    /* \"#utility.yul\":3950:3987   */\n  tag_5\n  jump\t// in\ntag_72:\n    /* \"#utility.yul\":4052:4070   */\n  0xffffffffffffffff\n    /* \"#utility.yul\":4044:4050   */\n  dup2\n    /* \"#utility.yul\":4041:4071   */\n  gt\n    /* \"#utility.yul\":4038:4094   */\n  iszero\n  tag_73\n  jumpi\n    /* \"#utility.yul\":4074:4092   */\n  tag_74\n  tag_6\n  jump\t// in\ntag_74:\n    /* \"#utility.yul\":4038:4094   */\ntag_73:\n    /* \"#utility.yul\":4118:4156   */\n  tag_75\n    /* \"#utility.yul\":4150:4154   */\n  dup3\n    /* \"#utility.yul\":4144:4155   */\n  sload\n    /* \"#utility.yul\":4118:4156   */\n  tag_8\n  jump\t// in\ntag_75:\n    /* \"#utility.yul\":4203:4270   */\n  tag_76\n    /* \"#utility.yul\":4263:4269   */\n  dup3\n    /* \"#utility.yul\":4255:4261   */\n  dup3\n    /* \"#utility.yul\":4249:4253   */\n  dup6\n    /* \"#utility.yul\":4203:4270   */\n  tag_21\n  jump\t// in\ntag_76:\n    /* \"#utility.yul\":4297:4298   */\n  0x00\n    /* \"#utility.yul\":4321:4325   */\n  0x20\n    /* \"#utility.yul\":4308:4325   */\n  swap1\n  pop\n    /* \"#utility.yul\":4353:4355   */\n  0x1f\n    /* \"#utility.yul\":4345:4351   */\n  dup4\n    /* \"#utility.yul\":4342:4356   */\n  gt\n    /* \"#utility.yul\":4370:4371   */\n  0x01\n    /* \"#utility.yul\":4365:4983   */\n  dup2\n  eq\n  tag_78\n  jumpi\n    /* \"#utility.yul\":5027:5028   */\n  0x00\n    /* \"#utility.yul\":5044:5050   */\n  dup5\n    /* \"#utility.yul\":5041:5118   */\n  iszero\n  tag_79\n  jumpi\n    /* \"#utility.yul\":5093:5102   */\n  dup3\n    /* \"#utility.yul\":5088:5091   */\n  dup8\n    /* \"#utility.yul\":5084:5103   */\n  add\n    /* \"#utility.yul\":5078:5104   */\n  mload\n    /* \"#utility.yul\":5069:5104   */\n  swap1\n  pop\n    /* \"#utility.yul\":5041:5118   */\ntag_79:\n    /* \"#utility.yul\":5144:5211   */\n  tag_80\n    /* \"#utility.yul\":5204:5210   */\n  dup6\n    /* \"#utility.yul\":5197:5202   */\n  dup3\n    /* \"#utility.yul\":5144:5211   */\n  tag_24\n  jump\t// in\ntag_80:\n    /* \"#utility.yul\":5138:5142   */\n  dup7\n    /* \"#utility.yul\":5131:5212   */\n  sstore\n    /* \"#utility.yul\":5000:5222   */\n  pop\n    /* \"#utility.yul\":4335:5222   */\n  jump(tag_77)\n    /* \"#utility.yul\":4365:4983   */\ntag_78:\n    /* \"#utility.yul\":4417:4421   */\n  0x1f\n    /* \"#utility.yul\":4413:4422   */\n  not\n    /* \"#utility.yul\":4405:4411   */\n  dup5\n    /* \"#utility.yul\":4401:4423   */\n  and\n    /* \"#utility.yul\":4451:4488   */\n  tag_81\n    /* \"#utility.yul\":4483:4487   */\n  dup7\n    /* \"#utility.yul\":4451:4488   */\n  tag_9\n  jump\t// in\ntag_81:\n    /* \"#utility.yul\":4510:4511   */\n  0x00\n    /* \"#utility.yul\":4524:4732   */\ntag_82:\n    /* \"#utility.yul\":4538:4545   */\n  dup3\n    /* \"#utility.yul\":4535:4536   */\n  dup2\n    /* \"#utility.yul\":4532:4546   */\n  lt\n    /* \"#utility.yul\":4524:4732   */\n  iszero\n  tag_84\n  jumpi\n    /* \"#utility.yul\":4617:4626   */\n  dup5\n    /* \"#utility.yul\":4612:4615   */\n  dup10\n    /* \"#utility.yul\":4608:4627   */\n  add\n    /* \"#utility.yul\":4602:4628   */\n  mload\n    /* \"#utility.yul\":4594:4600   */\n  dup3\n    /* \"#utility.yul\":4587:4629   */\n  sstore\n    /* \"#utility.yul\":4668:4669   */\n  0x01\n    /* \"#utility.yul\":4660:4666   */\n  dup3\n    /* \"#utility.yul\":4656:4670   */\n  add\n    /* \"#utility.yul\":4646:4670   */\n  swap2\n  pop\n    /* \"#utility.yul\":4715:4717   */\n  0x20\n    /* \"#utility.yul\":4704:4713   */\n  dup6\n    /* \"#utility.yul\":4700:4718   */\n  add\n    /* \"#utility.yul\":4687:4718   */\n  swap5\n  pop\n    /* \"#utility.yul\":4561:4565   */\n  0x20\n    /* \"#utility.yul\":4558:4559   */\n  dup2\n    /* \"#utility.yul\":4554:4566   */\n  add\n    /* \"#utility.yul\":4549:4566   */\n  swap1\n  pop\n    /* \"#utility.yul\":4524:4732   */\n  jump(tag_82)\ntag_84:\n    /* \"#utility.yul\":4760:4766   */\n  dup7\n    /* \"#utility.yul\":4751:4758   */\n  dup4\n    /* \"#utility.yul\":4748:4767   */\n  lt\n    /* \"#utility.yul\":4745:4924   */\n  iszero\n  tag_85\n  jumpi\n    /* \"#utility.yul\":4818:4827   */\n  dup5\n    /* \"#utility.yul\":4813:4816   */\n  dup10\n    /* \"#utility.yul\":4809:4828   */\n  add\n    /* \"#utility.yul\":4803:4829   */\n  mload\n    /* \"#utility.yul\":4861:4909   */\n  tag_86\n    /* \"#utility.yul\":4903:4907   */\n  0x1f\n    /* \"#utility.yul\":4895:4901   */\n  dup10\n    /* \"#utility.yul\":4891:4908   */\n  and\n    /* \"#utility.yul\":4880:4889   */\n  dup3\n    /* \"#utility.yul\":4861:4909   */\n  tag_23\n  jump\t// in\ntag_86:\n    /* \"#utility.yul\":4853:4859   */\n  dup4\n    /* \"#utility.yul\":4846:4910   */\n  sstore\n    /* \"#utility.yul\":4768:4924   */\n  pop\n    /* \"#utility.yul\":4745:4924   */\ntag_85:\n    /* \"#utility.yul\":4970:4971   */\n  0x01\n    /* \"#utility.yul\":4966:4967   */\n  0x02\n    /* \"#utility.yul\":4958:4964   */\n  dup9\n    /* \"#utility.yul\":4954:4968   */\n  mul\n    /* \"#utility.yul\":4950:4972   */\n  add\n    /* \"#utility.yul\":4944:4948   */\n  dup9\n    /* \"#utility.yul\":4937:4973   */\n  sstore\n    /* \"#utility.yul\":4372:4983   */\n  pop\n  pop\n  pop\n    /* \"#utility.yul\":4335:5222   */\ntag_77:\n  pop\n    /* \"#utility.yul\":3925:5228   */\n  pop\n  pop\n  pop\n    /* \"#utility.yul\":3833:5228   */\n  pop\n  pop\n  jump\t// out\n    /* \"contracts/destructuring.sol\":70:422  contract DestructuringFunctions {... */\ntag_4:\n  dataSize(sub_0)\n  dup1\n  dataOffset(sub_0)\n  0x00\n  codecopy\n  0x00\n  return\nstop\n\nsub_0: assembly {\n        /* \"contracts/destructuring.sol\":70:422  contract DestructuringFunctions {... */\n      mstore(0x40, 0x80)\n      callvalue\n      dup1\n      iszero\n      tag_1\n      jumpi\n      0x00\n      dup1\n      revert\n    tag_1:\n      pop\n      jumpi(tag_2, lt(calldatasize, 0x04))\n      shr(0xe0, calldataload(0x00))\n      dup1\n      0x26121ff0\n      eq\n      tag_3\n      jumpi\n      dup1\n      0xc5cf81d5\n      eq\n      tag_4\n      jumpi\n      dup1\n      0xce266af8\n      eq\n      tag_5\n      jumpi\n      dup1\n      0xe2179b8e\n      eq\n      tag_6\n      jumpi\n    tag_2:\n      0x00\n      dup1\n      revert\n        /* \"contracts/destructuring.sol\":175:351  function f()... */\n    tag_3:\n      tag_7\n      tag_8\n      jump\t// in\n    tag_7:\n      mload(0x40)\n      tag_9\n      swap4\n      swap3\n      swap2\n      swap1\n      tag_10\n      jump\t// in\n    tag_9:\n      mload(0x40)\n      dup1\n      swap2\n      sub\n      swap1\n      return\n        /* \"contracts/destructuring.sol\":108:134  uint256 public changeValue */\n    tag_4:\n      tag_11\n      tag_12\n      jump\t// in\n    tag_11:\n      mload(0x40)\n      tag_13\n      swap2\n      swap1\n      tag_14\n      jump\t// in\n    tag_13:\n      mload(0x40)\n      dup1\n      swap2\n      sub\n      swap1\n      return\n        /* \"contracts/destructuring.sol\":140:168  string public tom = \"Hello!\" */\n    tag_5:\n      tag_15\n      tag_16\n      jump\t// in\n    tag_15:\n      mload(0x40)\n      tag_17\n      swap2\n      swap1\n      tag_18\n      jump\t// in\n    tag_17:\n      mload(0x40)\n      dup1\n      swap2\n      sub\n      swap1\n      return\n        /* \"contracts/destructuring.sol\":357:420  function g() public {... */\n    tag_6:\n      tag_19\n      tag_20\n      jump\t// in\n    tag_19:\n      stop\n        /* \"contracts/destructuring.sol\":175:351  function f()... */\n    tag_8:\n        /* \"contracts/destructuring.sol\":246:251  uint8 */\n      0x00\n        /* \"contracts/destructuring.sol\":265:269  bool */\n      dup1\n        /* \"contracts/destructuring.sol\":283:296  string memory */\n      0x60\n        /* \"contracts/destructuring.sol\":329:330  3 */\n      0x03\n        /* \"contracts/destructuring.sol\":332:336  true */\n      0x01\n        /* \"contracts/destructuring.sol\":321:344  return (3, true, \"Bye\") */\n      mload(0x40)\n      dup1\n      0x40\n      add\n      0x40\n      mstore\n      dup1\n      0x03\n      dup2\n      mstore\n      0x20\n      add\n      0x4279650000000000000000000000000000000000000000000000000000000000\n      dup2\n      mstore\n      pop\n      swap3\n      pop\n      swap3\n      pop\n      swap3\n      pop\n        /* \"contracts/destructuring.sol\":175:351  function f()... */\n      swap1\n      swap2\n      swap3\n      jump\t// out\n        /* \"contracts/destructuring.sol\":108:134  uint256 public changeValue */\n    tag_12:\n      sload(0x00)\n      dup2\n      jump\t// out\n        /* \"contracts/destructuring.sol\":140:168  string public tom = \"Hello!\" */\n    tag_16:\n      0x01\n      dup1\n      sload\n      tag_22\n      swap1\n      tag_23\n      jump\t// in\n    tag_22:\n      dup1\n      0x1f\n      add\n      0x20\n      dup1\n      swap2\n      div\n      mul\n      0x20\n      add\n      mload(0x40)\n      swap1\n      dup2\n      add\n      0x40\n      mstore\n      dup1\n      swap3\n      swap2\n      swap1\n      dup2\n      dup2\n      mstore\n      0x20\n      add\n      dup3\n      dup1\n      sload\n      tag_24\n      swap1\n      tag_23\n      jump\t// in\n    tag_24:\n      dup1\n      iszero\n      tag_25\n      jumpi\n      dup1\n      0x1f\n      lt\n      tag_26\n      jumpi\n      0x0100\n      dup1\n      dup4\n      sload\n      div\n      mul\n      dup4\n      mstore\n      swap2\n      0x20\n      add\n      swap2\n      jump(tag_25)\n    tag_26:\n      dup3\n      add\n      swap2\n      swap1\n      0x00\n      mstore\n      keccak256(0x00, 0x20)\n      swap1\n    tag_27:\n      dup2\n      sload\n      dup2\n      mstore\n      swap1\n      0x01\n      add\n      swap1\n      0x20\n      add\n      dup1\n      dup4\n      gt\n      tag_27\n      jumpi\n      dup3\n      swap1\n      sub\n      0x1f\n      and\n      dup3\n      add\n      swap2\n    tag_25:\n      pop\n      pop\n      pop\n      pop\n      pop\n      dup2\n      jump\t// out\n        /* \"contracts/destructuring.sol\":357:420  function g() public {... */\n    tag_20:\n        /* \"contracts/destructuring.sol\":410:413  f() */\n      tag_29\n        /* \"contracts/destructuring.sol\":410:411  f */\n      tag_8\n        /* \"contracts/destructuring.sol\":410:413  f() */\n      jump\t// in\n    tag_29:\n        /* \"contracts/destructuring.sol\":387:413  (changeValue, , tom) = f() */\n      dup3\n      0xff\n      and\n      swap3\n      pop\n      swap1\n      pop\n        /* \"contracts/destructuring.sol\":388:399  changeValue */\n      0x00\n      dup1\n        /* \"contracts/destructuring.sol\":403:406  tom */\n      0x01\n      0x00\n        /* \"contracts/destructuring.sol\":387:413  (changeValue, , tom) = f() */\n      dup5\n      swap2\n      swap1\n      pop\n      swap1\n      dup2\n      tag_30\n      swap2\n      swap1\n      tag_31\n      jump\t// in\n    tag_30:\n      pop\n      dup4\n      swap2\n      swap1\n      pop\n      sstore\n      pop\n      pop\n        /* \"contracts/destructuring.sol\":357:420  function g() public {... */\n      jump\t// out\n        /* \"#utility.yul\":7:93   */\n    tag_32:\n        /* \"#utility.yul\":42:49   */\n      0x00\n        /* \"#utility.yul\":82:86   */\n      0xff\n        /* \"#utility.yul\":75:80   */\n      dup3\n        /* \"#utility.yul\":71:87   */\n      and\n        /* \"#utility.yul\":60:87   */\n      swap1\n      pop\n        /* \"#utility.yul\":7:93   */\n      swap2\n      swap1\n      pop\n      jump\t// out\n        /* \"#utility.yul\":99:211   */\n    tag_33:\n        /* \"#utility.yul\":182:204   */\n      tag_63\n        /* \"#utility.yul\":198:203   */\n      dup2\n        /* \"#utility.yul\":182:204   */\n      tag_32\n      jump\t// in\n    tag_63:\n        /* \"#utility.yul\":177:180   */\n      dup3\n        /* \"#utility.yul\":170:205   */\n      mstore\n        /* \"#utility.yul\":99:211   */\n      pop\n      pop\n      jump\t// out\n        /* \"#utility.yul\":217:307   */\n    tag_34:\n        /* \"#utility.yul\":251:258   */\n      0x00\n        /* \"#utility.yul\":294:299   */\n      dup2\n        /* \"#utility.yul\":287:300   */\n      iszero\n        /* \"#utility.yul\":280:301   */\n      iszero\n        /* \"#utility.yul\":269:301   */\n      swap1\n      pop\n        /* \"#utility.yul\":217:307   */\n      swap2\n      swap1\n      pop\n      jump\t// out\n        /* \"#utility.yul\":313:422   */\n    tag_35:\n        /* \"#utility.yul\":394:415   */\n      tag_66\n        /* \"#utility.yul\":409:414   */\n      dup2\n        /* \"#utility.yul\":394:415   */\n      tag_34\n      jump\t// in\n    tag_66:\n        /* \"#utility.yul\":389:392   */\n      dup3\n        /* \"#utility.yul\":382:416   */\n      mstore\n        /* \"#utility.yul\":313:422   */\n      pop\n      pop\n      jump\t// out\n        /* \"#utility.yul\":428:527   */\n    tag_36:\n        /* \"#utility.yul\":480:486   */\n      0x00\n        /* \"#utility.yul\":514:519   */\n      dup2\n        /* \"#utility.yul\":508:520   */\n      mload\n        /* \"#utility.yul\":498:520   */\n      swap1\n      pop\n        /* \"#utility.yul\":428:527   */\n      swap2\n      swap1\n      pop\n      jump\t// out\n        /* \"#utility.yul\":533:702   */\n    tag_37:\n        /* \"#utility.yul\":617:628   */\n      0x00\n        /* \"#utility.yul\":651:657   */\n      dup3\n        /* \"#utility.yul\":646:649   */\n      dup3\n        /* \"#utility.yul\":639:658   */\n      mstore\n        /* \"#utility.yul\":691:695   */\n      0x20\n        /* \"#utility.yul\":686:689   */\n      dup3\n        /* \"#utility.yul\":682:696   */\n      add\n        /* \"#utility.yul\":667:696   */\n      swap1\n      pop\n        /* \"#utility.yul\":533:702   */\n      swap3\n      swap2\n      pop\n      pop\n      jump\t// out\n        /* \"#utility.yul\":708:847   */\n    tag_38:\n        /* \"#utility.yul\":797:803   */\n      dup3\n        /* \"#utility.yul\":792:795   */\n      dup2\n        /* \"#utility.yul\":787:790   */\n      dup4\n        /* \"#utility.yul\":781:804   */\n      mcopy\n        /* \"#utility.yul\":838:839   */\n      0x00\n        /* \"#utility.yul\":829:835   */\n      dup4\n        /* \"#utility.yul\":824:827   */\n      dup4\n        /* \"#utility.yul\":820:836   */\n      add\n        /* \"#utility.yul\":813:840   */\n      mstore\n        /* \"#utility.yul\":708:847   */\n      pop\n      pop\n      pop\n      jump\t// out\n        /* \"#utility.yul\":853:955   */\n    tag_39:\n        /* \"#utility.yul\":894:900   */\n      0x00\n        /* \"#utility.yul\":945:947   */\n      0x1f\n        /* \"#utility.yul\":941:948   */\n      not\n        /* \"#utility.yul\":936:938   */\n      0x1f\n        /* \"#utility.yul\":929:934   */\n      dup4\n        /* \"#utility.yul\":925:939   */\n      add\n        /* \"#utility.yul\":921:949   */\n      and\n        /* \"#utility.yul\":911:949   */\n      swap1\n      pop\n        /* \"#utility.yul\":853:955   */\n      swap2\n      swap1\n      pop\n      jump\t// out\n        /* \"#utility.yul\":961:1338   */\n    tag_40:\n        /* \"#utility.yul\":1049:1052   */\n      0x00\n        /* \"#utility.yul\":1077:1116   */\n      tag_72\n        /* \"#utility.yul\":1110:1115   */\n      dup3\n        /* \"#utility.yul\":1077:1116   */\n      tag_36\n      jump\t// in\n    tag_72:\n        /* \"#utility.yul\":1132:1203   */\n      tag_73\n        /* \"#utility.yul\":1196:1202   */\n      dup2\n        /* \"#utility.yul\":1191:1194   */\n      dup6\n        /* \"#utility.yul\":1132:1203   */\n      tag_37\n      jump\t// in\n    tag_73:\n        /* \"#utility.yul\":1125:1203   */\n      swap4\n      pop\n        /* \"#utility.yul\":1212:1277   */\n      tag_74\n        /* \"#utility.yul\":1270:1276   */\n      dup2\n        /* \"#utility.yul\":1265:1268   */\n      dup6\n        /* \"#utility.yul\":1258:1262   */\n      0x20\n        /* \"#utility.yul\":1251:1256   */\n      dup7\n        /* \"#utility.yul\":1247:1263   */\n      add\n        /* \"#utility.yul\":1212:1277   */\n      tag_38\n      jump\t// in\n    tag_74:\n        /* \"#utility.yul\":1302:1331   */\n      tag_75\n        /* \"#utility.yul\":1324:1330   */\n      dup2\n        /* \"#utility.yul\":1302:1331   */\n      tag_39\n      jump\t// in\n    tag_75:\n        /* \"#utility.yul\":1297:1300   */\n      dup5\n        /* \"#utility.yul\":1293:1332   */\n      add\n        /* \"#utility.yul\":1286:1332   */\n      swap2\n      pop\n        /* \"#utility.yul\":1053:1338   */\n      pop\n        /* \"#utility.yul\":961:1338   */\n      swap3\n      swap2\n      pop\n      pop\n      jump\t// out\n        /* \"#utility.yul\":1344:1857   */\n    tag_10:\n        /* \"#utility.yul\":1503:1507   */\n      0x00\n        /* \"#utility.yul\":1541:1543   */\n      0x60\n        /* \"#utility.yul\":1530:1539   */\n      dup3\n        /* \"#utility.yul\":1526:1544   */\n      add\n        /* \"#utility.yul\":1518:1544   */\n      swap1\n      pop\n        /* \"#utility.yul\":1554:1621   */\n      tag_77\n        /* \"#utility.yul\":1618:1619   */\n      0x00\n        /* \"#utility.yul\":1607:1616   */\n      dup4\n        /* \"#utility.yul\":1603:1620   */\n      add\n        /* \"#utility.yul\":1594:1600   */\n      dup7\n        /* \"#utility.yul\":1554:1621   */\n      tag_33\n      jump\t// in\n    tag_77:\n        /* \"#utility.yul\":1631:1697   */\n      tag_78\n        /* \"#utility.yul\":1693:1695   */\n      0x20\n        /* \"#utility.yul\":1682:1691   */\n      dup4\n        /* \"#utility.yul\":1678:1696   */\n      add\n        /* \"#utility.yul\":1669:1675   */\n      dup6\n        /* \"#utility.yul\":1631:1697   */\n      tag_35\n      jump\t// in\n    tag_78:\n        /* \"#utility.yul\":1744:1753   */\n      dup2\n        /* \"#utility.yul\":1738:1742   */\n      dup2\n        /* \"#utility.yul\":1734:1754   */\n      sub\n        /* \"#utility.yul\":1729:1731   */\n      0x40\n        /* \"#utility.yul\":1718:1727   */\n      dup4\n        /* \"#utility.yul\":1714:1732   */\n      add\n        /* \"#utility.yul\":1707:1755   */\n      mstore\n        /* \"#utility.yul\":1772:1850   */\n      tag_79\n        /* \"#utility.yul\":1845:1849   */\n      dup2\n        /* \"#utility.yul\":1836:1842   */\n      dup5\n        /* \"#utility.yul\":1772:1850   */\n      tag_40\n      jump\t// in\n    tag_79:\n        /* \"#utility.yul\":1764:1850   */\n      swap1\n      pop\n        /* \"#utility.yul\":1344:1857   */\n      swap5\n      swap4\n      pop\n      pop\n      pop\n      pop\n      jump\t// out\n        /* \"#utility.yul\":1863:1940   */\n    tag_41:\n        /* \"#utility.yul\":1900:1907   */\n      0x00\n        /* \"#utility.yul\":1929:1934   */\n      dup2\n        /* \"#utility.yul\":1918:1934   */\n      swap1\n      pop\n        /* \"#utility.yul\":1863:1940   */\n      swap2\n      swap1\n      pop\n      jump\t// out\n        /* \"#utility.yul\":1946:2064   */\n    tag_42:\n        /* \"#utility.yul\":2033:2057   */\n      tag_82\n        /* \"#utility.yul\":2051:2056   */\n      dup2\n        /* \"#utility.yul\":2033:2057   */\n      tag_41\n      jump\t// in\n    tag_82:\n        /* \"#utility.yul\":2028:2031   */\n      dup3\n        /* \"#utility.yul\":2021:2058   */\n      mstore\n        /* \"#utility.yul\":1946:2064   */\n      pop\n      pop\n      jump\t// out\n        /* \"#utility.yul\":2070:2292   */\n    tag_14:\n        /* \"#utility.yul\":2163:2167   */\n      0x00\n        /* \"#utility.yul\":2201:2203   */\n      0x20\n        /* \"#utility.yul\":2190:2199   */\n      dup3\n        /* \"#utility.yul\":2186:2204   */\n      add\n        /* \"#utility.yul\":2178:2204   */\n      swap1\n      pop\n        /* \"#utility.yul\":2214:2285   */\n      tag_84\n        /* \"#utility.yul\":2282:2283   */\n      0x00\n        /* \"#utility.yul\":2271:2280   */\n      dup4\n        /* \"#utility.yul\":2267:2284   */\n      add\n        /* \"#utility.yul\":2258:2264   */\n      dup5\n        /* \"#utility.yul\":2214:2285   */\n      tag_42\n      jump\t// in\n    tag_84:\n        /* \"#utility.yul\":2070:2292   */\n      swap3\n      swap2\n      pop\n      pop\n      jump\t// out\n        /* \"#utility.yul\":2298:2611   */\n    tag_18:\n        /* \"#utility.yul\":2411:2415   */\n      0x00\n        /* \"#utility.yul\":2449:2451   */\n      0x20\n        /* \"#utility.yul\":2438:2447   */\n      dup3\n        /* \"#utility.yul\":2434:2452   */\n      add\n        /* \"#utility.yul\":2426:2452   */\n      swap1\n      pop\n        /* \"#utility.yul\":2498:2507   */\n      dup2\n        /* \"#utility.yul\":2492:2496   */\n      dup2\n        /* \"#utility.yul\":2488:2508   */\n      sub\n        /* \"#utility.yul\":2484:2485   */\n      0x00\n        /* \"#utility.yul\":2473:2482   */\n      dup4\n        /* \"#utility.yul\":2469:2486   */\n      add\n        /* \"#utility.yul\":2462:2509   */\n      mstore\n        /* \"#utility.yul\":2526:2604   */\n      tag_86\n        /* \"#utility.yul\":2599:2603   */\n      dup2\n        /* \"#utility.yul\":2590:2596   */\n      dup5\n        /* \"#utility.yul\":2526:2604   */\n      tag_40\n      jump\t// in\n    tag_86:\n        /* \"#utility.yul\":2518:2604   */\n      swap1\n      pop\n        /* \"#utility.yul\":2298:2611   */\n      swap3\n      swap2\n      pop\n      pop\n      jump\t// out\n        /* \"#utility.yul\":2617:2797   */\n    tag_43:\n        /* \"#utility.yul\":2665:2742   */\n      0x4e487b7100000000000000000000000000000000000000000000000000000000\n        /* \"#utility.yul\":2662:2663   */\n      0x00\n        /* \"#utility.yul\":2655:2743   */\n      mstore\n        /* \"#utility.yul\":2762:2766   */\n      0x22\n        /* \"#utility.yul\":2759:2760   */\n      0x04\n        /* \"#utility.yul\":2752:2767   */\n      mstore\n        /* \"#utility.yul\":2786:2790   */\n      0x24\n        /* \"#utility.yul\":2783:2784   */\n      0x00\n        /* \"#utility.yul\":2776:2791   */\n      revert\n        /* \"#utility.yul\":2803:3123   */\n    tag_23:\n        /* \"#utility.yul\":2847:2853   */\n      0x00\n        /* \"#utility.yul\":2884:2885   */\n      0x02\n        /* \"#utility.yul\":2878:2882   */\n      dup3\n        /* \"#utility.yul\":2874:2886   */\n      div\n        /* \"#utility.yul\":2864:2886   */\n      swap1\n      pop\n        /* \"#utility.yul\":2931:2932   */\n      0x01\n        /* \"#utility.yul\":2925:2929   */\n      dup3\n        /* \"#utility.yul\":2921:2933   */\n      and\n        /* \"#utility.yul\":2952:2970   */\n      dup1\n        /* \"#utility.yul\":2942:3023   */\n      tag_89\n      jumpi\n        /* \"#utility.yul\":3008:3012   */\n      0x7f\n        /* \"#utility.yul\":3000:3006   */\n      dup3\n        /* \"#utility.yul\":2996:3013   */\n      and\n        /* \"#utility.yul\":2986:3013   */\n      swap2\n      pop\n        /* \"#utility.yul\":2942:3023   */\n    tag_89:\n        /* \"#utility.yul\":3070:3072   */\n      0x20\n        /* \"#utility.yul\":3062:3068   */\n      dup3\n        /* \"#utility.yul\":3059:3073   */\n      lt\n        /* \"#utility.yul\":3039:3057   */\n      dup2\n        /* \"#utility.yul\":3036:3074   */\n      sub\n        /* \"#utility.yul\":3033:3117   */\n      tag_90\n      jumpi\n        /* \"#utility.yul\":3089:3107   */\n      tag_91\n      tag_43\n      jump\t// in\n    tag_91:\n        /* \"#utility.yul\":3033:3117   */\n    tag_90:\n        /* \"#utility.yul\":2854:3123   */\n      pop\n        /* \"#utility.yul\":2803:3123   */\n      swap2\n      swap1\n      pop\n      jump\t// out\n        /* \"#utility.yul\":3129:3309   */\n    tag_44:\n        /* \"#utility.yul\":3177:3254   */\n      0x4e487b7100000000000000000000000000000000000000000000000000000000\n        /* \"#utility.yul\":3174:3175   */\n      0x00\n        /* \"#utility.yul\":3167:3255   */\n      mstore\n        /* \"#utility.yul\":3274:3278   */\n      0x41\n        /* \"#utility.yul\":3271:3272   */\n      0x04\n        /* \"#utility.yul\":3264:3279   */\n      mstore\n        /* \"#utility.yul\":3298:3302   */\n      0x24\n        /* \"#utility.yul\":3295:3296   */\n      0x00\n        /* \"#utility.yul\":3288:3303   */\n      revert\n        /* \"#utility.yul\":3315:3456   */\n    tag_45:\n        /* \"#utility.yul\":3364:3368   */\n      0x00\n        /* \"#utility.yul\":3387:3390   */\n      dup2\n        /* \"#utility.yul\":3379:3390   */\n      swap1\n      pop\n        /* \"#utility.yul\":3410:3413   */\n      dup2\n        /* \"#utility.yul\":3407:3408   */\n      0x00\n        /* \"#utility.yul\":3400:3414   */\n      mstore\n        /* \"#utility.yul\":3444:3448   */\n      0x20\n        /* \"#utility.yul\":3441:3442   */\n      0x00\n        /* \"#utility.yul\":3431:3449   */\n      keccak256\n        /* \"#utility.yul\":3423:3449   */\n      swap1\n      pop\n        /* \"#utility.yul\":3315:3456   */\n      swap2\n      swap1\n      pop\n      jump\t// out\n        /* \"#utility.yul\":3462:3555   */\n    tag_46:\n        /* \"#utility.yul\":3499:3505   */\n      0x00\n        /* \"#utility.yul\":3546:3548   */\n      0x20\n        /* \"#utility.yul\":3541:3543   */\n      0x1f\n        /* \"#utility.yul\":3534:3539   */\n      dup4\n        /* \"#utility.yul\":3530:3544   */\n      add\n        /* \"#utility.yul\":3526:3549   */\n      div\n        /* \"#utility.yul\":3516:3549   */\n      swap1\n      pop\n        /* \"#utility.yul\":3462:3555   */\n      swap2\n      swap1\n      pop\n      jump\t// out\n        /* \"#utility.yul\":3561:3668   */\n    tag_47:\n        /* \"#utility.yul\":3605:3613   */\n      0x00\n        /* \"#utility.yul\":3655:3660   */\n      dup3\n        /* \"#utility.yul\":3649:3653   */\n      dup3\n        /* \"#utility.yul\":3645:3661   */\n      shl\n        /* \"#utility.yul\":3624:3661   */\n      swap1\n      pop\n        /* \"#utility.yul\":3561:3668   */\n      swap3\n      swap2\n      pop\n      pop\n      jump\t// out\n        /* \"#utility.yul\":3674:4067   */\n    tag_48:\n        /* \"#utility.yul\":3743:3749   */\n      0x00\n        /* \"#utility.yul\":3793:3794   */\n      0x08\n        /* \"#utility.yul\":3781:3791   */\n      dup4\n        /* \"#utility.yul\":3777:3795   */\n      mul\n        /* \"#utility.yul\":3816:3913   */\n      tag_97\n        /* \"#utility.yul\":3846:3912   */\n      0xffffffffffffffffffffffffffffffffffffffffffffffffffffffffffffffff\n        /* \"#utility.yul\":3835:3844   */\n      dup3\n        /* \"#utility.yul\":3816:3913   */\n      tag_47\n      jump\t// in\n    tag_97:\n        /* \"#utility.yul\":3934:3973   */\n      tag_98\n        /* \"#utility.yul\":3964:3972   */\n      dup7\n        /* \"#utility.yul\":3953:3962   */\n      dup4\n        /* \"#utility.yul\":3934:3973   */\n      tag_47\n      jump\t// in\n    tag_98:\n        /* \"#utility.yul\":3922:3973   */\n      swap6\n      pop\n        /* \"#utility.yul\":4006:4010   */\n      dup1\n        /* \"#utility.yul\":4002:4011   */\n      not\n        /* \"#utility.yul\":3995:4000   */\n      dup5\n        /* \"#utility.yul\":3991:4012   */\n      and\n        /* \"#utility.yul\":3982:4012   */\n      swap4\n      pop\n        /* \"#utility.yul\":4055:4059   */\n      dup1\n        /* \"#utility.yul\":4045:4053   */\n      dup7\n        /* \"#utility.yul\":4041:4060   */\n      and\n        /* \"#utility.yul\":4034:4039   */\n      dup5\n        /* \"#utility.yul\":4031:4061   */\n      or\n        /* \"#utility.yul\":4021:4061   */\n      swap3\n      pop\n        /* \"#utility.yul\":3750:4067   */\n      pop\n      pop\n        /* \"#utility.yul\":3674:4067   */\n      swap4\n      swap3\n      pop\n      pop\n      pop\n      jump\t// out\n        /* \"#utility.yul\":4073:4133   */\n    tag_49:\n        /* \"#utility.yul\":4101:4104   */\n      0x00\n        /* \"#utility.yul\":4122:4127   */\n      dup2\n        /* \"#utility.yul\":4115:4127   */\n      swap1\n      pop\n        /* \"#utility.yul\":4073:4133   */\n      swap2\n      swap1\n      pop\n      jump\t// out\n        /* \"#utility.yul\":4139:4281   */\n    tag_50:\n        /* \"#utility.yul\":4189:4198   */\n      0x00\n        /* \"#utility.yul\":4222:4275   */\n      tag_101\n        /* \"#utility.yul\":4240:4274   */\n      tag_102\n        /* \"#utility.yul\":4249:4273   */\n      tag_103\n        /* \"#utility.yul\":4267:4272   */\n      dup5\n        /* \"#utility.yul\":4249:4273   */\n      tag_41\n      jump\t// in\n    tag_103:\n        /* \"#utility.yul\":4240:4274   */\n      tag_49\n      jump\t// in\n    tag_102:\n        /* \"#utility.yul\":4222:4275   */\n      tag_41\n      jump\t// in\n    tag_101:\n        /* \"#utility.yul\":4209:4275   */\n      swap1\n      pop\n        /* \"#utility.yul\":4139:4281   */\n      swap2\n      swap1\n      pop\n      jump\t// out\n        /* \"#utility.yul\":4287:4362   */\n    tag_51:\n        /* \"#utility.yul\":4330:4333   */\n      0x00\n        /* \"#utility.yul\":4351:4356   */\n      dup2\n        /* \"#utility.yul\":4344:4356   */\n      swap1\n      pop\n        /* \"#utility.yul\":4287:4362   */\n      swap2\n      swap1\n      pop\n      jump\t// out\n        /* \"#utility.yul\":4368:4637   */\n    tag_52:\n        /* \"#utility.yul\":4478:4517   */\n      tag_106\n        /* \"#utility.yul\":4509:4516   */\n      dup4\n        /* \"#utility.yul\":4478:4517   */\n      tag_50\n      jump\t// in\n    tag_106:\n        /* \"#utility.yul\":4539:4630   */\n      tag_107\n        /* \"#utility.yul\":4588:4629   */\n      tag_108\n        /* \"#utility.yul\":4612:4628   */\n      dup3\n        /* \"#utility.yul\":4588:4629   */\n      tag_51\n      jump\t// in\n    tag_108:\n        /* \"#utility.yul\":4580:4586   */\n      dup5\n        /* \"#utility.yul\":4573:4577   */\n      dup5\n        /* \"#utility.yul\":4567:4578   */\n      sload\n        /* \"#utility.yul\":4539:4630   */\n      tag_48\n      jump\t// in\n    tag_107:\n        /* \"#utility.yul\":4533:4537   */\n      dup3\n        /* \"#utility.yul\":4526:4631   */\n      sstore\n        /* \"#utility.yul\":4444:4637   */\n      pop\n        /* \"#utility.yul\":4368:4637   */\n      pop\n      pop\n      pop\n      jump\t// out\n        /* \"#utility.yul\":4643:4716   */\n    tag_53:\n        /* \"#utility.yul\":4688:4691   */\n      0x00\n        /* \"#utility.yul\":4643:4716   */\n      swap1\n      jump\t// out\n        /* \"#utility.yul\":4722:4911   */\n    tag_54:\n        /* \"#utility.yul\":4799:4831   */\n      tag_111\n      tag_53\n      jump\t// in\n    tag_111:\n        /* \"#utility.yul\":4840:4905   */\n      tag_112\n        /* \"#utility.yul\":4898:4904   */\n      dup2\n        /* \"#utility.yul\":4890:4896   */\n      dup5\n        /* \"#utility.yul\":4884:4888   */\n      dup5\n        /* \"#utility.yul\":4840:4905   */\n      tag_52\n      jump\t// in\n    tag_112:\n        /* \"#utility.yul\":4775:4911   */\n      pop\n        /* \"#utility.yul\":4722:4911   */\n      pop\n      pop\n      jump\t// out\n        /* \"#utility.yul\":4917:5103   */\n    tag_55:\n        /* \"#utility.yul\":4977:5097   */\n    tag_114:\n        /* \"#utility.yul\":4994:4997   */\n      dup2\n        /* \"#utility.yul\":4987:4992   */\n      dup2\n        /* \"#utility.yul\":4984:4998   */\n      lt\n        /* \"#utility.yul\":4977:5097   */\n      iszero\n      tag_116\n      jumpi\n        /* \"#utility.yul\":5048:5087   */\n      tag_117\n        /* \"#utility.yul\":5085:5086   */\n      0x00\n        /* \"#utility.yul\":5078:5083   */\n      dup3\n        /* \"#utility.yul\":5048:5087   */\n      tag_54\n      jump\t// in\n    tag_117:\n        /* \"#utility.yul\":5021:5022   */\n      0x01\n        /* \"#utility.yul\":5014:5019   */\n      dup2\n        /* \"#utility.yul\":5010:5023   */\n      add\n        /* \"#utility.yul\":5001:5023   */\n      swap1\n      pop\n        /* \"#utility.yul\":4977:5097   */\n      jump(tag_114)\n    tag_116:\n        /* \"#utility.yul\":4917:5103   */\n      pop\n      pop\n      jump\t// out\n        /* \"#utility.yul\":5109:5652   */\n    tag_56:\n        /* \"#utility.yul\":5210:5212   */\n      0x1f\n        /* \"#utility.yul\":5205:5208   */\n      dup3\n        /* \"#utility.yul\":5202:5213   */\n      gt\n        /* \"#utility.yul\":5199:5645   */\n      iszero\n      tag_119\n      jumpi\n        /* \"#utility.yul\":5244:5282   */\n      tag_120\n        /* \"#utility.yul\":5276:5281   */\n      dup2\n        /* \"#utility.yul\":5244:5282   */\n      tag_45\n      jump\t// in\n    tag_120:\n        /* \"#utility.yul\":5328:5357   */\n      tag_121\n        /* \"#utility.yul\":5346:5356   */\n      dup5\n        /* \"#utility.yul\":5328:5357   */\n      tag_46\n      jump\t// in\n    tag_121:\n        /* \"#utility.yul\":5318:5326   */\n      dup2\n        /* \"#utility.yul\":5314:5358   */\n      add\n        /* \"#utility.yul\":5511:5513   */\n      0x20\n        /* \"#utility.yul\":5499:5509   */\n      dup6\n        /* \"#utility.yul\":5496:5514   */\n      lt\n        /* \"#utility.yul\":5493:5542   */\n      iszero\n      tag_122\n      jumpi\n        /* \"#utility.yul\":5532:5540   */\n      dup2\n        /* \"#utility.yul\":5517:5540   */\n      swap1\n      pop\n        /* \"#utility.yul\":5493:5542   */\n    tag_122:\n        /* \"#utility.yul\":5555:5635   */\n      tag_123\n        /* \"#utility.yul\":5611:5633   */\n      tag_124\n        /* \"#utility.yul\":5629:5632   */\n      dup6\n        /* \"#utility.yul\":5611:5633   */\n      tag_46\n      jump\t// in\n    tag_124:\n        /* \"#utility.yul\":5601:5609   */\n      dup4\n        /* \"#utility.yul\":5597:5634   */\n      add\n        /* \"#utility.yul\":5584:5595   */\n      dup3\n        /* \"#utility.yul\":5555:5635   */\n      tag_55\n      jump\t// in\n    tag_123:\n        /* \"#utility.yul\":5214:5645   */\n      pop\n      pop\n        /* \"#utility.yul\":5199:5645   */\n    tag_119:\n        /* \"#utility.yul\":5109:5652   */\n      pop\n      pop\n      pop\n      jump\t// out\n        /* \"#utility.yul\":5658:5775   */\n    tag_57:\n        /* \"#utility.yul\":5712:5720   */\n      0x00\n        /* \"#utility.yul\":5762:5767   */\n      dup3\n        /* \"#utility.yul\":5756:5760   */\n      dup3\n        /* \"#utility.yul\":5752:5768   */\n      shr\n        /* \"#utility.yul\":5731:5768   */\n      swap1\n      pop\n        /* \"#utility.yul\":5658:5775   */\n      swap3\n      swap2\n      pop\n      pop\n      jump\t// out\n        /* \"#utility.yul\":5781:5950   */\n    tag_58:\n        /* \"#utility.yul\":5825:5831   */\n      0x00\n        /* \"#utility.yul\":5858:5909   */\n      tag_127\n        /* \"#utility.yul\":5906:5907   */\n      0x00\n        /* \"#utility.yul\":5902:5908   */\n      not\n        /* \"#utility.yul\":5894:5899   */\n      dup5\n        /* \"#utility.yul\":5891:5892   */\n      0x08\n        /* \"#utility.yul\":5887:5900   */\n      mul\n        /* \"#utility.yul\":5858:5909   */\n      tag_57\n      jump\t// in\n    tag_127:\n        /* \"#utility.yul\":5854:5910   */\n      not\n        /* \"#utility.yul\":5939:5943   */\n      dup1\n        /* \"#utility.yul\":5933:5937   */\n      dup4\n        /* \"#utility.yul\":5929:5944   */\n      and\n        /* \"#utility.yul\":5919:5944   */\n      swap2\n      pop\n        /* \"#utility.yul\":5832:5950   */\n      pop\n        /* \"#utility.yul\":5781:5950   */\n      swap3\n      swap2\n      pop\n      pop\n      jump\t// out\n        /* \"#utility.yul\":5955:6250   */\n    tag_59:\n        /* \"#utility.yul\":6031:6035   */\n      0x00\n        /* \"#utility.yul\":6177:6206   */\n      tag_129\n        /* \"#utility.yul\":6202:6205   */\n      dup4\n        /* \"#utility.yul\":6196:6200   */\n      dup4\n        /* \"#utility.yul\":6177:6206   */\n      tag_58\n      jump\t// in\n    tag_129:\n        /* \"#utility.yul\":6169:6206   */\n      swap2\n      pop\n        /* \"#utility.yul\":6239:6242   */\n      dup3\n        /* \"#utility.yul\":6236:6237   */\n      0x02\n        /* \"#utility.yul\":6232:6243   */\n      mul\n        /* \"#utility.yul\":6226:6230   */\n      dup3\n        /* \"#utility.yul\":6223:6244   */\n      or\n        /* \"#utility.yul\":6215:6244   */\n      swap1\n      pop\n        /* \"#utility.yul\":5955:6250   */\n      swap3\n      swap2\n      pop\n      pop\n      jump\t// out\n        /* \"#utility.yul\":6255:7650   */\n    tag_31:\n        /* \"#utility.yul\":6372:6409   */\n      tag_131\n        /* \"#utility.yul\":6405:6408   */\n      dup3\n        /* \"#utility.yul\":6372:6409   */\n      tag_36\n      jump\t// in\n    tag_131:\n        /* \"#utility.yul\":6474:6492   */\n      0xffffffffffffffff\n        /* \"#utility.yul\":6466:6472   */\n      dup2\n        /* \"#utility.yul\":6463:6493   */\n      gt\n        /* \"#utility.yul\":6460:6516   */\n      iszero\n      tag_132\n      jumpi\n        /* \"#utility.yul\":6496:6514   */\n      tag_133\n      tag_44\n      jump\t// in\n    tag_133:\n        /* \"#utility.yul\":6460:6516   */\n    tag_132:\n        /* \"#utility.yul\":6540:6578   */\n      tag_134\n        /* \"#utility.yul\":6572:6576   */\n      dup3\n        /* \"#utility.yul\":6566:6577   */\n      sload\n        /* \"#utility.yul\":6540:6578   */\n      tag_23\n      jump\t// in\n    tag_134:\n        /* \"#utility.yul\":6625:6692   */\n      tag_135\n        /* \"#utility.yul\":6685:6691   */\n      dup3\n        /* \"#utility.yul\":6677:6683   */\n      dup3\n        /* \"#utility.yul\":6671:6675   */\n      dup6\n        /* \"#utility.yul\":6625:6692   */\n      tag_56\n      jump\t// in\n    tag_135:\n        /* \"#utility.yul\":6719:6720   */\n      0x00\n        /* \"#utility.yul\":6743:6747   */\n      0x20\n        /* \"#utility.yul\":6730:6747   */\n      swap1\n      pop\n        /* \"#utility.yul\":6775:6777   */\n      0x1f\n        /* \"#utility.yul\":6767:6773   */\n      dup4\n        /* \"#utility.yul\":6764:6778   */\n      gt\n        /* \"#utility.yul\":6792:6793   */\n      0x01\n        /* \"#utility.yul\":6787:7405   */\n      dup2\n      eq\n      tag_137\n      jumpi\n        /* \"#utility.yul\":7449:7450   */\n      0x00\n        /* \"#utility.yul\":7466:7472   */\n      dup5\n        /* \"#utility.yul\":7463:7540   */\n      iszero\n      tag_138\n      jumpi\n        /* \"#utility.yul\":7515:7524   */\n      dup3\n        /* \"#utility.yul\":7510:7513   */\n      dup8\n        /* \"#utility.yul\":7506:7525   */\n      add\n        /* \"#utility.yul\":7500:7526   */\n      mload\n        /* \"#utility.yul\":7491:7526   */\n      swap1\n      pop\n        /* \"#utility.yul\":7463:7540   */\n    tag_138:\n        /* \"#utility.yul\":7566:7633   */\n      tag_139\n        /* \"#utility.yul\":7626:7632   */\n      dup6\n        /* \"#utility.yul\":7619:7624   */\n      dup3\n        /* \"#utility.yul\":7566:7633   */\n      tag_59\n      jump\t// in\n    tag_139:\n        /* \"#utility.yul\":7560:7564   */\n      dup7\n        /* \"#utility.yul\":7553:7634   */\n      sstore\n        /* \"#utility.yul\":7422:7644   */\n      pop\n        /* \"#utility.yul\":6757:7644   */\n      jump(tag_136)\n        /* \"#utility.yul\":6787:7405   */\n    tag_137:\n        /* \"#utility.yul\":6839:6843   */\n      0x1f\n        /* \"#utility.yul\":6835:6844   */\n      not\n        /* \"#utility.yul\":6827:6833   */\n      dup5\n        /* \"#utility.yul\":6823:6845   */\n      and\n        /* \"#utility.yul\":6873:6910   */\n      tag_140\n        /* \"#utility.yul\":6905:6909   */\n      dup7\n        /* \"#utility.yul\":6873:6910   */\n      tag_45\n      jump\t// in\n    tag_140:\n        /* \"#utility.yul\":6932:6933   */\n      0x00\n        /* \"#utility.yul\":6946:7154   */\n    tag_141:\n        /* \"#utility.yul\":6960:6967   */\n      dup3\n        /* \"#utility.yul\":6957:6958   */\n      dup2\n        /* \"#utility.yul\":6954:6968   */\n      lt\n        /* \"#utility.yul\":6946:7154   */\n      iszero\n      tag_143\n      jumpi\n        /* \"#utility.yul\":7039:7048   */\n      dup5\n        /* \"#utility.yul\":7034:7037   */\n      dup10\n        /* \"#utility.yul\":7030:7049   */\n      add\n        /* \"#utility.yul\":7024:7050   */\n      mload\n        /* \"#utility.yul\":7016:7022   */\n      dup3\n        /* \"#utility.yul\":7009:7051   */\n      sstore\n        /* \"#utility.yul\":7090:7091   */\n      0x01\n        /* \"#utility.yul\":7082:7088   */\n      dup3\n        /* \"#utility.yul\":7078:7092   */\n      add\n        /* \"#utility.yul\":7068:7092   */\n      swap2\n      pop\n        /* \"#utility.yul\":7137:7139   */\n      0x20\n        /* \"#utility.yul\":7126:7135   */\n      dup6\n        /* \"#utility.yul\":7122:7140   */\n      add\n        /* \"#utility.yul\":7109:7140   */\n      swap5\n      pop\n        /* \"#utility.yul\":6983:6987   */\n      0x20\n        /* \"#utility.yul\":6980:6981   */\n      dup2\n        /* \"#utility.yul\":6976:6988   */\n      add\n        /* \"#utility.yul\":6971:6988   */\n      swap1\n      pop\n        /* \"#utility.yul\":6946:7154   */\n      jump(tag_141)\n    tag_143:\n        /* \"#utility.yul\":7182:7188   */\n      dup7\n        /* \"#utility.yul\":7173:7180   */\n      dup4\n        /* \"#utility.yul\":7170:7189   */\n      lt\n        /* \"#utility.yul\":7167:7346   */\n      iszero\n      tag_144\n      jumpi\n        /* \"#utility.yul\":7240:7249   */\n      dup5\n        /* \"#utility.yul\":7235:7238   */\n      dup10\n        /* \"#utility.yul\":7231:7250   */\n      add\n        /* \"#utility.yul\":7225:7251   */\n      mload\n        /* \"#utility.yul\":7283:7331   */\n      tag_145\n        /* \"#utility.yul\":7325:7329   */\n      0x1f\n        /* \"#utility.yul\":7317:7323   */\n      dup10\n        /* \"#utility.yul\":7313:7330   */\n      and\n        /* \"#utility.yul\":7302:7311   */\n      dup3\n        /* \"#utility.yul\":7283:7331   */\n      tag_58\n      jump\t// in\n    tag_145:\n        /* \"#utility.yul\":7275:7281   */\n      dup4\n        /* \"#utility.yul\":7268:7332   */\n      sstore\n        /* \"#utility.yul\":7190:7346   */\n      pop\n        /* \"#utility.yul\":7167:7346   */\n    tag_144:\n        /* \"#utility.yul\":7392:7393   */\n      0x01\n        /* \"#utility.yul\":7388:7389   */\n      0x02\n        /* \"#utility.yul\":7380:7386   */\n      dup9\n        /* \"#utility.yul\":7376:7390   */\n      mul\n        /* \"#utility.yul\":7372:7394   */\n      add\n        /* \"#utility.yul\":7366:7370   */\n      dup9\n        /* \"#utility.yul\":7359:7395   */\n      sstore\n        /* \"#utility.yul\":6794:7405   */\n      pop\n      pop\n      pop\n        /* \"#utility.yul\":6757:7644   */\n    tag_136:\n      pop\n        /* \"#utility.yul\":6347:7650   */\n      pop\n      pop\n      pop\n        /* \"#utility.yul\":6255:7650   */\n      pop\n      pop\n      jump\t// out\n\n    auxdata: 0xa26469706673582212207a4d7ab803e6df68773dd21659703b8d0a6ecb4ae7118d1952b051882ec8abb364736f6c634300081a0033\n}\n",
				"bytecode": {
					"linkReferences": {},
					"object": "60806040526040518060400160405280600681526020017f48656c6c6f210000000000000000000000000000000000000000000000000000815250600190816100489190610294565b50348015610054575f80fd5b50610363565b5f81519050919050565b7f4e487b71000000000000000000000000000000000000000000000000000000005f52604160045260245ffd5b7f4e487b71000000000000000000000000000000000000000000000000000000005f52602260045260245ffd5b5f60028204905060018216806100d557607f821691505b6020821081036100e8576100e7610091565b5b50919050565b5f819050815f5260205f209050919050565b5f6020601f8301049050919050565b5f82821b905092915050565b5f6008830261014a7fffffffffffffffffffffffffffffffffffffffffffffffffffffffffffffffff8261010f565b610154868361010f565b95508019841693508086168417925050509392505050565b5f819050919050565b5f819050919050565b5f61019861019361018e8461016c565b610175565b61016c565b9050919050565b5f819050919050565b6101b18361017e565b6101c56101bd8261019f565b84845461011b565b825550505050565b5f90565b6101d96101cd565b6101e48184846101a8565b505050565b5b81811015610207576101fc5f826101d1565b6001810190506101ea565b5050565b601f82111561024c5761021d816100ee565b61022684610100565b81016020851015610235578190505b61024961024185610100565b8301826101e9565b50505b505050565b5f82821c905092915050565b5f61026c5f1984600802610251565b1980831691505092915050565b5f610284838361025d565b9150826002028217905092915050565b61029d8261005a565b67ffffffffffffffff8111156102b6576102b5610064565b5b6102c082546100be565b6102cb82828561020b565b5f60209050601f8311600181146102fc575f84156102ea578287015190505b6102f48582610279565b86555061035b565b601f19841661030a866100ee565b5f5b828110156103315784890151825560018201915060208501945060208101905061030c565b8683101561034e578489015161034a601f89168261025d565b8355505b6001600288020188555050505b505050505050565b61061b806103705f395ff3fe608060405234801561000f575f80fd5b506004361061004a575f3560e01c806326121ff01461004e578063c5cf81d51461006e578063ce266af81461008c578063e2179b8e146100aa575b5f80fd5b6100566100b4565b60405161006593929190610262565b60405180910390f35b6100766100fd565b60405161008391906102b6565b60405180910390f35b610094610102565b6040516100a191906102cf565b60405180910390f35b6100b261018e565b005b5f806060600360016040518060400160405280600381526020017f4279650000000000000000000000000000000000000000000000000000000000815250925092509250909192565b5f5481565b6001805461010f9061031c565b80601f016020809104026020016040519081016040528092919081815260200182805461013b9061031c565b80156101865780601f1061015d57610100808354040283529160200191610186565b820191905f5260205f20905b81548152906001019060200180831161016957829003601f168201915b505050505081565b6101966100b4565b8260ff16925090505f8060015f8491905090816101b39190610516565b5083919050555050565b5f60ff82169050919050565b6101d2816101bd565b82525050565b5f8115159050919050565b6101ec816101d8565b82525050565b5f81519050919050565b5f82825260208201905092915050565b8281835e5f83830152505050565b5f601f19601f8301169050919050565b5f610234826101f2565b61023e81856101fc565b935061024e81856020860161020c565b6102578161021a565b840191505092915050565b5f6060820190506102755f8301866101c9565b61028260208301856101e3565b8181036040830152610294818461022a565b9050949350505050565b5f819050919050565b6102b08161029e565b82525050565b5f6020820190506102c95f8301846102a7565b92915050565b5f6020820190508181035f8301526102e7818461022a565b905092915050565b7f4e487b71000000000000000000000000000000000000000000000000000000005f52602260045260245ffd5b5f600282049050600182168061033357607f821691505b602082108103610346576103456102ef565b5b50919050565b7f4e487b71000000000000000000000000000000000000000000000000000000005f52604160045260245ffd5b5f819050815f5260205f209050919050565b5f6020601f8301049050919050565b5f82821b905092915050565b5f600883026103d57fffffffffffffffffffffffffffffffffffffffffffffffffffffffffffffffff8261039a565b6103df868361039a565b95508019841693508086168417925050509392505050565b5f819050919050565b5f61041a6104156104108461029e565b6103f7565b61029e565b9050919050565b5f819050919050565b61043383610400565b61044761043f82610421565b8484546103a6565b825550505050565b5f90565b61045b61044f565b61046681848461042a565b505050565b5b818110156104895761047e5f82610453565b60018101905061046c565b5050565b601f8211156104ce5761049f81610379565b6104a88461038b565b810160208510156104b7578190505b6104cb6104c38561038b565b83018261046b565b50505b505050565b5f82821c905092915050565b5f6104ee5f19846008026104d3565b1980831691505092915050565b5f61050683836104df565b9150826002028217905092915050565b61051f826101f2565b67ffffffffffffffff8111156105385761053761034c565b5b610542825461031c565b61054d82828561048d565b5f60209050601f83116001811461057e575f841561056c578287015190505b61057685826104fb565b8655506105dd565b601f19841661058c86610379565b5f5b828110156105b35784890151825560018201915060208501945060208101905061058e565b868310156105d057848901516105cc601f8916826104df565b8355505b6001600288020188555050505b50505050505056fea26469706673582212207a4d7ab803e6df68773dd21659703b8d0a6ecb4ae7118d1952b051882ec8abb364736f6c634300081a0033",
					"opcodes": "PUSH1 0x80 PUSH1 0x40 MSTORE PUSH1 0x40 MLOAD DUP1 PUSH1 0x40 ADD PUSH1 0x40 MSTORE DUP1 PUSH1 0x6 DUP2 MSTORE PUSH1 0x20 ADD PUSH32 0x48656C6C6F210000000000000000000000000000000000000000000000000000 DUP2 MSTORE POP PUSH1 0x1 SWAP1 DUP2 PUSH2 0x48 SWAP2 SWAP1 PUSH2 0x294 JUMP JUMPDEST POP CALLVALUE DUP1 ISZERO PUSH2 0x54 JUMPI PUSH0 DUP1 REVERT JUMPDEST POP PUSH2 0x363 JUMP JUMPDEST PUSH0 DUP2 MLOAD SWAP1 POP SWAP2 SWAP1 POP JUMP JUMPDEST PUSH32 0x4E487B7100000000000000000000000000000000000000000000000000000000 PUSH0 MSTORE PUSH1 0x41 PUSH1 0x4 MSTORE PUSH1 0x24 PUSH0 REVERT JUMPDEST PUSH32 0x4E487B7100000000000000000000000000000000000000000000000000000000 PUSH0 MSTORE PUSH1 0x22 PUSH1 0x4 MSTORE PUSH1 0x24 PUSH0 REVERT JUMPDEST PUSH0 PUSH1 0x2 DUP3 DIV SWAP1 POP PUSH1 0x1 DUP3 AND DUP1 PUSH2 0xD5 JUMPI PUSH1 0x7F DUP3 AND SWAP2 POP JUMPDEST PUSH1 0x20 DUP3 LT DUP2 SUB PUSH2 0xE8 JUMPI PUSH2 0xE7 PUSH2 0x91 JUMP JUMPDEST JUMPDEST POP SWAP2 SWAP1 POP JUMP JUMPDEST PUSH0 DUP2 SWAP1 POP DUP2 PUSH0 MSTORE PUSH1 0x20 PUSH0 KECCAK256 SWAP1 POP SWAP2 SWAP1 POP JUMP JUMPDEST PUSH0 PUSH1 0x20 PUSH1 0x1F DUP4 ADD DIV SWAP1 POP SWAP2 SWAP1 POP JUMP JUMPDEST PUSH0 DUP3 DUP3 SHL SWAP1 POP SWAP3 SWAP2 POP POP JUMP JUMPDEST PUSH0 PUSH1 0x8 DUP4 MUL PUSH2 0x14A PUSH32 0xFFFFFFFFFFFFFFFFFFFFFFFFFFFFFFFFFFFFFFFFFFFFFFFFFFFFFFFFFFFFFFFF DUP3 PUSH2 0x10F JUMP JUMPDEST PUSH2 0x154 DUP7 DUP4 PUSH2 0x10F JUMP JUMPDEST SWAP6 POP DUP1 NOT DUP5 AND SWAP4 POP DUP1 DUP7 AND DUP5 OR SWAP3 POP POP POP SWAP4 SWAP3 POP POP POP JUMP JUMPDEST PUSH0 DUP2 SWAP1 POP SWAP2 SWAP1 POP JUMP JUMPDEST PUSH0 DUP2 SWAP1 POP SWAP2 SWAP1 POP JUMP JUMPDEST PUSH0 PUSH2 0x198 PUSH2 0x193 PUSH2 0x18E DUP5 PUSH2 0x16C JUMP JUMPDEST PUSH2 0x175 JUMP JUMPDEST PUSH2 0x16C JUMP JUMPDEST SWAP1 POP SWAP2 SWAP1 POP JUMP JUMPDEST PUSH0 DUP2 SWAP1 POP SWAP2 SWAP1 POP JUMP JUMPDEST PUSH2 0x1B1 DUP4 PUSH2 0x17E JUMP JUMPDEST PUSH2 0x1C5 PUSH2 0x1BD DUP3 PUSH2 0x19F JUMP JUMPDEST DUP5 DUP5 SLOAD PUSH2 0x11B JUMP JUMPDEST DUP3 SSTORE POP POP POP POP JUMP JUMPDEST PUSH0 SWAP1 JUMP JUMPDEST PUSH2 0x1D9 PUSH2 0x1CD JUMP JUMPDEST PUSH2 0x1E4 DUP2 DUP5 DUP5 PUSH2 0x1A8 JUMP JUMPDEST POP POP POP JUMP JUMPDEST JUMPDEST DUP2 DUP2 LT ISZERO PUSH2 0x207 JUMPI PUSH2 0x1FC PUSH0 DUP3 PUSH2 0x1D1 JUMP JUMPDEST PUSH1 0x1 DUP2 ADD SWAP1 POP PUSH2 0x1EA JUMP JUMPDEST POP POP JUMP JUMPDEST PUSH1 0x1F DUP3 GT ISZERO PUSH2 0x24C JUMPI PUSH2 0x21D DUP2 PUSH2 0xEE JUMP JUMPDEST PUSH2 0x226 DUP5 PUSH2 0x100 JUMP JUMPDEST DUP2 ADD PUSH1 0x20 DUP6 LT ISZERO PUSH2 0x235 JUMPI DUP2 SWAP1 POP JUMPDEST PUSH2 0x249 PUSH2 0x241 DUP6 PUSH2 0x100 JUMP JUMPDEST DUP4 ADD DUP3 PUSH2 0x1E9 JUMP JUMPDEST POP POP JUMPDEST POP POP POP JUMP JUMPDEST PUSH0 DUP3 DUP3 SHR SWAP1 POP SWAP3 SWAP2 POP POP JUMP JUMPDEST PUSH0 PUSH2 0x26C PUSH0 NOT DUP5 PUSH1 0x8 MUL PUSH2 0x251 JUMP JUMPDEST NOT DUP1 DUP4 AND SWAP2 POP POP SWAP3 SWAP2 POP POP JUMP JUMPDEST PUSH0 PUSH2 0x284 DUP4 DUP4 PUSH2 0x25D JUMP JUMPDEST SWAP2 POP DUP3 PUSH1 0x2 MUL DUP3 OR SWAP1 POP SWAP3 SWAP2 POP POP JUMP JUMPDEST PUSH2 0x29D DUP3 PUSH2 0x5A JUMP JUMPDEST PUSH8 0xFFFFFFFFFFFFFFFF DUP2 GT ISZERO PUSH2 0x2B6 JUMPI PUSH2 0x2B5 PUSH2 0x64 JUMP JUMPDEST JUMPDEST PUSH2 0x2C0 DUP3 SLOAD PUSH2 0xBE JUMP JUMPDEST PUSH2 0x2CB DUP3 DUP3 DUP6 PUSH2 0x20B JUMP JUMPDEST PUSH0 PUSH1 0x20 SWAP1 POP PUSH1 0x1F DUP4 GT PUSH1 0x1 DUP2 EQ PUSH2 0x2FC JUMPI PUSH0 DUP5 ISZERO PUSH2 0x2EA JUMPI DUP3 DUP8 ADD MLOAD SWAP1 POP JUMPDEST PUSH2 0x2F4 DUP6 DUP3 PUSH2 0x279 JUMP JUMPDEST DUP7 SSTORE POP PUSH2 0x35B JUMP JUMPDEST PUSH1 0x1F NOT DUP5 AND PUSH2 0x30A DUP7 PUSH2 0xEE JUMP JUMPDEST PUSH0 JUMPDEST DUP3 DUP2 LT ISZERO PUSH2 0x331 JUMPI DUP5 DUP10 ADD MLOAD DUP3 SSTORE PUSH1 0x1 DUP3 ADD SWAP2 POP PUSH1 0x20 DUP6 ADD SWAP5 POP PUSH1 0x20 DUP2 ADD SWAP1 POP PUSH2 0x30C JUMP JUMPDEST DUP7 DUP4 LT ISZERO PUSH2 0x34E JUMPI DUP5 DUP10 ADD MLOAD PUSH2 0x34A PUSH1 0x1F DUP10 AND DUP3 PUSH2 0x25D JUMP JUMPDEST DUP4 SSTORE POP JUMPDEST PUSH1 0x1 PUSH1 0x2 DUP9 MUL ADD DUP9 SSTORE POP POP POP JUMPDEST POP POP POP POP POP POP JUMP JUMPDEST PUSH2 0x61B DUP1 PUSH2 0x370 PUSH0 CODECOPY PUSH0 RETURN INVALID PUSH1 0x80 PUSH1 0x40 MSTORE CALLVALUE DUP1 ISZERO PUSH2 0xF JUMPI PUSH0 DUP1 REVERT JUMPDEST POP PUSH1 0x4 CALLDATASIZE LT PUSH2 0x4A JUMPI PUSH0 CALLDATALOAD PUSH1 0xE0 SHR DUP1 PUSH4 0x26121FF0 EQ PUSH2 0x4E JUMPI DUP1 PUSH4 0xC5CF81D5 EQ PUSH2 0x6E JUMPI DUP1 PUSH4 0xCE266AF8 EQ PUSH2 0x8C JUMPI DUP1 PUSH4 0xE2179B8E EQ PUSH2 0xAA JUMPI JUMPDEST PUSH0 DUP1 REVERT JUMPDEST PUSH2 0x56 PUSH2 0xB4 JUMP JUMPDEST PUSH1 0x40 MLOAD PUSH2 0x65 SWAP4 SWAP3 SWAP2 SWAP1 PUSH2 0x262 JUMP JUMPDEST PUSH1 0x40 MLOAD DUP1 SWAP2 SUB SWAP1 RETURN JUMPDEST PUSH2 0x76 PUSH2 0xFD JUMP JUMPDEST PUSH1 0x40 MLOAD PUSH2 0x83 SWAP2 SWAP1 PUSH2 0x2B6 JUMP JUMPDEST PUSH1 0x40 MLOAD DUP1 SWAP2 SUB SWAP1 RETURN JUMPDEST PUSH2 0x94 PUSH2 0x102 JUMP JUMPDEST PUSH1 0x40 MLOAD PUSH2 0xA1 SWAP2 SWAP1 PUSH2 0x2CF JUMP JUMPDEST PUSH1 0x40 MLOAD DUP1 SWAP2 SUB SWAP1 RETURN JUMPDEST PUSH2 0xB2 PUSH2 0x18E JUMP JUMPDEST STOP JUMPDEST PUSH0 DUP1 PUSH1 0x60 PUSH1 0x3 PUSH1 0x1 PUSH1 0x40 MLOAD DUP1 PUSH1 0x40 ADD PUSH1 0x40 MSTORE DUP1 PUSH1 0x3 DUP2 MSTORE PUSH1 0x20 ADD PUSH32 0x4279650000000000000000000000000000000000000000000000000000000000 DUP2 MSTORE POP SWAP3 POP SWAP3 POP SWAP3 POP SWAP1 SWAP2 SWAP3 JUMP JUMPDEST PUSH0 SLOAD DUP2 JUMP JUMPDEST PUSH1 0x1 DUP1 SLOAD PUSH2 0x10F SWAP1 PUSH2 0x31C JUMP JUMPDEST DUP1 PUSH1 0x1F ADD PUSH1 0x20 DUP1 SWAP2 DIV MUL PUSH1 0x20 ADD PUSH1 0x40 MLOAD SWAP1 DUP2 ADD PUSH1 0x40 MSTORE DUP1 SWAP3 SWAP2 SWAP1 DUP2 DUP2 MSTORE PUSH1 0x20 ADD DUP3 DUP1 SLOAD PUSH2 0x13B SWAP1 PUSH2 0x31C JUMP JUMPDEST DUP1 ISZERO PUSH2 0x186 JUMPI DUP1 PUSH1 0x1F LT PUSH2 0x15D JUMPI PUSH2 0x100 DUP1 DUP4 SLOAD DIV MUL DUP4 MSTORE SWAP2 PUSH1 0x20 ADD SWAP2 PUSH2 0x186 JUMP JUMPDEST DUP3 ADD SWAP2 SWAP1 PUSH0 MSTORE PUSH1 0x20 PUSH0 KECCAK256 SWAP1 JUMPDEST DUP2 SLOAD DUP2 MSTORE SWAP1 PUSH1 0x1 ADD SWAP1 PUSH1 0x20 ADD DUP1 DUP4 GT PUSH2 0x169 JUMPI DUP3 SWAP1 SUB PUSH1 0x1F AND DUP3 ADD SWAP2 JUMPDEST POP POP POP POP POP DUP2 JUMP JUMPDEST PUSH2 0x196 PUSH2 0xB4 JUMP JUMPDEST DUP3 PUSH1 0xFF AND SWAP3 POP SWAP1 POP PUSH0 DUP1 PUSH1 0x1 PUSH0 DUP5 SWAP2 SWAP1 POP SWAP1 DUP2 PUSH2 0x1B3 SWAP2 SWAP1 PUSH2 0x516 JUMP JUMPDEST POP DUP4 SWAP2 SWAP1 POP SSTORE POP POP JUMP JUMPDEST PUSH0 PUSH1 0xFF DUP3 AND SWAP1 POP SWAP2 SWAP1 POP JUMP JUMPDEST PUSH2 0x1D2 DUP2 PUSH2 0x1BD JUMP JUMPDEST DUP3 MSTORE POP POP JUMP JUMPDEST PUSH0 DUP2 ISZERO ISZERO SWAP1 POP SWAP2 SWAP1 POP JUMP JUMPDEST PUSH2 0x1EC DUP2 PUSH2 0x1D8 JUMP JUMPDEST DUP3 MSTORE POP POP JUMP JUMPDEST PUSH0 DUP2 MLOAD SWAP1 POP SWAP2 SWAP1 POP JUMP JUMPDEST PUSH0 DUP3 DUP3 MSTORE PUSH1 0x20 DUP3 ADD SWAP1 POP SWAP3 SWAP2 POP POP JUMP JUMPDEST DUP3 DUP2 DUP4 MCOPY PUSH0 DUP4 DUP4 ADD MSTORE POP POP POP JUMP JUMPDEST PUSH0 PUSH1 0x1F NOT PUSH1 0x1F DUP4 ADD AND SWAP1 POP SWAP2 SWAP1 POP JUMP JUMPDEST PUSH0 PUSH2 0x234 DUP3 PUSH2 0x1F2 JUMP JUMPDEST PUSH2 0x23E DUP2 DUP6 PUSH2 0x1FC JUMP JUMPDEST SWAP4 POP PUSH2 0x24E DUP2 DUP6 PUSH1 0x20 DUP7 ADD PUSH2 0x20C JUMP JUMPDEST PUSH2 0x257 DUP2 PUSH2 0x21A JUMP JUMPDEST DUP5 ADD SWAP2 POP POP SWAP3 SWAP2 POP POP JUMP JUMPDEST PUSH0 PUSH1 0x60 DUP3 ADD SWAP1 POP PUSH2 0x275 PUSH0 DUP4 ADD DUP7 PUSH2 0x1C9 JUMP JUMPDEST PUSH2 0x282 PUSH1 0x20 DUP4 ADD DUP6 PUSH2 0x1E3 JUMP JUMPDEST DUP2 DUP2 SUB PUSH1 0x40 DUP4 ADD MSTORE PUSH2 0x294 DUP2 DUP5 PUSH2 0x22A JUMP JUMPDEST SWAP1 POP SWAP5 SWAP4 POP POP POP POP JUMP JUMPDEST PUSH0 DUP2 SWAP1 POP SWAP2 SWAP1 POP JUMP JUMPDEST PUSH2 0x2B0 DUP2 PUSH2 0x29E JUMP JUMPDEST DUP3 MSTORE POP POP JUMP JUMPDEST PUSH0 PUSH1 0x20 DUP3 ADD SWAP1 POP PUSH2 0x2C9 PUSH0 DUP4 ADD DUP5 PUSH2 0x2A7 JUMP JUMPDEST SWAP3 SWAP2 POP POP JUMP JUMPDEST PUSH0 PUSH1 0x20 DUP3 ADD SWAP1 POP DUP2 DUP2 SUB PUSH0 DUP4 ADD MSTORE PUSH2 0x2E7 DUP2 DUP5 PUSH2 0x22A JUMP JUMPDEST SWAP1 POP SWAP3 SWAP2 POP POP JUMP JUMPDEST PUSH32 0x4E487B7100000000000000000000000000000000000000000000000000000000 PUSH0 MSTORE PUSH1 0x22 PUSH1 0x4 MSTORE PUSH1 0x24 PUSH0 REVERT JUMPDEST PUSH0 PUSH1 0x2 DUP3 DIV SWAP1 POP PUSH1 0x1 DUP3 AND DUP1 PUSH2 0x333 JUMPI PUSH1 0x7F DUP3 AND SWAP2 POP JUMPDEST PUSH1 0x20 DUP3 LT DUP2 SUB PUSH2 0x346 JUMPI PUSH2 0x345 PUSH2 0x2EF JUMP JUMPDEST JUMPDEST POP SWAP2 SWAP1 POP JUMP JUMPDEST PUSH32 0x4E487B7100000000000000000000000000000000000000000000000000000000 PUSH0 MSTORE PUSH1 0x41 PUSH1 0x4 MSTORE PUSH1 0x24 PUSH0 REVERT JUMPDEST PUSH0 DUP2 SWAP1 POP DUP2 PUSH0 MSTORE PUSH1 0x20 PUSH0 KECCAK256 SWAP1 POP SWAP2 SWAP1 POP JUMP JUMPDEST PUSH0 PUSH1 0x20 PUSH1 0x1F DUP4 ADD DIV SWAP1 POP SWAP2 SWAP1 POP JUMP JUMPDEST PUSH0 DUP3 DUP3 SHL SWAP1 POP SWAP3 SWAP2 POP POP JUMP JUMPDEST PUSH0 PUSH1 0x8 DUP4 MUL PUSH2 0x3D5 PUSH32 0xFFFFFFFFFFFFFFFFFFFFFFFFFFFFFFFFFFFFFFFFFFFFFFFFFFFFFFFFFFFFFFFF DUP3 PUSH2 0x39A JUMP JUMPDEST PUSH2 0x3DF DUP7 DUP4 PUSH2 0x39A JUMP JUMPDEST SWAP6 POP DUP1 NOT DUP5 AND SWAP4 POP DUP1 DUP7 AND DUP5 OR SWAP3 POP POP POP SWAP4 SWAP3 POP POP POP JUMP JUMPDEST PUSH0 DUP2 SWAP1 POP SWAP2 SWAP1 POP JUMP JUMPDEST PUSH0 PUSH2 0x41A PUSH2 0x415 PUSH2 0x410 DUP5 PUSH2 0x29E JUMP JUMPDEST PUSH2 0x3F7 JUMP JUMPDEST PUSH2 0x29E JUMP JUMPDEST SWAP1 POP SWAP2 SWAP1 POP JUMP JUMPDEST PUSH0 DUP2 SWAP1 POP SWAP2 SWAP1 POP JUMP JUMPDEST PUSH2 0x433 DUP4 PUSH2 0x400 JUMP JUMPDEST PUSH2 0x447 PUSH2 0x43F DUP3 PUSH2 0x421 JUMP JUMPDEST DUP5 DUP5 SLOAD PUSH2 0x3A6 JUMP JUMPDEST DUP3 SSTORE POP POP POP POP JUMP JUMPDEST PUSH0 SWAP1 JUMP JUMPDEST PUSH2 0x45B PUSH2 0x44F JUMP JUMPDEST PUSH2 0x466 DUP2 DUP5 DUP5 PUSH2 0x42A JUMP JUMPDEST POP POP POP JUMP JUMPDEST JUMPDEST DUP2 DUP2 LT ISZERO PUSH2 0x489 JUMPI PUSH2 0x47E PUSH0 DUP3 PUSH2 0x453 JUMP JUMPDEST PUSH1 0x1 DUP2 ADD SWAP1 POP PUSH2 0x46C JUMP JUMPDEST POP POP JUMP JUMPDEST PUSH1 0x1F DUP3 GT ISZERO PUSH2 0x4CE JUMPI PUSH2 0x49F DUP2 PUSH2 0x379 JUMP JUMPDEST PUSH2 0x4A8 DUP5 PUSH2 0x38B JUMP JUMPDEST DUP2 ADD PUSH1 0x20 DUP6 LT ISZERO PUSH2 0x4B7 JUMPI DUP2 SWAP1 POP JUMPDEST PUSH2 0x4CB PUSH2 0x4C3 DUP6 PUSH2 0x38B JUMP JUMPDEST DUP4 ADD DUP3 PUSH2 0x46B JUMP JUMPDEST POP POP JUMPDEST POP POP POP JUMP JUMPDEST PUSH0 DUP3 DUP3 SHR SWAP1 POP SWAP3 SWAP2 POP POP JUMP JUMPDEST PUSH0 PUSH2 0x4EE PUSH0 NOT DUP5 PUSH1 0x8 MUL PUSH2 0x4D3 JUMP JUMPDEST NOT DUP1 DUP4 AND SWAP2 POP POP SWAP3 SWAP2 POP POP JUMP JUMPDEST PUSH0 PUSH2 0x506 DUP4 DUP4 PUSH2 0x4DF JUMP JUMPDEST SWAP2 POP DUP3 PUSH1 0x2 MUL DUP3 OR SWAP1 POP SWAP3 SWAP2 POP POP JUMP JUMPDEST PUSH2 0x51F DUP3 PUSH2 0x1F2 JUMP JUMPDEST PUSH8 0xFFFFFFFFFFFFFFFF DUP2 GT ISZERO PUSH2 0x538 JUMPI PUSH2 0x537 PUSH2 0x34C JUMP JUMPDEST JUMPDEST PUSH2 0x542 DUP3 SLOAD PUSH2 0x31C JUMP JUMPDEST PUSH2 0x54D DUP3 DUP3 DUP6 PUSH2 0x48D JUMP JUMPDEST PUSH0 PUSH1 0x20 SWAP1 POP PUSH1 0x1F DUP4 GT PUSH1 0x1 DUP2 EQ PUSH2 0x57E JUMPI PUSH0 DUP5 ISZERO PUSH2 0x56C JUMPI DUP3 DUP8 ADD MLOAD SWAP1 POP JUMPDEST PUSH2 0x576 DUP6 DUP3 PUSH2 0x4FB JUMP JUMPDEST DUP7 SSTORE POP PUSH2 0x5DD JUMP JUMPDEST PUSH1 0x1F NOT DUP5 AND PUSH2 0x58C DUP7 PUSH2 0x379 JUMP JUMPDEST PUSH0 JUMPDEST DUP3 DUP2 LT ISZERO PUSH2 0x5B3 JUMPI DUP5 DUP10 ADD MLOAD DUP3 SSTORE PUSH1 0x1 DUP3 ADD SWAP2 POP PUSH1 0x20 DUP6 ADD SWAP5 POP PUSH1 0x20 DUP2 ADD SWAP1 POP PUSH2 0x58E JUMP JUMPDEST DUP7 DUP4 LT ISZERO PUSH2 0x5D0 JUMPI DUP5 DUP10 ADD MLOAD PUSH2 0x5CC PUSH1 0x1F DUP10 AND DUP3 PUSH2 0x4DF JUMP JUMPDEST DUP4 SSTORE POP JUMPDEST PUSH1 0x1 PUSH1 0x2 DUP9 MUL ADD DUP9 SSTORE POP POP POP JUMPDEST POP POP POP POP POP POP JUMP INVALID LOG2 PUSH5 0x6970667358 0x22 SLT KECCAK256 PUSH27 0x4D7AB803E6DF68773DD21659703B8D0A6ECB4AE7118D1952B05188 0x2E 0xC8 0xAB 0xB3 PUSH5 0x736F6C6343 STOP ADDMOD BYTE STOP CALLER "
				},
				"gasEstimates": {
					"creation": {
						"codeDepositCost": "312600",
						"executionCost": "infinite",
						"totalCost": "infinite"
					},
					"external": {
						"changeValue()": "2424",
						"f()": "infinite",
						"g()": "infinite",
						"tom()": "infinite"
					}
				},
				"methodIdentifiers": {
					"changeValue()": "c5cf81d5",
					"f()": "26121ff0",
					"g()": "e2179b8e",
					"tom()": "ce266af8"
				}
			},
			"storageLayout": {
				"storage": [
					{
						"astId": 3,
						"contract": "contracts/destructuring.sol:DestructuringFunctions",
						"label": "changeValue",
						"offset": 0,
						"slot": "0",
						"type": "t_uint256"
					},
					{
						"astId": 6,
						"contract": "contracts/destructuring.sol:DestructuringFunctions",
						"label": "tom",
						"offset": 0,
						"slot": "1",
						"type": "t_string_storage"
					}
				],
				"types": {
					"t_string_storage": {
						"encoding": "bytes",
						"label": "string",
						"numberOfBytes": "32"
					},
					"t_uint256": {
						"encoding": "inplace",
						"label": "uint256",
						"numberOfBytes": "32"
					}
				}
			},
			"userdoc": {
				"kind": "user",
				"methods": {},
				"version": 1
			}
		}
	}
}