{
	"contracts/LogisticsManagement.sol": {
		"LogisticsManagement": {
			"abi": [
				{
					"inputs": [],
					"stateMutability": "nonpayable",
					"type": "constructor"
				},
				{
					"anonymous": false,
					"inputs": [
						{
							"indexed": true,
							"internalType": "address",
							"name": "manager",
							"type": "address"
						}
					],
					"name": "ManagerApproved",
					"type": "event"
				},
				{
					"anonymous": false,
					"inputs": [
						{
							"indexed": true,
							"internalType": "address",
							"name": "manager",
							"type": "address"
						}
					],
					"name": "ManagerRemoved",
					"type": "event"
				},
				{
					"anonymous": false,
					"inputs": [
						{
							"indexed": true,
							"internalType": "uint256",
							"name": "shipmentId",
							"type": "uint256"
						},
						{
							"indexed": true,
							"internalType": "address",
							"name": "transporter",
							"type": "address"
						},
						{
							"indexed": false,
							"internalType": "string",
							"name": "reason",
							"type": "string"
						}
					],
					"name": "PenaltyApplied",
					"type": "event"
				},
				{
					"anonymous": false,
					"inputs": [
						{
							"indexed": true,
							"internalType": "uint256",
							"name": "shipmentId",
							"type": "uint256"
						},
						{
							"indexed": false,
							"internalType": "uint256",
							"name": "productId",
							"type": "uint256"
						},
						{
							"indexed": true,
							"internalType": "address",
							"name": "transporter",
							"type": "address"
						},
						{
							"indexed": false,
							"internalType": "uint256",
							"name": "estimatedDeliveryTime",
							"type": "uint256"
						}
					],
					"name": "ShipmentCreated",
					"type": "event"
				},
				{
					"anonymous": false,
					"inputs": [
						{
							"indexed": true,
							"internalType": "uint256",
							"name": "shipmentId",
							"type": "uint256"
						},
						{
							"indexed": false,
							"internalType": "enum LogisticsManagement.ShipmentStatus",
							"name": "status",
							"type": "uint8"
						},
						{
							"indexed": false,
							"internalType": "string",
							"name": "currentLocation",
							"type": "string"
						}
					],
					"name": "ShipmentStatusUpdated",
					"type": "event"
				},
				{
					"inputs": [
						{
							"internalType": "uint256",
							"name": "_shipmentId",
							"type": "uint256"
						},
						{
							"internalType": "string",
							"name": "_reason",
							"type": "string"
						}
					],
					"name": "applyPenalty",
					"outputs": [],
					"stateMutability": "nonpayable",
					"type": "function"
				},
				{
					"inputs": [
						{
							"internalType": "address",
							"name": "_manager",
							"type": "address"
						}
					],
					"name": "approveManager",
					"outputs": [],
					"stateMutability": "nonpayable",
					"type": "function"
				},
				{
					"inputs": [
						{
							"internalType": "uint256",
							"name": "_shipmentId",
							"type": "uint256"
						},
						{
							"internalType": "uint256",
							"name": "_productId",
							"type": "uint256"
						},
						{
							"internalType": "address",
							"name": "_transporter",
							"type": "address"
						},
						{
							"internalType": "uint256",
							"name": "_estimatedDeliveryTime",
							"type": "uint256"
						}
					],
					"name": "createShipment",
					"outputs": [],
					"stateMutability": "nonpayable",
					"type": "function"
				},
				{
					"inputs": [
						{
							"internalType": "uint256",
							"name": "_shipmentId",
							"type": "uint256"
						}
					],
					"name": "getShipment",
					"outputs": [
						{
							"internalType": "uint256",
							"name": "productId",
							"type": "uint256"
						},
						{
							"internalType": "address",
							"name": "transporter",
							"type": "address"
						},
						{
							"internalType": "uint256",
							"name": "estimatedDeliveryTime",
							"type": "uint256"
						},
						{
							"internalType": "string",
							"name": "currentLocation",
							"type": "string"
						},
						{
							"internalType": "enum LogisticsManagement.ShipmentStatus",
							"name": "status",
							"type": "uint8"
						},
						{
							"internalType": "uint256",
							"name": "timestamp",
							"type": "uint256"
						}
					],
					"stateMutability": "view",
					"type": "function"
				},
				{
					"inputs": [],
					"name": "pauseContract",
					"outputs": [],
					"stateMutability": "nonpayable",
					"type": "function"
				},
				{
					"inputs": [
						{
							"internalType": "address",
							"name": "_manager",
							"type": "address"
						}
					],
					"name": "removeManager",
					"outputs": [],
					"stateMutability": "nonpayable",
					"type": "function"
				},
				{
					"inputs": [],
					"name": "unpauseContract",
					"outputs": [],
					"stateMutability": "nonpayable",
					"type": "function"
				},
				{
					"inputs": [
						{
							"internalType": "uint256",
							"name": "_shipmentId",
							"type": "uint256"
						},
						{
							"internalType": "enum LogisticsManagement.ShipmentStatus",
							"name": "_status",
							"type": "uint8"
						},
						{
							"internalType": "string",
							"name": "_currentLocation",
							"type": "string"
						}
					],
					"name": "updateShipmentStatus",
					"outputs": [],
					"stateMutability": "nonpayable",
					"type": "function"
				}
			],
			"devdoc": {
				"details": "Includes shipment tracking, estimated delivery times, and penalty enforcement.",
				"kind": "dev",
				"methods": {
					"applyPenalty(uint256,string)": {
						"params": {
							"_reason": "The reason for applying the penalty",
							"_shipmentId": "The unique ID of the shipment"
						}
					},
					"approveManager(address)": {
						"params": {
							"_manager": "The address to be approved as a manager"
						}
					},
					"createShipment(uint256,uint256,address,uint256)": {
						"params": {
							"_estimatedDeliveryTime": "The estimated delivery time (in Unix timestamp)",
							"_productId": "The ID of the product being shipped",
							"_shipmentId": "The unique ID of the shipment",
							"_transporter": "The address of the transporter responsible for the shipment"
						}
					},
					"getShipment(uint256)": {
						"params": {
							"_shipmentId": "The unique ID of the shipment"
						},
						"returns": {
							"currentLocation": "The current location of the shipment",
							"estimatedDeliveryTime": "The estimated delivery time (in Unix timestamp)",
							"productId": "The ID of the product being shipped",
							"status": "The current status of the shipment (Pending, InTransit, Delivered, Delayed, Lost)",
							"timestamp": "The time when the shipment was created",
							"transporter": "The address of the transporter responsible for the shipment"
						}
					},
					"removeManager(address)": {
						"params": {
							"_manager": "The address to be removed from approved managers"
						}
					},
					"updateShipmentStatus(uint256,uint8,string)": {
						"params": {
							"_currentLocation": "The current location of the shipment",
							"_shipmentId": "The unique ID of the shipment",
							"_status": "The updated status of the shipment"
						}
					}
				},
				"title": "Logistics and Transportation Contract - Supply Chain Management System",
				"version": 1
			},
			"evm": {
				"assembly": "    /* \"contracts/LogisticsManagement.sol\":377:7352  contract LogisticsManagement {... */\n  mstore(0x40, 0x80)\n    /* \"contracts/LogisticsManagement.sol\":2566:2674  constructor() {... */\n  callvalue\n  dup1\n  iszero\n  tag_1\n  jumpi\n  0x00\n  dup1\n  revert\ntag_1:\n  pop\n    /* \"contracts/LogisticsManagement.sol\":2621:2625  true */\n  0x01\n    /* \"contracts/LogisticsManagement.sol\":2590:2606  approvedManagers */\n  dup1\n    /* \"contracts/LogisticsManagement.sol\":2590:2618  approvedManagers[msg.sender] */\n  0x00\n    /* \"contracts/LogisticsManagement.sol\":2607:2617  msg.sender */\n  caller\n    /* \"contracts/LogisticsManagement.sol\":2590:2618  approvedManagers[msg.sender] */\n  0xffffffffffffffffffffffffffffffffffffffff\n  and\n  0xffffffffffffffffffffffffffffffffffffffff\n  and\n  dup2\n  mstore\n  0x20\n  add\n  swap1\n  dup2\n  mstore\n  0x20\n  add\n  0x00\n  keccak256\n  0x00\n    /* \"contracts/LogisticsManagement.sol\":2590:2625  approvedManagers[msg.sender] = true */\n  0x0100\n  exp\n  dup2\n  sload\n  dup2\n  0xff\n  mul\n  not\n  and\n  swap1\n  dup4\n  iszero\n  iszero\n  mul\n  or\n  swap1\n  sstore\n  pop\n    /* \"contracts/LogisticsManagement.sol\":2656:2666  msg.sender */\n  caller\n    /* \"contracts/LogisticsManagement.sol\":2640:2667  ManagerApproved(msg.sender) */\n  0xffffffffffffffffffffffffffffffffffffffff\n  and\n  0x450ad6a6ac3c2e8b8a02820cb64d6102a1f91ebe1fa3848a0cfc45c870c043af\n  mload(0x40)\n  mload(0x40)\n  dup1\n  swap2\n  sub\n  swap1\n  log2\n    /* \"contracts/LogisticsManagement.sol\":377:7352  contract LogisticsManagement {... */\n  dataSize(sub_0)\n  dup1\n  dataOffset(sub_0)\n  0x00\n  codecopy\n  0x00\n  return\nstop\n\nsub_0: assembly {\n        /* \"contracts/LogisticsManagement.sol\":377:7352  contract LogisticsManagement {... */\n      mstore(0x40, 0x80)\n      callvalue\n      dup1\n      iszero\n      tag_1\n      jumpi\n      0x00\n      dup1\n      revert\n    tag_1:\n      pop\n      jumpi(tag_2, lt(calldatasize, 0x04))\n      shr(0xe0, calldataload(0x00))\n      dup1\n      0x85af4594\n      gt\n      tag_11\n      jumpi\n      dup1\n      0x85af4594\n      eq\n      tag_7\n      jumpi\n      dup1\n      0xac18de43\n      eq\n      tag_8\n      jumpi\n      dup1\n      0xb33712c5\n      eq\n      tag_9\n      jumpi\n      dup1\n      0xb5eee722\n      eq\n      tag_10\n      jumpi\n      jump(tag_2)\n    tag_11:\n      dup1\n      0x092b3740\n      eq\n      tag_3\n      jumpi\n      dup1\n      0x439766ce\n      eq\n      tag_4\n      jumpi\n      dup1\n      0x50006450\n      eq\n      tag_5\n      jumpi\n      dup1\n      0x71757974\n      eq\n      tag_6\n      jumpi\n    tag_2:\n      0x00\n      dup1\n      revert\n        /* \"contracts/LogisticsManagement.sol\":6558:7044  function getShipment(uint256 _shipmentId) ... */\n    tag_3:\n      tag_12\n      0x04\n      dup1\n      calldatasize\n      sub\n      dup2\n      add\n      swap1\n      tag_13\n      swap2\n      swap1\n      tag_14\n      jump\t// in\n    tag_13:\n      tag_15\n      jump\t// in\n    tag_12:\n      mload(0x40)\n      tag_16\n      swap7\n      swap6\n      swap5\n      swap4\n      swap3\n      swap2\n      swap1\n      tag_17\n      jump\t// in\n    tag_16:\n      mload(0x40)\n      dup1\n      swap2\n      sub\n      swap1\n      return\n        /* \"contracts/LogisticsManagement.sol\":7115:7199  function pauseContract() external onlyApprovedManager {... */\n    tag_4:\n      tag_18\n      tag_19\n      jump\t// in\n    tag_18:\n      stop\n        /* \"contracts/LogisticsManagement.sol\":4904:5336  function updateShipmentStatus(uint256 _shipmentId, ShipmentStatus _status, string calldata _currentLocation) ... */\n    tag_5:\n      tag_20\n      0x04\n      dup1\n      calldatasize\n      sub\n      dup2\n      add\n      swap1\n      tag_21\n      swap2\n      swap1\n      tag_22\n      jump\t// in\n    tag_21:\n      tag_23\n      jump\t// in\n    tag_20:\n      stop\n        /* \"contracts/LogisticsManagement.sol\":5526:5974  function applyPenalty(uint256 _shipmentId, string calldata _reason) ... */\n    tag_6:\n      tag_24\n      0x04\n      dup1\n      calldatasize\n      sub\n      dup2\n      add\n      swap1\n      tag_25\n      swap2\n      swap1\n      tag_26\n      jump\t// in\n    tag_25:\n      tag_27\n      jump\t// in\n    tag_24:\n      stop\n        /* \"contracts/LogisticsManagement.sol\":3795:4643  function createShipment(uint256 _shipmentId, uint256 _productId, address _transporter, uint256 _estimatedDeliveryTime) ... */\n    tag_7:\n      tag_28\n      0x04\n      dup1\n      calldatasize\n      sub\n      dup2\n      add\n      swap1\n      tag_29\n      swap2\n      swap1\n      tag_30\n      jump\t// in\n    tag_29:\n      tag_31\n      jump\t// in\n    tag_28:\n      stop\n        /* \"contracts/LogisticsManagement.sol\":3189:3444  function removeManager(address _manager) external onlyApprovedManager whenNotPaused {... */\n    tag_8:\n      tag_32\n      0x04\n      dup1\n      calldatasize\n      sub\n      dup2\n      add\n      swap1\n      tag_33\n      swap2\n      swap1\n      tag_34\n      jump\t// in\n    tag_33:\n      tag_35\n      jump\t// in\n    tag_32:\n      stop\n        /* \"contracts/LogisticsManagement.sol\":7263:7350  function unpauseContract() external onlyApprovedManager {... */\n    tag_9:\n      tag_36\n      tag_37\n      jump\t// in\n    tag_36:\n      stop\n        /* \"contracts/LogisticsManagement.sol\":2792:3057  function approveManager(address _manager) external onlyApprovedManager whenNotPaused {... */\n    tag_10:\n      tag_38\n      0x04\n      dup1\n      calldatasize\n      sub\n      dup2\n      add\n      swap1\n      tag_39\n      swap2\n      swap1\n      tag_34\n      jump\t// in\n    tag_39:\n      tag_40\n      jump\t// in\n    tag_38:\n      stop\n        /* \"contracts/LogisticsManagement.sol\":6558:7044  function getShipment(uint256 _shipmentId) ... */\n    tag_15:\n        /* \"contracts/LogisticsManagement.sol\":6675:6692  uint256 productId */\n      0x00\n        /* \"contracts/LogisticsManagement.sol\":6694:6713  address transporter */\n      dup1\n        /* \"contracts/LogisticsManagement.sol\":6715:6744  uint256 estimatedDeliveryTime */\n      0x00\n        /* \"contracts/LogisticsManagement.sol\":6746:6775  string memory currentLocation */\n      0x60\n        /* \"contracts/LogisticsManagement.sol\":6777:6798  ShipmentStatus status */\n      0x00\n        /* \"contracts/LogisticsManagement.sol\":6800:6817  uint256 timestamp */\n      dup1\n        /* \"contracts/LogisticsManagement.sol\":6644:6655  _shipmentId */\n      dup7\n        /* \"contracts/LogisticsManagement.sol\":2383:2392  shipments */\n      0x00\n        /* \"contracts/LogisticsManagement.sol\":2383:2405  shipments[_shipmentId] */\n      dup1\n        /* \"contracts/LogisticsManagement.sol\":2393:2404  _shipmentId */\n      dup3\n        /* \"contracts/LogisticsManagement.sol\":2383:2405  shipments[_shipmentId] */\n      dup2\n      mstore\n      0x20\n      add\n      swap1\n      dup2\n      mstore\n      0x20\n      add\n      0x00\n      keccak256\n        /* \"contracts/LogisticsManagement.sol\":2383:2418  shipments[_shipmentId].isRegistered */\n      0x07\n      add\n      0x00\n      swap1\n      sload\n      swap1\n      0x0100\n      exp\n      swap1\n      div\n      0xff\n      and\n        /* \"contracts/LogisticsManagement.sol\":2375:2459  require(shipments[_shipmentId].isRegistered, \"Query Error: Shipment not registered\") */\n      tag_42\n      jumpi\n      mload(0x40)\n      0x08c379a000000000000000000000000000000000000000000000000000000000\n      dup2\n      mstore\n      0x04\n      add\n      tag_43\n      swap1\n      tag_44\n      jump\t// in\n    tag_43:\n      mload(0x40)\n      dup1\n      swap2\n      sub\n      swap1\n      revert\n    tag_42:\n        /* \"contracts/LogisticsManagement.sol\":6834:6858  Shipment memory shipment */\n      0x00\n        /* \"contracts/LogisticsManagement.sol\":6861:6870  shipments */\n      dup1\n        /* \"contracts/LogisticsManagement.sol\":6861:6883  shipments[_shipmentId] */\n      0x00\n        /* \"contracts/LogisticsManagement.sol\":6871:6882  _shipmentId */\n      dup11\n        /* \"contracts/LogisticsManagement.sol\":6861:6883  shipments[_shipmentId] */\n      dup2\n      mstore\n      0x20\n      add\n      swap1\n      dup2\n      mstore\n      0x20\n      add\n      0x00\n      keccak256\n        /* \"contracts/LogisticsManagement.sol\":6834:6883  Shipment memory shipment = shipments[_shipmentId] */\n      mload(0x40)\n      dup1\n      0x0100\n      add\n      0x40\n      mstore\n      swap1\n      dup2\n      0x00\n      dup3\n      add\n      sload\n      dup2\n      mstore\n      0x20\n      add\n      0x01\n      dup3\n      add\n      sload\n      dup2\n      mstore\n      0x20\n      add\n      0x02\n      dup3\n      add\n      0x00\n      swap1\n      sload\n      swap1\n      0x0100\n      exp\n      swap1\n      div\n      0xffffffffffffffffffffffffffffffffffffffff\n      and\n      0xffffffffffffffffffffffffffffffffffffffff\n      and\n      0xffffffffffffffffffffffffffffffffffffffff\n      and\n      dup2\n      mstore\n      0x20\n      add\n      0x03\n      dup3\n      add\n      sload\n      dup2\n      mstore\n      0x20\n      add\n      0x04\n      dup3\n      add\n      dup1\n      sload\n      tag_46\n      swap1\n      tag_47\n      jump\t// in\n    tag_46:\n      dup1\n      0x1f\n      add\n      0x20\n      dup1\n      swap2\n      div\n      mul\n      0x20\n      add\n      mload(0x40)\n      swap1\n      dup2\n      add\n      0x40\n      mstore\n      dup1\n      swap3\n      swap2\n      swap1\n      dup2\n      dup2\n      mstore\n      0x20\n      add\n      dup3\n      dup1\n      sload\n      tag_48\n      swap1\n      tag_47\n      jump\t// in\n    tag_48:\n      dup1\n      iszero\n      tag_49\n      jumpi\n      dup1\n      0x1f\n      lt\n      tag_50\n      jumpi\n      0x0100\n      dup1\n      dup4\n      sload\n      div\n      mul\n      dup4\n      mstore\n      swap2\n      0x20\n      add\n      swap2\n      jump(tag_49)\n    tag_50:\n      dup3\n      add\n      swap2\n      swap1\n      0x00\n      mstore\n      keccak256(0x00, 0x20)\n      swap1\n    tag_51:\n      dup2\n      sload\n      dup2\n      mstore\n      swap1\n      0x01\n      add\n      swap1\n      0x20\n      add\n      dup1\n      dup4\n      gt\n      tag_51\n      jumpi\n      dup3\n      swap1\n      sub\n      0x1f\n      and\n      dup3\n      add\n      swap2\n    tag_49:\n      pop\n      pop\n      pop\n      pop\n      pop\n      dup2\n      mstore\n      0x20\n      add\n      0x05\n      dup3\n      add\n      0x00\n      swap1\n      sload\n      swap1\n      0x0100\n      exp\n      swap1\n      div\n      0xff\n      and\n      0x04\n      dup2\n      gt\n      iszero\n      tag_52\n      jumpi\n      tag_53\n      tag_54\n      jump\t// in\n    tag_53:\n    tag_52:\n      0x04\n      dup2\n      gt\n      iszero\n      tag_55\n      jumpi\n      tag_56\n      tag_54\n      jump\t// in\n    tag_56:\n    tag_55:\n      dup2\n      mstore\n      0x20\n      add\n      0x06\n      dup3\n      add\n      sload\n      dup2\n      mstore\n      0x20\n      add\n      0x07\n      dup3\n      add\n      0x00\n      swap1\n      sload\n      swap1\n      0x0100\n      exp\n      swap1\n      div\n      0xff\n      and\n      iszero\n      iszero\n      iszero\n      iszero\n      dup2\n      mstore\n      pop\n      pop\n      swap1\n      pop\n        /* \"contracts/LogisticsManagement.sol\":6901:6909  shipment */\n      dup1\n        /* \"contracts/LogisticsManagement.sol\":6901:6919  shipment.productId */\n      0x20\n      add\n      mload\n        /* \"contracts/LogisticsManagement.sol\":6921:6929  shipment */\n      dup2\n        /* \"contracts/LogisticsManagement.sol\":6921:6941  shipment.transporter */\n      0x40\n      add\n      mload\n        /* \"contracts/LogisticsManagement.sol\":6943:6951  shipment */\n      dup3\n        /* \"contracts/LogisticsManagement.sol\":6943:6973  shipment.estimatedDeliveryTime */\n      0x60\n      add\n      mload\n        /* \"contracts/LogisticsManagement.sol\":6975:6983  shipment */\n      dup4\n        /* \"contracts/LogisticsManagement.sol\":6975:6999  shipment.currentLocation */\n      0x80\n      add\n      mload\n        /* \"contracts/LogisticsManagement.sol\":7001:7009  shipment */\n      dup5\n        /* \"contracts/LogisticsManagement.sol\":7001:7016  shipment.status */\n      0xa0\n      add\n      mload\n        /* \"contracts/LogisticsManagement.sol\":7018:7026  shipment */\n      dup6\n        /* \"contracts/LogisticsManagement.sol\":7018:7036  shipment.timestamp */\n      0xc0\n      add\n      mload\n        /* \"contracts/LogisticsManagement.sol\":6893:7037  return (shipment.productId, shipment.transporter, shipment.estimatedDeliveryTime, shipment.currentLocation, shipment.status, shipment.timestamp) */\n      swap8\n      pop\n      swap8\n      pop\n      swap8\n      pop\n      swap8\n      pop\n      swap8\n      pop\n      swap8\n      pop\n      pop\n        /* \"contracts/LogisticsManagement.sol\":6558:7044  function getShipment(uint256 _shipmentId) ... */\n      pop\n      swap2\n      swap4\n      swap6\n      pop\n      swap2\n      swap4\n      swap6\n      jump\t// out\n        /* \"contracts/LogisticsManagement.sol\":7115:7199  function pauseContract() external onlyApprovedManager {... */\n    tag_19:\n        /* \"contracts/LogisticsManagement.sol\":1999:2015  approvedManagers */\n      0x01\n        /* \"contracts/LogisticsManagement.sol\":1999:2027  approvedManagers[msg.sender] */\n      0x00\n        /* \"contracts/LogisticsManagement.sol\":2016:2026  msg.sender */\n      caller\n        /* \"contracts/LogisticsManagement.sol\":1999:2027  approvedManagers[msg.sender] */\n      0xffffffffffffffffffffffffffffffffffffffff\n      and\n      0xffffffffffffffffffffffffffffffffffffffff\n      and\n      dup2\n      mstore\n      0x20\n      add\n      swap1\n      dup2\n      mstore\n      0x20\n      add\n      0x00\n      keccak256\n      0x00\n      swap1\n      sload\n      swap1\n      0x0100\n      exp\n      swap1\n      div\n      0xff\n      and\n        /* \"contracts/LogisticsManagement.sol\":1991:2072  require(approvedManagers[msg.sender], \"Access Denied: Not an authorized manager\") */\n      tag_58\n      jumpi\n      mload(0x40)\n      0x08c379a000000000000000000000000000000000000000000000000000000000\n      dup2\n      mstore\n      0x04\n      add\n      tag_59\n      swap1\n      tag_60\n      jump\t// in\n    tag_59:\n      mload(0x40)\n      dup1\n      swap2\n      sub\n      swap1\n      revert\n    tag_58:\n        /* \"contracts/LogisticsManagement.sol\":7188:7192  true */\n      0x01\n        /* \"contracts/LogisticsManagement.sol\":7179:7185  paused */\n      0x02\n      0x00\n        /* \"contracts/LogisticsManagement.sol\":7179:7192  paused = true */\n      0x0100\n      exp\n      dup2\n      sload\n      dup2\n      0xff\n      mul\n      not\n      and\n      swap1\n      dup4\n      iszero\n      iszero\n      mul\n      or\n      swap1\n      sstore\n      pop\n        /* \"contracts/LogisticsManagement.sol\":7115:7199  function pauseContract() external onlyApprovedManager {... */\n      jump\t// out\n        /* \"contracts/LogisticsManagement.sol\":4904:5336  function updateShipmentStatus(uint256 _shipmentId, ShipmentStatus _status, string calldata _currentLocation) ... */\n    tag_23:\n        /* \"contracts/LogisticsManagement.sol\":1999:2015  approvedManagers */\n      0x01\n        /* \"contracts/LogisticsManagement.sol\":1999:2027  approvedManagers[msg.sender] */\n      0x00\n        /* \"contracts/LogisticsManagement.sol\":2016:2026  msg.sender */\n      caller\n        /* \"contracts/LogisticsManagement.sol\":1999:2027  approvedManagers[msg.sender] */\n      0xffffffffffffffffffffffffffffffffffffffff\n      and\n      0xffffffffffffffffffffffffffffffffffffffff\n      and\n      dup2\n      mstore\n      0x20\n      add\n      swap1\n      dup2\n      mstore\n      0x20\n      add\n      0x00\n      keccak256\n      0x00\n      swap1\n      sload\n      swap1\n      0x0100\n      exp\n      swap1\n      div\n      0xff\n      and\n        /* \"contracts/LogisticsManagement.sol\":1991:2072  require(approvedManagers[msg.sender], \"Access Denied: Not an authorized manager\") */\n      tag_63\n      jumpi\n      mload(0x40)\n      0x08c379a000000000000000000000000000000000000000000000000000000000\n      dup2\n      mstore\n      0x04\n      add\n      tag_64\n      swap1\n      tag_60\n      jump\t// in\n    tag_64:\n      mload(0x40)\n      dup1\n      swap2\n      sub\n      swap1\n      revert\n    tag_63:\n        /* \"contracts/LogisticsManagement.sol\":5072:5083  _shipmentId */\n      dup4\n        /* \"contracts/LogisticsManagement.sol\":2383:2392  shipments */\n      0x00\n        /* \"contracts/LogisticsManagement.sol\":2383:2405  shipments[_shipmentId] */\n      dup1\n        /* \"contracts/LogisticsManagement.sol\":2393:2404  _shipmentId */\n      dup3\n        /* \"contracts/LogisticsManagement.sol\":2383:2405  shipments[_shipmentId] */\n      dup2\n      mstore\n      0x20\n      add\n      swap1\n      dup2\n      mstore\n      0x20\n      add\n      0x00\n      keccak256\n        /* \"contracts/LogisticsManagement.sol\":2383:2418  shipments[_shipmentId].isRegistered */\n      0x07\n      add\n      0x00\n      swap1\n      sload\n      swap1\n      0x0100\n      exp\n      swap1\n      div\n      0xff\n      and\n        /* \"contracts/LogisticsManagement.sol\":2375:2459  require(shipments[_shipmentId].isRegistered, \"Query Error: Shipment not registered\") */\n      tag_66\n      jumpi\n      mload(0x40)\n      0x08c379a000000000000000000000000000000000000000000000000000000000\n      dup2\n      mstore\n      0x04\n      add\n      tag_67\n      swap1\n      tag_44\n      jump\t// in\n    tag_67:\n      mload(0x40)\n      dup1\n      swap2\n      sub\n      swap1\n      revert\n    tag_66:\n        /* \"contracts/LogisticsManagement.sol\":2193:2199  paused */\n      0x02\n      0x00\n      swap1\n      sload\n      swap1\n      0x0100\n      exp\n      swap1\n      div\n      0xff\n      and\n        /* \"contracts/LogisticsManagement.sol\":2192:2199  !paused */\n      iszero\n        /* \"contracts/LogisticsManagement.sol\":2184:2239  require(!paused, \"Operation Error: Contract is paused\") */\n      tag_69\n      jumpi\n      mload(0x40)\n      0x08c379a000000000000000000000000000000000000000000000000000000000\n      dup2\n      mstore\n      0x04\n      add\n      tag_70\n      swap1\n      tag_71\n      jump\t// in\n    tag_70:\n      mload(0x40)\n      dup1\n      swap2\n      sub\n      swap1\n      revert\n    tag_69:\n        /* \"contracts/LogisticsManagement.sol\":5114:5139  Shipment storage shipment */\n      0x00\n        /* \"contracts/LogisticsManagement.sol\":5142:5151  shipments */\n      dup1\n        /* \"contracts/LogisticsManagement.sol\":5142:5164  shipments[_shipmentId] */\n      0x00\n        /* \"contracts/LogisticsManagement.sol\":5152:5163  _shipmentId */\n      dup8\n        /* \"contracts/LogisticsManagement.sol\":5142:5164  shipments[_shipmentId] */\n      dup2\n      mstore\n      0x20\n      add\n      swap1\n      dup2\n      mstore\n      0x20\n      add\n      0x00\n      keccak256\n        /* \"contracts/LogisticsManagement.sol\":5114:5164  Shipment storage shipment = shipments[_shipmentId] */\n      swap1\n      pop\n        /* \"contracts/LogisticsManagement.sol\":5192:5199  _status */\n      dup5\n        /* \"contracts/LogisticsManagement.sol\":5174:5182  shipment */\n      dup2\n        /* \"contracts/LogisticsManagement.sol\":5174:5189  shipment.status */\n      0x05\n      add\n      0x00\n        /* \"contracts/LogisticsManagement.sol\":5174:5199  shipment.status = _status */\n      0x0100\n      exp\n      dup2\n      sload\n      dup2\n      0xff\n      mul\n      not\n      and\n      swap1\n      dup4\n      0x04\n      dup2\n      gt\n      iszero\n      tag_73\n      jumpi\n      tag_74\n      tag_54\n      jump\t// in\n    tag_74:\n    tag_73:\n      mul\n      or\n      swap1\n      sstore\n      pop\n        /* \"contracts/LogisticsManagement.sol\":5236:5252  _currentLocation */\n      dup4\n      dup4\n        /* \"contracts/LogisticsManagement.sol\":5209:5217  shipment */\n      dup3\n        /* \"contracts/LogisticsManagement.sol\":5209:5233  shipment.currentLocation */\n      0x04\n      add\n        /* \"contracts/LogisticsManagement.sol\":5209:5252  shipment.currentLocation = _currentLocation */\n      swap2\n      dup3\n      tag_75\n      swap3\n      swap2\n      swap1\n      tag_76\n      jump\t// in\n    tag_75:\n      pop\n        /* \"contracts/LogisticsManagement.sol\":5290:5301  _shipmentId */\n      dup6\n        /* \"contracts/LogisticsManagement.sol\":5268:5329  ShipmentStatusUpdated(_shipmentId, _status, _currentLocation) */\n      0x70b92c2b32436329ebb9638ab1426e38e2b23bd19f5d2ec3d7bf9f5fd3675468\n        /* \"contracts/LogisticsManagement.sol\":5303:5310  _status */\n      dup7\n        /* \"contracts/LogisticsManagement.sol\":5312:5328  _currentLocation */\n      dup7\n      dup7\n        /* \"contracts/LogisticsManagement.sol\":5268:5329  ShipmentStatusUpdated(_shipmentId, _status, _currentLocation) */\n      mload(0x40)\n      tag_77\n      swap4\n      swap3\n      swap2\n      swap1\n      tag_78\n      jump\t// in\n    tag_77:\n      mload(0x40)\n      dup1\n      swap2\n      sub\n      swap1\n      log2\n        /* \"contracts/LogisticsManagement.sol\":5104:5336  {... */\n      pop\n        /* \"contracts/LogisticsManagement.sol\":2082:2083  _ */\n      pop\n        /* \"contracts/LogisticsManagement.sol\":4904:5336  function updateShipmentStatus(uint256 _shipmentId, ShipmentStatus _status, string calldata _currentLocation) ... */\n      pop\n      pop\n      pop\n      pop\n      jump\t// out\n        /* \"contracts/LogisticsManagement.sol\":5526:5974  function applyPenalty(uint256 _shipmentId, string calldata _reason) ... */\n    tag_27:\n        /* \"contracts/LogisticsManagement.sol\":1999:2015  approvedManagers */\n      0x01\n        /* \"contracts/LogisticsManagement.sol\":1999:2027  approvedManagers[msg.sender] */\n      0x00\n        /* \"contracts/LogisticsManagement.sol\":2016:2026  msg.sender */\n      caller\n        /* \"contracts/LogisticsManagement.sol\":1999:2027  approvedManagers[msg.sender] */\n      0xffffffffffffffffffffffffffffffffffffffff\n      and\n      0xffffffffffffffffffffffffffffffffffffffff\n      and\n      dup2\n      mstore\n      0x20\n      add\n      swap1\n      dup2\n      mstore\n      0x20\n      add\n      0x00\n      keccak256\n      0x00\n      swap1\n      sload\n      swap1\n      0x0100\n      exp\n      swap1\n      div\n      0xff\n      and\n        /* \"contracts/LogisticsManagement.sol\":1991:2072  require(approvedManagers[msg.sender], \"Access Denied: Not an authorized manager\") */\n      tag_80\n      jumpi\n      mload(0x40)\n      0x08c379a000000000000000000000000000000000000000000000000000000000\n      dup2\n      mstore\n      0x04\n      add\n      tag_81\n      swap1\n      tag_60\n      jump\t// in\n    tag_81:\n      mload(0x40)\n      dup1\n      swap2\n      sub\n      swap1\n      revert\n    tag_80:\n        /* \"contracts/LogisticsManagement.sol\":5653:5664  _shipmentId */\n      dup3\n        /* \"contracts/LogisticsManagement.sol\":2383:2392  shipments */\n      0x00\n        /* \"contracts/LogisticsManagement.sol\":2383:2405  shipments[_shipmentId] */\n      dup1\n        /* \"contracts/LogisticsManagement.sol\":2393:2404  _shipmentId */\n      dup3\n        /* \"contracts/LogisticsManagement.sol\":2383:2405  shipments[_shipmentId] */\n      dup2\n      mstore\n      0x20\n      add\n      swap1\n      dup2\n      mstore\n      0x20\n      add\n      0x00\n      keccak256\n        /* \"contracts/LogisticsManagement.sol\":2383:2418  shipments[_shipmentId].isRegistered */\n      0x07\n      add\n      0x00\n      swap1\n      sload\n      swap1\n      0x0100\n      exp\n      swap1\n      div\n      0xff\n      and\n        /* \"contracts/LogisticsManagement.sol\":2375:2459  require(shipments[_shipmentId].isRegistered, \"Query Error: Shipment not registered\") */\n      tag_83\n      jumpi\n      mload(0x40)\n      0x08c379a000000000000000000000000000000000000000000000000000000000\n      dup2\n      mstore\n      0x04\n      add\n      tag_84\n      swap1\n      tag_44\n      jump\t// in\n    tag_84:\n      mload(0x40)\n      dup1\n      swap2\n      sub\n      swap1\n      revert\n    tag_83:\n        /* \"contracts/LogisticsManagement.sol\":2193:2199  paused */\n      0x02\n      0x00\n      swap1\n      sload\n      swap1\n      0x0100\n      exp\n      swap1\n      div\n      0xff\n      and\n        /* \"contracts/LogisticsManagement.sol\":2192:2199  !paused */\n      iszero\n        /* \"contracts/LogisticsManagement.sol\":2184:2239  require(!paused, \"Operation Error: Contract is paused\") */\n      tag_86\n      jumpi\n      mload(0x40)\n      0x08c379a000000000000000000000000000000000000000000000000000000000\n      dup2\n      mstore\n      0x04\n      add\n      tag_87\n      swap1\n      tag_71\n      jump\t// in\n    tag_87:\n      mload(0x40)\n      dup1\n      swap2\n      sub\n      swap1\n      revert\n    tag_86:\n        /* \"contracts/LogisticsManagement.sol\":5695:5719  Shipment memory shipment */\n      0x00\n        /* \"contracts/LogisticsManagement.sol\":5722:5731  shipments */\n      dup1\n        /* \"contracts/LogisticsManagement.sol\":5722:5744  shipments[_shipmentId] */\n      0x00\n        /* \"contracts/LogisticsManagement.sol\":5732:5743  _shipmentId */\n      dup7\n        /* \"contracts/LogisticsManagement.sol\":5722:5744  shipments[_shipmentId] */\n      dup2\n      mstore\n      0x20\n      add\n      swap1\n      dup2\n      mstore\n      0x20\n      add\n      0x00\n      keccak256\n        /* \"contracts/LogisticsManagement.sol\":5695:5744  Shipment memory shipment = shipments[_shipmentId] */\n      mload(0x40)\n      dup1\n      0x0100\n      add\n      0x40\n      mstore\n      swap1\n      dup2\n      0x00\n      dup3\n      add\n      sload\n      dup2\n      mstore\n      0x20\n      add\n      0x01\n      dup3\n      add\n      sload\n      dup2\n      mstore\n      0x20\n      add\n      0x02\n      dup3\n      add\n      0x00\n      swap1\n      sload\n      swap1\n      0x0100\n      exp\n      swap1\n      div\n      0xffffffffffffffffffffffffffffffffffffffff\n      and\n      0xffffffffffffffffffffffffffffffffffffffff\n      and\n      0xffffffffffffffffffffffffffffffffffffffff\n      and\n      dup2\n      mstore\n      0x20\n      add\n      0x03\n      dup3\n      add\n      sload\n      dup2\n      mstore\n      0x20\n      add\n      0x04\n      dup3\n      add\n      dup1\n      sload\n      tag_89\n      swap1\n      tag_47\n      jump\t// in\n    tag_89:\n      dup1\n      0x1f\n      add\n      0x20\n      dup1\n      swap2\n      div\n      mul\n      0x20\n      add\n      mload(0x40)\n      swap1\n      dup2\n      add\n      0x40\n      mstore\n      dup1\n      swap3\n      swap2\n      swap1\n      dup2\n      dup2\n      mstore\n      0x20\n      add\n      dup3\n      dup1\n      sload\n      tag_90\n      swap1\n      tag_47\n      jump\t// in\n    tag_90:\n      dup1\n      iszero\n      tag_91\n      jumpi\n      dup1\n      0x1f\n      lt\n      tag_92\n      jumpi\n      0x0100\n      dup1\n      dup4\n      sload\n      div\n      mul\n      dup4\n      mstore\n      swap2\n      0x20\n      add\n      swap2\n      jump(tag_91)\n    tag_92:\n      dup3\n      add\n      swap2\n      swap1\n      0x00\n      mstore\n      keccak256(0x00, 0x20)\n      swap1\n    tag_93:\n      dup2\n      sload\n      dup2\n      mstore\n      swap1\n      0x01\n      add\n      swap1\n      0x20\n      add\n      dup1\n      dup4\n      gt\n      tag_93\n      jumpi\n      dup3\n      swap1\n      sub\n      0x1f\n      and\n      dup3\n      add\n      swap2\n    tag_91:\n      pop\n      pop\n      pop\n      pop\n      pop\n      dup2\n      mstore\n      0x20\n      add\n      0x05\n      dup3\n      add\n      0x00\n      swap1\n      sload\n      swap1\n      0x0100\n      exp\n      swap1\n      div\n      0xff\n      and\n      0x04\n      dup2\n      gt\n      iszero\n      tag_94\n      jumpi\n      tag_95\n      tag_54\n      jump\t// in\n    tag_95:\n    tag_94:\n      0x04\n      dup2\n      gt\n      iszero\n      tag_96\n      jumpi\n      tag_97\n      tag_54\n      jump\t// in\n    tag_97:\n    tag_96:\n      dup2\n      mstore\n      0x20\n      add\n      0x06\n      dup3\n      add\n      sload\n      dup2\n      mstore\n      0x20\n      add\n      0x07\n      dup3\n      add\n      0x00\n      swap1\n      sload\n      swap1\n      0x0100\n      exp\n      swap1\n      div\n      0xff\n      and\n      iszero\n      iszero\n      iszero\n      iszero\n      dup2\n      mstore\n      pop\n      pop\n      swap1\n      pop\n        /* \"contracts/LogisticsManagement.sol\":5781:5803  ShipmentStatus.Delayed */\n      0x03\n        /* \"contracts/LogisticsManagement.sol\":5762:5803  shipment.status == ShipmentStatus.Delayed */\n      0x04\n      dup2\n      gt\n      iszero\n      tag_98\n      jumpi\n      tag_99\n      tag_54\n      jump\t// in\n    tag_99:\n    tag_98:\n        /* \"contracts/LogisticsManagement.sol\":5762:5770  shipment */\n      dup2\n        /* \"contracts/LogisticsManagement.sol\":5762:5777  shipment.status */\n      0xa0\n      add\n      mload\n        /* \"contracts/LogisticsManagement.sol\":5762:5803  shipment.status == ShipmentStatus.Delayed */\n      0x04\n      dup2\n      gt\n      iszero\n      tag_100\n      jumpi\n      tag_101\n      tag_54\n      jump\t// in\n    tag_101:\n    tag_100:\n      eq\n        /* \"contracts/LogisticsManagement.sol\":5762:5845  shipment.status == ShipmentStatus.Delayed || shipment.status == ShipmentStatus.Lost */\n      dup1\n      tag_102\n      jumpi\n      pop\n        /* \"contracts/LogisticsManagement.sol\":5826:5845  ShipmentStatus.Lost */\n      0x04\n        /* \"contracts/LogisticsManagement.sol\":5807:5845  shipment.status == ShipmentStatus.Lost */\n      dup1\n      dup2\n      gt\n      iszero\n      tag_103\n      jumpi\n      tag_104\n      tag_54\n      jump\t// in\n    tag_104:\n    tag_103:\n        /* \"contracts/LogisticsManagement.sol\":5807:5815  shipment */\n      dup2\n        /* \"contracts/LogisticsManagement.sol\":5807:5822  shipment.status */\n      0xa0\n      add\n      mload\n        /* \"contracts/LogisticsManagement.sol\":5807:5845  shipment.status == ShipmentStatus.Lost */\n      0x04\n      dup2\n      gt\n      iszero\n      tag_105\n      jumpi\n      tag_106\n      tag_54\n      jump\t// in\n    tag_106:\n    tag_105:\n      eq\n        /* \"contracts/LogisticsManagement.sol\":5762:5845  shipment.status == ShipmentStatus.Delayed || shipment.status == ShipmentStatus.Lost */\n    tag_102:\n        /* \"contracts/LogisticsManagement.sol\":5754:5893  require(shipment.status == ShipmentStatus.Delayed || shipment.status == ShipmentStatus.Lost, \"Penalty Error: Shipment not delayed or lost\") */\n      tag_107\n      jumpi\n      mload(0x40)\n      0x08c379a000000000000000000000000000000000000000000000000000000000\n      dup2\n      mstore\n      0x04\n      add\n      tag_108\n      swap1\n      tag_109\n      jump\t// in\n    tag_108:\n      mload(0x40)\n      dup1\n      swap2\n      sub\n      swap1\n      revert\n    tag_107:\n        /* \"contracts/LogisticsManagement.sol\":5937:5945  shipment */\n      dup1\n        /* \"contracts/LogisticsManagement.sol\":5937:5957  shipment.transporter */\n      0x40\n      add\n      mload\n        /* \"contracts/LogisticsManagement.sol\":5909:5967  PenaltyApplied(_shipmentId, shipment.transporter, _reason) */\n      0xffffffffffffffffffffffffffffffffffffffff\n      and\n        /* \"contracts/LogisticsManagement.sol\":5924:5935  _shipmentId */\n      dup6\n        /* \"contracts/LogisticsManagement.sol\":5909:5967  PenaltyApplied(_shipmentId, shipment.transporter, _reason) */\n      0xf7cad826d02c9fe90da65e564b06d00caf60b1f1dfe0e51ddb332398717b8e5c\n        /* \"contracts/LogisticsManagement.sol\":5959:5966  _reason */\n      dup7\n      dup7\n        /* \"contracts/LogisticsManagement.sol\":5909:5967  PenaltyApplied(_shipmentId, shipment.transporter, _reason) */\n      mload(0x40)\n      tag_110\n      swap3\n      swap2\n      swap1\n      tag_111\n      jump\t// in\n    tag_110:\n      mload(0x40)\n      dup1\n      swap2\n      sub\n      swap1\n      log3\n        /* \"contracts/LogisticsManagement.sol\":5685:5974  {... */\n      pop\n        /* \"contracts/LogisticsManagement.sol\":2082:2083  _ */\n      pop\n        /* \"contracts/LogisticsManagement.sol\":5526:5974  function applyPenalty(uint256 _shipmentId, string calldata _reason) ... */\n      pop\n      pop\n      pop\n      jump\t// out\n        /* \"contracts/LogisticsManagement.sol\":3795:4643  function createShipment(uint256 _shipmentId, uint256 _productId, address _transporter, uint256 _estimatedDeliveryTime) ... */\n    tag_31:\n        /* \"contracts/LogisticsManagement.sol\":1999:2015  approvedManagers */\n      0x01\n        /* \"contracts/LogisticsManagement.sol\":1999:2027  approvedManagers[msg.sender] */\n      0x00\n        /* \"contracts/LogisticsManagement.sol\":2016:2026  msg.sender */\n      caller\n        /* \"contracts/LogisticsManagement.sol\":1999:2027  approvedManagers[msg.sender] */\n      0xffffffffffffffffffffffffffffffffffffffff\n      and\n      0xffffffffffffffffffffffffffffffffffffffff\n      and\n      dup2\n      mstore\n      0x20\n      add\n      swap1\n      dup2\n      mstore\n      0x20\n      add\n      0x00\n      keccak256\n      0x00\n      swap1\n      sload\n      swap1\n      0x0100\n      exp\n      swap1\n      div\n      0xff\n      and\n        /* \"contracts/LogisticsManagement.sol\":1991:2072  require(approvedManagers[msg.sender], \"Access Denied: Not an authorized manager\") */\n      tag_113\n      jumpi\n      mload(0x40)\n      0x08c379a000000000000000000000000000000000000000000000000000000000\n      dup2\n      mstore\n      0x04\n      add\n      tag_114\n      swap1\n      tag_60\n      jump\t// in\n    tag_114:\n      mload(0x40)\n      dup1\n      swap2\n      sub\n      swap1\n      revert\n    tag_113:\n        /* \"contracts/LogisticsManagement.sol\":2193:2199  paused */\n      0x02\n      0x00\n      swap1\n      sload\n      swap1\n      0x0100\n      exp\n      swap1\n      div\n      0xff\n      and\n        /* \"contracts/LogisticsManagement.sol\":2192:2199  !paused */\n      iszero\n        /* \"contracts/LogisticsManagement.sol\":2184:2239  require(!paused, \"Operation Error: Contract is paused\") */\n      tag_116\n      jumpi\n      mload(0x40)\n      0x08c379a000000000000000000000000000000000000000000000000000000000\n      dup2\n      mstore\n      0x04\n      add\n      tag_117\n      swap1\n      tag_71\n      jump\t// in\n    tag_117:\n      mload(0x40)\n      dup1\n      swap2\n      sub\n      swap1\n      revert\n    tag_116:\n        /* \"contracts/LogisticsManagement.sol\":3990:3999  shipments */\n      0x00\n        /* \"contracts/LogisticsManagement.sol\":3990:4012  shipments[_shipmentId] */\n      dup1\n        /* \"contracts/LogisticsManagement.sol\":4000:4011  _shipmentId */\n      dup6\n        /* \"contracts/LogisticsManagement.sol\":3990:4012  shipments[_shipmentId] */\n      dup2\n      mstore\n      0x20\n      add\n      swap1\n      dup2\n      mstore\n      0x20\n      add\n      0x00\n      keccak256\n        /* \"contracts/LogisticsManagement.sol\":3990:4025  shipments[_shipmentId].isRegistered */\n      0x07\n      add\n      0x00\n      swap1\n      sload\n      swap1\n      0x0100\n      exp\n      swap1\n      div\n      0xff\n      and\n        /* \"contracts/LogisticsManagement.sol\":3989:4025  !shipments[_shipmentId].isRegistered */\n      iszero\n        /* \"contracts/LogisticsManagement.sol\":3981:4069  require(!shipments[_shipmentId].isRegistered, \"Creation Error: Shipment already exists\") */\n      tag_119\n      jumpi\n      mload(0x40)\n      0x08c379a000000000000000000000000000000000000000000000000000000000\n      dup2\n      mstore\n      0x04\n      add\n      tag_120\n      swap1\n      tag_121\n      jump\t// in\n    tag_120:\n      mload(0x40)\n      dup1\n      swap2\n      sub\n      swap1\n      revert\n    tag_119:\n        /* \"contracts/LogisticsManagement.sol\":4111:4112  0 */\n      0x00\n        /* \"contracts/LogisticsManagement.sol\":4087:4113  _transporter != address(0) */\n      0xffffffffffffffffffffffffffffffffffffffff\n      and\n        /* \"contracts/LogisticsManagement.sol\":4087:4099  _transporter */\n      dup3\n        /* \"contracts/LogisticsManagement.sol\":4087:4113  _transporter != address(0) */\n      0xffffffffffffffffffffffffffffffffffffffff\n      and\n      sub\n        /* \"contracts/LogisticsManagement.sol\":4079:4161  require(_transporter != address(0), \"Creation Error: Invalid transporter address\") */\n      tag_122\n      jumpi\n      mload(0x40)\n      0x08c379a000000000000000000000000000000000000000000000000000000000\n      dup2\n      mstore\n      0x04\n      add\n      tag_123\n      swap1\n      tag_124\n      jump\t// in\n    tag_123:\n      mload(0x40)\n      dup1\n      swap2\n      sub\n      swap1\n      revert\n    tag_122:\n        /* \"contracts/LogisticsManagement.sol\":4197:4542  Shipment({... */\n      mload(0x40)\n      dup1\n      0x0100\n      add\n      0x40\n      mstore\n      dup1\n        /* \"contracts/LogisticsManagement.sol\":4232:4243  _shipmentId */\n      dup6\n        /* \"contracts/LogisticsManagement.sol\":4197:4542  Shipment({... */\n      dup2\n      mstore\n      0x20\n      add\n        /* \"contracts/LogisticsManagement.sol\":4268:4278  _productId */\n      dup5\n        /* \"contracts/LogisticsManagement.sol\":4197:4542  Shipment({... */\n      dup2\n      mstore\n      0x20\n      add\n        /* \"contracts/LogisticsManagement.sol\":4305:4317  _transporter */\n      dup4\n        /* \"contracts/LogisticsManagement.sol\":4197:4542  Shipment({... */\n      0xffffffffffffffffffffffffffffffffffffffff\n      and\n      dup2\n      mstore\n      0x20\n      add\n        /* \"contracts/LogisticsManagement.sol\":4354:4376  _estimatedDeliveryTime */\n      dup3\n        /* \"contracts/LogisticsManagement.sol\":4197:4542  Shipment({... */\n      dup2\n      mstore\n      0x20\n      add\n      mload(0x40)\n      dup1\n      0x40\n      add\n      0x40\n      mstore\n      dup1\n      0x06\n      dup2\n      mstore\n      0x20\n      add\n      0x4f726967696e0000000000000000000000000000000000000000000000000000\n      dup2\n      mstore\n      pop\n      dup2\n      mstore\n      0x20\n      add\n        /* \"contracts/LogisticsManagement.sol\":4437:4459  ShipmentStatus.Pending */\n      0x00\n        /* \"contracts/LogisticsManagement.sol\":4197:4542  Shipment({... */\n      0x04\n      dup2\n      gt\n      iszero\n      tag_125\n      jumpi\n      tag_126\n      tag_54\n      jump\t// in\n    tag_126:\n    tag_125:\n      dup2\n      mstore\n      0x20\n      add\n        /* \"contracts/LogisticsManagement.sol\":4484:4499  block.timestamp */\n      timestamp\n        /* \"contracts/LogisticsManagement.sol\":4197:4542  Shipment({... */\n      dup2\n      mstore\n      0x20\n      add\n        /* \"contracts/LogisticsManagement.sol\":4527:4531  true */\n      0x01\n        /* \"contracts/LogisticsManagement.sol\":4197:4542  Shipment({... */\n      iszero\n      iszero\n      dup2\n      mstore\n      pop\n        /* \"contracts/LogisticsManagement.sol\":4172:4181  shipments */\n      0x00\n        /* \"contracts/LogisticsManagement.sol\":4172:4194  shipments[_shipmentId] */\n      dup1\n        /* \"contracts/LogisticsManagement.sol\":4182:4193  _shipmentId */\n      dup7\n        /* \"contracts/LogisticsManagement.sol\":4172:4194  shipments[_shipmentId] */\n      dup2\n      mstore\n      0x20\n      add\n      swap1\n      dup2\n      mstore\n      0x20\n      add\n      0x00\n      keccak256\n        /* \"contracts/LogisticsManagement.sol\":4172:4542  shipments[_shipmentId] = Shipment({... */\n      0x00\n      dup3\n      add\n      mload\n      dup2\n      0x00\n      add\n      sstore\n      0x20\n      dup3\n      add\n      mload\n      dup2\n      0x01\n      add\n      sstore\n      0x40\n      dup3\n      add\n      mload\n      dup2\n      0x02\n      add\n      exp(0x0100, 0x00)\n      dup2\n      sload\n      dup2\n      0xffffffffffffffffffffffffffffffffffffffff\n      mul\n      not\n      and\n      swap1\n      dup4\n      0xffffffffffffffffffffffffffffffffffffffff\n      and\n      mul\n      or\n      swap1\n      sstore\n      pop\n      0x60\n      dup3\n      add\n      mload\n      dup2\n      0x03\n      add\n      sstore\n      0x80\n      dup3\n      add\n      mload\n      dup2\n      0x04\n      add\n      swap1\n      dup2\n      tag_127\n      swap2\n      swap1\n      tag_128\n      jump\t// in\n    tag_127:\n      pop\n      0xa0\n      dup3\n      add\n      mload\n      dup2\n      0x05\n      add\n      exp(0x0100, 0x00)\n      dup2\n      sload\n      dup2\n      0xff\n      mul\n      not\n      and\n      swap1\n      dup4\n      0x04\n      dup2\n      gt\n      iszero\n      tag_129\n      jumpi\n      tag_130\n      tag_54\n      jump\t// in\n    tag_130:\n    tag_129:\n      mul\n      or\n      swap1\n      sstore\n      pop\n      0xc0\n      dup3\n      add\n      mload\n      dup2\n      0x06\n      add\n      sstore\n      0xe0\n      dup3\n      add\n      mload\n      dup2\n      0x07\n      add\n      exp(0x0100, 0x00)\n      dup2\n      sload\n      dup2\n      0xff\n      mul\n      not\n      and\n      swap1\n      dup4\n      iszero\n      iszero\n      mul\n      or\n      swap1\n      sstore\n      pop\n      swap1\n      pop\n      pop\n        /* \"contracts/LogisticsManagement.sol\":4599:4611  _transporter */\n      dup2\n        /* \"contracts/LogisticsManagement.sol\":4558:4636  ShipmentCreated(_shipmentId, _productId, _transporter, _estimatedDeliveryTime) */\n      0xffffffffffffffffffffffffffffffffffffffff\n      and\n        /* \"contracts/LogisticsManagement.sol\":4574:4585  _shipmentId */\n      dup5\n        /* \"contracts/LogisticsManagement.sol\":4558:4636  ShipmentCreated(_shipmentId, _productId, _transporter, _estimatedDeliveryTime) */\n      0x5c8f217b762956f50a21d6d5a6feec2da8373ec81ec9806f2d2570bd97671062\n        /* \"contracts/LogisticsManagement.sol\":4587:4597  _productId */\n      dup6\n        /* \"contracts/LogisticsManagement.sol\":4613:4635  _estimatedDeliveryTime */\n      dup5\n        /* \"contracts/LogisticsManagement.sol\":4558:4636  ShipmentCreated(_shipmentId, _productId, _transporter, _estimatedDeliveryTime) */\n      mload(0x40)\n      tag_131\n      swap3\n      swap2\n      swap1\n      tag_132\n      jump\t// in\n    tag_131:\n      mload(0x40)\n      dup1\n      swap2\n      sub\n      swap1\n      log3\n        /* \"contracts/LogisticsManagement.sol\":3795:4643  function createShipment(uint256 _shipmentId, uint256 _productId, address _transporter, uint256 _estimatedDeliveryTime) ... */\n      pop\n      pop\n      pop\n      pop\n      jump\t// out\n        /* \"contracts/LogisticsManagement.sol\":3189:3444  function removeManager(address _manager) external onlyApprovedManager whenNotPaused {... */\n    tag_35:\n        /* \"contracts/LogisticsManagement.sol\":1999:2015  approvedManagers */\n      0x01\n        /* \"contracts/LogisticsManagement.sol\":1999:2027  approvedManagers[msg.sender] */\n      0x00\n        /* \"contracts/LogisticsManagement.sol\":2016:2026  msg.sender */\n      caller\n        /* \"contracts/LogisticsManagement.sol\":1999:2027  approvedManagers[msg.sender] */\n      0xffffffffffffffffffffffffffffffffffffffff\n      and\n      0xffffffffffffffffffffffffffffffffffffffff\n      and\n      dup2\n      mstore\n      0x20\n      add\n      swap1\n      dup2\n      mstore\n      0x20\n      add\n      0x00\n      keccak256\n      0x00\n      swap1\n      sload\n      swap1\n      0x0100\n      exp\n      swap1\n      div\n      0xff\n      and\n        /* \"contracts/LogisticsManagement.sol\":1991:2072  require(approvedManagers[msg.sender], \"Access Denied: Not an authorized manager\") */\n      tag_134\n      jumpi\n      mload(0x40)\n      0x08c379a000000000000000000000000000000000000000000000000000000000\n      dup2\n      mstore\n      0x04\n      add\n      tag_135\n      swap1\n      tag_60\n      jump\t// in\n    tag_135:\n      mload(0x40)\n      dup1\n      swap2\n      sub\n      swap1\n      revert\n    tag_134:\n        /* \"contracts/LogisticsManagement.sol\":2193:2199  paused */\n      0x02\n      0x00\n      swap1\n      sload\n      swap1\n      0x0100\n      exp\n      swap1\n      div\n      0xff\n      and\n        /* \"contracts/LogisticsManagement.sol\":2192:2199  !paused */\n      iszero\n        /* \"contracts/LogisticsManagement.sol\":2184:2239  require(!paused, \"Operation Error: Contract is paused\") */\n      tag_137\n      jumpi\n      mload(0x40)\n      0x08c379a000000000000000000000000000000000000000000000000000000000\n      dup2\n      mstore\n      0x04\n      add\n      tag_138\n      swap1\n      tag_71\n      jump\t// in\n    tag_138:\n      mload(0x40)\n      dup1\n      swap2\n      sub\n      swap1\n      revert\n    tag_137:\n        /* \"contracts/LogisticsManagement.sol\":3291:3307  approvedManagers */\n      0x01\n        /* \"contracts/LogisticsManagement.sol\":3291:3317  approvedManagers[_manager] */\n      0x00\n        /* \"contracts/LogisticsManagement.sol\":3308:3316  _manager */\n      dup3\n        /* \"contracts/LogisticsManagement.sol\":3291:3317  approvedManagers[_manager] */\n      0xffffffffffffffffffffffffffffffffffffffff\n      and\n      0xffffffffffffffffffffffffffffffffffffffff\n      and\n      dup2\n      mstore\n      0x20\n      add\n      swap1\n      dup2\n      mstore\n      0x20\n      add\n      0x00\n      keccak256\n      0x00\n      swap1\n      sload\n      swap1\n      0x0100\n      exp\n      swap1\n      div\n      0xff\n      and\n        /* \"contracts/LogisticsManagement.sol\":3283:3354  require(approvedManagers[_manager], \"Removal Error: Manager not found\") */\n      tag_140\n      jumpi\n      mload(0x40)\n      0x08c379a000000000000000000000000000000000000000000000000000000000\n      dup2\n      mstore\n      0x04\n      add\n      tag_141\n      swap1\n      tag_142\n      jump\t// in\n    tag_141:\n      mload(0x40)\n      dup1\n      swap2\n      sub\n      swap1\n      revert\n    tag_140:\n        /* \"contracts/LogisticsManagement.sol\":3393:3398  false */\n      0x00\n        /* \"contracts/LogisticsManagement.sol\":3364:3380  approvedManagers */\n      0x01\n        /* \"contracts/LogisticsManagement.sol\":3364:3390  approvedManagers[_manager] */\n      0x00\n        /* \"contracts/LogisticsManagement.sol\":3381:3389  _manager */\n      dup4\n        /* \"contracts/LogisticsManagement.sol\":3364:3390  approvedManagers[_manager] */\n      0xffffffffffffffffffffffffffffffffffffffff\n      and\n      0xffffffffffffffffffffffffffffffffffffffff\n      and\n      dup2\n      mstore\n      0x20\n      add\n      swap1\n      dup2\n      mstore\n      0x20\n      add\n      0x00\n      keccak256\n      0x00\n        /* \"contracts/LogisticsManagement.sol\":3364:3398  approvedManagers[_manager] = false */\n      0x0100\n      exp\n      dup2\n      sload\n      dup2\n      0xff\n      mul\n      not\n      and\n      swap1\n      dup4\n      iszero\n      iszero\n      mul\n      or\n      swap1\n      sstore\n      pop\n        /* \"contracts/LogisticsManagement.sol\":3428:3436  _manager */\n      dup1\n        /* \"contracts/LogisticsManagement.sol\":3413:3437  ManagerRemoved(_manager) */\n      0xffffffffffffffffffffffffffffffffffffffff\n      and\n      0xef69f7d97228658c92417be1b16b19058315de71fecb435d07b7d23728b6bd31\n      mload(0x40)\n      mload(0x40)\n      dup1\n      swap2\n      sub\n      swap1\n      log2\n        /* \"contracts/LogisticsManagement.sol\":3189:3444  function removeManager(address _manager) external onlyApprovedManager whenNotPaused {... */\n      pop\n      jump\t// out\n        /* \"contracts/LogisticsManagement.sol\":7263:7350  function unpauseContract() external onlyApprovedManager {... */\n    tag_37:\n        /* \"contracts/LogisticsManagement.sol\":1999:2015  approvedManagers */\n      0x01\n        /* \"contracts/LogisticsManagement.sol\":1999:2027  approvedManagers[msg.sender] */\n      0x00\n        /* \"contracts/LogisticsManagement.sol\":2016:2026  msg.sender */\n      caller\n        /* \"contracts/LogisticsManagement.sol\":1999:2027  approvedManagers[msg.sender] */\n      0xffffffffffffffffffffffffffffffffffffffff\n      and\n      0xffffffffffffffffffffffffffffffffffffffff\n      and\n      dup2\n      mstore\n      0x20\n      add\n      swap1\n      dup2\n      mstore\n      0x20\n      add\n      0x00\n      keccak256\n      0x00\n      swap1\n      sload\n      swap1\n      0x0100\n      exp\n      swap1\n      div\n      0xff\n      and\n        /* \"contracts/LogisticsManagement.sol\":1991:2072  require(approvedManagers[msg.sender], \"Access Denied: Not an authorized manager\") */\n      tag_144\n      jumpi\n      mload(0x40)\n      0x08c379a000000000000000000000000000000000000000000000000000000000\n      dup2\n      mstore\n      0x04\n      add\n      tag_145\n      swap1\n      tag_60\n      jump\t// in\n    tag_145:\n      mload(0x40)\n      dup1\n      swap2\n      sub\n      swap1\n      revert\n    tag_144:\n        /* \"contracts/LogisticsManagement.sol\":7338:7343  false */\n      0x00\n        /* \"contracts/LogisticsManagement.sol\":7329:7335  paused */\n      0x02\n      0x00\n        /* \"contracts/LogisticsManagement.sol\":7329:7343  paused = false */\n      0x0100\n      exp\n      dup2\n      sload\n      dup2\n      0xff\n      mul\n      not\n      and\n      swap1\n      dup4\n      iszero\n      iszero\n      mul\n      or\n      swap1\n      sstore\n      pop\n        /* \"contracts/LogisticsManagement.sol\":7263:7350  function unpauseContract() external onlyApprovedManager {... */\n      jump\t// out\n        /* \"contracts/LogisticsManagement.sol\":2792:3057  function approveManager(address _manager) external onlyApprovedManager whenNotPaused {... */\n    tag_40:\n        /* \"contracts/LogisticsManagement.sol\":1999:2015  approvedManagers */\n      0x01\n        /* \"contracts/LogisticsManagement.sol\":1999:2027  approvedManagers[msg.sender] */\n      0x00\n        /* \"contracts/LogisticsManagement.sol\":2016:2026  msg.sender */\n      caller\n        /* \"contracts/LogisticsManagement.sol\":1999:2027  approvedManagers[msg.sender] */\n      0xffffffffffffffffffffffffffffffffffffffff\n      and\n      0xffffffffffffffffffffffffffffffffffffffff\n      and\n      dup2\n      mstore\n      0x20\n      add\n      swap1\n      dup2\n      mstore\n      0x20\n      add\n      0x00\n      keccak256\n      0x00\n      swap1\n      sload\n      swap1\n      0x0100\n      exp\n      swap1\n      div\n      0xff\n      and\n        /* \"contracts/LogisticsManagement.sol\":1991:2072  require(approvedManagers[msg.sender], \"Access Denied: Not an authorized manager\") */\n      tag_148\n      jumpi\n      mload(0x40)\n      0x08c379a000000000000000000000000000000000000000000000000000000000\n      dup2\n      mstore\n      0x04\n      add\n      tag_149\n      swap1\n      tag_60\n      jump\t// in\n    tag_149:\n      mload(0x40)\n      dup1\n      swap2\n      sub\n      swap1\n      revert\n    tag_148:\n        /* \"contracts/LogisticsManagement.sol\":2193:2199  paused */\n      0x02\n      0x00\n      swap1\n      sload\n      swap1\n      0x0100\n      exp\n      swap1\n      div\n      0xff\n      and\n        /* \"contracts/LogisticsManagement.sol\":2192:2199  !paused */\n      iszero\n        /* \"contracts/LogisticsManagement.sol\":2184:2239  require(!paused, \"Operation Error: Contract is paused\") */\n      tag_151\n      jumpi\n      mload(0x40)\n      0x08c379a000000000000000000000000000000000000000000000000000000000\n      dup2\n      mstore\n      0x04\n      add\n      tag_152\n      swap1\n      tag_71\n      jump\t// in\n    tag_152:\n      mload(0x40)\n      dup1\n      swap2\n      sub\n      swap1\n      revert\n    tag_151:\n        /* \"contracts/LogisticsManagement.sol\":2896:2912  approvedManagers */\n      0x01\n        /* \"contracts/LogisticsManagement.sol\":2896:2922  approvedManagers[_manager] */\n      0x00\n        /* \"contracts/LogisticsManagement.sol\":2913:2921  _manager */\n      dup3\n        /* \"contracts/LogisticsManagement.sol\":2896:2922  approvedManagers[_manager] */\n      0xffffffffffffffffffffffffffffffffffffffff\n      and\n      0xffffffffffffffffffffffffffffffffffffffff\n      and\n      dup2\n      mstore\n      0x20\n      add\n      swap1\n      dup2\n      mstore\n      0x20\n      add\n      0x00\n      keccak256\n      0x00\n      swap1\n      sload\n      swap1\n      0x0100\n      exp\n      swap1\n      div\n      0xff\n      and\n        /* \"contracts/LogisticsManagement.sol\":2895:2922  !approvedManagers[_manager] */\n      iszero\n        /* \"contracts/LogisticsManagement.sol\":2887:2967  require(!approvedManagers[_manager], \"Approval Error: Manager already approved\") */\n      tag_154\n      jumpi\n      mload(0x40)\n      0x08c379a000000000000000000000000000000000000000000000000000000000\n      dup2\n      mstore\n      0x04\n      add\n      tag_155\n      swap1\n      tag_156\n      jump\t// in\n    tag_155:\n      mload(0x40)\n      dup1\n      swap2\n      sub\n      swap1\n      revert\n    tag_154:\n        /* \"contracts/LogisticsManagement.sol\":3006:3010  true */\n      0x01\n        /* \"contracts/LogisticsManagement.sol\":2977:2993  approvedManagers */\n      dup1\n        /* \"contracts/LogisticsManagement.sol\":2977:3003  approvedManagers[_manager] */\n      0x00\n        /* \"contracts/LogisticsManagement.sol\":2994:3002  _manager */\n      dup4\n        /* \"contracts/LogisticsManagement.sol\":2977:3003  approvedManagers[_manager] */\n      0xffffffffffffffffffffffffffffffffffffffff\n      and\n      0xffffffffffffffffffffffffffffffffffffffff\n      and\n      dup2\n      mstore\n      0x20\n      add\n      swap1\n      dup2\n      mstore\n      0x20\n      add\n      0x00\n      keccak256\n      0x00\n        /* \"contracts/LogisticsManagement.sol\":2977:3010  approvedManagers[_manager] = true */\n      0x0100\n      exp\n      dup2\n      sload\n      dup2\n      0xff\n      mul\n      not\n      and\n      swap1\n      dup4\n      iszero\n      iszero\n      mul\n      or\n      swap1\n      sstore\n      pop\n        /* \"contracts/LogisticsManagement.sol\":3041:3049  _manager */\n      dup1\n        /* \"contracts/LogisticsManagement.sol\":3025:3050  ManagerApproved(_manager) */\n      0xffffffffffffffffffffffffffffffffffffffff\n      and\n      0x450ad6a6ac3c2e8b8a02820cb64d6102a1f91ebe1fa3848a0cfc45c870c043af\n      mload(0x40)\n      mload(0x40)\n      dup1\n      swap2\n      sub\n      swap1\n      log2\n        /* \"contracts/LogisticsManagement.sol\":2792:3057  function approveManager(address _manager) external onlyApprovedManager whenNotPaused {... */\n      pop\n      jump\t// out\n        /* \"#utility.yul\":88:205   */\n    tag_158:\n        /* \"#utility.yul\":197:198   */\n      0x00\n        /* \"#utility.yul\":194:195   */\n      dup1\n        /* \"#utility.yul\":187:199   */\n      revert\n        /* \"#utility.yul\":211:328   */\n    tag_159:\n        /* \"#utility.yul\":320:321   */\n      0x00\n        /* \"#utility.yul\":317:318   */\n      dup1\n        /* \"#utility.yul\":310:322   */\n      revert\n        /* \"#utility.yul\":334:411   */\n    tag_160:\n        /* \"#utility.yul\":371:378   */\n      0x00\n        /* \"#utility.yul\":400:405   */\n      dup2\n        /* \"#utility.yul\":389:405   */\n      swap1\n      pop\n        /* \"#utility.yul\":334:411   */\n      swap2\n      swap1\n      pop\n      jump\t// out\n        /* \"#utility.yul\":417:539   */\n    tag_161:\n        /* \"#utility.yul\":490:514   */\n      tag_226\n        /* \"#utility.yul\":508:513   */\n      dup2\n        /* \"#utility.yul\":490:514   */\n      tag_160\n      jump\t// in\n    tag_226:\n        /* \"#utility.yul\":483:488   */\n      dup2\n        /* \"#utility.yul\":480:515   */\n      eq\n        /* \"#utility.yul\":470:533   */\n      tag_227\n      jumpi\n        /* \"#utility.yul\":529:530   */\n      0x00\n        /* \"#utility.yul\":526:527   */\n      dup1\n        /* \"#utility.yul\":519:531   */\n      revert\n        /* \"#utility.yul\":470:533   */\n    tag_227:\n        /* \"#utility.yul\":417:539   */\n      pop\n      jump\t// out\n        /* \"#utility.yul\":545:684   */\n    tag_162:\n        /* \"#utility.yul\":591:596   */\n      0x00\n        /* \"#utility.yul\":629:635   */\n      dup2\n        /* \"#utility.yul\":616:636   */\n      calldataload\n        /* \"#utility.yul\":607:636   */\n      swap1\n      pop\n        /* \"#utility.yul\":645:678   */\n      tag_229\n        /* \"#utility.yul\":672:677   */\n      dup2\n        /* \"#utility.yul\":645:678   */\n      tag_161\n      jump\t// in\n    tag_229:\n        /* \"#utility.yul\":545:684   */\n      swap3\n      swap2\n      pop\n      pop\n      jump\t// out\n        /* \"#utility.yul\":690:1019   */\n    tag_14:\n        /* \"#utility.yul\":749:755   */\n      0x00\n        /* \"#utility.yul\":798:800   */\n      0x20\n        /* \"#utility.yul\":786:795   */\n      dup3\n        /* \"#utility.yul\":777:784   */\n      dup5\n        /* \"#utility.yul\":773:796   */\n      sub\n        /* \"#utility.yul\":769:801   */\n      slt\n        /* \"#utility.yul\":766:885   */\n      iszero\n      tag_231\n      jumpi\n        /* \"#utility.yul\":804:883   */\n      tag_232\n      tag_158\n      jump\t// in\n    tag_232:\n        /* \"#utility.yul\":766:885   */\n    tag_231:\n        /* \"#utility.yul\":924:925   */\n      0x00\n        /* \"#utility.yul\":949:1002   */\n      tag_233\n        /* \"#utility.yul\":994:1001   */\n      dup5\n        /* \"#utility.yul\":985:991   */\n      dup3\n        /* \"#utility.yul\":974:983   */\n      dup6\n        /* \"#utility.yul\":970:992   */\n      add\n        /* \"#utility.yul\":949:1002   */\n      tag_162\n      jump\t// in\n    tag_233:\n        /* \"#utility.yul\":939:1002   */\n      swap2\n      pop\n        /* \"#utility.yul\":895:1012   */\n      pop\n        /* \"#utility.yul\":690:1019   */\n      swap3\n      swap2\n      pop\n      pop\n      jump\t// out\n        /* \"#utility.yul\":1025:1143   */\n    tag_163:\n        /* \"#utility.yul\":1112:1136   */\n      tag_235\n        /* \"#utility.yul\":1130:1135   */\n      dup2\n        /* \"#utility.yul\":1112:1136   */\n      tag_160\n      jump\t// in\n    tag_235:\n        /* \"#utility.yul\":1107:1110   */\n      dup3\n        /* \"#utility.yul\":1100:1137   */\n      mstore\n        /* \"#utility.yul\":1025:1143   */\n      pop\n      pop\n      jump\t// out\n        /* \"#utility.yul\":1149:1275   */\n    tag_164:\n        /* \"#utility.yul\":1186:1193   */\n      0x00\n        /* \"#utility.yul\":1226:1268   */\n      0xffffffffffffffffffffffffffffffffffffffff\n        /* \"#utility.yul\":1219:1224   */\n      dup3\n        /* \"#utility.yul\":1215:1269   */\n      and\n        /* \"#utility.yul\":1204:1269   */\n      swap1\n      pop\n        /* \"#utility.yul\":1149:1275   */\n      swap2\n      swap1\n      pop\n      jump\t// out\n        /* \"#utility.yul\":1281:1377   */\n    tag_165:\n        /* \"#utility.yul\":1318:1325   */\n      0x00\n        /* \"#utility.yul\":1347:1371   */\n      tag_238\n        /* \"#utility.yul\":1365:1370   */\n      dup3\n        /* \"#utility.yul\":1347:1371   */\n      tag_164\n      jump\t// in\n    tag_238:\n        /* \"#utility.yul\":1336:1371   */\n      swap1\n      pop\n        /* \"#utility.yul\":1281:1377   */\n      swap2\n      swap1\n      pop\n      jump\t// out\n        /* \"#utility.yul\":1383:1501   */\n    tag_166:\n        /* \"#utility.yul\":1470:1494   */\n      tag_240\n        /* \"#utility.yul\":1488:1493   */\n      dup2\n        /* \"#utility.yul\":1470:1494   */\n      tag_165\n      jump\t// in\n    tag_240:\n        /* \"#utility.yul\":1465:1468   */\n      dup3\n        /* \"#utility.yul\":1458:1495   */\n      mstore\n        /* \"#utility.yul\":1383:1501   */\n      pop\n      pop\n      jump\t// out\n        /* \"#utility.yul\":1507:1606   */\n    tag_167:\n        /* \"#utility.yul\":1559:1565   */\n      0x00\n        /* \"#utility.yul\":1593:1598   */\n      dup2\n        /* \"#utility.yul\":1587:1599   */\n      mload\n        /* \"#utility.yul\":1577:1599   */\n      swap1\n      pop\n        /* \"#utility.yul\":1507:1606   */\n      swap2\n      swap1\n      pop\n      jump\t// out\n        /* \"#utility.yul\":1612:1781   */\n    tag_168:\n        /* \"#utility.yul\":1696:1707   */\n      0x00\n        /* \"#utility.yul\":1730:1736   */\n      dup3\n        /* \"#utility.yul\":1725:1728   */\n      dup3\n        /* \"#utility.yul\":1718:1737   */\n      mstore\n        /* \"#utility.yul\":1770:1774   */\n      0x20\n        /* \"#utility.yul\":1765:1768   */\n      dup3\n        /* \"#utility.yul\":1761:1775   */\n      add\n        /* \"#utility.yul\":1746:1775   */\n      swap1\n      pop\n        /* \"#utility.yul\":1612:1781   */\n      swap3\n      swap2\n      pop\n      pop\n      jump\t// out\n        /* \"#utility.yul\":1787:1926   */\n    tag_169:\n        /* \"#utility.yul\":1876:1882   */\n      dup3\n        /* \"#utility.yul\":1871:1874   */\n      dup2\n        /* \"#utility.yul\":1866:1869   */\n      dup4\n        /* \"#utility.yul\":1860:1883   */\n      mcopy\n        /* \"#utility.yul\":1917:1918   */\n      0x00\n        /* \"#utility.yul\":1908:1914   */\n      dup4\n        /* \"#utility.yul\":1903:1906   */\n      dup4\n        /* \"#utility.yul\":1899:1915   */\n      add\n        /* \"#utility.yul\":1892:1919   */\n      mstore\n        /* \"#utility.yul\":1787:1926   */\n      pop\n      pop\n      pop\n      jump\t// out\n        /* \"#utility.yul\":1932:2034   */\n    tag_170:\n        /* \"#utility.yul\":1973:1979   */\n      0x00\n        /* \"#utility.yul\":2024:2026   */\n      0x1f\n        /* \"#utility.yul\":2020:2027   */\n      not\n        /* \"#utility.yul\":2015:2017   */\n      0x1f\n        /* \"#utility.yul\":2008:2013   */\n      dup4\n        /* \"#utility.yul\":2004:2018   */\n      add\n        /* \"#utility.yul\":2000:2028   */\n      and\n        /* \"#utility.yul\":1990:2028   */\n      swap1\n      pop\n        /* \"#utility.yul\":1932:2034   */\n      swap2\n      swap1\n      pop\n      jump\t// out\n        /* \"#utility.yul\":2040:2417   */\n    tag_171:\n        /* \"#utility.yul\":2128:2131   */\n      0x00\n        /* \"#utility.yul\":2156:2195   */\n      tag_246\n        /* \"#utility.yul\":2189:2194   */\n      dup3\n        /* \"#utility.yul\":2156:2195   */\n      tag_167\n      jump\t// in\n    tag_246:\n        /* \"#utility.yul\":2211:2282   */\n      tag_247\n        /* \"#utility.yul\":2275:2281   */\n      dup2\n        /* \"#utility.yul\":2270:2273   */\n      dup6\n        /* \"#utility.yul\":2211:2282   */\n      tag_168\n      jump\t// in\n    tag_247:\n        /* \"#utility.yul\":2204:2282   */\n      swap4\n      pop\n        /* \"#utility.yul\":2291:2356   */\n      tag_248\n        /* \"#utility.yul\":2349:2355   */\n      dup2\n        /* \"#utility.yul\":2344:2347   */\n      dup6\n        /* \"#utility.yul\":2337:2341   */\n      0x20\n        /* \"#utility.yul\":2330:2335   */\n      dup7\n        /* \"#utility.yul\":2326:2342   */\n      add\n        /* \"#utility.yul\":2291:2356   */\n      tag_169\n      jump\t// in\n    tag_248:\n        /* \"#utility.yul\":2381:2410   */\n      tag_249\n        /* \"#utility.yul\":2403:2409   */\n      dup2\n        /* \"#utility.yul\":2381:2410   */\n      tag_170\n      jump\t// in\n    tag_249:\n        /* \"#utility.yul\":2376:2379   */\n      dup5\n        /* \"#utility.yul\":2372:2411   */\n      add\n        /* \"#utility.yul\":2365:2411   */\n      swap2\n      pop\n        /* \"#utility.yul\":2132:2417   */\n      pop\n        /* \"#utility.yul\":2040:2417   */\n      swap3\n      swap2\n      pop\n      pop\n      jump\t// out\n        /* \"#utility.yul\":2423:2603   */\n    tag_54:\n        /* \"#utility.yul\":2471:2548   */\n      0x4e487b7100000000000000000000000000000000000000000000000000000000\n        /* \"#utility.yul\":2468:2469   */\n      0x00\n        /* \"#utility.yul\":2461:2549   */\n      mstore\n        /* \"#utility.yul\":2568:2572   */\n      0x21\n        /* \"#utility.yul\":2565:2566   */\n      0x04\n        /* \"#utility.yul\":2558:2573   */\n      mstore\n        /* \"#utility.yul\":2592:2596   */\n      0x24\n        /* \"#utility.yul\":2589:2590   */\n      0x00\n        /* \"#utility.yul\":2582:2597   */\n      revert\n        /* \"#utility.yul\":2609:2730   */\n    tag_172:\n        /* \"#utility.yul\":2698:2699   */\n      0x05\n        /* \"#utility.yul\":2691:2696   */\n      dup2\n        /* \"#utility.yul\":2688:2700   */\n      lt\n        /* \"#utility.yul\":2678:2724   */\n      tag_252\n      jumpi\n        /* \"#utility.yul\":2704:2722   */\n      tag_253\n      tag_54\n      jump\t// in\n    tag_253:\n        /* \"#utility.yul\":2678:2724   */\n    tag_252:\n        /* \"#utility.yul\":2609:2730   */\n      pop\n      jump\t// out\n        /* \"#utility.yul\":2736:2879   */\n    tag_173:\n        /* \"#utility.yul\":2789:2796   */\n      0x00\n        /* \"#utility.yul\":2818:2823   */\n      dup2\n        /* \"#utility.yul\":2807:2823   */\n      swap1\n      pop\n        /* \"#utility.yul\":2824:2873   */\n      tag_255\n        /* \"#utility.yul\":2867:2872   */\n      dup3\n        /* \"#utility.yul\":2824:2873   */\n      tag_172\n      jump\t// in\n    tag_255:\n        /* \"#utility.yul\":2736:2879   */\n      swap2\n      swap1\n      pop\n      jump\t// out\n        /* \"#utility.yul\":2885:3028   */\n    tag_174:\n        /* \"#utility.yul\":2949:2958   */\n      0x00\n        /* \"#utility.yul\":2982:3022   */\n      tag_257\n        /* \"#utility.yul\":3016:3021   */\n      dup3\n        /* \"#utility.yul\":2982:3022   */\n      tag_173\n      jump\t// in\n    tag_257:\n        /* \"#utility.yul\":2969:3022   */\n      swap1\n      pop\n        /* \"#utility.yul\":2885:3028   */\n      swap2\n      swap1\n      pop\n      jump\t// out\n        /* \"#utility.yul\":3034:3193   */\n    tag_175:\n        /* \"#utility.yul\":3135:3186   */\n      tag_259\n        /* \"#utility.yul\":3180:3185   */\n      dup2\n        /* \"#utility.yul\":3135:3186   */\n      tag_174\n      jump\t// in\n    tag_259:\n        /* \"#utility.yul\":3130:3133   */\n      dup3\n        /* \"#utility.yul\":3123:3187   */\n      mstore\n        /* \"#utility.yul\":3034:3193   */\n      pop\n      pop\n      jump\t// out\n        /* \"#utility.yul\":3199:4093   */\n    tag_17:\n        /* \"#utility.yul\":3466:3470   */\n      0x00\n        /* \"#utility.yul\":3504:3507   */\n      0xc0\n        /* \"#utility.yul\":3493:3502   */\n      dup3\n        /* \"#utility.yul\":3489:3508   */\n      add\n        /* \"#utility.yul\":3481:3508   */\n      swap1\n      pop\n        /* \"#utility.yul\":3518:3589   */\n      tag_261\n        /* \"#utility.yul\":3586:3587   */\n      0x00\n        /* \"#utility.yul\":3575:3584   */\n      dup4\n        /* \"#utility.yul\":3571:3588   */\n      add\n        /* \"#utility.yul\":3562:3568   */\n      dup10\n        /* \"#utility.yul\":3518:3589   */\n      tag_163\n      jump\t// in\n    tag_261:\n        /* \"#utility.yul\":3599:3671   */\n      tag_262\n        /* \"#utility.yul\":3667:3669   */\n      0x20\n        /* \"#utility.yul\":3656:3665   */\n      dup4\n        /* \"#utility.yul\":3652:3670   */\n      add\n        /* \"#utility.yul\":3643:3649   */\n      dup9\n        /* \"#utility.yul\":3599:3671   */\n      tag_166\n      jump\t// in\n    tag_262:\n        /* \"#utility.yul\":3681:3753   */\n      tag_263\n        /* \"#utility.yul\":3749:3751   */\n      0x40\n        /* \"#utility.yul\":3738:3747   */\n      dup4\n        /* \"#utility.yul\":3734:3752   */\n      add\n        /* \"#utility.yul\":3725:3731   */\n      dup8\n        /* \"#utility.yul\":3681:3753   */\n      tag_163\n      jump\t// in\n    tag_263:\n        /* \"#utility.yul\":3800:3809   */\n      dup2\n        /* \"#utility.yul\":3794:3798   */\n      dup2\n        /* \"#utility.yul\":3790:3810   */\n      sub\n        /* \"#utility.yul\":3785:3787   */\n      0x60\n        /* \"#utility.yul\":3774:3783   */\n      dup4\n        /* \"#utility.yul\":3770:3788   */\n      add\n        /* \"#utility.yul\":3763:3811   */\n      mstore\n        /* \"#utility.yul\":3828:3906   */\n      tag_264\n        /* \"#utility.yul\":3901:3905   */\n      dup2\n        /* \"#utility.yul\":3892:3898   */\n      dup7\n        /* \"#utility.yul\":3828:3906   */\n      tag_171\n      jump\t// in\n    tag_264:\n        /* \"#utility.yul\":3820:3906   */\n      swap1\n      pop\n        /* \"#utility.yul\":3916:4003   */\n      tag_265\n        /* \"#utility.yul\":3998:4001   */\n      0x80\n        /* \"#utility.yul\":3987:3996   */\n      dup4\n        /* \"#utility.yul\":3983:4002   */\n      add\n        /* \"#utility.yul\":3974:3980   */\n      dup6\n        /* \"#utility.yul\":3916:4003   */\n      tag_175\n      jump\t// in\n    tag_265:\n        /* \"#utility.yul\":4013:4086   */\n      tag_266\n        /* \"#utility.yul\":4081:4084   */\n      0xa0\n        /* \"#utility.yul\":4070:4079   */\n      dup4\n        /* \"#utility.yul\":4066:4085   */\n      add\n        /* \"#utility.yul\":4057:4063   */\n      dup5\n        /* \"#utility.yul\":4013:4086   */\n      tag_163\n      jump\t// in\n    tag_266:\n        /* \"#utility.yul\":3199:4093   */\n      swap8\n      swap7\n      pop\n      pop\n      pop\n      pop\n      pop\n      pop\n      pop\n      jump\t// out\n        /* \"#utility.yul\":4099:4214   */\n    tag_176:\n        /* \"#utility.yul\":4188:4189   */\n      0x05\n        /* \"#utility.yul\":4181:4186   */\n      dup2\n        /* \"#utility.yul\":4178:4190   */\n      lt\n        /* \"#utility.yul\":4168:4208   */\n      tag_268\n      jumpi\n        /* \"#utility.yul\":4204:4205   */\n      0x00\n        /* \"#utility.yul\":4201:4202   */\n      dup1\n        /* \"#utility.yul\":4194:4206   */\n      revert\n        /* \"#utility.yul\":4168:4208   */\n    tag_268:\n        /* \"#utility.yul\":4099:4214   */\n      pop\n      jump\t// out\n        /* \"#utility.yul\":4220:4391   */\n    tag_177:\n        /* \"#utility.yul\":4282:4287   */\n      0x00\n        /* \"#utility.yul\":4320:4326   */\n      dup2\n        /* \"#utility.yul\":4307:4327   */\n      calldataload\n        /* \"#utility.yul\":4298:4327   */\n      swap1\n      pop\n        /* \"#utility.yul\":4336:4385   */\n      tag_270\n        /* \"#utility.yul\":4379:4384   */\n      dup2\n        /* \"#utility.yul\":4336:4385   */\n      tag_176\n      jump\t// in\n    tag_270:\n        /* \"#utility.yul\":4220:4391   */\n      swap3\n      swap2\n      pop\n      pop\n      jump\t// out\n        /* \"#utility.yul\":4397:4514   */\n    tag_178:\n        /* \"#utility.yul\":4506:4507   */\n      0x00\n        /* \"#utility.yul\":4503:4504   */\n      dup1\n        /* \"#utility.yul\":4496:4508   */\n      revert\n        /* \"#utility.yul\":4520:4637   */\n    tag_179:\n        /* \"#utility.yul\":4629:4630   */\n      0x00\n        /* \"#utility.yul\":4626:4627   */\n      dup1\n        /* \"#utility.yul\":4619:4631   */\n      revert\n        /* \"#utility.yul\":4643:4760   */\n    tag_180:\n        /* \"#utility.yul\":4752:4753   */\n      0x00\n        /* \"#utility.yul\":4749:4750   */\n      dup1\n        /* \"#utility.yul\":4742:4754   */\n      revert\n        /* \"#utility.yul\":4780:5333   */\n    tag_181:\n        /* \"#utility.yul\":4838:4846   */\n      0x00\n        /* \"#utility.yul\":4848:4854   */\n      dup1\n        /* \"#utility.yul\":4898:4901   */\n      dup4\n        /* \"#utility.yul\":4891:4895   */\n      0x1f\n        /* \"#utility.yul\":4883:4889   */\n      dup5\n        /* \"#utility.yul\":4879:4896   */\n      add\n        /* \"#utility.yul\":4875:4902   */\n      slt\n        /* \"#utility.yul\":4865:4987   */\n      tag_275\n      jumpi\n        /* \"#utility.yul\":4906:4985   */\n      tag_276\n      tag_178\n      jump\t// in\n    tag_276:\n        /* \"#utility.yul\":4865:4987   */\n    tag_275:\n        /* \"#utility.yul\":5019:5025   */\n      dup3\n        /* \"#utility.yul\":5006:5026   */\n      calldataload\n        /* \"#utility.yul\":4996:5026   */\n      swap1\n      pop\n        /* \"#utility.yul\":5049:5067   */\n      0xffffffffffffffff\n        /* \"#utility.yul\":5041:5047   */\n      dup2\n        /* \"#utility.yul\":5038:5068   */\n      gt\n        /* \"#utility.yul\":5035:5152   */\n      iszero\n      tag_277\n      jumpi\n        /* \"#utility.yul\":5071:5150   */\n      tag_278\n      tag_179\n      jump\t// in\n    tag_278:\n        /* \"#utility.yul\":5035:5152   */\n    tag_277:\n        /* \"#utility.yul\":5185:5189   */\n      0x20\n        /* \"#utility.yul\":5177:5183   */\n      dup4\n        /* \"#utility.yul\":5173:5190   */\n      add\n        /* \"#utility.yul\":5161:5190   */\n      swap2\n      pop\n        /* \"#utility.yul\":5239:5242   */\n      dup4\n        /* \"#utility.yul\":5231:5235   */\n      0x01\n        /* \"#utility.yul\":5223:5229   */\n      dup3\n        /* \"#utility.yul\":5219:5236   */\n      mul\n        /* \"#utility.yul\":5209:5217   */\n      dup4\n        /* \"#utility.yul\":5205:5237   */\n      add\n        /* \"#utility.yul\":5202:5243   */\n      gt\n        /* \"#utility.yul\":5199:5327   */\n      iszero\n      tag_279\n      jumpi\n        /* \"#utility.yul\":5246:5325   */\n      tag_280\n      tag_180\n      jump\t// in\n    tag_280:\n        /* \"#utility.yul\":5199:5327   */\n    tag_279:\n        /* \"#utility.yul\":4780:5333   */\n      swap3\n      pop\n      swap3\n      swap1\n      pop\n      jump\t// out\n        /* \"#utility.yul\":5339:6190   */\n    tag_22:\n        /* \"#utility.yul\":5444:5450   */\n      0x00\n        /* \"#utility.yul\":5452:5458   */\n      dup1\n        /* \"#utility.yul\":5460:5466   */\n      0x00\n        /* \"#utility.yul\":5468:5474   */\n      dup1\n        /* \"#utility.yul\":5517:5519   */\n      0x60\n        /* \"#utility.yul\":5505:5514   */\n      dup6\n        /* \"#utility.yul\":5496:5503   */\n      dup8\n        /* \"#utility.yul\":5492:5515   */\n      sub\n        /* \"#utility.yul\":5488:5520   */\n      slt\n        /* \"#utility.yul\":5485:5604   */\n      iszero\n      tag_282\n      jumpi\n        /* \"#utility.yul\":5523:5602   */\n      tag_283\n      tag_158\n      jump\t// in\n    tag_283:\n        /* \"#utility.yul\":5485:5604   */\n    tag_282:\n        /* \"#utility.yul\":5643:5644   */\n      0x00\n        /* \"#utility.yul\":5668:5721   */\n      tag_284\n        /* \"#utility.yul\":5713:5720   */\n      dup8\n        /* \"#utility.yul\":5704:5710   */\n      dup3\n        /* \"#utility.yul\":5693:5702   */\n      dup9\n        /* \"#utility.yul\":5689:5711   */\n      add\n        /* \"#utility.yul\":5668:5721   */\n      tag_162\n      jump\t// in\n    tag_284:\n        /* \"#utility.yul\":5658:5721   */\n      swap5\n      pop\n        /* \"#utility.yul\":5614:5731   */\n      pop\n        /* \"#utility.yul\":5770:5772   */\n      0x20\n        /* \"#utility.yul\":5796:5865   */\n      tag_285\n        /* \"#utility.yul\":5857:5864   */\n      dup8\n        /* \"#utility.yul\":5848:5854   */\n      dup3\n        /* \"#utility.yul\":5837:5846   */\n      dup9\n        /* \"#utility.yul\":5833:5855   */\n      add\n        /* \"#utility.yul\":5796:5865   */\n      tag_177\n      jump\t// in\n    tag_285:\n        /* \"#utility.yul\":5786:5865   */\n      swap4\n      pop\n        /* \"#utility.yul\":5741:5875   */\n      pop\n        /* \"#utility.yul\":5942:5944   */\n      0x40\n        /* \"#utility.yul\":5931:5940   */\n      dup6\n        /* \"#utility.yul\":5927:5945   */\n      add\n        /* \"#utility.yul\":5914:5946   */\n      calldataload\n        /* \"#utility.yul\":5973:5991   */\n      0xffffffffffffffff\n        /* \"#utility.yul\":5965:5971   */\n      dup2\n        /* \"#utility.yul\":5962:5992   */\n      gt\n        /* \"#utility.yul\":5959:6076   */\n      iszero\n      tag_286\n      jumpi\n        /* \"#utility.yul\":5995:6074   */\n      tag_287\n      tag_159\n      jump\t// in\n    tag_287:\n        /* \"#utility.yul\":5959:6076   */\n    tag_286:\n        /* \"#utility.yul\":6108:6173   */\n      tag_288\n        /* \"#utility.yul\":6165:6172   */\n      dup8\n        /* \"#utility.yul\":6156:6162   */\n      dup3\n        /* \"#utility.yul\":6145:6154   */\n      dup9\n        /* \"#utility.yul\":6141:6163   */\n      add\n        /* \"#utility.yul\":6108:6173   */\n      tag_181\n      jump\t// in\n    tag_288:\n        /* \"#utility.yul\":6090:6173   */\n      swap3\n      pop\n      swap3\n      pop\n        /* \"#utility.yul\":5885:6183   */\n      pop\n        /* \"#utility.yul\":5339:6190   */\n      swap3\n      swap6\n      swap2\n      swap5\n      pop\n      swap3\n      pop\n      jump\t// out\n        /* \"#utility.yul\":6196:6870   */\n    tag_26:\n        /* \"#utility.yul\":6276:6282   */\n      0x00\n        /* \"#utility.yul\":6284:6290   */\n      dup1\n        /* \"#utility.yul\":6292:6298   */\n      0x00\n        /* \"#utility.yul\":6341:6343   */\n      0x40\n        /* \"#utility.yul\":6329:6338   */\n      dup5\n        /* \"#utility.yul\":6320:6327   */\n      dup7\n        /* \"#utility.yul\":6316:6339   */\n      sub\n        /* \"#utility.yul\":6312:6344   */\n      slt\n        /* \"#utility.yul\":6309:6428   */\n      iszero\n      tag_290\n      jumpi\n        /* \"#utility.yul\":6347:6426   */\n      tag_291\n      tag_158\n      jump\t// in\n    tag_291:\n        /* \"#utility.yul\":6309:6428   */\n    tag_290:\n        /* \"#utility.yul\":6467:6468   */\n      0x00\n        /* \"#utility.yul\":6492:6545   */\n      tag_292\n        /* \"#utility.yul\":6537:6544   */\n      dup7\n        /* \"#utility.yul\":6528:6534   */\n      dup3\n        /* \"#utility.yul\":6517:6526   */\n      dup8\n        /* \"#utility.yul\":6513:6535   */\n      add\n        /* \"#utility.yul\":6492:6545   */\n      tag_162\n      jump\t// in\n    tag_292:\n        /* \"#utility.yul\":6482:6545   */\n      swap4\n      pop\n        /* \"#utility.yul\":6438:6555   */\n      pop\n        /* \"#utility.yul\":6622:6624   */\n      0x20\n        /* \"#utility.yul\":6611:6620   */\n      dup5\n        /* \"#utility.yul\":6607:6625   */\n      add\n        /* \"#utility.yul\":6594:6626   */\n      calldataload\n        /* \"#utility.yul\":6653:6671   */\n      0xffffffffffffffff\n        /* \"#utility.yul\":6645:6651   */\n      dup2\n        /* \"#utility.yul\":6642:6672   */\n      gt\n        /* \"#utility.yul\":6639:6756   */\n      iszero\n      tag_293\n      jumpi\n        /* \"#utility.yul\":6675:6754   */\n      tag_294\n      tag_159\n      jump\t// in\n    tag_294:\n        /* \"#utility.yul\":6639:6756   */\n    tag_293:\n        /* \"#utility.yul\":6788:6853   */\n      tag_295\n        /* \"#utility.yul\":6845:6852   */\n      dup7\n        /* \"#utility.yul\":6836:6842   */\n      dup3\n        /* \"#utility.yul\":6825:6834   */\n      dup8\n        /* \"#utility.yul\":6821:6843   */\n      add\n        /* \"#utility.yul\":6788:6853   */\n      tag_181\n      jump\t// in\n    tag_295:\n        /* \"#utility.yul\":6770:6853   */\n      swap3\n      pop\n      swap3\n      pop\n        /* \"#utility.yul\":6565:6863   */\n      pop\n        /* \"#utility.yul\":6196:6870   */\n      swap3\n      pop\n      swap3\n      pop\n      swap3\n      jump\t// out\n        /* \"#utility.yul\":6876:6998   */\n    tag_182:\n        /* \"#utility.yul\":6949:6973   */\n      tag_297\n        /* \"#utility.yul\":6967:6972   */\n      dup2\n        /* \"#utility.yul\":6949:6973   */\n      tag_165\n      jump\t// in\n    tag_297:\n        /* \"#utility.yul\":6942:6947   */\n      dup2\n        /* \"#utility.yul\":6939:6974   */\n      eq\n        /* \"#utility.yul\":6929:6992   */\n      tag_298\n      jumpi\n        /* \"#utility.yul\":6988:6989   */\n      0x00\n        /* \"#utility.yul\":6985:6986   */\n      dup1\n        /* \"#utility.yul\":6978:6990   */\n      revert\n        /* \"#utility.yul\":6929:6992   */\n    tag_298:\n        /* \"#utility.yul\":6876:6998   */\n      pop\n      jump\t// out\n        /* \"#utility.yul\":7004:7143   */\n    tag_183:\n        /* \"#utility.yul\":7050:7055   */\n      0x00\n        /* \"#utility.yul\":7088:7094   */\n      dup2\n        /* \"#utility.yul\":7075:7095   */\n      calldataload\n        /* \"#utility.yul\":7066:7095   */\n      swap1\n      pop\n        /* \"#utility.yul\":7104:7137   */\n      tag_300\n        /* \"#utility.yul\":7131:7136   */\n      dup2\n        /* \"#utility.yul\":7104:7137   */\n      tag_182\n      jump\t// in\n    tag_300:\n        /* \"#utility.yul\":7004:7143   */\n      swap3\n      swap2\n      pop\n      pop\n      jump\t// out\n        /* \"#utility.yul\":7149:7914   */\n    tag_30:\n        /* \"#utility.yul\":7235:7241   */\n      0x00\n        /* \"#utility.yul\":7243:7249   */\n      dup1\n        /* \"#utility.yul\":7251:7257   */\n      0x00\n        /* \"#utility.yul\":7259:7265   */\n      dup1\n        /* \"#utility.yul\":7308:7311   */\n      0x80\n        /* \"#utility.yul\":7296:7305   */\n      dup6\n        /* \"#utility.yul\":7287:7294   */\n      dup8\n        /* \"#utility.yul\":7283:7306   */\n      sub\n        /* \"#utility.yul\":7279:7312   */\n      slt\n        /* \"#utility.yul\":7276:7396   */\n      iszero\n      tag_302\n      jumpi\n        /* \"#utility.yul\":7315:7394   */\n      tag_303\n      tag_158\n      jump\t// in\n    tag_303:\n        /* \"#utility.yul\":7276:7396   */\n    tag_302:\n        /* \"#utility.yul\":7435:7436   */\n      0x00\n        /* \"#utility.yul\":7460:7513   */\n      tag_304\n        /* \"#utility.yul\":7505:7512   */\n      dup8\n        /* \"#utility.yul\":7496:7502   */\n      dup3\n        /* \"#utility.yul\":7485:7494   */\n      dup9\n        /* \"#utility.yul\":7481:7503   */\n      add\n        /* \"#utility.yul\":7460:7513   */\n      tag_162\n      jump\t// in\n    tag_304:\n        /* \"#utility.yul\":7450:7513   */\n      swap5\n      pop\n        /* \"#utility.yul\":7406:7523   */\n      pop\n        /* \"#utility.yul\":7562:7564   */\n      0x20\n        /* \"#utility.yul\":7588:7641   */\n      tag_305\n        /* \"#utility.yul\":7633:7640   */\n      dup8\n        /* \"#utility.yul\":7624:7630   */\n      dup3\n        /* \"#utility.yul\":7613:7622   */\n      dup9\n        /* \"#utility.yul\":7609:7631   */\n      add\n        /* \"#utility.yul\":7588:7641   */\n      tag_162\n      jump\t// in\n    tag_305:\n        /* \"#utility.yul\":7578:7641   */\n      swap4\n      pop\n        /* \"#utility.yul\":7533:7651   */\n      pop\n        /* \"#utility.yul\":7690:7692   */\n      0x40\n        /* \"#utility.yul\":7716:7769   */\n      tag_306\n        /* \"#utility.yul\":7761:7768   */\n      dup8\n        /* \"#utility.yul\":7752:7758   */\n      dup3\n        /* \"#utility.yul\":7741:7750   */\n      dup9\n        /* \"#utility.yul\":7737:7759   */\n      add\n        /* \"#utility.yul\":7716:7769   */\n      tag_183\n      jump\t// in\n    tag_306:\n        /* \"#utility.yul\":7706:7769   */\n      swap3\n      pop\n        /* \"#utility.yul\":7661:7779   */\n      pop\n        /* \"#utility.yul\":7818:7820   */\n      0x60\n        /* \"#utility.yul\":7844:7897   */\n      tag_307\n        /* \"#utility.yul\":7889:7896   */\n      dup8\n        /* \"#utility.yul\":7880:7886   */\n      dup3\n        /* \"#utility.yul\":7869:7878   */\n      dup9\n        /* \"#utility.yul\":7865:7887   */\n      add\n        /* \"#utility.yul\":7844:7897   */\n      tag_162\n      jump\t// in\n    tag_307:\n        /* \"#utility.yul\":7834:7897   */\n      swap2\n      pop\n        /* \"#utility.yul\":7789:7907   */\n      pop\n        /* \"#utility.yul\":7149:7914   */\n      swap3\n      swap6\n      swap2\n      swap5\n      pop\n      swap3\n      pop\n      jump\t// out\n        /* \"#utility.yul\":7920:8249   */\n    tag_34:\n        /* \"#utility.yul\":7979:7985   */\n      0x00\n        /* \"#utility.yul\":8028:8030   */\n      0x20\n        /* \"#utility.yul\":8016:8025   */\n      dup3\n        /* \"#utility.yul\":8007:8014   */\n      dup5\n        /* \"#utility.yul\":8003:8026   */\n      sub\n        /* \"#utility.yul\":7999:8031   */\n      slt\n        /* \"#utility.yul\":7996:8115   */\n      iszero\n      tag_309\n      jumpi\n        /* \"#utility.yul\":8034:8113   */\n      tag_310\n      tag_158\n      jump\t// in\n    tag_310:\n        /* \"#utility.yul\":7996:8115   */\n    tag_309:\n        /* \"#utility.yul\":8154:8155   */\n      0x00\n        /* \"#utility.yul\":8179:8232   */\n      tag_311\n        /* \"#utility.yul\":8224:8231   */\n      dup5\n        /* \"#utility.yul\":8215:8221   */\n      dup3\n        /* \"#utility.yul\":8204:8213   */\n      dup6\n        /* \"#utility.yul\":8200:8222   */\n      add\n        /* \"#utility.yul\":8179:8232   */\n      tag_183\n      jump\t// in\n    tag_311:\n        /* \"#utility.yul\":8169:8232   */\n      swap2\n      pop\n        /* \"#utility.yul\":8125:8242   */\n      pop\n        /* \"#utility.yul\":7920:8249   */\n      swap3\n      swap2\n      pop\n      pop\n      jump\t// out\n        /* \"#utility.yul\":8255:8478   */\n    tag_184:\n        /* \"#utility.yul\":8395:8429   */\n      0x5175657279204572726f723a20536869706d656e74206e6f7420726567697374\n        /* \"#utility.yul\":8391:8392   */\n      0x00\n        /* \"#utility.yul\":8383:8389   */\n      dup3\n        /* \"#utility.yul\":8379:8393   */\n      add\n        /* \"#utility.yul\":8372:8430   */\n      mstore\n        /* \"#utility.yul\":8464:8470   */\n      0x6572656400000000000000000000000000000000000000000000000000000000\n        /* \"#utility.yul\":8459:8461   */\n      0x20\n        /* \"#utility.yul\":8451:8457   */\n      dup3\n        /* \"#utility.yul\":8447:8462   */\n      add\n        /* \"#utility.yul\":8440:8471   */\n      mstore\n        /* \"#utility.yul\":8255:8478   */\n      pop\n      jump\t// out\n        /* \"#utility.yul\":8484:8850   */\n    tag_185:\n        /* \"#utility.yul\":8626:8629   */\n      0x00\n        /* \"#utility.yul\":8647:8714   */\n      tag_314\n        /* \"#utility.yul\":8711:8713   */\n      0x24\n        /* \"#utility.yul\":8706:8709   */\n      dup4\n        /* \"#utility.yul\":8647:8714   */\n      tag_168\n      jump\t// in\n    tag_314:\n        /* \"#utility.yul\":8640:8714   */\n      swap2\n      pop\n        /* \"#utility.yul\":8723:8816   */\n      tag_315\n        /* \"#utility.yul\":8812:8815   */\n      dup3\n        /* \"#utility.yul\":8723:8816   */\n      tag_184\n      jump\t// in\n    tag_315:\n        /* \"#utility.yul\":8841:8843   */\n      0x40\n        /* \"#utility.yul\":8836:8839   */\n      dup3\n        /* \"#utility.yul\":8832:8844   */\n      add\n        /* \"#utility.yul\":8825:8844   */\n      swap1\n      pop\n        /* \"#utility.yul\":8484:8850   */\n      swap2\n      swap1\n      pop\n      jump\t// out\n        /* \"#utility.yul\":8856:9275   */\n    tag_44:\n        /* \"#utility.yul\":9022:9026   */\n      0x00\n        /* \"#utility.yul\":9060:9062   */\n      0x20\n        /* \"#utility.yul\":9049:9058   */\n      dup3\n        /* \"#utility.yul\":9045:9063   */\n      add\n        /* \"#utility.yul\":9037:9063   */\n      swap1\n      pop\n        /* \"#utility.yul\":9109:9118   */\n      dup2\n        /* \"#utility.yul\":9103:9107   */\n      dup2\n        /* \"#utility.yul\":9099:9119   */\n      sub\n        /* \"#utility.yul\":9095:9096   */\n      0x00\n        /* \"#utility.yul\":9084:9093   */\n      dup4\n        /* \"#utility.yul\":9080:9097   */\n      add\n        /* \"#utility.yul\":9073:9120   */\n      mstore\n        /* \"#utility.yul\":9137:9268   */\n      tag_317\n        /* \"#utility.yul\":9263:9267   */\n      dup2\n        /* \"#utility.yul\":9137:9268   */\n      tag_185\n      jump\t// in\n    tag_317:\n        /* \"#utility.yul\":9129:9268   */\n      swap1\n      pop\n        /* \"#utility.yul\":8856:9275   */\n      swap2\n      swap1\n      pop\n      jump\t// out\n        /* \"#utility.yul\":9281:9461   */\n    tag_186:\n        /* \"#utility.yul\":9329:9406   */\n      0x4e487b7100000000000000000000000000000000000000000000000000000000\n        /* \"#utility.yul\":9326:9327   */\n      0x00\n        /* \"#utility.yul\":9319:9407   */\n      mstore\n        /* \"#utility.yul\":9426:9430   */\n      0x22\n        /* \"#utility.yul\":9423:9424   */\n      0x04\n        /* \"#utility.yul\":9416:9431   */\n      mstore\n        /* \"#utility.yul\":9450:9454   */\n      0x24\n        /* \"#utility.yul\":9447:9448   */\n      0x00\n        /* \"#utility.yul\":9440:9455   */\n      revert\n        /* \"#utility.yul\":9467:9787   */\n    tag_47:\n        /* \"#utility.yul\":9511:9517   */\n      0x00\n        /* \"#utility.yul\":9548:9549   */\n      0x02\n        /* \"#utility.yul\":9542:9546   */\n      dup3\n        /* \"#utility.yul\":9538:9550   */\n      div\n        /* \"#utility.yul\":9528:9550   */\n      swap1\n      pop\n        /* \"#utility.yul\":9595:9596   */\n      0x01\n        /* \"#utility.yul\":9589:9593   */\n      dup3\n        /* \"#utility.yul\":9585:9597   */\n      and\n        /* \"#utility.yul\":9616:9634   */\n      dup1\n        /* \"#utility.yul\":9606:9687   */\n      tag_320\n      jumpi\n        /* \"#utility.yul\":9672:9676   */\n      0x7f\n        /* \"#utility.yul\":9664:9670   */\n      dup3\n        /* \"#utility.yul\":9660:9677   */\n      and\n        /* \"#utility.yul\":9650:9677   */\n      swap2\n      pop\n        /* \"#utility.yul\":9606:9687   */\n    tag_320:\n        /* \"#utility.yul\":9734:9736   */\n      0x20\n        /* \"#utility.yul\":9726:9732   */\n      dup3\n        /* \"#utility.yul\":9723:9737   */\n      lt\n        /* \"#utility.yul\":9703:9721   */\n      dup2\n        /* \"#utility.yul\":9700:9738   */\n      sub\n        /* \"#utility.yul\":9697:9781   */\n      tag_321\n      jumpi\n        /* \"#utility.yul\":9753:9771   */\n      tag_322\n      tag_186\n      jump\t// in\n    tag_322:\n        /* \"#utility.yul\":9697:9781   */\n    tag_321:\n        /* \"#utility.yul\":9518:9787   */\n      pop\n        /* \"#utility.yul\":9467:9787   */\n      swap2\n      swap1\n      pop\n      jump\t// out\n        /* \"#utility.yul\":9793:10020   */\n    tag_187:\n        /* \"#utility.yul\":9933:9967   */\n      0x4163636573732044656e6965643a204e6f7420616e20617574686f72697a6564\n        /* \"#utility.yul\":9929:9930   */\n      0x00\n        /* \"#utility.yul\":9921:9927   */\n      dup3\n        /* \"#utility.yul\":9917:9931   */\n      add\n        /* \"#utility.yul\":9910:9968   */\n      mstore\n        /* \"#utility.yul\":10002:10012   */\n      0x206d616e61676572000000000000000000000000000000000000000000000000\n        /* \"#utility.yul\":9997:9999   */\n      0x20\n        /* \"#utility.yul\":9989:9995   */\n      dup3\n        /* \"#utility.yul\":9985:10000   */\n      add\n        /* \"#utility.yul\":9978:10013   */\n      mstore\n        /* \"#utility.yul\":9793:10020   */\n      pop\n      jump\t// out\n        /* \"#utility.yul\":10026:10392   */\n    tag_188:\n        /* \"#utility.yul\":10168:10171   */\n      0x00\n        /* \"#utility.yul\":10189:10256   */\n      tag_325\n        /* \"#utility.yul\":10253:10255   */\n      0x28\n        /* \"#utility.yul\":10248:10251   */\n      dup4\n        /* \"#utility.yul\":10189:10256   */\n      tag_168\n      jump\t// in\n    tag_325:\n        /* \"#utility.yul\":10182:10256   */\n      swap2\n      pop\n        /* \"#utility.yul\":10265:10358   */\n      tag_326\n        /* \"#utility.yul\":10354:10357   */\n      dup3\n        /* \"#utility.yul\":10265:10358   */\n      tag_187\n      jump\t// in\n    tag_326:\n        /* \"#utility.yul\":10383:10385   */\n      0x40\n        /* \"#utility.yul\":10378:10381   */\n      dup3\n        /* \"#utility.yul\":10374:10386   */\n      add\n        /* \"#utility.yul\":10367:10386   */\n      swap1\n      pop\n        /* \"#utility.yul\":10026:10392   */\n      swap2\n      swap1\n      pop\n      jump\t// out\n        /* \"#utility.yul\":10398:10817   */\n    tag_60:\n        /* \"#utility.yul\":10564:10568   */\n      0x00\n        /* \"#utility.yul\":10602:10604   */\n      0x20\n        /* \"#utility.yul\":10591:10600   */\n      dup3\n        /* \"#utility.yul\":10587:10605   */\n      add\n        /* \"#utility.yul\":10579:10605   */\n      swap1\n      pop\n        /* \"#utility.yul\":10651:10660   */\n      dup2\n        /* \"#utility.yul\":10645:10649   */\n      dup2\n        /* \"#utility.yul\":10641:10661   */\n      sub\n        /* \"#utility.yul\":10637:10638   */\n      0x00\n        /* \"#utility.yul\":10626:10635   */\n      dup4\n        /* \"#utility.yul\":10622:10639   */\n      add\n        /* \"#utility.yul\":10615:10662   */\n      mstore\n        /* \"#utility.yul\":10679:10810   */\n      tag_328\n        /* \"#utility.yul\":10805:10809   */\n      dup2\n        /* \"#utility.yul\":10679:10810   */\n      tag_188\n      jump\t// in\n    tag_328:\n        /* \"#utility.yul\":10671:10810   */\n      swap1\n      pop\n        /* \"#utility.yul\":10398:10817   */\n      swap2\n      swap1\n      pop\n      jump\t// out\n        /* \"#utility.yul\":10823:11045   */\n    tag_189:\n        /* \"#utility.yul\":10963:10997   */\n      0x4f7065726174696f6e204572726f723a20436f6e747261637420697320706175\n        /* \"#utility.yul\":10959:10960   */\n      0x00\n        /* \"#utility.yul\":10951:10957   */\n      dup3\n        /* \"#utility.yul\":10947:10961   */\n      add\n        /* \"#utility.yul\":10940:10998   */\n      mstore\n        /* \"#utility.yul\":11032:11037   */\n      0x7365640000000000000000000000000000000000000000000000000000000000\n        /* \"#utility.yul\":11027:11029   */\n      0x20\n        /* \"#utility.yul\":11019:11025   */\n      dup3\n        /* \"#utility.yul\":11015:11030   */\n      add\n        /* \"#utility.yul\":11008:11038   */\n      mstore\n        /* \"#utility.yul\":10823:11045   */\n      pop\n      jump\t// out\n        /* \"#utility.yul\":11051:11417   */\n    tag_190:\n        /* \"#utility.yul\":11193:11196   */\n      0x00\n        /* \"#utility.yul\":11214:11281   */\n      tag_331\n        /* \"#utility.yul\":11278:11280   */\n      0x23\n        /* \"#utility.yul\":11273:11276   */\n      dup4\n        /* \"#utility.yul\":11214:11281   */\n      tag_168\n      jump\t// in\n    tag_331:\n        /* \"#utility.yul\":11207:11281   */\n      swap2\n      pop\n        /* \"#utility.yul\":11290:11383   */\n      tag_332\n        /* \"#utility.yul\":11379:11382   */\n      dup3\n        /* \"#utility.yul\":11290:11383   */\n      tag_189\n      jump\t// in\n    tag_332:\n        /* \"#utility.yul\":11408:11410   */\n      0x40\n        /* \"#utility.yul\":11403:11406   */\n      dup3\n        /* \"#utility.yul\":11399:11411   */\n      add\n        /* \"#utility.yul\":11392:11411   */\n      swap1\n      pop\n        /* \"#utility.yul\":11051:11417   */\n      swap2\n      swap1\n      pop\n      jump\t// out\n        /* \"#utility.yul\":11423:11842   */\n    tag_71:\n        /* \"#utility.yul\":11589:11593   */\n      0x00\n        /* \"#utility.yul\":11627:11629   */\n      0x20\n        /* \"#utility.yul\":11616:11625   */\n      dup3\n        /* \"#utility.yul\":11612:11630   */\n      add\n        /* \"#utility.yul\":11604:11630   */\n      swap1\n      pop\n        /* \"#utility.yul\":11676:11685   */\n      dup2\n        /* \"#utility.yul\":11670:11674   */\n      dup2\n        /* \"#utility.yul\":11666:11686   */\n      sub\n        /* \"#utility.yul\":11662:11663   */\n      0x00\n        /* \"#utility.yul\":11651:11660   */\n      dup4\n        /* \"#utility.yul\":11647:11664   */\n      add\n        /* \"#utility.yul\":11640:11687   */\n      mstore\n        /* \"#utility.yul\":11704:11835   */\n      tag_334\n        /* \"#utility.yul\":11830:11834   */\n      dup2\n        /* \"#utility.yul\":11704:11835   */\n      tag_190\n      jump\t// in\n    tag_334:\n        /* \"#utility.yul\":11696:11835   */\n      swap1\n      pop\n        /* \"#utility.yul\":11423:11842   */\n      swap2\n      swap1\n      pop\n      jump\t// out\n        /* \"#utility.yul\":11848:11945   */\n    tag_191:\n        /* \"#utility.yul\":11907:11913   */\n      0x00\n        /* \"#utility.yul\":11935:11938   */\n      dup3\n        /* \"#utility.yul\":11925:11938   */\n      swap1\n      pop\n        /* \"#utility.yul\":11848:11945   */\n      swap3\n      swap2\n      pop\n      pop\n      jump\t// out\n        /* \"#utility.yul\":11951:12131   */\n    tag_192:\n        /* \"#utility.yul\":11999:12076   */\n      0x4e487b7100000000000000000000000000000000000000000000000000000000\n        /* \"#utility.yul\":11996:11997   */\n      0x00\n        /* \"#utility.yul\":11989:12077   */\n      mstore\n        /* \"#utility.yul\":12096:12100   */\n      0x41\n        /* \"#utility.yul\":12093:12094   */\n      0x04\n        /* \"#utility.yul\":12086:12101   */\n      mstore\n        /* \"#utility.yul\":12120:12124   */\n      0x24\n        /* \"#utility.yul\":12117:12118   */\n      0x00\n        /* \"#utility.yul\":12110:12125   */\n      revert\n        /* \"#utility.yul\":12137:12278   */\n    tag_193:\n        /* \"#utility.yul\":12186:12190   */\n      0x00\n        /* \"#utility.yul\":12209:12212   */\n      dup2\n        /* \"#utility.yul\":12201:12212   */\n      swap1\n      pop\n        /* \"#utility.yul\":12232:12235   */\n      dup2\n        /* \"#utility.yul\":12229:12230   */\n      0x00\n        /* \"#utility.yul\":12222:12236   */\n      mstore\n        /* \"#utility.yul\":12266:12270   */\n      0x20\n        /* \"#utility.yul\":12263:12264   */\n      0x00\n        /* \"#utility.yul\":12253:12271   */\n      keccak256\n        /* \"#utility.yul\":12245:12271   */\n      swap1\n      pop\n        /* \"#utility.yul\":12137:12278   */\n      swap2\n      swap1\n      pop\n      jump\t// out\n        /* \"#utility.yul\":12284:12377   */\n    tag_194:\n        /* \"#utility.yul\":12321:12327   */\n      0x00\n        /* \"#utility.yul\":12368:12370   */\n      0x20\n        /* \"#utility.yul\":12363:12365   */\n      0x1f\n        /* \"#utility.yul\":12356:12361   */\n      dup4\n        /* \"#utility.yul\":12352:12366   */\n      add\n        /* \"#utility.yul\":12348:12371   */\n      div\n        /* \"#utility.yul\":12338:12371   */\n      swap1\n      pop\n        /* \"#utility.yul\":12284:12377   */\n      swap2\n      swap1\n      pop\n      jump\t// out\n        /* \"#utility.yul\":12383:12490   */\n    tag_195:\n        /* \"#utility.yul\":12427:12435   */\n      0x00\n        /* \"#utility.yul\":12477:12482   */\n      dup3\n        /* \"#utility.yul\":12471:12475   */\n      dup3\n        /* \"#utility.yul\":12467:12483   */\n      shl\n        /* \"#utility.yul\":12446:12483   */\n      swap1\n      pop\n        /* \"#utility.yul\":12383:12490   */\n      swap3\n      swap2\n      pop\n      pop\n      jump\t// out\n        /* \"#utility.yul\":12496:12889   */\n    tag_196:\n        /* \"#utility.yul\":12565:12571   */\n      0x00\n        /* \"#utility.yul\":12615:12616   */\n      0x08\n        /* \"#utility.yul\":12603:12613   */\n      dup4\n        /* \"#utility.yul\":12599:12617   */\n      mul\n        /* \"#utility.yul\":12638:12735   */\n      tag_341\n        /* \"#utility.yul\":12668:12734   */\n      0xffffffffffffffffffffffffffffffffffffffffffffffffffffffffffffffff\n        /* \"#utility.yul\":12657:12666   */\n      dup3\n        /* \"#utility.yul\":12638:12735   */\n      tag_195\n      jump\t// in\n    tag_341:\n        /* \"#utility.yul\":12756:12795   */\n      tag_342\n        /* \"#utility.yul\":12786:12794   */\n      dup7\n        /* \"#utility.yul\":12775:12784   */\n      dup4\n        /* \"#utility.yul\":12756:12795   */\n      tag_195\n      jump\t// in\n    tag_342:\n        /* \"#utility.yul\":12744:12795   */\n      swap6\n      pop\n        /* \"#utility.yul\":12828:12832   */\n      dup1\n        /* \"#utility.yul\":12824:12833   */\n      not\n        /* \"#utility.yul\":12817:12822   */\n      dup5\n        /* \"#utility.yul\":12813:12834   */\n      and\n        /* \"#utility.yul\":12804:12834   */\n      swap4\n      pop\n        /* \"#utility.yul\":12877:12881   */\n      dup1\n        /* \"#utility.yul\":12867:12875   */\n      dup7\n        /* \"#utility.yul\":12863:12882   */\n      and\n        /* \"#utility.yul\":12856:12861   */\n      dup5\n        /* \"#utility.yul\":12853:12883   */\n      or\n        /* \"#utility.yul\":12843:12883   */\n      swap3\n      pop\n        /* \"#utility.yul\":12572:12889   */\n      pop\n      pop\n        /* \"#utility.yul\":12496:12889   */\n      swap4\n      swap3\n      pop\n      pop\n      pop\n      jump\t// out\n        /* \"#utility.yul\":12895:12955   */\n    tag_197:\n        /* \"#utility.yul\":12923:12926   */\n      0x00\n        /* \"#utility.yul\":12944:12949   */\n      dup2\n        /* \"#utility.yul\":12937:12949   */\n      swap1\n      pop\n        /* \"#utility.yul\":12895:12955   */\n      swap2\n      swap1\n      pop\n      jump\t// out\n        /* \"#utility.yul\":12961:13103   */\n    tag_198:\n        /* \"#utility.yul\":13011:13020   */\n      0x00\n        /* \"#utility.yul\":13044:13097   */\n      tag_345\n        /* \"#utility.yul\":13062:13096   */\n      tag_346\n        /* \"#utility.yul\":13071:13095   */\n      tag_347\n        /* \"#utility.yul\":13089:13094   */\n      dup5\n        /* \"#utility.yul\":13071:13095   */\n      tag_160\n      jump\t// in\n    tag_347:\n        /* \"#utility.yul\":13062:13096   */\n      tag_197\n      jump\t// in\n    tag_346:\n        /* \"#utility.yul\":13044:13097   */\n      tag_160\n      jump\t// in\n    tag_345:\n        /* \"#utility.yul\":13031:13097   */\n      swap1\n      pop\n        /* \"#utility.yul\":12961:13103   */\n      swap2\n      swap1\n      pop\n      jump\t// out\n        /* \"#utility.yul\":13109:13184   */\n    tag_199:\n        /* \"#utility.yul\":13152:13155   */\n      0x00\n        /* \"#utility.yul\":13173:13178   */\n      dup2\n        /* \"#utility.yul\":13166:13178   */\n      swap1\n      pop\n        /* \"#utility.yul\":13109:13184   */\n      swap2\n      swap1\n      pop\n      jump\t// out\n        /* \"#utility.yul\":13190:13459   */\n    tag_200:\n        /* \"#utility.yul\":13300:13339   */\n      tag_350\n        /* \"#utility.yul\":13331:13338   */\n      dup4\n        /* \"#utility.yul\":13300:13339   */\n      tag_198\n      jump\t// in\n    tag_350:\n        /* \"#utility.yul\":13361:13452   */\n      tag_351\n        /* \"#utility.yul\":13410:13451   */\n      tag_352\n        /* \"#utility.yul\":13434:13450   */\n      dup3\n        /* \"#utility.yul\":13410:13451   */\n      tag_199\n      jump\t// in\n    tag_352:\n        /* \"#utility.yul\":13402:13408   */\n      dup5\n        /* \"#utility.yul\":13395:13399   */\n      dup5\n        /* \"#utility.yul\":13389:13400   */\n      sload\n        /* \"#utility.yul\":13361:13452   */\n      tag_196\n      jump\t// in\n    tag_351:\n        /* \"#utility.yul\":13355:13359   */\n      dup3\n        /* \"#utility.yul\":13348:13453   */\n      sstore\n        /* \"#utility.yul\":13266:13459   */\n      pop\n        /* \"#utility.yul\":13190:13459   */\n      pop\n      pop\n      pop\n      jump\t// out\n        /* \"#utility.yul\":13465:13538   */\n    tag_201:\n        /* \"#utility.yul\":13510:13513   */\n      0x00\n        /* \"#utility.yul\":13465:13538   */\n      swap1\n      jump\t// out\n        /* \"#utility.yul\":13544:13733   */\n    tag_202:\n        /* \"#utility.yul\":13621:13653   */\n      tag_355\n      tag_201\n      jump\t// in\n    tag_355:\n        /* \"#utility.yul\":13662:13727   */\n      tag_356\n        /* \"#utility.yul\":13720:13726   */\n      dup2\n        /* \"#utility.yul\":13712:13718   */\n      dup5\n        /* \"#utility.yul\":13706:13710   */\n      dup5\n        /* \"#utility.yul\":13662:13727   */\n      tag_200\n      jump\t// in\n    tag_356:\n        /* \"#utility.yul\":13597:13733   */\n      pop\n        /* \"#utility.yul\":13544:13733   */\n      pop\n      pop\n      jump\t// out\n        /* \"#utility.yul\":13739:13925   */\n    tag_203:\n        /* \"#utility.yul\":13799:13919   */\n    tag_358:\n        /* \"#utility.yul\":13816:13819   */\n      dup2\n        /* \"#utility.yul\":13809:13814   */\n      dup2\n        /* \"#utility.yul\":13806:13820   */\n      lt\n        /* \"#utility.yul\":13799:13919   */\n      iszero\n      tag_360\n      jumpi\n        /* \"#utility.yul\":13870:13909   */\n      tag_361\n        /* \"#utility.yul\":13907:13908   */\n      0x00\n        /* \"#utility.yul\":13900:13905   */\n      dup3\n        /* \"#utility.yul\":13870:13909   */\n      tag_202\n      jump\t// in\n    tag_361:\n        /* \"#utility.yul\":13843:13844   */\n      0x01\n        /* \"#utility.yul\":13836:13841   */\n      dup2\n        /* \"#utility.yul\":13832:13845   */\n      add\n        /* \"#utility.yul\":13823:13845   */\n      swap1\n      pop\n        /* \"#utility.yul\":13799:13919   */\n      jump(tag_358)\n    tag_360:\n        /* \"#utility.yul\":13739:13925   */\n      pop\n      pop\n      jump\t// out\n        /* \"#utility.yul\":13931:14474   */\n    tag_204:\n        /* \"#utility.yul\":14032:14034   */\n      0x1f\n        /* \"#utility.yul\":14027:14030   */\n      dup3\n        /* \"#utility.yul\":14024:14035   */\n      gt\n        /* \"#utility.yul\":14021:14467   */\n      iszero\n      tag_363\n      jumpi\n        /* \"#utility.yul\":14066:14104   */\n      tag_364\n        /* \"#utility.yul\":14098:14103   */\n      dup2\n        /* \"#utility.yul\":14066:14104   */\n      tag_193\n      jump\t// in\n    tag_364:\n        /* \"#utility.yul\":14150:14179   */\n      tag_365\n        /* \"#utility.yul\":14168:14178   */\n      dup5\n        /* \"#utility.yul\":14150:14179   */\n      tag_194\n      jump\t// in\n    tag_365:\n        /* \"#utility.yul\":14140:14148   */\n      dup2\n        /* \"#utility.yul\":14136:14180   */\n      add\n        /* \"#utility.yul\":14333:14335   */\n      0x20\n        /* \"#utility.yul\":14321:14331   */\n      dup6\n        /* \"#utility.yul\":14318:14336   */\n      lt\n        /* \"#utility.yul\":14315:14364   */\n      iszero\n      tag_366\n      jumpi\n        /* \"#utility.yul\":14354:14362   */\n      dup2\n        /* \"#utility.yul\":14339:14362   */\n      swap1\n      pop\n        /* \"#utility.yul\":14315:14364   */\n    tag_366:\n        /* \"#utility.yul\":14377:14457   */\n      tag_367\n        /* \"#utility.yul\":14433:14455   */\n      tag_368\n        /* \"#utility.yul\":14451:14454   */\n      dup6\n        /* \"#utility.yul\":14433:14455   */\n      tag_194\n      jump\t// in\n    tag_368:\n        /* \"#utility.yul\":14423:14431   */\n      dup4\n        /* \"#utility.yul\":14419:14456   */\n      add\n        /* \"#utility.yul\":14406:14417   */\n      dup3\n        /* \"#utility.yul\":14377:14457   */\n      tag_203\n      jump\t// in\n    tag_367:\n        /* \"#utility.yul\":14036:14467   */\n      pop\n      pop\n        /* \"#utility.yul\":14021:14467   */\n    tag_363:\n        /* \"#utility.yul\":13931:14474   */\n      pop\n      pop\n      pop\n      jump\t// out\n        /* \"#utility.yul\":14480:14597   */\n    tag_205:\n        /* \"#utility.yul\":14534:14542   */\n      0x00\n        /* \"#utility.yul\":14584:14589   */\n      dup3\n        /* \"#utility.yul\":14578:14582   */\n      dup3\n        /* \"#utility.yul\":14574:14590   */\n      shr\n        /* \"#utility.yul\":14553:14590   */\n      swap1\n      pop\n        /* \"#utility.yul\":14480:14597   */\n      swap3\n      swap2\n      pop\n      pop\n      jump\t// out\n        /* \"#utility.yul\":14603:14772   */\n    tag_206:\n        /* \"#utility.yul\":14647:14653   */\n      0x00\n        /* \"#utility.yul\":14680:14731   */\n      tag_371\n        /* \"#utility.yul\":14728:14729   */\n      0x00\n        /* \"#utility.yul\":14724:14730   */\n      not\n        /* \"#utility.yul\":14716:14721   */\n      dup5\n        /* \"#utility.yul\":14713:14714   */\n      0x08\n        /* \"#utility.yul\":14709:14722   */\n      mul\n        /* \"#utility.yul\":14680:14731   */\n      tag_205\n      jump\t// in\n    tag_371:\n        /* \"#utility.yul\":14676:14732   */\n      not\n        /* \"#utility.yul\":14761:14765   */\n      dup1\n        /* \"#utility.yul\":14755:14759   */\n      dup4\n        /* \"#utility.yul\":14751:14766   */\n      and\n        /* \"#utility.yul\":14741:14766   */\n      swap2\n      pop\n        /* \"#utility.yul\":14654:14772   */\n      pop\n        /* \"#utility.yul\":14603:14772   */\n      swap3\n      swap2\n      pop\n      pop\n      jump\t// out\n        /* \"#utility.yul\":14777:15072   */\n    tag_207:\n        /* \"#utility.yul\":14853:14857   */\n      0x00\n        /* \"#utility.yul\":14999:15028   */\n      tag_373\n        /* \"#utility.yul\":15024:15027   */\n      dup4\n        /* \"#utility.yul\":15018:15022   */\n      dup4\n        /* \"#utility.yul\":14999:15028   */\n      tag_206\n      jump\t// in\n    tag_373:\n        /* \"#utility.yul\":14991:15028   */\n      swap2\n      pop\n        /* \"#utility.yul\":15061:15064   */\n      dup3\n        /* \"#utility.yul\":15058:15059   */\n      0x02\n        /* \"#utility.yul\":15054:15065   */\n      mul\n        /* \"#utility.yul\":15048:15052   */\n      dup3\n        /* \"#utility.yul\":15045:15066   */\n      or\n        /* \"#utility.yul\":15037:15066   */\n      swap1\n      pop\n        /* \"#utility.yul\":14777:15072   */\n      swap3\n      swap2\n      pop\n      pop\n      jump\t// out\n        /* \"#utility.yul\":15077:16480   */\n    tag_76:\n        /* \"#utility.yul\":15201:15245   */\n      tag_375\n        /* \"#utility.yul\":15241:15244   */\n      dup4\n        /* \"#utility.yul\":15236:15239   */\n      dup4\n        /* \"#utility.yul\":15201:15245   */\n      tag_191\n      jump\t// in\n    tag_375:\n        /* \"#utility.yul\":15310:15328   */\n      0xffffffffffffffff\n        /* \"#utility.yul\":15302:15308   */\n      dup2\n        /* \"#utility.yul\":15299:15329   */\n      gt\n        /* \"#utility.yul\":15296:15352   */\n      iszero\n      tag_376\n      jumpi\n        /* \"#utility.yul\":15332:15350   */\n      tag_377\n      tag_192\n      jump\t// in\n    tag_377:\n        /* \"#utility.yul\":15296:15352   */\n    tag_376:\n        /* \"#utility.yul\":15376:15414   */\n      tag_378\n        /* \"#utility.yul\":15408:15412   */\n      dup3\n        /* \"#utility.yul\":15402:15413   */\n      sload\n        /* \"#utility.yul\":15376:15414   */\n      tag_47\n      jump\t// in\n    tag_378:\n        /* \"#utility.yul\":15461:15528   */\n      tag_379\n        /* \"#utility.yul\":15521:15527   */\n      dup3\n        /* \"#utility.yul\":15513:15519   */\n      dup3\n        /* \"#utility.yul\":15507:15511   */\n      dup6\n        /* \"#utility.yul\":15461:15528   */\n      tag_204\n      jump\t// in\n    tag_379:\n        /* \"#utility.yul\":15555:15556   */\n      0x00\n        /* \"#utility.yul\":15584:15586   */\n      0x1f\n        /* \"#utility.yul\":15576:15582   */\n      dup4\n        /* \"#utility.yul\":15573:15587   */\n      gt\n        /* \"#utility.yul\":15601:15602   */\n      0x01\n        /* \"#utility.yul\":15596:16228   */\n      dup2\n      eq\n      tag_381\n      jumpi\n        /* \"#utility.yul\":16272:16273   */\n      0x00\n        /* \"#utility.yul\":16289:16295   */\n      dup5\n        /* \"#utility.yul\":16286:16370   */\n      iszero\n      tag_382\n      jumpi\n        /* \"#utility.yul\":16345:16354   */\n      dup3\n        /* \"#utility.yul\":16340:16343   */\n      dup8\n        /* \"#utility.yul\":16336:16355   */\n      add\n        /* \"#utility.yul\":16323:16356   */\n      calldataload\n        /* \"#utility.yul\":16314:16356   */\n      swap1\n      pop\n        /* \"#utility.yul\":16286:16370   */\n    tag_382:\n        /* \"#utility.yul\":16396:16463   */\n      tag_383\n        /* \"#utility.yul\":16456:16462   */\n      dup6\n        /* \"#utility.yul\":16449:16454   */\n      dup3\n        /* \"#utility.yul\":16396:16463   */\n      tag_207\n      jump\t// in\n    tag_383:\n        /* \"#utility.yul\":16390:16394   */\n      dup7\n        /* \"#utility.yul\":16383:16464   */\n      sstore\n        /* \"#utility.yul\":16245:16474   */\n      pop\n        /* \"#utility.yul\":15566:16474   */\n      jump(tag_380)\n        /* \"#utility.yul\":15596:16228   */\n    tag_381:\n        /* \"#utility.yul\":15648:15652   */\n      0x1f\n        /* \"#utility.yul\":15644:15653   */\n      not\n        /* \"#utility.yul\":15636:15642   */\n      dup5\n        /* \"#utility.yul\":15632:15654   */\n      and\n        /* \"#utility.yul\":15682:15719   */\n      tag_384\n        /* \"#utility.yul\":15714:15718   */\n      dup7\n        /* \"#utility.yul\":15682:15719   */\n      tag_193\n      jump\t// in\n    tag_384:\n        /* \"#utility.yul\":15741:15742   */\n      0x00\n        /* \"#utility.yul\":15755:15970   */\n    tag_385:\n        /* \"#utility.yul\":15769:15776   */\n      dup3\n        /* \"#utility.yul\":15766:15767   */\n      dup2\n        /* \"#utility.yul\":15763:15777   */\n      lt\n        /* \"#utility.yul\":15755:15970   */\n      iszero\n      tag_387\n      jumpi\n        /* \"#utility.yul\":15855:15864   */\n      dup5\n        /* \"#utility.yul\":15850:15853   */\n      dup10\n        /* \"#utility.yul\":15846:15865   */\n      add\n        /* \"#utility.yul\":15833:15866   */\n      calldataload\n        /* \"#utility.yul\":15825:15831   */\n      dup3\n        /* \"#utility.yul\":15818:15867   */\n      sstore\n        /* \"#utility.yul\":15906:15907   */\n      0x01\n        /* \"#utility.yul\":15898:15904   */\n      dup3\n        /* \"#utility.yul\":15894:15908   */\n      add\n        /* \"#utility.yul\":15884:15908   */\n      swap2\n      pop\n        /* \"#utility.yul\":15953:15955   */\n      0x20\n        /* \"#utility.yul\":15942:15951   */\n      dup6\n        /* \"#utility.yul\":15938:15956   */\n      add\n        /* \"#utility.yul\":15925:15956   */\n      swap5\n      pop\n        /* \"#utility.yul\":15792:15796   */\n      0x20\n        /* \"#utility.yul\":15789:15790   */\n      dup2\n        /* \"#utility.yul\":15785:15797   */\n      add\n        /* \"#utility.yul\":15780:15797   */\n      swap1\n      pop\n        /* \"#utility.yul\":15755:15970   */\n      jump(tag_385)\n    tag_387:\n        /* \"#utility.yul\":15998:16004   */\n      dup7\n        /* \"#utility.yul\":15989:15996   */\n      dup4\n        /* \"#utility.yul\":15986:16005   */\n      lt\n        /* \"#utility.yul\":15983:16169   */\n      iszero\n      tag_388\n      jumpi\n        /* \"#utility.yul\":16063:16072   */\n      dup5\n        /* \"#utility.yul\":16058:16061   */\n      dup10\n        /* \"#utility.yul\":16054:16073   */\n      add\n        /* \"#utility.yul\":16041:16074   */\n      calldataload\n        /* \"#utility.yul\":16106:16154   */\n      tag_389\n        /* \"#utility.yul\":16148:16152   */\n      0x1f\n        /* \"#utility.yul\":16140:16146   */\n      dup10\n        /* \"#utility.yul\":16136:16153   */\n      and\n        /* \"#utility.yul\":16125:16134   */\n      dup3\n        /* \"#utility.yul\":16106:16154   */\n      tag_206\n      jump\t// in\n    tag_389:\n        /* \"#utility.yul\":16098:16104   */\n      dup4\n        /* \"#utility.yul\":16091:16155   */\n      sstore\n        /* \"#utility.yul\":16006:16169   */\n      pop\n        /* \"#utility.yul\":15983:16169   */\n    tag_388:\n        /* \"#utility.yul\":16215:16216   */\n      0x01\n        /* \"#utility.yul\":16211:16212   */\n      0x02\n        /* \"#utility.yul\":16203:16209   */\n      dup9\n        /* \"#utility.yul\":16199:16213   */\n      mul\n        /* \"#utility.yul\":16195:16217   */\n      add\n        /* \"#utility.yul\":16189:16193   */\n      dup9\n        /* \"#utility.yul\":16182:16218   */\n      sstore\n        /* \"#utility.yul\":15603:16228   */\n      pop\n      pop\n      pop\n        /* \"#utility.yul\":15566:16474   */\n    tag_380:\n      pop\n        /* \"#utility.yul\":15176:16480   */\n      pop\n      pop\n      pop\n        /* \"#utility.yul\":15077:16480   */\n      pop\n      pop\n      pop\n      jump\t// out\n        /* \"#utility.yul\":16486:16634   */\n    tag_208:\n        /* \"#utility.yul\":16584:16590   */\n      dup3\n        /* \"#utility.yul\":16579:16582   */\n      dup2\n        /* \"#utility.yul\":16574:16577   */\n      dup4\n        /* \"#utility.yul\":16561:16591   */\n      calldatacopy\n        /* \"#utility.yul\":16625:16626   */\n      0x00\n        /* \"#utility.yul\":16616:16622   */\n      dup4\n        /* \"#utility.yul\":16611:16614   */\n      dup4\n        /* \"#utility.yul\":16607:16623   */\n      add\n        /* \"#utility.yul\":16600:16627   */\n      mstore\n        /* \"#utility.yul\":16486:16634   */\n      pop\n      pop\n      pop\n      jump\t// out\n        /* \"#utility.yul\":16664:16981   */\n    tag_209:\n        /* \"#utility.yul\":16762:16765   */\n      0x00\n        /* \"#utility.yul\":16783:16854   */\n      tag_392\n        /* \"#utility.yul\":16847:16853   */\n      dup4\n        /* \"#utility.yul\":16842:16845   */\n      dup6\n        /* \"#utility.yul\":16783:16854   */\n      tag_168\n      jump\t// in\n    tag_392:\n        /* \"#utility.yul\":16776:16854   */\n      swap4\n      pop\n        /* \"#utility.yul\":16864:16920   */\n      tag_393\n        /* \"#utility.yul\":16913:16919   */\n      dup4\n        /* \"#utility.yul\":16908:16911   */\n      dup6\n        /* \"#utility.yul\":16901:16906   */\n      dup5\n        /* \"#utility.yul\":16864:16920   */\n      tag_208\n      jump\t// in\n    tag_393:\n        /* \"#utility.yul\":16945:16974   */\n      tag_394\n        /* \"#utility.yul\":16967:16973   */\n      dup4\n        /* \"#utility.yul\":16945:16974   */\n      tag_170\n      jump\t// in\n    tag_394:\n        /* \"#utility.yul\":16940:16943   */\n      dup5\n        /* \"#utility.yul\":16936:16975   */\n      add\n        /* \"#utility.yul\":16929:16975   */\n      swap1\n      pop\n        /* \"#utility.yul\":16664:16981   */\n      swap4\n      swap3\n      pop\n      pop\n      pop\n      jump\t// out\n        /* \"#utility.yul\":16987:17458   */\n    tag_78:\n        /* \"#utility.yul\":17152:17156   */\n      0x00\n        /* \"#utility.yul\":17190:17192   */\n      0x40\n        /* \"#utility.yul\":17179:17188   */\n      dup3\n        /* \"#utility.yul\":17175:17193   */\n      add\n        /* \"#utility.yul\":17167:17193   */\n      swap1\n      pop\n        /* \"#utility.yul\":17203:17288   */\n      tag_396\n        /* \"#utility.yul\":17285:17286   */\n      0x00\n        /* \"#utility.yul\":17274:17283   */\n      dup4\n        /* \"#utility.yul\":17270:17287   */\n      add\n        /* \"#utility.yul\":17261:17267   */\n      dup7\n        /* \"#utility.yul\":17203:17288   */\n      tag_175\n      jump\t// in\n    tag_396:\n        /* \"#utility.yul\":17335:17344   */\n      dup2\n        /* \"#utility.yul\":17329:17333   */\n      dup2\n        /* \"#utility.yul\":17325:17345   */\n      sub\n        /* \"#utility.yul\":17320:17322   */\n      0x20\n        /* \"#utility.yul\":17309:17318   */\n      dup4\n        /* \"#utility.yul\":17305:17323   */\n      add\n        /* \"#utility.yul\":17298:17346   */\n      mstore\n        /* \"#utility.yul\":17363:17451   */\n      tag_397\n        /* \"#utility.yul\":17446:17450   */\n      dup2\n        /* \"#utility.yul\":17437:17443   */\n      dup5\n        /* \"#utility.yul\":17429:17435   */\n      dup7\n        /* \"#utility.yul\":17363:17451   */\n      tag_209\n      jump\t// in\n    tag_397:\n        /* \"#utility.yul\":17355:17451   */\n      swap1\n      pop\n        /* \"#utility.yul\":16987:17458   */\n      swap5\n      swap4\n      pop\n      pop\n      pop\n      pop\n      jump\t// out\n        /* \"#utility.yul\":17464:17694   */\n    tag_210:\n        /* \"#utility.yul\":17604:17638   */\n      0x50656e616c7479204572726f723a20536869706d656e74206e6f742064656c61\n        /* \"#utility.yul\":17600:17601   */\n      0x00\n        /* \"#utility.yul\":17592:17598   */\n      dup3\n        /* \"#utility.yul\":17588:17602   */\n      add\n        /* \"#utility.yul\":17581:17639   */\n      mstore\n        /* \"#utility.yul\":17673:17686   */\n      0x796564206f72206c6f7374000000000000000000000000000000000000000000\n        /* \"#utility.yul\":17668:17670   */\n      0x20\n        /* \"#utility.yul\":17660:17666   */\n      dup3\n        /* \"#utility.yul\":17656:17671   */\n      add\n        /* \"#utility.yul\":17649:17687   */\n      mstore\n        /* \"#utility.yul\":17464:17694   */\n      pop\n      jump\t// out\n        /* \"#utility.yul\":17700:18066   */\n    tag_211:\n        /* \"#utility.yul\":17842:17845   */\n      0x00\n        /* \"#utility.yul\":17863:17930   */\n      tag_400\n        /* \"#utility.yul\":17927:17929   */\n      0x2b\n        /* \"#utility.yul\":17922:17925   */\n      dup4\n        /* \"#utility.yul\":17863:17930   */\n      tag_168\n      jump\t// in\n    tag_400:\n        /* \"#utility.yul\":17856:17930   */\n      swap2\n      pop\n        /* \"#utility.yul\":17939:18032   */\n      tag_401\n        /* \"#utility.yul\":18028:18031   */\n      dup3\n        /* \"#utility.yul\":17939:18032   */\n      tag_210\n      jump\t// in\n    tag_401:\n        /* \"#utility.yul\":18057:18059   */\n      0x40\n        /* \"#utility.yul\":18052:18055   */\n      dup3\n        /* \"#utility.yul\":18048:18060   */\n      add\n        /* \"#utility.yul\":18041:18060   */\n      swap1\n      pop\n        /* \"#utility.yul\":17700:18066   */\n      swap2\n      swap1\n      pop\n      jump\t// out\n        /* \"#utility.yul\":18072:18491   */\n    tag_109:\n        /* \"#utility.yul\":18238:18242   */\n      0x00\n        /* \"#utility.yul\":18276:18278   */\n      0x20\n        /* \"#utility.yul\":18265:18274   */\n      dup3\n        /* \"#utility.yul\":18261:18279   */\n      add\n        /* \"#utility.yul\":18253:18279   */\n      swap1\n      pop\n        /* \"#utility.yul\":18325:18334   */\n      dup2\n        /* \"#utility.yul\":18319:18323   */\n      dup2\n        /* \"#utility.yul\":18315:18335   */\n      sub\n        /* \"#utility.yul\":18311:18312   */\n      0x00\n        /* \"#utility.yul\":18300:18309   */\n      dup4\n        /* \"#utility.yul\":18296:18313   */\n      add\n        /* \"#utility.yul\":18289:18336   */\n      mstore\n        /* \"#utility.yul\":18353:18484   */\n      tag_403\n        /* \"#utility.yul\":18479:18483   */\n      dup2\n        /* \"#utility.yul\":18353:18484   */\n      tag_211\n      jump\t// in\n    tag_403:\n        /* \"#utility.yul\":18345:18484   */\n      swap1\n      pop\n        /* \"#utility.yul\":18072:18491   */\n      swap2\n      swap1\n      pop\n      jump\t// out\n        /* \"#utility.yul\":18497:18830   */\n    tag_111:\n        /* \"#utility.yul\":18620:18624   */\n      0x00\n        /* \"#utility.yul\":18658:18660   */\n      0x20\n        /* \"#utility.yul\":18647:18656   */\n      dup3\n        /* \"#utility.yul\":18643:18661   */\n      add\n        /* \"#utility.yul\":18635:18661   */\n      swap1\n      pop\n        /* \"#utility.yul\":18707:18716   */\n      dup2\n        /* \"#utility.yul\":18701:18705   */\n      dup2\n        /* \"#utility.yul\":18697:18717   */\n      sub\n        /* \"#utility.yul\":18693:18694   */\n      0x00\n        /* \"#utility.yul\":18682:18691   */\n      dup4\n        /* \"#utility.yul\":18678:18695   */\n      add\n        /* \"#utility.yul\":18671:18718   */\n      mstore\n        /* \"#utility.yul\":18735:18823   */\n      tag_405\n        /* \"#utility.yul\":18818:18822   */\n      dup2\n        /* \"#utility.yul\":18809:18815   */\n      dup5\n        /* \"#utility.yul\":18801:18807   */\n      dup7\n        /* \"#utility.yul\":18735:18823   */\n      tag_209\n      jump\t// in\n    tag_405:\n        /* \"#utility.yul\":18727:18823   */\n      swap1\n      pop\n        /* \"#utility.yul\":18497:18830   */\n      swap4\n      swap3\n      pop\n      pop\n      pop\n      jump\t// out\n        /* \"#utility.yul\":18836:19062   */\n    tag_212:\n        /* \"#utility.yul\":18976:19010   */\n      0x4372656174696f6e204572726f723a20536869706d656e7420616c7265616479\n        /* \"#utility.yul\":18972:18973   */\n      0x00\n        /* \"#utility.yul\":18964:18970   */\n      dup3\n        /* \"#utility.yul\":18960:18974   */\n      add\n        /* \"#utility.yul\":18953:19011   */\n      mstore\n        /* \"#utility.yul\":19045:19054   */\n      0x2065786973747300000000000000000000000000000000000000000000000000\n        /* \"#utility.yul\":19040:19042   */\n      0x20\n        /* \"#utility.yul\":19032:19038   */\n      dup3\n        /* \"#utility.yul\":19028:19043   */\n      add\n        /* \"#utility.yul\":19021:19055   */\n      mstore\n        /* \"#utility.yul\":18836:19062   */\n      pop\n      jump\t// out\n        /* \"#utility.yul\":19068:19434   */\n    tag_213:\n        /* \"#utility.yul\":19210:19213   */\n      0x00\n        /* \"#utility.yul\":19231:19298   */\n      tag_408\n        /* \"#utility.yul\":19295:19297   */\n      0x27\n        /* \"#utility.yul\":19290:19293   */\n      dup4\n        /* \"#utility.yul\":19231:19298   */\n      tag_168\n      jump\t// in\n    tag_408:\n        /* \"#utility.yul\":19224:19298   */\n      swap2\n      pop\n        /* \"#utility.yul\":19307:19400   */\n      tag_409\n        /* \"#utility.yul\":19396:19399   */\n      dup3\n        /* \"#utility.yul\":19307:19400   */\n      tag_212\n      jump\t// in\n    tag_409:\n        /* \"#utility.yul\":19425:19427   */\n      0x40\n        /* \"#utility.yul\":19420:19423   */\n      dup3\n        /* \"#utility.yul\":19416:19428   */\n      add\n        /* \"#utility.yul\":19409:19428   */\n      swap1\n      pop\n        /* \"#utility.yul\":19068:19434   */\n      swap2\n      swap1\n      pop\n      jump\t// out\n        /* \"#utility.yul\":19440:19859   */\n    tag_121:\n        /* \"#utility.yul\":19606:19610   */\n      0x00\n        /* \"#utility.yul\":19644:19646   */\n      0x20\n        /* \"#utility.yul\":19633:19642   */\n      dup3\n        /* \"#utility.yul\":19629:19647   */\n      add\n        /* \"#utility.yul\":19621:19647   */\n      swap1\n      pop\n        /* \"#utility.yul\":19693:19702   */\n      dup2\n        /* \"#utility.yul\":19687:19691   */\n      dup2\n        /* \"#utility.yul\":19683:19703   */\n      sub\n        /* \"#utility.yul\":19679:19680   */\n      0x00\n        /* \"#utility.yul\":19668:19677   */\n      dup4\n        /* \"#utility.yul\":19664:19681   */\n      add\n        /* \"#utility.yul\":19657:19704   */\n      mstore\n        /* \"#utility.yul\":19721:19852   */\n      tag_411\n        /* \"#utility.yul\":19847:19851   */\n      dup2\n        /* \"#utility.yul\":19721:19852   */\n      tag_213\n      jump\t// in\n    tag_411:\n        /* \"#utility.yul\":19713:19852   */\n      swap1\n      pop\n        /* \"#utility.yul\":19440:19859   */\n      swap2\n      swap1\n      pop\n      jump\t// out\n        /* \"#utility.yul\":19865:20095   */\n    tag_214:\n        /* \"#utility.yul\":20005:20039   */\n      0x4372656174696f6e204572726f723a20496e76616c6964207472616e73706f72\n        /* \"#utility.yul\":20001:20002   */\n      0x00\n        /* \"#utility.yul\":19993:19999   */\n      dup3\n        /* \"#utility.yul\":19989:20003   */\n      add\n        /* \"#utility.yul\":19982:20040   */\n      mstore\n        /* \"#utility.yul\":20074:20087   */\n      0x7465722061646472657373000000000000000000000000000000000000000000\n        /* \"#utility.yul\":20069:20071   */\n      0x20\n        /* \"#utility.yul\":20061:20067   */\n      dup3\n        /* \"#utility.yul\":20057:20072   */\n      add\n        /* \"#utility.yul\":20050:20088   */\n      mstore\n        /* \"#utility.yul\":19865:20095   */\n      pop\n      jump\t// out\n        /* \"#utility.yul\":20101:20467   */\n    tag_215:\n        /* \"#utility.yul\":20243:20246   */\n      0x00\n        /* \"#utility.yul\":20264:20331   */\n      tag_414\n        /* \"#utility.yul\":20328:20330   */\n      0x2b\n        /* \"#utility.yul\":20323:20326   */\n      dup4\n        /* \"#utility.yul\":20264:20331   */\n      tag_168\n      jump\t// in\n    tag_414:\n        /* \"#utility.yul\":20257:20331   */\n      swap2\n      pop\n        /* \"#utility.yul\":20340:20433   */\n      tag_415\n        /* \"#utility.yul\":20429:20432   */\n      dup3\n        /* \"#utility.yul\":20340:20433   */\n      tag_214\n      jump\t// in\n    tag_415:\n        /* \"#utility.yul\":20458:20460   */\n      0x40\n        /* \"#utility.yul\":20453:20456   */\n      dup3\n        /* \"#utility.yul\":20449:20461   */\n      add\n        /* \"#utility.yul\":20442:20461   */\n      swap1\n      pop\n        /* \"#utility.yul\":20101:20467   */\n      swap2\n      swap1\n      pop\n      jump\t// out\n        /* \"#utility.yul\":20473:20892   */\n    tag_124:\n        /* \"#utility.yul\":20639:20643   */\n      0x00\n        /* \"#utility.yul\":20677:20679   */\n      0x20\n        /* \"#utility.yul\":20666:20675   */\n      dup3\n        /* \"#utility.yul\":20662:20680   */\n      add\n        /* \"#utility.yul\":20654:20680   */\n      swap1\n      pop\n        /* \"#utility.yul\":20726:20735   */\n      dup2\n        /* \"#utility.yul\":20720:20724   */\n      dup2\n        /* \"#utility.yul\":20716:20736   */\n      sub\n        /* \"#utility.yul\":20712:20713   */\n      0x00\n        /* \"#utility.yul\":20701:20710   */\n      dup4\n        /* \"#utility.yul\":20697:20714   */\n      add\n        /* \"#utility.yul\":20690:20737   */\n      mstore\n        /* \"#utility.yul\":20754:20885   */\n      tag_417\n        /* \"#utility.yul\":20880:20884   */\n      dup2\n        /* \"#utility.yul\":20754:20885   */\n      tag_215\n      jump\t// in\n    tag_417:\n        /* \"#utility.yul\":20746:20885   */\n      swap1\n      pop\n        /* \"#utility.yul\":20473:20892   */\n      swap2\n      swap1\n      pop\n      jump\t// out\n        /* \"#utility.yul\":20898:22293   */\n    tag_128:\n        /* \"#utility.yul\":21015:21052   */\n      tag_419\n        /* \"#utility.yul\":21048:21051   */\n      dup3\n        /* \"#utility.yul\":21015:21052   */\n      tag_167\n      jump\t// in\n    tag_419:\n        /* \"#utility.yul\":21117:21135   */\n      0xffffffffffffffff\n        /* \"#utility.yul\":21109:21115   */\n      dup2\n        /* \"#utility.yul\":21106:21136   */\n      gt\n        /* \"#utility.yul\":21103:21159   */\n      iszero\n      tag_420\n      jumpi\n        /* \"#utility.yul\":21139:21157   */\n      tag_421\n      tag_192\n      jump\t// in\n    tag_421:\n        /* \"#utility.yul\":21103:21159   */\n    tag_420:\n        /* \"#utility.yul\":21183:21221   */\n      tag_422\n        /* \"#utility.yul\":21215:21219   */\n      dup3\n        /* \"#utility.yul\":21209:21220   */\n      sload\n        /* \"#utility.yul\":21183:21221   */\n      tag_47\n      jump\t// in\n    tag_422:\n        /* \"#utility.yul\":21268:21335   */\n      tag_423\n        /* \"#utility.yul\":21328:21334   */\n      dup3\n        /* \"#utility.yul\":21320:21326   */\n      dup3\n        /* \"#utility.yul\":21314:21318   */\n      dup6\n        /* \"#utility.yul\":21268:21335   */\n      tag_204\n      jump\t// in\n    tag_423:\n        /* \"#utility.yul\":21362:21363   */\n      0x00\n        /* \"#utility.yul\":21386:21390   */\n      0x20\n        /* \"#utility.yul\":21373:21390   */\n      swap1\n      pop\n        /* \"#utility.yul\":21418:21420   */\n      0x1f\n        /* \"#utility.yul\":21410:21416   */\n      dup4\n        /* \"#utility.yul\":21407:21421   */\n      gt\n        /* \"#utility.yul\":21435:21436   */\n      0x01\n        /* \"#utility.yul\":21430:22048   */\n      dup2\n      eq\n      tag_425\n      jumpi\n        /* \"#utility.yul\":22092:22093   */\n      0x00\n        /* \"#utility.yul\":22109:22115   */\n      dup5\n        /* \"#utility.yul\":22106:22183   */\n      iszero\n      tag_426\n      jumpi\n        /* \"#utility.yul\":22158:22167   */\n      dup3\n        /* \"#utility.yul\":22153:22156   */\n      dup8\n        /* \"#utility.yul\":22149:22168   */\n      add\n        /* \"#utility.yul\":22143:22169   */\n      mload\n        /* \"#utility.yul\":22134:22169   */\n      swap1\n      pop\n        /* \"#utility.yul\":22106:22183   */\n    tag_426:\n        /* \"#utility.yul\":22209:22276   */\n      tag_427\n        /* \"#utility.yul\":22269:22275   */\n      dup6\n        /* \"#utility.yul\":22262:22267   */\n      dup3\n        /* \"#utility.yul\":22209:22276   */\n      tag_207\n      jump\t// in\n    tag_427:\n        /* \"#utility.yul\":22203:22207   */\n      dup7\n        /* \"#utility.yul\":22196:22277   */\n      sstore\n        /* \"#utility.yul\":22065:22287   */\n      pop\n        /* \"#utility.yul\":21400:22287   */\n      jump(tag_424)\n        /* \"#utility.yul\":21430:22048   */\n    tag_425:\n        /* \"#utility.yul\":21482:21486   */\n      0x1f\n        /* \"#utility.yul\":21478:21487   */\n      not\n        /* \"#utility.yul\":21470:21476   */\n      dup5\n        /* \"#utility.yul\":21466:21488   */\n      and\n        /* \"#utility.yul\":21516:21553   */\n      tag_428\n        /* \"#utility.yul\":21548:21552   */\n      dup7\n        /* \"#utility.yul\":21516:21553   */\n      tag_193\n      jump\t// in\n    tag_428:\n        /* \"#utility.yul\":21575:21576   */\n      0x00\n        /* \"#utility.yul\":21589:21797   */\n    tag_429:\n        /* \"#utility.yul\":21603:21610   */\n      dup3\n        /* \"#utility.yul\":21600:21601   */\n      dup2\n        /* \"#utility.yul\":21597:21611   */\n      lt\n        /* \"#utility.yul\":21589:21797   */\n      iszero\n      tag_431\n      jumpi\n        /* \"#utility.yul\":21682:21691   */\n      dup5\n        /* \"#utility.yul\":21677:21680   */\n      dup10\n        /* \"#utility.yul\":21673:21692   */\n      add\n        /* \"#utility.yul\":21667:21693   */\n      mload\n        /* \"#utility.yul\":21659:21665   */\n      dup3\n        /* \"#utility.yul\":21652:21694   */\n      sstore\n        /* \"#utility.yul\":21733:21734   */\n      0x01\n        /* \"#utility.yul\":21725:21731   */\n      dup3\n        /* \"#utility.yul\":21721:21735   */\n      add\n        /* \"#utility.yul\":21711:21735   */\n      swap2\n      pop\n        /* \"#utility.yul\":21780:21782   */\n      0x20\n        /* \"#utility.yul\":21769:21778   */\n      dup6\n        /* \"#utility.yul\":21765:21783   */\n      add\n        /* \"#utility.yul\":21752:21783   */\n      swap5\n      pop\n        /* \"#utility.yul\":21626:21630   */\n      0x20\n        /* \"#utility.yul\":21623:21624   */\n      dup2\n        /* \"#utility.yul\":21619:21631   */\n      add\n        /* \"#utility.yul\":21614:21631   */\n      swap1\n      pop\n        /* \"#utility.yul\":21589:21797   */\n      jump(tag_429)\n    tag_431:\n        /* \"#utility.yul\":21825:21831   */\n      dup7\n        /* \"#utility.yul\":21816:21823   */\n      dup4\n        /* \"#utility.yul\":21813:21832   */\n      lt\n        /* \"#utility.yul\":21810:21989   */\n      iszero\n      tag_432\n      jumpi\n        /* \"#utility.yul\":21883:21892   */\n      dup5\n        /* \"#utility.yul\":21878:21881   */\n      dup10\n        /* \"#utility.yul\":21874:21893   */\n      add\n        /* \"#utility.yul\":21868:21894   */\n      mload\n        /* \"#utility.yul\":21926:21974   */\n      tag_433\n        /* \"#utility.yul\":21968:21972   */\n      0x1f\n        /* \"#utility.yul\":21960:21966   */\n      dup10\n        /* \"#utility.yul\":21956:21973   */\n      and\n        /* \"#utility.yul\":21945:21954   */\n      dup3\n        /* \"#utility.yul\":21926:21974   */\n      tag_206\n      jump\t// in\n    tag_433:\n        /* \"#utility.yul\":21918:21924   */\n      dup4\n        /* \"#utility.yul\":21911:21975   */\n      sstore\n        /* \"#utility.yul\":21833:21989   */\n      pop\n        /* \"#utility.yul\":21810:21989   */\n    tag_432:\n        /* \"#utility.yul\":22035:22036   */\n      0x01\n        /* \"#utility.yul\":22031:22032   */\n      0x02\n        /* \"#utility.yul\":22023:22029   */\n      dup9\n        /* \"#utility.yul\":22019:22033   */\n      mul\n        /* \"#utility.yul\":22015:22037   */\n      add\n        /* \"#utility.yul\":22009:22013   */\n      dup9\n        /* \"#utility.yul\":22002:22038   */\n      sstore\n        /* \"#utility.yul\":21437:22048   */\n      pop\n      pop\n      pop\n        /* \"#utility.yul\":21400:22287   */\n    tag_424:\n      pop\n        /* \"#utility.yul\":20990:22293   */\n      pop\n      pop\n      pop\n        /* \"#utility.yul\":20898:22293   */\n      pop\n      pop\n      jump\t// out\n        /* \"#utility.yul\":22299:22631   */\n    tag_132:\n        /* \"#utility.yul\":22420:22424   */\n      0x00\n        /* \"#utility.yul\":22458:22460   */\n      0x40\n        /* \"#utility.yul\":22447:22456   */\n      dup3\n        /* \"#utility.yul\":22443:22461   */\n      add\n        /* \"#utility.yul\":22435:22461   */\n      swap1\n      pop\n        /* \"#utility.yul\":22471:22542   */\n      tag_435\n        /* \"#utility.yul\":22539:22540   */\n      0x00\n        /* \"#utility.yul\":22528:22537   */\n      dup4\n        /* \"#utility.yul\":22524:22541   */\n      add\n        /* \"#utility.yul\":22515:22521   */\n      dup6\n        /* \"#utility.yul\":22471:22542   */\n      tag_163\n      jump\t// in\n    tag_435:\n        /* \"#utility.yul\":22552:22624   */\n      tag_436\n        /* \"#utility.yul\":22620:22622   */\n      0x20\n        /* \"#utility.yul\":22609:22618   */\n      dup4\n        /* \"#utility.yul\":22605:22623   */\n      add\n        /* \"#utility.yul\":22596:22602   */\n      dup5\n        /* \"#utility.yul\":22552:22624   */\n      tag_163\n      jump\t// in\n    tag_436:\n        /* \"#utility.yul\":22299:22631   */\n      swap4\n      swap3\n      pop\n      pop\n      pop\n      jump\t// out\n        /* \"#utility.yul\":22637:22819   */\n    tag_216:\n        /* \"#utility.yul\":22777:22811   */\n      0x52656d6f76616c204572726f723a204d616e61676572206e6f7420666f756e64\n        /* \"#utility.yul\":22773:22774   */\n      0x00\n        /* \"#utility.yul\":22765:22771   */\n      dup3\n        /* \"#utility.yul\":22761:22775   */\n      add\n        /* \"#utility.yul\":22754:22812   */\n      mstore\n        /* \"#utility.yul\":22637:22819   */\n      pop\n      jump\t// out\n        /* \"#utility.yul\":22825:23191   */\n    tag_217:\n        /* \"#utility.yul\":22967:22970   */\n      0x00\n        /* \"#utility.yul\":22988:23055   */\n      tag_439\n        /* \"#utility.yul\":23052:23054   */\n      0x20\n        /* \"#utility.yul\":23047:23050   */\n      dup4\n        /* \"#utility.yul\":22988:23055   */\n      tag_168\n      jump\t// in\n    tag_439:\n        /* \"#utility.yul\":22981:23055   */\n      swap2\n      pop\n        /* \"#utility.yul\":23064:23157   */\n      tag_440\n        /* \"#utility.yul\":23153:23156   */\n      dup3\n        /* \"#utility.yul\":23064:23157   */\n      tag_216\n      jump\t// in\n    tag_440:\n        /* \"#utility.yul\":23182:23184   */\n      0x20\n        /* \"#utility.yul\":23177:23180   */\n      dup3\n        /* \"#utility.yul\":23173:23185   */\n      add\n        /* \"#utility.yul\":23166:23185   */\n      swap1\n      pop\n        /* \"#utility.yul\":22825:23191   */\n      swap2\n      swap1\n      pop\n      jump\t// out\n        /* \"#utility.yul\":23197:23616   */\n    tag_142:\n        /* \"#utility.yul\":23363:23367   */\n      0x00\n        /* \"#utility.yul\":23401:23403   */\n      0x20\n        /* \"#utility.yul\":23390:23399   */\n      dup3\n        /* \"#utility.yul\":23386:23404   */\n      add\n        /* \"#utility.yul\":23378:23404   */\n      swap1\n      pop\n        /* \"#utility.yul\":23450:23459   */\n      dup2\n        /* \"#utility.yul\":23444:23448   */\n      dup2\n        /* \"#utility.yul\":23440:23460   */\n      sub\n        /* \"#utility.yul\":23436:23437   */\n      0x00\n        /* \"#utility.yul\":23425:23434   */\n      dup4\n        /* \"#utility.yul\":23421:23438   */\n      add\n        /* \"#utility.yul\":23414:23461   */\n      mstore\n        /* \"#utility.yul\":23478:23609   */\n      tag_442\n        /* \"#utility.yul\":23604:23608   */\n      dup2\n        /* \"#utility.yul\":23478:23609   */\n      tag_217\n      jump\t// in\n    tag_442:\n        /* \"#utility.yul\":23470:23609   */\n      swap1\n      pop\n        /* \"#utility.yul\":23197:23616   */\n      swap2\n      swap1\n      pop\n      jump\t// out\n        /* \"#utility.yul\":23622:23849   */\n    tag_218:\n        /* \"#utility.yul\":23762:23796   */\n      0x417070726f76616c204572726f723a204d616e6167657220616c726561647920\n        /* \"#utility.yul\":23758:23759   */\n      0x00\n        /* \"#utility.yul\":23750:23756   */\n      dup3\n        /* \"#utility.yul\":23746:23760   */\n      add\n        /* \"#utility.yul\":23739:23797   */\n      mstore\n        /* \"#utility.yul\":23831:23841   */\n      0x617070726f766564000000000000000000000000000000000000000000000000\n        /* \"#utility.yul\":23826:23828   */\n      0x20\n        /* \"#utility.yul\":23818:23824   */\n      dup3\n        /* \"#utility.yul\":23814:23829   */\n      add\n        /* \"#utility.yul\":23807:23842   */\n      mstore\n        /* \"#utility.yul\":23622:23849   */\n      pop\n      jump\t// out\n        /* \"#utility.yul\":23855:24221   */\n    tag_219:\n        /* \"#utility.yul\":23997:24000   */\n      0x00\n        /* \"#utility.yul\":24018:24085   */\n      tag_445\n        /* \"#utility.yul\":24082:24084   */\n      0x28\n        /* \"#utility.yul\":24077:24080   */\n      dup4\n        /* \"#utility.yul\":24018:24085   */\n      tag_168\n      jump\t// in\n    tag_445:\n        /* \"#utility.yul\":24011:24085   */\n      swap2\n      pop\n        /* \"#utility.yul\":24094:24187   */\n      tag_446\n        /* \"#utility.yul\":24183:24186   */\n      dup3\n        /* \"#utility.yul\":24094:24187   */\n      tag_218\n      jump\t// in\n    tag_446:\n        /* \"#utility.yul\":24212:24214   */\n      0x40\n        /* \"#utility.yul\":24207:24210   */\n      dup3\n        /* \"#utility.yul\":24203:24215   */\n      add\n        /* \"#utility.yul\":24196:24215   */\n      swap1\n      pop\n        /* \"#utility.yul\":23855:24221   */\n      swap2\n      swap1\n      pop\n      jump\t// out\n        /* \"#utility.yul\":24227:24646   */\n    tag_156:\n        /* \"#utility.yul\":24393:24397   */\n      0x00\n        /* \"#utility.yul\":24431:24433   */\n      0x20\n        /* \"#utility.yul\":24420:24429   */\n      dup3\n        /* \"#utility.yul\":24416:24434   */\n      add\n        /* \"#utility.yul\":24408:24434   */\n      swap1\n      pop\n        /* \"#utility.yul\":24480:24489   */\n      dup2\n        /* \"#utility.yul\":24474:24478   */\n      dup2\n        /* \"#utility.yul\":24470:24490   */\n      sub\n        /* \"#utility.yul\":24466:24467   */\n      0x00\n        /* \"#utility.yul\":24455:24464   */\n      dup4\n        /* \"#utility.yul\":24451:24468   */\n      add\n        /* \"#utility.yul\":24444:24491   */\n      mstore\n        /* \"#utility.yul\":24508:24639   */\n      tag_448\n        /* \"#utility.yul\":24634:24638   */\n      dup2\n        /* \"#utility.yul\":24508:24639   */\n      tag_219\n      jump\t// in\n    tag_448:\n        /* \"#utility.yul\":24500:24639   */\n      swap1\n      pop\n        /* \"#utility.yul\":24227:24646   */\n      swap2\n      swap1\n      pop\n      jump\t// out\n\n    auxdata: 0xa2646970667358221220f4d0b53e22015a722dc3e742e10a4379eba0c9d5fc4e2af2f87c704c30b020c264736f6c634300081a0033\n}\n",
				"bytecode": {
					"linkReferences": {},
					"object": "6080604052348015600e575f80fd5b506001805f3373ffffffffffffffffffffffffffffffffffffffff1673ffffffffffffffffffffffffffffffffffffffff1681526020019081526020015f205f6101000a81548160ff0219169083151502179055503373ffffffffffffffffffffffffffffffffffffffff167f450ad6a6ac3c2e8b8a02820cb64d6102a1f91ebe1fa3848a0cfc45c870c043af60405160405180910390a2611eba806100b35f395ff3fe608060405234801561000f575f80fd5b5060043610610086575f3560e01c806385af45941161005957806385af459414610101578063ac18de431461011d578063b33712c514610139578063b5eee7221461014357610086565b8063092b37401461008a578063439766ce146100bf57806350006450146100c957806371757974146100e5575b5f80fd5b6100a4600480360381019061009f91906111ed565b61015f565b6040516100b696959493929190611349565b60405180910390f35b6100c761037a565b005b6100e360048036038101906100de9190611433565b61041f565b005b6100ff60048036038101906100fa91906114a4565b6105ed565b005b61011b6004803603810190610116919061152b565b61099d565b005b6101376004803603810190610132919061158f565b610d17565b005b610141610f12565b005b61015d6004803603810190610158919061158f565b610fb6565b005b5f805f60605f80865f808281526020019081526020015f206007015f9054906101000a900460ff166101c6576040517f08c379a00000000000000000000000000000000000000000000000000000000081526004016101bd9061162a565b60405180910390fd5b5f805f8a81526020019081526020015f20604051806101000160405290815f820154815260200160018201548152602001600282015f9054906101000a900473ffffffffffffffffffffffffffffffffffffffff1673ffffffffffffffffffffffffffffffffffffffff1673ffffffffffffffffffffffffffffffffffffffff1681526020016003820154815260200160048201805461026590611675565b80601f016020809104026020016040519081016040528092919081815260200182805461029190611675565b80156102dc5780601f106102b3576101008083540402835291602001916102dc565b820191905f5260205f20905b8154815290600101906020018083116102bf57829003601f168201915b50505050508152602001600582015f9054906101000a900460ff166004811115610309576103086112d6565b5b600481111561031b5761031a6112d6565b5b815260200160068201548152602001600782015f9054906101000a900460ff161515151581525050905080602001518160400151826060015183608001518460a001518560c00151975097509750975097509750505091939550919395565b60015f3373ffffffffffffffffffffffffffffffffffffffff1673ffffffffffffffffffffffffffffffffffffffff1681526020019081526020015f205f9054906101000a900460ff16610403576040517f08c379a00000000000000000000000000000000000000000000000000000000081526004016103fa90611715565b60405180910390fd5b600160025f6101000a81548160ff021916908315150217905550565b60015f3373ffffffffffffffffffffffffffffffffffffffff1673ffffffffffffffffffffffffffffffffffffffff1681526020019081526020015f205f9054906101000a900460ff166104a8576040517f08c379a000000000000000000000000000000000000000000000000000000000815260040161049f90611715565b60405180910390fd5b835f808281526020019081526020015f206007015f9054906101000a900460ff16610508576040517f08c379a00000000000000000000000000000000000000000000000000000000081526004016104ff9061162a565b60405180910390fd5b60025f9054906101000a900460ff1615610557576040517f08c379a000000000000000000000000000000000000000000000000000000000815260040161054e906117a3565b60405180910390fd5b5f805f8781526020019081526020015f20905084816005015f6101000a81548160ff021916908360048111156105905761058f6112d6565b5b021790555083838260040191826105a8929190611995565b50857f70b92c2b32436329ebb9638ab1426e38e2b23bd19f5d2ec3d7bf9f5fd36754688686866040516105dd93929190611a9c565b60405180910390a2505050505050565b60015f3373ffffffffffffffffffffffffffffffffffffffff1673ffffffffffffffffffffffffffffffffffffffff1681526020019081526020015f205f9054906101000a900460ff16610676576040517f08c379a000000000000000000000000000000000000000000000000000000000815260040161066d90611715565b60405180910390fd5b825f808281526020019081526020015f206007015f9054906101000a900460ff166106d6576040517f08c379a00000000000000000000000000000000000000000000000000000000081526004016106cd9061162a565b60405180910390fd5b60025f9054906101000a900460ff1615610725576040517f08c379a000000000000000000000000000000000000000000000000000000000815260040161071c906117a3565b60405180910390fd5b5f805f8681526020019081526020015f20604051806101000160405290815f820154815260200160018201548152602001600282015f9054906101000a900473ffffffffffffffffffffffffffffffffffffffff1673ffffffffffffffffffffffffffffffffffffffff1673ffffffffffffffffffffffffffffffffffffffff168152602001600382015481526020016004820180546107c490611675565b80601f01602080910402602001604051908101604052809291908181526020018280546107f090611675565b801561083b5780601f106108125761010080835404028352916020019161083b565b820191905f5260205f20905b81548152906001019060200180831161081e57829003601f168201915b50505050508152602001600582015f9054906101000a900460ff166004811115610868576108676112d6565b5b600481111561087a576108796112d6565b5b815260200160068201548152602001600782015f9054906101000a900460ff1615151515815250509050600360048111156108b8576108b76112d6565b5b8160a0015160048111156108cf576108ce6112d6565b5b148061090257506004808111156108e9576108e86112d6565b5b8160a001516004811115610900576108ff6112d6565b5b145b610941576040517f08c379a000000000000000000000000000000000000000000000000000000000815260040161093890611b3c565b60405180910390fd5b806040015173ffffffffffffffffffffffffffffffffffffffff16857ff7cad826d02c9fe90da65e564b06d00caf60b1f1dfe0e51ddb332398717b8e5c868660405161098e929190611b5a565b60405180910390a35050505050565b60015f3373ffffffffffffffffffffffffffffffffffffffff1673ffffffffffffffffffffffffffffffffffffffff1681526020019081526020015f205f9054906101000a900460ff16610a26576040517f08c379a0000000000000000000000000000000000000000000000000000000008152600401610a1d90611715565b60405180910390fd5b60025f9054906101000a900460ff1615610a75576040517f08c379a0000000000000000000000000000000000000000000000000000000008152600401610a6c906117a3565b60405180910390fd5b5f808581526020019081526020015f206007015f9054906101000a900460ff1615610ad5576040517f08c379a0000000000000000000000000000000000000000000000000000000008152600401610acc90611bec565b60405180910390fd5b5f73ffffffffffffffffffffffffffffffffffffffff168273ffffffffffffffffffffffffffffffffffffffff1603610b43576040517f08c379a0000000000000000000000000000000000000000000000000000000008152600401610b3a90611c7a565b60405180910390fd5b6040518061010001604052808581526020018481526020018373ffffffffffffffffffffffffffffffffffffffff1681526020018281526020016040518060400160405280600681526020017f4f726967696e000000000000000000000000000000000000000000000000000081525081526020015f6004811115610bcb57610bca6112d6565b5b8152602001428152602001600115158152505f808681526020019081526020015f205f820151815f0155602082015181600101556040820151816002015f6101000a81548173ffffffffffffffffffffffffffffffffffffffff021916908373ffffffffffffffffffffffffffffffffffffffff160217905550606082015181600301556080820151816004019081610c649190611c98565b5060a0820151816005015f6101000a81548160ff02191690836004811115610c8f57610c8e6112d6565b5b021790555060c0820151816006015560e0820151816007015f6101000a81548160ff0219169083151502179055509050508173ffffffffffffffffffffffffffffffffffffffff16847f5c8f217b762956f50a21d6d5a6feec2da8373ec81ec9806f2d2570bd976710628584604051610d09929190611d67565b60405180910390a350505050565b60015f3373ffffffffffffffffffffffffffffffffffffffff1673ffffffffffffffffffffffffffffffffffffffff1681526020019081526020015f205f9054906101000a900460ff16610da0576040517f08c379a0000000000000000000000000000000000000000000000000000000008152600401610d9790611715565b60405180910390fd5b60025f9054906101000a900460ff1615610def576040517f08c379a0000000000000000000000000000000000000000000000000000000008152600401610de6906117a3565b60405180910390fd5b60015f8273ffffffffffffffffffffffffffffffffffffffff1673ffffffffffffffffffffffffffffffffffffffff1681526020019081526020015f205f9054906101000a900460ff16610e78576040517f08c379a0000000000000000000000000000000000000000000000000000000008152600401610e6f90611dd8565b60405180910390fd5b5f60015f8373ffffffffffffffffffffffffffffffffffffffff1673ffffffffffffffffffffffffffffffffffffffff1681526020019081526020015f205f6101000a81548160ff0219169083151502179055508073ffffffffffffffffffffffffffffffffffffffff167fef69f7d97228658c92417be1b16b19058315de71fecb435d07b7d23728b6bd3160405160405180910390a250565b60015f3373ffffffffffffffffffffffffffffffffffffffff1673ffffffffffffffffffffffffffffffffffffffff1681526020019081526020015f205f9054906101000a900460ff16610f9b576040517f08c379a0000000000000000000000000000000000000000000000000000000008152600401610f9290611715565b60405180910390fd5b5f60025f6101000a81548160ff021916908315150217905550565b60015f3373ffffffffffffffffffffffffffffffffffffffff1673ffffffffffffffffffffffffffffffffffffffff1681526020019081526020015f205f9054906101000a900460ff1661103f576040517f08c379a000000000000000000000000000000000000000000000000000000000815260040161103690611715565b60405180910390fd5b60025f9054906101000a900460ff161561108e576040517f08c379a0000000000000000000000000000000000000000000000000000000008152600401611085906117a3565b60405180910390fd5b60015f8273ffffffffffffffffffffffffffffffffffffffff1673ffffffffffffffffffffffffffffffffffffffff1681526020019081526020015f205f9054906101000a900460ff1615611118576040517f08c379a000000000000000000000000000000000000000000000000000000000815260040161110f90611e66565b60405180910390fd5b6001805f8373ffffffffffffffffffffffffffffffffffffffff1673ffffffffffffffffffffffffffffffffffffffff1681526020019081526020015f205f6101000a81548160ff0219169083151502179055508073ffffffffffffffffffffffffffffffffffffffff167f450ad6a6ac3c2e8b8a02820cb64d6102a1f91ebe1fa3848a0cfc45c870c043af60405160405180910390a250565b5f80fd5b5f80fd5b5f819050919050565b6111cc816111ba565b81146111d6575f80fd5b50565b5f813590506111e7816111c3565b92915050565b5f60208284031215611202576112016111b2565b5b5f61120f848285016111d9565b91505092915050565b611221816111ba565b82525050565b5f73ffffffffffffffffffffffffffffffffffffffff82169050919050565b5f61125082611227565b9050919050565b61126081611246565b82525050565b5f81519050919050565b5f82825260208201905092915050565b8281835e5f83830152505050565b5f601f19601f8301169050919050565b5f6112a882611266565b6112b28185611270565b93506112c2818560208601611280565b6112cb8161128e565b840191505092915050565b7f4e487b71000000000000000000000000000000000000000000000000000000005f52602160045260245ffd5b60058110611314576113136112d6565b5b50565b5f81905061132482611303565b919050565b5f61133382611317565b9050919050565b61134381611329565b82525050565b5f60c08201905061135c5f830189611218565b6113696020830188611257565b6113766040830187611218565b8181036060830152611388818661129e565b9050611397608083018561133a565b6113a460a0830184611218565b979650505050505050565b600581106113bb575f80fd5b50565b5f813590506113cc816113af565b92915050565b5f80fd5b5f80fd5b5f80fd5b5f8083601f8401126113f3576113f26113d2565b5b8235905067ffffffffffffffff8111156114105761140f6113d6565b5b60208301915083600182028301111561142c5761142b6113da565b5b9250929050565b5f805f806060858703121561144b5761144a6111b2565b5b5f611458878288016111d9565b9450506020611469878288016113be565b935050604085013567ffffffffffffffff81111561148a576114896111b6565b5b611496878288016113de565b925092505092959194509250565b5f805f604084860312156114bb576114ba6111b2565b5b5f6114c8868287016111d9565b935050602084013567ffffffffffffffff8111156114e9576114e86111b6565b5b6114f5868287016113de565b92509250509250925092565b61150a81611246565b8114611514575f80fd5b50565b5f8135905061152581611501565b92915050565b5f805f8060808587031215611543576115426111b2565b5b5f611550878288016111d9565b9450506020611561878288016111d9565b935050604061157287828801611517565b9250506060611583878288016111d9565b91505092959194509250565b5f602082840312156115a4576115a36111b2565b5b5f6115b184828501611517565b91505092915050565b7f5175657279204572726f723a20536869706d656e74206e6f74207265676973745f8201527f6572656400000000000000000000000000000000000000000000000000000000602082015250565b5f611614602483611270565b915061161f826115ba565b604082019050919050565b5f6020820190508181035f83015261164181611608565b9050919050565b7f4e487b71000000000000000000000000000000000000000000000000000000005f52602260045260245ffd5b5f600282049050600182168061168c57607f821691505b60208210810361169f5761169e611648565b5b50919050565b7f4163636573732044656e6965643a204e6f7420616e20617574686f72697a65645f8201527f206d616e61676572000000000000000000000000000000000000000000000000602082015250565b5f6116ff602883611270565b915061170a826116a5565b604082019050919050565b5f6020820190508181035f83015261172c816116f3565b9050919050565b7f4f7065726174696f6e204572726f723a20436f6e7472616374206973207061755f8201527f7365640000000000000000000000000000000000000000000000000000000000602082015250565b5f61178d602383611270565b915061179882611733565b604082019050919050565b5f6020820190508181035f8301526117ba81611781565b9050919050565b5f82905092915050565b7f4e487b71000000000000000000000000000000000000000000000000000000005f52604160045260245ffd5b5f819050815f5260205f209050919050565b5f6020601f8301049050919050565b5f82821b905092915050565b5f600883026118547fffffffffffffffffffffffffffffffffffffffffffffffffffffffffffffffff82611819565b61185e8683611819565b95508019841693508086168417925050509392505050565b5f819050919050565b5f61189961189461188f846111ba565b611876565b6111ba565b9050919050565b5f819050919050565b6118b28361187f565b6118c66118be826118a0565b848454611825565b825550505050565b5f90565b6118da6118ce565b6118e58184846118a9565b505050565b5b81811015611908576118fd5f826118d2565b6001810190506118eb565b5050565b601f82111561194d5761191e816117f8565b6119278461180a565b81016020851015611936578190505b61194a6119428561180a565b8301826118ea565b50505b505050565b5f82821c905092915050565b5f61196d5f1984600802611952565b1980831691505092915050565b5f611985838361195e565b9150826002028217905092915050565b61199f83836117c1565b67ffffffffffffffff8111156119b8576119b76117cb565b5b6119c28254611675565b6119cd82828561190c565b5f601f8311600181146119fa575f84156119e8578287013590505b6119f2858261197a565b865550611a59565b601f198416611a08866117f8565b5f5b82811015611a2f57848901358255600182019150602085019450602081019050611a0a565b86831015611a4c5784890135611a48601f89168261195e565b8355505b6001600288020188555050505b50505050505050565b828183375f83830152505050565b5f611a7b8385611270565b9350611a88838584611a62565b611a918361128e565b840190509392505050565b5f604082019050611aaf5f83018661133a565b8181036020830152611ac2818486611a70565b9050949350505050565b7f50656e616c7479204572726f723a20536869706d656e74206e6f742064656c615f8201527f796564206f72206c6f7374000000000000000000000000000000000000000000602082015250565b5f611b26602b83611270565b9150611b3182611acc565b604082019050919050565b5f6020820190508181035f830152611b5381611b1a565b9050919050565b5f6020820190508181035f830152611b73818486611a70565b90509392505050565b7f4372656174696f6e204572726f723a20536869706d656e7420616c72656164795f8201527f2065786973747300000000000000000000000000000000000000000000000000602082015250565b5f611bd6602783611270565b9150611be182611b7c565b604082019050919050565b5f6020820190508181035f830152611c0381611bca565b9050919050565b7f4372656174696f6e204572726f723a20496e76616c6964207472616e73706f725f8201527f7465722061646472657373000000000000000000000000000000000000000000602082015250565b5f611c64602b83611270565b9150611c6f82611c0a565b604082019050919050565b5f6020820190508181035f830152611c9181611c58565b9050919050565b611ca182611266565b67ffffffffffffffff811115611cba57611cb96117cb565b5b611cc48254611675565b611ccf82828561190c565b5f60209050601f831160018114611d00575f8415611cee578287015190505b611cf8858261197a565b865550611d5f565b601f198416611d0e866117f8565b5f5b82811015611d3557848901518255600182019150602085019450602081019050611d10565b86831015611d525784890151611d4e601f89168261195e565b8355505b6001600288020188555050505b505050505050565b5f604082019050611d7a5f830185611218565b611d876020830184611218565b9392505050565b7f52656d6f76616c204572726f723a204d616e61676572206e6f7420666f756e645f82015250565b5f611dc2602083611270565b9150611dcd82611d8e565b602082019050919050565b5f6020820190508181035f830152611def81611db6565b9050919050565b7f417070726f76616c204572726f723a204d616e6167657220616c7265616479205f8201527f617070726f766564000000000000000000000000000000000000000000000000602082015250565b5f611e50602883611270565b9150611e5b82611df6565b604082019050919050565b5f6020820190508181035f830152611e7d81611e44565b905091905056fea2646970667358221220f4d0b53e22015a722dc3e742e10a4379eba0c9d5fc4e2af2f87c704c30b020c264736f6c634300081a0033",
					"opcodes": "PUSH1 0x80 PUSH1 0x40 MSTORE CALLVALUE DUP1 ISZERO PUSH1 0xE JUMPI PUSH0 DUP1 REVERT JUMPDEST POP PUSH1 0x1 DUP1 PUSH0 CALLER PUSH20 0xFFFFFFFFFFFFFFFFFFFFFFFFFFFFFFFFFFFFFFFF AND PUSH20 0xFFFFFFFFFFFFFFFFFFFFFFFFFFFFFFFFFFFFFFFF AND DUP2 MSTORE PUSH1 0x20 ADD SWAP1 DUP2 MSTORE PUSH1 0x20 ADD PUSH0 KECCAK256 PUSH0 PUSH2 0x100 EXP DUP2 SLOAD DUP2 PUSH1 0xFF MUL NOT AND SWAP1 DUP4 ISZERO ISZERO MUL OR SWAP1 SSTORE POP CALLER PUSH20 0xFFFFFFFFFFFFFFFFFFFFFFFFFFFFFFFFFFFFFFFF AND PUSH32 0x450AD6A6AC3C2E8B8A02820CB64D6102A1F91EBE1FA3848A0CFC45C870C043AF PUSH1 0x40 MLOAD PUSH1 0x40 MLOAD DUP1 SWAP2 SUB SWAP1 LOG2 PUSH2 0x1EBA DUP1 PUSH2 0xB3 PUSH0 CODECOPY PUSH0 RETURN INVALID PUSH1 0x80 PUSH1 0x40 MSTORE CALLVALUE DUP1 ISZERO PUSH2 0xF JUMPI PUSH0 DUP1 REVERT JUMPDEST POP PUSH1 0x4 CALLDATASIZE LT PUSH2 0x86 JUMPI PUSH0 CALLDATALOAD PUSH1 0xE0 SHR DUP1 PUSH4 0x85AF4594 GT PUSH2 0x59 JUMPI DUP1 PUSH4 0x85AF4594 EQ PUSH2 0x101 JUMPI DUP1 PUSH4 0xAC18DE43 EQ PUSH2 0x11D JUMPI DUP1 PUSH4 0xB33712C5 EQ PUSH2 0x139 JUMPI DUP1 PUSH4 0xB5EEE722 EQ PUSH2 0x143 JUMPI PUSH2 0x86 JUMP JUMPDEST DUP1 PUSH4 0x92B3740 EQ PUSH2 0x8A JUMPI DUP1 PUSH4 0x439766CE EQ PUSH2 0xBF JUMPI DUP1 PUSH4 0x50006450 EQ PUSH2 0xC9 JUMPI DUP1 PUSH4 0x71757974 EQ PUSH2 0xE5 JUMPI JUMPDEST PUSH0 DUP1 REVERT JUMPDEST PUSH2 0xA4 PUSH1 0x4 DUP1 CALLDATASIZE SUB DUP2 ADD SWAP1 PUSH2 0x9F SWAP2 SWAP1 PUSH2 0x11ED JUMP JUMPDEST PUSH2 0x15F JUMP JUMPDEST PUSH1 0x40 MLOAD PUSH2 0xB6 SWAP7 SWAP6 SWAP5 SWAP4 SWAP3 SWAP2 SWAP1 PUSH2 0x1349 JUMP JUMPDEST PUSH1 0x40 MLOAD DUP1 SWAP2 SUB SWAP1 RETURN JUMPDEST PUSH2 0xC7 PUSH2 0x37A JUMP JUMPDEST STOP JUMPDEST PUSH2 0xE3 PUSH1 0x4 DUP1 CALLDATASIZE SUB DUP2 ADD SWAP1 PUSH2 0xDE SWAP2 SWAP1 PUSH2 0x1433 JUMP JUMPDEST PUSH2 0x41F JUMP JUMPDEST STOP JUMPDEST PUSH2 0xFF PUSH1 0x4 DUP1 CALLDATASIZE SUB DUP2 ADD SWAP1 PUSH2 0xFA SWAP2 SWAP1 PUSH2 0x14A4 JUMP JUMPDEST PUSH2 0x5ED JUMP JUMPDEST STOP JUMPDEST PUSH2 0x11B PUSH1 0x4 DUP1 CALLDATASIZE SUB DUP2 ADD SWAP1 PUSH2 0x116 SWAP2 SWAP1 PUSH2 0x152B JUMP JUMPDEST PUSH2 0x99D JUMP JUMPDEST STOP JUMPDEST PUSH2 0x137 PUSH1 0x4 DUP1 CALLDATASIZE SUB DUP2 ADD SWAP1 PUSH2 0x132 SWAP2 SWAP1 PUSH2 0x158F JUMP JUMPDEST PUSH2 0xD17 JUMP JUMPDEST STOP JUMPDEST PUSH2 0x141 PUSH2 0xF12 JUMP JUMPDEST STOP JUMPDEST PUSH2 0x15D PUSH1 0x4 DUP1 CALLDATASIZE SUB DUP2 ADD SWAP1 PUSH2 0x158 SWAP2 SWAP1 PUSH2 0x158F JUMP JUMPDEST PUSH2 0xFB6 JUMP JUMPDEST STOP JUMPDEST PUSH0 DUP1 PUSH0 PUSH1 0x60 PUSH0 DUP1 DUP7 PUSH0 DUP1 DUP3 DUP2 MSTORE PUSH1 0x20 ADD SWAP1 DUP2 MSTORE PUSH1 0x20 ADD PUSH0 KECCAK256 PUSH1 0x7 ADD PUSH0 SWAP1 SLOAD SWAP1 PUSH2 0x100 EXP SWAP1 DIV PUSH1 0xFF AND PUSH2 0x1C6 JUMPI PUSH1 0x40 MLOAD PUSH32 0x8C379A000000000000000000000000000000000000000000000000000000000 DUP2 MSTORE PUSH1 0x4 ADD PUSH2 0x1BD SWAP1 PUSH2 0x162A JUMP JUMPDEST PUSH1 0x40 MLOAD DUP1 SWAP2 SUB SWAP1 REVERT JUMPDEST PUSH0 DUP1 PUSH0 DUP11 DUP2 MSTORE PUSH1 0x20 ADD SWAP1 DUP2 MSTORE PUSH1 0x20 ADD PUSH0 KECCAK256 PUSH1 0x40 MLOAD DUP1 PUSH2 0x100 ADD PUSH1 0x40 MSTORE SWAP1 DUP2 PUSH0 DUP3 ADD SLOAD DUP2 MSTORE PUSH1 0x20 ADD PUSH1 0x1 DUP3 ADD SLOAD DUP2 MSTORE PUSH1 0x20 ADD PUSH1 0x2 DUP3 ADD PUSH0 SWAP1 SLOAD SWAP1 PUSH2 0x100 EXP SWAP1 DIV PUSH20 0xFFFFFFFFFFFFFFFFFFFFFFFFFFFFFFFFFFFFFFFF AND PUSH20 0xFFFFFFFFFFFFFFFFFFFFFFFFFFFFFFFFFFFFFFFF AND PUSH20 0xFFFFFFFFFFFFFFFFFFFFFFFFFFFFFFFFFFFFFFFF AND DUP2 MSTORE PUSH1 0x20 ADD PUSH1 0x3 DUP3 ADD SLOAD DUP2 MSTORE PUSH1 0x20 ADD PUSH1 0x4 DUP3 ADD DUP1 SLOAD PUSH2 0x265 SWAP1 PUSH2 0x1675 JUMP JUMPDEST DUP1 PUSH1 0x1F ADD PUSH1 0x20 DUP1 SWAP2 DIV MUL PUSH1 0x20 ADD PUSH1 0x40 MLOAD SWAP1 DUP2 ADD PUSH1 0x40 MSTORE DUP1 SWAP3 SWAP2 SWAP1 DUP2 DUP2 MSTORE PUSH1 0x20 ADD DUP3 DUP1 SLOAD PUSH2 0x291 SWAP1 PUSH2 0x1675 JUMP JUMPDEST DUP1 ISZERO PUSH2 0x2DC JUMPI DUP1 PUSH1 0x1F LT PUSH2 0x2B3 JUMPI PUSH2 0x100 DUP1 DUP4 SLOAD DIV MUL DUP4 MSTORE SWAP2 PUSH1 0x20 ADD SWAP2 PUSH2 0x2DC JUMP JUMPDEST DUP3 ADD SWAP2 SWAP1 PUSH0 MSTORE PUSH1 0x20 PUSH0 KECCAK256 SWAP1 JUMPDEST DUP2 SLOAD DUP2 MSTORE SWAP1 PUSH1 0x1 ADD SWAP1 PUSH1 0x20 ADD DUP1 DUP4 GT PUSH2 0x2BF JUMPI DUP3 SWAP1 SUB PUSH1 0x1F AND DUP3 ADD SWAP2 JUMPDEST POP POP POP POP POP DUP2 MSTORE PUSH1 0x20 ADD PUSH1 0x5 DUP3 ADD PUSH0 SWAP1 SLOAD SWAP1 PUSH2 0x100 EXP SWAP1 DIV PUSH1 0xFF AND PUSH1 0x4 DUP2 GT ISZERO PUSH2 0x309 JUMPI PUSH2 0x308 PUSH2 0x12D6 JUMP JUMPDEST JUMPDEST PUSH1 0x4 DUP2 GT ISZERO PUSH2 0x31B JUMPI PUSH2 0x31A PUSH2 0x12D6 JUMP JUMPDEST JUMPDEST DUP2 MSTORE PUSH1 0x20 ADD PUSH1 0x6 DUP3 ADD SLOAD DUP2 MSTORE PUSH1 0x20 ADD PUSH1 0x7 DUP3 ADD PUSH0 SWAP1 SLOAD SWAP1 PUSH2 0x100 EXP SWAP1 DIV PUSH1 0xFF AND ISZERO ISZERO ISZERO ISZERO DUP2 MSTORE POP POP SWAP1 POP DUP1 PUSH1 0x20 ADD MLOAD DUP2 PUSH1 0x40 ADD MLOAD DUP3 PUSH1 0x60 ADD MLOAD DUP4 PUSH1 0x80 ADD MLOAD DUP5 PUSH1 0xA0 ADD MLOAD DUP6 PUSH1 0xC0 ADD MLOAD SWAP8 POP SWAP8 POP SWAP8 POP SWAP8 POP SWAP8 POP SWAP8 POP POP POP SWAP2 SWAP4 SWAP6 POP SWAP2 SWAP4 SWAP6 JUMP JUMPDEST PUSH1 0x1 PUSH0 CALLER PUSH20 0xFFFFFFFFFFFFFFFFFFFFFFFFFFFFFFFFFFFFFFFF AND PUSH20 0xFFFFFFFFFFFFFFFFFFFFFFFFFFFFFFFFFFFFFFFF AND DUP2 MSTORE PUSH1 0x20 ADD SWAP1 DUP2 MSTORE PUSH1 0x20 ADD PUSH0 KECCAK256 PUSH0 SWAP1 SLOAD SWAP1 PUSH2 0x100 EXP SWAP1 DIV PUSH1 0xFF AND PUSH2 0x403 JUMPI PUSH1 0x40 MLOAD PUSH32 0x8C379A000000000000000000000000000000000000000000000000000000000 DUP2 MSTORE PUSH1 0x4 ADD PUSH2 0x3FA SWAP1 PUSH2 0x1715 JUMP JUMPDEST PUSH1 0x40 MLOAD DUP1 SWAP2 SUB SWAP1 REVERT JUMPDEST PUSH1 0x1 PUSH1 0x2 PUSH0 PUSH2 0x100 EXP DUP2 SLOAD DUP2 PUSH1 0xFF MUL NOT AND SWAP1 DUP4 ISZERO ISZERO MUL OR SWAP1 SSTORE POP JUMP JUMPDEST PUSH1 0x1 PUSH0 CALLER PUSH20 0xFFFFFFFFFFFFFFFFFFFFFFFFFFFFFFFFFFFFFFFF AND PUSH20 0xFFFFFFFFFFFFFFFFFFFFFFFFFFFFFFFFFFFFFFFF AND DUP2 MSTORE PUSH1 0x20 ADD SWAP1 DUP2 MSTORE PUSH1 0x20 ADD PUSH0 KECCAK256 PUSH0 SWAP1 SLOAD SWAP1 PUSH2 0x100 EXP SWAP1 DIV PUSH1 0xFF AND PUSH2 0x4A8 JUMPI PUSH1 0x40 MLOAD PUSH32 0x8C379A000000000000000000000000000000000000000000000000000000000 DUP2 MSTORE PUSH1 0x4 ADD PUSH2 0x49F SWAP1 PUSH2 0x1715 JUMP JUMPDEST PUSH1 0x40 MLOAD DUP1 SWAP2 SUB SWAP1 REVERT JUMPDEST DUP4 PUSH0 DUP1 DUP3 DUP2 MSTORE PUSH1 0x20 ADD SWAP1 DUP2 MSTORE PUSH1 0x20 ADD PUSH0 KECCAK256 PUSH1 0x7 ADD PUSH0 SWAP1 SLOAD SWAP1 PUSH2 0x100 EXP SWAP1 DIV PUSH1 0xFF AND PUSH2 0x508 JUMPI PUSH1 0x40 MLOAD PUSH32 0x8C379A000000000000000000000000000000000000000000000000000000000 DUP2 MSTORE PUSH1 0x4 ADD PUSH2 0x4FF SWAP1 PUSH2 0x162A JUMP JUMPDEST PUSH1 0x40 MLOAD DUP1 SWAP2 SUB SWAP1 REVERT JUMPDEST PUSH1 0x2 PUSH0 SWAP1 SLOAD SWAP1 PUSH2 0x100 EXP SWAP1 DIV PUSH1 0xFF AND ISZERO PUSH2 0x557 JUMPI PUSH1 0x40 MLOAD PUSH32 0x8C379A000000000000000000000000000000000000000000000000000000000 DUP2 MSTORE PUSH1 0x4 ADD PUSH2 0x54E SWAP1 PUSH2 0x17A3 JUMP JUMPDEST PUSH1 0x40 MLOAD DUP1 SWAP2 SUB SWAP1 REVERT JUMPDEST PUSH0 DUP1 PUSH0 DUP8 DUP2 MSTORE PUSH1 0x20 ADD SWAP1 DUP2 MSTORE PUSH1 0x20 ADD PUSH0 KECCAK256 SWAP1 POP DUP5 DUP2 PUSH1 0x5 ADD PUSH0 PUSH2 0x100 EXP DUP2 SLOAD DUP2 PUSH1 0xFF MUL NOT AND SWAP1 DUP4 PUSH1 0x4 DUP2 GT ISZERO PUSH2 0x590 JUMPI PUSH2 0x58F PUSH2 0x12D6 JUMP JUMPDEST JUMPDEST MUL OR SWAP1 SSTORE POP DUP4 DUP4 DUP3 PUSH1 0x4 ADD SWAP2 DUP3 PUSH2 0x5A8 SWAP3 SWAP2 SWAP1 PUSH2 0x1995 JUMP JUMPDEST POP DUP6 PUSH32 0x70B92C2B32436329EBB9638AB1426E38E2B23BD19F5D2EC3D7BF9F5FD3675468 DUP7 DUP7 DUP7 PUSH1 0x40 MLOAD PUSH2 0x5DD SWAP4 SWAP3 SWAP2 SWAP1 PUSH2 0x1A9C JUMP JUMPDEST PUSH1 0x40 MLOAD DUP1 SWAP2 SUB SWAP1 LOG2 POP POP POP POP POP POP JUMP JUMPDEST PUSH1 0x1 PUSH0 CALLER PUSH20 0xFFFFFFFFFFFFFFFFFFFFFFFFFFFFFFFFFFFFFFFF AND PUSH20 0xFFFFFFFFFFFFFFFFFFFFFFFFFFFFFFFFFFFFFFFF AND DUP2 MSTORE PUSH1 0x20 ADD SWAP1 DUP2 MSTORE PUSH1 0x20 ADD PUSH0 KECCAK256 PUSH0 SWAP1 SLOAD SWAP1 PUSH2 0x100 EXP SWAP1 DIV PUSH1 0xFF AND PUSH2 0x676 JUMPI PUSH1 0x40 MLOAD PUSH32 0x8C379A000000000000000000000000000000000000000000000000000000000 DUP2 MSTORE PUSH1 0x4 ADD PUSH2 0x66D SWAP1 PUSH2 0x1715 JUMP JUMPDEST PUSH1 0x40 MLOAD DUP1 SWAP2 SUB SWAP1 REVERT JUMPDEST DUP3 PUSH0 DUP1 DUP3 DUP2 MSTORE PUSH1 0x20 ADD SWAP1 DUP2 MSTORE PUSH1 0x20 ADD PUSH0 KECCAK256 PUSH1 0x7 ADD PUSH0 SWAP1 SLOAD SWAP1 PUSH2 0x100 EXP SWAP1 DIV PUSH1 0xFF AND PUSH2 0x6D6 JUMPI PUSH1 0x40 MLOAD PUSH32 0x8C379A000000000000000000000000000000000000000000000000000000000 DUP2 MSTORE PUSH1 0x4 ADD PUSH2 0x6CD SWAP1 PUSH2 0x162A JUMP JUMPDEST PUSH1 0x40 MLOAD DUP1 SWAP2 SUB SWAP1 REVERT JUMPDEST PUSH1 0x2 PUSH0 SWAP1 SLOAD SWAP1 PUSH2 0x100 EXP SWAP1 DIV PUSH1 0xFF AND ISZERO PUSH2 0x725 JUMPI PUSH1 0x40 MLOAD PUSH32 0x8C379A000000000000000000000000000000000000000000000000000000000 DUP2 MSTORE PUSH1 0x4 ADD PUSH2 0x71C SWAP1 PUSH2 0x17A3 JUMP JUMPDEST PUSH1 0x40 MLOAD DUP1 SWAP2 SUB SWAP1 REVERT JUMPDEST PUSH0 DUP1 PUSH0 DUP7 DUP2 MSTORE PUSH1 0x20 ADD SWAP1 DUP2 MSTORE PUSH1 0x20 ADD PUSH0 KECCAK256 PUSH1 0x40 MLOAD DUP1 PUSH2 0x100 ADD PUSH1 0x40 MSTORE SWAP1 DUP2 PUSH0 DUP3 ADD SLOAD DUP2 MSTORE PUSH1 0x20 ADD PUSH1 0x1 DUP3 ADD SLOAD DUP2 MSTORE PUSH1 0x20 ADD PUSH1 0x2 DUP3 ADD PUSH0 SWAP1 SLOAD SWAP1 PUSH2 0x100 EXP SWAP1 DIV PUSH20 0xFFFFFFFFFFFFFFFFFFFFFFFFFFFFFFFFFFFFFFFF AND PUSH20 0xFFFFFFFFFFFFFFFFFFFFFFFFFFFFFFFFFFFFFFFF AND PUSH20 0xFFFFFFFFFFFFFFFFFFFFFFFFFFFFFFFFFFFFFFFF AND DUP2 MSTORE PUSH1 0x20 ADD PUSH1 0x3 DUP3 ADD SLOAD DUP2 MSTORE PUSH1 0x20 ADD PUSH1 0x4 DUP3 ADD DUP1 SLOAD PUSH2 0x7C4 SWAP1 PUSH2 0x1675 JUMP JUMPDEST DUP1 PUSH1 0x1F ADD PUSH1 0x20 DUP1 SWAP2 DIV MUL PUSH1 0x20 ADD PUSH1 0x40 MLOAD SWAP1 DUP2 ADD PUSH1 0x40 MSTORE DUP1 SWAP3 SWAP2 SWAP1 DUP2 DUP2 MSTORE PUSH1 0x20 ADD DUP3 DUP1 SLOAD PUSH2 0x7F0 SWAP1 PUSH2 0x1675 JUMP JUMPDEST DUP1 ISZERO PUSH2 0x83B JUMPI DUP1 PUSH1 0x1F LT PUSH2 0x812 JUMPI PUSH2 0x100 DUP1 DUP4 SLOAD DIV MUL DUP4 MSTORE SWAP2 PUSH1 0x20 ADD SWAP2 PUSH2 0x83B JUMP JUMPDEST DUP3 ADD SWAP2 SWAP1 PUSH0 MSTORE PUSH1 0x20 PUSH0 KECCAK256 SWAP1 JUMPDEST DUP2 SLOAD DUP2 MSTORE SWAP1 PUSH1 0x1 ADD SWAP1 PUSH1 0x20 ADD DUP1 DUP4 GT PUSH2 0x81E JUMPI DUP3 SWAP1 SUB PUSH1 0x1F AND DUP3 ADD SWAP2 JUMPDEST POP POP POP POP POP DUP2 MSTORE PUSH1 0x20 ADD PUSH1 0x5 DUP3 ADD PUSH0 SWAP1 SLOAD SWAP1 PUSH2 0x100 EXP SWAP1 DIV PUSH1 0xFF AND PUSH1 0x4 DUP2 GT ISZERO PUSH2 0x868 JUMPI PUSH2 0x867 PUSH2 0x12D6 JUMP JUMPDEST JUMPDEST PUSH1 0x4 DUP2 GT ISZERO PUSH2 0x87A JUMPI PUSH2 0x879 PUSH2 0x12D6 JUMP JUMPDEST JUMPDEST DUP2 MSTORE PUSH1 0x20 ADD PUSH1 0x6 DUP3 ADD SLOAD DUP2 MSTORE PUSH1 0x20 ADD PUSH1 0x7 DUP3 ADD PUSH0 SWAP1 SLOAD SWAP1 PUSH2 0x100 EXP SWAP1 DIV PUSH1 0xFF AND ISZERO ISZERO ISZERO ISZERO DUP2 MSTORE POP POP SWAP1 POP PUSH1 0x3 PUSH1 0x4 DUP2 GT ISZERO PUSH2 0x8B8 JUMPI PUSH2 0x8B7 PUSH2 0x12D6 JUMP JUMPDEST JUMPDEST DUP2 PUSH1 0xA0 ADD MLOAD PUSH1 0x4 DUP2 GT ISZERO PUSH2 0x8CF JUMPI PUSH2 0x8CE PUSH2 0x12D6 JUMP JUMPDEST JUMPDEST EQ DUP1 PUSH2 0x902 JUMPI POP PUSH1 0x4 DUP1 DUP2 GT ISZERO PUSH2 0x8E9 JUMPI PUSH2 0x8E8 PUSH2 0x12D6 JUMP JUMPDEST JUMPDEST DUP2 PUSH1 0xA0 ADD MLOAD PUSH1 0x4 DUP2 GT ISZERO PUSH2 0x900 JUMPI PUSH2 0x8FF PUSH2 0x12D6 JUMP JUMPDEST JUMPDEST EQ JUMPDEST PUSH2 0x941 JUMPI PUSH1 0x40 MLOAD PUSH32 0x8C379A000000000000000000000000000000000000000000000000000000000 DUP2 MSTORE PUSH1 0x4 ADD PUSH2 0x938 SWAP1 PUSH2 0x1B3C JUMP JUMPDEST PUSH1 0x40 MLOAD DUP1 SWAP2 SUB SWAP1 REVERT JUMPDEST DUP1 PUSH1 0x40 ADD MLOAD PUSH20 0xFFFFFFFFFFFFFFFFFFFFFFFFFFFFFFFFFFFFFFFF AND DUP6 PUSH32 0xF7CAD826D02C9FE90DA65E564B06D00CAF60B1F1DFE0E51DDB332398717B8E5C DUP7 DUP7 PUSH1 0x40 MLOAD PUSH2 0x98E SWAP3 SWAP2 SWAP1 PUSH2 0x1B5A JUMP JUMPDEST PUSH1 0x40 MLOAD DUP1 SWAP2 SUB SWAP1 LOG3 POP POP POP POP POP JUMP JUMPDEST PUSH1 0x1 PUSH0 CALLER PUSH20 0xFFFFFFFFFFFFFFFFFFFFFFFFFFFFFFFFFFFFFFFF AND PUSH20 0xFFFFFFFFFFFFFFFFFFFFFFFFFFFFFFFFFFFFFFFF AND DUP2 MSTORE PUSH1 0x20 ADD SWAP1 DUP2 MSTORE PUSH1 0x20 ADD PUSH0 KECCAK256 PUSH0 SWAP1 SLOAD SWAP1 PUSH2 0x100 EXP SWAP1 DIV PUSH1 0xFF AND PUSH2 0xA26 JUMPI PUSH1 0x40 MLOAD PUSH32 0x8C379A000000000000000000000000000000000000000000000000000000000 DUP2 MSTORE PUSH1 0x4 ADD PUSH2 0xA1D SWAP1 PUSH2 0x1715 JUMP JUMPDEST PUSH1 0x40 MLOAD DUP1 SWAP2 SUB SWAP1 REVERT JUMPDEST PUSH1 0x2 PUSH0 SWAP1 SLOAD SWAP1 PUSH2 0x100 EXP SWAP1 DIV PUSH1 0xFF AND ISZERO PUSH2 0xA75 JUMPI PUSH1 0x40 MLOAD PUSH32 0x8C379A000000000000000000000000000000000000000000000000000000000 DUP2 MSTORE PUSH1 0x4 ADD PUSH2 0xA6C SWAP1 PUSH2 0x17A3 JUMP JUMPDEST PUSH1 0x40 MLOAD DUP1 SWAP2 SUB SWAP1 REVERT JUMPDEST PUSH0 DUP1 DUP6 DUP2 MSTORE PUSH1 0x20 ADD SWAP1 DUP2 MSTORE PUSH1 0x20 ADD PUSH0 KECCAK256 PUSH1 0x7 ADD PUSH0 SWAP1 SLOAD SWAP1 PUSH2 0x100 EXP SWAP1 DIV PUSH1 0xFF AND ISZERO PUSH2 0xAD5 JUMPI PUSH1 0x40 MLOAD PUSH32 0x8C379A000000000000000000000000000000000000000000000000000000000 DUP2 MSTORE PUSH1 0x4 ADD PUSH2 0xACC SWAP1 PUSH2 0x1BEC JUMP JUMPDEST PUSH1 0x40 MLOAD DUP1 SWAP2 SUB SWAP1 REVERT JUMPDEST PUSH0 PUSH20 0xFFFFFFFFFFFFFFFFFFFFFFFFFFFFFFFFFFFFFFFF AND DUP3 PUSH20 0xFFFFFFFFFFFFFFFFFFFFFFFFFFFFFFFFFFFFFFFF AND SUB PUSH2 0xB43 JUMPI PUSH1 0x40 MLOAD PUSH32 0x8C379A000000000000000000000000000000000000000000000000000000000 DUP2 MSTORE PUSH1 0x4 ADD PUSH2 0xB3A SWAP1 PUSH2 0x1C7A JUMP JUMPDEST PUSH1 0x40 MLOAD DUP1 SWAP2 SUB SWAP1 REVERT JUMPDEST PUSH1 0x40 MLOAD DUP1 PUSH2 0x100 ADD PUSH1 0x40 MSTORE DUP1 DUP6 DUP2 MSTORE PUSH1 0x20 ADD DUP5 DUP2 MSTORE PUSH1 0x20 ADD DUP4 PUSH20 0xFFFFFFFFFFFFFFFFFFFFFFFFFFFFFFFFFFFFFFFF AND DUP2 MSTORE PUSH1 0x20 ADD DUP3 DUP2 MSTORE PUSH1 0x20 ADD PUSH1 0x40 MLOAD DUP1 PUSH1 0x40 ADD PUSH1 0x40 MSTORE DUP1 PUSH1 0x6 DUP2 MSTORE PUSH1 0x20 ADD PUSH32 0x4F726967696E0000000000000000000000000000000000000000000000000000 DUP2 MSTORE POP DUP2 MSTORE PUSH1 0x20 ADD PUSH0 PUSH1 0x4 DUP2 GT ISZERO PUSH2 0xBCB JUMPI PUSH2 0xBCA PUSH2 0x12D6 JUMP JUMPDEST JUMPDEST DUP2 MSTORE PUSH1 0x20 ADD TIMESTAMP DUP2 MSTORE PUSH1 0x20 ADD PUSH1 0x1 ISZERO ISZERO DUP2 MSTORE POP PUSH0 DUP1 DUP7 DUP2 MSTORE PUSH1 0x20 ADD SWAP1 DUP2 MSTORE PUSH1 0x20 ADD PUSH0 KECCAK256 PUSH0 DUP3 ADD MLOAD DUP2 PUSH0 ADD SSTORE PUSH1 0x20 DUP3 ADD MLOAD DUP2 PUSH1 0x1 ADD SSTORE PUSH1 0x40 DUP3 ADD MLOAD DUP2 PUSH1 0x2 ADD PUSH0 PUSH2 0x100 EXP DUP2 SLOAD DUP2 PUSH20 0xFFFFFFFFFFFFFFFFFFFFFFFFFFFFFFFFFFFFFFFF MUL NOT AND SWAP1 DUP4 PUSH20 0xFFFFFFFFFFFFFFFFFFFFFFFFFFFFFFFFFFFFFFFF AND MUL OR SWAP1 SSTORE POP PUSH1 0x60 DUP3 ADD MLOAD DUP2 PUSH1 0x3 ADD SSTORE PUSH1 0x80 DUP3 ADD MLOAD DUP2 PUSH1 0x4 ADD SWAP1 DUP2 PUSH2 0xC64 SWAP2 SWAP1 PUSH2 0x1C98 JUMP JUMPDEST POP PUSH1 0xA0 DUP3 ADD MLOAD DUP2 PUSH1 0x5 ADD PUSH0 PUSH2 0x100 EXP DUP2 SLOAD DUP2 PUSH1 0xFF MUL NOT AND SWAP1 DUP4 PUSH1 0x4 DUP2 GT ISZERO PUSH2 0xC8F JUMPI PUSH2 0xC8E PUSH2 0x12D6 JUMP JUMPDEST JUMPDEST MUL OR SWAP1 SSTORE POP PUSH1 0xC0 DUP3 ADD MLOAD DUP2 PUSH1 0x6 ADD SSTORE PUSH1 0xE0 DUP3 ADD MLOAD DUP2 PUSH1 0x7 ADD PUSH0 PUSH2 0x100 EXP DUP2 SLOAD DUP2 PUSH1 0xFF MUL NOT AND SWAP1 DUP4 ISZERO ISZERO MUL OR SWAP1 SSTORE POP SWAP1 POP POP DUP2 PUSH20 0xFFFFFFFFFFFFFFFFFFFFFFFFFFFFFFFFFFFFFFFF AND DUP5 PUSH32 0x5C8F217B762956F50A21D6D5A6FEEC2DA8373EC81EC9806F2D2570BD97671062 DUP6 DUP5 PUSH1 0x40 MLOAD PUSH2 0xD09 SWAP3 SWAP2 SWAP1 PUSH2 0x1D67 JUMP JUMPDEST PUSH1 0x40 MLOAD DUP1 SWAP2 SUB SWAP1 LOG3 POP POP POP POP JUMP JUMPDEST PUSH1 0x1 PUSH0 CALLER PUSH20 0xFFFFFFFFFFFFFFFFFFFFFFFFFFFFFFFFFFFFFFFF AND PUSH20 0xFFFFFFFFFFFFFFFFFFFFFFFFFFFFFFFFFFFFFFFF AND DUP2 MSTORE PUSH1 0x20 ADD SWAP1 DUP2 MSTORE PUSH1 0x20 ADD PUSH0 KECCAK256 PUSH0 SWAP1 SLOAD SWAP1 PUSH2 0x100 EXP SWAP1 DIV PUSH1 0xFF AND PUSH2 0xDA0 JUMPI PUSH1 0x40 MLOAD PUSH32 0x8C379A000000000000000000000000000000000000000000000000000000000 DUP2 MSTORE PUSH1 0x4 ADD PUSH2 0xD97 SWAP1 PUSH2 0x1715 JUMP JUMPDEST PUSH1 0x40 MLOAD DUP1 SWAP2 SUB SWAP1 REVERT JUMPDEST PUSH1 0x2 PUSH0 SWAP1 SLOAD SWAP1 PUSH2 0x100 EXP SWAP1 DIV PUSH1 0xFF AND ISZERO PUSH2 0xDEF JUMPI PUSH1 0x40 MLOAD PUSH32 0x8C379A000000000000000000000000000000000000000000000000000000000 DUP2 MSTORE PUSH1 0x4 ADD PUSH2 0xDE6 SWAP1 PUSH2 0x17A3 JUMP JUMPDEST PUSH1 0x40 MLOAD DUP1 SWAP2 SUB SWAP1 REVERT JUMPDEST PUSH1 0x1 PUSH0 DUP3 PUSH20 0xFFFFFFFFFFFFFFFFFFFFFFFFFFFFFFFFFFFFFFFF AND PUSH20 0xFFFFFFFFFFFFFFFFFFFFFFFFFFFFFFFFFFFFFFFF AND DUP2 MSTORE PUSH1 0x20 ADD SWAP1 DUP2 MSTORE PUSH1 0x20 ADD PUSH0 KECCAK256 PUSH0 SWAP1 SLOAD SWAP1 PUSH2 0x100 EXP SWAP1 DIV PUSH1 0xFF AND PUSH2 0xE78 JUMPI PUSH1 0x40 MLOAD PUSH32 0x8C379A000000000000000000000000000000000000000000000000000000000 DUP2 MSTORE PUSH1 0x4 ADD PUSH2 0xE6F SWAP1 PUSH2 0x1DD8 JUMP JUMPDEST PUSH1 0x40 MLOAD DUP1 SWAP2 SUB SWAP1 REVERT JUMPDEST PUSH0 PUSH1 0x1 PUSH0 DUP4 PUSH20 0xFFFFFFFFFFFFFFFFFFFFFFFFFFFFFFFFFFFFFFFF AND PUSH20 0xFFFFFFFFFFFFFFFFFFFFFFFFFFFFFFFFFFFFFFFF AND DUP2 MSTORE PUSH1 0x20 ADD SWAP1 DUP2 MSTORE PUSH1 0x20 ADD PUSH0 KECCAK256 PUSH0 PUSH2 0x100 EXP DUP2 SLOAD DUP2 PUSH1 0xFF MUL NOT AND SWAP1 DUP4 ISZERO ISZERO MUL OR SWAP1 SSTORE POP DUP1 PUSH20 0xFFFFFFFFFFFFFFFFFFFFFFFFFFFFFFFFFFFFFFFF AND PUSH32 0xEF69F7D97228658C92417BE1B16B19058315DE71FECB435D07B7D23728B6BD31 PUSH1 0x40 MLOAD PUSH1 0x40 MLOAD DUP1 SWAP2 SUB SWAP1 LOG2 POP JUMP JUMPDEST PUSH1 0x1 PUSH0 CALLER PUSH20 0xFFFFFFFFFFFFFFFFFFFFFFFFFFFFFFFFFFFFFFFF AND PUSH20 0xFFFFFFFFFFFFFFFFFFFFFFFFFFFFFFFFFFFFFFFF AND DUP2 MSTORE PUSH1 0x20 ADD SWAP1 DUP2 MSTORE PUSH1 0x20 ADD PUSH0 KECCAK256 PUSH0 SWAP1 SLOAD SWAP1 PUSH2 0x100 EXP SWAP1 DIV PUSH1 0xFF AND PUSH2 0xF9B JUMPI PUSH1 0x40 MLOAD PUSH32 0x8C379A000000000000000000000000000000000000000000000000000000000 DUP2 MSTORE PUSH1 0x4 ADD PUSH2 0xF92 SWAP1 PUSH2 0x1715 JUMP JUMPDEST PUSH1 0x40 MLOAD DUP1 SWAP2 SUB SWAP1 REVERT JUMPDEST PUSH0 PUSH1 0x2 PUSH0 PUSH2 0x100 EXP DUP2 SLOAD DUP2 PUSH1 0xFF MUL NOT AND SWAP1 DUP4 ISZERO ISZERO MUL OR SWAP1 SSTORE POP JUMP JUMPDEST PUSH1 0x1 PUSH0 CALLER PUSH20 0xFFFFFFFFFFFFFFFFFFFFFFFFFFFFFFFFFFFFFFFF AND PUSH20 0xFFFFFFFFFFFFFFFFFFFFFFFFFFFFFFFFFFFFFFFF AND DUP2 MSTORE PUSH1 0x20 ADD SWAP1 DUP2 MSTORE PUSH1 0x20 ADD PUSH0 KECCAK256 PUSH0 SWAP1 SLOAD SWAP1 PUSH2 0x100 EXP SWAP1 DIV PUSH1 0xFF AND PUSH2 0x103F JUMPI PUSH1 0x40 MLOAD PUSH32 0x8C379A000000000000000000000000000000000000000000000000000000000 DUP2 MSTORE PUSH1 0x4 ADD PUSH2 0x1036 SWAP1 PUSH2 0x1715 JUMP JUMPDEST PUSH1 0x40 MLOAD DUP1 SWAP2 SUB SWAP1 REVERT JUMPDEST PUSH1 0x2 PUSH0 SWAP1 SLOAD SWAP1 PUSH2 0x100 EXP SWAP1 DIV PUSH1 0xFF AND ISZERO PUSH2 0x108E JUMPI PUSH1 0x40 MLOAD PUSH32 0x8C379A000000000000000000000000000000000000000000000000000000000 DUP2 MSTORE PUSH1 0x4 ADD PUSH2 0x1085 SWAP1 PUSH2 0x17A3 JUMP JUMPDEST PUSH1 0x40 MLOAD DUP1 SWAP2 SUB SWAP1 REVERT JUMPDEST PUSH1 0x1 PUSH0 DUP3 PUSH20 0xFFFFFFFFFFFFFFFFFFFFFFFFFFFFFFFFFFFFFFFF AND PUSH20 0xFFFFFFFFFFFFFFFFFFFFFFFFFFFFFFFFFFFFFFFF AND DUP2 MSTORE PUSH1 0x20 ADD SWAP1 DUP2 MSTORE PUSH1 0x20 ADD PUSH0 KECCAK256 PUSH0 SWAP1 SLOAD SWAP1 PUSH2 0x100 EXP SWAP1 DIV PUSH1 0xFF AND ISZERO PUSH2 0x1118 JUMPI PUSH1 0x40 MLOAD PUSH32 0x8C379A000000000000000000000000000000000000000000000000000000000 DUP2 MSTORE PUSH1 0x4 ADD PUSH2 0x110F SWAP1 PUSH2 0x1E66 JUMP JUMPDEST PUSH1 0x40 MLOAD DUP1 SWAP2 SUB SWAP1 REVERT JUMPDEST PUSH1 0x1 DUP1 PUSH0 DUP4 PUSH20 0xFFFFFFFFFFFFFFFFFFFFFFFFFFFFFFFFFFFFFFFF AND PUSH20 0xFFFFFFFFFFFFFFFFFFFFFFFFFFFFFFFFFFFFFFFF AND DUP2 MSTORE PUSH1 0x20 ADD SWAP1 DUP2 MSTORE PUSH1 0x20 ADD PUSH0 KECCAK256 PUSH0 PUSH2 0x100 EXP DUP2 SLOAD DUP2 PUSH1 0xFF MUL NOT AND SWAP1 DUP4 ISZERO ISZERO MUL OR SWAP1 SSTORE POP DUP1 PUSH20 0xFFFFFFFFFFFFFFFFFFFFFFFFFFFFFFFFFFFFFFFF AND PUSH32 0x450AD6A6AC3C2E8B8A02820CB64D6102A1F91EBE1FA3848A0CFC45C870C043AF PUSH1 0x40 MLOAD PUSH1 0x40 MLOAD DUP1 SWAP2 SUB SWAP1 LOG2 POP JUMP JUMPDEST PUSH0 DUP1 REVERT JUMPDEST PUSH0 DUP1 REVERT JUMPDEST PUSH0 DUP2 SWAP1 POP SWAP2 SWAP1 POP JUMP JUMPDEST PUSH2 0x11CC DUP2 PUSH2 0x11BA JUMP JUMPDEST DUP2 EQ PUSH2 0x11D6 JUMPI PUSH0 DUP1 REVERT JUMPDEST POP JUMP JUMPDEST PUSH0 DUP2 CALLDATALOAD SWAP1 POP PUSH2 0x11E7 DUP2 PUSH2 0x11C3 JUMP JUMPDEST SWAP3 SWAP2 POP POP JUMP JUMPDEST PUSH0 PUSH1 0x20 DUP3 DUP5 SUB SLT ISZERO PUSH2 0x1202 JUMPI PUSH2 0x1201 PUSH2 0x11B2 JUMP JUMPDEST JUMPDEST PUSH0 PUSH2 0x120F DUP5 DUP3 DUP6 ADD PUSH2 0x11D9 JUMP JUMPDEST SWAP2 POP POP SWAP3 SWAP2 POP POP JUMP JUMPDEST PUSH2 0x1221 DUP2 PUSH2 0x11BA JUMP JUMPDEST DUP3 MSTORE POP POP JUMP JUMPDEST PUSH0 PUSH20 0xFFFFFFFFFFFFFFFFFFFFFFFFFFFFFFFFFFFFFFFF DUP3 AND SWAP1 POP SWAP2 SWAP1 POP JUMP JUMPDEST PUSH0 PUSH2 0x1250 DUP3 PUSH2 0x1227 JUMP JUMPDEST SWAP1 POP SWAP2 SWAP1 POP JUMP JUMPDEST PUSH2 0x1260 DUP2 PUSH2 0x1246 JUMP JUMPDEST DUP3 MSTORE POP POP JUMP JUMPDEST PUSH0 DUP2 MLOAD SWAP1 POP SWAP2 SWAP1 POP JUMP JUMPDEST PUSH0 DUP3 DUP3 MSTORE PUSH1 0x20 DUP3 ADD SWAP1 POP SWAP3 SWAP2 POP POP JUMP JUMPDEST DUP3 DUP2 DUP4 MCOPY PUSH0 DUP4 DUP4 ADD MSTORE POP POP POP JUMP JUMPDEST PUSH0 PUSH1 0x1F NOT PUSH1 0x1F DUP4 ADD AND SWAP1 POP SWAP2 SWAP1 POP JUMP JUMPDEST PUSH0 PUSH2 0x12A8 DUP3 PUSH2 0x1266 JUMP JUMPDEST PUSH2 0x12B2 DUP2 DUP6 PUSH2 0x1270 JUMP JUMPDEST SWAP4 POP PUSH2 0x12C2 DUP2 DUP6 PUSH1 0x20 DUP7 ADD PUSH2 0x1280 JUMP JUMPDEST PUSH2 0x12CB DUP2 PUSH2 0x128E JUMP JUMPDEST DUP5 ADD SWAP2 POP POP SWAP3 SWAP2 POP POP JUMP JUMPDEST PUSH32 0x4E487B7100000000000000000000000000000000000000000000000000000000 PUSH0 MSTORE PUSH1 0x21 PUSH1 0x4 MSTORE PUSH1 0x24 PUSH0 REVERT JUMPDEST PUSH1 0x5 DUP2 LT PUSH2 0x1314 JUMPI PUSH2 0x1313 PUSH2 0x12D6 JUMP JUMPDEST JUMPDEST POP JUMP JUMPDEST PUSH0 DUP2 SWAP1 POP PUSH2 0x1324 DUP3 PUSH2 0x1303 JUMP JUMPDEST SWAP2 SWAP1 POP JUMP JUMPDEST PUSH0 PUSH2 0x1333 DUP3 PUSH2 0x1317 JUMP JUMPDEST SWAP1 POP SWAP2 SWAP1 POP JUMP JUMPDEST PUSH2 0x1343 DUP2 PUSH2 0x1329 JUMP JUMPDEST DUP3 MSTORE POP POP JUMP JUMPDEST PUSH0 PUSH1 0xC0 DUP3 ADD SWAP1 POP PUSH2 0x135C PUSH0 DUP4 ADD DUP10 PUSH2 0x1218 JUMP JUMPDEST PUSH2 0x1369 PUSH1 0x20 DUP4 ADD DUP9 PUSH2 0x1257 JUMP JUMPDEST PUSH2 0x1376 PUSH1 0x40 DUP4 ADD DUP8 PUSH2 0x1218 JUMP JUMPDEST DUP2 DUP2 SUB PUSH1 0x60 DUP4 ADD MSTORE PUSH2 0x1388 DUP2 DUP7 PUSH2 0x129E JUMP JUMPDEST SWAP1 POP PUSH2 0x1397 PUSH1 0x80 DUP4 ADD DUP6 PUSH2 0x133A JUMP JUMPDEST PUSH2 0x13A4 PUSH1 0xA0 DUP4 ADD DUP5 PUSH2 0x1218 JUMP JUMPDEST SWAP8 SWAP7 POP POP POP POP POP POP POP JUMP JUMPDEST PUSH1 0x5 DUP2 LT PUSH2 0x13BB JUMPI PUSH0 DUP1 REVERT JUMPDEST POP JUMP JUMPDEST PUSH0 DUP2 CALLDATALOAD SWAP1 POP PUSH2 0x13CC DUP2 PUSH2 0x13AF JUMP JUMPDEST SWAP3 SWAP2 POP POP JUMP JUMPDEST PUSH0 DUP1 REVERT JUMPDEST PUSH0 DUP1 REVERT JUMPDEST PUSH0 DUP1 REVERT JUMPDEST PUSH0 DUP1 DUP4 PUSH1 0x1F DUP5 ADD SLT PUSH2 0x13F3 JUMPI PUSH2 0x13F2 PUSH2 0x13D2 JUMP JUMPDEST JUMPDEST DUP3 CALLDATALOAD SWAP1 POP PUSH8 0xFFFFFFFFFFFFFFFF DUP2 GT ISZERO PUSH2 0x1410 JUMPI PUSH2 0x140F PUSH2 0x13D6 JUMP JUMPDEST JUMPDEST PUSH1 0x20 DUP4 ADD SWAP2 POP DUP4 PUSH1 0x1 DUP3 MUL DUP4 ADD GT ISZERO PUSH2 0x142C JUMPI PUSH2 0x142B PUSH2 0x13DA JUMP JUMPDEST JUMPDEST SWAP3 POP SWAP3 SWAP1 POP JUMP JUMPDEST PUSH0 DUP1 PUSH0 DUP1 PUSH1 0x60 DUP6 DUP8 SUB SLT ISZERO PUSH2 0x144B JUMPI PUSH2 0x144A PUSH2 0x11B2 JUMP JUMPDEST JUMPDEST PUSH0 PUSH2 0x1458 DUP8 DUP3 DUP9 ADD PUSH2 0x11D9 JUMP JUMPDEST SWAP5 POP POP PUSH1 0x20 PUSH2 0x1469 DUP8 DUP3 DUP9 ADD PUSH2 0x13BE JUMP JUMPDEST SWAP4 POP POP PUSH1 0x40 DUP6 ADD CALLDATALOAD PUSH8 0xFFFFFFFFFFFFFFFF DUP2 GT ISZERO PUSH2 0x148A JUMPI PUSH2 0x1489 PUSH2 0x11B6 JUMP JUMPDEST JUMPDEST PUSH2 0x1496 DUP8 DUP3 DUP9 ADD PUSH2 0x13DE JUMP JUMPDEST SWAP3 POP SWAP3 POP POP SWAP3 SWAP6 SWAP2 SWAP5 POP SWAP3 POP JUMP JUMPDEST PUSH0 DUP1 PUSH0 PUSH1 0x40 DUP5 DUP7 SUB SLT ISZERO PUSH2 0x14BB JUMPI PUSH2 0x14BA PUSH2 0x11B2 JUMP JUMPDEST JUMPDEST PUSH0 PUSH2 0x14C8 DUP7 DUP3 DUP8 ADD PUSH2 0x11D9 JUMP JUMPDEST SWAP4 POP POP PUSH1 0x20 DUP5 ADD CALLDATALOAD PUSH8 0xFFFFFFFFFFFFFFFF DUP2 GT ISZERO PUSH2 0x14E9 JUMPI PUSH2 0x14E8 PUSH2 0x11B6 JUMP JUMPDEST JUMPDEST PUSH2 0x14F5 DUP7 DUP3 DUP8 ADD PUSH2 0x13DE JUMP JUMPDEST SWAP3 POP SWAP3 POP POP SWAP3 POP SWAP3 POP SWAP3 JUMP JUMPDEST PUSH2 0x150A DUP2 PUSH2 0x1246 JUMP JUMPDEST DUP2 EQ PUSH2 0x1514 JUMPI PUSH0 DUP1 REVERT JUMPDEST POP JUMP JUMPDEST PUSH0 DUP2 CALLDATALOAD SWAP1 POP PUSH2 0x1525 DUP2 PUSH2 0x1501 JUMP JUMPDEST SWAP3 SWAP2 POP POP JUMP JUMPDEST PUSH0 DUP1 PUSH0 DUP1 PUSH1 0x80 DUP6 DUP8 SUB SLT ISZERO PUSH2 0x1543 JUMPI PUSH2 0x1542 PUSH2 0x11B2 JUMP JUMPDEST JUMPDEST PUSH0 PUSH2 0x1550 DUP8 DUP3 DUP9 ADD PUSH2 0x11D9 JUMP JUMPDEST SWAP5 POP POP PUSH1 0x20 PUSH2 0x1561 DUP8 DUP3 DUP9 ADD PUSH2 0x11D9 JUMP JUMPDEST SWAP4 POP POP PUSH1 0x40 PUSH2 0x1572 DUP8 DUP3 DUP9 ADD PUSH2 0x1517 JUMP JUMPDEST SWAP3 POP POP PUSH1 0x60 PUSH2 0x1583 DUP8 DUP3 DUP9 ADD PUSH2 0x11D9 JUMP JUMPDEST SWAP2 POP POP SWAP3 SWAP6 SWAP2 SWAP5 POP SWAP3 POP JUMP JUMPDEST PUSH0 PUSH1 0x20 DUP3 DUP5 SUB SLT ISZERO PUSH2 0x15A4 JUMPI PUSH2 0x15A3 PUSH2 0x11B2 JUMP JUMPDEST JUMPDEST PUSH0 PUSH2 0x15B1 DUP5 DUP3 DUP6 ADD PUSH2 0x1517 JUMP JUMPDEST SWAP2 POP POP SWAP3 SWAP2 POP POP JUMP JUMPDEST PUSH32 0x5175657279204572726F723A20536869706D656E74206E6F7420726567697374 PUSH0 DUP3 ADD MSTORE PUSH32 0x6572656400000000000000000000000000000000000000000000000000000000 PUSH1 0x20 DUP3 ADD MSTORE POP JUMP JUMPDEST PUSH0 PUSH2 0x1614 PUSH1 0x24 DUP4 PUSH2 0x1270 JUMP JUMPDEST SWAP2 POP PUSH2 0x161F DUP3 PUSH2 0x15BA JUMP JUMPDEST PUSH1 0x40 DUP3 ADD SWAP1 POP SWAP2 SWAP1 POP JUMP JUMPDEST PUSH0 PUSH1 0x20 DUP3 ADD SWAP1 POP DUP2 DUP2 SUB PUSH0 DUP4 ADD MSTORE PUSH2 0x1641 DUP2 PUSH2 0x1608 JUMP JUMPDEST SWAP1 POP SWAP2 SWAP1 POP JUMP JUMPDEST PUSH32 0x4E487B7100000000000000000000000000000000000000000000000000000000 PUSH0 MSTORE PUSH1 0x22 PUSH1 0x4 MSTORE PUSH1 0x24 PUSH0 REVERT JUMPDEST PUSH0 PUSH1 0x2 DUP3 DIV SWAP1 POP PUSH1 0x1 DUP3 AND DUP1 PUSH2 0x168C JUMPI PUSH1 0x7F DUP3 AND SWAP2 POP JUMPDEST PUSH1 0x20 DUP3 LT DUP2 SUB PUSH2 0x169F JUMPI PUSH2 0x169E PUSH2 0x1648 JUMP JUMPDEST JUMPDEST POP SWAP2 SWAP1 POP JUMP JUMPDEST PUSH32 0x4163636573732044656E6965643A204E6F7420616E20617574686F72697A6564 PUSH0 DUP3 ADD MSTORE PUSH32 0x206D616E61676572000000000000000000000000000000000000000000000000 PUSH1 0x20 DUP3 ADD MSTORE POP JUMP JUMPDEST PUSH0 PUSH2 0x16FF PUSH1 0x28 DUP4 PUSH2 0x1270 JUMP JUMPDEST SWAP2 POP PUSH2 0x170A DUP3 PUSH2 0x16A5 JUMP JUMPDEST PUSH1 0x40 DUP3 ADD SWAP1 POP SWAP2 SWAP1 POP JUMP JUMPDEST PUSH0 PUSH1 0x20 DUP3 ADD SWAP1 POP DUP2 DUP2 SUB PUSH0 DUP4 ADD MSTORE PUSH2 0x172C DUP2 PUSH2 0x16F3 JUMP JUMPDEST SWAP1 POP SWAP2 SWAP1 POP JUMP JUMPDEST PUSH32 0x4F7065726174696F6E204572726F723A20436F6E747261637420697320706175 PUSH0 DUP3 ADD MSTORE PUSH32 0x7365640000000000000000000000000000000000000000000000000000000000 PUSH1 0x20 DUP3 ADD MSTORE POP JUMP JUMPDEST PUSH0 PUSH2 0x178D PUSH1 0x23 DUP4 PUSH2 0x1270 JUMP JUMPDEST SWAP2 POP PUSH2 0x1798 DUP3 PUSH2 0x1733 JUMP JUMPDEST PUSH1 0x40 DUP3 ADD SWAP1 POP SWAP2 SWAP1 POP JUMP JUMPDEST PUSH0 PUSH1 0x20 DUP3 ADD SWAP1 POP DUP2 DUP2 SUB PUSH0 DUP4 ADD MSTORE PUSH2 0x17BA DUP2 PUSH2 0x1781 JUMP JUMPDEST SWAP1 POP SWAP2 SWAP1 POP JUMP JUMPDEST PUSH0 DUP3 SWAP1 POP SWAP3 SWAP2 POP POP JUMP JUMPDEST PUSH32 0x4E487B7100000000000000000000000000000000000000000000000000000000 PUSH0 MSTORE PUSH1 0x41 PUSH1 0x4 MSTORE PUSH1 0x24 PUSH0 REVERT JUMPDEST PUSH0 DUP2 SWAP1 POP DUP2 PUSH0 MSTORE PUSH1 0x20 PUSH0 KECCAK256 SWAP1 POP SWAP2 SWAP1 POP JUMP JUMPDEST PUSH0 PUSH1 0x20 PUSH1 0x1F DUP4 ADD DIV SWAP1 POP SWAP2 SWAP1 POP JUMP JUMPDEST PUSH0 DUP3 DUP3 SHL SWAP1 POP SWAP3 SWAP2 POP POP JUMP JUMPDEST PUSH0 PUSH1 0x8 DUP4 MUL PUSH2 0x1854 PUSH32 0xFFFFFFFFFFFFFFFFFFFFFFFFFFFFFFFFFFFFFFFFFFFFFFFFFFFFFFFFFFFFFFFF DUP3 PUSH2 0x1819 JUMP JUMPDEST PUSH2 0x185E DUP7 DUP4 PUSH2 0x1819 JUMP JUMPDEST SWAP6 POP DUP1 NOT DUP5 AND SWAP4 POP DUP1 DUP7 AND DUP5 OR SWAP3 POP POP POP SWAP4 SWAP3 POP POP POP JUMP JUMPDEST PUSH0 DUP2 SWAP1 POP SWAP2 SWAP1 POP JUMP JUMPDEST PUSH0 PUSH2 0x1899 PUSH2 0x1894 PUSH2 0x188F DUP5 PUSH2 0x11BA JUMP JUMPDEST PUSH2 0x1876 JUMP JUMPDEST PUSH2 0x11BA JUMP JUMPDEST SWAP1 POP SWAP2 SWAP1 POP JUMP JUMPDEST PUSH0 DUP2 SWAP1 POP SWAP2 SWAP1 POP JUMP JUMPDEST PUSH2 0x18B2 DUP4 PUSH2 0x187F JUMP JUMPDEST PUSH2 0x18C6 PUSH2 0x18BE DUP3 PUSH2 0x18A0 JUMP JUMPDEST DUP5 DUP5 SLOAD PUSH2 0x1825 JUMP JUMPDEST DUP3 SSTORE POP POP POP POP JUMP JUMPDEST PUSH0 SWAP1 JUMP JUMPDEST PUSH2 0x18DA PUSH2 0x18CE JUMP JUMPDEST PUSH2 0x18E5 DUP2 DUP5 DUP5 PUSH2 0x18A9 JUMP JUMPDEST POP POP POP JUMP JUMPDEST JUMPDEST DUP2 DUP2 LT ISZERO PUSH2 0x1908 JUMPI PUSH2 0x18FD PUSH0 DUP3 PUSH2 0x18D2 JUMP JUMPDEST PUSH1 0x1 DUP2 ADD SWAP1 POP PUSH2 0x18EB JUMP JUMPDEST POP POP JUMP JUMPDEST PUSH1 0x1F DUP3 GT ISZERO PUSH2 0x194D JUMPI PUSH2 0x191E DUP2 PUSH2 0x17F8 JUMP JUMPDEST PUSH2 0x1927 DUP5 PUSH2 0x180A JUMP JUMPDEST DUP2 ADD PUSH1 0x20 DUP6 LT ISZERO PUSH2 0x1936 JUMPI DUP2 SWAP1 POP JUMPDEST PUSH2 0x194A PUSH2 0x1942 DUP6 PUSH2 0x180A JUMP JUMPDEST DUP4 ADD DUP3 PUSH2 0x18EA JUMP JUMPDEST POP POP JUMPDEST POP POP POP JUMP JUMPDEST PUSH0 DUP3 DUP3 SHR SWAP1 POP SWAP3 SWAP2 POP POP JUMP JUMPDEST PUSH0 PUSH2 0x196D PUSH0 NOT DUP5 PUSH1 0x8 MUL PUSH2 0x1952 JUMP JUMPDEST NOT DUP1 DUP4 AND SWAP2 POP POP SWAP3 SWAP2 POP POP JUMP JUMPDEST PUSH0 PUSH2 0x1985 DUP4 DUP4 PUSH2 0x195E JUMP JUMPDEST SWAP2 POP DUP3 PUSH1 0x2 MUL DUP3 OR SWAP1 POP SWAP3 SWAP2 POP POP JUMP JUMPDEST PUSH2 0x199F DUP4 DUP4 PUSH2 0x17C1 JUMP JUMPDEST PUSH8 0xFFFFFFFFFFFFFFFF DUP2 GT ISZERO PUSH2 0x19B8 JUMPI PUSH2 0x19B7 PUSH2 0x17CB JUMP JUMPDEST JUMPDEST PUSH2 0x19C2 DUP3 SLOAD PUSH2 0x1675 JUMP JUMPDEST PUSH2 0x19CD DUP3 DUP3 DUP6 PUSH2 0x190C JUMP JUMPDEST PUSH0 PUSH1 0x1F DUP4 GT PUSH1 0x1 DUP2 EQ PUSH2 0x19FA JUMPI PUSH0 DUP5 ISZERO PUSH2 0x19E8 JUMPI DUP3 DUP8 ADD CALLDATALOAD SWAP1 POP JUMPDEST PUSH2 0x19F2 DUP6 DUP3 PUSH2 0x197A JUMP JUMPDEST DUP7 SSTORE POP PUSH2 0x1A59 JUMP JUMPDEST PUSH1 0x1F NOT DUP5 AND PUSH2 0x1A08 DUP7 PUSH2 0x17F8 JUMP JUMPDEST PUSH0 JUMPDEST DUP3 DUP2 LT ISZERO PUSH2 0x1A2F JUMPI DUP5 DUP10 ADD CALLDATALOAD DUP3 SSTORE PUSH1 0x1 DUP3 ADD SWAP2 POP PUSH1 0x20 DUP6 ADD SWAP5 POP PUSH1 0x20 DUP2 ADD SWAP1 POP PUSH2 0x1A0A JUMP JUMPDEST DUP7 DUP4 LT ISZERO PUSH2 0x1A4C JUMPI DUP5 DUP10 ADD CALLDATALOAD PUSH2 0x1A48 PUSH1 0x1F DUP10 AND DUP3 PUSH2 0x195E JUMP JUMPDEST DUP4 SSTORE POP JUMPDEST PUSH1 0x1 PUSH1 0x2 DUP9 MUL ADD DUP9 SSTORE POP POP POP JUMPDEST POP POP POP POP POP POP POP JUMP JUMPDEST DUP3 DUP2 DUP4 CALLDATACOPY PUSH0 DUP4 DUP4 ADD MSTORE POP POP POP JUMP JUMPDEST PUSH0 PUSH2 0x1A7B DUP4 DUP6 PUSH2 0x1270 JUMP JUMPDEST SWAP4 POP PUSH2 0x1A88 DUP4 DUP6 DUP5 PUSH2 0x1A62 JUMP JUMPDEST PUSH2 0x1A91 DUP4 PUSH2 0x128E JUMP JUMPDEST DUP5 ADD SWAP1 POP SWAP4 SWAP3 POP POP POP JUMP JUMPDEST PUSH0 PUSH1 0x40 DUP3 ADD SWAP1 POP PUSH2 0x1AAF PUSH0 DUP4 ADD DUP7 PUSH2 0x133A JUMP JUMPDEST DUP2 DUP2 SUB PUSH1 0x20 DUP4 ADD MSTORE PUSH2 0x1AC2 DUP2 DUP5 DUP7 PUSH2 0x1A70 JUMP JUMPDEST SWAP1 POP SWAP5 SWAP4 POP POP POP POP JUMP JUMPDEST PUSH32 0x50656E616C7479204572726F723A20536869706D656E74206E6F742064656C61 PUSH0 DUP3 ADD MSTORE PUSH32 0x796564206F72206C6F7374000000000000000000000000000000000000000000 PUSH1 0x20 DUP3 ADD MSTORE POP JUMP JUMPDEST PUSH0 PUSH2 0x1B26 PUSH1 0x2B DUP4 PUSH2 0x1270 JUMP JUMPDEST SWAP2 POP PUSH2 0x1B31 DUP3 PUSH2 0x1ACC JUMP JUMPDEST PUSH1 0x40 DUP3 ADD SWAP1 POP SWAP2 SWAP1 POP JUMP JUMPDEST PUSH0 PUSH1 0x20 DUP3 ADD SWAP1 POP DUP2 DUP2 SUB PUSH0 DUP4 ADD MSTORE PUSH2 0x1B53 DUP2 PUSH2 0x1B1A JUMP JUMPDEST SWAP1 POP SWAP2 SWAP1 POP JUMP JUMPDEST PUSH0 PUSH1 0x20 DUP3 ADD SWAP1 POP DUP2 DUP2 SUB PUSH0 DUP4 ADD MSTORE PUSH2 0x1B73 DUP2 DUP5 DUP7 PUSH2 0x1A70 JUMP JUMPDEST SWAP1 POP SWAP4 SWAP3 POP POP POP JUMP JUMPDEST PUSH32 0x4372656174696F6E204572726F723A20536869706D656E7420616C7265616479 PUSH0 DUP3 ADD MSTORE PUSH32 0x2065786973747300000000000000000000000000000000000000000000000000 PUSH1 0x20 DUP3 ADD MSTORE POP JUMP JUMPDEST PUSH0 PUSH2 0x1BD6 PUSH1 0x27 DUP4 PUSH2 0x1270 JUMP JUMPDEST SWAP2 POP PUSH2 0x1BE1 DUP3 PUSH2 0x1B7C JUMP JUMPDEST PUSH1 0x40 DUP3 ADD SWAP1 POP SWAP2 SWAP1 POP JUMP JUMPDEST PUSH0 PUSH1 0x20 DUP3 ADD SWAP1 POP DUP2 DUP2 SUB PUSH0 DUP4 ADD MSTORE PUSH2 0x1C03 DUP2 PUSH2 0x1BCA JUMP JUMPDEST SWAP1 POP SWAP2 SWAP1 POP JUMP JUMPDEST PUSH32 0x4372656174696F6E204572726F723A20496E76616C6964207472616E73706F72 PUSH0 DUP3 ADD MSTORE PUSH32 0x7465722061646472657373000000000000000000000000000000000000000000 PUSH1 0x20 DUP3 ADD MSTORE POP JUMP JUMPDEST PUSH0 PUSH2 0x1C64 PUSH1 0x2B DUP4 PUSH2 0x1270 JUMP JUMPDEST SWAP2 POP PUSH2 0x1C6F DUP3 PUSH2 0x1C0A JUMP JUMPDEST PUSH1 0x40 DUP3 ADD SWAP1 POP SWAP2 SWAP1 POP JUMP JUMPDEST PUSH0 PUSH1 0x20 DUP3 ADD SWAP1 POP DUP2 DUP2 SUB PUSH0 DUP4 ADD MSTORE PUSH2 0x1C91 DUP2 PUSH2 0x1C58 JUMP JUMPDEST SWAP1 POP SWAP2 SWAP1 POP JUMP JUMPDEST PUSH2 0x1CA1 DUP3 PUSH2 0x1266 JUMP JUMPDEST PUSH8 0xFFFFFFFFFFFFFFFF DUP2 GT ISZERO PUSH2 0x1CBA JUMPI PUSH2 0x1CB9 PUSH2 0x17CB JUMP JUMPDEST JUMPDEST PUSH2 0x1CC4 DUP3 SLOAD PUSH2 0x1675 JUMP JUMPDEST PUSH2 0x1CCF DUP3 DUP3 DUP6 PUSH2 0x190C JUMP JUMPDEST PUSH0 PUSH1 0x20 SWAP1 POP PUSH1 0x1F DUP4 GT PUSH1 0x1 DUP2 EQ PUSH2 0x1D00 JUMPI PUSH0 DUP5 ISZERO PUSH2 0x1CEE JUMPI DUP3 DUP8 ADD MLOAD SWAP1 POP JUMPDEST PUSH2 0x1CF8 DUP6 DUP3 PUSH2 0x197A JUMP JUMPDEST DUP7 SSTORE POP PUSH2 0x1D5F JUMP JUMPDEST PUSH1 0x1F NOT DUP5 AND PUSH2 0x1D0E DUP7 PUSH2 0x17F8 JUMP JUMPDEST PUSH0 JUMPDEST DUP3 DUP2 LT ISZERO PUSH2 0x1D35 JUMPI DUP5 DUP10 ADD MLOAD DUP3 SSTORE PUSH1 0x1 DUP3 ADD SWAP2 POP PUSH1 0x20 DUP6 ADD SWAP5 POP PUSH1 0x20 DUP2 ADD SWAP1 POP PUSH2 0x1D10 JUMP JUMPDEST DUP7 DUP4 LT ISZERO PUSH2 0x1D52 JUMPI DUP5 DUP10 ADD MLOAD PUSH2 0x1D4E PUSH1 0x1F DUP10 AND DUP3 PUSH2 0x195E JUMP JUMPDEST DUP4 SSTORE POP JUMPDEST PUSH1 0x1 PUSH1 0x2 DUP9 MUL ADD DUP9 SSTORE POP POP POP JUMPDEST POP POP POP POP POP POP JUMP JUMPDEST PUSH0 PUSH1 0x40 DUP3 ADD SWAP1 POP PUSH2 0x1D7A PUSH0 DUP4 ADD DUP6 PUSH2 0x1218 JUMP JUMPDEST PUSH2 0x1D87 PUSH1 0x20 DUP4 ADD DUP5 PUSH2 0x1218 JUMP JUMPDEST SWAP4 SWAP3 POP POP POP JUMP JUMPDEST PUSH32 0x52656D6F76616C204572726F723A204D616E61676572206E6F7420666F756E64 PUSH0 DUP3 ADD MSTORE POP JUMP JUMPDEST PUSH0 PUSH2 0x1DC2 PUSH1 0x20 DUP4 PUSH2 0x1270 JUMP JUMPDEST SWAP2 POP PUSH2 0x1DCD DUP3 PUSH2 0x1D8E JUMP JUMPDEST PUSH1 0x20 DUP3 ADD SWAP1 POP SWAP2 SWAP1 POP JUMP JUMPDEST PUSH0 PUSH1 0x20 DUP3 ADD SWAP1 POP DUP2 DUP2 SUB PUSH0 DUP4 ADD MSTORE PUSH2 0x1DEF DUP2 PUSH2 0x1DB6 JUMP JUMPDEST SWAP1 POP SWAP2 SWAP1 POP JUMP JUMPDEST PUSH32 0x417070726F76616C204572726F723A204D616E6167657220616C726561647920 PUSH0 DUP3 ADD MSTORE PUSH32 0x617070726F766564000000000000000000000000000000000000000000000000 PUSH1 0x20 DUP3 ADD MSTORE POP JUMP JUMPDEST PUSH0 PUSH2 0x1E50 PUSH1 0x28 DUP4 PUSH2 0x1270 JUMP JUMPDEST SWAP2 POP PUSH2 0x1E5B DUP3 PUSH2 0x1DF6 JUMP JUMPDEST PUSH1 0x40 DUP3 ADD SWAP1 POP SWAP2 SWAP1 POP JUMP JUMPDEST PUSH0 PUSH1 0x20 DUP3 ADD SWAP1 POP DUP2 DUP2 SUB PUSH0 DUP4 ADD MSTORE PUSH2 0x1E7D DUP2 PUSH2 0x1E44 JUMP JUMPDEST SWAP1 POP SWAP2 SWAP1 POP JUMP INVALID LOG2 PUSH5 0x6970667358 0x22 SLT KECCAK256 DELEGATECALL 0xD0 0xB5 RETURNDATACOPY 0x22 ADD GAS PUSH19 0x2DC3E742E10A4379EBA0C9D5FC4E2AF2F87C70 0x4C ADDRESS 0xB0 KECCAK256 0xC2 PUSH5 0x736F6C6343 STOP ADDMOD BYTE STOP CALLER "
				},
				"gasEstimates": {
					"creation": {
						"codeDepositCost": "1573200",
						"executionCost": "27156",
						"totalCost": "1600356"
					},
					"external": {
						"applyPenalty(uint256,string)": "infinite",
						"approveManager(address)": "32667",
						"createShipment(uint256,uint256,address,uint256)": "infinite",
						"getShipment(uint256)": "infinite",
						"pauseContract()": "26671",
						"removeManager(address)": "32619",
						"unpauseContract()": "26691",
						"updateShipmentStatus(uint256,uint8,string)": "infinite"
					}
				},
				"methodIdentifiers": {
					"applyPenalty(uint256,string)": "71757974",
					"approveManager(address)": "b5eee722",
					"createShipment(uint256,uint256,address,uint256)": "85af4594",
					"getShipment(uint256)": "092b3740",
					"pauseContract()": "439766ce",
					"removeManager(address)": "ac18de43",
					"unpauseContract()": "b33712c5",
					"updateShipmentStatus(uint256,uint8,string)": "50006450"
				}
			},
			"storageLayout": {
				"storage": [
					{
						"astId": 31,
						"contract": "contracts/LogisticsManagement.sol:LogisticsManagement",
						"label": "shipments",
						"offset": 0,
						"slot": "0",
						"type": "t_mapping(t_uint256,t_struct(Shipment)26_storage)"
					},
					{
						"astId": 35,
						"contract": "contracts/LogisticsManagement.sol:LogisticsManagement",
						"label": "approvedManagers",
						"offset": 0,
						"slot": "1",
						"type": "t_mapping(t_address,t_bool)"
					},
					{
						"astId": 72,
						"contract": "contracts/LogisticsManagement.sol:LogisticsManagement",
						"label": "paused",
						"offset": 0,
						"slot": "2",
						"type": "t_bool"
					}
				],
				"types": {
					"t_address": {
						"encoding": "inplace",
						"label": "address",
						"numberOfBytes": "20"
					},
					"t_bool": {
						"encoding": "inplace",
						"label": "bool",
						"numberOfBytes": "1"
					},
					"t_enum(ShipmentStatus)8": {
						"encoding": "inplace",
						"label": "enum LogisticsManagement.ShipmentStatus",
						"numberOfBytes": "1"
					},
					"t_mapping(t_address,t_bool)": {
						"encoding": "mapping",
						"key": "t_address",
						"label": "mapping(address => bool)",
						"numberOfBytes": "32",
						"value": "t_bool"
					},
					"t_mapping(t_uint256,t_struct(Shipment)26_storage)": {
						"encoding": "mapping",
						"key": "t_uint256",
						"label": "mapping(uint256 => struct LogisticsManagement.Shipment)",
						"numberOfBytes": "32",
						"value": "t_struct(Shipment)26_storage"
					},
					"t_string_storage": {
						"encoding": "bytes",
						"label": "string",
						"numberOfBytes": "32"
					},
					"t_struct(Shipment)26_storage": {
						"encoding": "inplace",
						"label": "struct LogisticsManagement.Shipment",
						"members": [
							{
								"astId": 10,
								"contract": "contracts/LogisticsManagement.sol:LogisticsManagement",
								"label": "shipmentId",
								"offset": 0,
								"slot": "0",
								"type": "t_uint256"
							},
							{
								"astId": 12,
								"contract": "contracts/LogisticsManagement.sol:LogisticsManagement",
								"label": "productId",
								"offset": 0,
								"slot": "1",
								"type": "t_uint256"
							},
							{
								"astId": 14,
								"contract": "contracts/LogisticsManagement.sol:LogisticsManagement",
								"label": "transporter",
								"offset": 0,
								"slot": "2",
								"type": "t_address"
							},
							{
								"astId": 16,
								"contract": "contracts/LogisticsManagement.sol:LogisticsManagement",
								"label": "estimatedDeliveryTime",
								"offset": 0,
								"slot": "3",
								"type": "t_uint256"
							},
							{
								"astId": 18,
								"contract": "contracts/LogisticsManagement.sol:LogisticsManagement",
								"label": "currentLocation",
								"offset": 0,
								"slot": "4",
								"type": "t_string_storage"
							},
							{
								"astId": 21,
								"contract": "contracts/LogisticsManagement.sol:LogisticsManagement",
								"label": "status",
								"offset": 0,
								"slot": "5",
								"type": "t_enum(ShipmentStatus)8"
							},
							{
								"astId": 23,
								"contract": "contracts/LogisticsManagement.sol:LogisticsManagement",
								"label": "timestamp",
								"offset": 0,
								"slot": "6",
								"type": "t_uint256"
							},
							{
								"astId": 25,
								"contract": "contracts/LogisticsManagement.sol:LogisticsManagement",
								"label": "isRegistered",
								"offset": 0,
								"slot": "7",
								"type": "t_bool"
							}
						],
						"numberOfBytes": "256"
					},
					"t_uint256": {
						"encoding": "inplace",
						"label": "uint256",
						"numberOfBytes": "32"
					}
				}
			},
			"userdoc": {
				"kind": "user",
				"methods": {
					"applyPenalty(uint256,string)": {
						"notice": "Apply a penalty to a transporter for delays or loss"
					},
					"approveManager(address)": {
						"notice": "Approve a new logistics manager"
					},
					"createShipment(uint256,uint256,address,uint256)": {
						"notice": "Create a new shipment for a product"
					},
					"getShipment(uint256)": {
						"notice": "Get the details of a shipment"
					},
					"pauseContract()": {
						"notice": "Pause the contract to prevent certain operations"
					},
					"removeManager(address)": {
						"notice": "Remove an existing logistics manager"
					},
					"unpauseContract()": {
						"notice": "Unpause the contract to resume operations"
					},
					"updateShipmentStatus(uint256,uint8,string)": {
						"notice": "Update the status and location of an existing shipment"
					}
				},
				"notice": "This contract manages the assignment of transporters for the movement of products, shipment details, and penalties for delays or losses.",
				"version": 1
			}
		}
	}
}