{
	"contracts/OrderManagement.sol": {
		"OrderManagement": {
			"abi": [
				{
					"inputs": [],
					"stateMutability": "nonpayable",
					"type": "constructor"
				},
				{
					"anonymous": false,
					"inputs": [
						{
							"indexed": true,
							"internalType": "address",
							"name": "manager",
							"type": "address"
						}
					],
					"name": "ManagerApproved",
					"type": "event"
				},
				{
					"anonymous": false,
					"inputs": [
						{
							"indexed": true,
							"internalType": "address",
							"name": "manager",
							"type": "address"
						}
					],
					"name": "ManagerRemoved",
					"type": "event"
				},
				{
					"anonymous": false,
					"inputs": [
						{
							"indexed": true,
							"internalType": "uint256",
							"name": "orderId",
							"type": "uint256"
						},
						{
							"indexed": true,
							"internalType": "address",
							"name": "buyer",
							"type": "address"
						},
						{
							"indexed": true,
							"internalType": "address",
							"name": "seller",
							"type": "address"
						},
						{
							"indexed": false,
							"internalType": "uint256",
							"name": "productId",
							"type": "uint256"
						},
						{
							"indexed": false,
							"internalType": "uint256",
							"name": "quantity",
							"type": "uint256"
						}
					],
					"name": "OrderCreated",
					"type": "event"
				},
				{
					"anonymous": false,
					"inputs": [
						{
							"indexed": true,
							"internalType": "uint256",
							"name": "orderId",
							"type": "uint256"
						},
						{
							"indexed": false,
							"internalType": "enum OrderManagement.OrderStatus",
							"name": "newStatus",
							"type": "uint8"
						}
					],
					"name": "OrderStatusUpdated",
					"type": "event"
				},
				{
					"inputs": [
						{
							"internalType": "address",
							"name": "_manager",
							"type": "address"
						}
					],
					"name": "approveManager",
					"outputs": [],
					"stateMutability": "nonpayable",
					"type": "function"
				},
				{
					"inputs": [
						{
							"internalType": "uint256",
							"name": "_orderId",
							"type": "uint256"
						},
						{
							"internalType": "address",
							"name": "_buyer",
							"type": "address"
						},
						{
							"internalType": "address",
							"name": "_seller",
							"type": "address"
						},
						{
							"internalType": "uint256",
							"name": "_productId",
							"type": "uint256"
						},
						{
							"internalType": "uint256",
							"name": "_quantity",
							"type": "uint256"
						}
					],
					"name": "createOrder",
					"outputs": [],
					"stateMutability": "nonpayable",
					"type": "function"
				},
				{
					"inputs": [
						{
							"internalType": "uint256",
							"name": "_orderId",
							"type": "uint256"
						}
					],
					"name": "getOrder",
					"outputs": [
						{
							"internalType": "address",
							"name": "",
							"type": "address"
						},
						{
							"internalType": "address",
							"name": "",
							"type": "address"
						},
						{
							"internalType": "uint256",
							"name": "",
							"type": "uint256"
						},
						{
							"internalType": "uint256",
							"name": "",
							"type": "uint256"
						},
						{
							"internalType": "uint256",
							"name": "",
							"type": "uint256"
						},
						{
							"internalType": "enum OrderManagement.OrderStatus",
							"name": "",
							"type": "uint8"
						}
					],
					"stateMutability": "view",
					"type": "function"
				},
				{
					"inputs": [],
					"name": "pauseContract",
					"outputs": [],
					"stateMutability": "nonpayable",
					"type": "function"
				},
				{
					"inputs": [
						{
							"internalType": "address",
							"name": "_manager",
							"type": "address"
						}
					],
					"name": "removeManager",
					"outputs": [],
					"stateMutability": "nonpayable",
					"type": "function"
				},
				{
					"inputs": [],
					"name": "unpauseContract",
					"outputs": [],
					"stateMutability": "nonpayable",
					"type": "function"
				},
				{
					"inputs": [
						{
							"internalType": "uint256",
							"name": "_orderId",
							"type": "uint256"
						},
						{
							"internalType": "enum OrderManagement.OrderStatus",
							"name": "_newStatus",
							"type": "uint8"
						}
					],
					"name": "updateOrderStatus",
					"outputs": [],
					"stateMutability": "nonpayable",
					"type": "function"
				}
			],
			"devdoc": {
				"details": "It includes order status tracking, role-based access control, and event logging for order management.",
				"kind": "dev",
				"methods": {
					"approveManager(address)": {
						"params": {
							"_manager": "The address to be approved as a manager"
						}
					},
					"createOrder(uint256,address,address,uint256,uint256)": {
						"params": {
							"_buyer": "The address of the buyer",
							"_orderId": "The unique ID of the order",
							"_productId": "The ID of the product being ordered",
							"_quantity": "The quantity of the product being ordered",
							"_seller": "The address of the seller"
						}
					},
					"getOrder(uint256)": {
						"params": {
							"_orderId": "The unique ID of the order"
						},
						"returns": {
							"_0": "Order details including buyer, seller, product ID, quantity, timestamp, and status"
						}
					},
					"removeManager(address)": {
						"params": {
							"_manager": "The address to be removed from approved managers"
						}
					},
					"updateOrderStatus(uint256,uint8)": {
						"params": {
							"_newStatus": "The new status to be assigned to the order",
							"_orderId": "The unique ID of the order"
						}
					}
				},
				"title": "Order Management Contract - Supply Chain Management System",
				"version": 1
			},
			"evm": {
				"assembly": "    /* \"contracts/OrderManagement.sol\":343:5592  contract OrderManagement {... */\n  mstore(0x40, 0x80)\n    /* \"contracts/OrderManagement.sol\":2216:2324  constructor() {... */\n  callvalue\n  dup1\n  iszero\n  tag_1\n  jumpi\n  0x00\n  dup1\n  revert\ntag_1:\n  pop\n    /* \"contracts/OrderManagement.sol\":2271:2275  true */\n  0x01\n    /* \"contracts/OrderManagement.sol\":2240:2256  approvedManagers */\n  dup1\n    /* \"contracts/OrderManagement.sol\":2240:2268  approvedManagers[msg.sender] */\n  0x00\n    /* \"contracts/OrderManagement.sol\":2257:2267  msg.sender */\n  caller\n    /* \"contracts/OrderManagement.sol\":2240:2268  approvedManagers[msg.sender] */\n  0xffffffffffffffffffffffffffffffffffffffff\n  and\n  0xffffffffffffffffffffffffffffffffffffffff\n  and\n  dup2\n  mstore\n  0x20\n  add\n  swap1\n  dup2\n  mstore\n  0x20\n  add\n  0x00\n  keccak256\n  0x00\n    /* \"contracts/OrderManagement.sol\":2240:2275  approvedManagers[msg.sender] = true */\n  0x0100\n  exp\n  dup2\n  sload\n  dup2\n  0xff\n  mul\n  not\n  and\n  swap1\n  dup4\n  iszero\n  iszero\n  mul\n  or\n  swap1\n  sstore\n  pop\n    /* \"contracts/OrderManagement.sol\":2306:2316  msg.sender */\n  caller\n    /* \"contracts/OrderManagement.sol\":2290:2317  ManagerApproved(msg.sender) */\n  0xffffffffffffffffffffffffffffffffffffffff\n  and\n  0x450ad6a6ac3c2e8b8a02820cb64d6102a1f91ebe1fa3848a0cfc45c870c043af\n  mload(0x40)\n  mload(0x40)\n  dup1\n  swap2\n  sub\n  swap1\n  log2\n    /* \"contracts/OrderManagement.sol\":343:5592  contract OrderManagement {... */\n  dataSize(sub_0)\n  dup1\n  dataOffset(sub_0)\n  0x00\n  codecopy\n  0x00\n  return\nstop\n\nsub_0: assembly {\n        /* \"contracts/OrderManagement.sol\":343:5592  contract OrderManagement {... */\n      mstore(0x40, 0x80)\n      callvalue\n      dup1\n      iszero\n      tag_1\n      jumpi\n      0x00\n      dup1\n      revert\n    tag_1:\n      pop\n      jumpi(tag_2, lt(calldatasize, 0x04))\n      shr(0xe0, calldataload(0x00))\n      dup1\n      0xb33712c5\n      gt\n      tag_10\n      jumpi\n      dup1\n      0xb33712c5\n      eq\n      tag_6\n      jumpi\n      dup1\n      0xb5eee722\n      eq\n      tag_7\n      jumpi\n      dup1\n      0xd09ef241\n      eq\n      tag_8\n      jumpi\n      dup1\n      0xdd544f45\n      eq\n      tag_9\n      jumpi\n      jump(tag_2)\n    tag_10:\n      dup1\n      0x439766ce\n      eq\n      tag_3\n      jumpi\n      dup1\n      0xaab3196d\n      eq\n      tag_4\n      jumpi\n      dup1\n      0xac18de43\n      eq\n      tag_5\n      jumpi\n    tag_2:\n      0x00\n      dup1\n      revert\n        /* \"contracts/OrderManagement.sol\":5355:5439  function pauseContract() external onlyApprovedManager {... */\n    tag_3:\n      tag_11\n      tag_12\n      jump\t// in\n    tag_11:\n      stop\n        /* \"contracts/OrderManagement.sol\":4365:4754  function updateOrderStatus(uint256 _orderId, OrderStatus _newStatus) ... */\n    tag_4:\n      tag_13\n      0x04\n      dup1\n      calldatasize\n      sub\n      dup2\n      add\n      swap1\n      tag_14\n      swap2\n      swap1\n      tag_15\n      jump\t// in\n    tag_14:\n      tag_16\n      jump\t// in\n    tag_13:\n      stop\n        /* \"contracts/OrderManagement.sol\":2840:3095  function removeManager(address _manager) external onlyApprovedManager whenNotPaused {... */\n    tag_5:\n      tag_17\n      0x04\n      dup1\n      calldatasize\n      sub\n      dup2\n      add\n      swap1\n      tag_18\n      swap2\n      swap1\n      tag_19\n      jump\t// in\n    tag_18:\n      tag_20\n      jump\t// in\n    tag_17:\n      stop\n        /* \"contracts/OrderManagement.sol\":5503:5590  function unpauseContract() external onlyApprovedManager {... */\n    tag_6:\n      tag_21\n      tag_22\n      jump\t// in\n    tag_21:\n      stop\n        /* \"contracts/OrderManagement.sol\":2453:2718  function approveManager(address _manager) external onlyApprovedManager whenNotPaused {... */\n    tag_7:\n      tag_23\n      0x04\n      dup1\n      calldatasize\n      sub\n      dup2\n      add\n      swap1\n      tag_24\n      swap2\n      swap1\n      tag_19\n      jump\t// in\n    tag_24:\n      tag_25\n      jump\t// in\n    tag_23:\n      stop\n        /* \"contracts/OrderManagement.sol\":4954:5284  function getOrder(uint256 _orderId) ... */\n    tag_8:\n      tag_26\n      0x04\n      dup1\n      calldatasize\n      sub\n      dup2\n      add\n      swap1\n      tag_27\n      swap2\n      swap1\n      tag_28\n      jump\t// in\n    tag_27:\n      tag_29\n      jump\t// in\n    tag_26:\n      mload(0x40)\n      tag_30\n      swap7\n      swap6\n      swap5\n      swap4\n      swap3\n      swap2\n      swap1\n      tag_31\n      jump\t// in\n    tag_30:\n      mload(0x40)\n      dup1\n      swap2\n      sub\n      swap1\n      return\n        /* \"contracts/OrderManagement.sol\":3412:4184  function createOrder(uint256 _orderId, address _buyer, address _seller, uint256 _productId, uint256 _quantity) ... */\n    tag_9:\n      tag_32\n      0x04\n      dup1\n      calldatasize\n      sub\n      dup2\n      add\n      swap1\n      tag_33\n      swap2\n      swap1\n      tag_34\n      jump\t// in\n    tag_33:\n      tag_35\n      jump\t// in\n    tag_32:\n      stop\n        /* \"contracts/OrderManagement.sol\":5355:5439  function pauseContract() external onlyApprovedManager {... */\n    tag_12:\n        /* \"contracts/OrderManagement.sol\":1676:1692  approvedManagers */\n      0x01\n        /* \"contracts/OrderManagement.sol\":1676:1704  approvedManagers[msg.sender] */\n      0x00\n        /* \"contracts/OrderManagement.sol\":1693:1703  msg.sender */\n      caller\n        /* \"contracts/OrderManagement.sol\":1676:1704  approvedManagers[msg.sender] */\n      0xffffffffffffffffffffffffffffffffffffffff\n      and\n      0xffffffffffffffffffffffffffffffffffffffff\n      and\n      dup2\n      mstore\n      0x20\n      add\n      swap1\n      dup2\n      mstore\n      0x20\n      add\n      0x00\n      keccak256\n      0x00\n      swap1\n      sload\n      swap1\n      0x0100\n      exp\n      swap1\n      div\n      0xff\n      and\n        /* \"contracts/OrderManagement.sol\":1668:1749  require(approvedManagers[msg.sender], \"Access Denied: Not an authorized manager\") */\n      tag_37\n      jumpi\n      mload(0x40)\n      0x08c379a000000000000000000000000000000000000000000000000000000000\n      dup2\n      mstore\n      0x04\n      add\n      tag_38\n      swap1\n      tag_39\n      jump\t// in\n    tag_38:\n      mload(0x40)\n      dup1\n      swap2\n      sub\n      swap1\n      revert\n    tag_37:\n        /* \"contracts/OrderManagement.sol\":5428:5432  true */\n      0x01\n        /* \"contracts/OrderManagement.sol\":5419:5425  paused */\n      0x02\n      0x00\n        /* \"contracts/OrderManagement.sol\":5419:5432  paused = true */\n      0x0100\n      exp\n      dup2\n      sload\n      dup2\n      0xff\n      mul\n      not\n      and\n      swap1\n      dup4\n      iszero\n      iszero\n      mul\n      or\n      swap1\n      sstore\n      pop\n        /* \"contracts/OrderManagement.sol\":5355:5439  function pauseContract() external onlyApprovedManager {... */\n      jump\t// out\n        /* \"contracts/OrderManagement.sol\":4365:4754  function updateOrderStatus(uint256 _orderId, OrderStatus _newStatus) ... */\n    tag_16:\n        /* \"contracts/OrderManagement.sol\":1676:1692  approvedManagers */\n      0x01\n        /* \"contracts/OrderManagement.sol\":1676:1704  approvedManagers[msg.sender] */\n      0x00\n        /* \"contracts/OrderManagement.sol\":1693:1703  msg.sender */\n      caller\n        /* \"contracts/OrderManagement.sol\":1676:1704  approvedManagers[msg.sender] */\n      0xffffffffffffffffffffffffffffffffffffffff\n      and\n      0xffffffffffffffffffffffffffffffffffffffff\n      and\n      dup2\n      mstore\n      0x20\n      add\n      swap1\n      dup2\n      mstore\n      0x20\n      add\n      0x00\n      keccak256\n      0x00\n      swap1\n      sload\n      swap1\n      0x0100\n      exp\n      swap1\n      div\n      0xff\n      and\n        /* \"contracts/OrderManagement.sol\":1668:1749  require(approvedManagers[msg.sender], \"Access Denied: Not an authorized manager\") */\n      tag_42\n      jumpi\n      mload(0x40)\n      0x08c379a000000000000000000000000000000000000000000000000000000000\n      dup2\n      mstore\n      0x04\n      add\n      tag_43\n      swap1\n      tag_39\n      jump\t// in\n    tag_43:\n      mload(0x40)\n      dup1\n      swap2\n      sub\n      swap1\n      revert\n    tag_42:\n        /* \"contracts/OrderManagement.sol\":4490:4498  _orderId */\n      dup2\n        /* \"contracts/OrderManagement.sol\":1885:1891  orders */\n      0x00\n        /* \"contracts/OrderManagement.sol\":1885:1901  orders[_orderId] */\n      dup1\n        /* \"contracts/OrderManagement.sol\":1892:1900  _orderId */\n      dup3\n        /* \"contracts/OrderManagement.sol\":1885:1901  orders[_orderId] */\n      dup2\n      mstore\n      0x20\n      add\n      swap1\n      dup2\n      mstore\n      0x20\n      add\n      0x00\n      keccak256\n        /* \"contracts/OrderManagement.sol\":1885:1914  orders[_orderId].isRegistered */\n      0x06\n      add\n      0x01\n      swap1\n      sload\n      swap1\n      0x0100\n      exp\n      swap1\n      div\n      0xff\n      and\n        /* \"contracts/OrderManagement.sol\":1877:1952  require(orders[_orderId].isRegistered, \"Query Error: Order not registered\") */\n      tag_45\n      jumpi\n      mload(0x40)\n      0x08c379a000000000000000000000000000000000000000000000000000000000\n      dup2\n      mstore\n      0x04\n      add\n      tag_46\n      swap1\n      tag_47\n      jump\t// in\n    tag_46:\n      mload(0x40)\n      dup1\n      swap2\n      sub\n      swap1\n      revert\n    tag_45:\n        /* \"contracts/OrderManagement.sol\":2073:2079  paused */\n      0x02\n      0x00\n      swap1\n      sload\n      swap1\n      0x0100\n      exp\n      swap1\n      div\n      0xff\n      and\n        /* \"contracts/OrderManagement.sol\":2072:2079  !paused */\n      iszero\n        /* \"contracts/OrderManagement.sol\":2064:2119  require(!paused, \"Operation Error: Contract is paused\") */\n      tag_49\n      jumpi\n      mload(0x40)\n      0x08c379a000000000000000000000000000000000000000000000000000000000\n      dup2\n      mstore\n      0x04\n      add\n      tag_50\n      swap1\n      tag_51\n      jump\t// in\n    tag_50:\n      mload(0x40)\n      dup1\n      swap2\n      sub\n      swap1\n      revert\n    tag_49:\n        /* \"contracts/OrderManagement.sol\":4551:4557  orders */\n      0x00\n        /* \"contracts/OrderManagement.sol\":4551:4567  orders[_orderId] */\n      dup1\n        /* \"contracts/OrderManagement.sol\":4558:4566  _orderId */\n      dup5\n        /* \"contracts/OrderManagement.sol\":4551:4567  orders[_orderId] */\n      dup2\n      mstore\n      0x20\n      add\n      swap1\n      dup2\n      mstore\n      0x20\n      add\n      0x00\n      keccak256\n        /* \"contracts/OrderManagement.sol\":4551:4574  orders[_orderId].status */\n      0x06\n      add\n      0x00\n      swap1\n      sload\n      swap1\n      0x0100\n      exp\n      swap1\n      div\n      0xff\n      and\n        /* \"contracts/OrderManagement.sol\":4537:4574  _newStatus != orders[_orderId].status */\n      0x03\n      dup2\n      gt\n      iszero\n      tag_53\n      jumpi\n      tag_54\n      tag_55\n      jump\t// in\n    tag_54:\n    tag_53:\n        /* \"contracts/OrderManagement.sol\":4537:4547  _newStatus */\n      dup3\n        /* \"contracts/OrderManagement.sol\":4537:4574  _newStatus != orders[_orderId].status */\n      0x03\n      dup2\n      gt\n      iszero\n      tag_56\n      jumpi\n      tag_57\n      tag_55\n      jump\t// in\n    tag_57:\n    tag_56:\n      sub\n        /* \"contracts/OrderManagement.sol\":4529:4645  require(_newStatus != orders[_orderId].status, \"Update Error: New status must be different from the current status\") */\n      tag_58\n      jumpi\n      mload(0x40)\n      0x08c379a000000000000000000000000000000000000000000000000000000000\n      dup2\n      mstore\n      0x04\n      add\n      tag_59\n      swap1\n      tag_60\n      jump\t// in\n    tag_59:\n      mload(0x40)\n      dup1\n      swap2\n      sub\n      swap1\n      revert\n    tag_58:\n        /* \"contracts/OrderManagement.sol\":4681:4691  _newStatus */\n      dup2\n        /* \"contracts/OrderManagement.sol\":4655:4661  orders */\n      0x00\n        /* \"contracts/OrderManagement.sol\":4655:4671  orders[_orderId] */\n      dup1\n        /* \"contracts/OrderManagement.sol\":4662:4670  _orderId */\n      dup6\n        /* \"contracts/OrderManagement.sol\":4655:4671  orders[_orderId] */\n      dup2\n      mstore\n      0x20\n      add\n      swap1\n      dup2\n      mstore\n      0x20\n      add\n      0x00\n      keccak256\n        /* \"contracts/OrderManagement.sol\":4655:4678  orders[_orderId].status */\n      0x06\n      add\n      0x00\n        /* \"contracts/OrderManagement.sol\":4655:4691  orders[_orderId].status = _newStatus */\n      0x0100\n      exp\n      dup2\n      sload\n      dup2\n      0xff\n      mul\n      not\n      and\n      swap1\n      dup4\n      0x03\n      dup2\n      gt\n      iszero\n      tag_61\n      jumpi\n      tag_62\n      tag_55\n      jump\t// in\n    tag_62:\n    tag_61:\n      mul\n      or\n      swap1\n      sstore\n      pop\n        /* \"contracts/OrderManagement.sol\":4726:4734  _orderId */\n      dup3\n        /* \"contracts/OrderManagement.sol\":4707:4747  OrderStatusUpdated(_orderId, _newStatus) */\n      0xd9a86b644eb5f5b43cc8a700849852481080361c7a4b00ba646d1b46c5585f95\n        /* \"contracts/OrderManagement.sol\":4736:4746  _newStatus */\n      dup4\n        /* \"contracts/OrderManagement.sol\":4707:4747  OrderStatusUpdated(_orderId, _newStatus) */\n      mload(0x40)\n      tag_63\n      swap2\n      swap1\n      tag_64\n      jump\t// in\n    tag_63:\n      mload(0x40)\n      dup1\n      swap2\n      sub\n      swap1\n      log2\n        /* \"contracts/OrderManagement.sol\":1759:1760  _ */\n      pop\n        /* \"contracts/OrderManagement.sol\":4365:4754  function updateOrderStatus(uint256 _orderId, OrderStatus _newStatus) ... */\n      pop\n      pop\n      jump\t// out\n        /* \"contracts/OrderManagement.sol\":2840:3095  function removeManager(address _manager) external onlyApprovedManager whenNotPaused {... */\n    tag_20:\n        /* \"contracts/OrderManagement.sol\":1676:1692  approvedManagers */\n      0x01\n        /* \"contracts/OrderManagement.sol\":1676:1704  approvedManagers[msg.sender] */\n      0x00\n        /* \"contracts/OrderManagement.sol\":1693:1703  msg.sender */\n      caller\n        /* \"contracts/OrderManagement.sol\":1676:1704  approvedManagers[msg.sender] */\n      0xffffffffffffffffffffffffffffffffffffffff\n      and\n      0xffffffffffffffffffffffffffffffffffffffff\n      and\n      dup2\n      mstore\n      0x20\n      add\n      swap1\n      dup2\n      mstore\n      0x20\n      add\n      0x00\n      keccak256\n      0x00\n      swap1\n      sload\n      swap1\n      0x0100\n      exp\n      swap1\n      div\n      0xff\n      and\n        /* \"contracts/OrderManagement.sol\":1668:1749  require(approvedManagers[msg.sender], \"Access Denied: Not an authorized manager\") */\n      tag_66\n      jumpi\n      mload(0x40)\n      0x08c379a000000000000000000000000000000000000000000000000000000000\n      dup2\n      mstore\n      0x04\n      add\n      tag_67\n      swap1\n      tag_39\n      jump\t// in\n    tag_67:\n      mload(0x40)\n      dup1\n      swap2\n      sub\n      swap1\n      revert\n    tag_66:\n        /* \"contracts/OrderManagement.sol\":2073:2079  paused */\n      0x02\n      0x00\n      swap1\n      sload\n      swap1\n      0x0100\n      exp\n      swap1\n      div\n      0xff\n      and\n        /* \"contracts/OrderManagement.sol\":2072:2079  !paused */\n      iszero\n        /* \"contracts/OrderManagement.sol\":2064:2119  require(!paused, \"Operation Error: Contract is paused\") */\n      tag_69\n      jumpi\n      mload(0x40)\n      0x08c379a000000000000000000000000000000000000000000000000000000000\n      dup2\n      mstore\n      0x04\n      add\n      tag_70\n      swap1\n      tag_51\n      jump\t// in\n    tag_70:\n      mload(0x40)\n      dup1\n      swap2\n      sub\n      swap1\n      revert\n    tag_69:\n        /* \"contracts/OrderManagement.sol\":2942:2958  approvedManagers */\n      0x01\n        /* \"contracts/OrderManagement.sol\":2942:2968  approvedManagers[_manager] */\n      0x00\n        /* \"contracts/OrderManagement.sol\":2959:2967  _manager */\n      dup3\n        /* \"contracts/OrderManagement.sol\":2942:2968  approvedManagers[_manager] */\n      0xffffffffffffffffffffffffffffffffffffffff\n      and\n      0xffffffffffffffffffffffffffffffffffffffff\n      and\n      dup2\n      mstore\n      0x20\n      add\n      swap1\n      dup2\n      mstore\n      0x20\n      add\n      0x00\n      keccak256\n      0x00\n      swap1\n      sload\n      swap1\n      0x0100\n      exp\n      swap1\n      div\n      0xff\n      and\n        /* \"contracts/OrderManagement.sol\":2934:3005  require(approvedManagers[_manager], \"Removal Error: Manager not found\") */\n      tag_72\n      jumpi\n      mload(0x40)\n      0x08c379a000000000000000000000000000000000000000000000000000000000\n      dup2\n      mstore\n      0x04\n      add\n      tag_73\n      swap1\n      tag_74\n      jump\t// in\n    tag_73:\n      mload(0x40)\n      dup1\n      swap2\n      sub\n      swap1\n      revert\n    tag_72:\n        /* \"contracts/OrderManagement.sol\":3044:3049  false */\n      0x00\n        /* \"contracts/OrderManagement.sol\":3015:3031  approvedManagers */\n      0x01\n        /* \"contracts/OrderManagement.sol\":3015:3041  approvedManagers[_manager] */\n      0x00\n        /* \"contracts/OrderManagement.sol\":3032:3040  _manager */\n      dup4\n        /* \"contracts/OrderManagement.sol\":3015:3041  approvedManagers[_manager] */\n      0xffffffffffffffffffffffffffffffffffffffff\n      and\n      0xffffffffffffffffffffffffffffffffffffffff\n      and\n      dup2\n      mstore\n      0x20\n      add\n      swap1\n      dup2\n      mstore\n      0x20\n      add\n      0x00\n      keccak256\n      0x00\n        /* \"contracts/OrderManagement.sol\":3015:3049  approvedManagers[_manager] = false */\n      0x0100\n      exp\n      dup2\n      sload\n      dup2\n      0xff\n      mul\n      not\n      and\n      swap1\n      dup4\n      iszero\n      iszero\n      mul\n      or\n      swap1\n      sstore\n      pop\n        /* \"contracts/OrderManagement.sol\":3079:3087  _manager */\n      dup1\n        /* \"contracts/OrderManagement.sol\":3064:3088  ManagerRemoved(_manager) */\n      0xffffffffffffffffffffffffffffffffffffffff\n      and\n      0xef69f7d97228658c92417be1b16b19058315de71fecb435d07b7d23728b6bd31\n      mload(0x40)\n      mload(0x40)\n      dup1\n      swap2\n      sub\n      swap1\n      log2\n        /* \"contracts/OrderManagement.sol\":2840:3095  function removeManager(address _manager) external onlyApprovedManager whenNotPaused {... */\n      pop\n      jump\t// out\n        /* \"contracts/OrderManagement.sol\":5503:5590  function unpauseContract() external onlyApprovedManager {... */\n    tag_22:\n        /* \"contracts/OrderManagement.sol\":1676:1692  approvedManagers */\n      0x01\n        /* \"contracts/OrderManagement.sol\":1676:1704  approvedManagers[msg.sender] */\n      0x00\n        /* \"contracts/OrderManagement.sol\":1693:1703  msg.sender */\n      caller\n        /* \"contracts/OrderManagement.sol\":1676:1704  approvedManagers[msg.sender] */\n      0xffffffffffffffffffffffffffffffffffffffff\n      and\n      0xffffffffffffffffffffffffffffffffffffffff\n      and\n      dup2\n      mstore\n      0x20\n      add\n      swap1\n      dup2\n      mstore\n      0x20\n      add\n      0x00\n      keccak256\n      0x00\n      swap1\n      sload\n      swap1\n      0x0100\n      exp\n      swap1\n      div\n      0xff\n      and\n        /* \"contracts/OrderManagement.sol\":1668:1749  require(approvedManagers[msg.sender], \"Access Denied: Not an authorized manager\") */\n      tag_76\n      jumpi\n      mload(0x40)\n      0x08c379a000000000000000000000000000000000000000000000000000000000\n      dup2\n      mstore\n      0x04\n      add\n      tag_77\n      swap1\n      tag_39\n      jump\t// in\n    tag_77:\n      mload(0x40)\n      dup1\n      swap2\n      sub\n      swap1\n      revert\n    tag_76:\n        /* \"contracts/OrderManagement.sol\":5578:5583  false */\n      0x00\n        /* \"contracts/OrderManagement.sol\":5569:5575  paused */\n      0x02\n      0x00\n        /* \"contracts/OrderManagement.sol\":5569:5583  paused = false */\n      0x0100\n      exp\n      dup2\n      sload\n      dup2\n      0xff\n      mul\n      not\n      and\n      swap1\n      dup4\n      iszero\n      iszero\n      mul\n      or\n      swap1\n      sstore\n      pop\n        /* \"contracts/OrderManagement.sol\":5503:5590  function unpauseContract() external onlyApprovedManager {... */\n      jump\t// out\n        /* \"contracts/OrderManagement.sol\":2453:2718  function approveManager(address _manager) external onlyApprovedManager whenNotPaused {... */\n    tag_25:\n        /* \"contracts/OrderManagement.sol\":1676:1692  approvedManagers */\n      0x01\n        /* \"contracts/OrderManagement.sol\":1676:1704  approvedManagers[msg.sender] */\n      0x00\n        /* \"contracts/OrderManagement.sol\":1693:1703  msg.sender */\n      caller\n        /* \"contracts/OrderManagement.sol\":1676:1704  approvedManagers[msg.sender] */\n      0xffffffffffffffffffffffffffffffffffffffff\n      and\n      0xffffffffffffffffffffffffffffffffffffffff\n      and\n      dup2\n      mstore\n      0x20\n      add\n      swap1\n      dup2\n      mstore\n      0x20\n      add\n      0x00\n      keccak256\n      0x00\n      swap1\n      sload\n      swap1\n      0x0100\n      exp\n      swap1\n      div\n      0xff\n      and\n        /* \"contracts/OrderManagement.sol\":1668:1749  require(approvedManagers[msg.sender], \"Access Denied: Not an authorized manager\") */\n      tag_80\n      jumpi\n      mload(0x40)\n      0x08c379a000000000000000000000000000000000000000000000000000000000\n      dup2\n      mstore\n      0x04\n      add\n      tag_81\n      swap1\n      tag_39\n      jump\t// in\n    tag_81:\n      mload(0x40)\n      dup1\n      swap2\n      sub\n      swap1\n      revert\n    tag_80:\n        /* \"contracts/OrderManagement.sol\":2073:2079  paused */\n      0x02\n      0x00\n      swap1\n      sload\n      swap1\n      0x0100\n      exp\n      swap1\n      div\n      0xff\n      and\n        /* \"contracts/OrderManagement.sol\":2072:2079  !paused */\n      iszero\n        /* \"contracts/OrderManagement.sol\":2064:2119  require(!paused, \"Operation Error: Contract is paused\") */\n      tag_83\n      jumpi\n      mload(0x40)\n      0x08c379a000000000000000000000000000000000000000000000000000000000\n      dup2\n      mstore\n      0x04\n      add\n      tag_84\n      swap1\n      tag_51\n      jump\t// in\n    tag_84:\n      mload(0x40)\n      dup1\n      swap2\n      sub\n      swap1\n      revert\n    tag_83:\n        /* \"contracts/OrderManagement.sol\":2557:2573  approvedManagers */\n      0x01\n        /* \"contracts/OrderManagement.sol\":2557:2583  approvedManagers[_manager] */\n      0x00\n        /* \"contracts/OrderManagement.sol\":2574:2582  _manager */\n      dup3\n        /* \"contracts/OrderManagement.sol\":2557:2583  approvedManagers[_manager] */\n      0xffffffffffffffffffffffffffffffffffffffff\n      and\n      0xffffffffffffffffffffffffffffffffffffffff\n      and\n      dup2\n      mstore\n      0x20\n      add\n      swap1\n      dup2\n      mstore\n      0x20\n      add\n      0x00\n      keccak256\n      0x00\n      swap1\n      sload\n      swap1\n      0x0100\n      exp\n      swap1\n      div\n      0xff\n      and\n        /* \"contracts/OrderManagement.sol\":2556:2583  !approvedManagers[_manager] */\n      iszero\n        /* \"contracts/OrderManagement.sol\":2548:2628  require(!approvedManagers[_manager], \"Approval Error: Manager already approved\") */\n      tag_86\n      jumpi\n      mload(0x40)\n      0x08c379a000000000000000000000000000000000000000000000000000000000\n      dup2\n      mstore\n      0x04\n      add\n      tag_87\n      swap1\n      tag_88\n      jump\t// in\n    tag_87:\n      mload(0x40)\n      dup1\n      swap2\n      sub\n      swap1\n      revert\n    tag_86:\n        /* \"contracts/OrderManagement.sol\":2667:2671  true */\n      0x01\n        /* \"contracts/OrderManagement.sol\":2638:2654  approvedManagers */\n      dup1\n        /* \"contracts/OrderManagement.sol\":2638:2664  approvedManagers[_manager] */\n      0x00\n        /* \"contracts/OrderManagement.sol\":2655:2663  _manager */\n      dup4\n        /* \"contracts/OrderManagement.sol\":2638:2664  approvedManagers[_manager] */\n      0xffffffffffffffffffffffffffffffffffffffff\n      and\n      0xffffffffffffffffffffffffffffffffffffffff\n      and\n      dup2\n      mstore\n      0x20\n      add\n      swap1\n      dup2\n      mstore\n      0x20\n      add\n      0x00\n      keccak256\n      0x00\n        /* \"contracts/OrderManagement.sol\":2638:2671  approvedManagers[_manager] = true */\n      0x0100\n      exp\n      dup2\n      sload\n      dup2\n      0xff\n      mul\n      not\n      and\n      swap1\n      dup4\n      iszero\n      iszero\n      mul\n      or\n      swap1\n      sstore\n      pop\n        /* \"contracts/OrderManagement.sol\":2702:2710  _manager */\n      dup1\n        /* \"contracts/OrderManagement.sol\":2686:2711  ManagerApproved(_manager) */\n      0xffffffffffffffffffffffffffffffffffffffff\n      and\n      0x450ad6a6ac3c2e8b8a02820cb64d6102a1f91ebe1fa3848a0cfc45c870c043af\n      mload(0x40)\n      mload(0x40)\n      dup1\n      swap2\n      sub\n      swap1\n      log2\n        /* \"contracts/OrderManagement.sol\":2453:2718  function approveManager(address _manager) external onlyApprovedManager whenNotPaused {... */\n      pop\n      jump\t// out\n        /* \"contracts/OrderManagement.sol\":4954:5284  function getOrder(uint256 _orderId) ... */\n    tag_29:\n        /* \"contracts/OrderManagement.sol\":5059:5066  address */\n      0x00\n        /* \"contracts/OrderManagement.sol\":5068:5075  address */\n      dup1\n        /* \"contracts/OrderManagement.sol\":5077:5084  uint256 */\n      0x00\n        /* \"contracts/OrderManagement.sol\":5086:5093  uint256 */\n      dup1\n        /* \"contracts/OrderManagement.sol\":5095:5102  uint256 */\n      0x00\n        /* \"contracts/OrderManagement.sol\":5104:5115  OrderStatus */\n      dup1\n        /* \"contracts/OrderManagement.sol\":5031:5039  _orderId */\n      dup7\n        /* \"contracts/OrderManagement.sol\":1885:1891  orders */\n      0x00\n        /* \"contracts/OrderManagement.sol\":1885:1901  orders[_orderId] */\n      dup1\n        /* \"contracts/OrderManagement.sol\":1892:1900  _orderId */\n      dup3\n        /* \"contracts/OrderManagement.sol\":1885:1901  orders[_orderId] */\n      dup2\n      mstore\n      0x20\n      add\n      swap1\n      dup2\n      mstore\n      0x20\n      add\n      0x00\n      keccak256\n        /* \"contracts/OrderManagement.sol\":1885:1914  orders[_orderId].isRegistered */\n      0x06\n      add\n      0x01\n      swap1\n      sload\n      swap1\n      0x0100\n      exp\n      swap1\n      div\n      0xff\n      and\n        /* \"contracts/OrderManagement.sol\":1877:1952  require(orders[_orderId].isRegistered, \"Query Error: Order not registered\") */\n      tag_90\n      jumpi\n      mload(0x40)\n      0x08c379a000000000000000000000000000000000000000000000000000000000\n      dup2\n      mstore\n      0x04\n      add\n      tag_91\n      swap1\n      tag_47\n      jump\t// in\n    tag_91:\n      mload(0x40)\n      dup1\n      swap2\n      sub\n      swap1\n      revert\n    tag_90:\n        /* \"contracts/OrderManagement.sol\":5132:5150  Order memory order */\n      0x00\n        /* \"contracts/OrderManagement.sol\":5153:5159  orders */\n      dup1\n        /* \"contracts/OrderManagement.sol\":5153:5169  orders[_orderId] */\n      0x00\n        /* \"contracts/OrderManagement.sol\":5160:5168  _orderId */\n      dup11\n        /* \"contracts/OrderManagement.sol\":5153:5169  orders[_orderId] */\n      dup2\n      mstore\n      0x20\n      add\n      swap1\n      dup2\n      mstore\n      0x20\n      add\n      0x00\n      keccak256\n        /* \"contracts/OrderManagement.sol\":5132:5169  Order memory order = orders[_orderId] */\n      mload(0x40)\n      dup1\n      0x0100\n      add\n      0x40\n      mstore\n      swap1\n      dup2\n      0x00\n      dup3\n      add\n      sload\n      dup2\n      mstore\n      0x20\n      add\n      0x01\n      dup3\n      add\n      0x00\n      swap1\n      sload\n      swap1\n      0x0100\n      exp\n      swap1\n      div\n      0xffffffffffffffffffffffffffffffffffffffff\n      and\n      0xffffffffffffffffffffffffffffffffffffffff\n      and\n      0xffffffffffffffffffffffffffffffffffffffff\n      and\n      dup2\n      mstore\n      0x20\n      add\n      0x02\n      dup3\n      add\n      0x00\n      swap1\n      sload\n      swap1\n      0x0100\n      exp\n      swap1\n      div\n      0xffffffffffffffffffffffffffffffffffffffff\n      and\n      0xffffffffffffffffffffffffffffffffffffffff\n      and\n      0xffffffffffffffffffffffffffffffffffffffff\n      and\n      dup2\n      mstore\n      0x20\n      add\n      0x03\n      dup3\n      add\n      sload\n      dup2\n      mstore\n      0x20\n      add\n      0x04\n      dup3\n      add\n      sload\n      dup2\n      mstore\n      0x20\n      add\n      0x05\n      dup3\n      add\n      sload\n      dup2\n      mstore\n      0x20\n      add\n      0x06\n      dup3\n      add\n      0x00\n      swap1\n      sload\n      swap1\n      0x0100\n      exp\n      swap1\n      div\n      0xff\n      and\n      0x03\n      dup2\n      gt\n      iszero\n      tag_93\n      jumpi\n      tag_94\n      tag_55\n      jump\t// in\n    tag_94:\n    tag_93:\n      0x03\n      dup2\n      gt\n      iszero\n      tag_95\n      jumpi\n      tag_96\n      tag_55\n      jump\t// in\n    tag_96:\n    tag_95:\n      dup2\n      mstore\n      0x20\n      add\n      0x06\n      dup3\n      add\n      0x01\n      swap1\n      sload\n      swap1\n      0x0100\n      exp\n      swap1\n      div\n      0xff\n      and\n      iszero\n      iszero\n      iszero\n      iszero\n      dup2\n      mstore\n      pop\n      pop\n      swap1\n      pop\n        /* \"contracts/OrderManagement.sol\":5187:5192  order */\n      dup1\n        /* \"contracts/OrderManagement.sol\":5187:5198  order.buyer */\n      0x20\n      add\n      mload\n        /* \"contracts/OrderManagement.sol\":5200:5205  order */\n      dup2\n        /* \"contracts/OrderManagement.sol\":5200:5212  order.seller */\n      0x40\n      add\n      mload\n        /* \"contracts/OrderManagement.sol\":5214:5219  order */\n      dup3\n        /* \"contracts/OrderManagement.sol\":5214:5229  order.productId */\n      0x60\n      add\n      mload\n        /* \"contracts/OrderManagement.sol\":5231:5236  order */\n      dup4\n        /* \"contracts/OrderManagement.sol\":5231:5245  order.quantity */\n      0x80\n      add\n      mload\n        /* \"contracts/OrderManagement.sol\":5247:5252  order */\n      dup5\n        /* \"contracts/OrderManagement.sol\":5247:5262  order.timestamp */\n      0xa0\n      add\n      mload\n        /* \"contracts/OrderManagement.sol\":5264:5269  order */\n      dup6\n        /* \"contracts/OrderManagement.sol\":5264:5276  order.status */\n      0xc0\n      add\n      mload\n        /* \"contracts/OrderManagement.sol\":5179:5277  return (order.buyer, order.seller, order.productId, order.quantity, order.timestamp, order.status) */\n      swap8\n      pop\n      swap8\n      pop\n      swap8\n      pop\n      swap8\n      pop\n      swap8\n      pop\n      swap8\n      pop\n      pop\n        /* \"contracts/OrderManagement.sol\":4954:5284  function getOrder(uint256 _orderId) ... */\n      pop\n      swap2\n      swap4\n      swap6\n      pop\n      swap2\n      swap4\n      swap6\n      jump\t// out\n        /* \"contracts/OrderManagement.sol\":3412:4184  function createOrder(uint256 _orderId, address _buyer, address _seller, uint256 _productId, uint256 _quantity) ... */\n    tag_35:\n        /* \"contracts/OrderManagement.sol\":1676:1692  approvedManagers */\n      0x01\n        /* \"contracts/OrderManagement.sol\":1676:1704  approvedManagers[msg.sender] */\n      0x00\n        /* \"contracts/OrderManagement.sol\":1693:1703  msg.sender */\n      caller\n        /* \"contracts/OrderManagement.sol\":1676:1704  approvedManagers[msg.sender] */\n      0xffffffffffffffffffffffffffffffffffffffff\n      and\n      0xffffffffffffffffffffffffffffffffffffffff\n      and\n      dup2\n      mstore\n      0x20\n      add\n      swap1\n      dup2\n      mstore\n      0x20\n      add\n      0x00\n      keccak256\n      0x00\n      swap1\n      sload\n      swap1\n      0x0100\n      exp\n      swap1\n      div\n      0xff\n      and\n        /* \"contracts/OrderManagement.sol\":1668:1749  require(approvedManagers[msg.sender], \"Access Denied: Not an authorized manager\") */\n      tag_98\n      jumpi\n      mload(0x40)\n      0x08c379a000000000000000000000000000000000000000000000000000000000\n      dup2\n      mstore\n      0x04\n      add\n      tag_99\n      swap1\n      tag_39\n      jump\t// in\n    tag_99:\n      mload(0x40)\n      dup1\n      swap2\n      sub\n      swap1\n      revert\n    tag_98:\n        /* \"contracts/OrderManagement.sol\":2073:2079  paused */\n      0x02\n      0x00\n      swap1\n      sload\n      swap1\n      0x0100\n      exp\n      swap1\n      div\n      0xff\n      and\n        /* \"contracts/OrderManagement.sol\":2072:2079  !paused */\n      iszero\n        /* \"contracts/OrderManagement.sol\":2064:2119  require(!paused, \"Operation Error: Contract is paused\") */\n      tag_101\n      jumpi\n      mload(0x40)\n      0x08c379a000000000000000000000000000000000000000000000000000000000\n      dup2\n      mstore\n      0x04\n      add\n      tag_102\n      swap1\n      tag_51\n      jump\t// in\n    tag_102:\n      mload(0x40)\n      dup1\n      swap2\n      sub\n      swap1\n      revert\n    tag_101:\n        /* \"contracts/OrderManagement.sol\":3599:3605  orders */\n      0x00\n        /* \"contracts/OrderManagement.sol\":3599:3615  orders[_orderId] */\n      dup1\n        /* \"contracts/OrderManagement.sol\":3606:3614  _orderId */\n      dup7\n        /* \"contracts/OrderManagement.sol\":3599:3615  orders[_orderId] */\n      dup2\n      mstore\n      0x20\n      add\n      swap1\n      dup2\n      mstore\n      0x20\n      add\n      0x00\n      keccak256\n        /* \"contracts/OrderManagement.sol\":3599:3628  orders[_orderId].isRegistered */\n      0x06\n      add\n      0x01\n      swap1\n      sload\n      swap1\n      0x0100\n      exp\n      swap1\n      div\n      0xff\n      and\n        /* \"contracts/OrderManagement.sol\":3598:3628  !orders[_orderId].isRegistered */\n      iszero\n        /* \"contracts/OrderManagement.sol\":3590:3669  require(!orders[_orderId].isRegistered, \"Creation Error: Order already exists\") */\n      tag_104\n      jumpi\n      mload(0x40)\n      0x08c379a000000000000000000000000000000000000000000000000000000000\n      dup2\n      mstore\n      0x04\n      add\n      tag_105\n      swap1\n      tag_106\n      jump\t// in\n    tag_105:\n      mload(0x40)\n      dup1\n      swap2\n      sub\n      swap1\n      revert\n    tag_104:\n        /* \"contracts/OrderManagement.sol\":3705:3706  0 */\n      0x00\n        /* \"contracts/OrderManagement.sol\":3687:3707  _buyer != address(0) */\n      0xffffffffffffffffffffffffffffffffffffffff\n      and\n        /* \"contracts/OrderManagement.sol\":3687:3693  _buyer */\n      dup5\n        /* \"contracts/OrderManagement.sol\":3687:3707  _buyer != address(0) */\n      0xffffffffffffffffffffffffffffffffffffffff\n      and\n      eq\n      iszero\n        /* \"contracts/OrderManagement.sol\":3687:3732  _buyer != address(0) && _seller != address(0) */\n      dup1\n      iszero\n      tag_107\n      jumpi\n      pop\n        /* \"contracts/OrderManagement.sol\":3730:3731  0 */\n      0x00\n        /* \"contracts/OrderManagement.sol\":3711:3732  _seller != address(0) */\n      0xffffffffffffffffffffffffffffffffffffffff\n      and\n        /* \"contracts/OrderManagement.sol\":3711:3718  _seller */\n      dup4\n        /* \"contracts/OrderManagement.sol\":3711:3732  _seller != address(0) */\n      0xffffffffffffffffffffffffffffffffffffffff\n      and\n      eq\n      iszero\n        /* \"contracts/OrderManagement.sol\":3687:3732  _buyer != address(0) && _seller != address(0) */\n    tag_107:\n        /* \"contracts/OrderManagement.sol\":3679:3784  require(_buyer != address(0) && _seller != address(0), \"Creation Error: Invalid buyer or seller address\") */\n      tag_108\n      jumpi\n      mload(0x40)\n      0x08c379a000000000000000000000000000000000000000000000000000000000\n      dup2\n      mstore\n      0x04\n      add\n      tag_109\n      swap1\n      tag_110\n      jump\t// in\n    tag_109:\n      mload(0x40)\n      dup1\n      swap2\n      sub\n      swap1\n      revert\n    tag_108:\n        /* \"contracts/OrderManagement.sol\":3814:4099  Order({... */\n      mload(0x40)\n      dup1\n      0x0100\n      add\n      0x40\n      mstore\n      dup1\n        /* \"contracts/OrderManagement.sol\":3843:3851  _orderId */\n      dup7\n        /* \"contracts/OrderManagement.sol\":3814:4099  Order({... */\n      dup2\n      mstore\n      0x20\n      add\n        /* \"contracts/OrderManagement.sol\":3872:3878  _buyer */\n      dup6\n        /* \"contracts/OrderManagement.sol\":3814:4099  Order({... */\n      0xffffffffffffffffffffffffffffffffffffffff\n      and\n      dup2\n      mstore\n      0x20\n      add\n        /* \"contracts/OrderManagement.sol\":3900:3907  _seller */\n      dup5\n        /* \"contracts/OrderManagement.sol\":3814:4099  Order({... */\n      0xffffffffffffffffffffffffffffffffffffffff\n      and\n      dup2\n      mstore\n      0x20\n      add\n        /* \"contracts/OrderManagement.sol\":3932:3942  _productId */\n      dup4\n        /* \"contracts/OrderManagement.sol\":3814:4099  Order({... */\n      dup2\n      mstore\n      0x20\n      add\n        /* \"contracts/OrderManagement.sol\":3966:3975  _quantity */\n      dup3\n        /* \"contracts/OrderManagement.sol\":3814:4099  Order({... */\n      dup2\n      mstore\n      0x20\n      add\n        /* \"contracts/OrderManagement.sol\":4000:4015  block.timestamp */\n      timestamp\n        /* \"contracts/OrderManagement.sol\":3814:4099  Order({... */\n      dup2\n      mstore\n      0x20\n      add\n        /* \"contracts/OrderManagement.sol\":4037:4056  OrderStatus.Pending */\n      0x00\n        /* \"contracts/OrderManagement.sol\":3814:4099  Order({... */\n      0x03\n      dup2\n      gt\n      iszero\n      tag_111\n      jumpi\n      tag_112\n      tag_55\n      jump\t// in\n    tag_112:\n    tag_111:\n      dup2\n      mstore\n      0x20\n      add\n        /* \"contracts/OrderManagement.sol\":4084:4088  true */\n      0x01\n        /* \"contracts/OrderManagement.sol\":3814:4099  Order({... */\n      iszero\n      iszero\n      dup2\n      mstore\n      pop\n        /* \"contracts/OrderManagement.sol\":3795:3801  orders */\n      0x00\n        /* \"contracts/OrderManagement.sol\":3795:3811  orders[_orderId] */\n      dup1\n        /* \"contracts/OrderManagement.sol\":3802:3810  _orderId */\n      dup8\n        /* \"contracts/OrderManagement.sol\":3795:3811  orders[_orderId] */\n      dup2\n      mstore\n      0x20\n      add\n      swap1\n      dup2\n      mstore\n      0x20\n      add\n      0x00\n      keccak256\n        /* \"contracts/OrderManagement.sol\":3795:4099  orders[_orderId] = Order({... */\n      0x00\n      dup3\n      add\n      mload\n      dup2\n      0x00\n      add\n      sstore\n      0x20\n      dup3\n      add\n      mload\n      dup2\n      0x01\n      add\n      exp(0x0100, 0x00)\n      dup2\n      sload\n      dup2\n      0xffffffffffffffffffffffffffffffffffffffff\n      mul\n      not\n      and\n      swap1\n      dup4\n      0xffffffffffffffffffffffffffffffffffffffff\n      and\n      mul\n      or\n      swap1\n      sstore\n      pop\n      0x40\n      dup3\n      add\n      mload\n      dup2\n      0x02\n      add\n      exp(0x0100, 0x00)\n      dup2\n      sload\n      dup2\n      0xffffffffffffffffffffffffffffffffffffffff\n      mul\n      not\n      and\n      swap1\n      dup4\n      0xffffffffffffffffffffffffffffffffffffffff\n      and\n      mul\n      or\n      swap1\n      sstore\n      pop\n      0x60\n      dup3\n      add\n      mload\n      dup2\n      0x03\n      add\n      sstore\n      0x80\n      dup3\n      add\n      mload\n      dup2\n      0x04\n      add\n      sstore\n      0xa0\n      dup3\n      add\n      mload\n      dup2\n      0x05\n      add\n      sstore\n      0xc0\n      dup3\n      add\n      mload\n      dup2\n      0x06\n      add\n      exp(0x0100, 0x00)\n      dup2\n      sload\n      dup2\n      0xff\n      mul\n      not\n      and\n      swap1\n      dup4\n      0x03\n      dup2\n      gt\n      iszero\n      tag_113\n      jumpi\n      tag_114\n      tag_55\n      jump\t// in\n    tag_114:\n    tag_113:\n      mul\n      or\n      swap1\n      sstore\n      pop\n      0xe0\n      dup3\n      add\n      mload\n      dup2\n      0x06\n      add\n      exp(0x0100, 0x01)\n      dup2\n      sload\n      dup2\n      0xff\n      mul\n      not\n      and\n      swap1\n      dup4\n      iszero\n      iszero\n      mul\n      or\n      swap1\n      sstore\n      pop\n      swap1\n      pop\n      pop\n        /* \"contracts/OrderManagement.sol\":4146:4153  _seller */\n      dup3\n        /* \"contracts/OrderManagement.sol\":4115:4177  OrderCreated(_orderId, _buyer, _seller, _productId, _quantity) */\n      0xffffffffffffffffffffffffffffffffffffffff\n      and\n        /* \"contracts/OrderManagement.sol\":4138:4144  _buyer */\n      dup5\n        /* \"contracts/OrderManagement.sol\":4115:4177  OrderCreated(_orderId, _buyer, _seller, _productId, _quantity) */\n      0xffffffffffffffffffffffffffffffffffffffff\n      and\n        /* \"contracts/OrderManagement.sol\":4128:4136  _orderId */\n      dup7\n        /* \"contracts/OrderManagement.sol\":4115:4177  OrderCreated(_orderId, _buyer, _seller, _productId, _quantity) */\n      0x5f88d55333195757ca319aa0ac617520059267f8245f2067982a6caaf6916b81\n        /* \"contracts/OrderManagement.sol\":4155:4165  _productId */\n      dup6\n        /* \"contracts/OrderManagement.sol\":4167:4176  _quantity */\n      dup6\n        /* \"contracts/OrderManagement.sol\":4115:4177  OrderCreated(_orderId, _buyer, _seller, _productId, _quantity) */\n      mload(0x40)\n      tag_115\n      swap3\n      swap2\n      swap1\n      tag_116\n      jump\t// in\n    tag_115:\n      mload(0x40)\n      dup1\n      swap2\n      sub\n      swap1\n      log4\n        /* \"contracts/OrderManagement.sol\":3412:4184  function createOrder(uint256 _orderId, address _buyer, address _seller, uint256 _productId, uint256 _quantity) ... */\n      pop\n      pop\n      pop\n      pop\n      pop\n      jump\t// out\n        /* \"#utility.yul\":88:205   */\n    tag_118:\n        /* \"#utility.yul\":197:198   */\n      0x00\n        /* \"#utility.yul\":194:195   */\n      dup1\n        /* \"#utility.yul\":187:199   */\n      revert\n        /* \"#utility.yul\":334:411   */\n    tag_120:\n        /* \"#utility.yul\":371:378   */\n      0x00\n        /* \"#utility.yul\":400:405   */\n      dup2\n        /* \"#utility.yul\":389:405   */\n      swap1\n      pop\n        /* \"#utility.yul\":334:411   */\n      swap2\n      swap1\n      pop\n      jump\t// out\n        /* \"#utility.yul\":417:539   */\n    tag_121:\n        /* \"#utility.yul\":490:514   */\n      tag_158\n        /* \"#utility.yul\":508:513   */\n      dup2\n        /* \"#utility.yul\":490:514   */\n      tag_120\n      jump\t// in\n    tag_158:\n        /* \"#utility.yul\":483:488   */\n      dup2\n        /* \"#utility.yul\":480:515   */\n      eq\n        /* \"#utility.yul\":470:533   */\n      tag_159\n      jumpi\n        /* \"#utility.yul\":529:530   */\n      0x00\n        /* \"#utility.yul\":526:527   */\n      dup1\n        /* \"#utility.yul\":519:531   */\n      revert\n        /* \"#utility.yul\":470:533   */\n    tag_159:\n        /* \"#utility.yul\":417:539   */\n      pop\n      jump\t// out\n        /* \"#utility.yul\":545:684   */\n    tag_122:\n        /* \"#utility.yul\":591:596   */\n      0x00\n        /* \"#utility.yul\":629:635   */\n      dup2\n        /* \"#utility.yul\":616:636   */\n      calldataload\n        /* \"#utility.yul\":607:636   */\n      swap1\n      pop\n        /* \"#utility.yul\":645:678   */\n      tag_161\n        /* \"#utility.yul\":672:677   */\n      dup2\n        /* \"#utility.yul\":645:678   */\n      tag_121\n      jump\t// in\n    tag_161:\n        /* \"#utility.yul\":545:684   */\n      swap3\n      swap2\n      pop\n      pop\n      jump\t// out\n        /* \"#utility.yul\":690:802   */\n    tag_123:\n        /* \"#utility.yul\":776:777   */\n      0x04\n        /* \"#utility.yul\":769:774   */\n      dup2\n        /* \"#utility.yul\":766:778   */\n      lt\n        /* \"#utility.yul\":756:796   */\n      tag_163\n      jumpi\n        /* \"#utility.yul\":792:793   */\n      0x00\n        /* \"#utility.yul\":789:790   */\n      dup1\n        /* \"#utility.yul\":782:794   */\n      revert\n        /* \"#utility.yul\":756:796   */\n    tag_163:\n        /* \"#utility.yul\":690:802   */\n      pop\n      jump\t// out\n        /* \"#utility.yul\":808:973   */\n    tag_124:\n        /* \"#utility.yul\":867:872   */\n      0x00\n        /* \"#utility.yul\":905:911   */\n      dup2\n        /* \"#utility.yul\":892:912   */\n      calldataload\n        /* \"#utility.yul\":883:912   */\n      swap1\n      pop\n        /* \"#utility.yul\":921:967   */\n      tag_165\n        /* \"#utility.yul\":961:966   */\n      dup2\n        /* \"#utility.yul\":921:967   */\n      tag_123\n      jump\t// in\n    tag_165:\n        /* \"#utility.yul\":808:973   */\n      swap3\n      swap2\n      pop\n      pop\n      jump\t// out\n        /* \"#utility.yul\":979:1479   */\n    tag_15:\n        /* \"#utility.yul\":1060:1066   */\n      0x00\n        /* \"#utility.yul\":1068:1074   */\n      dup1\n        /* \"#utility.yul\":1117:1119   */\n      0x40\n        /* \"#utility.yul\":1105:1114   */\n      dup4\n        /* \"#utility.yul\":1096:1103   */\n      dup6\n        /* \"#utility.yul\":1092:1115   */\n      sub\n        /* \"#utility.yul\":1088:1120   */\n      slt\n        /* \"#utility.yul\":1085:1204   */\n      iszero\n      tag_167\n      jumpi\n        /* \"#utility.yul\":1123:1202   */\n      tag_168\n      tag_118\n      jump\t// in\n    tag_168:\n        /* \"#utility.yul\":1085:1204   */\n    tag_167:\n        /* \"#utility.yul\":1243:1244   */\n      0x00\n        /* \"#utility.yul\":1268:1321   */\n      tag_169\n        /* \"#utility.yul\":1313:1320   */\n      dup6\n        /* \"#utility.yul\":1304:1310   */\n      dup3\n        /* \"#utility.yul\":1293:1302   */\n      dup7\n        /* \"#utility.yul\":1289:1311   */\n      add\n        /* \"#utility.yul\":1268:1321   */\n      tag_122\n      jump\t// in\n    tag_169:\n        /* \"#utility.yul\":1258:1321   */\n      swap3\n      pop\n        /* \"#utility.yul\":1214:1331   */\n      pop\n        /* \"#utility.yul\":1370:1372   */\n      0x20\n        /* \"#utility.yul\":1396:1462   */\n      tag_170\n        /* \"#utility.yul\":1454:1461   */\n      dup6\n        /* \"#utility.yul\":1445:1451   */\n      dup3\n        /* \"#utility.yul\":1434:1443   */\n      dup7\n        /* \"#utility.yul\":1430:1452   */\n      add\n        /* \"#utility.yul\":1396:1462   */\n      tag_124\n      jump\t// in\n    tag_170:\n        /* \"#utility.yul\":1386:1462   */\n      swap2\n      pop\n        /* \"#utility.yul\":1341:1472   */\n      pop\n        /* \"#utility.yul\":979:1479   */\n      swap3\n      pop\n      swap3\n      swap1\n      pop\n      jump\t// out\n        /* \"#utility.yul\":1485:1611   */\n    tag_125:\n        /* \"#utility.yul\":1522:1529   */\n      0x00\n        /* \"#utility.yul\":1562:1604   */\n      0xffffffffffffffffffffffffffffffffffffffff\n        /* \"#utility.yul\":1555:1560   */\n      dup3\n        /* \"#utility.yul\":1551:1605   */\n      and\n        /* \"#utility.yul\":1540:1605   */\n      swap1\n      pop\n        /* \"#utility.yul\":1485:1611   */\n      swap2\n      swap1\n      pop\n      jump\t// out\n        /* \"#utility.yul\":1617:1713   */\n    tag_126:\n        /* \"#utility.yul\":1654:1661   */\n      0x00\n        /* \"#utility.yul\":1683:1707   */\n      tag_173\n        /* \"#utility.yul\":1701:1706   */\n      dup3\n        /* \"#utility.yul\":1683:1707   */\n      tag_125\n      jump\t// in\n    tag_173:\n        /* \"#utility.yul\":1672:1707   */\n      swap1\n      pop\n        /* \"#utility.yul\":1617:1713   */\n      swap2\n      swap1\n      pop\n      jump\t// out\n        /* \"#utility.yul\":1719:1841   */\n    tag_127:\n        /* \"#utility.yul\":1792:1816   */\n      tag_175\n        /* \"#utility.yul\":1810:1815   */\n      dup2\n        /* \"#utility.yul\":1792:1816   */\n      tag_126\n      jump\t// in\n    tag_175:\n        /* \"#utility.yul\":1785:1790   */\n      dup2\n        /* \"#utility.yul\":1782:1817   */\n      eq\n        /* \"#utility.yul\":1772:1835   */\n      tag_176\n      jumpi\n        /* \"#utility.yul\":1831:1832   */\n      0x00\n        /* \"#utility.yul\":1828:1829   */\n      dup1\n        /* \"#utility.yul\":1821:1833   */\n      revert\n        /* \"#utility.yul\":1772:1835   */\n    tag_176:\n        /* \"#utility.yul\":1719:1841   */\n      pop\n      jump\t// out\n        /* \"#utility.yul\":1847:1986   */\n    tag_128:\n        /* \"#utility.yul\":1893:1898   */\n      0x00\n        /* \"#utility.yul\":1931:1937   */\n      dup2\n        /* \"#utility.yul\":1918:1938   */\n      calldataload\n        /* \"#utility.yul\":1909:1938   */\n      swap1\n      pop\n        /* \"#utility.yul\":1947:1980   */\n      tag_178\n        /* \"#utility.yul\":1974:1979   */\n      dup2\n        /* \"#utility.yul\":1947:1980   */\n      tag_127\n      jump\t// in\n    tag_178:\n        /* \"#utility.yul\":1847:1986   */\n      swap3\n      swap2\n      pop\n      pop\n      jump\t// out\n        /* \"#utility.yul\":1992:2321   */\n    tag_19:\n        /* \"#utility.yul\":2051:2057   */\n      0x00\n        /* \"#utility.yul\":2100:2102   */\n      0x20\n        /* \"#utility.yul\":2088:2097   */\n      dup3\n        /* \"#utility.yul\":2079:2086   */\n      dup5\n        /* \"#utility.yul\":2075:2098   */\n      sub\n        /* \"#utility.yul\":2071:2103   */\n      slt\n        /* \"#utility.yul\":2068:2187   */\n      iszero\n      tag_180\n      jumpi\n        /* \"#utility.yul\":2106:2185   */\n      tag_181\n      tag_118\n      jump\t// in\n    tag_181:\n        /* \"#utility.yul\":2068:2187   */\n    tag_180:\n        /* \"#utility.yul\":2226:2227   */\n      0x00\n        /* \"#utility.yul\":2251:2304   */\n      tag_182\n        /* \"#utility.yul\":2296:2303   */\n      dup5\n        /* \"#utility.yul\":2287:2293   */\n      dup3\n        /* \"#utility.yul\":2276:2285   */\n      dup6\n        /* \"#utility.yul\":2272:2294   */\n      add\n        /* \"#utility.yul\":2251:2304   */\n      tag_128\n      jump\t// in\n    tag_182:\n        /* \"#utility.yul\":2241:2304   */\n      swap2\n      pop\n        /* \"#utility.yul\":2197:2314   */\n      pop\n        /* \"#utility.yul\":1992:2321   */\n      swap3\n      swap2\n      pop\n      pop\n      jump\t// out\n        /* \"#utility.yul\":2327:2656   */\n    tag_28:\n        /* \"#utility.yul\":2386:2392   */\n      0x00\n        /* \"#utility.yul\":2435:2437   */\n      0x20\n        /* \"#utility.yul\":2423:2432   */\n      dup3\n        /* \"#utility.yul\":2414:2421   */\n      dup5\n        /* \"#utility.yul\":2410:2433   */\n      sub\n        /* \"#utility.yul\":2406:2438   */\n      slt\n        /* \"#utility.yul\":2403:2522   */\n      iszero\n      tag_184\n      jumpi\n        /* \"#utility.yul\":2441:2520   */\n      tag_185\n      tag_118\n      jump\t// in\n    tag_185:\n        /* \"#utility.yul\":2403:2522   */\n    tag_184:\n        /* \"#utility.yul\":2561:2562   */\n      0x00\n        /* \"#utility.yul\":2586:2639   */\n      tag_186\n        /* \"#utility.yul\":2631:2638   */\n      dup5\n        /* \"#utility.yul\":2622:2628   */\n      dup3\n        /* \"#utility.yul\":2611:2620   */\n      dup6\n        /* \"#utility.yul\":2607:2629   */\n      add\n        /* \"#utility.yul\":2586:2639   */\n      tag_122\n      jump\t// in\n    tag_186:\n        /* \"#utility.yul\":2576:2639   */\n      swap2\n      pop\n        /* \"#utility.yul\":2532:2649   */\n      pop\n        /* \"#utility.yul\":2327:2656   */\n      swap3\n      swap2\n      pop\n      pop\n      jump\t// out\n        /* \"#utility.yul\":2662:2780   */\n    tag_129:\n        /* \"#utility.yul\":2749:2773   */\n      tag_188\n        /* \"#utility.yul\":2767:2772   */\n      dup2\n        /* \"#utility.yul\":2749:2773   */\n      tag_126\n      jump\t// in\n    tag_188:\n        /* \"#utility.yul\":2744:2747   */\n      dup3\n        /* \"#utility.yul\":2737:2774   */\n      mstore\n        /* \"#utility.yul\":2662:2780   */\n      pop\n      pop\n      jump\t// out\n        /* \"#utility.yul\":2786:2904   */\n    tag_130:\n        /* \"#utility.yul\":2873:2897   */\n      tag_190\n        /* \"#utility.yul\":2891:2896   */\n      dup2\n        /* \"#utility.yul\":2873:2897   */\n      tag_120\n      jump\t// in\n    tag_190:\n        /* \"#utility.yul\":2868:2871   */\n      dup3\n        /* \"#utility.yul\":2861:2898   */\n      mstore\n        /* \"#utility.yul\":2786:2904   */\n      pop\n      pop\n      jump\t// out\n        /* \"#utility.yul\":2910:3090   */\n    tag_55:\n        /* \"#utility.yul\":2958:3035   */\n      0x4e487b7100000000000000000000000000000000000000000000000000000000\n        /* \"#utility.yul\":2955:2956   */\n      0x00\n        /* \"#utility.yul\":2948:3036   */\n      mstore\n        /* \"#utility.yul\":3055:3059   */\n      0x21\n        /* \"#utility.yul\":3052:3053   */\n      0x04\n        /* \"#utility.yul\":3045:3060   */\n      mstore\n        /* \"#utility.yul\":3079:3083   */\n      0x24\n        /* \"#utility.yul\":3076:3077   */\n      0x00\n        /* \"#utility.yul\":3069:3084   */\n      revert\n        /* \"#utility.yul\":3096:3214   */\n    tag_131:\n        /* \"#utility.yul\":3182:3183   */\n      0x04\n        /* \"#utility.yul\":3175:3180   */\n      dup2\n        /* \"#utility.yul\":3172:3184   */\n      lt\n        /* \"#utility.yul\":3162:3208   */\n      tag_193\n      jumpi\n        /* \"#utility.yul\":3188:3206   */\n      tag_194\n      tag_55\n      jump\t// in\n    tag_194:\n        /* \"#utility.yul\":3162:3208   */\n    tag_193:\n        /* \"#utility.yul\":3096:3214   */\n      pop\n      jump\t// out\n        /* \"#utility.yul\":3220:3357   */\n    tag_132:\n        /* \"#utility.yul\":3270:3277   */\n      0x00\n        /* \"#utility.yul\":3299:3304   */\n      dup2\n        /* \"#utility.yul\":3288:3304   */\n      swap1\n      pop\n        /* \"#utility.yul\":3305:3351   */\n      tag_196\n        /* \"#utility.yul\":3345:3350   */\n      dup3\n        /* \"#utility.yul\":3305:3351   */\n      tag_131\n      jump\t// in\n    tag_196:\n        /* \"#utility.yul\":3220:3357   */\n      swap2\n      swap1\n      pop\n      jump\t// out\n        /* \"#utility.yul\":3363:3500   */\n    tag_133:\n        /* \"#utility.yul\":3424:3433   */\n      0x00\n        /* \"#utility.yul\":3457:3494   */\n      tag_198\n        /* \"#utility.yul\":3488:3493   */\n      dup3\n        /* \"#utility.yul\":3457:3494   */\n      tag_132\n      jump\t// in\n    tag_198:\n        /* \"#utility.yul\":3444:3494   */\n      swap1\n      pop\n        /* \"#utility.yul\":3363:3500   */\n      swap2\n      swap1\n      pop\n      jump\t// out\n        /* \"#utility.yul\":3506:3659   */\n    tag_134:\n        /* \"#utility.yul\":3604:3652   */\n      tag_200\n        /* \"#utility.yul\":3646:3651   */\n      dup2\n        /* \"#utility.yul\":3604:3652   */\n      tag_133\n      jump\t// in\n    tag_200:\n        /* \"#utility.yul\":3599:3602   */\n      dup3\n        /* \"#utility.yul\":3592:3653   */\n      mstore\n        /* \"#utility.yul\":3506:3659   */\n      pop\n      pop\n      jump\t// out\n        /* \"#utility.yul\":3665:4462   */\n    tag_31:\n        /* \"#utility.yul\":3909:3913   */\n      0x00\n        /* \"#utility.yul\":3947:3950   */\n      0xc0\n        /* \"#utility.yul\":3936:3945   */\n      dup3\n        /* \"#utility.yul\":3932:3951   */\n      add\n        /* \"#utility.yul\":3924:3951   */\n      swap1\n      pop\n        /* \"#utility.yul\":3961:4032   */\n      tag_202\n        /* \"#utility.yul\":4029:4030   */\n      0x00\n        /* \"#utility.yul\":4018:4027   */\n      dup4\n        /* \"#utility.yul\":4014:4031   */\n      add\n        /* \"#utility.yul\":4005:4011   */\n      dup10\n        /* \"#utility.yul\":3961:4032   */\n      tag_129\n      jump\t// in\n    tag_202:\n        /* \"#utility.yul\":4042:4114   */\n      tag_203\n        /* \"#utility.yul\":4110:4112   */\n      0x20\n        /* \"#utility.yul\":4099:4108   */\n      dup4\n        /* \"#utility.yul\":4095:4113   */\n      add\n        /* \"#utility.yul\":4086:4092   */\n      dup9\n        /* \"#utility.yul\":4042:4114   */\n      tag_129\n      jump\t// in\n    tag_203:\n        /* \"#utility.yul\":4124:4196   */\n      tag_204\n        /* \"#utility.yul\":4192:4194   */\n      0x40\n        /* \"#utility.yul\":4181:4190   */\n      dup4\n        /* \"#utility.yul\":4177:4195   */\n      add\n        /* \"#utility.yul\":4168:4174   */\n      dup8\n        /* \"#utility.yul\":4124:4196   */\n      tag_130\n      jump\t// in\n    tag_204:\n        /* \"#utility.yul\":4206:4278   */\n      tag_205\n        /* \"#utility.yul\":4274:4276   */\n      0x60\n        /* \"#utility.yul\":4263:4272   */\n      dup4\n        /* \"#utility.yul\":4259:4277   */\n      add\n        /* \"#utility.yul\":4250:4256   */\n      dup7\n        /* \"#utility.yul\":4206:4278   */\n      tag_130\n      jump\t// in\n    tag_205:\n        /* \"#utility.yul\":4288:4361   */\n      tag_206\n        /* \"#utility.yul\":4356:4359   */\n      0x80\n        /* \"#utility.yul\":4345:4354   */\n      dup4\n        /* \"#utility.yul\":4341:4360   */\n      add\n        /* \"#utility.yul\":4332:4338   */\n      dup6\n        /* \"#utility.yul\":4288:4361   */\n      tag_130\n      jump\t// in\n    tag_206:\n        /* \"#utility.yul\":4371:4455   */\n      tag_207\n        /* \"#utility.yul\":4450:4453   */\n      0xa0\n        /* \"#utility.yul\":4439:4448   */\n      dup4\n        /* \"#utility.yul\":4435:4454   */\n      add\n        /* \"#utility.yul\":4426:4432   */\n      dup5\n        /* \"#utility.yul\":4371:4455   */\n      tag_134\n      jump\t// in\n    tag_207:\n        /* \"#utility.yul\":3665:4462   */\n      swap8\n      swap7\n      pop\n      pop\n      pop\n      pop\n      pop\n      pop\n      pop\n      jump\t// out\n        /* \"#utility.yul\":4468:5379   */\n    tag_34:\n        /* \"#utility.yul\":4563:4569   */\n      0x00\n        /* \"#utility.yul\":4571:4577   */\n      dup1\n        /* \"#utility.yul\":4579:4585   */\n      0x00\n        /* \"#utility.yul\":4587:4593   */\n      dup1\n        /* \"#utility.yul\":4595:4601   */\n      0x00\n        /* \"#utility.yul\":4644:4647   */\n      0xa0\n        /* \"#utility.yul\":4632:4641   */\n      dup7\n        /* \"#utility.yul\":4623:4630   */\n      dup9\n        /* \"#utility.yul\":4619:4642   */\n      sub\n        /* \"#utility.yul\":4615:4648   */\n      slt\n        /* \"#utility.yul\":4612:4732   */\n      iszero\n      tag_209\n      jumpi\n        /* \"#utility.yul\":4651:4730   */\n      tag_210\n      tag_118\n      jump\t// in\n    tag_210:\n        /* \"#utility.yul\":4612:4732   */\n    tag_209:\n        /* \"#utility.yul\":4771:4772   */\n      0x00\n        /* \"#utility.yul\":4796:4849   */\n      tag_211\n        /* \"#utility.yul\":4841:4848   */\n      dup9\n        /* \"#utility.yul\":4832:4838   */\n      dup3\n        /* \"#utility.yul\":4821:4830   */\n      dup10\n        /* \"#utility.yul\":4817:4839   */\n      add\n        /* \"#utility.yul\":4796:4849   */\n      tag_122\n      jump\t// in\n    tag_211:\n        /* \"#utility.yul\":4786:4849   */\n      swap6\n      pop\n        /* \"#utility.yul\":4742:4859   */\n      pop\n        /* \"#utility.yul\":4898:4900   */\n      0x20\n        /* \"#utility.yul\":4924:4977   */\n      tag_212\n        /* \"#utility.yul\":4969:4976   */\n      dup9\n        /* \"#utility.yul\":4960:4966   */\n      dup3\n        /* \"#utility.yul\":4949:4958   */\n      dup10\n        /* \"#utility.yul\":4945:4967   */\n      add\n        /* \"#utility.yul\":4924:4977   */\n      tag_128\n      jump\t// in\n    tag_212:\n        /* \"#utility.yul\":4914:4977   */\n      swap5\n      pop\n        /* \"#utility.yul\":4869:4987   */\n      pop\n        /* \"#utility.yul\":5026:5028   */\n      0x40\n        /* \"#utility.yul\":5052:5105   */\n      tag_213\n        /* \"#utility.yul\":5097:5104   */\n      dup9\n        /* \"#utility.yul\":5088:5094   */\n      dup3\n        /* \"#utility.yul\":5077:5086   */\n      dup10\n        /* \"#utility.yul\":5073:5095   */\n      add\n        /* \"#utility.yul\":5052:5105   */\n      tag_128\n      jump\t// in\n    tag_213:\n        /* \"#utility.yul\":5042:5105   */\n      swap4\n      pop\n        /* \"#utility.yul\":4997:5115   */\n      pop\n        /* \"#utility.yul\":5154:5156   */\n      0x60\n        /* \"#utility.yul\":5180:5233   */\n      tag_214\n        /* \"#utility.yul\":5225:5232   */\n      dup9\n        /* \"#utility.yul\":5216:5222   */\n      dup3\n        /* \"#utility.yul\":5205:5214   */\n      dup10\n        /* \"#utility.yul\":5201:5223   */\n      add\n        /* \"#utility.yul\":5180:5233   */\n      tag_122\n      jump\t// in\n    tag_214:\n        /* \"#utility.yul\":5170:5233   */\n      swap3\n      pop\n        /* \"#utility.yul\":5125:5243   */\n      pop\n        /* \"#utility.yul\":5282:5285   */\n      0x80\n        /* \"#utility.yul\":5309:5362   */\n      tag_215\n        /* \"#utility.yul\":5354:5361   */\n      dup9\n        /* \"#utility.yul\":5345:5351   */\n      dup3\n        /* \"#utility.yul\":5334:5343   */\n      dup10\n        /* \"#utility.yul\":5330:5352   */\n      add\n        /* \"#utility.yul\":5309:5362   */\n      tag_122\n      jump\t// in\n    tag_215:\n        /* \"#utility.yul\":5299:5362   */\n      swap2\n      pop\n        /* \"#utility.yul\":5253:5372   */\n      pop\n        /* \"#utility.yul\":4468:5379   */\n      swap3\n      swap6\n      pop\n      swap3\n      swap6\n      swap1\n      swap4\n      pop\n      jump\t// out\n        /* \"#utility.yul\":5385:5554   */\n    tag_135:\n        /* \"#utility.yul\":5469:5480   */\n      0x00\n        /* \"#utility.yul\":5503:5509   */\n      dup3\n        /* \"#utility.yul\":5498:5501   */\n      dup3\n        /* \"#utility.yul\":5491:5510   */\n      mstore\n        /* \"#utility.yul\":5543:5547   */\n      0x20\n        /* \"#utility.yul\":5538:5541   */\n      dup3\n        /* \"#utility.yul\":5534:5548   */\n      add\n        /* \"#utility.yul\":5519:5548   */\n      swap1\n      pop\n        /* \"#utility.yul\":5385:5554   */\n      swap3\n      swap2\n      pop\n      pop\n      jump\t// out\n        /* \"#utility.yul\":5560:5787   */\n    tag_136:\n        /* \"#utility.yul\":5700:5734   */\n      0x4163636573732044656e6965643a204e6f7420616e20617574686f72697a6564\n        /* \"#utility.yul\":5696:5697   */\n      0x00\n        /* \"#utility.yul\":5688:5694   */\n      dup3\n        /* \"#utility.yul\":5684:5698   */\n      add\n        /* \"#utility.yul\":5677:5735   */\n      mstore\n        /* \"#utility.yul\":5769:5779   */\n      0x206d616e61676572000000000000000000000000000000000000000000000000\n        /* \"#utility.yul\":5764:5766   */\n      0x20\n        /* \"#utility.yul\":5756:5762   */\n      dup3\n        /* \"#utility.yul\":5752:5767   */\n      add\n        /* \"#utility.yul\":5745:5780   */\n      mstore\n        /* \"#utility.yul\":5560:5787   */\n      pop\n      jump\t// out\n        /* \"#utility.yul\":5793:6159   */\n    tag_137:\n        /* \"#utility.yul\":5935:5938   */\n      0x00\n        /* \"#utility.yul\":5956:6023   */\n      tag_219\n        /* \"#utility.yul\":6020:6022   */\n      0x28\n        /* \"#utility.yul\":6015:6018   */\n      dup4\n        /* \"#utility.yul\":5956:6023   */\n      tag_135\n      jump\t// in\n    tag_219:\n        /* \"#utility.yul\":5949:6023   */\n      swap2\n      pop\n        /* \"#utility.yul\":6032:6125   */\n      tag_220\n        /* \"#utility.yul\":6121:6124   */\n      dup3\n        /* \"#utility.yul\":6032:6125   */\n      tag_136\n      jump\t// in\n    tag_220:\n        /* \"#utility.yul\":6150:6152   */\n      0x40\n        /* \"#utility.yul\":6145:6148   */\n      dup3\n        /* \"#utility.yul\":6141:6153   */\n      add\n        /* \"#utility.yul\":6134:6153   */\n      swap1\n      pop\n        /* \"#utility.yul\":5793:6159   */\n      swap2\n      swap1\n      pop\n      jump\t// out\n        /* \"#utility.yul\":6165:6584   */\n    tag_39:\n        /* \"#utility.yul\":6331:6335   */\n      0x00\n        /* \"#utility.yul\":6369:6371   */\n      0x20\n        /* \"#utility.yul\":6358:6367   */\n      dup3\n        /* \"#utility.yul\":6354:6372   */\n      add\n        /* \"#utility.yul\":6346:6372   */\n      swap1\n      pop\n        /* \"#utility.yul\":6418:6427   */\n      dup2\n        /* \"#utility.yul\":6412:6416   */\n      dup2\n        /* \"#utility.yul\":6408:6428   */\n      sub\n        /* \"#utility.yul\":6404:6405   */\n      0x00\n        /* \"#utility.yul\":6393:6402   */\n      dup4\n        /* \"#utility.yul\":6389:6406   */\n      add\n        /* \"#utility.yul\":6382:6429   */\n      mstore\n        /* \"#utility.yul\":6446:6577   */\n      tag_222\n        /* \"#utility.yul\":6572:6576   */\n      dup2\n        /* \"#utility.yul\":6446:6577   */\n      tag_137\n      jump\t// in\n    tag_222:\n        /* \"#utility.yul\":6438:6577   */\n      swap1\n      pop\n        /* \"#utility.yul\":6165:6584   */\n      swap2\n      swap1\n      pop\n      jump\t// out\n        /* \"#utility.yul\":6590:6810   */\n    tag_138:\n        /* \"#utility.yul\":6730:6764   */\n      0x5175657279204572726f723a204f72646572206e6f7420726567697374657265\n        /* \"#utility.yul\":6726:6727   */\n      0x00\n        /* \"#utility.yul\":6718:6724   */\n      dup3\n        /* \"#utility.yul\":6714:6728   */\n      add\n        /* \"#utility.yul\":6707:6765   */\n      mstore\n        /* \"#utility.yul\":6799:6802   */\n      0x6400000000000000000000000000000000000000000000000000000000000000\n        /* \"#utility.yul\":6794:6796   */\n      0x20\n        /* \"#utility.yul\":6786:6792   */\n      dup3\n        /* \"#utility.yul\":6782:6797   */\n      add\n        /* \"#utility.yul\":6775:6803   */\n      mstore\n        /* \"#utility.yul\":6590:6810   */\n      pop\n      jump\t// out\n        /* \"#utility.yul\":6816:7182   */\n    tag_139:\n        /* \"#utility.yul\":6958:6961   */\n      0x00\n        /* \"#utility.yul\":6979:7046   */\n      tag_225\n        /* \"#utility.yul\":7043:7045   */\n      0x21\n        /* \"#utility.yul\":7038:7041   */\n      dup4\n        /* \"#utility.yul\":6979:7046   */\n      tag_135\n      jump\t// in\n    tag_225:\n        /* \"#utility.yul\":6972:7046   */\n      swap2\n      pop\n        /* \"#utility.yul\":7055:7148   */\n      tag_226\n        /* \"#utility.yul\":7144:7147   */\n      dup3\n        /* \"#utility.yul\":7055:7148   */\n      tag_138\n      jump\t// in\n    tag_226:\n        /* \"#utility.yul\":7173:7175   */\n      0x40\n        /* \"#utility.yul\":7168:7171   */\n      dup3\n        /* \"#utility.yul\":7164:7176   */\n      add\n        /* \"#utility.yul\":7157:7176   */\n      swap1\n      pop\n        /* \"#utility.yul\":6816:7182   */\n      swap2\n      swap1\n      pop\n      jump\t// out\n        /* \"#utility.yul\":7188:7607   */\n    tag_47:\n        /* \"#utility.yul\":7354:7358   */\n      0x00\n        /* \"#utility.yul\":7392:7394   */\n      0x20\n        /* \"#utility.yul\":7381:7390   */\n      dup3\n        /* \"#utility.yul\":7377:7395   */\n      add\n        /* \"#utility.yul\":7369:7395   */\n      swap1\n      pop\n        /* \"#utility.yul\":7441:7450   */\n      dup2\n        /* \"#utility.yul\":7435:7439   */\n      dup2\n        /* \"#utility.yul\":7431:7451   */\n      sub\n        /* \"#utility.yul\":7427:7428   */\n      0x00\n        /* \"#utility.yul\":7416:7425   */\n      dup4\n        /* \"#utility.yul\":7412:7429   */\n      add\n        /* \"#utility.yul\":7405:7452   */\n      mstore\n        /* \"#utility.yul\":7469:7600   */\n      tag_228\n        /* \"#utility.yul\":7595:7599   */\n      dup2\n        /* \"#utility.yul\":7469:7600   */\n      tag_139\n      jump\t// in\n    tag_228:\n        /* \"#utility.yul\":7461:7600   */\n      swap1\n      pop\n        /* \"#utility.yul\":7188:7607   */\n      swap2\n      swap1\n      pop\n      jump\t// out\n        /* \"#utility.yul\":7613:7835   */\n    tag_140:\n        /* \"#utility.yul\":7753:7787   */\n      0x4f7065726174696f6e204572726f723a20436f6e747261637420697320706175\n        /* \"#utility.yul\":7749:7750   */\n      0x00\n        /* \"#utility.yul\":7741:7747   */\n      dup3\n        /* \"#utility.yul\":7737:7751   */\n      add\n        /* \"#utility.yul\":7730:7788   */\n      mstore\n        /* \"#utility.yul\":7822:7827   */\n      0x7365640000000000000000000000000000000000000000000000000000000000\n        /* \"#utility.yul\":7817:7819   */\n      0x20\n        /* \"#utility.yul\":7809:7815   */\n      dup3\n        /* \"#utility.yul\":7805:7820   */\n      add\n        /* \"#utility.yul\":7798:7828   */\n      mstore\n        /* \"#utility.yul\":7613:7835   */\n      pop\n      jump\t// out\n        /* \"#utility.yul\":7841:8207   */\n    tag_141:\n        /* \"#utility.yul\":7983:7986   */\n      0x00\n        /* \"#utility.yul\":8004:8071   */\n      tag_231\n        /* \"#utility.yul\":8068:8070   */\n      0x23\n        /* \"#utility.yul\":8063:8066   */\n      dup4\n        /* \"#utility.yul\":8004:8071   */\n      tag_135\n      jump\t// in\n    tag_231:\n        /* \"#utility.yul\":7997:8071   */\n      swap2\n      pop\n        /* \"#utility.yul\":8080:8173   */\n      tag_232\n        /* \"#utility.yul\":8169:8172   */\n      dup3\n        /* \"#utility.yul\":8080:8173   */\n      tag_140\n      jump\t// in\n    tag_232:\n        /* \"#utility.yul\":8198:8200   */\n      0x40\n        /* \"#utility.yul\":8193:8196   */\n      dup3\n        /* \"#utility.yul\":8189:8201   */\n      add\n        /* \"#utility.yul\":8182:8201   */\n      swap1\n      pop\n        /* \"#utility.yul\":7841:8207   */\n      swap2\n      swap1\n      pop\n      jump\t// out\n        /* \"#utility.yul\":8213:8632   */\n    tag_51:\n        /* \"#utility.yul\":8379:8383   */\n      0x00\n        /* \"#utility.yul\":8417:8419   */\n      0x20\n        /* \"#utility.yul\":8406:8415   */\n      dup3\n        /* \"#utility.yul\":8402:8420   */\n      add\n        /* \"#utility.yul\":8394:8420   */\n      swap1\n      pop\n        /* \"#utility.yul\":8466:8475   */\n      dup2\n        /* \"#utility.yul\":8460:8464   */\n      dup2\n        /* \"#utility.yul\":8456:8476   */\n      sub\n        /* \"#utility.yul\":8452:8453   */\n      0x00\n        /* \"#utility.yul\":8441:8450   */\n      dup4\n        /* \"#utility.yul\":8437:8454   */\n      add\n        /* \"#utility.yul\":8430:8477   */\n      mstore\n        /* \"#utility.yul\":8494:8625   */\n      tag_234\n        /* \"#utility.yul\":8620:8624   */\n      dup2\n        /* \"#utility.yul\":8494:8625   */\n      tag_141\n      jump\t// in\n    tag_234:\n        /* \"#utility.yul\":8486:8625   */\n      swap1\n      pop\n        /* \"#utility.yul\":8213:8632   */\n      swap2\n      swap1\n      pop\n      jump\t// out\n        /* \"#utility.yul\":8638:8928   */\n    tag_142:\n        /* \"#utility.yul\":8778:8812   */\n      0x557064617465204572726f723a204e657720737461747573206d757374206265\n        /* \"#utility.yul\":8774:8775   */\n      0x00\n        /* \"#utility.yul\":8766:8772   */\n      dup3\n        /* \"#utility.yul\":8762:8776   */\n      add\n        /* \"#utility.yul\":8755:8813   */\n      mstore\n        /* \"#utility.yul\":8847:8881   */\n      0x20646966666572656e742066726f6d207468652063757272656e742073746174\n        /* \"#utility.yul\":8842:8844   */\n      0x20\n        /* \"#utility.yul\":8834:8840   */\n      dup3\n        /* \"#utility.yul\":8830:8845   */\n      add\n        /* \"#utility.yul\":8823:8882   */\n      mstore\n        /* \"#utility.yul\":8916:8920   */\n      0x7573000000000000000000000000000000000000000000000000000000000000\n        /* \"#utility.yul\":8911:8913   */\n      0x40\n        /* \"#utility.yul\":8903:8909   */\n      dup3\n        /* \"#utility.yul\":8899:8914   */\n      add\n        /* \"#utility.yul\":8892:8921   */\n      mstore\n        /* \"#utility.yul\":8638:8928   */\n      pop\n      jump\t// out\n        /* \"#utility.yul\":8934:9300   */\n    tag_143:\n        /* \"#utility.yul\":9076:9079   */\n      0x00\n        /* \"#utility.yul\":9097:9164   */\n      tag_237\n        /* \"#utility.yul\":9161:9163   */\n      0x42\n        /* \"#utility.yul\":9156:9159   */\n      dup4\n        /* \"#utility.yul\":9097:9164   */\n      tag_135\n      jump\t// in\n    tag_237:\n        /* \"#utility.yul\":9090:9164   */\n      swap2\n      pop\n        /* \"#utility.yul\":9173:9266   */\n      tag_238\n        /* \"#utility.yul\":9262:9265   */\n      dup3\n        /* \"#utility.yul\":9173:9266   */\n      tag_142\n      jump\t// in\n    tag_238:\n        /* \"#utility.yul\":9291:9293   */\n      0x60\n        /* \"#utility.yul\":9286:9289   */\n      dup3\n        /* \"#utility.yul\":9282:9294   */\n      add\n        /* \"#utility.yul\":9275:9294   */\n      swap1\n      pop\n        /* \"#utility.yul\":8934:9300   */\n      swap2\n      swap1\n      pop\n      jump\t// out\n        /* \"#utility.yul\":9306:9725   */\n    tag_60:\n        /* \"#utility.yul\":9472:9476   */\n      0x00\n        /* \"#utility.yul\":9510:9512   */\n      0x20\n        /* \"#utility.yul\":9499:9508   */\n      dup3\n        /* \"#utility.yul\":9495:9513   */\n      add\n        /* \"#utility.yul\":9487:9513   */\n      swap1\n      pop\n        /* \"#utility.yul\":9559:9568   */\n      dup2\n        /* \"#utility.yul\":9553:9557   */\n      dup2\n        /* \"#utility.yul\":9549:9569   */\n      sub\n        /* \"#utility.yul\":9545:9546   */\n      0x00\n        /* \"#utility.yul\":9534:9543   */\n      dup4\n        /* \"#utility.yul\":9530:9547   */\n      add\n        /* \"#utility.yul\":9523:9570   */\n      mstore\n        /* \"#utility.yul\":9587:9718   */\n      tag_240\n        /* \"#utility.yul\":9713:9717   */\n      dup2\n        /* \"#utility.yul\":9587:9718   */\n      tag_143\n      jump\t// in\n    tag_240:\n        /* \"#utility.yul\":9579:9718   */\n      swap1\n      pop\n        /* \"#utility.yul\":9306:9725   */\n      swap2\n      swap1\n      pop\n      jump\t// out\n        /* \"#utility.yul\":9731:9975   */\n    tag_64:\n        /* \"#utility.yul\":9835:9839   */\n      0x00\n        /* \"#utility.yul\":9873:9875   */\n      0x20\n        /* \"#utility.yul\":9862:9871   */\n      dup3\n        /* \"#utility.yul\":9858:9876   */\n      add\n        /* \"#utility.yul\":9850:9876   */\n      swap1\n      pop\n        /* \"#utility.yul\":9886:9968   */\n      tag_242\n        /* \"#utility.yul\":9965:9966   */\n      0x00\n        /* \"#utility.yul\":9954:9963   */\n      dup4\n        /* \"#utility.yul\":9950:9967   */\n      add\n        /* \"#utility.yul\":9941:9947   */\n      dup5\n        /* \"#utility.yul\":9886:9968   */\n      tag_134\n      jump\t// in\n    tag_242:\n        /* \"#utility.yul\":9731:9975   */\n      swap3\n      swap2\n      pop\n      pop\n      jump\t// out\n        /* \"#utility.yul\":9981:10163   */\n    tag_144:\n        /* \"#utility.yul\":10121:10155   */\n      0x52656d6f76616c204572726f723a204d616e61676572206e6f7420666f756e64\n        /* \"#utility.yul\":10117:10118   */\n      0x00\n        /* \"#utility.yul\":10109:10115   */\n      dup3\n        /* \"#utility.yul\":10105:10119   */\n      add\n        /* \"#utility.yul\":10098:10156   */\n      mstore\n        /* \"#utility.yul\":9981:10163   */\n      pop\n      jump\t// out\n        /* \"#utility.yul\":10169:10535   */\n    tag_145:\n        /* \"#utility.yul\":10311:10314   */\n      0x00\n        /* \"#utility.yul\":10332:10399   */\n      tag_245\n        /* \"#utility.yul\":10396:10398   */\n      0x20\n        /* \"#utility.yul\":10391:10394   */\n      dup4\n        /* \"#utility.yul\":10332:10399   */\n      tag_135\n      jump\t// in\n    tag_245:\n        /* \"#utility.yul\":10325:10399   */\n      swap2\n      pop\n        /* \"#utility.yul\":10408:10501   */\n      tag_246\n        /* \"#utility.yul\":10497:10500   */\n      dup3\n        /* \"#utility.yul\":10408:10501   */\n      tag_144\n      jump\t// in\n    tag_246:\n        /* \"#utility.yul\":10526:10528   */\n      0x20\n        /* \"#utility.yul\":10521:10524   */\n      dup3\n        /* \"#utility.yul\":10517:10529   */\n      add\n        /* \"#utility.yul\":10510:10529   */\n      swap1\n      pop\n        /* \"#utility.yul\":10169:10535   */\n      swap2\n      swap1\n      pop\n      jump\t// out\n        /* \"#utility.yul\":10541:10960   */\n    tag_74:\n        /* \"#utility.yul\":10707:10711   */\n      0x00\n        /* \"#utility.yul\":10745:10747   */\n      0x20\n        /* \"#utility.yul\":10734:10743   */\n      dup3\n        /* \"#utility.yul\":10730:10748   */\n      add\n        /* \"#utility.yul\":10722:10748   */\n      swap1\n      pop\n        /* \"#utility.yul\":10794:10803   */\n      dup2\n        /* \"#utility.yul\":10788:10792   */\n      dup2\n        /* \"#utility.yul\":10784:10804   */\n      sub\n        /* \"#utility.yul\":10780:10781   */\n      0x00\n        /* \"#utility.yul\":10769:10778   */\n      dup4\n        /* \"#utility.yul\":10765:10782   */\n      add\n        /* \"#utility.yul\":10758:10805   */\n      mstore\n        /* \"#utility.yul\":10822:10953   */\n      tag_248\n        /* \"#utility.yul\":10948:10952   */\n      dup2\n        /* \"#utility.yul\":10822:10953   */\n      tag_145\n      jump\t// in\n    tag_248:\n        /* \"#utility.yul\":10814:10953   */\n      swap1\n      pop\n        /* \"#utility.yul\":10541:10960   */\n      swap2\n      swap1\n      pop\n      jump\t// out\n        /* \"#utility.yul\":10966:11193   */\n    tag_146:\n        /* \"#utility.yul\":11106:11140   */\n      0x417070726f76616c204572726f723a204d616e6167657220616c726561647920\n        /* \"#utility.yul\":11102:11103   */\n      0x00\n        /* \"#utility.yul\":11094:11100   */\n      dup3\n        /* \"#utility.yul\":11090:11104   */\n      add\n        /* \"#utility.yul\":11083:11141   */\n      mstore\n        /* \"#utility.yul\":11175:11185   */\n      0x617070726f766564000000000000000000000000000000000000000000000000\n        /* \"#utility.yul\":11170:11172   */\n      0x20\n        /* \"#utility.yul\":11162:11168   */\n      dup3\n        /* \"#utility.yul\":11158:11173   */\n      add\n        /* \"#utility.yul\":11151:11186   */\n      mstore\n        /* \"#utility.yul\":10966:11193   */\n      pop\n      jump\t// out\n        /* \"#utility.yul\":11199:11565   */\n    tag_147:\n        /* \"#utility.yul\":11341:11344   */\n      0x00\n        /* \"#utility.yul\":11362:11429   */\n      tag_251\n        /* \"#utility.yul\":11426:11428   */\n      0x28\n        /* \"#utility.yul\":11421:11424   */\n      dup4\n        /* \"#utility.yul\":11362:11429   */\n      tag_135\n      jump\t// in\n    tag_251:\n        /* \"#utility.yul\":11355:11429   */\n      swap2\n      pop\n        /* \"#utility.yul\":11438:11531   */\n      tag_252\n        /* \"#utility.yul\":11527:11530   */\n      dup3\n        /* \"#utility.yul\":11438:11531   */\n      tag_146\n      jump\t// in\n    tag_252:\n        /* \"#utility.yul\":11556:11558   */\n      0x40\n        /* \"#utility.yul\":11551:11554   */\n      dup3\n        /* \"#utility.yul\":11547:11559   */\n      add\n        /* \"#utility.yul\":11540:11559   */\n      swap1\n      pop\n        /* \"#utility.yul\":11199:11565   */\n      swap2\n      swap1\n      pop\n      jump\t// out\n        /* \"#utility.yul\":11571:11990   */\n    tag_88:\n        /* \"#utility.yul\":11737:11741   */\n      0x00\n        /* \"#utility.yul\":11775:11777   */\n      0x20\n        /* \"#utility.yul\":11764:11773   */\n      dup3\n        /* \"#utility.yul\":11760:11778   */\n      add\n        /* \"#utility.yul\":11752:11778   */\n      swap1\n      pop\n        /* \"#utility.yul\":11824:11833   */\n      dup2\n        /* \"#utility.yul\":11818:11822   */\n      dup2\n        /* \"#utility.yul\":11814:11834   */\n      sub\n        /* \"#utility.yul\":11810:11811   */\n      0x00\n        /* \"#utility.yul\":11799:11808   */\n      dup4\n        /* \"#utility.yul\":11795:11812   */\n      add\n        /* \"#utility.yul\":11788:11835   */\n      mstore\n        /* \"#utility.yul\":11852:11983   */\n      tag_254\n        /* \"#utility.yul\":11978:11982   */\n      dup2\n        /* \"#utility.yul\":11852:11983   */\n      tag_147\n      jump\t// in\n    tag_254:\n        /* \"#utility.yul\":11844:11983   */\n      swap1\n      pop\n        /* \"#utility.yul\":11571:11990   */\n      swap2\n      swap1\n      pop\n      jump\t// out\n        /* \"#utility.yul\":11996:12219   */\n    tag_148:\n        /* \"#utility.yul\":12136:12170   */\n      0x4372656174696f6e204572726f723a204f7264657220616c7265616479206578\n        /* \"#utility.yul\":12132:12133   */\n      0x00\n        /* \"#utility.yul\":12124:12130   */\n      dup3\n        /* \"#utility.yul\":12120:12134   */\n      add\n        /* \"#utility.yul\":12113:12171   */\n      mstore\n        /* \"#utility.yul\":12205:12211   */\n      0x6973747300000000000000000000000000000000000000000000000000000000\n        /* \"#utility.yul\":12200:12202   */\n      0x20\n        /* \"#utility.yul\":12192:12198   */\n      dup3\n        /* \"#utility.yul\":12188:12203   */\n      add\n        /* \"#utility.yul\":12181:12212   */\n      mstore\n        /* \"#utility.yul\":11996:12219   */\n      pop\n      jump\t// out\n        /* \"#utility.yul\":12225:12591   */\n    tag_149:\n        /* \"#utility.yul\":12367:12370   */\n      0x00\n        /* \"#utility.yul\":12388:12455   */\n      tag_257\n        /* \"#utility.yul\":12452:12454   */\n      0x24\n        /* \"#utility.yul\":12447:12450   */\n      dup4\n        /* \"#utility.yul\":12388:12455   */\n      tag_135\n      jump\t// in\n    tag_257:\n        /* \"#utility.yul\":12381:12455   */\n      swap2\n      pop\n        /* \"#utility.yul\":12464:12557   */\n      tag_258\n        /* \"#utility.yul\":12553:12556   */\n      dup3\n        /* \"#utility.yul\":12464:12557   */\n      tag_148\n      jump\t// in\n    tag_258:\n        /* \"#utility.yul\":12582:12584   */\n      0x40\n        /* \"#utility.yul\":12577:12580   */\n      dup3\n        /* \"#utility.yul\":12573:12585   */\n      add\n        /* \"#utility.yul\":12566:12585   */\n      swap1\n      pop\n        /* \"#utility.yul\":12225:12591   */\n      swap2\n      swap1\n      pop\n      jump\t// out\n        /* \"#utility.yul\":12597:13016   */\n    tag_106:\n        /* \"#utility.yul\":12763:12767   */\n      0x00\n        /* \"#utility.yul\":12801:12803   */\n      0x20\n        /* \"#utility.yul\":12790:12799   */\n      dup3\n        /* \"#utility.yul\":12786:12804   */\n      add\n        /* \"#utility.yul\":12778:12804   */\n      swap1\n      pop\n        /* \"#utility.yul\":12850:12859   */\n      dup2\n        /* \"#utility.yul\":12844:12848   */\n      dup2\n        /* \"#utility.yul\":12840:12860   */\n      sub\n        /* \"#utility.yul\":12836:12837   */\n      0x00\n        /* \"#utility.yul\":12825:12834   */\n      dup4\n        /* \"#utility.yul\":12821:12838   */\n      add\n        /* \"#utility.yul\":12814:12861   */\n      mstore\n        /* \"#utility.yul\":12878:13009   */\n      tag_260\n        /* \"#utility.yul\":13004:13008   */\n      dup2\n        /* \"#utility.yul\":12878:13009   */\n      tag_149\n      jump\t// in\n    tag_260:\n        /* \"#utility.yul\":12870:13009   */\n      swap1\n      pop\n        /* \"#utility.yul\":12597:13016   */\n      swap2\n      swap1\n      pop\n      jump\t// out\n        /* \"#utility.yul\":13022:13256   */\n    tag_150:\n        /* \"#utility.yul\":13162:13196   */\n      0x4372656174696f6e204572726f723a20496e76616c6964206275796572206f72\n        /* \"#utility.yul\":13158:13159   */\n      0x00\n        /* \"#utility.yul\":13150:13156   */\n      dup3\n        /* \"#utility.yul\":13146:13160   */\n      add\n        /* \"#utility.yul\":13139:13197   */\n      mstore\n        /* \"#utility.yul\":13231:13248   */\n      0x2073656c6c657220616464726573730000000000000000000000000000000000\n        /* \"#utility.yul\":13226:13228   */\n      0x20\n        /* \"#utility.yul\":13218:13224   */\n      dup3\n        /* \"#utility.yul\":13214:13229   */\n      add\n        /* \"#utility.yul\":13207:13249   */\n      mstore\n        /* \"#utility.yul\":13022:13256   */\n      pop\n      jump\t// out\n        /* \"#utility.yul\":13262:13628   */\n    tag_151:\n        /* \"#utility.yul\":13404:13407   */\n      0x00\n        /* \"#utility.yul\":13425:13492   */\n      tag_263\n        /* \"#utility.yul\":13489:13491   */\n      0x2f\n        /* \"#utility.yul\":13484:13487   */\n      dup4\n        /* \"#utility.yul\":13425:13492   */\n      tag_135\n      jump\t// in\n    tag_263:\n        /* \"#utility.yul\":13418:13492   */\n      swap2\n      pop\n        /* \"#utility.yul\":13501:13594   */\n      tag_264\n        /* \"#utility.yul\":13590:13593   */\n      dup3\n        /* \"#utility.yul\":13501:13594   */\n      tag_150\n      jump\t// in\n    tag_264:\n        /* \"#utility.yul\":13619:13621   */\n      0x40\n        /* \"#utility.yul\":13614:13617   */\n      dup3\n        /* \"#utility.yul\":13610:13622   */\n      add\n        /* \"#utility.yul\":13603:13622   */\n      swap1\n      pop\n        /* \"#utility.yul\":13262:13628   */\n      swap2\n      swap1\n      pop\n      jump\t// out\n        /* \"#utility.yul\":13634:14053   */\n    tag_110:\n        /* \"#utility.yul\":13800:13804   */\n      0x00\n        /* \"#utility.yul\":13838:13840   */\n      0x20\n        /* \"#utility.yul\":13827:13836   */\n      dup3\n        /* \"#utility.yul\":13823:13841   */\n      add\n        /* \"#utility.yul\":13815:13841   */\n      swap1\n      pop\n        /* \"#utility.yul\":13887:13896   */\n      dup2\n        /* \"#utility.yul\":13881:13885   */\n      dup2\n        /* \"#utility.yul\":13877:13897   */\n      sub\n        /* \"#utility.yul\":13873:13874   */\n      0x00\n        /* \"#utility.yul\":13862:13871   */\n      dup4\n        /* \"#utility.yul\":13858:13875   */\n      add\n        /* \"#utility.yul\":13851:13898   */\n      mstore\n        /* \"#utility.yul\":13915:14046   */\n      tag_266\n        /* \"#utility.yul\":14041:14045   */\n      dup2\n        /* \"#utility.yul\":13915:14046   */\n      tag_151\n      jump\t// in\n    tag_266:\n        /* \"#utility.yul\":13907:14046   */\n      swap1\n      pop\n        /* \"#utility.yul\":13634:14053   */\n      swap2\n      swap1\n      pop\n      jump\t// out\n        /* \"#utility.yul\":14059:14391   */\n    tag_116:\n        /* \"#utility.yul\":14180:14184   */\n      0x00\n        /* \"#utility.yul\":14218:14220   */\n      0x40\n        /* \"#utility.yul\":14207:14216   */\n      dup3\n        /* \"#utility.yul\":14203:14221   */\n      add\n        /* \"#utility.yul\":14195:14221   */\n      swap1\n      pop\n        /* \"#utility.yul\":14231:14302   */\n      tag_268\n        /* \"#utility.yul\":14299:14300   */\n      0x00\n        /* \"#utility.yul\":14288:14297   */\n      dup4\n        /* \"#utility.yul\":14284:14301   */\n      add\n        /* \"#utility.yul\":14275:14281   */\n      dup6\n        /* \"#utility.yul\":14231:14302   */\n      tag_130\n      jump\t// in\n    tag_268:\n        /* \"#utility.yul\":14312:14384   */\n      tag_269\n        /* \"#utility.yul\":14380:14382   */\n      0x20\n        /* \"#utility.yul\":14369:14378   */\n      dup4\n        /* \"#utility.yul\":14365:14383   */\n      add\n        /* \"#utility.yul\":14356:14362   */\n      dup5\n        /* \"#utility.yul\":14312:14384   */\n      tag_130\n      jump\t// in\n    tag_269:\n        /* \"#utility.yul\":14059:14391   */\n      swap4\n      swap3\n      pop\n      pop\n      pop\n      jump\t// out\n\n    auxdata: 0xa26469706673582212207044b1dced5284f6ceb16cbf305bf8d8169c4bc7446e027ef9b87ee3e700da6064736f6c634300081a0033\n}\n",
				"bytecode": {
					"linkReferences": {},
					"object": "6080604052348015600e575f80fd5b506001805f3373ffffffffffffffffffffffffffffffffffffffff1673ffffffffffffffffffffffffffffffffffffffff1681526020019081526020015f205f6101000a81548160ff0219169083151502179055503373ffffffffffffffffffffffffffffffffffffffff167f450ad6a6ac3c2e8b8a02820cb64d6102a1f91ebe1fa3848a0cfc45c870c043af60405160405180910390a2611611806100b35f395ff3fe608060405234801561000f575f80fd5b506004361061007b575f3560e01c8063b33712c511610059578063b33712c5146100c1578063b5eee722146100cb578063d09ef241146100e7578063dd544f451461011c5761007b565b8063439766ce1461007f578063aab3196d14610089578063ac18de43146100a5575b5f80fd5b610087610138565b005b6100a3600480360381019061009e9190610ec6565b6101dd565b005b6100bf60048036038101906100ba9190610f5e565b610412565b005b6100c961060d565b005b6100e560048036038101906100e09190610f5e565b6106b1565b005b61010160048036038101906100fc9190610f89565b6108ad565b60405161011396959493929190611045565b60405180910390f35b610136600480360381019061013191906110a4565b610a8e565b005b60015f3373ffffffffffffffffffffffffffffffffffffffff1673ffffffffffffffffffffffffffffffffffffffff1681526020019081526020015f205f9054906101000a900460ff166101c1576040517f08c379a00000000000000000000000000000000000000000000000000000000081526004016101b89061119b565b60405180910390fd5b600160025f6101000a81548160ff021916908315150217905550565b60015f3373ffffffffffffffffffffffffffffffffffffffff1673ffffffffffffffffffffffffffffffffffffffff1681526020019081526020015f205f9054906101000a900460ff16610266576040517f08c379a000000000000000000000000000000000000000000000000000000000815260040161025d9061119b565b60405180910390fd5b815f808281526020019081526020015f2060060160019054906101000a900460ff166102c7576040517f08c379a00000000000000000000000000000000000000000000000000000000081526004016102be90611229565b60405180910390fd5b60025f9054906101000a900460ff1615610316576040517f08c379a000000000000000000000000000000000000000000000000000000000815260040161030d906112b7565b60405180910390fd5b5f808481526020019081526020015f206006015f9054906101000a900460ff16600381111561034857610347610fd2565b5b82600381111561035b5761035a610fd2565b5b0361039b576040517f08c379a00000000000000000000000000000000000000000000000000000000081526004016103929061136b565b60405180910390fd5b815f808581526020019081526020015f206006015f6101000a81548160ff021916908360038111156103d0576103cf610fd2565b5b0217905550827fd9a86b644eb5f5b43cc8a700849852481080361c7a4b00ba646d1b46c5585f95836040516104059190611389565b60405180910390a2505050565b60015f3373ffffffffffffffffffffffffffffffffffffffff1673ffffffffffffffffffffffffffffffffffffffff1681526020019081526020015f205f9054906101000a900460ff1661049b576040517f08c379a00000000000000000000000000000000000000000000000000000000081526004016104929061119b565b60405180910390fd5b60025f9054906101000a900460ff16156104ea576040517f08c379a00000000000000000000000000000000000000000000000000000000081526004016104e1906112b7565b60405180910390fd5b60015f8273ffffffffffffffffffffffffffffffffffffffff1673ffffffffffffffffffffffffffffffffffffffff1681526020019081526020015f205f9054906101000a900460ff16610573576040517f08c379a000000000000000000000000000000000000000000000000000000000815260040161056a906113ec565b60405180910390fd5b5f60015f8373ffffffffffffffffffffffffffffffffffffffff1673ffffffffffffffffffffffffffffffffffffffff1681526020019081526020015f205f6101000a81548160ff0219169083151502179055508073ffffffffffffffffffffffffffffffffffffffff167fef69f7d97228658c92417be1b16b19058315de71fecb435d07b7d23728b6bd3160405160405180910390a250565b60015f3373ffffffffffffffffffffffffffffffffffffffff1673ffffffffffffffffffffffffffffffffffffffff1681526020019081526020015f205f9054906101000a900460ff16610696576040517f08c379a000000000000000000000000000000000000000000000000000000000815260040161068d9061119b565b60405180910390fd5b5f60025f6101000a81548160ff021916908315150217905550565b60015f3373ffffffffffffffffffffffffffffffffffffffff1673ffffffffffffffffffffffffffffffffffffffff1681526020019081526020015f205f9054906101000a900460ff1661073a576040517f08c379a00000000000000000000000000000000000000000000000000000000081526004016107319061119b565b60405180910390fd5b60025f9054906101000a900460ff1615610789576040517f08c379a0000000000000000000000000000000000000000000000000000000008152600401610780906112b7565b60405180910390fd5b60015f8273ffffffffffffffffffffffffffffffffffffffff1673ffffffffffffffffffffffffffffffffffffffff1681526020019081526020015f205f9054906101000a900460ff1615610813576040517f08c379a000000000000000000000000000000000000000000000000000000000815260040161080a9061147a565b60405180910390fd5b6001805f8373ffffffffffffffffffffffffffffffffffffffff1673ffffffffffffffffffffffffffffffffffffffff1681526020019081526020015f205f6101000a81548160ff0219169083151502179055508073ffffffffffffffffffffffffffffffffffffffff167f450ad6a6ac3c2e8b8a02820cb64d6102a1f91ebe1fa3848a0cfc45c870c043af60405160405180910390a250565b5f805f805f80865f808281526020019081526020015f2060060160019054906101000a900460ff16610914576040517f08c379a000000000000000000000000000000000000000000000000000000000815260040161090b90611229565b60405180910390fd5b5f805f8a81526020019081526020015f20604051806101000160405290815f8201548152602001600182015f9054906101000a900473ffffffffffffffffffffffffffffffffffffffff1673ffffffffffffffffffffffffffffffffffffffff1673ffffffffffffffffffffffffffffffffffffffff168152602001600282015f9054906101000a900473ffffffffffffffffffffffffffffffffffffffff1673ffffffffffffffffffffffffffffffffffffffff1673ffffffffffffffffffffffffffffffffffffffff168152602001600382015481526020016004820154815260200160058201548152602001600682015f9054906101000a900460ff166003811115610a2657610a25610fd2565b5b6003811115610a3857610a37610fd2565b5b81526020016006820160019054906101000a900460ff161515151581525050905080602001518160400151826060015183608001518460a001518560c00151975097509750975097509750505091939550919395565b60015f3373ffffffffffffffffffffffffffffffffffffffff1673ffffffffffffffffffffffffffffffffffffffff1681526020019081526020015f205f9054906101000a900460ff16610b17576040517f08c379a0000000000000000000000000000000000000000000000000000000008152600401610b0e9061119b565b60405180910390fd5b60025f9054906101000a900460ff1615610b66576040517f08c379a0000000000000000000000000000000000000000000000000000000008152600401610b5d906112b7565b60405180910390fd5b5f808681526020019081526020015f2060060160019054906101000a900460ff1615610bc7576040517f08c379a0000000000000000000000000000000000000000000000000000000008152600401610bbe90611508565b60405180910390fd5b5f73ffffffffffffffffffffffffffffffffffffffff168473ffffffffffffffffffffffffffffffffffffffff1614158015610c2f57505f73ffffffffffffffffffffffffffffffffffffffff168373ffffffffffffffffffffffffffffffffffffffff1614155b610c6e576040517f08c379a0000000000000000000000000000000000000000000000000000000008152600401610c6590611596565b60405180910390fd5b6040518061010001604052808681526020018573ffffffffffffffffffffffffffffffffffffffff1681526020018473ffffffffffffffffffffffffffffffffffffffff1681526020018381526020018281526020014281526020015f6003811115610cdd57610cdc610fd2565b5b8152602001600115158152505f808781526020019081526020015f205f820151815f01556020820151816001015f6101000a81548173ffffffffffffffffffffffffffffffffffffffff021916908373ffffffffffffffffffffffffffffffffffffffff1602179055506040820151816002015f6101000a81548173ffffffffffffffffffffffffffffffffffffffff021916908373ffffffffffffffffffffffffffffffffffffffff160217905550606082015181600301556080820151816004015560a0820151816005015560c0820151816006015f6101000a81548160ff02191690836003811115610dd557610dd4610fd2565b5b021790555060e08201518160060160016101000a81548160ff0219169083151502179055509050508273ffffffffffffffffffffffffffffffffffffffff168473ffffffffffffffffffffffffffffffffffffffff16867f5f88d55333195757ca319aa0ac617520059267f8245f2067982a6caaf6916b818585604051610e5d9291906115b4565b60405180910390a45050505050565b5f80fd5b5f819050919050565b610e8281610e70565b8114610e8c575f80fd5b50565b5f81359050610e9d81610e79565b92915050565b60048110610eaf575f80fd5b50565b5f81359050610ec081610ea3565b92915050565b5f8060408385031215610edc57610edb610e6c565b5b5f610ee985828601610e8f565b9250506020610efa85828601610eb2565b9150509250929050565b5f73ffffffffffffffffffffffffffffffffffffffff82169050919050565b5f610f2d82610f04565b9050919050565b610f3d81610f23565b8114610f47575f80fd5b50565b5f81359050610f5881610f34565b92915050565b5f60208284031215610f7357610f72610e6c565b5b5f610f8084828501610f4a565b91505092915050565b5f60208284031215610f9e57610f9d610e6c565b5b5f610fab84828501610e8f565b91505092915050565b610fbd81610f23565b82525050565b610fcc81610e70565b82525050565b7f4e487b71000000000000000000000000000000000000000000000000000000005f52602160045260245ffd5b600481106110105761100f610fd2565b5b50565b5f81905061102082610fff565b919050565b5f61102f82611013565b9050919050565b61103f81611025565b82525050565b5f60c0820190506110585f830189610fb4565b6110656020830188610fb4565b6110726040830187610fc3565b61107f6060830186610fc3565b61108c6080830185610fc3565b61109960a0830184611036565b979650505050505050565b5f805f805f60a086880312156110bd576110bc610e6c565b5b5f6110ca88828901610e8f565b95505060206110db88828901610f4a565b94505060406110ec88828901610f4a565b93505060606110fd88828901610e8f565b925050608061110e88828901610e8f565b9150509295509295909350565b5f82825260208201905092915050565b7f4163636573732044656e6965643a204e6f7420616e20617574686f72697a65645f8201527f206d616e61676572000000000000000000000000000000000000000000000000602082015250565b5f61118560288361111b565b91506111908261112b565b604082019050919050565b5f6020820190508181035f8301526111b281611179565b9050919050565b7f5175657279204572726f723a204f72646572206e6f74207265676973746572655f8201527f6400000000000000000000000000000000000000000000000000000000000000602082015250565b5f61121360218361111b565b915061121e826111b9565b604082019050919050565b5f6020820190508181035f83015261124081611207565b9050919050565b7f4f7065726174696f6e204572726f723a20436f6e7472616374206973207061755f8201527f7365640000000000000000000000000000000000000000000000000000000000602082015250565b5f6112a160238361111b565b91506112ac82611247565b604082019050919050565b5f6020820190508181035f8301526112ce81611295565b9050919050565b7f557064617465204572726f723a204e657720737461747573206d7573742062655f8201527f20646966666572656e742066726f6d207468652063757272656e74207374617460208201527f7573000000000000000000000000000000000000000000000000000000000000604082015250565b5f61135560428361111b565b9150611360826112d5565b606082019050919050565b5f6020820190508181035f83015261138281611349565b9050919050565b5f60208201905061139c5f830184611036565b92915050565b7f52656d6f76616c204572726f723a204d616e61676572206e6f7420666f756e645f82015250565b5f6113d660208361111b565b91506113e1826113a2565b602082019050919050565b5f6020820190508181035f830152611403816113ca565b9050919050565b7f417070726f76616c204572726f723a204d616e6167657220616c7265616479205f8201527f617070726f766564000000000000000000000000000000000000000000000000602082015250565b5f61146460288361111b565b915061146f8261140a565b604082019050919050565b5f6020820190508181035f83015261149181611458565b9050919050565b7f4372656174696f6e204572726f723a204f7264657220616c72656164792065785f8201527f6973747300000000000000000000000000000000000000000000000000000000602082015250565b5f6114f260248361111b565b91506114fd82611498565b604082019050919050565b5f6020820190508181035f83015261151f816114e6565b9050919050565b7f4372656174696f6e204572726f723a20496e76616c6964206275796572206f725f8201527f2073656c6c657220616464726573730000000000000000000000000000000000602082015250565b5f611580602f8361111b565b915061158b82611526565b604082019050919050565b5f6020820190508181035f8301526115ad81611574565b9050919050565b5f6040820190506115c75f830185610fc3565b6115d46020830184610fc3565b939250505056fea26469706673582212207044b1dced5284f6ceb16cbf305bf8d8169c4bc7446e027ef9b87ee3e700da6064736f6c634300081a0033",
					"opcodes": "PUSH1 0x80 PUSH1 0x40 MSTORE CALLVALUE DUP1 ISZERO PUSH1 0xE JUMPI PUSH0 DUP1 REVERT JUMPDEST POP PUSH1 0x1 DUP1 PUSH0 CALLER PUSH20 0xFFFFFFFFFFFFFFFFFFFFFFFFFFFFFFFFFFFFFFFF AND PUSH20 0xFFFFFFFFFFFFFFFFFFFFFFFFFFFFFFFFFFFFFFFF AND DUP2 MSTORE PUSH1 0x20 ADD SWAP1 DUP2 MSTORE PUSH1 0x20 ADD PUSH0 KECCAK256 PUSH0 PUSH2 0x100 EXP DUP2 SLOAD DUP2 PUSH1 0xFF MUL NOT AND SWAP1 DUP4 ISZERO ISZERO MUL OR SWAP1 SSTORE POP CALLER PUSH20 0xFFFFFFFFFFFFFFFFFFFFFFFFFFFFFFFFFFFFFFFF AND PUSH32 0x450AD6A6AC3C2E8B8A02820CB64D6102A1F91EBE1FA3848A0CFC45C870C043AF PUSH1 0x40 MLOAD PUSH1 0x40 MLOAD DUP1 SWAP2 SUB SWAP1 LOG2 PUSH2 0x1611 DUP1 PUSH2 0xB3 PUSH0 CODECOPY PUSH0 RETURN INVALID PUSH1 0x80 PUSH1 0x40 MSTORE CALLVALUE DUP1 ISZERO PUSH2 0xF JUMPI PUSH0 DUP1 REVERT JUMPDEST POP PUSH1 0x4 CALLDATASIZE LT PUSH2 0x7B JUMPI PUSH0 CALLDATALOAD PUSH1 0xE0 SHR DUP1 PUSH4 0xB33712C5 GT PUSH2 0x59 JUMPI DUP1 PUSH4 0xB33712C5 EQ PUSH2 0xC1 JUMPI DUP1 PUSH4 0xB5EEE722 EQ PUSH2 0xCB JUMPI DUP1 PUSH4 0xD09EF241 EQ PUSH2 0xE7 JUMPI DUP1 PUSH4 0xDD544F45 EQ PUSH2 0x11C JUMPI PUSH2 0x7B JUMP JUMPDEST DUP1 PUSH4 0x439766CE EQ PUSH2 0x7F JUMPI DUP1 PUSH4 0xAAB3196D EQ PUSH2 0x89 JUMPI DUP1 PUSH4 0xAC18DE43 EQ PUSH2 0xA5 JUMPI JUMPDEST PUSH0 DUP1 REVERT JUMPDEST PUSH2 0x87 PUSH2 0x138 JUMP JUMPDEST STOP JUMPDEST PUSH2 0xA3 PUSH1 0x4 DUP1 CALLDATASIZE SUB DUP2 ADD SWAP1 PUSH2 0x9E SWAP2 SWAP1 PUSH2 0xEC6 JUMP JUMPDEST PUSH2 0x1DD JUMP JUMPDEST STOP JUMPDEST PUSH2 0xBF PUSH1 0x4 DUP1 CALLDATASIZE SUB DUP2 ADD SWAP1 PUSH2 0xBA SWAP2 SWAP1 PUSH2 0xF5E JUMP JUMPDEST PUSH2 0x412 JUMP JUMPDEST STOP JUMPDEST PUSH2 0xC9 PUSH2 0x60D JUMP JUMPDEST STOP JUMPDEST PUSH2 0xE5 PUSH1 0x4 DUP1 CALLDATASIZE SUB DUP2 ADD SWAP1 PUSH2 0xE0 SWAP2 SWAP1 PUSH2 0xF5E JUMP JUMPDEST PUSH2 0x6B1 JUMP JUMPDEST STOP JUMPDEST PUSH2 0x101 PUSH1 0x4 DUP1 CALLDATASIZE SUB DUP2 ADD SWAP1 PUSH2 0xFC SWAP2 SWAP1 PUSH2 0xF89 JUMP JUMPDEST PUSH2 0x8AD JUMP JUMPDEST PUSH1 0x40 MLOAD PUSH2 0x113 SWAP7 SWAP6 SWAP5 SWAP4 SWAP3 SWAP2 SWAP1 PUSH2 0x1045 JUMP JUMPDEST PUSH1 0x40 MLOAD DUP1 SWAP2 SUB SWAP1 RETURN JUMPDEST PUSH2 0x136 PUSH1 0x4 DUP1 CALLDATASIZE SUB DUP2 ADD SWAP1 PUSH2 0x131 SWAP2 SWAP1 PUSH2 0x10A4 JUMP JUMPDEST PUSH2 0xA8E JUMP JUMPDEST STOP JUMPDEST PUSH1 0x1 PUSH0 CALLER PUSH20 0xFFFFFFFFFFFFFFFFFFFFFFFFFFFFFFFFFFFFFFFF AND PUSH20 0xFFFFFFFFFFFFFFFFFFFFFFFFFFFFFFFFFFFFFFFF AND DUP2 MSTORE PUSH1 0x20 ADD SWAP1 DUP2 MSTORE PUSH1 0x20 ADD PUSH0 KECCAK256 PUSH0 SWAP1 SLOAD SWAP1 PUSH2 0x100 EXP SWAP1 DIV PUSH1 0xFF AND PUSH2 0x1C1 JUMPI PUSH1 0x40 MLOAD PUSH32 0x8C379A000000000000000000000000000000000000000000000000000000000 DUP2 MSTORE PUSH1 0x4 ADD PUSH2 0x1B8 SWAP1 PUSH2 0x119B JUMP JUMPDEST PUSH1 0x40 MLOAD DUP1 SWAP2 SUB SWAP1 REVERT JUMPDEST PUSH1 0x1 PUSH1 0x2 PUSH0 PUSH2 0x100 EXP DUP2 SLOAD DUP2 PUSH1 0xFF MUL NOT AND SWAP1 DUP4 ISZERO ISZERO MUL OR SWAP1 SSTORE POP JUMP JUMPDEST PUSH1 0x1 PUSH0 CALLER PUSH20 0xFFFFFFFFFFFFFFFFFFFFFFFFFFFFFFFFFFFFFFFF AND PUSH20 0xFFFFFFFFFFFFFFFFFFFFFFFFFFFFFFFFFFFFFFFF AND DUP2 MSTORE PUSH1 0x20 ADD SWAP1 DUP2 MSTORE PUSH1 0x20 ADD PUSH0 KECCAK256 PUSH0 SWAP1 SLOAD SWAP1 PUSH2 0x100 EXP SWAP1 DIV PUSH1 0xFF AND PUSH2 0x266 JUMPI PUSH1 0x40 MLOAD PUSH32 0x8C379A000000000000000000000000000000000000000000000000000000000 DUP2 MSTORE PUSH1 0x4 ADD PUSH2 0x25D SWAP1 PUSH2 0x119B JUMP JUMPDEST PUSH1 0x40 MLOAD DUP1 SWAP2 SUB SWAP1 REVERT JUMPDEST DUP2 PUSH0 DUP1 DUP3 DUP2 MSTORE PUSH1 0x20 ADD SWAP1 DUP2 MSTORE PUSH1 0x20 ADD PUSH0 KECCAK256 PUSH1 0x6 ADD PUSH1 0x1 SWAP1 SLOAD SWAP1 PUSH2 0x100 EXP SWAP1 DIV PUSH1 0xFF AND PUSH2 0x2C7 JUMPI PUSH1 0x40 MLOAD PUSH32 0x8C379A000000000000000000000000000000000000000000000000000000000 DUP2 MSTORE PUSH1 0x4 ADD PUSH2 0x2BE SWAP1 PUSH2 0x1229 JUMP JUMPDEST PUSH1 0x40 MLOAD DUP1 SWAP2 SUB SWAP1 REVERT JUMPDEST PUSH1 0x2 PUSH0 SWAP1 SLOAD SWAP1 PUSH2 0x100 EXP SWAP1 DIV PUSH1 0xFF AND ISZERO PUSH2 0x316 JUMPI PUSH1 0x40 MLOAD PUSH32 0x8C379A000000000000000000000000000000000000000000000000000000000 DUP2 MSTORE PUSH1 0x4 ADD PUSH2 0x30D SWAP1 PUSH2 0x12B7 JUMP JUMPDEST PUSH1 0x40 MLOAD DUP1 SWAP2 SUB SWAP1 REVERT JUMPDEST PUSH0 DUP1 DUP5 DUP2 MSTORE PUSH1 0x20 ADD SWAP1 DUP2 MSTORE PUSH1 0x20 ADD PUSH0 KECCAK256 PUSH1 0x6 ADD PUSH0 SWAP1 SLOAD SWAP1 PUSH2 0x100 EXP SWAP1 DIV PUSH1 0xFF AND PUSH1 0x3 DUP2 GT ISZERO PUSH2 0x348 JUMPI PUSH2 0x347 PUSH2 0xFD2 JUMP JUMPDEST JUMPDEST DUP3 PUSH1 0x3 DUP2 GT ISZERO PUSH2 0x35B JUMPI PUSH2 0x35A PUSH2 0xFD2 JUMP JUMPDEST JUMPDEST SUB PUSH2 0x39B JUMPI PUSH1 0x40 MLOAD PUSH32 0x8C379A000000000000000000000000000000000000000000000000000000000 DUP2 MSTORE PUSH1 0x4 ADD PUSH2 0x392 SWAP1 PUSH2 0x136B JUMP JUMPDEST PUSH1 0x40 MLOAD DUP1 SWAP2 SUB SWAP1 REVERT JUMPDEST DUP2 PUSH0 DUP1 DUP6 DUP2 MSTORE PUSH1 0x20 ADD SWAP1 DUP2 MSTORE PUSH1 0x20 ADD PUSH0 KECCAK256 PUSH1 0x6 ADD PUSH0 PUSH2 0x100 EXP DUP2 SLOAD DUP2 PUSH1 0xFF MUL NOT AND SWAP1 DUP4 PUSH1 0x3 DUP2 GT ISZERO PUSH2 0x3D0 JUMPI PUSH2 0x3CF PUSH2 0xFD2 JUMP JUMPDEST JUMPDEST MUL OR SWAP1 SSTORE POP DUP3 PUSH32 0xD9A86B644EB5F5B43CC8A700849852481080361C7A4B00BA646D1B46C5585F95 DUP4 PUSH1 0x40 MLOAD PUSH2 0x405 SWAP2 SWAP1 PUSH2 0x1389 JUMP JUMPDEST PUSH1 0x40 MLOAD DUP1 SWAP2 SUB SWAP1 LOG2 POP POP POP JUMP JUMPDEST PUSH1 0x1 PUSH0 CALLER PUSH20 0xFFFFFFFFFFFFFFFFFFFFFFFFFFFFFFFFFFFFFFFF AND PUSH20 0xFFFFFFFFFFFFFFFFFFFFFFFFFFFFFFFFFFFFFFFF AND DUP2 MSTORE PUSH1 0x20 ADD SWAP1 DUP2 MSTORE PUSH1 0x20 ADD PUSH0 KECCAK256 PUSH0 SWAP1 SLOAD SWAP1 PUSH2 0x100 EXP SWAP1 DIV PUSH1 0xFF AND PUSH2 0x49B JUMPI PUSH1 0x40 MLOAD PUSH32 0x8C379A000000000000000000000000000000000000000000000000000000000 DUP2 MSTORE PUSH1 0x4 ADD PUSH2 0x492 SWAP1 PUSH2 0x119B JUMP JUMPDEST PUSH1 0x40 MLOAD DUP1 SWAP2 SUB SWAP1 REVERT JUMPDEST PUSH1 0x2 PUSH0 SWAP1 SLOAD SWAP1 PUSH2 0x100 EXP SWAP1 DIV PUSH1 0xFF AND ISZERO PUSH2 0x4EA JUMPI PUSH1 0x40 MLOAD PUSH32 0x8C379A000000000000000000000000000000000000000000000000000000000 DUP2 MSTORE PUSH1 0x4 ADD PUSH2 0x4E1 SWAP1 PUSH2 0x12B7 JUMP JUMPDEST PUSH1 0x40 MLOAD DUP1 SWAP2 SUB SWAP1 REVERT JUMPDEST PUSH1 0x1 PUSH0 DUP3 PUSH20 0xFFFFFFFFFFFFFFFFFFFFFFFFFFFFFFFFFFFFFFFF AND PUSH20 0xFFFFFFFFFFFFFFFFFFFFFFFFFFFFFFFFFFFFFFFF AND DUP2 MSTORE PUSH1 0x20 ADD SWAP1 DUP2 MSTORE PUSH1 0x20 ADD PUSH0 KECCAK256 PUSH0 SWAP1 SLOAD SWAP1 PUSH2 0x100 EXP SWAP1 DIV PUSH1 0xFF AND PUSH2 0x573 JUMPI PUSH1 0x40 MLOAD PUSH32 0x8C379A000000000000000000000000000000000000000000000000000000000 DUP2 MSTORE PUSH1 0x4 ADD PUSH2 0x56A SWAP1 PUSH2 0x13EC JUMP JUMPDEST PUSH1 0x40 MLOAD DUP1 SWAP2 SUB SWAP1 REVERT JUMPDEST PUSH0 PUSH1 0x1 PUSH0 DUP4 PUSH20 0xFFFFFFFFFFFFFFFFFFFFFFFFFFFFFFFFFFFFFFFF AND PUSH20 0xFFFFFFFFFFFFFFFFFFFFFFFFFFFFFFFFFFFFFFFF AND DUP2 MSTORE PUSH1 0x20 ADD SWAP1 DUP2 MSTORE PUSH1 0x20 ADD PUSH0 KECCAK256 PUSH0 PUSH2 0x100 EXP DUP2 SLOAD DUP2 PUSH1 0xFF MUL NOT AND SWAP1 DUP4 ISZERO ISZERO MUL OR SWAP1 SSTORE POP DUP1 PUSH20 0xFFFFFFFFFFFFFFFFFFFFFFFFFFFFFFFFFFFFFFFF AND PUSH32 0xEF69F7D97228658C92417BE1B16B19058315DE71FECB435D07B7D23728B6BD31 PUSH1 0x40 MLOAD PUSH1 0x40 MLOAD DUP1 SWAP2 SUB SWAP1 LOG2 POP JUMP JUMPDEST PUSH1 0x1 PUSH0 CALLER PUSH20 0xFFFFFFFFFFFFFFFFFFFFFFFFFFFFFFFFFFFFFFFF AND PUSH20 0xFFFFFFFFFFFFFFFFFFFFFFFFFFFFFFFFFFFFFFFF AND DUP2 MSTORE PUSH1 0x20 ADD SWAP1 DUP2 MSTORE PUSH1 0x20 ADD PUSH0 KECCAK256 PUSH0 SWAP1 SLOAD SWAP1 PUSH2 0x100 EXP SWAP1 DIV PUSH1 0xFF AND PUSH2 0x696 JUMPI PUSH1 0x40 MLOAD PUSH32 0x8C379A000000000000000000000000000000000000000000000000000000000 DUP2 MSTORE PUSH1 0x4 ADD PUSH2 0x68D SWAP1 PUSH2 0x119B JUMP JUMPDEST PUSH1 0x40 MLOAD DUP1 SWAP2 SUB SWAP1 REVERT JUMPDEST PUSH0 PUSH1 0x2 PUSH0 PUSH2 0x100 EXP DUP2 SLOAD DUP2 PUSH1 0xFF MUL NOT AND SWAP1 DUP4 ISZERO ISZERO MUL OR SWAP1 SSTORE POP JUMP JUMPDEST PUSH1 0x1 PUSH0 CALLER PUSH20 0xFFFFFFFFFFFFFFFFFFFFFFFFFFFFFFFFFFFFFFFF AND PUSH20 0xFFFFFFFFFFFFFFFFFFFFFFFFFFFFFFFFFFFFFFFF AND DUP2 MSTORE PUSH1 0x20 ADD SWAP1 DUP2 MSTORE PUSH1 0x20 ADD PUSH0 KECCAK256 PUSH0 SWAP1 SLOAD SWAP1 PUSH2 0x100 EXP SWAP1 DIV PUSH1 0xFF AND PUSH2 0x73A JUMPI PUSH1 0x40 MLOAD PUSH32 0x8C379A000000000000000000000000000000000000000000000000000000000 DUP2 MSTORE PUSH1 0x4 ADD PUSH2 0x731 SWAP1 PUSH2 0x119B JUMP JUMPDEST PUSH1 0x40 MLOAD DUP1 SWAP2 SUB SWAP1 REVERT JUMPDEST PUSH1 0x2 PUSH0 SWAP1 SLOAD SWAP1 PUSH2 0x100 EXP SWAP1 DIV PUSH1 0xFF AND ISZERO PUSH2 0x789 JUMPI PUSH1 0x40 MLOAD PUSH32 0x8C379A000000000000000000000000000000000000000000000000000000000 DUP2 MSTORE PUSH1 0x4 ADD PUSH2 0x780 SWAP1 PUSH2 0x12B7 JUMP JUMPDEST PUSH1 0x40 MLOAD DUP1 SWAP2 SUB SWAP1 REVERT JUMPDEST PUSH1 0x1 PUSH0 DUP3 PUSH20 0xFFFFFFFFFFFFFFFFFFFFFFFFFFFFFFFFFFFFFFFF AND PUSH20 0xFFFFFFFFFFFFFFFFFFFFFFFFFFFFFFFFFFFFFFFF AND DUP2 MSTORE PUSH1 0x20 ADD SWAP1 DUP2 MSTORE PUSH1 0x20 ADD PUSH0 KECCAK256 PUSH0 SWAP1 SLOAD SWAP1 PUSH2 0x100 EXP SWAP1 DIV PUSH1 0xFF AND ISZERO PUSH2 0x813 JUMPI PUSH1 0x40 MLOAD PUSH32 0x8C379A000000000000000000000000000000000000000000000000000000000 DUP2 MSTORE PUSH1 0x4 ADD PUSH2 0x80A SWAP1 PUSH2 0x147A JUMP JUMPDEST PUSH1 0x40 MLOAD DUP1 SWAP2 SUB SWAP1 REVERT JUMPDEST PUSH1 0x1 DUP1 PUSH0 DUP4 PUSH20 0xFFFFFFFFFFFFFFFFFFFFFFFFFFFFFFFFFFFFFFFF AND PUSH20 0xFFFFFFFFFFFFFFFFFFFFFFFFFFFFFFFFFFFFFFFF AND DUP2 MSTORE PUSH1 0x20 ADD SWAP1 DUP2 MSTORE PUSH1 0x20 ADD PUSH0 KECCAK256 PUSH0 PUSH2 0x100 EXP DUP2 SLOAD DUP2 PUSH1 0xFF MUL NOT AND SWAP1 DUP4 ISZERO ISZERO MUL OR SWAP1 SSTORE POP DUP1 PUSH20 0xFFFFFFFFFFFFFFFFFFFFFFFFFFFFFFFFFFFFFFFF AND PUSH32 0x450AD6A6AC3C2E8B8A02820CB64D6102A1F91EBE1FA3848A0CFC45C870C043AF PUSH1 0x40 MLOAD PUSH1 0x40 MLOAD DUP1 SWAP2 SUB SWAP1 LOG2 POP JUMP JUMPDEST PUSH0 DUP1 PUSH0 DUP1 PUSH0 DUP1 DUP7 PUSH0 DUP1 DUP3 DUP2 MSTORE PUSH1 0x20 ADD SWAP1 DUP2 MSTORE PUSH1 0x20 ADD PUSH0 KECCAK256 PUSH1 0x6 ADD PUSH1 0x1 SWAP1 SLOAD SWAP1 PUSH2 0x100 EXP SWAP1 DIV PUSH1 0xFF AND PUSH2 0x914 JUMPI PUSH1 0x40 MLOAD PUSH32 0x8C379A000000000000000000000000000000000000000000000000000000000 DUP2 MSTORE PUSH1 0x4 ADD PUSH2 0x90B SWAP1 PUSH2 0x1229 JUMP JUMPDEST PUSH1 0x40 MLOAD DUP1 SWAP2 SUB SWAP1 REVERT JUMPDEST PUSH0 DUP1 PUSH0 DUP11 DUP2 MSTORE PUSH1 0x20 ADD SWAP1 DUP2 MSTORE PUSH1 0x20 ADD PUSH0 KECCAK256 PUSH1 0x40 MLOAD DUP1 PUSH2 0x100 ADD PUSH1 0x40 MSTORE SWAP1 DUP2 PUSH0 DUP3 ADD SLOAD DUP2 MSTORE PUSH1 0x20 ADD PUSH1 0x1 DUP3 ADD PUSH0 SWAP1 SLOAD SWAP1 PUSH2 0x100 EXP SWAP1 DIV PUSH20 0xFFFFFFFFFFFFFFFFFFFFFFFFFFFFFFFFFFFFFFFF AND PUSH20 0xFFFFFFFFFFFFFFFFFFFFFFFFFFFFFFFFFFFFFFFF AND PUSH20 0xFFFFFFFFFFFFFFFFFFFFFFFFFFFFFFFFFFFFFFFF AND DUP2 MSTORE PUSH1 0x20 ADD PUSH1 0x2 DUP3 ADD PUSH0 SWAP1 SLOAD SWAP1 PUSH2 0x100 EXP SWAP1 DIV PUSH20 0xFFFFFFFFFFFFFFFFFFFFFFFFFFFFFFFFFFFFFFFF AND PUSH20 0xFFFFFFFFFFFFFFFFFFFFFFFFFFFFFFFFFFFFFFFF AND PUSH20 0xFFFFFFFFFFFFFFFFFFFFFFFFFFFFFFFFFFFFFFFF AND DUP2 MSTORE PUSH1 0x20 ADD PUSH1 0x3 DUP3 ADD SLOAD DUP2 MSTORE PUSH1 0x20 ADD PUSH1 0x4 DUP3 ADD SLOAD DUP2 MSTORE PUSH1 0x20 ADD PUSH1 0x5 DUP3 ADD SLOAD DUP2 MSTORE PUSH1 0x20 ADD PUSH1 0x6 DUP3 ADD PUSH0 SWAP1 SLOAD SWAP1 PUSH2 0x100 EXP SWAP1 DIV PUSH1 0xFF AND PUSH1 0x3 DUP2 GT ISZERO PUSH2 0xA26 JUMPI PUSH2 0xA25 PUSH2 0xFD2 JUMP JUMPDEST JUMPDEST PUSH1 0x3 DUP2 GT ISZERO PUSH2 0xA38 JUMPI PUSH2 0xA37 PUSH2 0xFD2 JUMP JUMPDEST JUMPDEST DUP2 MSTORE PUSH1 0x20 ADD PUSH1 0x6 DUP3 ADD PUSH1 0x1 SWAP1 SLOAD SWAP1 PUSH2 0x100 EXP SWAP1 DIV PUSH1 0xFF AND ISZERO ISZERO ISZERO ISZERO DUP2 MSTORE POP POP SWAP1 POP DUP1 PUSH1 0x20 ADD MLOAD DUP2 PUSH1 0x40 ADD MLOAD DUP3 PUSH1 0x60 ADD MLOAD DUP4 PUSH1 0x80 ADD MLOAD DUP5 PUSH1 0xA0 ADD MLOAD DUP6 PUSH1 0xC0 ADD MLOAD SWAP8 POP SWAP8 POP SWAP8 POP SWAP8 POP SWAP8 POP SWAP8 POP POP POP SWAP2 SWAP4 SWAP6 POP SWAP2 SWAP4 SWAP6 JUMP JUMPDEST PUSH1 0x1 PUSH0 CALLER PUSH20 0xFFFFFFFFFFFFFFFFFFFFFFFFFFFFFFFFFFFFFFFF AND PUSH20 0xFFFFFFFFFFFFFFFFFFFFFFFFFFFFFFFFFFFFFFFF AND DUP2 MSTORE PUSH1 0x20 ADD SWAP1 DUP2 MSTORE PUSH1 0x20 ADD PUSH0 KECCAK256 PUSH0 SWAP1 SLOAD SWAP1 PUSH2 0x100 EXP SWAP1 DIV PUSH1 0xFF AND PUSH2 0xB17 JUMPI PUSH1 0x40 MLOAD PUSH32 0x8C379A000000000000000000000000000000000000000000000000000000000 DUP2 MSTORE PUSH1 0x4 ADD PUSH2 0xB0E SWAP1 PUSH2 0x119B JUMP JUMPDEST PUSH1 0x40 MLOAD DUP1 SWAP2 SUB SWAP1 REVERT JUMPDEST PUSH1 0x2 PUSH0 SWAP1 SLOAD SWAP1 PUSH2 0x100 EXP SWAP1 DIV PUSH1 0xFF AND ISZERO PUSH2 0xB66 JUMPI PUSH1 0x40 MLOAD PUSH32 0x8C379A000000000000000000000000000000000000000000000000000000000 DUP2 MSTORE PUSH1 0x4 ADD PUSH2 0xB5D SWAP1 PUSH2 0x12B7 JUMP JUMPDEST PUSH1 0x40 MLOAD DUP1 SWAP2 SUB SWAP1 REVERT JUMPDEST PUSH0 DUP1 DUP7 DUP2 MSTORE PUSH1 0x20 ADD SWAP1 DUP2 MSTORE PUSH1 0x20 ADD PUSH0 KECCAK256 PUSH1 0x6 ADD PUSH1 0x1 SWAP1 SLOAD SWAP1 PUSH2 0x100 EXP SWAP1 DIV PUSH1 0xFF AND ISZERO PUSH2 0xBC7 JUMPI PUSH1 0x40 MLOAD PUSH32 0x8C379A000000000000000000000000000000000000000000000000000000000 DUP2 MSTORE PUSH1 0x4 ADD PUSH2 0xBBE SWAP1 PUSH2 0x1508 JUMP JUMPDEST PUSH1 0x40 MLOAD DUP1 SWAP2 SUB SWAP1 REVERT JUMPDEST PUSH0 PUSH20 0xFFFFFFFFFFFFFFFFFFFFFFFFFFFFFFFFFFFFFFFF AND DUP5 PUSH20 0xFFFFFFFFFFFFFFFFFFFFFFFFFFFFFFFFFFFFFFFF AND EQ ISZERO DUP1 ISZERO PUSH2 0xC2F JUMPI POP PUSH0 PUSH20 0xFFFFFFFFFFFFFFFFFFFFFFFFFFFFFFFFFFFFFFFF AND DUP4 PUSH20 0xFFFFFFFFFFFFFFFFFFFFFFFFFFFFFFFFFFFFFFFF AND EQ ISZERO JUMPDEST PUSH2 0xC6E JUMPI PUSH1 0x40 MLOAD PUSH32 0x8C379A000000000000000000000000000000000000000000000000000000000 DUP2 MSTORE PUSH1 0x4 ADD PUSH2 0xC65 SWAP1 PUSH2 0x1596 JUMP JUMPDEST PUSH1 0x40 MLOAD DUP1 SWAP2 SUB SWAP1 REVERT JUMPDEST PUSH1 0x40 MLOAD DUP1 PUSH2 0x100 ADD PUSH1 0x40 MSTORE DUP1 DUP7 DUP2 MSTORE PUSH1 0x20 ADD DUP6 PUSH20 0xFFFFFFFFFFFFFFFFFFFFFFFFFFFFFFFFFFFFFFFF AND DUP2 MSTORE PUSH1 0x20 ADD DUP5 PUSH20 0xFFFFFFFFFFFFFFFFFFFFFFFFFFFFFFFFFFFFFFFF AND DUP2 MSTORE PUSH1 0x20 ADD DUP4 DUP2 MSTORE PUSH1 0x20 ADD DUP3 DUP2 MSTORE PUSH1 0x20 ADD TIMESTAMP DUP2 MSTORE PUSH1 0x20 ADD PUSH0 PUSH1 0x3 DUP2 GT ISZERO PUSH2 0xCDD JUMPI PUSH2 0xCDC PUSH2 0xFD2 JUMP JUMPDEST JUMPDEST DUP2 MSTORE PUSH1 0x20 ADD PUSH1 0x1 ISZERO ISZERO DUP2 MSTORE POP PUSH0 DUP1 DUP8 DUP2 MSTORE PUSH1 0x20 ADD SWAP1 DUP2 MSTORE PUSH1 0x20 ADD PUSH0 KECCAK256 PUSH0 DUP3 ADD MLOAD DUP2 PUSH0 ADD SSTORE PUSH1 0x20 DUP3 ADD MLOAD DUP2 PUSH1 0x1 ADD PUSH0 PUSH2 0x100 EXP DUP2 SLOAD DUP2 PUSH20 0xFFFFFFFFFFFFFFFFFFFFFFFFFFFFFFFFFFFFFFFF MUL NOT AND SWAP1 DUP4 PUSH20 0xFFFFFFFFFFFFFFFFFFFFFFFFFFFFFFFFFFFFFFFF AND MUL OR SWAP1 SSTORE POP PUSH1 0x40 DUP3 ADD MLOAD DUP2 PUSH1 0x2 ADD PUSH0 PUSH2 0x100 EXP DUP2 SLOAD DUP2 PUSH20 0xFFFFFFFFFFFFFFFFFFFFFFFFFFFFFFFFFFFFFFFF MUL NOT AND SWAP1 DUP4 PUSH20 0xFFFFFFFFFFFFFFFFFFFFFFFFFFFFFFFFFFFFFFFF AND MUL OR SWAP1 SSTORE POP PUSH1 0x60 DUP3 ADD MLOAD DUP2 PUSH1 0x3 ADD SSTORE PUSH1 0x80 DUP3 ADD MLOAD DUP2 PUSH1 0x4 ADD SSTORE PUSH1 0xA0 DUP3 ADD MLOAD DUP2 PUSH1 0x5 ADD SSTORE PUSH1 0xC0 DUP3 ADD MLOAD DUP2 PUSH1 0x6 ADD PUSH0 PUSH2 0x100 EXP DUP2 SLOAD DUP2 PUSH1 0xFF MUL NOT AND SWAP1 DUP4 PUSH1 0x3 DUP2 GT ISZERO PUSH2 0xDD5 JUMPI PUSH2 0xDD4 PUSH2 0xFD2 JUMP JUMPDEST JUMPDEST MUL OR SWAP1 SSTORE POP PUSH1 0xE0 DUP3 ADD MLOAD DUP2 PUSH1 0x6 ADD PUSH1 0x1 PUSH2 0x100 EXP DUP2 SLOAD DUP2 PUSH1 0xFF MUL NOT AND SWAP1 DUP4 ISZERO ISZERO MUL OR SWAP1 SSTORE POP SWAP1 POP POP DUP3 PUSH20 0xFFFFFFFFFFFFFFFFFFFFFFFFFFFFFFFFFFFFFFFF AND DUP5 PUSH20 0xFFFFFFFFFFFFFFFFFFFFFFFFFFFFFFFFFFFFFFFF AND DUP7 PUSH32 0x5F88D55333195757CA319AA0AC617520059267F8245F2067982A6CAAF6916B81 DUP6 DUP6 PUSH1 0x40 MLOAD PUSH2 0xE5D SWAP3 SWAP2 SWAP1 PUSH2 0x15B4 JUMP JUMPDEST PUSH1 0x40 MLOAD DUP1 SWAP2 SUB SWAP1 LOG4 POP POP POP POP POP JUMP JUMPDEST PUSH0 DUP1 REVERT JUMPDEST PUSH0 DUP2 SWAP1 POP SWAP2 SWAP1 POP JUMP JUMPDEST PUSH2 0xE82 DUP2 PUSH2 0xE70 JUMP JUMPDEST DUP2 EQ PUSH2 0xE8C JUMPI PUSH0 DUP1 REVERT JUMPDEST POP JUMP JUMPDEST PUSH0 DUP2 CALLDATALOAD SWAP1 POP PUSH2 0xE9D DUP2 PUSH2 0xE79 JUMP JUMPDEST SWAP3 SWAP2 POP POP JUMP JUMPDEST PUSH1 0x4 DUP2 LT PUSH2 0xEAF JUMPI PUSH0 DUP1 REVERT JUMPDEST POP JUMP JUMPDEST PUSH0 DUP2 CALLDATALOAD SWAP1 POP PUSH2 0xEC0 DUP2 PUSH2 0xEA3 JUMP JUMPDEST SWAP3 SWAP2 POP POP JUMP JUMPDEST PUSH0 DUP1 PUSH1 0x40 DUP4 DUP6 SUB SLT ISZERO PUSH2 0xEDC JUMPI PUSH2 0xEDB PUSH2 0xE6C JUMP JUMPDEST JUMPDEST PUSH0 PUSH2 0xEE9 DUP6 DUP3 DUP7 ADD PUSH2 0xE8F JUMP JUMPDEST SWAP3 POP POP PUSH1 0x20 PUSH2 0xEFA DUP6 DUP3 DUP7 ADD PUSH2 0xEB2 JUMP JUMPDEST SWAP2 POP POP SWAP3 POP SWAP3 SWAP1 POP JUMP JUMPDEST PUSH0 PUSH20 0xFFFFFFFFFFFFFFFFFFFFFFFFFFFFFFFFFFFFFFFF DUP3 AND SWAP1 POP SWAP2 SWAP1 POP JUMP JUMPDEST PUSH0 PUSH2 0xF2D DUP3 PUSH2 0xF04 JUMP JUMPDEST SWAP1 POP SWAP2 SWAP1 POP JUMP JUMPDEST PUSH2 0xF3D DUP2 PUSH2 0xF23 JUMP JUMPDEST DUP2 EQ PUSH2 0xF47 JUMPI PUSH0 DUP1 REVERT JUMPDEST POP JUMP JUMPDEST PUSH0 DUP2 CALLDATALOAD SWAP1 POP PUSH2 0xF58 DUP2 PUSH2 0xF34 JUMP JUMPDEST SWAP3 SWAP2 POP POP JUMP JUMPDEST PUSH0 PUSH1 0x20 DUP3 DUP5 SUB SLT ISZERO PUSH2 0xF73 JUMPI PUSH2 0xF72 PUSH2 0xE6C JUMP JUMPDEST JUMPDEST PUSH0 PUSH2 0xF80 DUP5 DUP3 DUP6 ADD PUSH2 0xF4A JUMP JUMPDEST SWAP2 POP POP SWAP3 SWAP2 POP POP JUMP JUMPDEST PUSH0 PUSH1 0x20 DUP3 DUP5 SUB SLT ISZERO PUSH2 0xF9E JUMPI PUSH2 0xF9D PUSH2 0xE6C JUMP JUMPDEST JUMPDEST PUSH0 PUSH2 0xFAB DUP5 DUP3 DUP6 ADD PUSH2 0xE8F JUMP JUMPDEST SWAP2 POP POP SWAP3 SWAP2 POP POP JUMP JUMPDEST PUSH2 0xFBD DUP2 PUSH2 0xF23 JUMP JUMPDEST DUP3 MSTORE POP POP JUMP JUMPDEST PUSH2 0xFCC DUP2 PUSH2 0xE70 JUMP JUMPDEST DUP3 MSTORE POP POP JUMP JUMPDEST PUSH32 0x4E487B7100000000000000000000000000000000000000000000000000000000 PUSH0 MSTORE PUSH1 0x21 PUSH1 0x4 MSTORE PUSH1 0x24 PUSH0 REVERT JUMPDEST PUSH1 0x4 DUP2 LT PUSH2 0x1010 JUMPI PUSH2 0x100F PUSH2 0xFD2 JUMP JUMPDEST JUMPDEST POP JUMP JUMPDEST PUSH0 DUP2 SWAP1 POP PUSH2 0x1020 DUP3 PUSH2 0xFFF JUMP JUMPDEST SWAP2 SWAP1 POP JUMP JUMPDEST PUSH0 PUSH2 0x102F DUP3 PUSH2 0x1013 JUMP JUMPDEST SWAP1 POP SWAP2 SWAP1 POP JUMP JUMPDEST PUSH2 0x103F DUP2 PUSH2 0x1025 JUMP JUMPDEST DUP3 MSTORE POP POP JUMP JUMPDEST PUSH0 PUSH1 0xC0 DUP3 ADD SWAP1 POP PUSH2 0x1058 PUSH0 DUP4 ADD DUP10 PUSH2 0xFB4 JUMP JUMPDEST PUSH2 0x1065 PUSH1 0x20 DUP4 ADD DUP9 PUSH2 0xFB4 JUMP JUMPDEST PUSH2 0x1072 PUSH1 0x40 DUP4 ADD DUP8 PUSH2 0xFC3 JUMP JUMPDEST PUSH2 0x107F PUSH1 0x60 DUP4 ADD DUP7 PUSH2 0xFC3 JUMP JUMPDEST PUSH2 0x108C PUSH1 0x80 DUP4 ADD DUP6 PUSH2 0xFC3 JUMP JUMPDEST PUSH2 0x1099 PUSH1 0xA0 DUP4 ADD DUP5 PUSH2 0x1036 JUMP JUMPDEST SWAP8 SWAP7 POP POP POP POP POP POP POP JUMP JUMPDEST PUSH0 DUP1 PUSH0 DUP1 PUSH0 PUSH1 0xA0 DUP7 DUP9 SUB SLT ISZERO PUSH2 0x10BD JUMPI PUSH2 0x10BC PUSH2 0xE6C JUMP JUMPDEST JUMPDEST PUSH0 PUSH2 0x10CA DUP9 DUP3 DUP10 ADD PUSH2 0xE8F JUMP JUMPDEST SWAP6 POP POP PUSH1 0x20 PUSH2 0x10DB DUP9 DUP3 DUP10 ADD PUSH2 0xF4A JUMP JUMPDEST SWAP5 POP POP PUSH1 0x40 PUSH2 0x10EC DUP9 DUP3 DUP10 ADD PUSH2 0xF4A JUMP JUMPDEST SWAP4 POP POP PUSH1 0x60 PUSH2 0x10FD DUP9 DUP3 DUP10 ADD PUSH2 0xE8F JUMP JUMPDEST SWAP3 POP POP PUSH1 0x80 PUSH2 0x110E DUP9 DUP3 DUP10 ADD PUSH2 0xE8F JUMP JUMPDEST SWAP2 POP POP SWAP3 SWAP6 POP SWAP3 SWAP6 SWAP1 SWAP4 POP JUMP JUMPDEST PUSH0 DUP3 DUP3 MSTORE PUSH1 0x20 DUP3 ADD SWAP1 POP SWAP3 SWAP2 POP POP JUMP JUMPDEST PUSH32 0x4163636573732044656E6965643A204E6F7420616E20617574686F72697A6564 PUSH0 DUP3 ADD MSTORE PUSH32 0x206D616E61676572000000000000000000000000000000000000000000000000 PUSH1 0x20 DUP3 ADD MSTORE POP JUMP JUMPDEST PUSH0 PUSH2 0x1185 PUSH1 0x28 DUP4 PUSH2 0x111B JUMP JUMPDEST SWAP2 POP PUSH2 0x1190 DUP3 PUSH2 0x112B JUMP JUMPDEST PUSH1 0x40 DUP3 ADD SWAP1 POP SWAP2 SWAP1 POP JUMP JUMPDEST PUSH0 PUSH1 0x20 DUP3 ADD SWAP1 POP DUP2 DUP2 SUB PUSH0 DUP4 ADD MSTORE PUSH2 0x11B2 DUP2 PUSH2 0x1179 JUMP JUMPDEST SWAP1 POP SWAP2 SWAP1 POP JUMP JUMPDEST PUSH32 0x5175657279204572726F723A204F72646572206E6F7420726567697374657265 PUSH0 DUP3 ADD MSTORE PUSH32 0x6400000000000000000000000000000000000000000000000000000000000000 PUSH1 0x20 DUP3 ADD MSTORE POP JUMP JUMPDEST PUSH0 PUSH2 0x1213 PUSH1 0x21 DUP4 PUSH2 0x111B JUMP JUMPDEST SWAP2 POP PUSH2 0x121E DUP3 PUSH2 0x11B9 JUMP JUMPDEST PUSH1 0x40 DUP3 ADD SWAP1 POP SWAP2 SWAP1 POP JUMP JUMPDEST PUSH0 PUSH1 0x20 DUP3 ADD SWAP1 POP DUP2 DUP2 SUB PUSH0 DUP4 ADD MSTORE PUSH2 0x1240 DUP2 PUSH2 0x1207 JUMP JUMPDEST SWAP1 POP SWAP2 SWAP1 POP JUMP JUMPDEST PUSH32 0x4F7065726174696F6E204572726F723A20436F6E747261637420697320706175 PUSH0 DUP3 ADD MSTORE PUSH32 0x7365640000000000000000000000000000000000000000000000000000000000 PUSH1 0x20 DUP3 ADD MSTORE POP JUMP JUMPDEST PUSH0 PUSH2 0x12A1 PUSH1 0x23 DUP4 PUSH2 0x111B JUMP JUMPDEST SWAP2 POP PUSH2 0x12AC DUP3 PUSH2 0x1247 JUMP JUMPDEST PUSH1 0x40 DUP3 ADD SWAP1 POP SWAP2 SWAP1 POP JUMP JUMPDEST PUSH0 PUSH1 0x20 DUP3 ADD SWAP1 POP DUP2 DUP2 SUB PUSH0 DUP4 ADD MSTORE PUSH2 0x12CE DUP2 PUSH2 0x1295 JUMP JUMPDEST SWAP1 POP SWAP2 SWAP1 POP JUMP JUMPDEST PUSH32 0x557064617465204572726F723A204E657720737461747573206D757374206265 PUSH0 DUP3 ADD MSTORE PUSH32 0x20646966666572656E742066726F6D207468652063757272656E742073746174 PUSH1 0x20 DUP3 ADD MSTORE PUSH32 0x7573000000000000000000000000000000000000000000000000000000000000 PUSH1 0x40 DUP3 ADD MSTORE POP JUMP JUMPDEST PUSH0 PUSH2 0x1355 PUSH1 0x42 DUP4 PUSH2 0x111B JUMP JUMPDEST SWAP2 POP PUSH2 0x1360 DUP3 PUSH2 0x12D5 JUMP JUMPDEST PUSH1 0x60 DUP3 ADD SWAP1 POP SWAP2 SWAP1 POP JUMP JUMPDEST PUSH0 PUSH1 0x20 DUP3 ADD SWAP1 POP DUP2 DUP2 SUB PUSH0 DUP4 ADD MSTORE PUSH2 0x1382 DUP2 PUSH2 0x1349 JUMP JUMPDEST SWAP1 POP SWAP2 SWAP1 POP JUMP JUMPDEST PUSH0 PUSH1 0x20 DUP3 ADD SWAP1 POP PUSH2 0x139C PUSH0 DUP4 ADD DUP5 PUSH2 0x1036 JUMP JUMPDEST SWAP3 SWAP2 POP POP JUMP JUMPDEST PUSH32 0x52656D6F76616C204572726F723A204D616E61676572206E6F7420666F756E64 PUSH0 DUP3 ADD MSTORE POP JUMP JUMPDEST PUSH0 PUSH2 0x13D6 PUSH1 0x20 DUP4 PUSH2 0x111B JUMP JUMPDEST SWAP2 POP PUSH2 0x13E1 DUP3 PUSH2 0x13A2 JUMP JUMPDEST PUSH1 0x20 DUP3 ADD SWAP1 POP SWAP2 SWAP1 POP JUMP JUMPDEST PUSH0 PUSH1 0x20 DUP3 ADD SWAP1 POP DUP2 DUP2 SUB PUSH0 DUP4 ADD MSTORE PUSH2 0x1403 DUP2 PUSH2 0x13CA JUMP JUMPDEST SWAP1 POP SWAP2 SWAP1 POP JUMP JUMPDEST PUSH32 0x417070726F76616C204572726F723A204D616E6167657220616C726561647920 PUSH0 DUP3 ADD MSTORE PUSH32 0x617070726F766564000000000000000000000000000000000000000000000000 PUSH1 0x20 DUP3 ADD MSTORE POP JUMP JUMPDEST PUSH0 PUSH2 0x1464 PUSH1 0x28 DUP4 PUSH2 0x111B JUMP JUMPDEST SWAP2 POP PUSH2 0x146F DUP3 PUSH2 0x140A JUMP JUMPDEST PUSH1 0x40 DUP3 ADD SWAP1 POP SWAP2 SWAP1 POP JUMP JUMPDEST PUSH0 PUSH1 0x20 DUP3 ADD SWAP1 POP DUP2 DUP2 SUB PUSH0 DUP4 ADD MSTORE PUSH2 0x1491 DUP2 PUSH2 0x1458 JUMP JUMPDEST SWAP1 POP SWAP2 SWAP1 POP JUMP JUMPDEST PUSH32 0x4372656174696F6E204572726F723A204F7264657220616C7265616479206578 PUSH0 DUP3 ADD MSTORE PUSH32 0x6973747300000000000000000000000000000000000000000000000000000000 PUSH1 0x20 DUP3 ADD MSTORE POP JUMP JUMPDEST PUSH0 PUSH2 0x14F2 PUSH1 0x24 DUP4 PUSH2 0x111B JUMP JUMPDEST SWAP2 POP PUSH2 0x14FD DUP3 PUSH2 0x1498 JUMP JUMPDEST PUSH1 0x40 DUP3 ADD SWAP1 POP SWAP2 SWAP1 POP JUMP JUMPDEST PUSH0 PUSH1 0x20 DUP3 ADD SWAP1 POP DUP2 DUP2 SUB PUSH0 DUP4 ADD MSTORE PUSH2 0x151F DUP2 PUSH2 0x14E6 JUMP JUMPDEST SWAP1 POP SWAP2 SWAP1 POP JUMP JUMPDEST PUSH32 0x4372656174696F6E204572726F723A20496E76616C6964206275796572206F72 PUSH0 DUP3 ADD MSTORE PUSH32 0x2073656C6C657220616464726573730000000000000000000000000000000000 PUSH1 0x20 DUP3 ADD MSTORE POP JUMP JUMPDEST PUSH0 PUSH2 0x1580 PUSH1 0x2F DUP4 PUSH2 0x111B JUMP JUMPDEST SWAP2 POP PUSH2 0x158B DUP3 PUSH2 0x1526 JUMP JUMPDEST PUSH1 0x40 DUP3 ADD SWAP1 POP SWAP2 SWAP1 POP JUMP JUMPDEST PUSH0 PUSH1 0x20 DUP3 ADD SWAP1 POP DUP2 DUP2 SUB PUSH0 DUP4 ADD MSTORE PUSH2 0x15AD DUP2 PUSH2 0x1574 JUMP JUMPDEST SWAP1 POP SWAP2 SWAP1 POP JUMP JUMPDEST PUSH0 PUSH1 0x40 DUP3 ADD SWAP1 POP PUSH2 0x15C7 PUSH0 DUP4 ADD DUP6 PUSH2 0xFC3 JUMP JUMPDEST PUSH2 0x15D4 PUSH1 0x20 DUP4 ADD DUP5 PUSH2 0xFC3 JUMP JUMPDEST SWAP4 SWAP3 POP POP POP JUMP INVALID LOG2 PUSH5 0x6970667358 0x22 SLT KECCAK256 PUSH17 0x44B1DCED5284F6CEB16CBF305BF8D8169C 0x4B 0xC7 PREVRANDAO PUSH15 0x27EF9B87EE3E700DA6064736F6C63 NUMBER STOP ADDMOD BYTE STOP CALLER "
				},
				"gasEstimates": {
					"creation": {
						"codeDepositCost": "1129800",
						"executionCost": "26685",
						"totalCost": "1156485"
					},
					"external": {
						"approveManager(address)": "32623",
						"createOrder(uint256,address,address,uint256,uint256)": "infinite",
						"getOrder(uint256)": "infinite",
						"pauseContract()": "26649",
						"removeManager(address)": "32642",
						"unpauseContract()": "26647",
						"updateOrderStatus(uint256,uint8)": "35557"
					}
				},
				"methodIdentifiers": {
					"approveManager(address)": "b5eee722",
					"createOrder(uint256,address,address,uint256,uint256)": "dd544f45",
					"getOrder(uint256)": "d09ef241",
					"pauseContract()": "439766ce",
					"removeManager(address)": "ac18de43",
					"unpauseContract()": "b33712c5",
					"updateOrderStatus(uint256,uint8)": "aab3196d"
				}
			},
			"storageLayout": {
				"storage": [
					{
						"astId": 30,
						"contract": "contracts/OrderManagement.sol:OrderManagement",
						"label": "orders",
						"offset": 0,
						"slot": "0",
						"type": "t_mapping(t_uint256,t_struct(Order)25_storage)"
					},
					{
						"astId": 34,
						"contract": "contracts/OrderManagement.sol:OrderManagement",
						"label": "approvedManagers",
						"offset": 0,
						"slot": "1",
						"type": "t_mapping(t_address,t_bool)"
					},
					{
						"astId": 63,
						"contract": "contracts/OrderManagement.sol:OrderManagement",
						"label": "paused",
						"offset": 0,
						"slot": "2",
						"type": "t_bool"
					}
				],
				"types": {
					"t_address": {
						"encoding": "inplace",
						"label": "address",
						"numberOfBytes": "20"
					},
					"t_bool": {
						"encoding": "inplace",
						"label": "bool",
						"numberOfBytes": "1"
					},
					"t_enum(OrderStatus)7": {
						"encoding": "inplace",
						"label": "enum OrderManagement.OrderStatus",
						"numberOfBytes": "1"
					},
					"t_mapping(t_address,t_bool)": {
						"encoding": "mapping",
						"key": "t_address",
						"label": "mapping(address => bool)",
						"numberOfBytes": "32",
						"value": "t_bool"
					},
					"t_mapping(t_uint256,t_struct(Order)25_storage)": {
						"encoding": "mapping",
						"key": "t_uint256",
						"label": "mapping(uint256 => struct OrderManagement.Order)",
						"numberOfBytes": "32",
						"value": "t_struct(Order)25_storage"
					},
					"t_struct(Order)25_storage": {
						"encoding": "inplace",
						"label": "struct OrderManagement.Order",
						"members": [
							{
								"astId": 9,
								"contract": "contracts/OrderManagement.sol:OrderManagement",
								"label": "orderId",
								"offset": 0,
								"slot": "0",
								"type": "t_uint256"
							},
							{
								"astId": 11,
								"contract": "contracts/OrderManagement.sol:OrderManagement",
								"label": "buyer",
								"offset": 0,
								"slot": "1",
								"type": "t_address"
							},
							{
								"astId": 13,
								"contract": "contracts/OrderManagement.sol:OrderManagement",
								"label": "seller",
								"offset": 0,
								"slot": "2",
								"type": "t_address"
							},
							{
								"astId": 15,
								"contract": "contracts/OrderManagement.sol:OrderManagement",
								"label": "productId",
								"offset": 0,
								"slot": "3",
								"type": "t_uint256"
							},
							{
								"astId": 17,
								"contract": "contracts/OrderManagement.sol:OrderManagement",
								"label": "quantity",
								"offset": 0,
								"slot": "4",
								"type": "t_uint256"
							},
							{
								"astId": 19,
								"contract": "contracts/OrderManagement.sol:OrderManagement",
								"label": "timestamp",
								"offset": 0,
								"slot": "5",
								"type": "t_uint256"
							},
							{
								"astId": 22,
								"contract": "contracts/OrderManagement.sol:OrderManagement",
								"label": "status",
								"offset": 0,
								"slot": "6",
								"type": "t_enum(OrderStatus)7"
							},
							{
								"astId": 24,
								"contract": "contracts/OrderManagement.sol:OrderManagement",
								"label": "isRegistered",
								"offset": 1,
								"slot": "6",
								"type": "t_bool"
							}
						],
						"numberOfBytes": "224"
					},
					"t_uint256": {
						"encoding": "inplace",
						"label": "uint256",
						"numberOfBytes": "32"
					}
				}
			},
			"userdoc": {
				"kind": "user",
				"methods": {
					"approveManager(address)": {
						"notice": "Approve a new manager for order management"
					},
					"createOrder(uint256,address,address,uint256,uint256)": {
						"notice": "Create a new order"
					},
					"getOrder(uint256)": {
						"notice": "Get the details of an order"
					},
					"pauseContract()": {
						"notice": "Pause the contract to prevent certain operations"
					},
					"removeManager(address)": {
						"notice": "Remove an existing manager"
					},
					"unpauseContract()": {
						"notice": "Unpause the contract to resume operations"
					},
					"updateOrderStatus(uint256,uint8)": {
						"notice": "Update the status of an existing order"
					}
				},
				"notice": "This contract manages the creation, updating, and tracking of orders within a supply chain.",
				"version": 1
			}
		}
	}
}