{
	"contracts/Traceability.sol": {
		"Traceability": {
			"abi": [
				{
					"inputs": [],
					"stateMutability": "nonpayable",
					"type": "constructor"
				},
				{
					"anonymous": false,
					"inputs": [
						{
							"indexed": true,
							"internalType": "address",
							"name": "manager",
							"type": "address"
						}
					],
					"name": "ManagerApproved",
					"type": "event"
				},
				{
					"anonymous": false,
					"inputs": [
						{
							"indexed": true,
							"internalType": "address",
							"name": "manager",
							"type": "address"
						}
					],
					"name": "ManagerRemoved",
					"type": "event"
				},
				{
					"anonymous": false,
					"inputs": [
						{
							"indexed": true,
							"internalType": "uint256",
							"name": "productId",
							"type": "uint256"
						},
						{
							"indexed": true,
							"internalType": "address",
							"name": "from",
							"type": "address"
						},
						{
							"indexed": true,
							"internalType": "address",
							"name": "to",
							"type": "address"
						},
						{
							"indexed": false,
							"internalType": "string",
							"name": "location",
							"type": "string"
						}
					],
					"name": "ProductMoved",
					"type": "event"
				},
				{
					"anonymous": false,
					"inputs": [
						{
							"indexed": true,
							"internalType": "uint256",
							"name": "productId",
							"type": "uint256"
						},
						{
							"indexed": true,
							"internalType": "address",
							"name": "origin",
							"type": "address"
						}
					],
					"name": "ProductRegistered",
					"type": "event"
				},
				{
					"inputs": [
						{
							"internalType": "address",
							"name": "_manager",
							"type": "address"
						}
					],
					"name": "approveManager",
					"outputs": [],
					"stateMutability": "nonpayable",
					"type": "function"
				},
				{
					"inputs": [
						{
							"internalType": "uint256",
							"name": "_productId",
							"type": "uint256"
						}
					],
					"name": "getProductMovementHistory",
					"outputs": [
						{
							"components": [
								{
									"internalType": "uint256",
									"name": "productId",
									"type": "uint256"
								},
								{
									"internalType": "string",
									"name": "location",
									"type": "string"
								},
								{
									"internalType": "address",
									"name": "from",
									"type": "address"
								},
								{
									"internalType": "address",
									"name": "to",
									"type": "address"
								},
								{
									"internalType": "uint256",
									"name": "timestamp",
									"type": "uint256"
								},
								{
									"internalType": "string",
									"name": "eventDetails",
									"type": "string"
								}
							],
							"internalType": "struct Traceability.MovementEvent[]",
							"name": "",
							"type": "tuple[]"
						}
					],
					"stateMutability": "view",
					"type": "function"
				},
				{
					"inputs": [],
					"name": "pauseContract",
					"outputs": [],
					"stateMutability": "nonpayable",
					"type": "function"
				},
				{
					"inputs": [
						{
							"internalType": "uint256",
							"name": "_productId",
							"type": "uint256"
						},
						{
							"internalType": "string",
							"name": "_location",
							"type": "string"
						},
						{
							"internalType": "address",
							"name": "_to",
							"type": "address"
						},
						{
							"internalType": "string",
							"name": "_eventDetails",
							"type": "string"
						}
					],
					"name": "recordMovement",
					"outputs": [],
					"stateMutability": "nonpayable",
					"type": "function"
				},
				{
					"inputs": [
						{
							"internalType": "uint256",
							"name": "_productId",
							"type": "uint256"
						}
					],
					"name": "registerProduct",
					"outputs": [],
					"stateMutability": "nonpayable",
					"type": "function"
				},
				{
					"inputs": [
						{
							"internalType": "address",
							"name": "_manager",
							"type": "address"
						}
					],
					"name": "removeManager",
					"outputs": [],
					"stateMutability": "nonpayable",
					"type": "function"
				},
				{
					"inputs": [],
					"name": "unpauseContract",
					"outputs": [],
					"stateMutability": "nonpayable",
					"type": "function"
				},
				{
					"inputs": [
						{
							"internalType": "uint256",
							"name": "_productId",
							"type": "uint256"
						}
					],
					"name": "verifyProductAuthenticity",
					"outputs": [
						{
							"internalType": "address",
							"name": "origin",
							"type": "address"
						},
						{
							"internalType": "uint256",
							"name": "creationDate",
							"type": "uint256"
						}
					],
					"stateMutability": "view",
					"type": "function"
				}
			],
			"devdoc": {
				"details": "It includes transaction data, location, participants, and ensures product authenticity and provenance verification.",
				"kind": "dev",
				"methods": {
					"approveManager(address)": {
						"params": {
							"_manager": "The address to be approved as a manager"
						}
					},
					"getProductMovementHistory(uint256)": {
						"params": {
							"_productId": "The unique ID of the product"
						},
						"returns": {
							"_0": "An array of MovementEvent structs representing the product's history"
						}
					},
					"recordMovement(uint256,string,address,string)": {
						"params": {
							"_eventDetails": "Additional details of the event",
							"_location": "The location where the event occurred",
							"_productId": "The unique ID of the product being moved",
							"_to": "The address of the recipient"
						}
					},
					"registerProduct(uint256)": {
						"params": {
							"_productId": "The unique ID of the product"
						}
					},
					"removeManager(address)": {
						"params": {
							"_manager": "The address to be removed from approved managers"
						}
					},
					"verifyProductAuthenticity(uint256)": {
						"params": {
							"_productId": "The unique ID of the product"
						},
						"returns": {
							"origin": "The address of the product's origin, and creationDate indicating the initial registration date"
						}
					}
				},
				"title": "Traceability and Tracking Contract - Supply Chain Management System",
				"version": 1
			},
			"evm": {
				"assembly": "    /* \"contracts/Traceability.sol\":374:6087  contract Traceability {... */\n  mstore(0x40, 0x80)\n    /* \"contracts/Traceability.sol\":2459:2567  constructor() {... */\n  callvalue\n  dup1\n  iszero\n  tag_1\n  jumpi\n  0x00\n  dup1\n  revert\ntag_1:\n  pop\n    /* \"contracts/Traceability.sol\":2514:2518  true */\n  0x01\n    /* \"contracts/Traceability.sol\":2483:2499  approvedManagers */\n  0x02\n    /* \"contracts/Traceability.sol\":2483:2511  approvedManagers[msg.sender] */\n  0x00\n    /* \"contracts/Traceability.sol\":2500:2510  msg.sender */\n  caller\n    /* \"contracts/Traceability.sol\":2483:2511  approvedManagers[msg.sender] */\n  0xffffffffffffffffffffffffffffffffffffffff\n  and\n  0xffffffffffffffffffffffffffffffffffffffff\n  and\n  dup2\n  mstore\n  0x20\n  add\n  swap1\n  dup2\n  mstore\n  0x20\n  add\n  0x00\n  keccak256\n  0x00\n    /* \"contracts/Traceability.sol\":2483:2518  approvedManagers[msg.sender] = true */\n  0x0100\n  exp\n  dup2\n  sload\n  dup2\n  0xff\n  mul\n  not\n  and\n  swap1\n  dup4\n  iszero\n  iszero\n  mul\n  or\n  swap1\n  sstore\n  pop\n    /* \"contracts/Traceability.sol\":2549:2559  msg.sender */\n  caller\n    /* \"contracts/Traceability.sol\":2533:2560  ManagerApproved(msg.sender) */\n  0xffffffffffffffffffffffffffffffffffffffff\n  and\n  0x450ad6a6ac3c2e8b8a02820cb64d6102a1f91ebe1fa3848a0cfc45c870c043af\n  mload(0x40)\n  mload(0x40)\n  dup1\n  swap2\n  sub\n  swap1\n  log2\n    /* \"contracts/Traceability.sol\":374:6087  contract Traceability {... */\n  dataSize(sub_0)\n  dup1\n  dataOffset(sub_0)\n  0x00\n  codecopy\n  0x00\n  return\nstop\n\nsub_0: assembly {\n        /* \"contracts/Traceability.sol\":374:6087  contract Traceability {... */\n      mstore(0x40, 0x80)\n      callvalue\n      dup1\n      iszero\n      tag_1\n      jumpi\n      0x00\n      dup1\n      revert\n    tag_1:\n      pop\n      jumpi(tag_2, lt(calldatasize, 0x04))\n      shr(0xe0, calldataload(0x00))\n      dup1\n      0xac18de43\n      gt\n      tag_11\n      jumpi\n      dup1\n      0xac18de43\n      eq\n      tag_7\n      jumpi\n      dup1\n      0xb33712c5\n      eq\n      tag_8\n      jumpi\n      dup1\n      0xb5eee722\n      eq\n      tag_9\n      jumpi\n      dup1\n      0xc08e0f96\n      eq\n      tag_10\n      jumpi\n      jump(tag_2)\n    tag_11:\n      dup1\n      0x439766ce\n      eq\n      tag_3\n      jumpi\n      dup1\n      0x5abdcb55\n      eq\n      tag_4\n      jumpi\n      dup1\n      0x6d6bb057\n      eq\n      tag_5\n      jumpi\n      dup1\n      0x767bdff1\n      eq\n      tag_6\n      jumpi\n    tag_2:\n      0x00\n      dup1\n      revert\n        /* \"contracts/Traceability.sol\":5850:5934  function pauseContract() external onlyApprovedManager {... */\n    tag_3:\n      tag_12\n      tag_13\n      jump\t// in\n    tag_12:\n      stop\n        /* \"contracts/Traceability.sol\":4109:4857  function recordMovement(uint256 _productId, string calldata _location, address _to, string calldata _eventDetails)... */\n    tag_4:\n      tag_14\n      0x04\n      dup1\n      calldatasize\n      sub\n      dup2\n      add\n      swap1\n      tag_15\n      swap2\n      swap1\n      tag_16\n      jump\t// in\n    tag_15:\n      tag_17\n      jump\t// in\n    tag_14:\n      stop\n        /* \"contracts/Traceability.sol\":5057:5255  function getProductMovementHistory(uint256 _productId)... */\n    tag_5:\n      tag_18\n      0x04\n      dup1\n      calldatasize\n      sub\n      dup2\n      add\n      swap1\n      tag_19\n      swap2\n      swap1\n      tag_20\n      jump\t// in\n    tag_19:\n      tag_21\n      jump\t// in\n    tag_18:\n      mload(0x40)\n      tag_22\n      swap2\n      swap1\n      tag_23\n      jump\t// in\n    tag_22:\n      mload(0x40)\n      dup1\n      swap2\n      sub\n      swap1\n      return\n        /* \"contracts/Traceability.sol\":5502:5779  function verifyProductAuthenticity(uint256 _productId)... */\n    tag_6:\n      tag_24\n      0x04\n      dup1\n      calldatasize\n      sub\n      dup2\n      add\n      swap1\n      tag_25\n      swap2\n      swap1\n      tag_20\n      jump\t// in\n    tag_25:\n      tag_26\n      jump\t// in\n    tag_24:\n      mload(0x40)\n      tag_27\n      swap3\n      swap2\n      swap1\n      tag_28\n      jump\t// in\n    tag_27:\n      mload(0x40)\n      dup1\n      swap2\n      sub\n      swap1\n      return\n        /* \"contracts/Traceability.sol\":3094:3349  function removeManager(address _manager) external onlyApprovedManager whenNotPaused {... */\n    tag_7:\n      tag_29\n      0x04\n      dup1\n      calldatasize\n      sub\n      dup2\n      add\n      swap1\n      tag_30\n      swap2\n      swap1\n      tag_31\n      jump\t// in\n    tag_30:\n      tag_32\n      jump\t// in\n    tag_29:\n      stop\n        /* \"contracts/Traceability.sol\":5998:6085  function unpauseContract() external onlyApprovedManager {... */\n    tag_8:\n      tag_33\n      tag_34\n      jump\t// in\n    tag_33:\n      stop\n        /* \"contracts/Traceability.sol\":2707:2972  function approveManager(address _manager) external onlyApprovedManager whenNotPaused {... */\n    tag_9:\n      tag_35\n      0x04\n      dup1\n      calldatasize\n      sub\n      dup2\n      add\n      swap1\n      tag_36\n      swap2\n      swap1\n      tag_31\n      jump\t// in\n    tag_36:\n      tag_37\n      jump\t// in\n    tag_35:\n      stop\n        /* \"contracts/Traceability.sol\":3475:3816  function registerProduct(uint256 _productId) external onlyApprovedManager whenNotPaused {... */\n    tag_10:\n      tag_38\n      0x04\n      dup1\n      calldatasize\n      sub\n      dup2\n      add\n      swap1\n      tag_39\n      swap2\n      swap1\n      tag_20\n      jump\t// in\n    tag_39:\n      tag_40\n      jump\t// in\n    tag_38:\n      stop\n        /* \"contracts/Traceability.sol\":5850:5934  function pauseContract() external onlyApprovedManager {... */\n    tag_13:\n        /* \"contracts/Traceability.sol\":1908:1924  approvedManagers */\n      0x02\n        /* \"contracts/Traceability.sol\":1908:1936  approvedManagers[msg.sender] */\n      0x00\n        /* \"contracts/Traceability.sol\":1925:1935  msg.sender */\n      caller\n        /* \"contracts/Traceability.sol\":1908:1936  approvedManagers[msg.sender] */\n      0xffffffffffffffffffffffffffffffffffffffff\n      and\n      0xffffffffffffffffffffffffffffffffffffffff\n      and\n      dup2\n      mstore\n      0x20\n      add\n      swap1\n      dup2\n      mstore\n      0x20\n      add\n      0x00\n      keccak256\n      0x00\n      swap1\n      sload\n      swap1\n      0x0100\n      exp\n      swap1\n      div\n      0xff\n      and\n        /* \"contracts/Traceability.sol\":1900:1981  require(approvedManagers[msg.sender], \"Access Denied: Not an authorized manager\") */\n      tag_42\n      jumpi\n      mload(0x40)\n      0x08c379a000000000000000000000000000000000000000000000000000000000\n      dup2\n      mstore\n      0x04\n      add\n      tag_43\n      swap1\n      tag_44\n      jump\t// in\n    tag_43:\n      mload(0x40)\n      dup1\n      swap2\n      sub\n      swap1\n      revert\n    tag_42:\n        /* \"contracts/Traceability.sol\":5923:5927  true */\n      0x01\n        /* \"contracts/Traceability.sol\":5914:5920  paused */\n      0x03\n      0x00\n        /* \"contracts/Traceability.sol\":5914:5927  paused = true */\n      0x0100\n      exp\n      dup2\n      sload\n      dup2\n      0xff\n      mul\n      not\n      and\n      swap1\n      dup4\n      iszero\n      iszero\n      mul\n      or\n      swap1\n      sstore\n      pop\n        /* \"contracts/Traceability.sol\":5850:5934  function pauseContract() external onlyApprovedManager {... */\n      jump\t// out\n        /* \"contracts/Traceability.sol\":4109:4857  function recordMovement(uint256 _productId, string calldata _location, address _to, string calldata _eventDetails)... */\n    tag_17:\n        /* \"contracts/Traceability.sol\":1908:1924  approvedManagers */\n      0x02\n        /* \"contracts/Traceability.sol\":1908:1936  approvedManagers[msg.sender] */\n      0x00\n        /* \"contracts/Traceability.sol\":1925:1935  msg.sender */\n      caller\n        /* \"contracts/Traceability.sol\":1908:1936  approvedManagers[msg.sender] */\n      0xffffffffffffffffffffffffffffffffffffffff\n      and\n      0xffffffffffffffffffffffffffffffffffffffff\n      and\n      dup2\n      mstore\n      0x20\n      add\n      swap1\n      dup2\n      mstore\n      0x20\n      add\n      0x00\n      keccak256\n      0x00\n      swap1\n      sload\n      swap1\n      0x0100\n      exp\n      swap1\n      div\n      0xff\n      and\n        /* \"contracts/Traceability.sol\":1900:1981  require(approvedManagers[msg.sender], \"Access Denied: Not an authorized manager\") */\n      tag_47\n      jumpi\n      mload(0x40)\n      0x08c379a000000000000000000000000000000000000000000000000000000000\n      dup2\n      mstore\n      0x04\n      add\n      tag_48\n      swap1\n      tag_44\n      jump\t// in\n    tag_48:\n      mload(0x40)\n      dup1\n      swap2\n      sub\n      swap1\n      revert\n    tag_47:\n        /* \"contracts/Traceability.sol\":4281:4291  _productId */\n      dup6\n        /* \"contracts/Traceability.sol\":2122:2130  products */\n      0x01\n        /* \"contracts/Traceability.sol\":2122:2142  products[_productId] */\n      0x00\n        /* \"contracts/Traceability.sol\":2131:2141  _productId */\n      dup3\n        /* \"contracts/Traceability.sol\":2122:2142  products[_productId] */\n      dup2\n      mstore\n      0x20\n      add\n      swap1\n      dup2\n      mstore\n      0x20\n      add\n      0x00\n      keccak256\n        /* \"contracts/Traceability.sol\":2122:2155  products[_productId].isRegistered */\n      0x01\n      add\n      0x00\n      swap1\n      sload\n      swap1\n      0x0100\n      exp\n      swap1\n      div\n      0xff\n      and\n        /* \"contracts/Traceability.sol\":2114:2195  require(products[_productId].isRegistered, \"Query Error: Product not registered\") */\n      tag_50\n      jumpi\n      mload(0x40)\n      0x08c379a000000000000000000000000000000000000000000000000000000000\n      dup2\n      mstore\n      0x04\n      add\n      tag_51\n      swap1\n      tag_52\n      jump\t// in\n    tag_51:\n      mload(0x40)\n      dup1\n      swap2\n      sub\n      swap1\n      revert\n    tag_50:\n        /* \"contracts/Traceability.sol\":2316:2322  paused */\n      0x03\n      0x00\n      swap1\n      sload\n      swap1\n      0x0100\n      exp\n      swap1\n      div\n      0xff\n      and\n        /* \"contracts/Traceability.sol\":2315:2322  !paused */\n      iszero\n        /* \"contracts/Traceability.sol\":2307:2362  require(!paused, \"Operation Error: Contract is paused\") */\n      tag_54\n      jumpi\n      mload(0x40)\n      0x08c379a000000000000000000000000000000000000000000000000000000000\n      dup2\n      mstore\n      0x04\n      add\n      tag_55\n      swap1\n      tag_56\n      jump\t// in\n    tag_55:\n      mload(0x40)\n      dup1\n      swap2\n      sub\n      swap1\n      revert\n    tag_54:\n        /* \"contracts/Traceability.sol\":4322:4344  Product memory product */\n      0x00\n        /* \"contracts/Traceability.sol\":4347:4355  products */\n      0x01\n        /* \"contracts/Traceability.sol\":4347:4367  products[_productId] */\n      0x00\n        /* \"contracts/Traceability.sol\":4356:4366  _productId */\n      dup10\n        /* \"contracts/Traceability.sol\":4347:4367  products[_productId] */\n      dup2\n      mstore\n      0x20\n      add\n      swap1\n      dup2\n      mstore\n      0x20\n      add\n      0x00\n      keccak256\n        /* \"contracts/Traceability.sol\":4322:4367  Product memory product = products[_productId] */\n      mload(0x40)\n      dup1\n      0x80\n      add\n      0x40\n      mstore\n      swap1\n      dup2\n      0x00\n      dup3\n      add\n      sload\n      dup2\n      mstore\n      0x20\n      add\n      0x01\n      dup3\n      add\n      0x00\n      swap1\n      sload\n      swap1\n      0x0100\n      exp\n      swap1\n      div\n      0xff\n      and\n      iszero\n      iszero\n      iszero\n      iszero\n      dup2\n      mstore\n      0x20\n      add\n      0x01\n      dup3\n      add\n      0x01\n      swap1\n      sload\n      swap1\n      0x0100\n      exp\n      swap1\n      div\n      0xffffffffffffffffffffffffffffffffffffffff\n      and\n      0xffffffffffffffffffffffffffffffffffffffff\n      and\n      0xffffffffffffffffffffffffffffffffffffffff\n      and\n      dup2\n      mstore\n      0x20\n      add\n      0x02\n      dup3\n      add\n      sload\n      dup2\n      mstore\n      pop\n      pop\n      swap1\n      pop\n        /* \"contracts/Traceability.sol\":4377:4398  address previousOwner */\n      0x00\n        /* \"contracts/Traceability.sol\":4401:4408  product */\n      dup2\n        /* \"contracts/Traceability.sol\":4401:4415  product.origin */\n      0x40\n      add\n      mload\n        /* \"contracts/Traceability.sol\":4377:4415  address previousOwner = product.origin */\n      swap1\n      pop\n        /* \"contracts/Traceability.sol\":4463:4479  productMovements */\n      0x00\n        /* \"contracts/Traceability.sol\":4463:4491  productMovements[_productId] */\n      dup1\n        /* \"contracts/Traceability.sol\":4480:4490  _productId */\n      dup11\n        /* \"contracts/Traceability.sol\":4463:4491  productMovements[_productId] */\n      dup2\n      mstore\n      0x20\n      add\n      swap1\n      dup2\n      mstore\n      0x20\n      add\n      0x00\n      keccak256\n        /* \"contracts/Traceability.sol\":4497:4667  MovementEvent(... */\n      mload(0x40)\n      dup1\n      0xc0\n      add\n      0x40\n      mstore\n      dup1\n        /* \"contracts/Traceability.sol\":4524:4534  _productId */\n      dup12\n        /* \"contracts/Traceability.sol\":4497:4667  MovementEvent(... */\n      dup2\n      mstore\n      0x20\n      add\n        /* \"contracts/Traceability.sol\":4548:4557  _location */\n      dup11\n      dup11\n        /* \"contracts/Traceability.sol\":4497:4667  MovementEvent(... */\n      dup1\n      dup1\n      0x1f\n      add\n      0x20\n      dup1\n      swap2\n      div\n      mul\n      0x20\n      add\n      mload(0x40)\n      swap1\n      dup2\n      add\n      0x40\n      mstore\n      dup1\n      swap4\n      swap3\n      swap2\n      swap1\n      dup2\n      dup2\n      mstore\n      0x20\n      add\n      dup4\n      dup4\n      dup1\n      dup3\n      dup5\n      calldatacopy\n      0x00\n      dup2\n      dup5\n      add\n      mstore\n      not(0x1f)\n      0x1f\n      dup3\n      add\n      and\n      swap1\n      pop\n      dup1\n      dup4\n      add\n      swap3\n      pop\n      pop\n      pop\n      pop\n      pop\n      pop\n      pop\n      dup2\n      mstore\n      0x20\n      add\n        /* \"contracts/Traceability.sol\":4571:4584  previousOwner */\n      dup4\n        /* \"contracts/Traceability.sol\":4497:4667  MovementEvent(... */\n      0xffffffffffffffffffffffffffffffffffffffff\n      and\n      dup2\n      mstore\n      0x20\n      add\n        /* \"contracts/Traceability.sol\":4598:4601  _to */\n      dup9\n        /* \"contracts/Traceability.sol\":4497:4667  MovementEvent(... */\n      0xffffffffffffffffffffffffffffffffffffffff\n      and\n      dup2\n      mstore\n      0x20\n      add\n        /* \"contracts/Traceability.sol\":4615:4630  block.timestamp */\n      timestamp\n        /* \"contracts/Traceability.sol\":4497:4667  MovementEvent(... */\n      dup2\n      mstore\n      0x20\n      add\n        /* \"contracts/Traceability.sol\":4644:4657  _eventDetails */\n      dup8\n      dup8\n        /* \"contracts/Traceability.sol\":4497:4667  MovementEvent(... */\n      dup1\n      dup1\n      0x1f\n      add\n      0x20\n      dup1\n      swap2\n      div\n      mul\n      0x20\n      add\n      mload(0x40)\n      swap1\n      dup2\n      add\n      0x40\n      mstore\n      dup1\n      swap4\n      swap3\n      swap2\n      swap1\n      dup2\n      dup2\n      mstore\n      0x20\n      add\n      dup4\n      dup4\n      dup1\n      dup3\n      dup5\n      calldatacopy\n      0x00\n      dup2\n      dup5\n      add\n      mstore\n      not(0x1f)\n      0x1f\n      dup3\n      add\n      and\n      swap1\n      pop\n      dup1\n      dup4\n      add\n      swap3\n      pop\n      pop\n      pop\n      pop\n      pop\n      pop\n      pop\n      dup2\n      mstore\n      pop\n        /* \"contracts/Traceability.sol\":4463:4668  productMovements[_productId].push(MovementEvent(... */\n      swap1\n      dup1\n      0x01\n      dup2\n      sload\n      add\n      dup1\n      dup3\n      sstore\n      dup1\n      swap2\n      pop\n      pop\n      0x01\n      swap1\n      sub\n      swap1\n      0x00\n      mstore\n      keccak256(0x00, 0x20)\n      swap1\n      0x06\n      mul\n      add\n      0x00\n      swap1\n      swap2\n      swap1\n      swap2\n      swap1\n      swap2\n      pop\n      0x00\n      dup3\n      add\n      mload\n      dup2\n      0x00\n      add\n      sstore\n      0x20\n      dup3\n      add\n      mload\n      dup2\n      0x01\n      add\n      swap1\n      dup2\n      tag_59\n      swap2\n      swap1\n      tag_60\n      jump\t// in\n    tag_59:\n      pop\n      0x40\n      dup3\n      add\n      mload\n      dup2\n      0x02\n      add\n      exp(0x0100, 0x00)\n      dup2\n      sload\n      dup2\n      0xffffffffffffffffffffffffffffffffffffffff\n      mul\n      not\n      and\n      swap1\n      dup4\n      0xffffffffffffffffffffffffffffffffffffffff\n      and\n      mul\n      or\n      swap1\n      sstore\n      pop\n      0x60\n      dup3\n      add\n      mload\n      dup2\n      0x03\n      add\n      exp(0x0100, 0x00)\n      dup2\n      sload\n      dup2\n      0xffffffffffffffffffffffffffffffffffffffff\n      mul\n      not\n      and\n      swap1\n      dup4\n      0xffffffffffffffffffffffffffffffffffffffff\n      and\n      mul\n      or\n      swap1\n      sstore\n      pop\n      0x80\n      dup3\n      add\n      mload\n      dup2\n      0x04\n      add\n      sstore\n      0xa0\n      dup3\n      add\n      mload\n      dup2\n      0x05\n      add\n      swap1\n      dup2\n      tag_61\n      swap2\n      swap1\n      tag_60\n      jump\t// in\n    tag_61:\n      pop\n      pop\n      pop\n        /* \"contracts/Traceability.sol\":4776:4779  _to */\n      dup6\n        /* \"contracts/Traceability.sol\":4746:4754  products */\n      0x01\n        /* \"contracts/Traceability.sol\":4746:4766  products[_productId] */\n      0x00\n        /* \"contracts/Traceability.sol\":4755:4765  _productId */\n      dup12\n        /* \"contracts/Traceability.sol\":4746:4766  products[_productId] */\n      dup2\n      mstore\n      0x20\n      add\n      swap1\n      dup2\n      mstore\n      0x20\n      add\n      0x00\n      keccak256\n        /* \"contracts/Traceability.sol\":4746:4773  products[_productId].origin */\n      0x01\n      add\n      0x01\n        /* \"contracts/Traceability.sol\":4746:4779  products[_productId].origin = _to */\n      0x0100\n      exp\n      dup2\n      sload\n      dup2\n      0xffffffffffffffffffffffffffffffffffffffff\n      mul\n      not\n      and\n      swap1\n      dup4\n      0xffffffffffffffffffffffffffffffffffffffff\n      and\n      mul\n      or\n      swap1\n      sstore\n      pop\n        /* \"contracts/Traceability.sol\":4835:4838  _to */\n      dup6\n        /* \"contracts/Traceability.sol\":4795:4850  ProductMoved(_productId, previousOwner, _to, _location) */\n      0xffffffffffffffffffffffffffffffffffffffff\n      and\n        /* \"contracts/Traceability.sol\":4820:4833  previousOwner */\n      dup2\n        /* \"contracts/Traceability.sol\":4795:4850  ProductMoved(_productId, previousOwner, _to, _location) */\n      0xffffffffffffffffffffffffffffffffffffffff\n      and\n        /* \"contracts/Traceability.sol\":4808:4818  _productId */\n      dup11\n        /* \"contracts/Traceability.sol\":4795:4850  ProductMoved(_productId, previousOwner, _to, _location) */\n      0xc99480a8e2a4ad60c7560b50b8734177c7bd1eb1d324232f3c82f30f3238cd12\n        /* \"contracts/Traceability.sol\":4840:4849  _location */\n      dup12\n      dup12\n        /* \"contracts/Traceability.sol\":4795:4850  ProductMoved(_productId, previousOwner, _to, _location) */\n      mload(0x40)\n      tag_62\n      swap3\n      swap2\n      swap1\n      tag_63\n      jump\t// in\n    tag_62:\n      mload(0x40)\n      dup1\n      swap2\n      sub\n      swap1\n      log4\n        /* \"contracts/Traceability.sol\":4312:4857  {... */\n      pop\n      pop\n        /* \"contracts/Traceability.sol\":1991:1992  _ */\n      pop\n        /* \"contracts/Traceability.sol\":4109:4857  function recordMovement(uint256 _productId, string calldata _location, address _to, string calldata _eventDetails)... */\n      pop\n      pop\n      pop\n      pop\n      pop\n      pop\n      jump\t// out\n        /* \"contracts/Traceability.sol\":5057:5255  function getProductMovementHistory(uint256 _productId)... */\n    tag_21:\n        /* \"contracts/Traceability.sol\":5175:5197  MovementEvent[] memory */\n      0x60\n        /* \"contracts/Traceability.sol\":5154:5164  _productId */\n      dup2\n        /* \"contracts/Traceability.sol\":2122:2130  products */\n      0x01\n        /* \"contracts/Traceability.sol\":2122:2142  products[_productId] */\n      0x00\n        /* \"contracts/Traceability.sol\":2131:2141  _productId */\n      dup3\n        /* \"contracts/Traceability.sol\":2122:2142  products[_productId] */\n      dup2\n      mstore\n      0x20\n      add\n      swap1\n      dup2\n      mstore\n      0x20\n      add\n      0x00\n      keccak256\n        /* \"contracts/Traceability.sol\":2122:2155  products[_productId].isRegistered */\n      0x01\n      add\n      0x00\n      swap1\n      sload\n      swap1\n      0x0100\n      exp\n      swap1\n      div\n      0xff\n      and\n        /* \"contracts/Traceability.sol\":2114:2195  require(products[_productId].isRegistered, \"Query Error: Product not registered\") */\n      tag_65\n      jumpi\n      mload(0x40)\n      0x08c379a000000000000000000000000000000000000000000000000000000000\n      dup2\n      mstore\n      0x04\n      add\n      tag_66\n      swap1\n      tag_52\n      jump\t// in\n    tag_66:\n      mload(0x40)\n      dup1\n      swap2\n      sub\n      swap1\n      revert\n    tag_65:\n        /* \"contracts/Traceability.sol\":5220:5236  productMovements */\n      0x00\n        /* \"contracts/Traceability.sol\":5220:5248  productMovements[_productId] */\n      dup1\n        /* \"contracts/Traceability.sol\":5237:5247  _productId */\n      dup5\n        /* \"contracts/Traceability.sol\":5220:5248  productMovements[_productId] */\n      dup2\n      mstore\n      0x20\n      add\n      swap1\n      dup2\n      mstore\n      0x20\n      add\n      0x00\n      keccak256\n        /* \"contracts/Traceability.sol\":5213:5248  return productMovements[_productId] */\n      dup1\n      sload\n      dup1\n      0x20\n      mul\n      0x20\n      add\n      mload(0x40)\n      swap1\n      dup2\n      add\n      0x40\n      mstore\n      dup1\n      swap3\n      swap2\n      swap1\n      dup2\n      dup2\n      mstore\n      0x20\n      add\n      0x00\n      swap1\n    tag_68:\n      dup3\n      dup3\n      lt\n      iszero\n      tag_69\n      jumpi\n      dup4\n      dup3\n      swap1\n      0x00\n      mstore\n      keccak256(0x00, 0x20)\n      swap1\n      0x06\n      mul\n      add\n      mload(0x40)\n      dup1\n      0xc0\n      add\n      0x40\n      mstore\n      swap1\n      dup2\n      0x00\n      dup3\n      add\n      sload\n      dup2\n      mstore\n      0x20\n      add\n      0x01\n      dup3\n      add\n      dup1\n      sload\n      tag_71\n      swap1\n      tag_72\n      jump\t// in\n    tag_71:\n      dup1\n      0x1f\n      add\n      0x20\n      dup1\n      swap2\n      div\n      mul\n      0x20\n      add\n      mload(0x40)\n      swap1\n      dup2\n      add\n      0x40\n      mstore\n      dup1\n      swap3\n      swap2\n      swap1\n      dup2\n      dup2\n      mstore\n      0x20\n      add\n      dup3\n      dup1\n      sload\n      tag_73\n      swap1\n      tag_72\n      jump\t// in\n    tag_73:\n      dup1\n      iszero\n      tag_74\n      jumpi\n      dup1\n      0x1f\n      lt\n      tag_75\n      jumpi\n      0x0100\n      dup1\n      dup4\n      sload\n      div\n      mul\n      dup4\n      mstore\n      swap2\n      0x20\n      add\n      swap2\n      jump(tag_74)\n    tag_75:\n      dup3\n      add\n      swap2\n      swap1\n      0x00\n      mstore\n      keccak256(0x00, 0x20)\n      swap1\n    tag_76:\n      dup2\n      sload\n      dup2\n      mstore\n      swap1\n      0x01\n      add\n      swap1\n      0x20\n      add\n      dup1\n      dup4\n      gt\n      tag_76\n      jumpi\n      dup3\n      swap1\n      sub\n      0x1f\n      and\n      dup3\n      add\n      swap2\n    tag_74:\n      pop\n      pop\n      pop\n      pop\n      pop\n      dup2\n      mstore\n      0x20\n      add\n      0x02\n      dup3\n      add\n      0x00\n      swap1\n      sload\n      swap1\n      0x0100\n      exp\n      swap1\n      div\n      0xffffffffffffffffffffffffffffffffffffffff\n      and\n      0xffffffffffffffffffffffffffffffffffffffff\n      and\n      0xffffffffffffffffffffffffffffffffffffffff\n      and\n      dup2\n      mstore\n      0x20\n      add\n      0x03\n      dup3\n      add\n      0x00\n      swap1\n      sload\n      swap1\n      0x0100\n      exp\n      swap1\n      div\n      0xffffffffffffffffffffffffffffffffffffffff\n      and\n      0xffffffffffffffffffffffffffffffffffffffff\n      and\n      0xffffffffffffffffffffffffffffffffffffffff\n      and\n      dup2\n      mstore\n      0x20\n      add\n      0x04\n      dup3\n      add\n      sload\n      dup2\n      mstore\n      0x20\n      add\n      0x05\n      dup3\n      add\n      dup1\n      sload\n      tag_77\n      swap1\n      tag_72\n      jump\t// in\n    tag_77:\n      dup1\n      0x1f\n      add\n      0x20\n      dup1\n      swap2\n      div\n      mul\n      0x20\n      add\n      mload(0x40)\n      swap1\n      dup2\n      add\n      0x40\n      mstore\n      dup1\n      swap3\n      swap2\n      swap1\n      dup2\n      dup2\n      mstore\n      0x20\n      add\n      dup3\n      dup1\n      sload\n      tag_78\n      swap1\n      tag_72\n      jump\t// in\n    tag_78:\n      dup1\n      iszero\n      tag_79\n      jumpi\n      dup1\n      0x1f\n      lt\n      tag_80\n      jumpi\n      0x0100\n      dup1\n      dup4\n      sload\n      div\n      mul\n      dup4\n      mstore\n      swap2\n      0x20\n      add\n      swap2\n      jump(tag_79)\n    tag_80:\n      dup3\n      add\n      swap2\n      swap1\n      0x00\n      mstore\n      keccak256(0x00, 0x20)\n      swap1\n    tag_81:\n      dup2\n      sload\n      dup2\n      mstore\n      swap1\n      0x01\n      add\n      swap1\n      0x20\n      add\n      dup1\n      dup4\n      gt\n      tag_81\n      jumpi\n      dup3\n      swap1\n      sub\n      0x1f\n      and\n      dup3\n      add\n      swap2\n    tag_79:\n      pop\n      pop\n      pop\n      pop\n      pop\n      dup2\n      mstore\n      pop\n      pop\n      dup2\n      mstore\n      0x20\n      add\n      swap1\n      0x01\n      add\n      swap1\n      jump(tag_68)\n    tag_69:\n      pop\n      pop\n      pop\n      pop\n      swap2\n      pop\n        /* \"contracts/Traceability.sol\":5057:5255  function getProductMovementHistory(uint256 _productId)... */\n      pop\n      swap2\n      swap1\n      pop\n      jump\t// out\n        /* \"contracts/Traceability.sol\":5502:5779  function verifyProductAuthenticity(uint256 _productId)... */\n    tag_26:\n        /* \"contracts/Traceability.sol\":5620:5634  address origin */\n      0x00\n        /* \"contracts/Traceability.sol\":5636:5656  uint256 creationDate */\n      dup1\n        /* \"contracts/Traceability.sol\":5599:5609  _productId */\n      dup3\n        /* \"contracts/Traceability.sol\":2122:2130  products */\n      0x01\n        /* \"contracts/Traceability.sol\":2122:2142  products[_productId] */\n      0x00\n        /* \"contracts/Traceability.sol\":2131:2141  _productId */\n      dup3\n        /* \"contracts/Traceability.sol\":2122:2142  products[_productId] */\n      dup2\n      mstore\n      0x20\n      add\n      swap1\n      dup2\n      mstore\n      0x20\n      add\n      0x00\n      keccak256\n        /* \"contracts/Traceability.sol\":2122:2155  products[_productId].isRegistered */\n      0x01\n      add\n      0x00\n      swap1\n      sload\n      swap1\n      0x0100\n      exp\n      swap1\n      div\n      0xff\n      and\n        /* \"contracts/Traceability.sol\":2114:2195  require(products[_productId].isRegistered, \"Query Error: Product not registered\") */\n      tag_83\n      jumpi\n      mload(0x40)\n      0x08c379a000000000000000000000000000000000000000000000000000000000\n      dup2\n      mstore\n      0x04\n      add\n      tag_84\n      swap1\n      tag_52\n      jump\t// in\n    tag_84:\n      mload(0x40)\n      dup1\n      swap2\n      sub\n      swap1\n      revert\n    tag_83:\n        /* \"contracts/Traceability.sol\":5672:5694  Product memory product */\n      0x00\n        /* \"contracts/Traceability.sol\":5697:5705  products */\n      0x01\n        /* \"contracts/Traceability.sol\":5697:5717  products[_productId] */\n      0x00\n        /* \"contracts/Traceability.sol\":5706:5716  _productId */\n      dup7\n        /* \"contracts/Traceability.sol\":5697:5717  products[_productId] */\n      dup2\n      mstore\n      0x20\n      add\n      swap1\n      dup2\n      mstore\n      0x20\n      add\n      0x00\n      keccak256\n        /* \"contracts/Traceability.sol\":5672:5717  Product memory product = products[_productId] */\n      mload(0x40)\n      dup1\n      0x80\n      add\n      0x40\n      mstore\n      swap1\n      dup2\n      0x00\n      dup3\n      add\n      sload\n      dup2\n      mstore\n      0x20\n      add\n      0x01\n      dup3\n      add\n      0x00\n      swap1\n      sload\n      swap1\n      0x0100\n      exp\n      swap1\n      div\n      0xff\n      and\n      iszero\n      iszero\n      iszero\n      iszero\n      dup2\n      mstore\n      0x20\n      add\n      0x01\n      dup3\n      add\n      0x01\n      swap1\n      sload\n      swap1\n      0x0100\n      exp\n      swap1\n      div\n      0xffffffffffffffffffffffffffffffffffffffff\n      and\n      0xffffffffffffffffffffffffffffffffffffffff\n      and\n      0xffffffffffffffffffffffffffffffffffffffff\n      and\n      dup2\n      mstore\n      0x20\n      add\n      0x02\n      dup3\n      add\n      sload\n      dup2\n      mstore\n      pop\n      pop\n      swap1\n      pop\n        /* \"contracts/Traceability.sol\":5735:5742  product */\n      dup1\n        /* \"contracts/Traceability.sol\":5735:5749  product.origin */\n      0x40\n      add\n      mload\n        /* \"contracts/Traceability.sol\":5751:5758  product */\n      dup2\n        /* \"contracts/Traceability.sol\":5751:5771  product.creationDate */\n      0x60\n      add\n      mload\n        /* \"contracts/Traceability.sol\":5727:5772  return (product.origin, product.creationDate) */\n      swap4\n      pop\n      swap4\n      pop\n      pop\n        /* \"contracts/Traceability.sol\":5502:5779  function verifyProductAuthenticity(uint256 _productId)... */\n      pop\n      swap2\n      pop\n      swap2\n      jump\t// out\n        /* \"contracts/Traceability.sol\":3094:3349  function removeManager(address _manager) external onlyApprovedManager whenNotPaused {... */\n    tag_32:\n        /* \"contracts/Traceability.sol\":1908:1924  approvedManagers */\n      0x02\n        /* \"contracts/Traceability.sol\":1908:1936  approvedManagers[msg.sender] */\n      0x00\n        /* \"contracts/Traceability.sol\":1925:1935  msg.sender */\n      caller\n        /* \"contracts/Traceability.sol\":1908:1936  approvedManagers[msg.sender] */\n      0xffffffffffffffffffffffffffffffffffffffff\n      and\n      0xffffffffffffffffffffffffffffffffffffffff\n      and\n      dup2\n      mstore\n      0x20\n      add\n      swap1\n      dup2\n      mstore\n      0x20\n      add\n      0x00\n      keccak256\n      0x00\n      swap1\n      sload\n      swap1\n      0x0100\n      exp\n      swap1\n      div\n      0xff\n      and\n        /* \"contracts/Traceability.sol\":1900:1981  require(approvedManagers[msg.sender], \"Access Denied: Not an authorized manager\") */\n      tag_87\n      jumpi\n      mload(0x40)\n      0x08c379a000000000000000000000000000000000000000000000000000000000\n      dup2\n      mstore\n      0x04\n      add\n      tag_88\n      swap1\n      tag_44\n      jump\t// in\n    tag_88:\n      mload(0x40)\n      dup1\n      swap2\n      sub\n      swap1\n      revert\n    tag_87:\n        /* \"contracts/Traceability.sol\":2316:2322  paused */\n      0x03\n      0x00\n      swap1\n      sload\n      swap1\n      0x0100\n      exp\n      swap1\n      div\n      0xff\n      and\n        /* \"contracts/Traceability.sol\":2315:2322  !paused */\n      iszero\n        /* \"contracts/Traceability.sol\":2307:2362  require(!paused, \"Operation Error: Contract is paused\") */\n      tag_90\n      jumpi\n      mload(0x40)\n      0x08c379a000000000000000000000000000000000000000000000000000000000\n      dup2\n      mstore\n      0x04\n      add\n      tag_91\n      swap1\n      tag_56\n      jump\t// in\n    tag_91:\n      mload(0x40)\n      dup1\n      swap2\n      sub\n      swap1\n      revert\n    tag_90:\n        /* \"contracts/Traceability.sol\":3196:3212  approvedManagers */\n      0x02\n        /* \"contracts/Traceability.sol\":3196:3222  approvedManagers[_manager] */\n      0x00\n        /* \"contracts/Traceability.sol\":3213:3221  _manager */\n      dup3\n        /* \"contracts/Traceability.sol\":3196:3222  approvedManagers[_manager] */\n      0xffffffffffffffffffffffffffffffffffffffff\n      and\n      0xffffffffffffffffffffffffffffffffffffffff\n      and\n      dup2\n      mstore\n      0x20\n      add\n      swap1\n      dup2\n      mstore\n      0x20\n      add\n      0x00\n      keccak256\n      0x00\n      swap1\n      sload\n      swap1\n      0x0100\n      exp\n      swap1\n      div\n      0xff\n      and\n        /* \"contracts/Traceability.sol\":3188:3259  require(approvedManagers[_manager], \"Removal Error: Manager not found\") */\n      tag_93\n      jumpi\n      mload(0x40)\n      0x08c379a000000000000000000000000000000000000000000000000000000000\n      dup2\n      mstore\n      0x04\n      add\n      tag_94\n      swap1\n      tag_95\n      jump\t// in\n    tag_94:\n      mload(0x40)\n      dup1\n      swap2\n      sub\n      swap1\n      revert\n    tag_93:\n        /* \"contracts/Traceability.sol\":3298:3303  false */\n      0x00\n        /* \"contracts/Traceability.sol\":3269:3285  approvedManagers */\n      0x02\n        /* \"contracts/Traceability.sol\":3269:3295  approvedManagers[_manager] */\n      0x00\n        /* \"contracts/Traceability.sol\":3286:3294  _manager */\n      dup4\n        /* \"contracts/Traceability.sol\":3269:3295  approvedManagers[_manager] */\n      0xffffffffffffffffffffffffffffffffffffffff\n      and\n      0xffffffffffffffffffffffffffffffffffffffff\n      and\n      dup2\n      mstore\n      0x20\n      add\n      swap1\n      dup2\n      mstore\n      0x20\n      add\n      0x00\n      keccak256\n      0x00\n        /* \"contracts/Traceability.sol\":3269:3303  approvedManagers[_manager] = false */\n      0x0100\n      exp\n      dup2\n      sload\n      dup2\n      0xff\n      mul\n      not\n      and\n      swap1\n      dup4\n      iszero\n      iszero\n      mul\n      or\n      swap1\n      sstore\n      pop\n        /* \"contracts/Traceability.sol\":3333:3341  _manager */\n      dup1\n        /* \"contracts/Traceability.sol\":3318:3342  ManagerRemoved(_manager) */\n      0xffffffffffffffffffffffffffffffffffffffff\n      and\n      0xef69f7d97228658c92417be1b16b19058315de71fecb435d07b7d23728b6bd31\n      mload(0x40)\n      mload(0x40)\n      dup1\n      swap2\n      sub\n      swap1\n      log2\n        /* \"contracts/Traceability.sol\":3094:3349  function removeManager(address _manager) external onlyApprovedManager whenNotPaused {... */\n      pop\n      jump\t// out\n        /* \"contracts/Traceability.sol\":5998:6085  function unpauseContract() external onlyApprovedManager {... */\n    tag_34:\n        /* \"contracts/Traceability.sol\":1908:1924  approvedManagers */\n      0x02\n        /* \"contracts/Traceability.sol\":1908:1936  approvedManagers[msg.sender] */\n      0x00\n        /* \"contracts/Traceability.sol\":1925:1935  msg.sender */\n      caller\n        /* \"contracts/Traceability.sol\":1908:1936  approvedManagers[msg.sender] */\n      0xffffffffffffffffffffffffffffffffffffffff\n      and\n      0xffffffffffffffffffffffffffffffffffffffff\n      and\n      dup2\n      mstore\n      0x20\n      add\n      swap1\n      dup2\n      mstore\n      0x20\n      add\n      0x00\n      keccak256\n      0x00\n      swap1\n      sload\n      swap1\n      0x0100\n      exp\n      swap1\n      div\n      0xff\n      and\n        /* \"contracts/Traceability.sol\":1900:1981  require(approvedManagers[msg.sender], \"Access Denied: Not an authorized manager\") */\n      tag_97\n      jumpi\n      mload(0x40)\n      0x08c379a000000000000000000000000000000000000000000000000000000000\n      dup2\n      mstore\n      0x04\n      add\n      tag_98\n      swap1\n      tag_44\n      jump\t// in\n    tag_98:\n      mload(0x40)\n      dup1\n      swap2\n      sub\n      swap1\n      revert\n    tag_97:\n        /* \"contracts/Traceability.sol\":6073:6078  false */\n      0x00\n        /* \"contracts/Traceability.sol\":6064:6070  paused */\n      0x03\n      0x00\n        /* \"contracts/Traceability.sol\":6064:6078  paused = false */\n      0x0100\n      exp\n      dup2\n      sload\n      dup2\n      0xff\n      mul\n      not\n      and\n      swap1\n      dup4\n      iszero\n      iszero\n      mul\n      or\n      swap1\n      sstore\n      pop\n        /* \"contracts/Traceability.sol\":5998:6085  function unpauseContract() external onlyApprovedManager {... */\n      jump\t// out\n        /* \"contracts/Traceability.sol\":2707:2972  function approveManager(address _manager) external onlyApprovedManager whenNotPaused {... */\n    tag_37:\n        /* \"contracts/Traceability.sol\":1908:1924  approvedManagers */\n      0x02\n        /* \"contracts/Traceability.sol\":1908:1936  approvedManagers[msg.sender] */\n      0x00\n        /* \"contracts/Traceability.sol\":1925:1935  msg.sender */\n      caller\n        /* \"contracts/Traceability.sol\":1908:1936  approvedManagers[msg.sender] */\n      0xffffffffffffffffffffffffffffffffffffffff\n      and\n      0xffffffffffffffffffffffffffffffffffffffff\n      and\n      dup2\n      mstore\n      0x20\n      add\n      swap1\n      dup2\n      mstore\n      0x20\n      add\n      0x00\n      keccak256\n      0x00\n      swap1\n      sload\n      swap1\n      0x0100\n      exp\n      swap1\n      div\n      0xff\n      and\n        /* \"contracts/Traceability.sol\":1900:1981  require(approvedManagers[msg.sender], \"Access Denied: Not an authorized manager\") */\n      tag_101\n      jumpi\n      mload(0x40)\n      0x08c379a000000000000000000000000000000000000000000000000000000000\n      dup2\n      mstore\n      0x04\n      add\n      tag_102\n      swap1\n      tag_44\n      jump\t// in\n    tag_102:\n      mload(0x40)\n      dup1\n      swap2\n      sub\n      swap1\n      revert\n    tag_101:\n        /* \"contracts/Traceability.sol\":2316:2322  paused */\n      0x03\n      0x00\n      swap1\n      sload\n      swap1\n      0x0100\n      exp\n      swap1\n      div\n      0xff\n      and\n        /* \"contracts/Traceability.sol\":2315:2322  !paused */\n      iszero\n        /* \"contracts/Traceability.sol\":2307:2362  require(!paused, \"Operation Error: Contract is paused\") */\n      tag_104\n      jumpi\n      mload(0x40)\n      0x08c379a000000000000000000000000000000000000000000000000000000000\n      dup2\n      mstore\n      0x04\n      add\n      tag_105\n      swap1\n      tag_56\n      jump\t// in\n    tag_105:\n      mload(0x40)\n      dup1\n      swap2\n      sub\n      swap1\n      revert\n    tag_104:\n        /* \"contracts/Traceability.sol\":2811:2827  approvedManagers */\n      0x02\n        /* \"contracts/Traceability.sol\":2811:2837  approvedManagers[_manager] */\n      0x00\n        /* \"contracts/Traceability.sol\":2828:2836  _manager */\n      dup3\n        /* \"contracts/Traceability.sol\":2811:2837  approvedManagers[_manager] */\n      0xffffffffffffffffffffffffffffffffffffffff\n      and\n      0xffffffffffffffffffffffffffffffffffffffff\n      and\n      dup2\n      mstore\n      0x20\n      add\n      swap1\n      dup2\n      mstore\n      0x20\n      add\n      0x00\n      keccak256\n      0x00\n      swap1\n      sload\n      swap1\n      0x0100\n      exp\n      swap1\n      div\n      0xff\n      and\n        /* \"contracts/Traceability.sol\":2810:2837  !approvedManagers[_manager] */\n      iszero\n        /* \"contracts/Traceability.sol\":2802:2882  require(!approvedManagers[_manager], \"Approval Error: Manager already approved\") */\n      tag_107\n      jumpi\n      mload(0x40)\n      0x08c379a000000000000000000000000000000000000000000000000000000000\n      dup2\n      mstore\n      0x04\n      add\n      tag_108\n      swap1\n      tag_109\n      jump\t// in\n    tag_108:\n      mload(0x40)\n      dup1\n      swap2\n      sub\n      swap1\n      revert\n    tag_107:\n        /* \"contracts/Traceability.sol\":2921:2925  true */\n      0x01\n        /* \"contracts/Traceability.sol\":2892:2908  approvedManagers */\n      0x02\n        /* \"contracts/Traceability.sol\":2892:2918  approvedManagers[_manager] */\n      0x00\n        /* \"contracts/Traceability.sol\":2909:2917  _manager */\n      dup4\n        /* \"contracts/Traceability.sol\":2892:2918  approvedManagers[_manager] */\n      0xffffffffffffffffffffffffffffffffffffffff\n      and\n      0xffffffffffffffffffffffffffffffffffffffff\n      and\n      dup2\n      mstore\n      0x20\n      add\n      swap1\n      dup2\n      mstore\n      0x20\n      add\n      0x00\n      keccak256\n      0x00\n        /* \"contracts/Traceability.sol\":2892:2925  approvedManagers[_manager] = true */\n      0x0100\n      exp\n      dup2\n      sload\n      dup2\n      0xff\n      mul\n      not\n      and\n      swap1\n      dup4\n      iszero\n      iszero\n      mul\n      or\n      swap1\n      sstore\n      pop\n        /* \"contracts/Traceability.sol\":2956:2964  _manager */\n      dup1\n        /* \"contracts/Traceability.sol\":2940:2965  ManagerApproved(_manager) */\n      0xffffffffffffffffffffffffffffffffffffffff\n      and\n      0x450ad6a6ac3c2e8b8a02820cb64d6102a1f91ebe1fa3848a0cfc45c870c043af\n      mload(0x40)\n      mload(0x40)\n      dup1\n      swap2\n      sub\n      swap1\n      log2\n        /* \"contracts/Traceability.sol\":2707:2972  function approveManager(address _manager) external onlyApprovedManager whenNotPaused {... */\n      pop\n      jump\t// out\n        /* \"contracts/Traceability.sol\":3475:3816  function registerProduct(uint256 _productId) external onlyApprovedManager whenNotPaused {... */\n    tag_40:\n        /* \"contracts/Traceability.sol\":1908:1924  approvedManagers */\n      0x02\n        /* \"contracts/Traceability.sol\":1908:1936  approvedManagers[msg.sender] */\n      0x00\n        /* \"contracts/Traceability.sol\":1925:1935  msg.sender */\n      caller\n        /* \"contracts/Traceability.sol\":1908:1936  approvedManagers[msg.sender] */\n      0xffffffffffffffffffffffffffffffffffffffff\n      and\n      0xffffffffffffffffffffffffffffffffffffffff\n      and\n      dup2\n      mstore\n      0x20\n      add\n      swap1\n      dup2\n      mstore\n      0x20\n      add\n      0x00\n      keccak256\n      0x00\n      swap1\n      sload\n      swap1\n      0x0100\n      exp\n      swap1\n      div\n      0xff\n      and\n        /* \"contracts/Traceability.sol\":1900:1981  require(approvedManagers[msg.sender], \"Access Denied: Not an authorized manager\") */\n      tag_111\n      jumpi\n      mload(0x40)\n      0x08c379a000000000000000000000000000000000000000000000000000000000\n      dup2\n      mstore\n      0x04\n      add\n      tag_112\n      swap1\n      tag_44\n      jump\t// in\n    tag_112:\n      mload(0x40)\n      dup1\n      swap2\n      sub\n      swap1\n      revert\n    tag_111:\n        /* \"contracts/Traceability.sol\":2316:2322  paused */\n      0x03\n      0x00\n      swap1\n      sload\n      swap1\n      0x0100\n      exp\n      swap1\n      div\n      0xff\n      and\n        /* \"contracts/Traceability.sol\":2315:2322  !paused */\n      iszero\n        /* \"contracts/Traceability.sol\":2307:2362  require(!paused, \"Operation Error: Contract is paused\") */\n      tag_114\n      jumpi\n      mload(0x40)\n      0x08c379a000000000000000000000000000000000000000000000000000000000\n      dup2\n      mstore\n      0x04\n      add\n      tag_115\n      swap1\n      tag_56\n      jump\t// in\n    tag_115:\n      mload(0x40)\n      dup1\n      swap2\n      sub\n      swap1\n      revert\n    tag_114:\n        /* \"contracts/Traceability.sol\":3582:3590  products */\n      0x01\n        /* \"contracts/Traceability.sol\":3582:3602  products[_productId] */\n      0x00\n        /* \"contracts/Traceability.sol\":3591:3601  _productId */\n      dup3\n        /* \"contracts/Traceability.sol\":3582:3602  products[_productId] */\n      dup2\n      mstore\n      0x20\n      add\n      swap1\n      dup2\n      mstore\n      0x20\n      add\n      0x00\n      keccak256\n        /* \"contracts/Traceability.sol\":3582:3615  products[_productId].isRegistered */\n      0x01\n      add\n      0x00\n      swap1\n      sload\n      swap1\n      0x0100\n      exp\n      swap1\n      div\n      0xff\n      and\n        /* \"contracts/Traceability.sol\":3581:3615  !products[_productId].isRegistered */\n      iszero\n        /* \"contracts/Traceability.sol\":3573:3666  require(!products[_productId].isRegistered, \"Registration Error: Product already registered\") */\n      tag_117\n      jumpi\n      mload(0x40)\n      0x08c379a000000000000000000000000000000000000000000000000000000000\n      dup2\n      mstore\n      0x04\n      add\n      tag_118\n      swap1\n      tag_119\n      jump\t// in\n    tag_118:\n      mload(0x40)\n      dup1\n      swap2\n      sub\n      swap1\n      revert\n    tag_117:\n        /* \"contracts/Traceability.sol\":3699:3753  Product(_productId, true, msg.sender, block.timestamp) */\n      mload(0x40)\n      dup1\n      0x80\n      add\n      0x40\n      mstore\n      dup1\n        /* \"contracts/Traceability.sol\":3707:3717  _productId */\n      dup3\n        /* \"contracts/Traceability.sol\":3699:3753  Product(_productId, true, msg.sender, block.timestamp) */\n      dup2\n      mstore\n      0x20\n      add\n        /* \"contracts/Traceability.sol\":3719:3723  true */\n      0x01\n        /* \"contracts/Traceability.sol\":3699:3753  Product(_productId, true, msg.sender, block.timestamp) */\n      iszero\n      iszero\n      dup2\n      mstore\n      0x20\n      add\n        /* \"contracts/Traceability.sol\":3725:3735  msg.sender */\n      caller\n        /* \"contracts/Traceability.sol\":3699:3753  Product(_productId, true, msg.sender, block.timestamp) */\n      0xffffffffffffffffffffffffffffffffffffffff\n      and\n      dup2\n      mstore\n      0x20\n      add\n        /* \"contracts/Traceability.sol\":3737:3752  block.timestamp */\n      timestamp\n        /* \"contracts/Traceability.sol\":3699:3753  Product(_productId, true, msg.sender, block.timestamp) */\n      dup2\n      mstore\n      pop\n        /* \"contracts/Traceability.sol\":3676:3684  products */\n      0x01\n        /* \"contracts/Traceability.sol\":3676:3696  products[_productId] */\n      0x00\n        /* \"contracts/Traceability.sol\":3685:3695  _productId */\n      dup4\n        /* \"contracts/Traceability.sol\":3676:3696  products[_productId] */\n      dup2\n      mstore\n      0x20\n      add\n      swap1\n      dup2\n      mstore\n      0x20\n      add\n      0x00\n      keccak256\n        /* \"contracts/Traceability.sol\":3676:3753  products[_productId] = Product(_productId, true, msg.sender, block.timestamp) */\n      0x00\n      dup3\n      add\n      mload\n      dup2\n      0x00\n      add\n      sstore\n      0x20\n      dup3\n      add\n      mload\n      dup2\n      0x01\n      add\n      exp(0x0100, 0x00)\n      dup2\n      sload\n      dup2\n      0xff\n      mul\n      not\n      and\n      swap1\n      dup4\n      iszero\n      iszero\n      mul\n      or\n      swap1\n      sstore\n      pop\n      0x40\n      dup3\n      add\n      mload\n      dup2\n      0x01\n      add\n      exp(0x0100, 0x01)\n      dup2\n      sload\n      dup2\n      0xffffffffffffffffffffffffffffffffffffffff\n      mul\n      not\n      and\n      swap1\n      dup4\n      0xffffffffffffffffffffffffffffffffffffffff\n      and\n      mul\n      or\n      swap1\n      sstore\n      pop\n      0x60\n      dup3\n      add\n      mload\n      dup2\n      0x02\n      add\n      sstore\n      swap1\n      pop\n      pop\n        /* \"contracts/Traceability.sol\":3798:3808  msg.sender */\n      caller\n        /* \"contracts/Traceability.sol\":3768:3809  ProductRegistered(_productId, msg.sender) */\n      0xffffffffffffffffffffffffffffffffffffffff\n      and\n        /* \"contracts/Traceability.sol\":3786:3796  _productId */\n      dup2\n        /* \"contracts/Traceability.sol\":3768:3809  ProductRegistered(_productId, msg.sender) */\n      0x73e014c0a076665d9511a27e878fadccb6d7171f5754ba1167a670023760b015\n      mload(0x40)\n      mload(0x40)\n      dup1\n      swap2\n      sub\n      swap1\n      log3\n        /* \"contracts/Traceability.sol\":3475:3816  function registerProduct(uint256 _productId) external onlyApprovedManager whenNotPaused {... */\n      pop\n      jump\t// out\n        /* \"#utility.yul\":88:205   */\n    tag_121:\n        /* \"#utility.yul\":197:198   */\n      0x00\n        /* \"#utility.yul\":194:195   */\n      dup1\n        /* \"#utility.yul\":187:199   */\n      revert\n        /* \"#utility.yul\":211:328   */\n    tag_122:\n        /* \"#utility.yul\":320:321   */\n      0x00\n        /* \"#utility.yul\":317:318   */\n      dup1\n        /* \"#utility.yul\":310:322   */\n      revert\n        /* \"#utility.yul\":334:411   */\n    tag_123:\n        /* \"#utility.yul\":371:378   */\n      0x00\n        /* \"#utility.yul\":400:405   */\n      dup2\n        /* \"#utility.yul\":389:405   */\n      swap1\n      pop\n        /* \"#utility.yul\":334:411   */\n      swap2\n      swap1\n      pop\n      jump\t// out\n        /* \"#utility.yul\":417:539   */\n    tag_124:\n        /* \"#utility.yul\":490:514   */\n      tag_188\n        /* \"#utility.yul\":508:513   */\n      dup2\n        /* \"#utility.yul\":490:514   */\n      tag_123\n      jump\t// in\n    tag_188:\n        /* \"#utility.yul\":483:488   */\n      dup2\n        /* \"#utility.yul\":480:515   */\n      eq\n        /* \"#utility.yul\":470:533   */\n      tag_189\n      jumpi\n        /* \"#utility.yul\":529:530   */\n      0x00\n        /* \"#utility.yul\":526:527   */\n      dup1\n        /* \"#utility.yul\":519:531   */\n      revert\n        /* \"#utility.yul\":470:533   */\n    tag_189:\n        /* \"#utility.yul\":417:539   */\n      pop\n      jump\t// out\n        /* \"#utility.yul\":545:684   */\n    tag_125:\n        /* \"#utility.yul\":591:596   */\n      0x00\n        /* \"#utility.yul\":629:635   */\n      dup2\n        /* \"#utility.yul\":616:636   */\n      calldataload\n        /* \"#utility.yul\":607:636   */\n      swap1\n      pop\n        /* \"#utility.yul\":645:678   */\n      tag_191\n        /* \"#utility.yul\":672:677   */\n      dup2\n        /* \"#utility.yul\":645:678   */\n      tag_124\n      jump\t// in\n    tag_191:\n        /* \"#utility.yul\":545:684   */\n      swap3\n      swap2\n      pop\n      pop\n      jump\t// out\n        /* \"#utility.yul\":690:807   */\n    tag_126:\n        /* \"#utility.yul\":799:800   */\n      0x00\n        /* \"#utility.yul\":796:797   */\n      dup1\n        /* \"#utility.yul\":789:801   */\n      revert\n        /* \"#utility.yul\":813:930   */\n    tag_127:\n        /* \"#utility.yul\":922:923   */\n      0x00\n        /* \"#utility.yul\":919:920   */\n      dup1\n        /* \"#utility.yul\":912:924   */\n      revert\n        /* \"#utility.yul\":936:1053   */\n    tag_128:\n        /* \"#utility.yul\":1045:1046   */\n      0x00\n        /* \"#utility.yul\":1042:1043   */\n      dup1\n        /* \"#utility.yul\":1035:1047   */\n      revert\n        /* \"#utility.yul\":1073:1626   */\n    tag_129:\n        /* \"#utility.yul\":1131:1139   */\n      0x00\n        /* \"#utility.yul\":1141:1147   */\n      dup1\n        /* \"#utility.yul\":1191:1194   */\n      dup4\n        /* \"#utility.yul\":1184:1188   */\n      0x1f\n        /* \"#utility.yul\":1176:1182   */\n      dup5\n        /* \"#utility.yul\":1172:1189   */\n      add\n        /* \"#utility.yul\":1168:1195   */\n      slt\n        /* \"#utility.yul\":1158:1280   */\n      tag_196\n      jumpi\n        /* \"#utility.yul\":1199:1278   */\n      tag_197\n      tag_126\n      jump\t// in\n    tag_197:\n        /* \"#utility.yul\":1158:1280   */\n    tag_196:\n        /* \"#utility.yul\":1312:1318   */\n      dup3\n        /* \"#utility.yul\":1299:1319   */\n      calldataload\n        /* \"#utility.yul\":1289:1319   */\n      swap1\n      pop\n        /* \"#utility.yul\":1342:1360   */\n      0xffffffffffffffff\n        /* \"#utility.yul\":1334:1340   */\n      dup2\n        /* \"#utility.yul\":1331:1361   */\n      gt\n        /* \"#utility.yul\":1328:1445   */\n      iszero\n      tag_198\n      jumpi\n        /* \"#utility.yul\":1364:1443   */\n      tag_199\n      tag_127\n      jump\t// in\n    tag_199:\n        /* \"#utility.yul\":1328:1445   */\n    tag_198:\n        /* \"#utility.yul\":1478:1482   */\n      0x20\n        /* \"#utility.yul\":1470:1476   */\n      dup4\n        /* \"#utility.yul\":1466:1483   */\n      add\n        /* \"#utility.yul\":1454:1483   */\n      swap2\n      pop\n        /* \"#utility.yul\":1532:1535   */\n      dup4\n        /* \"#utility.yul\":1524:1528   */\n      0x01\n        /* \"#utility.yul\":1516:1522   */\n      dup3\n        /* \"#utility.yul\":1512:1529   */\n      mul\n        /* \"#utility.yul\":1502:1510   */\n      dup4\n        /* \"#utility.yul\":1498:1530   */\n      add\n        /* \"#utility.yul\":1495:1536   */\n      gt\n        /* \"#utility.yul\":1492:1620   */\n      iszero\n      tag_200\n      jumpi\n        /* \"#utility.yul\":1539:1618   */\n      tag_201\n      tag_128\n      jump\t// in\n    tag_201:\n        /* \"#utility.yul\":1492:1620   */\n    tag_200:\n        /* \"#utility.yul\":1073:1626   */\n      swap3\n      pop\n      swap3\n      swap1\n      pop\n      jump\t// out\n        /* \"#utility.yul\":1632:1758   */\n    tag_130:\n        /* \"#utility.yul\":1669:1676   */\n      0x00\n        /* \"#utility.yul\":1709:1751   */\n      0xffffffffffffffffffffffffffffffffffffffff\n        /* \"#utility.yul\":1702:1707   */\n      dup3\n        /* \"#utility.yul\":1698:1752   */\n      and\n        /* \"#utility.yul\":1687:1752   */\n      swap1\n      pop\n        /* \"#utility.yul\":1632:1758   */\n      swap2\n      swap1\n      pop\n      jump\t// out\n        /* \"#utility.yul\":1764:1860   */\n    tag_131:\n        /* \"#utility.yul\":1801:1808   */\n      0x00\n        /* \"#utility.yul\":1830:1854   */\n      tag_204\n        /* \"#utility.yul\":1848:1853   */\n      dup3\n        /* \"#utility.yul\":1830:1854   */\n      tag_130\n      jump\t// in\n    tag_204:\n        /* \"#utility.yul\":1819:1854   */\n      swap1\n      pop\n        /* \"#utility.yul\":1764:1860   */\n      swap2\n      swap1\n      pop\n      jump\t// out\n        /* \"#utility.yul\":1866:1988   */\n    tag_132:\n        /* \"#utility.yul\":1939:1963   */\n      tag_206\n        /* \"#utility.yul\":1957:1962   */\n      dup2\n        /* \"#utility.yul\":1939:1963   */\n      tag_131\n      jump\t// in\n    tag_206:\n        /* \"#utility.yul\":1932:1937   */\n      dup2\n        /* \"#utility.yul\":1929:1964   */\n      eq\n        /* \"#utility.yul\":1919:1982   */\n      tag_207\n      jumpi\n        /* \"#utility.yul\":1978:1979   */\n      0x00\n        /* \"#utility.yul\":1975:1976   */\n      dup1\n        /* \"#utility.yul\":1968:1980   */\n      revert\n        /* \"#utility.yul\":1919:1982   */\n    tag_207:\n        /* \"#utility.yul\":1866:1988   */\n      pop\n      jump\t// out\n        /* \"#utility.yul\":1994:2133   */\n    tag_133:\n        /* \"#utility.yul\":2040:2045   */\n      0x00\n        /* \"#utility.yul\":2078:2084   */\n      dup2\n        /* \"#utility.yul\":2065:2085   */\n      calldataload\n        /* \"#utility.yul\":2056:2085   */\n      swap1\n      pop\n        /* \"#utility.yul\":2094:2127   */\n      tag_209\n        /* \"#utility.yul\":2121:2126   */\n      dup2\n        /* \"#utility.yul\":2094:2127   */\n      tag_132\n      jump\t// in\n    tag_209:\n        /* \"#utility.yul\":1994:2133   */\n      swap3\n      swap2\n      pop\n      pop\n      jump\t// out\n        /* \"#utility.yul\":2139:3304   */\n    tag_16:\n        /* \"#utility.yul\":2249:2255   */\n      0x00\n        /* \"#utility.yul\":2257:2263   */\n      dup1\n        /* \"#utility.yul\":2265:2271   */\n      0x00\n        /* \"#utility.yul\":2273:2279   */\n      dup1\n        /* \"#utility.yul\":2281:2287   */\n      0x00\n        /* \"#utility.yul\":2289:2295   */\n      dup1\n        /* \"#utility.yul\":2338:2341   */\n      0x80\n        /* \"#utility.yul\":2326:2335   */\n      dup8\n        /* \"#utility.yul\":2317:2324   */\n      dup10\n        /* \"#utility.yul\":2313:2336   */\n      sub\n        /* \"#utility.yul\":2309:2342   */\n      slt\n        /* \"#utility.yul\":2306:2426   */\n      iszero\n      tag_211\n      jumpi\n        /* \"#utility.yul\":2345:2424   */\n      tag_212\n      tag_121\n      jump\t// in\n    tag_212:\n        /* \"#utility.yul\":2306:2426   */\n    tag_211:\n        /* \"#utility.yul\":2465:2466   */\n      0x00\n        /* \"#utility.yul\":2490:2543   */\n      tag_213\n        /* \"#utility.yul\":2535:2542   */\n      dup10\n        /* \"#utility.yul\":2526:2532   */\n      dup3\n        /* \"#utility.yul\":2515:2524   */\n      dup11\n        /* \"#utility.yul\":2511:2533   */\n      add\n        /* \"#utility.yul\":2490:2543   */\n      tag_125\n      jump\t// in\n    tag_213:\n        /* \"#utility.yul\":2480:2543   */\n      swap7\n      pop\n        /* \"#utility.yul\":2436:2553   */\n      pop\n        /* \"#utility.yul\":2620:2622   */\n      0x20\n        /* \"#utility.yul\":2609:2618   */\n      dup8\n        /* \"#utility.yul\":2605:2623   */\n      add\n        /* \"#utility.yul\":2592:2624   */\n      calldataload\n        /* \"#utility.yul\":2651:2669   */\n      0xffffffffffffffff\n        /* \"#utility.yul\":2643:2649   */\n      dup2\n        /* \"#utility.yul\":2640:2670   */\n      gt\n        /* \"#utility.yul\":2637:2754   */\n      iszero\n      tag_214\n      jumpi\n        /* \"#utility.yul\":2673:2752   */\n      tag_215\n      tag_122\n      jump\t// in\n    tag_215:\n        /* \"#utility.yul\":2637:2754   */\n    tag_214:\n        /* \"#utility.yul\":2786:2851   */\n      tag_216\n        /* \"#utility.yul\":2843:2850   */\n      dup10\n        /* \"#utility.yul\":2834:2840   */\n      dup3\n        /* \"#utility.yul\":2823:2832   */\n      dup11\n        /* \"#utility.yul\":2819:2841   */\n      add\n        /* \"#utility.yul\":2786:2851   */\n      tag_129\n      jump\t// in\n    tag_216:\n        /* \"#utility.yul\":2768:2851   */\n      swap6\n      pop\n      swap6\n      pop\n        /* \"#utility.yul\":2563:2861   */\n      pop\n        /* \"#utility.yul\":2900:2902   */\n      0x40\n        /* \"#utility.yul\":2926:2979   */\n      tag_217\n        /* \"#utility.yul\":2971:2978   */\n      dup10\n        /* \"#utility.yul\":2962:2968   */\n      dup3\n        /* \"#utility.yul\":2951:2960   */\n      dup11\n        /* \"#utility.yul\":2947:2969   */\n      add\n        /* \"#utility.yul\":2926:2979   */\n      tag_133\n      jump\t// in\n    tag_217:\n        /* \"#utility.yul\":2916:2979   */\n      swap4\n      pop\n        /* \"#utility.yul\":2871:2989   */\n      pop\n        /* \"#utility.yul\":3056:3058   */\n      0x60\n        /* \"#utility.yul\":3045:3054   */\n      dup8\n        /* \"#utility.yul\":3041:3059   */\n      add\n        /* \"#utility.yul\":3028:3060   */\n      calldataload\n        /* \"#utility.yul\":3087:3105   */\n      0xffffffffffffffff\n        /* \"#utility.yul\":3079:3085   */\n      dup2\n        /* \"#utility.yul\":3076:3106   */\n      gt\n        /* \"#utility.yul\":3073:3190   */\n      iszero\n      tag_218\n      jumpi\n        /* \"#utility.yul\":3109:3188   */\n      tag_219\n      tag_122\n      jump\t// in\n    tag_219:\n        /* \"#utility.yul\":3073:3190   */\n    tag_218:\n        /* \"#utility.yul\":3222:3287   */\n      tag_220\n        /* \"#utility.yul\":3279:3286   */\n      dup10\n        /* \"#utility.yul\":3270:3276   */\n      dup3\n        /* \"#utility.yul\":3259:3268   */\n      dup11\n        /* \"#utility.yul\":3255:3277   */\n      add\n        /* \"#utility.yul\":3222:3287   */\n      tag_129\n      jump\t// in\n    tag_220:\n        /* \"#utility.yul\":3204:3287   */\n      swap3\n      pop\n      swap3\n      pop\n        /* \"#utility.yul\":2999:3297   */\n      pop\n        /* \"#utility.yul\":2139:3304   */\n      swap3\n      swap6\n      pop\n      swap3\n      swap6\n      pop\n      swap3\n      swap6\n      jump\t// out\n        /* \"#utility.yul\":3310:3639   */\n    tag_20:\n        /* \"#utility.yul\":3369:3375   */\n      0x00\n        /* \"#utility.yul\":3418:3420   */\n      0x20\n        /* \"#utility.yul\":3406:3415   */\n      dup3\n        /* \"#utility.yul\":3397:3404   */\n      dup5\n        /* \"#utility.yul\":3393:3416   */\n      sub\n        /* \"#utility.yul\":3389:3421   */\n      slt\n        /* \"#utility.yul\":3386:3505   */\n      iszero\n      tag_222\n      jumpi\n        /* \"#utility.yul\":3424:3503   */\n      tag_223\n      tag_121\n      jump\t// in\n    tag_223:\n        /* \"#utility.yul\":3386:3505   */\n    tag_222:\n        /* \"#utility.yul\":3544:3545   */\n      0x00\n        /* \"#utility.yul\":3569:3622   */\n      tag_224\n        /* \"#utility.yul\":3614:3621   */\n      dup5\n        /* \"#utility.yul\":3605:3611   */\n      dup3\n        /* \"#utility.yul\":3594:3603   */\n      dup6\n        /* \"#utility.yul\":3590:3612   */\n      add\n        /* \"#utility.yul\":3569:3622   */\n      tag_125\n      jump\t// in\n    tag_224:\n        /* \"#utility.yul\":3559:3622   */\n      swap2\n      pop\n        /* \"#utility.yul\":3515:3632   */\n      pop\n        /* \"#utility.yul\":3310:3639   */\n      swap3\n      swap2\n      pop\n      pop\n      jump\t// out\n        /* \"#utility.yul\":3645:3788   */\n    tag_134:\n        /* \"#utility.yul\":3741:3747   */\n      0x00\n        /* \"#utility.yul\":3775:3780   */\n      dup2\n        /* \"#utility.yul\":3769:3781   */\n      mload\n        /* \"#utility.yul\":3759:3781   */\n      swap1\n      pop\n        /* \"#utility.yul\":3645:3788   */\n      swap2\n      swap1\n      pop\n      jump\t// out\n        /* \"#utility.yul\":3794:4007   */\n    tag_135:\n        /* \"#utility.yul\":3922:3933   */\n      0x00\n        /* \"#utility.yul\":3956:3962   */\n      dup3\n        /* \"#utility.yul\":3951:3954   */\n      dup3\n        /* \"#utility.yul\":3944:3963   */\n      mstore\n        /* \"#utility.yul\":3996:4000   */\n      0x20\n        /* \"#utility.yul\":3991:3994   */\n      dup3\n        /* \"#utility.yul\":3987:4001   */\n      add\n        /* \"#utility.yul\":3972:4001   */\n      swap1\n      pop\n        /* \"#utility.yul\":3794:4007   */\n      swap3\n      swap2\n      pop\n      pop\n      jump\t// out\n        /* \"#utility.yul\":4013:4174   */\n    tag_136:\n        /* \"#utility.yul\":4109:4113   */\n      0x00\n        /* \"#utility.yul\":4132:4135   */\n      dup2\n        /* \"#utility.yul\":4124:4135   */\n      swap1\n      pop\n        /* \"#utility.yul\":4162:4166   */\n      0x20\n        /* \"#utility.yul\":4157:4160   */\n      dup3\n        /* \"#utility.yul\":4153:4167   */\n      add\n        /* \"#utility.yul\":4145:4167   */\n      swap1\n      pop\n        /* \"#utility.yul\":4013:4174   */\n      swap2\n      swap1\n      pop\n      jump\t// out\n        /* \"#utility.yul\":4180:4288   */\n    tag_137:\n        /* \"#utility.yul\":4257:4281   */\n      tag_229\n        /* \"#utility.yul\":4275:4280   */\n      dup2\n        /* \"#utility.yul\":4257:4281   */\n      tag_123\n      jump\t// in\n    tag_229:\n        /* \"#utility.yul\":4252:4255   */\n      dup3\n        /* \"#utility.yul\":4245:4282   */\n      mstore\n        /* \"#utility.yul\":4180:4288   */\n      pop\n      pop\n      jump\t// out\n        /* \"#utility.yul\":4294:4393   */\n    tag_138:\n        /* \"#utility.yul\":4346:4352   */\n      0x00\n        /* \"#utility.yul\":4380:4385   */\n      dup2\n        /* \"#utility.yul\":4374:4386   */\n      mload\n        /* \"#utility.yul\":4364:4386   */\n      swap1\n      pop\n        /* \"#utility.yul\":4294:4393   */\n      swap2\n      swap1\n      pop\n      jump\t// out\n        /* \"#utility.yul\":4399:4558   */\n    tag_139:\n        /* \"#utility.yul\":4473:4484   */\n      0x00\n        /* \"#utility.yul\":4507:4513   */\n      dup3\n        /* \"#utility.yul\":4502:4505   */\n      dup3\n        /* \"#utility.yul\":4495:4514   */\n      mstore\n        /* \"#utility.yul\":4547:4551   */\n      0x20\n        /* \"#utility.yul\":4542:4545   */\n      dup3\n        /* \"#utility.yul\":4538:4552   */\n      add\n        /* \"#utility.yul\":4523:4552   */\n      swap1\n      pop\n        /* \"#utility.yul\":4399:4558   */\n      swap3\n      swap2\n      pop\n      pop\n      jump\t// out\n        /* \"#utility.yul\":4564:4703   */\n    tag_140:\n        /* \"#utility.yul\":4653:4659   */\n      dup3\n        /* \"#utility.yul\":4648:4651   */\n      dup2\n        /* \"#utility.yul\":4643:4646   */\n      dup4\n        /* \"#utility.yul\":4637:4660   */\n      mcopy\n        /* \"#utility.yul\":4694:4695   */\n      0x00\n        /* \"#utility.yul\":4685:4691   */\n      dup4\n        /* \"#utility.yul\":4680:4683   */\n      dup4\n        /* \"#utility.yul\":4676:4692   */\n      add\n        /* \"#utility.yul\":4669:4696   */\n      mstore\n        /* \"#utility.yul\":4564:4703   */\n      pop\n      pop\n      pop\n      jump\t// out\n        /* \"#utility.yul\":4709:4811   */\n    tag_141:\n        /* \"#utility.yul\":4750:4756   */\n      0x00\n        /* \"#utility.yul\":4801:4803   */\n      0x1f\n        /* \"#utility.yul\":4797:4804   */\n      not\n        /* \"#utility.yul\":4792:4794   */\n      0x1f\n        /* \"#utility.yul\":4785:4790   */\n      dup4\n        /* \"#utility.yul\":4781:4795   */\n      add\n        /* \"#utility.yul\":4777:4805   */\n      and\n        /* \"#utility.yul\":4767:4805   */\n      swap1\n      pop\n        /* \"#utility.yul\":4709:4811   */\n      swap2\n      swap1\n      pop\n      jump\t// out\n        /* \"#utility.yul\":4817:5174   */\n    tag_142:\n        /* \"#utility.yul\":4895:4898   */\n      0x00\n        /* \"#utility.yul\":4923:4962   */\n      tag_235\n        /* \"#utility.yul\":4956:4961   */\n      dup3\n        /* \"#utility.yul\":4923:4962   */\n      tag_138\n      jump\t// in\n    tag_235:\n        /* \"#utility.yul\":4978:5039   */\n      tag_236\n        /* \"#utility.yul\":5032:5038   */\n      dup2\n        /* \"#utility.yul\":5027:5030   */\n      dup6\n        /* \"#utility.yul\":4978:5039   */\n      tag_139\n      jump\t// in\n    tag_236:\n        /* \"#utility.yul\":4971:5039   */\n      swap4\n      pop\n        /* \"#utility.yul\":5048:5113   */\n      tag_237\n        /* \"#utility.yul\":5106:5112   */\n      dup2\n        /* \"#utility.yul\":5101:5104   */\n      dup6\n        /* \"#utility.yul\":5094:5098   */\n      0x20\n        /* \"#utility.yul\":5087:5092   */\n      dup7\n        /* \"#utility.yul\":5083:5099   */\n      add\n        /* \"#utility.yul\":5048:5113   */\n      tag_140\n      jump\t// in\n    tag_237:\n        /* \"#utility.yul\":5138:5167   */\n      tag_238\n        /* \"#utility.yul\":5160:5166   */\n      dup2\n        /* \"#utility.yul\":5138:5167   */\n      tag_141\n      jump\t// in\n    tag_238:\n        /* \"#utility.yul\":5133:5136   */\n      dup5\n        /* \"#utility.yul\":5129:5168   */\n      add\n        /* \"#utility.yul\":5122:5168   */\n      swap2\n      pop\n        /* \"#utility.yul\":4899:5174   */\n      pop\n        /* \"#utility.yul\":4817:5174   */\n      swap3\n      swap2\n      pop\n      pop\n      jump\t// out\n        /* \"#utility.yul\":5180:5288   */\n    tag_143:\n        /* \"#utility.yul\":5257:5281   */\n      tag_240\n        /* \"#utility.yul\":5275:5280   */\n      dup2\n        /* \"#utility.yul\":5257:5281   */\n      tag_131\n      jump\t// in\n    tag_240:\n        /* \"#utility.yul\":5252:5255   */\n      dup3\n        /* \"#utility.yul\":5245:5282   */\n      mstore\n        /* \"#utility.yul\":5180:5288   */\n      pop\n      pop\n      jump\t// out\n        /* \"#utility.yul\":5372:6763   */\n    tag_144:\n        /* \"#utility.yul\":5489:5492   */\n      0x00\n        /* \"#utility.yul\":5525:5529   */\n      0xc0\n        /* \"#utility.yul\":5520:5523   */\n      dup4\n        /* \"#utility.yul\":5516:5530   */\n      add\n        /* \"#utility.yul\":5617:5621   */\n      0x00\n        /* \"#utility.yul\":5610:5615   */\n      dup4\n        /* \"#utility.yul\":5606:5622   */\n      add\n        /* \"#utility.yul\":5600:5623   */\n      mload\n        /* \"#utility.yul\":5636:5699   */\n      tag_242\n        /* \"#utility.yul\":5693:5697   */\n      0x00\n        /* \"#utility.yul\":5688:5691   */\n      dup7\n        /* \"#utility.yul\":5684:5698   */\n      add\n        /* \"#utility.yul\":5670:5682   */\n      dup3\n        /* \"#utility.yul\":5636:5699   */\n      tag_137\n      jump\t// in\n    tag_242:\n        /* \"#utility.yul\":5540:5709   */\n      pop\n        /* \"#utility.yul\":5795:5799   */\n      0x20\n        /* \"#utility.yul\":5788:5793   */\n      dup4\n        /* \"#utility.yul\":5784:5800   */\n      add\n        /* \"#utility.yul\":5778:5801   */\n      mload\n        /* \"#utility.yul\":5848:5851   */\n      dup5\n        /* \"#utility.yul\":5842:5846   */\n      dup3\n        /* \"#utility.yul\":5838:5852   */\n      sub\n        /* \"#utility.yul\":5831:5835   */\n      0x20\n        /* \"#utility.yul\":5826:5829   */\n      dup7\n        /* \"#utility.yul\":5822:5836   */\n      add\n        /* \"#utility.yul\":5815:5853   */\n      mstore\n        /* \"#utility.yul\":5874:5947   */\n      tag_243\n        /* \"#utility.yul\":5942:5946   */\n      dup3\n        /* \"#utility.yul\":5928:5940   */\n      dup3\n        /* \"#utility.yul\":5874:5947   */\n      tag_142\n      jump\t// in\n    tag_243:\n        /* \"#utility.yul\":5866:5947   */\n      swap2\n      pop\n        /* \"#utility.yul\":5719:5958   */\n      pop\n        /* \"#utility.yul\":6040:6044   */\n      0x40\n        /* \"#utility.yul\":6033:6038   */\n      dup4\n        /* \"#utility.yul\":6029:6045   */\n      add\n        /* \"#utility.yul\":6023:6046   */\n      mload\n        /* \"#utility.yul\":6059:6122   */\n      tag_244\n        /* \"#utility.yul\":6116:6120   */\n      0x40\n        /* \"#utility.yul\":6111:6114   */\n      dup7\n        /* \"#utility.yul\":6107:6121   */\n      add\n        /* \"#utility.yul\":6093:6105   */\n      dup3\n        /* \"#utility.yul\":6059:6122   */\n      tag_143\n      jump\t// in\n    tag_244:\n        /* \"#utility.yul\":5968:6132   */\n      pop\n        /* \"#utility.yul\":6212:6216   */\n      0x60\n        /* \"#utility.yul\":6205:6210   */\n      dup4\n        /* \"#utility.yul\":6201:6217   */\n      add\n        /* \"#utility.yul\":6195:6218   */\n      mload\n        /* \"#utility.yul\":6231:6294   */\n      tag_245\n        /* \"#utility.yul\":6288:6292   */\n      0x60\n        /* \"#utility.yul\":6283:6286   */\n      dup7\n        /* \"#utility.yul\":6279:6293   */\n      add\n        /* \"#utility.yul\":6265:6277   */\n      dup3\n        /* \"#utility.yul\":6231:6294   */\n      tag_143\n      jump\t// in\n    tag_245:\n        /* \"#utility.yul\":6142:6304   */\n      pop\n        /* \"#utility.yul\":6391:6395   */\n      0x80\n        /* \"#utility.yul\":6384:6389   */\n      dup4\n        /* \"#utility.yul\":6380:6396   */\n      add\n        /* \"#utility.yul\":6374:6397   */\n      mload\n        /* \"#utility.yul\":6410:6473   */\n      tag_246\n        /* \"#utility.yul\":6467:6471   */\n      0x80\n        /* \"#utility.yul\":6462:6465   */\n      dup7\n        /* \"#utility.yul\":6458:6472   */\n      add\n        /* \"#utility.yul\":6444:6456   */\n      dup3\n        /* \"#utility.yul\":6410:6473   */\n      tag_137\n      jump\t// in\n    tag_246:\n        /* \"#utility.yul\":6314:6483   */\n      pop\n        /* \"#utility.yul\":6573:6577   */\n      0xa0\n        /* \"#utility.yul\":6566:6571   */\n      dup4\n        /* \"#utility.yul\":6562:6578   */\n      add\n        /* \"#utility.yul\":6556:6579   */\n      mload\n        /* \"#utility.yul\":6626:6629   */\n      dup5\n        /* \"#utility.yul\":6620:6624   */\n      dup3\n        /* \"#utility.yul\":6616:6630   */\n      sub\n        /* \"#utility.yul\":6609:6613   */\n      0xa0\n        /* \"#utility.yul\":6604:6607   */\n      dup7\n        /* \"#utility.yul\":6600:6614   */\n      add\n        /* \"#utility.yul\":6593:6631   */\n      mstore\n        /* \"#utility.yul\":6652:6725   */\n      tag_247\n        /* \"#utility.yul\":6720:6724   */\n      dup3\n        /* \"#utility.yul\":6706:6718   */\n      dup3\n        /* \"#utility.yul\":6652:6725   */\n      tag_142\n      jump\t// in\n    tag_247:\n        /* \"#utility.yul\":6644:6725   */\n      swap2\n      pop\n        /* \"#utility.yul\":6493:6736   */\n      pop\n        /* \"#utility.yul\":6753:6757   */\n      dup1\n        /* \"#utility.yul\":6746:6757   */\n      swap2\n      pop\n        /* \"#utility.yul\":5494:6763   */\n      pop\n        /* \"#utility.yul\":5372:6763   */\n      swap3\n      swap2\n      pop\n      pop\n      jump\t// out\n        /* \"#utility.yul\":6769:7041   */\n    tag_145:\n        /* \"#utility.yul\":6896:6906   */\n      0x00\n        /* \"#utility.yul\":6931:7035   */\n      tag_249\n        /* \"#utility.yul\":7031:7034   */\n      dup4\n        /* \"#utility.yul\":7023:7029   */\n      dup4\n        /* \"#utility.yul\":6931:7035   */\n      tag_144\n      jump\t// in\n    tag_249:\n        /* \"#utility.yul\":6917:7035   */\n      swap1\n      pop\n        /* \"#utility.yul\":6769:7041   */\n      swap3\n      swap2\n      pop\n      pop\n      jump\t// out\n        /* \"#utility.yul\":7047:7189   */\n    tag_146:\n        /* \"#utility.yul\":7146:7150   */\n      0x00\n        /* \"#utility.yul\":7178:7182   */\n      0x20\n        /* \"#utility.yul\":7173:7176   */\n      dup3\n        /* \"#utility.yul\":7169:7183   */\n      add\n        /* \"#utility.yul\":7161:7183   */\n      swap1\n      pop\n        /* \"#utility.yul\":7047:7189   */\n      swap2\n      swap1\n      pop\n      jump\t// out\n        /* \"#utility.yul\":7277:8420   */\n    tag_147:\n        /* \"#utility.yul\":7454:7457   */\n      0x00\n        /* \"#utility.yul\":7483:7566   */\n      tag_252\n        /* \"#utility.yul\":7560:7565   */\n      dup3\n        /* \"#utility.yul\":7483:7566   */\n      tag_134\n      jump\t// in\n    tag_252:\n        /* \"#utility.yul\":7582:7697   */\n      tag_253\n        /* \"#utility.yul\":7690:7696   */\n      dup2\n        /* \"#utility.yul\":7685:7688   */\n      dup6\n        /* \"#utility.yul\":7582:7697   */\n      tag_135\n      jump\t// in\n    tag_253:\n        /* \"#utility.yul\":7575:7697   */\n      swap4\n      pop\n        /* \"#utility.yul\":7723:7726   */\n      dup4\n        /* \"#utility.yul\":7768:7772   */\n      0x20\n        /* \"#utility.yul\":7760:7766   */\n      dup3\n        /* \"#utility.yul\":7756:7773   */\n      mul\n        /* \"#utility.yul\":7751:7754   */\n      dup6\n        /* \"#utility.yul\":7747:7774   */\n      add\n        /* \"#utility.yul\":7798:7883   */\n      tag_254\n        /* \"#utility.yul\":7877:7882   */\n      dup6\n        /* \"#utility.yul\":7798:7883   */\n      tag_136\n      jump\t// in\n    tag_254:\n        /* \"#utility.yul\":7906:7913   */\n      dup1\n        /* \"#utility.yul\":7937:7938   */\n      0x00\n        /* \"#utility.yul\":7922:8375   */\n    tag_255:\n        /* \"#utility.yul\":7947:7953   */\n      dup6\n        /* \"#utility.yul\":7944:7945   */\n      dup2\n        /* \"#utility.yul\":7941:7954   */\n      lt\n        /* \"#utility.yul\":7922:8375   */\n      iszero\n      tag_257\n      jumpi\n        /* \"#utility.yul\":8018:8027   */\n      dup5\n        /* \"#utility.yul\":8012:8016   */\n      dup5\n        /* \"#utility.yul\":8008:8028   */\n      sub\n        /* \"#utility.yul\":8003:8006   */\n      dup10\n        /* \"#utility.yul\":7996:8029   */\n      mstore\n        /* \"#utility.yul\":8069:8075   */\n      dup2\n        /* \"#utility.yul\":8063:8076   */\n      mload\n        /* \"#utility.yul\":8097:8219   */\n      tag_258\n        /* \"#utility.yul\":8214:8218   */\n      dup6\n        /* \"#utility.yul\":8199:8212   */\n      dup3\n        /* \"#utility.yul\":8097:8219   */\n      tag_145\n      jump\t// in\n    tag_258:\n        /* \"#utility.yul\":8089:8219   */\n      swap5\n      pop\n        /* \"#utility.yul\":8242:8331   */\n      tag_259\n        /* \"#utility.yul\":8324:8330   */\n      dup4\n        /* \"#utility.yul\":8242:8331   */\n      tag_146\n      jump\t// in\n    tag_259:\n        /* \"#utility.yul\":8232:8331   */\n      swap3\n      pop\n        /* \"#utility.yul\":8360:8364   */\n      0x20\n        /* \"#utility.yul\":8355:8358   */\n      dup11\n        /* \"#utility.yul\":8351:8365   */\n      add\n        /* \"#utility.yul\":8344:8365   */\n      swap10\n      pop\n        /* \"#utility.yul\":7982:8375   */\n      pop\n        /* \"#utility.yul\":7969:7970   */\n      0x01\n        /* \"#utility.yul\":7966:7967   */\n      dup2\n        /* \"#utility.yul\":7962:7971   */\n      add\n        /* \"#utility.yul\":7957:7971   */\n      swap1\n      pop\n        /* \"#utility.yul\":7922:8375   */\n      jump(tag_255)\n    tag_257:\n        /* \"#utility.yul\":7926:7940   */\n      pop\n        /* \"#utility.yul\":8391:8395   */\n      dup3\n        /* \"#utility.yul\":8384:8395   */\n      swap8\n      pop\n        /* \"#utility.yul\":8411:8414   */\n      dup8\n        /* \"#utility.yul\":8404:8414   */\n      swap6\n      pop\n        /* \"#utility.yul\":7459:8420   */\n      pop\n      pop\n      pop\n      pop\n      pop\n        /* \"#utility.yul\":7277:8420   */\n      swap3\n      swap2\n      pop\n      pop\n      jump\t// out\n        /* \"#utility.yul\":8426:8915   */\n    tag_23:\n        /* \"#utility.yul\":8627:8631   */\n      0x00\n        /* \"#utility.yul\":8665:8667   */\n      0x20\n        /* \"#utility.yul\":8654:8663   */\n      dup3\n        /* \"#utility.yul\":8650:8668   */\n      add\n        /* \"#utility.yul\":8642:8668   */\n      swap1\n      pop\n        /* \"#utility.yul\":8714:8723   */\n      dup2\n        /* \"#utility.yul\":8708:8712   */\n      dup2\n        /* \"#utility.yul\":8704:8724   */\n      sub\n        /* \"#utility.yul\":8700:8701   */\n      0x00\n        /* \"#utility.yul\":8689:8698   */\n      dup4\n        /* \"#utility.yul\":8685:8702   */\n      add\n        /* \"#utility.yul\":8678:8725   */\n      mstore\n        /* \"#utility.yul\":8742:8908   */\n      tag_261\n        /* \"#utility.yul\":8903:8907   */\n      dup2\n        /* \"#utility.yul\":8894:8900   */\n      dup5\n        /* \"#utility.yul\":8742:8908   */\n      tag_147\n      jump\t// in\n    tag_261:\n        /* \"#utility.yul\":8734:8908   */\n      swap1\n      pop\n        /* \"#utility.yul\":8426:8915   */\n      swap3\n      swap2\n      pop\n      pop\n      jump\t// out\n        /* \"#utility.yul\":8921:9039   */\n    tag_148:\n        /* \"#utility.yul\":9008:9032   */\n      tag_263\n        /* \"#utility.yul\":9026:9031   */\n      dup2\n        /* \"#utility.yul\":9008:9032   */\n      tag_131\n      jump\t// in\n    tag_263:\n        /* \"#utility.yul\":9003:9006   */\n      dup3\n        /* \"#utility.yul\":8996:9033   */\n      mstore\n        /* \"#utility.yul\":8921:9039   */\n      pop\n      pop\n      jump\t// out\n        /* \"#utility.yul\":9045:9163   */\n    tag_149:\n        /* \"#utility.yul\":9132:9156   */\n      tag_265\n        /* \"#utility.yul\":9150:9155   */\n      dup2\n        /* \"#utility.yul\":9132:9156   */\n      tag_123\n      jump\t// in\n    tag_265:\n        /* \"#utility.yul\":9127:9130   */\n      dup3\n        /* \"#utility.yul\":9120:9157   */\n      mstore\n        /* \"#utility.yul\":9045:9163   */\n      pop\n      pop\n      jump\t// out\n        /* \"#utility.yul\":9169:9501   */\n    tag_28:\n        /* \"#utility.yul\":9290:9294   */\n      0x00\n        /* \"#utility.yul\":9328:9330   */\n      0x40\n        /* \"#utility.yul\":9317:9326   */\n      dup3\n        /* \"#utility.yul\":9313:9331   */\n      add\n        /* \"#utility.yul\":9305:9331   */\n      swap1\n      pop\n        /* \"#utility.yul\":9341:9412   */\n      tag_267\n        /* \"#utility.yul\":9409:9410   */\n      0x00\n        /* \"#utility.yul\":9398:9407   */\n      dup4\n        /* \"#utility.yul\":9394:9411   */\n      add\n        /* \"#utility.yul\":9385:9391   */\n      dup6\n        /* \"#utility.yul\":9341:9412   */\n      tag_148\n      jump\t// in\n    tag_267:\n        /* \"#utility.yul\":9422:9494   */\n      tag_268\n        /* \"#utility.yul\":9490:9492   */\n      0x20\n        /* \"#utility.yul\":9479:9488   */\n      dup4\n        /* \"#utility.yul\":9475:9493   */\n      add\n        /* \"#utility.yul\":9466:9472   */\n      dup5\n        /* \"#utility.yul\":9422:9494   */\n      tag_149\n      jump\t// in\n    tag_268:\n        /* \"#utility.yul\":9169:9501   */\n      swap4\n      swap3\n      pop\n      pop\n      pop\n      jump\t// out\n        /* \"#utility.yul\":9507:9836   */\n    tag_31:\n        /* \"#utility.yul\":9566:9572   */\n      0x00\n        /* \"#utility.yul\":9615:9617   */\n      0x20\n        /* \"#utility.yul\":9603:9612   */\n      dup3\n        /* \"#utility.yul\":9594:9601   */\n      dup5\n        /* \"#utility.yul\":9590:9613   */\n      sub\n        /* \"#utility.yul\":9586:9618   */\n      slt\n        /* \"#utility.yul\":9583:9702   */\n      iszero\n      tag_270\n      jumpi\n        /* \"#utility.yul\":9621:9700   */\n      tag_271\n      tag_121\n      jump\t// in\n    tag_271:\n        /* \"#utility.yul\":9583:9702   */\n    tag_270:\n        /* \"#utility.yul\":9741:9742   */\n      0x00\n        /* \"#utility.yul\":9766:9819   */\n      tag_272\n        /* \"#utility.yul\":9811:9818   */\n      dup5\n        /* \"#utility.yul\":9802:9808   */\n      dup3\n        /* \"#utility.yul\":9791:9800   */\n      dup6\n        /* \"#utility.yul\":9787:9809   */\n      add\n        /* \"#utility.yul\":9766:9819   */\n      tag_133\n      jump\t// in\n    tag_272:\n        /* \"#utility.yul\":9756:9819   */\n      swap2\n      pop\n        /* \"#utility.yul\":9712:9829   */\n      pop\n        /* \"#utility.yul\":9507:9836   */\n      swap3\n      swap2\n      pop\n      pop\n      jump\t// out\n        /* \"#utility.yul\":9842:10011   */\n    tag_150:\n        /* \"#utility.yul\":9926:9937   */\n      0x00\n        /* \"#utility.yul\":9960:9966   */\n      dup3\n        /* \"#utility.yul\":9955:9958   */\n      dup3\n        /* \"#utility.yul\":9948:9967   */\n      mstore\n        /* \"#utility.yul\":10000:10004   */\n      0x20\n        /* \"#utility.yul\":9995:9998   */\n      dup3\n        /* \"#utility.yul\":9991:10005   */\n      add\n        /* \"#utility.yul\":9976:10005   */\n      swap1\n      pop\n        /* \"#utility.yul\":9842:10011   */\n      swap3\n      swap2\n      pop\n      pop\n      jump\t// out\n        /* \"#utility.yul\":10017:10244   */\n    tag_151:\n        /* \"#utility.yul\":10157:10191   */\n      0x4163636573732044656e6965643a204e6f7420616e20617574686f72697a6564\n        /* \"#utility.yul\":10153:10154   */\n      0x00\n        /* \"#utility.yul\":10145:10151   */\n      dup3\n        /* \"#utility.yul\":10141:10155   */\n      add\n        /* \"#utility.yul\":10134:10192   */\n      mstore\n        /* \"#utility.yul\":10226:10236   */\n      0x206d616e61676572000000000000000000000000000000000000000000000000\n        /* \"#utility.yul\":10221:10223   */\n      0x20\n        /* \"#utility.yul\":10213:10219   */\n      dup3\n        /* \"#utility.yul\":10209:10224   */\n      add\n        /* \"#utility.yul\":10202:10237   */\n      mstore\n        /* \"#utility.yul\":10017:10244   */\n      pop\n      jump\t// out\n        /* \"#utility.yul\":10250:10616   */\n    tag_152:\n        /* \"#utility.yul\":10392:10395   */\n      0x00\n        /* \"#utility.yul\":10413:10480   */\n      tag_276\n        /* \"#utility.yul\":10477:10479   */\n      0x28\n        /* \"#utility.yul\":10472:10475   */\n      dup4\n        /* \"#utility.yul\":10413:10480   */\n      tag_150\n      jump\t// in\n    tag_276:\n        /* \"#utility.yul\":10406:10480   */\n      swap2\n      pop\n        /* \"#utility.yul\":10489:10582   */\n      tag_277\n        /* \"#utility.yul\":10578:10581   */\n      dup3\n        /* \"#utility.yul\":10489:10582   */\n      tag_151\n      jump\t// in\n    tag_277:\n        /* \"#utility.yul\":10607:10609   */\n      0x40\n        /* \"#utility.yul\":10602:10605   */\n      dup3\n        /* \"#utility.yul\":10598:10610   */\n      add\n        /* \"#utility.yul\":10591:10610   */\n      swap1\n      pop\n        /* \"#utility.yul\":10250:10616   */\n      swap2\n      swap1\n      pop\n      jump\t// out\n        /* \"#utility.yul\":10622:11041   */\n    tag_44:\n        /* \"#utility.yul\":10788:10792   */\n      0x00\n        /* \"#utility.yul\":10826:10828   */\n      0x20\n        /* \"#utility.yul\":10815:10824   */\n      dup3\n        /* \"#utility.yul\":10811:10829   */\n      add\n        /* \"#utility.yul\":10803:10829   */\n      swap1\n      pop\n        /* \"#utility.yul\":10875:10884   */\n      dup2\n        /* \"#utility.yul\":10869:10873   */\n      dup2\n        /* \"#utility.yul\":10865:10885   */\n      sub\n        /* \"#utility.yul\":10861:10862   */\n      0x00\n        /* \"#utility.yul\":10850:10859   */\n      dup4\n        /* \"#utility.yul\":10846:10863   */\n      add\n        /* \"#utility.yul\":10839:10886   */\n      mstore\n        /* \"#utility.yul\":10903:11034   */\n      tag_279\n        /* \"#utility.yul\":11029:11033   */\n      dup2\n        /* \"#utility.yul\":10903:11034   */\n      tag_152\n      jump\t// in\n    tag_279:\n        /* \"#utility.yul\":10895:11034   */\n      swap1\n      pop\n        /* \"#utility.yul\":10622:11041   */\n      swap2\n      swap1\n      pop\n      jump\t// out\n        /* \"#utility.yul\":11047:11269   */\n    tag_153:\n        /* \"#utility.yul\":11187:11221   */\n      0x5175657279204572726f723a2050726f64756374206e6f742072656769737465\n        /* \"#utility.yul\":11183:11184   */\n      0x00\n        /* \"#utility.yul\":11175:11181   */\n      dup3\n        /* \"#utility.yul\":11171:11185   */\n      add\n        /* \"#utility.yul\":11164:11222   */\n      mstore\n        /* \"#utility.yul\":11256:11261   */\n      0x7265640000000000000000000000000000000000000000000000000000000000\n        /* \"#utility.yul\":11251:11253   */\n      0x20\n        /* \"#utility.yul\":11243:11249   */\n      dup3\n        /* \"#utility.yul\":11239:11254   */\n      add\n        /* \"#utility.yul\":11232:11262   */\n      mstore\n        /* \"#utility.yul\":11047:11269   */\n      pop\n      jump\t// out\n        /* \"#utility.yul\":11275:11641   */\n    tag_154:\n        /* \"#utility.yul\":11417:11420   */\n      0x00\n        /* \"#utility.yul\":11438:11505   */\n      tag_282\n        /* \"#utility.yul\":11502:11504   */\n      0x23\n        /* \"#utility.yul\":11497:11500   */\n      dup4\n        /* \"#utility.yul\":11438:11505   */\n      tag_150\n      jump\t// in\n    tag_282:\n        /* \"#utility.yul\":11431:11505   */\n      swap2\n      pop\n        /* \"#utility.yul\":11514:11607   */\n      tag_283\n        /* \"#utility.yul\":11603:11606   */\n      dup3\n        /* \"#utility.yul\":11514:11607   */\n      tag_153\n      jump\t// in\n    tag_283:\n        /* \"#utility.yul\":11632:11634   */\n      0x40\n        /* \"#utility.yul\":11627:11630   */\n      dup3\n        /* \"#utility.yul\":11623:11635   */\n      add\n        /* \"#utility.yul\":11616:11635   */\n      swap1\n      pop\n        /* \"#utility.yul\":11275:11641   */\n      swap2\n      swap1\n      pop\n      jump\t// out\n        /* \"#utility.yul\":11647:12066   */\n    tag_52:\n        /* \"#utility.yul\":11813:11817   */\n      0x00\n        /* \"#utility.yul\":11851:11853   */\n      0x20\n        /* \"#utility.yul\":11840:11849   */\n      dup3\n        /* \"#utility.yul\":11836:11854   */\n      add\n        /* \"#utility.yul\":11828:11854   */\n      swap1\n      pop\n        /* \"#utility.yul\":11900:11909   */\n      dup2\n        /* \"#utility.yul\":11894:11898   */\n      dup2\n        /* \"#utility.yul\":11890:11910   */\n      sub\n        /* \"#utility.yul\":11886:11887   */\n      0x00\n        /* \"#utility.yul\":11875:11884   */\n      dup4\n        /* \"#utility.yul\":11871:11888   */\n      add\n        /* \"#utility.yul\":11864:11911   */\n      mstore\n        /* \"#utility.yul\":11928:12059   */\n      tag_285\n        /* \"#utility.yul\":12054:12058   */\n      dup2\n        /* \"#utility.yul\":11928:12059   */\n      tag_154\n      jump\t// in\n    tag_285:\n        /* \"#utility.yul\":11920:12059   */\n      swap1\n      pop\n        /* \"#utility.yul\":11647:12066   */\n      swap2\n      swap1\n      pop\n      jump\t// out\n        /* \"#utility.yul\":12072:12294   */\n    tag_155:\n        /* \"#utility.yul\":12212:12246   */\n      0x4f7065726174696f6e204572726f723a20436f6e747261637420697320706175\n        /* \"#utility.yul\":12208:12209   */\n      0x00\n        /* \"#utility.yul\":12200:12206   */\n      dup3\n        /* \"#utility.yul\":12196:12210   */\n      add\n        /* \"#utility.yul\":12189:12247   */\n      mstore\n        /* \"#utility.yul\":12281:12286   */\n      0x7365640000000000000000000000000000000000000000000000000000000000\n        /* \"#utility.yul\":12276:12278   */\n      0x20\n        /* \"#utility.yul\":12268:12274   */\n      dup3\n        /* \"#utility.yul\":12264:12279   */\n      add\n        /* \"#utility.yul\":12257:12287   */\n      mstore\n        /* \"#utility.yul\":12072:12294   */\n      pop\n      jump\t// out\n        /* \"#utility.yul\":12300:12666   */\n    tag_156:\n        /* \"#utility.yul\":12442:12445   */\n      0x00\n        /* \"#utility.yul\":12463:12530   */\n      tag_288\n        /* \"#utility.yul\":12527:12529   */\n      0x23\n        /* \"#utility.yul\":12522:12525   */\n      dup4\n        /* \"#utility.yul\":12463:12530   */\n      tag_150\n      jump\t// in\n    tag_288:\n        /* \"#utility.yul\":12456:12530   */\n      swap2\n      pop\n        /* \"#utility.yul\":12539:12632   */\n      tag_289\n        /* \"#utility.yul\":12628:12631   */\n      dup3\n        /* \"#utility.yul\":12539:12632   */\n      tag_155\n      jump\t// in\n    tag_289:\n        /* \"#utility.yul\":12657:12659   */\n      0x40\n        /* \"#utility.yul\":12652:12655   */\n      dup3\n        /* \"#utility.yul\":12648:12660   */\n      add\n        /* \"#utility.yul\":12641:12660   */\n      swap1\n      pop\n        /* \"#utility.yul\":12300:12666   */\n      swap2\n      swap1\n      pop\n      jump\t// out\n        /* \"#utility.yul\":12672:13091   */\n    tag_56:\n        /* \"#utility.yul\":12838:12842   */\n      0x00\n        /* \"#utility.yul\":12876:12878   */\n      0x20\n        /* \"#utility.yul\":12865:12874   */\n      dup3\n        /* \"#utility.yul\":12861:12879   */\n      add\n        /* \"#utility.yul\":12853:12879   */\n      swap1\n      pop\n        /* \"#utility.yul\":12925:12934   */\n      dup2\n        /* \"#utility.yul\":12919:12923   */\n      dup2\n        /* \"#utility.yul\":12915:12935   */\n      sub\n        /* \"#utility.yul\":12911:12912   */\n      0x00\n        /* \"#utility.yul\":12900:12909   */\n      dup4\n        /* \"#utility.yul\":12896:12913   */\n      add\n        /* \"#utility.yul\":12889:12936   */\n      mstore\n        /* \"#utility.yul\":12953:13084   */\n      tag_291\n        /* \"#utility.yul\":13079:13083   */\n      dup2\n        /* \"#utility.yul\":12953:13084   */\n      tag_156\n      jump\t// in\n    tag_291:\n        /* \"#utility.yul\":12945:13084   */\n      swap1\n      pop\n        /* \"#utility.yul\":12672:13091   */\n      swap2\n      swap1\n      pop\n      jump\t// out\n        /* \"#utility.yul\":13097:13277   */\n    tag_157:\n        /* \"#utility.yul\":13145:13222   */\n      0x4e487b7100000000000000000000000000000000000000000000000000000000\n        /* \"#utility.yul\":13142:13143   */\n      0x00\n        /* \"#utility.yul\":13135:13223   */\n      mstore\n        /* \"#utility.yul\":13242:13246   */\n      0x41\n        /* \"#utility.yul\":13239:13240   */\n      0x04\n        /* \"#utility.yul\":13232:13247   */\n      mstore\n        /* \"#utility.yul\":13266:13270   */\n      0x24\n        /* \"#utility.yul\":13263:13264   */\n      0x00\n        /* \"#utility.yul\":13256:13271   */\n      revert\n        /* \"#utility.yul\":13283:13463   */\n    tag_158:\n        /* \"#utility.yul\":13331:13408   */\n      0x4e487b7100000000000000000000000000000000000000000000000000000000\n        /* \"#utility.yul\":13328:13329   */\n      0x00\n        /* \"#utility.yul\":13321:13409   */\n      mstore\n        /* \"#utility.yul\":13428:13432   */\n      0x22\n        /* \"#utility.yul\":13425:13426   */\n      0x04\n        /* \"#utility.yul\":13418:13433   */\n      mstore\n        /* \"#utility.yul\":13452:13456   */\n      0x24\n        /* \"#utility.yul\":13449:13450   */\n      0x00\n        /* \"#utility.yul\":13442:13457   */\n      revert\n        /* \"#utility.yul\":13469:13789   */\n    tag_72:\n        /* \"#utility.yul\":13513:13519   */\n      0x00\n        /* \"#utility.yul\":13550:13551   */\n      0x02\n        /* \"#utility.yul\":13544:13548   */\n      dup3\n        /* \"#utility.yul\":13540:13552   */\n      div\n        /* \"#utility.yul\":13530:13552   */\n      swap1\n      pop\n        /* \"#utility.yul\":13597:13598   */\n      0x01\n        /* \"#utility.yul\":13591:13595   */\n      dup3\n        /* \"#utility.yul\":13587:13599   */\n      and\n        /* \"#utility.yul\":13618:13636   */\n      dup1\n        /* \"#utility.yul\":13608:13689   */\n      tag_295\n      jumpi\n        /* \"#utility.yul\":13674:13678   */\n      0x7f\n        /* \"#utility.yul\":13666:13672   */\n      dup3\n        /* \"#utility.yul\":13662:13679   */\n      and\n        /* \"#utility.yul\":13652:13679   */\n      swap2\n      pop\n        /* \"#utility.yul\":13608:13689   */\n    tag_295:\n        /* \"#utility.yul\":13736:13738   */\n      0x20\n        /* \"#utility.yul\":13728:13734   */\n      dup3\n        /* \"#utility.yul\":13725:13739   */\n      lt\n        /* \"#utility.yul\":13705:13723   */\n      dup2\n        /* \"#utility.yul\":13702:13740   */\n      sub\n        /* \"#utility.yul\":13699:13783   */\n      tag_296\n      jumpi\n        /* \"#utility.yul\":13755:13773   */\n      tag_297\n      tag_158\n      jump\t// in\n    tag_297:\n        /* \"#utility.yul\":13699:13783   */\n    tag_296:\n        /* \"#utility.yul\":13520:13789   */\n      pop\n        /* \"#utility.yul\":13469:13789   */\n      swap2\n      swap1\n      pop\n      jump\t// out\n        /* \"#utility.yul\":13795:13936   */\n    tag_159:\n        /* \"#utility.yul\":13844:13848   */\n      0x00\n        /* \"#utility.yul\":13867:13870   */\n      dup2\n        /* \"#utility.yul\":13859:13870   */\n      swap1\n      pop\n        /* \"#utility.yul\":13890:13893   */\n      dup2\n        /* \"#utility.yul\":13887:13888   */\n      0x00\n        /* \"#utility.yul\":13880:13894   */\n      mstore\n        /* \"#utility.yul\":13924:13928   */\n      0x20\n        /* \"#utility.yul\":13921:13922   */\n      0x00\n        /* \"#utility.yul\":13911:13929   */\n      keccak256\n        /* \"#utility.yul\":13903:13929   */\n      swap1\n      pop\n        /* \"#utility.yul\":13795:13936   */\n      swap2\n      swap1\n      pop\n      jump\t// out\n        /* \"#utility.yul\":13942:14035   */\n    tag_160:\n        /* \"#utility.yul\":13979:13985   */\n      0x00\n        /* \"#utility.yul\":14026:14028   */\n      0x20\n        /* \"#utility.yul\":14021:14023   */\n      0x1f\n        /* \"#utility.yul\":14014:14019   */\n      dup4\n        /* \"#utility.yul\":14010:14024   */\n      add\n        /* \"#utility.yul\":14006:14029   */\n      div\n        /* \"#utility.yul\":13996:14029   */\n      swap1\n      pop\n        /* \"#utility.yul\":13942:14035   */\n      swap2\n      swap1\n      pop\n      jump\t// out\n        /* \"#utility.yul\":14041:14148   */\n    tag_161:\n        /* \"#utility.yul\":14085:14093   */\n      0x00\n        /* \"#utility.yul\":14135:14140   */\n      dup3\n        /* \"#utility.yul\":14129:14133   */\n      dup3\n        /* \"#utility.yul\":14125:14141   */\n      shl\n        /* \"#utility.yul\":14104:14141   */\n      swap1\n      pop\n        /* \"#utility.yul\":14041:14148   */\n      swap3\n      swap2\n      pop\n      pop\n      jump\t// out\n        /* \"#utility.yul\":14154:14547   */\n    tag_162:\n        /* \"#utility.yul\":14223:14229   */\n      0x00\n        /* \"#utility.yul\":14273:14274   */\n      0x08\n        /* \"#utility.yul\":14261:14271   */\n      dup4\n        /* \"#utility.yul\":14257:14275   */\n      mul\n        /* \"#utility.yul\":14296:14393   */\n      tag_302\n        /* \"#utility.yul\":14326:14392   */\n      0xffffffffffffffffffffffffffffffffffffffffffffffffffffffffffffffff\n        /* \"#utility.yul\":14315:14324   */\n      dup3\n        /* \"#utility.yul\":14296:14393   */\n      tag_161\n      jump\t// in\n    tag_302:\n        /* \"#utility.yul\":14414:14453   */\n      tag_303\n        /* \"#utility.yul\":14444:14452   */\n      dup7\n        /* \"#utility.yul\":14433:14442   */\n      dup4\n        /* \"#utility.yul\":14414:14453   */\n      tag_161\n      jump\t// in\n    tag_303:\n        /* \"#utility.yul\":14402:14453   */\n      swap6\n      pop\n        /* \"#utility.yul\":14486:14490   */\n      dup1\n        /* \"#utility.yul\":14482:14491   */\n      not\n        /* \"#utility.yul\":14475:14480   */\n      dup5\n        /* \"#utility.yul\":14471:14492   */\n      and\n        /* \"#utility.yul\":14462:14492   */\n      swap4\n      pop\n        /* \"#utility.yul\":14535:14539   */\n      dup1\n        /* \"#utility.yul\":14525:14533   */\n      dup7\n        /* \"#utility.yul\":14521:14540   */\n      and\n        /* \"#utility.yul\":14514:14519   */\n      dup5\n        /* \"#utility.yul\":14511:14541   */\n      or\n        /* \"#utility.yul\":14501:14541   */\n      swap3\n      pop\n        /* \"#utility.yul\":14230:14547   */\n      pop\n      pop\n        /* \"#utility.yul\":14154:14547   */\n      swap4\n      swap3\n      pop\n      pop\n      pop\n      jump\t// out\n        /* \"#utility.yul\":14553:14613   */\n    tag_163:\n        /* \"#utility.yul\":14581:14584   */\n      0x00\n        /* \"#utility.yul\":14602:14607   */\n      dup2\n        /* \"#utility.yul\":14595:14607   */\n      swap1\n      pop\n        /* \"#utility.yul\":14553:14613   */\n      swap2\n      swap1\n      pop\n      jump\t// out\n        /* \"#utility.yul\":14619:14761   */\n    tag_164:\n        /* \"#utility.yul\":14669:14678   */\n      0x00\n        /* \"#utility.yul\":14702:14755   */\n      tag_306\n        /* \"#utility.yul\":14720:14754   */\n      tag_307\n        /* \"#utility.yul\":14729:14753   */\n      tag_308\n        /* \"#utility.yul\":14747:14752   */\n      dup5\n        /* \"#utility.yul\":14729:14753   */\n      tag_123\n      jump\t// in\n    tag_308:\n        /* \"#utility.yul\":14720:14754   */\n      tag_163\n      jump\t// in\n    tag_307:\n        /* \"#utility.yul\":14702:14755   */\n      tag_123\n      jump\t// in\n    tag_306:\n        /* \"#utility.yul\":14689:14755   */\n      swap1\n      pop\n        /* \"#utility.yul\":14619:14761   */\n      swap2\n      swap1\n      pop\n      jump\t// out\n        /* \"#utility.yul\":14767:14842   */\n    tag_165:\n        /* \"#utility.yul\":14810:14813   */\n      0x00\n        /* \"#utility.yul\":14831:14836   */\n      dup2\n        /* \"#utility.yul\":14824:14836   */\n      swap1\n      pop\n        /* \"#utility.yul\":14767:14842   */\n      swap2\n      swap1\n      pop\n      jump\t// out\n        /* \"#utility.yul\":14848:15117   */\n    tag_166:\n        /* \"#utility.yul\":14958:14997   */\n      tag_311\n        /* \"#utility.yul\":14989:14996   */\n      dup4\n        /* \"#utility.yul\":14958:14997   */\n      tag_164\n      jump\t// in\n    tag_311:\n        /* \"#utility.yul\":15019:15110   */\n      tag_312\n        /* \"#utility.yul\":15068:15109   */\n      tag_313\n        /* \"#utility.yul\":15092:15108   */\n      dup3\n        /* \"#utility.yul\":15068:15109   */\n      tag_165\n      jump\t// in\n    tag_313:\n        /* \"#utility.yul\":15060:15066   */\n      dup5\n        /* \"#utility.yul\":15053:15057   */\n      dup5\n        /* \"#utility.yul\":15047:15058   */\n      sload\n        /* \"#utility.yul\":15019:15110   */\n      tag_162\n      jump\t// in\n    tag_312:\n        /* \"#utility.yul\":15013:15017   */\n      dup3\n        /* \"#utility.yul\":15006:15111   */\n      sstore\n        /* \"#utility.yul\":14924:15117   */\n      pop\n        /* \"#utility.yul\":14848:15117   */\n      pop\n      pop\n      pop\n      jump\t// out\n        /* \"#utility.yul\":15123:15196   */\n    tag_167:\n        /* \"#utility.yul\":15168:15171   */\n      0x00\n        /* \"#utility.yul\":15123:15196   */\n      swap1\n      jump\t// out\n        /* \"#utility.yul\":15202:15391   */\n    tag_168:\n        /* \"#utility.yul\":15279:15311   */\n      tag_316\n      tag_167\n      jump\t// in\n    tag_316:\n        /* \"#utility.yul\":15320:15385   */\n      tag_317\n        /* \"#utility.yul\":15378:15384   */\n      dup2\n        /* \"#utility.yul\":15370:15376   */\n      dup5\n        /* \"#utility.yul\":15364:15368   */\n      dup5\n        /* \"#utility.yul\":15320:15385   */\n      tag_166\n      jump\t// in\n    tag_317:\n        /* \"#utility.yul\":15255:15391   */\n      pop\n        /* \"#utility.yul\":15202:15391   */\n      pop\n      pop\n      jump\t// out\n        /* \"#utility.yul\":15397:15583   */\n    tag_169:\n        /* \"#utility.yul\":15457:15577   */\n    tag_319:\n        /* \"#utility.yul\":15474:15477   */\n      dup2\n        /* \"#utility.yul\":15467:15472   */\n      dup2\n        /* \"#utility.yul\":15464:15478   */\n      lt\n        /* \"#utility.yul\":15457:15577   */\n      iszero\n      tag_321\n      jumpi\n        /* \"#utility.yul\":15528:15567   */\n      tag_322\n        /* \"#utility.yul\":15565:15566   */\n      0x00\n        /* \"#utility.yul\":15558:15563   */\n      dup3\n        /* \"#utility.yul\":15528:15567   */\n      tag_168\n      jump\t// in\n    tag_322:\n        /* \"#utility.yul\":15501:15502   */\n      0x01\n        /* \"#utility.yul\":15494:15499   */\n      dup2\n        /* \"#utility.yul\":15490:15503   */\n      add\n        /* \"#utility.yul\":15481:15503   */\n      swap1\n      pop\n        /* \"#utility.yul\":15457:15577   */\n      jump(tag_319)\n    tag_321:\n        /* \"#utility.yul\":15397:15583   */\n      pop\n      pop\n      jump\t// out\n        /* \"#utility.yul\":15589:16132   */\n    tag_170:\n        /* \"#utility.yul\":15690:15692   */\n      0x1f\n        /* \"#utility.yul\":15685:15688   */\n      dup3\n        /* \"#utility.yul\":15682:15693   */\n      gt\n        /* \"#utility.yul\":15679:16125   */\n      iszero\n      tag_324\n      jumpi\n        /* \"#utility.yul\":15724:15762   */\n      tag_325\n        /* \"#utility.yul\":15756:15761   */\n      dup2\n        /* \"#utility.yul\":15724:15762   */\n      tag_159\n      jump\t// in\n    tag_325:\n        /* \"#utility.yul\":15808:15837   */\n      tag_326\n        /* \"#utility.yul\":15826:15836   */\n      dup5\n        /* \"#utility.yul\":15808:15837   */\n      tag_160\n      jump\t// in\n    tag_326:\n        /* \"#utility.yul\":15798:15806   */\n      dup2\n        /* \"#utility.yul\":15794:15838   */\n      add\n        /* \"#utility.yul\":15991:15993   */\n      0x20\n        /* \"#utility.yul\":15979:15989   */\n      dup6\n        /* \"#utility.yul\":15976:15994   */\n      lt\n        /* \"#utility.yul\":15973:16022   */\n      iszero\n      tag_327\n      jumpi\n        /* \"#utility.yul\":16012:16020   */\n      dup2\n        /* \"#utility.yul\":15997:16020   */\n      swap1\n      pop\n        /* \"#utility.yul\":15973:16022   */\n    tag_327:\n        /* \"#utility.yul\":16035:16115   */\n      tag_328\n        /* \"#utility.yul\":16091:16113   */\n      tag_329\n        /* \"#utility.yul\":16109:16112   */\n      dup6\n        /* \"#utility.yul\":16091:16113   */\n      tag_160\n      jump\t// in\n    tag_329:\n        /* \"#utility.yul\":16081:16089   */\n      dup4\n        /* \"#utility.yul\":16077:16114   */\n      add\n        /* \"#utility.yul\":16064:16075   */\n      dup3\n        /* \"#utility.yul\":16035:16115   */\n      tag_169\n      jump\t// in\n    tag_328:\n        /* \"#utility.yul\":15694:16125   */\n      pop\n      pop\n        /* \"#utility.yul\":15679:16125   */\n    tag_324:\n        /* \"#utility.yul\":15589:16132   */\n      pop\n      pop\n      pop\n      jump\t// out\n        /* \"#utility.yul\":16138:16255   */\n    tag_171:\n        /* \"#utility.yul\":16192:16200   */\n      0x00\n        /* \"#utility.yul\":16242:16247   */\n      dup3\n        /* \"#utility.yul\":16236:16240   */\n      dup3\n        /* \"#utility.yul\":16232:16248   */\n      shr\n        /* \"#utility.yul\":16211:16248   */\n      swap1\n      pop\n        /* \"#utility.yul\":16138:16255   */\n      swap3\n      swap2\n      pop\n      pop\n      jump\t// out\n        /* \"#utility.yul\":16261:16430   */\n    tag_172:\n        /* \"#utility.yul\":16305:16311   */\n      0x00\n        /* \"#utility.yul\":16338:16389   */\n      tag_332\n        /* \"#utility.yul\":16386:16387   */\n      0x00\n        /* \"#utility.yul\":16382:16388   */\n      not\n        /* \"#utility.yul\":16374:16379   */\n      dup5\n        /* \"#utility.yul\":16371:16372   */\n      0x08\n        /* \"#utility.yul\":16367:16380   */\n      mul\n        /* \"#utility.yul\":16338:16389   */\n      tag_171\n      jump\t// in\n    tag_332:\n        /* \"#utility.yul\":16334:16390   */\n      not\n        /* \"#utility.yul\":16419:16423   */\n      dup1\n        /* \"#utility.yul\":16413:16417   */\n      dup4\n        /* \"#utility.yul\":16409:16424   */\n      and\n        /* \"#utility.yul\":16399:16424   */\n      swap2\n      pop\n        /* \"#utility.yul\":16312:16430   */\n      pop\n        /* \"#utility.yul\":16261:16430   */\n      swap3\n      swap2\n      pop\n      pop\n      jump\t// out\n        /* \"#utility.yul\":16435:16730   */\n    tag_173:\n        /* \"#utility.yul\":16511:16515   */\n      0x00\n        /* \"#utility.yul\":16657:16686   */\n      tag_334\n        /* \"#utility.yul\":16682:16685   */\n      dup4\n        /* \"#utility.yul\":16676:16680   */\n      dup4\n        /* \"#utility.yul\":16657:16686   */\n      tag_172\n      jump\t// in\n    tag_334:\n        /* \"#utility.yul\":16649:16686   */\n      swap2\n      pop\n        /* \"#utility.yul\":16719:16722   */\n      dup3\n        /* \"#utility.yul\":16716:16717   */\n      0x02\n        /* \"#utility.yul\":16712:16723   */\n      mul\n        /* \"#utility.yul\":16706:16710   */\n      dup3\n        /* \"#utility.yul\":16703:16724   */\n      or\n        /* \"#utility.yul\":16695:16724   */\n      swap1\n      pop\n        /* \"#utility.yul\":16435:16730   */\n      swap3\n      swap2\n      pop\n      pop\n      jump\t// out\n        /* \"#utility.yul\":16735:18130   */\n    tag_60:\n        /* \"#utility.yul\":16852:16889   */\n      tag_336\n        /* \"#utility.yul\":16885:16888   */\n      dup3\n        /* \"#utility.yul\":16852:16889   */\n      tag_138\n      jump\t// in\n    tag_336:\n        /* \"#utility.yul\":16954:16972   */\n      0xffffffffffffffff\n        /* \"#utility.yul\":16946:16952   */\n      dup2\n        /* \"#utility.yul\":16943:16973   */\n      gt\n        /* \"#utility.yul\":16940:16996   */\n      iszero\n      tag_337\n      jumpi\n        /* \"#utility.yul\":16976:16994   */\n      tag_338\n      tag_157\n      jump\t// in\n    tag_338:\n        /* \"#utility.yul\":16940:16996   */\n    tag_337:\n        /* \"#utility.yul\":17020:17058   */\n      tag_339\n        /* \"#utility.yul\":17052:17056   */\n      dup3\n        /* \"#utility.yul\":17046:17057   */\n      sload\n        /* \"#utility.yul\":17020:17058   */\n      tag_72\n      jump\t// in\n    tag_339:\n        /* \"#utility.yul\":17105:17172   */\n      tag_340\n        /* \"#utility.yul\":17165:17171   */\n      dup3\n        /* \"#utility.yul\":17157:17163   */\n      dup3\n        /* \"#utility.yul\":17151:17155   */\n      dup6\n        /* \"#utility.yul\":17105:17172   */\n      tag_170\n      jump\t// in\n    tag_340:\n        /* \"#utility.yul\":17199:17200   */\n      0x00\n        /* \"#utility.yul\":17223:17227   */\n      0x20\n        /* \"#utility.yul\":17210:17227   */\n      swap1\n      pop\n        /* \"#utility.yul\":17255:17257   */\n      0x1f\n        /* \"#utility.yul\":17247:17253   */\n      dup4\n        /* \"#utility.yul\":17244:17258   */\n      gt\n        /* \"#utility.yul\":17272:17273   */\n      0x01\n        /* \"#utility.yul\":17267:17885   */\n      dup2\n      eq\n      tag_342\n      jumpi\n        /* \"#utility.yul\":17929:17930   */\n      0x00\n        /* \"#utility.yul\":17946:17952   */\n      dup5\n        /* \"#utility.yul\":17943:18020   */\n      iszero\n      tag_343\n      jumpi\n        /* \"#utility.yul\":17995:18004   */\n      dup3\n        /* \"#utility.yul\":17990:17993   */\n      dup8\n        /* \"#utility.yul\":17986:18005   */\n      add\n        /* \"#utility.yul\":17980:18006   */\n      mload\n        /* \"#utility.yul\":17971:18006   */\n      swap1\n      pop\n        /* \"#utility.yul\":17943:18020   */\n    tag_343:\n        /* \"#utility.yul\":18046:18113   */\n      tag_344\n        /* \"#utility.yul\":18106:18112   */\n      dup6\n        /* \"#utility.yul\":18099:18104   */\n      dup3\n        /* \"#utility.yul\":18046:18113   */\n      tag_173\n      jump\t// in\n    tag_344:\n        /* \"#utility.yul\":18040:18044   */\n      dup7\n        /* \"#utility.yul\":18033:18114   */\n      sstore\n        /* \"#utility.yul\":17902:18124   */\n      pop\n        /* \"#utility.yul\":17237:18124   */\n      jump(tag_341)\n        /* \"#utility.yul\":17267:17885   */\n    tag_342:\n        /* \"#utility.yul\":17319:17323   */\n      0x1f\n        /* \"#utility.yul\":17315:17324   */\n      not\n        /* \"#utility.yul\":17307:17313   */\n      dup5\n        /* \"#utility.yul\":17303:17325   */\n      and\n        /* \"#utility.yul\":17353:17390   */\n      tag_345\n        /* \"#utility.yul\":17385:17389   */\n      dup7\n        /* \"#utility.yul\":17353:17390   */\n      tag_159\n      jump\t// in\n    tag_345:\n        /* \"#utility.yul\":17412:17413   */\n      0x00\n        /* \"#utility.yul\":17426:17634   */\n    tag_346:\n        /* \"#utility.yul\":17440:17447   */\n      dup3\n        /* \"#utility.yul\":17437:17438   */\n      dup2\n        /* \"#utility.yul\":17434:17448   */\n      lt\n        /* \"#utility.yul\":17426:17634   */\n      iszero\n      tag_348\n      jumpi\n        /* \"#utility.yul\":17519:17528   */\n      dup5\n        /* \"#utility.yul\":17514:17517   */\n      dup10\n        /* \"#utility.yul\":17510:17529   */\n      add\n        /* \"#utility.yul\":17504:17530   */\n      mload\n        /* \"#utility.yul\":17496:17502   */\n      dup3\n        /* \"#utility.yul\":17489:17531   */\n      sstore\n        /* \"#utility.yul\":17570:17571   */\n      0x01\n        /* \"#utility.yul\":17562:17568   */\n      dup3\n        /* \"#utility.yul\":17558:17572   */\n      add\n        /* \"#utility.yul\":17548:17572   */\n      swap2\n      pop\n        /* \"#utility.yul\":17617:17619   */\n      0x20\n        /* \"#utility.yul\":17606:17615   */\n      dup6\n        /* \"#utility.yul\":17602:17620   */\n      add\n        /* \"#utility.yul\":17589:17620   */\n      swap5\n      pop\n        /* \"#utility.yul\":17463:17467   */\n      0x20\n        /* \"#utility.yul\":17460:17461   */\n      dup2\n        /* \"#utility.yul\":17456:17468   */\n      add\n        /* \"#utility.yul\":17451:17468   */\n      swap1\n      pop\n        /* \"#utility.yul\":17426:17634   */\n      jump(tag_346)\n    tag_348:\n        /* \"#utility.yul\":17662:17668   */\n      dup7\n        /* \"#utility.yul\":17653:17660   */\n      dup4\n        /* \"#utility.yul\":17650:17669   */\n      lt\n        /* \"#utility.yul\":17647:17826   */\n      iszero\n      tag_349\n      jumpi\n        /* \"#utility.yul\":17720:17729   */\n      dup5\n        /* \"#utility.yul\":17715:17718   */\n      dup10\n        /* \"#utility.yul\":17711:17730   */\n      add\n        /* \"#utility.yul\":17705:17731   */\n      mload\n        /* \"#utility.yul\":17763:17811   */\n      tag_350\n        /* \"#utility.yul\":17805:17809   */\n      0x1f\n        /* \"#utility.yul\":17797:17803   */\n      dup10\n        /* \"#utility.yul\":17793:17810   */\n      and\n        /* \"#utility.yul\":17782:17791   */\n      dup3\n        /* \"#utility.yul\":17763:17811   */\n      tag_172\n      jump\t// in\n    tag_350:\n        /* \"#utility.yul\":17755:17761   */\n      dup4\n        /* \"#utility.yul\":17748:17812   */\n      sstore\n        /* \"#utility.yul\":17670:17826   */\n      pop\n        /* \"#utility.yul\":17647:17826   */\n    tag_349:\n        /* \"#utility.yul\":17872:17873   */\n      0x01\n        /* \"#utility.yul\":17868:17869   */\n      0x02\n        /* \"#utility.yul\":17860:17866   */\n      dup9\n        /* \"#utility.yul\":17856:17870   */\n      mul\n        /* \"#utility.yul\":17852:17874   */\n      add\n        /* \"#utility.yul\":17846:17850   */\n      dup9\n        /* \"#utility.yul\":17839:17875   */\n      sstore\n        /* \"#utility.yul\":17274:17885   */\n      pop\n      pop\n      pop\n        /* \"#utility.yul\":17237:18124   */\n    tag_341:\n      pop\n        /* \"#utility.yul\":16827:18130   */\n      pop\n      pop\n      pop\n        /* \"#utility.yul\":16735:18130   */\n      pop\n      pop\n      jump\t// out\n        /* \"#utility.yul\":18136:18284   */\n    tag_174:\n        /* \"#utility.yul\":18234:18240   */\n      dup3\n        /* \"#utility.yul\":18229:18232   */\n      dup2\n        /* \"#utility.yul\":18224:18227   */\n      dup4\n        /* \"#utility.yul\":18211:18241   */\n      calldatacopy\n        /* \"#utility.yul\":18275:18276   */\n      0x00\n        /* \"#utility.yul\":18266:18272   */\n      dup4\n        /* \"#utility.yul\":18261:18264   */\n      dup4\n        /* \"#utility.yul\":18257:18273   */\n      add\n        /* \"#utility.yul\":18250:18277   */\n      mstore\n        /* \"#utility.yul\":18136:18284   */\n      pop\n      pop\n      pop\n      jump\t// out\n        /* \"#utility.yul\":18314:18631   */\n    tag_175:\n        /* \"#utility.yul\":18412:18415   */\n      0x00\n        /* \"#utility.yul\":18433:18504   */\n      tag_353\n        /* \"#utility.yul\":18497:18503   */\n      dup4\n        /* \"#utility.yul\":18492:18495   */\n      dup6\n        /* \"#utility.yul\":18433:18504   */\n      tag_150\n      jump\t// in\n    tag_353:\n        /* \"#utility.yul\":18426:18504   */\n      swap4\n      pop\n        /* \"#utility.yul\":18514:18570   */\n      tag_354\n        /* \"#utility.yul\":18563:18569   */\n      dup4\n        /* \"#utility.yul\":18558:18561   */\n      dup6\n        /* \"#utility.yul\":18551:18556   */\n      dup5\n        /* \"#utility.yul\":18514:18570   */\n      tag_174\n      jump\t// in\n    tag_354:\n        /* \"#utility.yul\":18595:18624   */\n      tag_355\n        /* \"#utility.yul\":18617:18623   */\n      dup4\n        /* \"#utility.yul\":18595:18624   */\n      tag_141\n      jump\t// in\n    tag_355:\n        /* \"#utility.yul\":18590:18593   */\n      dup5\n        /* \"#utility.yul\":18586:18625   */\n      add\n        /* \"#utility.yul\":18579:18625   */\n      swap1\n      pop\n        /* \"#utility.yul\":18314:18631   */\n      swap4\n      swap3\n      pop\n      pop\n      pop\n      jump\t// out\n        /* \"#utility.yul\":18637:18970   */\n    tag_63:\n        /* \"#utility.yul\":18760:18764   */\n      0x00\n        /* \"#utility.yul\":18798:18800   */\n      0x20\n        /* \"#utility.yul\":18787:18796   */\n      dup3\n        /* \"#utility.yul\":18783:18801   */\n      add\n        /* \"#utility.yul\":18775:18801   */\n      swap1\n      pop\n        /* \"#utility.yul\":18847:18856   */\n      dup2\n        /* \"#utility.yul\":18841:18845   */\n      dup2\n        /* \"#utility.yul\":18837:18857   */\n      sub\n        /* \"#utility.yul\":18833:18834   */\n      0x00\n        /* \"#utility.yul\":18822:18831   */\n      dup4\n        /* \"#utility.yul\":18818:18835   */\n      add\n        /* \"#utility.yul\":18811:18858   */\n      mstore\n        /* \"#utility.yul\":18875:18963   */\n      tag_357\n        /* \"#utility.yul\":18958:18962   */\n      dup2\n        /* \"#utility.yul\":18949:18955   */\n      dup5\n        /* \"#utility.yul\":18941:18947   */\n      dup7\n        /* \"#utility.yul\":18875:18963   */\n      tag_175\n      jump\t// in\n    tag_357:\n        /* \"#utility.yul\":18867:18963   */\n      swap1\n      pop\n        /* \"#utility.yul\":18637:18970   */\n      swap4\n      swap3\n      pop\n      pop\n      pop\n      jump\t// out\n        /* \"#utility.yul\":18976:19158   */\n    tag_176:\n        /* \"#utility.yul\":19116:19150   */\n      0x52656d6f76616c204572726f723a204d616e61676572206e6f7420666f756e64\n        /* \"#utility.yul\":19112:19113   */\n      0x00\n        /* \"#utility.yul\":19104:19110   */\n      dup3\n        /* \"#utility.yul\":19100:19114   */\n      add\n        /* \"#utility.yul\":19093:19151   */\n      mstore\n        /* \"#utility.yul\":18976:19158   */\n      pop\n      jump\t// out\n        /* \"#utility.yul\":19164:19530   */\n    tag_177:\n        /* \"#utility.yul\":19306:19309   */\n      0x00\n        /* \"#utility.yul\":19327:19394   */\n      tag_360\n        /* \"#utility.yul\":19391:19393   */\n      0x20\n        /* \"#utility.yul\":19386:19389   */\n      dup4\n        /* \"#utility.yul\":19327:19394   */\n      tag_150\n      jump\t// in\n    tag_360:\n        /* \"#utility.yul\":19320:19394   */\n      swap2\n      pop\n        /* \"#utility.yul\":19403:19496   */\n      tag_361\n        /* \"#utility.yul\":19492:19495   */\n      dup3\n        /* \"#utility.yul\":19403:19496   */\n      tag_176\n      jump\t// in\n    tag_361:\n        /* \"#utility.yul\":19521:19523   */\n      0x20\n        /* \"#utility.yul\":19516:19519   */\n      dup3\n        /* \"#utility.yul\":19512:19524   */\n      add\n        /* \"#utility.yul\":19505:19524   */\n      swap1\n      pop\n        /* \"#utility.yul\":19164:19530   */\n      swap2\n      swap1\n      pop\n      jump\t// out\n        /* \"#utility.yul\":19536:19955   */\n    tag_95:\n        /* \"#utility.yul\":19702:19706   */\n      0x00\n        /* \"#utility.yul\":19740:19742   */\n      0x20\n        /* \"#utility.yul\":19729:19738   */\n      dup3\n        /* \"#utility.yul\":19725:19743   */\n      add\n        /* \"#utility.yul\":19717:19743   */\n      swap1\n      pop\n        /* \"#utility.yul\":19789:19798   */\n      dup2\n        /* \"#utility.yul\":19783:19787   */\n      dup2\n        /* \"#utility.yul\":19779:19799   */\n      sub\n        /* \"#utility.yul\":19775:19776   */\n      0x00\n        /* \"#utility.yul\":19764:19773   */\n      dup4\n        /* \"#utility.yul\":19760:19777   */\n      add\n        /* \"#utility.yul\":19753:19800   */\n      mstore\n        /* \"#utility.yul\":19817:19948   */\n      tag_363\n        /* \"#utility.yul\":19943:19947   */\n      dup2\n        /* \"#utility.yul\":19817:19948   */\n      tag_177\n      jump\t// in\n    tag_363:\n        /* \"#utility.yul\":19809:19948   */\n      swap1\n      pop\n        /* \"#utility.yul\":19536:19955   */\n      swap2\n      swap1\n      pop\n      jump\t// out\n        /* \"#utility.yul\":19961:20188   */\n    tag_178:\n        /* \"#utility.yul\":20101:20135   */\n      0x417070726f76616c204572726f723a204d616e6167657220616c726561647920\n        /* \"#utility.yul\":20097:20098   */\n      0x00\n        /* \"#utility.yul\":20089:20095   */\n      dup3\n        /* \"#utility.yul\":20085:20099   */\n      add\n        /* \"#utility.yul\":20078:20136   */\n      mstore\n        /* \"#utility.yul\":20170:20180   */\n      0x617070726f766564000000000000000000000000000000000000000000000000\n        /* \"#utility.yul\":20165:20167   */\n      0x20\n        /* \"#utility.yul\":20157:20163   */\n      dup3\n        /* \"#utility.yul\":20153:20168   */\n      add\n        /* \"#utility.yul\":20146:20181   */\n      mstore\n        /* \"#utility.yul\":19961:20188   */\n      pop\n      jump\t// out\n        /* \"#utility.yul\":20194:20560   */\n    tag_179:\n        /* \"#utility.yul\":20336:20339   */\n      0x00\n        /* \"#utility.yul\":20357:20424   */\n      tag_366\n        /* \"#utility.yul\":20421:20423   */\n      0x28\n        /* \"#utility.yul\":20416:20419   */\n      dup4\n        /* \"#utility.yul\":20357:20424   */\n      tag_150\n      jump\t// in\n    tag_366:\n        /* \"#utility.yul\":20350:20424   */\n      swap2\n      pop\n        /* \"#utility.yul\":20433:20526   */\n      tag_367\n        /* \"#utility.yul\":20522:20525   */\n      dup3\n        /* \"#utility.yul\":20433:20526   */\n      tag_178\n      jump\t// in\n    tag_367:\n        /* \"#utility.yul\":20551:20553   */\n      0x40\n        /* \"#utility.yul\":20546:20549   */\n      dup3\n        /* \"#utility.yul\":20542:20554   */\n      add\n        /* \"#utility.yul\":20535:20554   */\n      swap1\n      pop\n        /* \"#utility.yul\":20194:20560   */\n      swap2\n      swap1\n      pop\n      jump\t// out\n        /* \"#utility.yul\":20566:20985   */\n    tag_109:\n        /* \"#utility.yul\":20732:20736   */\n      0x00\n        /* \"#utility.yul\":20770:20772   */\n      0x20\n        /* \"#utility.yul\":20759:20768   */\n      dup3\n        /* \"#utility.yul\":20755:20773   */\n      add\n        /* \"#utility.yul\":20747:20773   */\n      swap1\n      pop\n        /* \"#utility.yul\":20819:20828   */\n      dup2\n        /* \"#utility.yul\":20813:20817   */\n      dup2\n        /* \"#utility.yul\":20809:20829   */\n      sub\n        /* \"#utility.yul\":20805:20806   */\n      0x00\n        /* \"#utility.yul\":20794:20803   */\n      dup4\n        /* \"#utility.yul\":20790:20807   */\n      add\n        /* \"#utility.yul\":20783:20830   */\n      mstore\n        /* \"#utility.yul\":20847:20978   */\n      tag_369\n        /* \"#utility.yul\":20973:20977   */\n      dup2\n        /* \"#utility.yul\":20847:20978   */\n      tag_179\n      jump\t// in\n    tag_369:\n        /* \"#utility.yul\":20839:20978   */\n      swap1\n      pop\n        /* \"#utility.yul\":20566:20985   */\n      swap2\n      swap1\n      pop\n      jump\t// out\n        /* \"#utility.yul\":20991:21224   */\n    tag_180:\n        /* \"#utility.yul\":21131:21165   */\n      0x526567697374726174696f6e204572726f723a2050726f6475637420616c7265\n        /* \"#utility.yul\":21127:21128   */\n      0x00\n        /* \"#utility.yul\":21119:21125   */\n      dup3\n        /* \"#utility.yul\":21115:21129   */\n      add\n        /* \"#utility.yul\":21108:21166   */\n      mstore\n        /* \"#utility.yul\":21200:21216   */\n      0x6164792072656769737465726564000000000000000000000000000000000000\n        /* \"#utility.yul\":21195:21197   */\n      0x20\n        /* \"#utility.yul\":21187:21193   */\n      dup3\n        /* \"#utility.yul\":21183:21198   */\n      add\n        /* \"#utility.yul\":21176:21217   */\n      mstore\n        /* \"#utility.yul\":20991:21224   */\n      pop\n      jump\t// out\n        /* \"#utility.yul\":21230:21596   */\n    tag_181:\n        /* \"#utility.yul\":21372:21375   */\n      0x00\n        /* \"#utility.yul\":21393:21460   */\n      tag_372\n        /* \"#utility.yul\":21457:21459   */\n      0x2e\n        /* \"#utility.yul\":21452:21455   */\n      dup4\n        /* \"#utility.yul\":21393:21460   */\n      tag_150\n      jump\t// in\n    tag_372:\n        /* \"#utility.yul\":21386:21460   */\n      swap2\n      pop\n        /* \"#utility.yul\":21469:21562   */\n      tag_373\n        /* \"#utility.yul\":21558:21561   */\n      dup3\n        /* \"#utility.yul\":21469:21562   */\n      tag_180\n      jump\t// in\n    tag_373:\n        /* \"#utility.yul\":21587:21589   */\n      0x40\n        /* \"#utility.yul\":21582:21585   */\n      dup3\n        /* \"#utility.yul\":21578:21590   */\n      add\n        /* \"#utility.yul\":21571:21590   */\n      swap1\n      pop\n        /* \"#utility.yul\":21230:21596   */\n      swap2\n      swap1\n      pop\n      jump\t// out\n        /* \"#utility.yul\":21602:22021   */\n    tag_119:\n        /* \"#utility.yul\":21768:21772   */\n      0x00\n        /* \"#utility.yul\":21806:21808   */\n      0x20\n        /* \"#utility.yul\":21795:21804   */\n      dup3\n        /* \"#utility.yul\":21791:21809   */\n      add\n        /* \"#utility.yul\":21783:21809   */\n      swap1\n      pop\n        /* \"#utility.yul\":21855:21864   */\n      dup2\n        /* \"#utility.yul\":21849:21853   */\n      dup2\n        /* \"#utility.yul\":21845:21865   */\n      sub\n        /* \"#utility.yul\":21841:21842   */\n      0x00\n        /* \"#utility.yul\":21830:21839   */\n      dup4\n        /* \"#utility.yul\":21826:21843   */\n      add\n        /* \"#utility.yul\":21819:21866   */\n      mstore\n        /* \"#utility.yul\":21883:22014   */\n      tag_375\n        /* \"#utility.yul\":22009:22013   */\n      dup2\n        /* \"#utility.yul\":21883:22014   */\n      tag_181\n      jump\t// in\n    tag_375:\n        /* \"#utility.yul\":21875:22014   */\n      swap1\n      pop\n        /* \"#utility.yul\":21602:22021   */\n      swap2\n      swap1\n      pop\n      jump\t// out\n\n    auxdata: 0xa2646970667358221220787e706dccf2c8f80714ff4ebb15189d8338241c2233a250267174ca85fa2db364736f6c634300081a0033\n}\n",
				"bytecode": {
					"linkReferences": {},
					"object": "6080604052348015600e575f80fd5b50600160025f3373ffffffffffffffffffffffffffffffffffffffff1673ffffffffffffffffffffffffffffffffffffffff1681526020019081526020015f205f6101000a81548160ff0219169083151502179055503373ffffffffffffffffffffffffffffffffffffffff167f450ad6a6ac3c2e8b8a02820cb64d6102a1f91ebe1fa3848a0cfc45c870c043af60405160405180910390a2611c35806100b45f395ff3fe608060405234801561000f575f80fd5b5060043610610086575f3560e01c8063ac18de4311610059578063ac18de4314610111578063b33712c51461012d578063b5eee72214610137578063c08e0f961461015357610086565b8063439766ce1461008a5780635abdcb55146100945780636d6bb057146100b0578063767bdff1146100e0575b5f80fd5b61009261016f565b005b6100ae60048036038101906100a9919061123b565b610214565b005b6100ca60048036038101906100c591906112de565b61069e565b6040516100d791906114df565b60405180910390f35b6100fa60048036038101906100f591906112de565b610949565b60405161010892919061151d565b60405180910390f35b61012b60048036038101906101269190611544565b610a63565b005b610135610c5e565b005b610151600480360381019061014c9190611544565b610d02565b005b61016d600480360381019061016891906112de565b610eff565b005b60025f3373ffffffffffffffffffffffffffffffffffffffff1673ffffffffffffffffffffffffffffffffffffffff1681526020019081526020015f205f9054906101000a900460ff166101f8576040517f08c379a00000000000000000000000000000000000000000000000000000000081526004016101ef906115ef565b60405180910390fd5b600160035f6101000a81548160ff021916908315150217905550565b60025f3373ffffffffffffffffffffffffffffffffffffffff1673ffffffffffffffffffffffffffffffffffffffff1681526020019081526020015f205f9054906101000a900460ff1661029d576040517f08c379a0000000000000000000000000000000000000000000000000000000008152600401610294906115ef565b60405180910390fd5b8560015f8281526020019081526020015f206001015f9054906101000a900460ff166102fe576040517f08c379a00000000000000000000000000000000000000000000000000000000081526004016102f59061167d565b60405180910390fd5b60035f9054906101000a900460ff161561034d576040517f08c379a00000000000000000000000000000000000000000000000000000000081526004016103449061170b565b60405180910390fd5b5f60015f8981526020019081526020015f206040518060800160405290815f8201548152602001600182015f9054906101000a900460ff161515151581526020016001820160019054906101000a900473ffffffffffffffffffffffffffffffffffffffff1673ffffffffffffffffffffffffffffffffffffffff1673ffffffffffffffffffffffffffffffffffffffff16815260200160028201548152505090505f816040015190505f808a81526020019081526020015f206040518060c001604052808b81526020018a8a8080601f0160208091040260200160405190810160405280939291908181526020018383808284375f81840152601f19601f8201169050808301925050505050505081526020018373ffffffffffffffffffffffffffffffffffffffff1681526020018873ffffffffffffffffffffffffffffffffffffffff16815260200142815260200187878080601f0160208091040260200160405190810160405280939291908181526020018383808284375f81840152601f19601f82011690508083019250505050505050815250908060018154018082558091505060019003905f5260205f2090600602015f909190919091505f820151815f015560208201518160010190816105299190611950565b506040820151816002015f6101000a81548173ffffffffffffffffffffffffffffffffffffffff021916908373ffffffffffffffffffffffffffffffffffffffff1602179055506060820151816003015f6101000a81548173ffffffffffffffffffffffffffffffffffffffff021916908373ffffffffffffffffffffffffffffffffffffffff1602179055506080820151816004015560a08201518160050190816105d59190611950565b5050508560015f8b81526020019081526020015f2060010160016101000a81548173ffffffffffffffffffffffffffffffffffffffff021916908373ffffffffffffffffffffffffffffffffffffffff1602179055508573ffffffffffffffffffffffffffffffffffffffff168173ffffffffffffffffffffffffffffffffffffffff168a7fc99480a8e2a4ad60c7560b50b8734177c7bd1eb1d324232f3c82f30f3238cd128b8b60405161068b929190611a59565b60405180910390a4505050505050505050565b60608160015f8281526020019081526020015f206001015f9054906101000a900460ff16610701576040517f08c379a00000000000000000000000000000000000000000000000000000000081526004016106f89061167d565b60405180910390fd5b5f808481526020019081526020015f20805480602002602001604051908101604052809291908181526020015f905b8282101561093d578382905f5260205f2090600602016040518060c00160405290815f820154815260200160018201805461076a90611783565b80601f016020809104026020016040519081016040528092919081815260200182805461079690611783565b80156107e15780601f106107b8576101008083540402835291602001916107e1565b820191905f5260205f20905b8154815290600101906020018083116107c457829003601f168201915b50505050508152602001600282015f9054906101000a900473ffffffffffffffffffffffffffffffffffffffff1673ffffffffffffffffffffffffffffffffffffffff1673ffffffffffffffffffffffffffffffffffffffff168152602001600382015f9054906101000a900473ffffffffffffffffffffffffffffffffffffffff1673ffffffffffffffffffffffffffffffffffffffff1673ffffffffffffffffffffffffffffffffffffffff168152602001600482015481526020016005820180546108ae90611783565b80601f01602080910402602001604051908101604052809291908181526020018280546108da90611783565b80156109255780601f106108fc57610100808354040283529160200191610925565b820191905f5260205f20905b81548152906001019060200180831161090857829003601f168201915b50505050508152505081526020019060010190610730565b50505050915050919050565b5f808260015f8281526020019081526020015f206001015f9054906101000a900460ff166109ac576040517f08c379a00000000000000000000000000000000000000000000000000000000081526004016109a39061167d565b60405180910390fd5b5f60015f8681526020019081526020015f206040518060800160405290815f8201548152602001600182015f9054906101000a900460ff161515151581526020016001820160019054906101000a900473ffffffffffffffffffffffffffffffffffffffff1673ffffffffffffffffffffffffffffffffffffffff1673ffffffffffffffffffffffffffffffffffffffff168152602001600282015481525050905080604001518160600151935093505050915091565b60025f3373ffffffffffffffffffffffffffffffffffffffff1673ffffffffffffffffffffffffffffffffffffffff1681526020019081526020015f205f9054906101000a900460ff16610aec576040517f08c379a0000000000000000000000000000000000000000000000000000000008152600401610ae3906115ef565b60405180910390fd5b60035f9054906101000a900460ff1615610b3b576040517f08c379a0000000000000000000000000000000000000000000000000000000008152600401610b329061170b565b60405180910390fd5b60025f8273ffffffffffffffffffffffffffffffffffffffff1673ffffffffffffffffffffffffffffffffffffffff1681526020019081526020015f205f9054906101000a900460ff16610bc4576040517f08c379a0000000000000000000000000000000000000000000000000000000008152600401610bbb90611ac5565b60405180910390fd5b5f60025f8373ffffffffffffffffffffffffffffffffffffffff1673ffffffffffffffffffffffffffffffffffffffff1681526020019081526020015f205f6101000a81548160ff0219169083151502179055508073ffffffffffffffffffffffffffffffffffffffff167fef69f7d97228658c92417be1b16b19058315de71fecb435d07b7d23728b6bd3160405160405180910390a250565b60025f3373ffffffffffffffffffffffffffffffffffffffff1673ffffffffffffffffffffffffffffffffffffffff1681526020019081526020015f205f9054906101000a900460ff16610ce7576040517f08c379a0000000000000000000000000000000000000000000000000000000008152600401610cde906115ef565b60405180910390fd5b5f60035f6101000a81548160ff021916908315150217905550565b60025f3373ffffffffffffffffffffffffffffffffffffffff1673ffffffffffffffffffffffffffffffffffffffff1681526020019081526020015f205f9054906101000a900460ff16610d8b576040517f08c379a0000000000000000000000000000000000000000000000000000000008152600401610d82906115ef565b60405180910390fd5b60035f9054906101000a900460ff1615610dda576040517f08c379a0000000000000000000000000000000000000000000000000000000008152600401610dd19061170b565b60405180910390fd5b60025f8273ffffffffffffffffffffffffffffffffffffffff1673ffffffffffffffffffffffffffffffffffffffff1681526020019081526020015f205f9054906101000a900460ff1615610e64576040517f08c379a0000000000000000000000000000000000000000000000000000000008152600401610e5b90611b53565b60405180910390fd5b600160025f8373ffffffffffffffffffffffffffffffffffffffff1673ffffffffffffffffffffffffffffffffffffffff1681526020019081526020015f205f6101000a81548160ff0219169083151502179055508073ffffffffffffffffffffffffffffffffffffffff167f450ad6a6ac3c2e8b8a02820cb64d6102a1f91ebe1fa3848a0cfc45c870c043af60405160405180910390a250565b60025f3373ffffffffffffffffffffffffffffffffffffffff1673ffffffffffffffffffffffffffffffffffffffff1681526020019081526020015f205f9054906101000a900460ff16610f88576040517f08c379a0000000000000000000000000000000000000000000000000000000008152600401610f7f906115ef565b60405180910390fd5b60035f9054906101000a900460ff1615610fd7576040517f08c379a0000000000000000000000000000000000000000000000000000000008152600401610fce9061170b565b60405180910390fd5b60015f8281526020019081526020015f206001015f9054906101000a900460ff1615611038576040517f08c379a000000000000000000000000000000000000000000000000000000000815260040161102f90611be1565b60405180910390fd5b60405180608001604052808281526020016001151581526020013373ffffffffffffffffffffffffffffffffffffffff1681526020014281525060015f8381526020019081526020015f205f820151815f01556020820151816001015f6101000a81548160ff02191690831515021790555060408201518160010160016101000a81548173ffffffffffffffffffffffffffffffffffffffff021916908373ffffffffffffffffffffffffffffffffffffffff160217905550606082015181600201559050503373ffffffffffffffffffffffffffffffffffffffff16817f73e014c0a076665d9511a27e878fadccb6d7171f5754ba1167a670023760b01560405160405180910390a350565b5f80fd5b5f80fd5b5f819050919050565b61115f8161114d565b8114611169575f80fd5b50565b5f8135905061117a81611156565b92915050565b5f80fd5b5f80fd5b5f80fd5b5f8083601f8401126111a1576111a0611180565b5b8235905067ffffffffffffffff8111156111be576111bd611184565b5b6020830191508360018202830111156111da576111d9611188565b5b9250929050565b5f73ffffffffffffffffffffffffffffffffffffffff82169050919050565b5f61120a826111e1565b9050919050565b61121a81611200565b8114611224575f80fd5b50565b5f8135905061123581611211565b92915050565b5f805f805f806080878903121561125557611254611145565b5b5f61126289828a0161116c565b965050602087013567ffffffffffffffff81111561128357611282611149565b5b61128f89828a0161118c565b955095505060406112a289828a01611227565b935050606087013567ffffffffffffffff8111156112c3576112c2611149565b5b6112cf89828a0161118c565b92509250509295509295509295565b5f602082840312156112f3576112f2611145565b5b5f6113008482850161116c565b91505092915050565b5f81519050919050565b5f82825260208201905092915050565b5f819050602082019050919050565b61133b8161114d565b82525050565b5f81519050919050565b5f82825260208201905092915050565b8281835e5f83830152505050565b5f601f19601f8301169050919050565b5f61138382611341565b61138d818561134b565b935061139d81856020860161135b565b6113a681611369565b840191505092915050565b6113ba81611200565b82525050565b5f60c083015f8301516113d55f860182611332565b50602083015184820360208601526113ed8282611379565b915050604083015161140260408601826113b1565b50606083015161141560608601826113b1565b5060808301516114286080860182611332565b5060a083015184820360a08601526114408282611379565b9150508091505092915050565b5f61145883836113c0565b905092915050565b5f602082019050919050565b5f61147682611309565b6114808185611313565b93508360208202850161149285611323565b805f5b858110156114cd57848403895281516114ae858261144d565b94506114b983611460565b925060208a01995050600181019050611495565b50829750879550505050505092915050565b5f6020820190508181035f8301526114f7818461146c565b905092915050565b61150881611200565b82525050565b6115178161114d565b82525050565b5f6040820190506115305f8301856114ff565b61153d602083018461150e565b9392505050565b5f6020828403121561155957611558611145565b5b5f61156684828501611227565b91505092915050565b5f82825260208201905092915050565b7f4163636573732044656e6965643a204e6f7420616e20617574686f72697a65645f8201527f206d616e61676572000000000000000000000000000000000000000000000000602082015250565b5f6115d960288361156f565b91506115e48261157f565b604082019050919050565b5f6020820190508181035f830152611606816115cd565b9050919050565b7f5175657279204572726f723a2050726f64756374206e6f7420726567697374655f8201527f7265640000000000000000000000000000000000000000000000000000000000602082015250565b5f61166760238361156f565b91506116728261160d565b604082019050919050565b5f6020820190508181035f8301526116948161165b565b9050919050565b7f4f7065726174696f6e204572726f723a20436f6e7472616374206973207061755f8201527f7365640000000000000000000000000000000000000000000000000000000000602082015250565b5f6116f560238361156f565b91506117008261169b565b604082019050919050565b5f6020820190508181035f830152611722816116e9565b9050919050565b7f4e487b71000000000000000000000000000000000000000000000000000000005f52604160045260245ffd5b7f4e487b71000000000000000000000000000000000000000000000000000000005f52602260045260245ffd5b5f600282049050600182168061179a57607f821691505b6020821081036117ad576117ac611756565b5b50919050565b5f819050815f5260205f209050919050565b5f6020601f8301049050919050565b5f82821b905092915050565b5f6008830261180f7fffffffffffffffffffffffffffffffffffffffffffffffffffffffffffffffff826117d4565b61181986836117d4565b95508019841693508086168417925050509392505050565b5f819050919050565b5f61185461184f61184a8461114d565b611831565b61114d565b9050919050565b5f819050919050565b61186d8361183a565b6118816118798261185b565b8484546117e0565b825550505050565b5f90565b611895611889565b6118a0818484611864565b505050565b5b818110156118c3576118b85f8261188d565b6001810190506118a6565b5050565b601f821115611908576118d9816117b3565b6118e2846117c5565b810160208510156118f1578190505b6119056118fd856117c5565b8301826118a5565b50505b505050565b5f82821c905092915050565b5f6119285f198460080261190d565b1980831691505092915050565b5f6119408383611919565b9150826002028217905092915050565b61195982611341565b67ffffffffffffffff81111561197257611971611729565b5b61197c8254611783565b6119878282856118c7565b5f60209050601f8311600181146119b8575f84156119a6578287015190505b6119b08582611935565b865550611a17565b601f1984166119c6866117b3565b5f5b828110156119ed578489015182556001820191506020850194506020810190506119c8565b86831015611a0a5784890151611a06601f891682611919565b8355505b6001600288020188555050505b505050505050565b828183375f83830152505050565b5f611a38838561156f565b9350611a45838584611a1f565b611a4e83611369565b840190509392505050565b5f6020820190508181035f830152611a72818486611a2d565b90509392505050565b7f52656d6f76616c204572726f723a204d616e61676572206e6f7420666f756e645f82015250565b5f611aaf60208361156f565b9150611aba82611a7b565b602082019050919050565b5f6020820190508181035f830152611adc81611aa3565b9050919050565b7f417070726f76616c204572726f723a204d616e6167657220616c7265616479205f8201527f617070726f766564000000000000000000000000000000000000000000000000602082015250565b5f611b3d60288361156f565b9150611b4882611ae3565b604082019050919050565b5f6020820190508181035f830152611b6a81611b31565b9050919050565b7f526567697374726174696f6e204572726f723a2050726f6475637420616c72655f8201527f6164792072656769737465726564000000000000000000000000000000000000602082015250565b5f611bcb602e8361156f565b9150611bd682611b71565b604082019050919050565b5f6020820190508181035f830152611bf881611bbf565b905091905056fea2646970667358221220787e706dccf2c8f80714ff4ebb15189d8338241c2233a250267174ca85fa2db364736f6c634300081a0033",
					"opcodes": "PUSH1 0x80 PUSH1 0x40 MSTORE CALLVALUE DUP1 ISZERO PUSH1 0xE JUMPI PUSH0 DUP1 REVERT JUMPDEST POP PUSH1 0x1 PUSH1 0x2 PUSH0 CALLER PUSH20 0xFFFFFFFFFFFFFFFFFFFFFFFFFFFFFFFFFFFFFFFF AND PUSH20 0xFFFFFFFFFFFFFFFFFFFFFFFFFFFFFFFFFFFFFFFF AND DUP2 MSTORE PUSH1 0x20 ADD SWAP1 DUP2 MSTORE PUSH1 0x20 ADD PUSH0 KECCAK256 PUSH0 PUSH2 0x100 EXP DUP2 SLOAD DUP2 PUSH1 0xFF MUL NOT AND SWAP1 DUP4 ISZERO ISZERO MUL OR SWAP1 SSTORE POP CALLER PUSH20 0xFFFFFFFFFFFFFFFFFFFFFFFFFFFFFFFFFFFFFFFF AND PUSH32 0x450AD6A6AC3C2E8B8A02820CB64D6102A1F91EBE1FA3848A0CFC45C870C043AF PUSH1 0x40 MLOAD PUSH1 0x40 MLOAD DUP1 SWAP2 SUB SWAP1 LOG2 PUSH2 0x1C35 DUP1 PUSH2 0xB4 PUSH0 CODECOPY PUSH0 RETURN INVALID PUSH1 0x80 PUSH1 0x40 MSTORE CALLVALUE DUP1 ISZERO PUSH2 0xF JUMPI PUSH0 DUP1 REVERT JUMPDEST POP PUSH1 0x4 CALLDATASIZE LT PUSH2 0x86 JUMPI PUSH0 CALLDATALOAD PUSH1 0xE0 SHR DUP1 PUSH4 0xAC18DE43 GT PUSH2 0x59 JUMPI DUP1 PUSH4 0xAC18DE43 EQ PUSH2 0x111 JUMPI DUP1 PUSH4 0xB33712C5 EQ PUSH2 0x12D JUMPI DUP1 PUSH4 0xB5EEE722 EQ PUSH2 0x137 JUMPI DUP1 PUSH4 0xC08E0F96 EQ PUSH2 0x153 JUMPI PUSH2 0x86 JUMP JUMPDEST DUP1 PUSH4 0x439766CE EQ PUSH2 0x8A JUMPI DUP1 PUSH4 0x5ABDCB55 EQ PUSH2 0x94 JUMPI DUP1 PUSH4 0x6D6BB057 EQ PUSH2 0xB0 JUMPI DUP1 PUSH4 0x767BDFF1 EQ PUSH2 0xE0 JUMPI JUMPDEST PUSH0 DUP1 REVERT JUMPDEST PUSH2 0x92 PUSH2 0x16F JUMP JUMPDEST STOP JUMPDEST PUSH2 0xAE PUSH1 0x4 DUP1 CALLDATASIZE SUB DUP2 ADD SWAP1 PUSH2 0xA9 SWAP2 SWAP1 PUSH2 0x123B JUMP JUMPDEST PUSH2 0x214 JUMP JUMPDEST STOP JUMPDEST PUSH2 0xCA PUSH1 0x4 DUP1 CALLDATASIZE SUB DUP2 ADD SWAP1 PUSH2 0xC5 SWAP2 SWAP1 PUSH2 0x12DE JUMP JUMPDEST PUSH2 0x69E JUMP JUMPDEST PUSH1 0x40 MLOAD PUSH2 0xD7 SWAP2 SWAP1 PUSH2 0x14DF JUMP JUMPDEST PUSH1 0x40 MLOAD DUP1 SWAP2 SUB SWAP1 RETURN JUMPDEST PUSH2 0xFA PUSH1 0x4 DUP1 CALLDATASIZE SUB DUP2 ADD SWAP1 PUSH2 0xF5 SWAP2 SWAP1 PUSH2 0x12DE JUMP JUMPDEST PUSH2 0x949 JUMP JUMPDEST PUSH1 0x40 MLOAD PUSH2 0x108 SWAP3 SWAP2 SWAP1 PUSH2 0x151D JUMP JUMPDEST PUSH1 0x40 MLOAD DUP1 SWAP2 SUB SWAP1 RETURN JUMPDEST PUSH2 0x12B PUSH1 0x4 DUP1 CALLDATASIZE SUB DUP2 ADD SWAP1 PUSH2 0x126 SWAP2 SWAP1 PUSH2 0x1544 JUMP JUMPDEST PUSH2 0xA63 JUMP JUMPDEST STOP JUMPDEST PUSH2 0x135 PUSH2 0xC5E JUMP JUMPDEST STOP JUMPDEST PUSH2 0x151 PUSH1 0x4 DUP1 CALLDATASIZE SUB DUP2 ADD SWAP1 PUSH2 0x14C SWAP2 SWAP1 PUSH2 0x1544 JUMP JUMPDEST PUSH2 0xD02 JUMP JUMPDEST STOP JUMPDEST PUSH2 0x16D PUSH1 0x4 DUP1 CALLDATASIZE SUB DUP2 ADD SWAP1 PUSH2 0x168 SWAP2 SWAP1 PUSH2 0x12DE JUMP JUMPDEST PUSH2 0xEFF JUMP JUMPDEST STOP JUMPDEST PUSH1 0x2 PUSH0 CALLER PUSH20 0xFFFFFFFFFFFFFFFFFFFFFFFFFFFFFFFFFFFFFFFF AND PUSH20 0xFFFFFFFFFFFFFFFFFFFFFFFFFFFFFFFFFFFFFFFF AND DUP2 MSTORE PUSH1 0x20 ADD SWAP1 DUP2 MSTORE PUSH1 0x20 ADD PUSH0 KECCAK256 PUSH0 SWAP1 SLOAD SWAP1 PUSH2 0x100 EXP SWAP1 DIV PUSH1 0xFF AND PUSH2 0x1F8 JUMPI PUSH1 0x40 MLOAD PUSH32 0x8C379A000000000000000000000000000000000000000000000000000000000 DUP2 MSTORE PUSH1 0x4 ADD PUSH2 0x1EF SWAP1 PUSH2 0x15EF JUMP JUMPDEST PUSH1 0x40 MLOAD DUP1 SWAP2 SUB SWAP1 REVERT JUMPDEST PUSH1 0x1 PUSH1 0x3 PUSH0 PUSH2 0x100 EXP DUP2 SLOAD DUP2 PUSH1 0xFF MUL NOT AND SWAP1 DUP4 ISZERO ISZERO MUL OR SWAP1 SSTORE POP JUMP JUMPDEST PUSH1 0x2 PUSH0 CALLER PUSH20 0xFFFFFFFFFFFFFFFFFFFFFFFFFFFFFFFFFFFFFFFF AND PUSH20 0xFFFFFFFFFFFFFFFFFFFFFFFFFFFFFFFFFFFFFFFF AND DUP2 MSTORE PUSH1 0x20 ADD SWAP1 DUP2 MSTORE PUSH1 0x20 ADD PUSH0 KECCAK256 PUSH0 SWAP1 SLOAD SWAP1 PUSH2 0x100 EXP SWAP1 DIV PUSH1 0xFF AND PUSH2 0x29D JUMPI PUSH1 0x40 MLOAD PUSH32 0x8C379A000000000000000000000000000000000000000000000000000000000 DUP2 MSTORE PUSH1 0x4 ADD PUSH2 0x294 SWAP1 PUSH2 0x15EF JUMP JUMPDEST PUSH1 0x40 MLOAD DUP1 SWAP2 SUB SWAP1 REVERT JUMPDEST DUP6 PUSH1 0x1 PUSH0 DUP3 DUP2 MSTORE PUSH1 0x20 ADD SWAP1 DUP2 MSTORE PUSH1 0x20 ADD PUSH0 KECCAK256 PUSH1 0x1 ADD PUSH0 SWAP1 SLOAD SWAP1 PUSH2 0x100 EXP SWAP1 DIV PUSH1 0xFF AND PUSH2 0x2FE JUMPI PUSH1 0x40 MLOAD PUSH32 0x8C379A000000000000000000000000000000000000000000000000000000000 DUP2 MSTORE PUSH1 0x4 ADD PUSH2 0x2F5 SWAP1 PUSH2 0x167D JUMP JUMPDEST PUSH1 0x40 MLOAD DUP1 SWAP2 SUB SWAP1 REVERT JUMPDEST PUSH1 0x3 PUSH0 SWAP1 SLOAD SWAP1 PUSH2 0x100 EXP SWAP1 DIV PUSH1 0xFF AND ISZERO PUSH2 0x34D JUMPI PUSH1 0x40 MLOAD PUSH32 0x8C379A000000000000000000000000000000000000000000000000000000000 DUP2 MSTORE PUSH1 0x4 ADD PUSH2 0x344 SWAP1 PUSH2 0x170B JUMP JUMPDEST PUSH1 0x40 MLOAD DUP1 SWAP2 SUB SWAP1 REVERT JUMPDEST PUSH0 PUSH1 0x1 PUSH0 DUP10 DUP2 MSTORE PUSH1 0x20 ADD SWAP1 DUP2 MSTORE PUSH1 0x20 ADD PUSH0 KECCAK256 PUSH1 0x40 MLOAD DUP1 PUSH1 0x80 ADD PUSH1 0x40 MSTORE SWAP1 DUP2 PUSH0 DUP3 ADD SLOAD DUP2 MSTORE PUSH1 0x20 ADD PUSH1 0x1 DUP3 ADD PUSH0 SWAP1 SLOAD SWAP1 PUSH2 0x100 EXP SWAP1 DIV PUSH1 0xFF AND ISZERO ISZERO ISZERO ISZERO DUP2 MSTORE PUSH1 0x20 ADD PUSH1 0x1 DUP3 ADD PUSH1 0x1 SWAP1 SLOAD SWAP1 PUSH2 0x100 EXP SWAP1 DIV PUSH20 0xFFFFFFFFFFFFFFFFFFFFFFFFFFFFFFFFFFFFFFFF AND PUSH20 0xFFFFFFFFFFFFFFFFFFFFFFFFFFFFFFFFFFFFFFFF AND PUSH20 0xFFFFFFFFFFFFFFFFFFFFFFFFFFFFFFFFFFFFFFFF AND DUP2 MSTORE PUSH1 0x20 ADD PUSH1 0x2 DUP3 ADD SLOAD DUP2 MSTORE POP POP SWAP1 POP PUSH0 DUP2 PUSH1 0x40 ADD MLOAD SWAP1 POP PUSH0 DUP1 DUP11 DUP2 MSTORE PUSH1 0x20 ADD SWAP1 DUP2 MSTORE PUSH1 0x20 ADD PUSH0 KECCAK256 PUSH1 0x40 MLOAD DUP1 PUSH1 0xC0 ADD PUSH1 0x40 MSTORE DUP1 DUP12 DUP2 MSTORE PUSH1 0x20 ADD DUP11 DUP11 DUP1 DUP1 PUSH1 0x1F ADD PUSH1 0x20 DUP1 SWAP2 DIV MUL PUSH1 0x20 ADD PUSH1 0x40 MLOAD SWAP1 DUP2 ADD PUSH1 0x40 MSTORE DUP1 SWAP4 SWAP3 SWAP2 SWAP1 DUP2 DUP2 MSTORE PUSH1 0x20 ADD DUP4 DUP4 DUP1 DUP3 DUP5 CALLDATACOPY PUSH0 DUP2 DUP5 ADD MSTORE PUSH1 0x1F NOT PUSH1 0x1F DUP3 ADD AND SWAP1 POP DUP1 DUP4 ADD SWAP3 POP POP POP POP POP POP POP DUP2 MSTORE PUSH1 0x20 ADD DUP4 PUSH20 0xFFFFFFFFFFFFFFFFFFFFFFFFFFFFFFFFFFFFFFFF AND DUP2 MSTORE PUSH1 0x20 ADD DUP9 PUSH20 0xFFFFFFFFFFFFFFFFFFFFFFFFFFFFFFFFFFFFFFFF AND DUP2 MSTORE PUSH1 0x20 ADD TIMESTAMP DUP2 MSTORE PUSH1 0x20 ADD DUP8 DUP8 DUP1 DUP1 PUSH1 0x1F ADD PUSH1 0x20 DUP1 SWAP2 DIV MUL PUSH1 0x20 ADD PUSH1 0x40 MLOAD SWAP1 DUP2 ADD PUSH1 0x40 MSTORE DUP1 SWAP4 SWAP3 SWAP2 SWAP1 DUP2 DUP2 MSTORE PUSH1 0x20 ADD DUP4 DUP4 DUP1 DUP3 DUP5 CALLDATACOPY PUSH0 DUP2 DUP5 ADD MSTORE PUSH1 0x1F NOT PUSH1 0x1F DUP3 ADD AND SWAP1 POP DUP1 DUP4 ADD SWAP3 POP POP POP POP POP POP POP DUP2 MSTORE POP SWAP1 DUP1 PUSH1 0x1 DUP2 SLOAD ADD DUP1 DUP3 SSTORE DUP1 SWAP2 POP POP PUSH1 0x1 SWAP1 SUB SWAP1 PUSH0 MSTORE PUSH1 0x20 PUSH0 KECCAK256 SWAP1 PUSH1 0x6 MUL ADD PUSH0 SWAP1 SWAP2 SWAP1 SWAP2 SWAP1 SWAP2 POP PUSH0 DUP3 ADD MLOAD DUP2 PUSH0 ADD SSTORE PUSH1 0x20 DUP3 ADD MLOAD DUP2 PUSH1 0x1 ADD SWAP1 DUP2 PUSH2 0x529 SWAP2 SWAP1 PUSH2 0x1950 JUMP JUMPDEST POP PUSH1 0x40 DUP3 ADD MLOAD DUP2 PUSH1 0x2 ADD PUSH0 PUSH2 0x100 EXP DUP2 SLOAD DUP2 PUSH20 0xFFFFFFFFFFFFFFFFFFFFFFFFFFFFFFFFFFFFFFFF MUL NOT AND SWAP1 DUP4 PUSH20 0xFFFFFFFFFFFFFFFFFFFFFFFFFFFFFFFFFFFFFFFF AND MUL OR SWAP1 SSTORE POP PUSH1 0x60 DUP3 ADD MLOAD DUP2 PUSH1 0x3 ADD PUSH0 PUSH2 0x100 EXP DUP2 SLOAD DUP2 PUSH20 0xFFFFFFFFFFFFFFFFFFFFFFFFFFFFFFFFFFFFFFFF MUL NOT AND SWAP1 DUP4 PUSH20 0xFFFFFFFFFFFFFFFFFFFFFFFFFFFFFFFFFFFFFFFF AND MUL OR SWAP1 SSTORE POP PUSH1 0x80 DUP3 ADD MLOAD DUP2 PUSH1 0x4 ADD SSTORE PUSH1 0xA0 DUP3 ADD MLOAD DUP2 PUSH1 0x5 ADD SWAP1 DUP2 PUSH2 0x5D5 SWAP2 SWAP1 PUSH2 0x1950 JUMP JUMPDEST POP POP POP DUP6 PUSH1 0x1 PUSH0 DUP12 DUP2 MSTORE PUSH1 0x20 ADD SWAP1 DUP2 MSTORE PUSH1 0x20 ADD PUSH0 KECCAK256 PUSH1 0x1 ADD PUSH1 0x1 PUSH2 0x100 EXP DUP2 SLOAD DUP2 PUSH20 0xFFFFFFFFFFFFFFFFFFFFFFFFFFFFFFFFFFFFFFFF MUL NOT AND SWAP1 DUP4 PUSH20 0xFFFFFFFFFFFFFFFFFFFFFFFFFFFFFFFFFFFFFFFF AND MUL OR SWAP1 SSTORE POP DUP6 PUSH20 0xFFFFFFFFFFFFFFFFFFFFFFFFFFFFFFFFFFFFFFFF AND DUP2 PUSH20 0xFFFFFFFFFFFFFFFFFFFFFFFFFFFFFFFFFFFFFFFF AND DUP11 PUSH32 0xC99480A8E2A4AD60C7560B50B8734177C7BD1EB1D324232F3C82F30F3238CD12 DUP12 DUP12 PUSH1 0x40 MLOAD PUSH2 0x68B SWAP3 SWAP2 SWAP1 PUSH2 0x1A59 JUMP JUMPDEST PUSH1 0x40 MLOAD DUP1 SWAP2 SUB SWAP1 LOG4 POP POP POP POP POP POP POP POP POP JUMP JUMPDEST PUSH1 0x60 DUP2 PUSH1 0x1 PUSH0 DUP3 DUP2 MSTORE PUSH1 0x20 ADD SWAP1 DUP2 MSTORE PUSH1 0x20 ADD PUSH0 KECCAK256 PUSH1 0x1 ADD PUSH0 SWAP1 SLOAD SWAP1 PUSH2 0x100 EXP SWAP1 DIV PUSH1 0xFF AND PUSH2 0x701 JUMPI PUSH1 0x40 MLOAD PUSH32 0x8C379A000000000000000000000000000000000000000000000000000000000 DUP2 MSTORE PUSH1 0x4 ADD PUSH2 0x6F8 SWAP1 PUSH2 0x167D JUMP JUMPDEST PUSH1 0x40 MLOAD DUP1 SWAP2 SUB SWAP1 REVERT JUMPDEST PUSH0 DUP1 DUP5 DUP2 MSTORE PUSH1 0x20 ADD SWAP1 DUP2 MSTORE PUSH1 0x20 ADD PUSH0 KECCAK256 DUP1 SLOAD DUP1 PUSH1 0x20 MUL PUSH1 0x20 ADD PUSH1 0x40 MLOAD SWAP1 DUP2 ADD PUSH1 0x40 MSTORE DUP1 SWAP3 SWAP2 SWAP1 DUP2 DUP2 MSTORE PUSH1 0x20 ADD PUSH0 SWAP1 JUMPDEST DUP3 DUP3 LT ISZERO PUSH2 0x93D JUMPI DUP4 DUP3 SWAP1 PUSH0 MSTORE PUSH1 0x20 PUSH0 KECCAK256 SWAP1 PUSH1 0x6 MUL ADD PUSH1 0x40 MLOAD DUP1 PUSH1 0xC0 ADD PUSH1 0x40 MSTORE SWAP1 DUP2 PUSH0 DUP3 ADD SLOAD DUP2 MSTORE PUSH1 0x20 ADD PUSH1 0x1 DUP3 ADD DUP1 SLOAD PUSH2 0x76A SWAP1 PUSH2 0x1783 JUMP JUMPDEST DUP1 PUSH1 0x1F ADD PUSH1 0x20 DUP1 SWAP2 DIV MUL PUSH1 0x20 ADD PUSH1 0x40 MLOAD SWAP1 DUP2 ADD PUSH1 0x40 MSTORE DUP1 SWAP3 SWAP2 SWAP1 DUP2 DUP2 MSTORE PUSH1 0x20 ADD DUP3 DUP1 SLOAD PUSH2 0x796 SWAP1 PUSH2 0x1783 JUMP JUMPDEST DUP1 ISZERO PUSH2 0x7E1 JUMPI DUP1 PUSH1 0x1F LT PUSH2 0x7B8 JUMPI PUSH2 0x100 DUP1 DUP4 SLOAD DIV MUL DUP4 MSTORE SWAP2 PUSH1 0x20 ADD SWAP2 PUSH2 0x7E1 JUMP JUMPDEST DUP3 ADD SWAP2 SWAP1 PUSH0 MSTORE PUSH1 0x20 PUSH0 KECCAK256 SWAP1 JUMPDEST DUP2 SLOAD DUP2 MSTORE SWAP1 PUSH1 0x1 ADD SWAP1 PUSH1 0x20 ADD DUP1 DUP4 GT PUSH2 0x7C4 JUMPI DUP3 SWAP1 SUB PUSH1 0x1F AND DUP3 ADD SWAP2 JUMPDEST POP POP POP POP POP DUP2 MSTORE PUSH1 0x20 ADD PUSH1 0x2 DUP3 ADD PUSH0 SWAP1 SLOAD SWAP1 PUSH2 0x100 EXP SWAP1 DIV PUSH20 0xFFFFFFFFFFFFFFFFFFFFFFFFFFFFFFFFFFFFFFFF AND PUSH20 0xFFFFFFFFFFFFFFFFFFFFFFFFFFFFFFFFFFFFFFFF AND PUSH20 0xFFFFFFFFFFFFFFFFFFFFFFFFFFFFFFFFFFFFFFFF AND DUP2 MSTORE PUSH1 0x20 ADD PUSH1 0x3 DUP3 ADD PUSH0 SWAP1 SLOAD SWAP1 PUSH2 0x100 EXP SWAP1 DIV PUSH20 0xFFFFFFFFFFFFFFFFFFFFFFFFFFFFFFFFFFFFFFFF AND PUSH20 0xFFFFFFFFFFFFFFFFFFFFFFFFFFFFFFFFFFFFFFFF AND PUSH20 0xFFFFFFFFFFFFFFFFFFFFFFFFFFFFFFFFFFFFFFFF AND DUP2 MSTORE PUSH1 0x20 ADD PUSH1 0x4 DUP3 ADD SLOAD DUP2 MSTORE PUSH1 0x20 ADD PUSH1 0x5 DUP3 ADD DUP1 SLOAD PUSH2 0x8AE SWAP1 PUSH2 0x1783 JUMP JUMPDEST DUP1 PUSH1 0x1F ADD PUSH1 0x20 DUP1 SWAP2 DIV MUL PUSH1 0x20 ADD PUSH1 0x40 MLOAD SWAP1 DUP2 ADD PUSH1 0x40 MSTORE DUP1 SWAP3 SWAP2 SWAP1 DUP2 DUP2 MSTORE PUSH1 0x20 ADD DUP3 DUP1 SLOAD PUSH2 0x8DA SWAP1 PUSH2 0x1783 JUMP JUMPDEST DUP1 ISZERO PUSH2 0x925 JUMPI DUP1 PUSH1 0x1F LT PUSH2 0x8FC JUMPI PUSH2 0x100 DUP1 DUP4 SLOAD DIV MUL DUP4 MSTORE SWAP2 PUSH1 0x20 ADD SWAP2 PUSH2 0x925 JUMP JUMPDEST DUP3 ADD SWAP2 SWAP1 PUSH0 MSTORE PUSH1 0x20 PUSH0 KECCAK256 SWAP1 JUMPDEST DUP2 SLOAD DUP2 MSTORE SWAP1 PUSH1 0x1 ADD SWAP1 PUSH1 0x20 ADD DUP1 DUP4 GT PUSH2 0x908 JUMPI DUP3 SWAP1 SUB PUSH1 0x1F AND DUP3 ADD SWAP2 JUMPDEST POP POP POP POP POP DUP2 MSTORE POP POP DUP2 MSTORE PUSH1 0x20 ADD SWAP1 PUSH1 0x1 ADD SWAP1 PUSH2 0x730 JUMP JUMPDEST POP POP POP POP SWAP2 POP POP SWAP2 SWAP1 POP JUMP JUMPDEST PUSH0 DUP1 DUP3 PUSH1 0x1 PUSH0 DUP3 DUP2 MSTORE PUSH1 0x20 ADD SWAP1 DUP2 MSTORE PUSH1 0x20 ADD PUSH0 KECCAK256 PUSH1 0x1 ADD PUSH0 SWAP1 SLOAD SWAP1 PUSH2 0x100 EXP SWAP1 DIV PUSH1 0xFF AND PUSH2 0x9AC JUMPI PUSH1 0x40 MLOAD PUSH32 0x8C379A000000000000000000000000000000000000000000000000000000000 DUP2 MSTORE PUSH1 0x4 ADD PUSH2 0x9A3 SWAP1 PUSH2 0x167D JUMP JUMPDEST PUSH1 0x40 MLOAD DUP1 SWAP2 SUB SWAP1 REVERT JUMPDEST PUSH0 PUSH1 0x1 PUSH0 DUP7 DUP2 MSTORE PUSH1 0x20 ADD SWAP1 DUP2 MSTORE PUSH1 0x20 ADD PUSH0 KECCAK256 PUSH1 0x40 MLOAD DUP1 PUSH1 0x80 ADD PUSH1 0x40 MSTORE SWAP1 DUP2 PUSH0 DUP3 ADD SLOAD DUP2 MSTORE PUSH1 0x20 ADD PUSH1 0x1 DUP3 ADD PUSH0 SWAP1 SLOAD SWAP1 PUSH2 0x100 EXP SWAP1 DIV PUSH1 0xFF AND ISZERO ISZERO ISZERO ISZERO DUP2 MSTORE PUSH1 0x20 ADD PUSH1 0x1 DUP3 ADD PUSH1 0x1 SWAP1 SLOAD SWAP1 PUSH2 0x100 EXP SWAP1 DIV PUSH20 0xFFFFFFFFFFFFFFFFFFFFFFFFFFFFFFFFFFFFFFFF AND PUSH20 0xFFFFFFFFFFFFFFFFFFFFFFFFFFFFFFFFFFFFFFFF AND PUSH20 0xFFFFFFFFFFFFFFFFFFFFFFFFFFFFFFFFFFFFFFFF AND DUP2 MSTORE PUSH1 0x20 ADD PUSH1 0x2 DUP3 ADD SLOAD DUP2 MSTORE POP POP SWAP1 POP DUP1 PUSH1 0x40 ADD MLOAD DUP2 PUSH1 0x60 ADD MLOAD SWAP4 POP SWAP4 POP POP POP SWAP2 POP SWAP2 JUMP JUMPDEST PUSH1 0x2 PUSH0 CALLER PUSH20 0xFFFFFFFFFFFFFFFFFFFFFFFFFFFFFFFFFFFFFFFF AND PUSH20 0xFFFFFFFFFFFFFFFFFFFFFFFFFFFFFFFFFFFFFFFF AND DUP2 MSTORE PUSH1 0x20 ADD SWAP1 DUP2 MSTORE PUSH1 0x20 ADD PUSH0 KECCAK256 PUSH0 SWAP1 SLOAD SWAP1 PUSH2 0x100 EXP SWAP1 DIV PUSH1 0xFF AND PUSH2 0xAEC JUMPI PUSH1 0x40 MLOAD PUSH32 0x8C379A000000000000000000000000000000000000000000000000000000000 DUP2 MSTORE PUSH1 0x4 ADD PUSH2 0xAE3 SWAP1 PUSH2 0x15EF JUMP JUMPDEST PUSH1 0x40 MLOAD DUP1 SWAP2 SUB SWAP1 REVERT JUMPDEST PUSH1 0x3 PUSH0 SWAP1 SLOAD SWAP1 PUSH2 0x100 EXP SWAP1 DIV PUSH1 0xFF AND ISZERO PUSH2 0xB3B JUMPI PUSH1 0x40 MLOAD PUSH32 0x8C379A000000000000000000000000000000000000000000000000000000000 DUP2 MSTORE PUSH1 0x4 ADD PUSH2 0xB32 SWAP1 PUSH2 0x170B JUMP JUMPDEST PUSH1 0x40 MLOAD DUP1 SWAP2 SUB SWAP1 REVERT JUMPDEST PUSH1 0x2 PUSH0 DUP3 PUSH20 0xFFFFFFFFFFFFFFFFFFFFFFFFFFFFFFFFFFFFFFFF AND PUSH20 0xFFFFFFFFFFFFFFFFFFFFFFFFFFFFFFFFFFFFFFFF AND DUP2 MSTORE PUSH1 0x20 ADD SWAP1 DUP2 MSTORE PUSH1 0x20 ADD PUSH0 KECCAK256 PUSH0 SWAP1 SLOAD SWAP1 PUSH2 0x100 EXP SWAP1 DIV PUSH1 0xFF AND PUSH2 0xBC4 JUMPI PUSH1 0x40 MLOAD PUSH32 0x8C379A000000000000000000000000000000000000000000000000000000000 DUP2 MSTORE PUSH1 0x4 ADD PUSH2 0xBBB SWAP1 PUSH2 0x1AC5 JUMP JUMPDEST PUSH1 0x40 MLOAD DUP1 SWAP2 SUB SWAP1 REVERT JUMPDEST PUSH0 PUSH1 0x2 PUSH0 DUP4 PUSH20 0xFFFFFFFFFFFFFFFFFFFFFFFFFFFFFFFFFFFFFFFF AND PUSH20 0xFFFFFFFFFFFFFFFFFFFFFFFFFFFFFFFFFFFFFFFF AND DUP2 MSTORE PUSH1 0x20 ADD SWAP1 DUP2 MSTORE PUSH1 0x20 ADD PUSH0 KECCAK256 PUSH0 PUSH2 0x100 EXP DUP2 SLOAD DUP2 PUSH1 0xFF MUL NOT AND SWAP1 DUP4 ISZERO ISZERO MUL OR SWAP1 SSTORE POP DUP1 PUSH20 0xFFFFFFFFFFFFFFFFFFFFFFFFFFFFFFFFFFFFFFFF AND PUSH32 0xEF69F7D97228658C92417BE1B16B19058315DE71FECB435D07B7D23728B6BD31 PUSH1 0x40 MLOAD PUSH1 0x40 MLOAD DUP1 SWAP2 SUB SWAP1 LOG2 POP JUMP JUMPDEST PUSH1 0x2 PUSH0 CALLER PUSH20 0xFFFFFFFFFFFFFFFFFFFFFFFFFFFFFFFFFFFFFFFF AND PUSH20 0xFFFFFFFFFFFFFFFFFFFFFFFFFFFFFFFFFFFFFFFF AND DUP2 MSTORE PUSH1 0x20 ADD SWAP1 DUP2 MSTORE PUSH1 0x20 ADD PUSH0 KECCAK256 PUSH0 SWAP1 SLOAD SWAP1 PUSH2 0x100 EXP SWAP1 DIV PUSH1 0xFF AND PUSH2 0xCE7 JUMPI PUSH1 0x40 MLOAD PUSH32 0x8C379A000000000000000000000000000000000000000000000000000000000 DUP2 MSTORE PUSH1 0x4 ADD PUSH2 0xCDE SWAP1 PUSH2 0x15EF JUMP JUMPDEST PUSH1 0x40 MLOAD DUP1 SWAP2 SUB SWAP1 REVERT JUMPDEST PUSH0 PUSH1 0x3 PUSH0 PUSH2 0x100 EXP DUP2 SLOAD DUP2 PUSH1 0xFF MUL NOT AND SWAP1 DUP4 ISZERO ISZERO MUL OR SWAP1 SSTORE POP JUMP JUMPDEST PUSH1 0x2 PUSH0 CALLER PUSH20 0xFFFFFFFFFFFFFFFFFFFFFFFFFFFFFFFFFFFFFFFF AND PUSH20 0xFFFFFFFFFFFFFFFFFFFFFFFFFFFFFFFFFFFFFFFF AND DUP2 MSTORE PUSH1 0x20 ADD SWAP1 DUP2 MSTORE PUSH1 0x20 ADD PUSH0 KECCAK256 PUSH0 SWAP1 SLOAD SWAP1 PUSH2 0x100 EXP SWAP1 DIV PUSH1 0xFF AND PUSH2 0xD8B JUMPI PUSH1 0x40 MLOAD PUSH32 0x8C379A000000000000000000000000000000000000000000000000000000000 DUP2 MSTORE PUSH1 0x4 ADD PUSH2 0xD82 SWAP1 PUSH2 0x15EF JUMP JUMPDEST PUSH1 0x40 MLOAD DUP1 SWAP2 SUB SWAP1 REVERT JUMPDEST PUSH1 0x3 PUSH0 SWAP1 SLOAD SWAP1 PUSH2 0x100 EXP SWAP1 DIV PUSH1 0xFF AND ISZERO PUSH2 0xDDA JUMPI PUSH1 0x40 MLOAD PUSH32 0x8C379A000000000000000000000000000000000000000000000000000000000 DUP2 MSTORE PUSH1 0x4 ADD PUSH2 0xDD1 SWAP1 PUSH2 0x170B JUMP JUMPDEST PUSH1 0x40 MLOAD DUP1 SWAP2 SUB SWAP1 REVERT JUMPDEST PUSH1 0x2 PUSH0 DUP3 PUSH20 0xFFFFFFFFFFFFFFFFFFFFFFFFFFFFFFFFFFFFFFFF AND PUSH20 0xFFFFFFFFFFFFFFFFFFFFFFFFFFFFFFFFFFFFFFFF AND DUP2 MSTORE PUSH1 0x20 ADD SWAP1 DUP2 MSTORE PUSH1 0x20 ADD PUSH0 KECCAK256 PUSH0 SWAP1 SLOAD SWAP1 PUSH2 0x100 EXP SWAP1 DIV PUSH1 0xFF AND ISZERO PUSH2 0xE64 JUMPI PUSH1 0x40 MLOAD PUSH32 0x8C379A000000000000000000000000000000000000000000000000000000000 DUP2 MSTORE PUSH1 0x4 ADD PUSH2 0xE5B SWAP1 PUSH2 0x1B53 JUMP JUMPDEST PUSH1 0x40 MLOAD DUP1 SWAP2 SUB SWAP1 REVERT JUMPDEST PUSH1 0x1 PUSH1 0x2 PUSH0 DUP4 PUSH20 0xFFFFFFFFFFFFFFFFFFFFFFFFFFFFFFFFFFFFFFFF AND PUSH20 0xFFFFFFFFFFFFFFFFFFFFFFFFFFFFFFFFFFFFFFFF AND DUP2 MSTORE PUSH1 0x20 ADD SWAP1 DUP2 MSTORE PUSH1 0x20 ADD PUSH0 KECCAK256 PUSH0 PUSH2 0x100 EXP DUP2 SLOAD DUP2 PUSH1 0xFF MUL NOT AND SWAP1 DUP4 ISZERO ISZERO MUL OR SWAP1 SSTORE POP DUP1 PUSH20 0xFFFFFFFFFFFFFFFFFFFFFFFFFFFFFFFFFFFFFFFF AND PUSH32 0x450AD6A6AC3C2E8B8A02820CB64D6102A1F91EBE1FA3848A0CFC45C870C043AF PUSH1 0x40 MLOAD PUSH1 0x40 MLOAD DUP1 SWAP2 SUB SWAP1 LOG2 POP JUMP JUMPDEST PUSH1 0x2 PUSH0 CALLER PUSH20 0xFFFFFFFFFFFFFFFFFFFFFFFFFFFFFFFFFFFFFFFF AND PUSH20 0xFFFFFFFFFFFFFFFFFFFFFFFFFFFFFFFFFFFFFFFF AND DUP2 MSTORE PUSH1 0x20 ADD SWAP1 DUP2 MSTORE PUSH1 0x20 ADD PUSH0 KECCAK256 PUSH0 SWAP1 SLOAD SWAP1 PUSH2 0x100 EXP SWAP1 DIV PUSH1 0xFF AND PUSH2 0xF88 JUMPI PUSH1 0x40 MLOAD PUSH32 0x8C379A000000000000000000000000000000000000000000000000000000000 DUP2 MSTORE PUSH1 0x4 ADD PUSH2 0xF7F SWAP1 PUSH2 0x15EF JUMP JUMPDEST PUSH1 0x40 MLOAD DUP1 SWAP2 SUB SWAP1 REVERT JUMPDEST PUSH1 0x3 PUSH0 SWAP1 SLOAD SWAP1 PUSH2 0x100 EXP SWAP1 DIV PUSH1 0xFF AND ISZERO PUSH2 0xFD7 JUMPI PUSH1 0x40 MLOAD PUSH32 0x8C379A000000000000000000000000000000000000000000000000000000000 DUP2 MSTORE PUSH1 0x4 ADD PUSH2 0xFCE SWAP1 PUSH2 0x170B JUMP JUMPDEST PUSH1 0x40 MLOAD DUP1 SWAP2 SUB SWAP1 REVERT JUMPDEST PUSH1 0x1 PUSH0 DUP3 DUP2 MSTORE PUSH1 0x20 ADD SWAP1 DUP2 MSTORE PUSH1 0x20 ADD PUSH0 KECCAK256 PUSH1 0x1 ADD PUSH0 SWAP1 SLOAD SWAP1 PUSH2 0x100 EXP SWAP1 DIV PUSH1 0xFF AND ISZERO PUSH2 0x1038 JUMPI PUSH1 0x40 MLOAD PUSH32 0x8C379A000000000000000000000000000000000000000000000000000000000 DUP2 MSTORE PUSH1 0x4 ADD PUSH2 0x102F SWAP1 PUSH2 0x1BE1 JUMP JUMPDEST PUSH1 0x40 MLOAD DUP1 SWAP2 SUB SWAP1 REVERT JUMPDEST PUSH1 0x40 MLOAD DUP1 PUSH1 0x80 ADD PUSH1 0x40 MSTORE DUP1 DUP3 DUP2 MSTORE PUSH1 0x20 ADD PUSH1 0x1 ISZERO ISZERO DUP2 MSTORE PUSH1 0x20 ADD CALLER PUSH20 0xFFFFFFFFFFFFFFFFFFFFFFFFFFFFFFFFFFFFFFFF AND DUP2 MSTORE PUSH1 0x20 ADD TIMESTAMP DUP2 MSTORE POP PUSH1 0x1 PUSH0 DUP4 DUP2 MSTORE PUSH1 0x20 ADD SWAP1 DUP2 MSTORE PUSH1 0x20 ADD PUSH0 KECCAK256 PUSH0 DUP3 ADD MLOAD DUP2 PUSH0 ADD SSTORE PUSH1 0x20 DUP3 ADD MLOAD DUP2 PUSH1 0x1 ADD PUSH0 PUSH2 0x100 EXP DUP2 SLOAD DUP2 PUSH1 0xFF MUL NOT AND SWAP1 DUP4 ISZERO ISZERO MUL OR SWAP1 SSTORE POP PUSH1 0x40 DUP3 ADD MLOAD DUP2 PUSH1 0x1 ADD PUSH1 0x1 PUSH2 0x100 EXP DUP2 SLOAD DUP2 PUSH20 0xFFFFFFFFFFFFFFFFFFFFFFFFFFFFFFFFFFFFFFFF MUL NOT AND SWAP1 DUP4 PUSH20 0xFFFFFFFFFFFFFFFFFFFFFFFFFFFFFFFFFFFFFFFF AND MUL OR SWAP1 SSTORE POP PUSH1 0x60 DUP3 ADD MLOAD DUP2 PUSH1 0x2 ADD SSTORE SWAP1 POP POP CALLER PUSH20 0xFFFFFFFFFFFFFFFFFFFFFFFFFFFFFFFFFFFFFFFF AND DUP2 PUSH32 0x73E014C0A076665D9511A27E878FADCCB6D7171F5754BA1167A670023760B015 PUSH1 0x40 MLOAD PUSH1 0x40 MLOAD DUP1 SWAP2 SUB SWAP1 LOG3 POP JUMP JUMPDEST PUSH0 DUP1 REVERT JUMPDEST PUSH0 DUP1 REVERT JUMPDEST PUSH0 DUP2 SWAP1 POP SWAP2 SWAP1 POP JUMP JUMPDEST PUSH2 0x115F DUP2 PUSH2 0x114D JUMP JUMPDEST DUP2 EQ PUSH2 0x1169 JUMPI PUSH0 DUP1 REVERT JUMPDEST POP JUMP JUMPDEST PUSH0 DUP2 CALLDATALOAD SWAP1 POP PUSH2 0x117A DUP2 PUSH2 0x1156 JUMP JUMPDEST SWAP3 SWAP2 POP POP JUMP JUMPDEST PUSH0 DUP1 REVERT JUMPDEST PUSH0 DUP1 REVERT JUMPDEST PUSH0 DUP1 REVERT JUMPDEST PUSH0 DUP1 DUP4 PUSH1 0x1F DUP5 ADD SLT PUSH2 0x11A1 JUMPI PUSH2 0x11A0 PUSH2 0x1180 JUMP JUMPDEST JUMPDEST DUP3 CALLDATALOAD SWAP1 POP PUSH8 0xFFFFFFFFFFFFFFFF DUP2 GT ISZERO PUSH2 0x11BE JUMPI PUSH2 0x11BD PUSH2 0x1184 JUMP JUMPDEST JUMPDEST PUSH1 0x20 DUP4 ADD SWAP2 POP DUP4 PUSH1 0x1 DUP3 MUL DUP4 ADD GT ISZERO PUSH2 0x11DA JUMPI PUSH2 0x11D9 PUSH2 0x1188 JUMP JUMPDEST JUMPDEST SWAP3 POP SWAP3 SWAP1 POP JUMP JUMPDEST PUSH0 PUSH20 0xFFFFFFFFFFFFFFFFFFFFFFFFFFFFFFFFFFFFFFFF DUP3 AND SWAP1 POP SWAP2 SWAP1 POP JUMP JUMPDEST PUSH0 PUSH2 0x120A DUP3 PUSH2 0x11E1 JUMP JUMPDEST SWAP1 POP SWAP2 SWAP1 POP JUMP JUMPDEST PUSH2 0x121A DUP2 PUSH2 0x1200 JUMP JUMPDEST DUP2 EQ PUSH2 0x1224 JUMPI PUSH0 DUP1 REVERT JUMPDEST POP JUMP JUMPDEST PUSH0 DUP2 CALLDATALOAD SWAP1 POP PUSH2 0x1235 DUP2 PUSH2 0x1211 JUMP JUMPDEST SWAP3 SWAP2 POP POP JUMP JUMPDEST PUSH0 DUP1 PUSH0 DUP1 PUSH0 DUP1 PUSH1 0x80 DUP8 DUP10 SUB SLT ISZERO PUSH2 0x1255 JUMPI PUSH2 0x1254 PUSH2 0x1145 JUMP JUMPDEST JUMPDEST PUSH0 PUSH2 0x1262 DUP10 DUP3 DUP11 ADD PUSH2 0x116C JUMP JUMPDEST SWAP7 POP POP PUSH1 0x20 DUP8 ADD CALLDATALOAD PUSH8 0xFFFFFFFFFFFFFFFF DUP2 GT ISZERO PUSH2 0x1283 JUMPI PUSH2 0x1282 PUSH2 0x1149 JUMP JUMPDEST JUMPDEST PUSH2 0x128F DUP10 DUP3 DUP11 ADD PUSH2 0x118C JUMP JUMPDEST SWAP6 POP SWAP6 POP POP PUSH1 0x40 PUSH2 0x12A2 DUP10 DUP3 DUP11 ADD PUSH2 0x1227 JUMP JUMPDEST SWAP4 POP POP PUSH1 0x60 DUP8 ADD CALLDATALOAD PUSH8 0xFFFFFFFFFFFFFFFF DUP2 GT ISZERO PUSH2 0x12C3 JUMPI PUSH2 0x12C2 PUSH2 0x1149 JUMP JUMPDEST JUMPDEST PUSH2 0x12CF DUP10 DUP3 DUP11 ADD PUSH2 0x118C JUMP JUMPDEST SWAP3 POP SWAP3 POP POP SWAP3 SWAP6 POP SWAP3 SWAP6 POP SWAP3 SWAP6 JUMP JUMPDEST PUSH0 PUSH1 0x20 DUP3 DUP5 SUB SLT ISZERO PUSH2 0x12F3 JUMPI PUSH2 0x12F2 PUSH2 0x1145 JUMP JUMPDEST JUMPDEST PUSH0 PUSH2 0x1300 DUP5 DUP3 DUP6 ADD PUSH2 0x116C JUMP JUMPDEST SWAP2 POP POP SWAP3 SWAP2 POP POP JUMP JUMPDEST PUSH0 DUP2 MLOAD SWAP1 POP SWAP2 SWAP1 POP JUMP JUMPDEST PUSH0 DUP3 DUP3 MSTORE PUSH1 0x20 DUP3 ADD SWAP1 POP SWAP3 SWAP2 POP POP JUMP JUMPDEST PUSH0 DUP2 SWAP1 POP PUSH1 0x20 DUP3 ADD SWAP1 POP SWAP2 SWAP1 POP JUMP JUMPDEST PUSH2 0x133B DUP2 PUSH2 0x114D JUMP JUMPDEST DUP3 MSTORE POP POP JUMP JUMPDEST PUSH0 DUP2 MLOAD SWAP1 POP SWAP2 SWAP1 POP JUMP JUMPDEST PUSH0 DUP3 DUP3 MSTORE PUSH1 0x20 DUP3 ADD SWAP1 POP SWAP3 SWAP2 POP POP JUMP JUMPDEST DUP3 DUP2 DUP4 MCOPY PUSH0 DUP4 DUP4 ADD MSTORE POP POP POP JUMP JUMPDEST PUSH0 PUSH1 0x1F NOT PUSH1 0x1F DUP4 ADD AND SWAP1 POP SWAP2 SWAP1 POP JUMP JUMPDEST PUSH0 PUSH2 0x1383 DUP3 PUSH2 0x1341 JUMP JUMPDEST PUSH2 0x138D DUP2 DUP6 PUSH2 0x134B JUMP JUMPDEST SWAP4 POP PUSH2 0x139D DUP2 DUP6 PUSH1 0x20 DUP7 ADD PUSH2 0x135B JUMP JUMPDEST PUSH2 0x13A6 DUP2 PUSH2 0x1369 JUMP JUMPDEST DUP5 ADD SWAP2 POP POP SWAP3 SWAP2 POP POP JUMP JUMPDEST PUSH2 0x13BA DUP2 PUSH2 0x1200 JUMP JUMPDEST DUP3 MSTORE POP POP JUMP JUMPDEST PUSH0 PUSH1 0xC0 DUP4 ADD PUSH0 DUP4 ADD MLOAD PUSH2 0x13D5 PUSH0 DUP7 ADD DUP3 PUSH2 0x1332 JUMP JUMPDEST POP PUSH1 0x20 DUP4 ADD MLOAD DUP5 DUP3 SUB PUSH1 0x20 DUP7 ADD MSTORE PUSH2 0x13ED DUP3 DUP3 PUSH2 0x1379 JUMP JUMPDEST SWAP2 POP POP PUSH1 0x40 DUP4 ADD MLOAD PUSH2 0x1402 PUSH1 0x40 DUP7 ADD DUP3 PUSH2 0x13B1 JUMP JUMPDEST POP PUSH1 0x60 DUP4 ADD MLOAD PUSH2 0x1415 PUSH1 0x60 DUP7 ADD DUP3 PUSH2 0x13B1 JUMP JUMPDEST POP PUSH1 0x80 DUP4 ADD MLOAD PUSH2 0x1428 PUSH1 0x80 DUP7 ADD DUP3 PUSH2 0x1332 JUMP JUMPDEST POP PUSH1 0xA0 DUP4 ADD MLOAD DUP5 DUP3 SUB PUSH1 0xA0 DUP7 ADD MSTORE PUSH2 0x1440 DUP3 DUP3 PUSH2 0x1379 JUMP JUMPDEST SWAP2 POP POP DUP1 SWAP2 POP POP SWAP3 SWAP2 POP POP JUMP JUMPDEST PUSH0 PUSH2 0x1458 DUP4 DUP4 PUSH2 0x13C0 JUMP JUMPDEST SWAP1 POP SWAP3 SWAP2 POP POP JUMP JUMPDEST PUSH0 PUSH1 0x20 DUP3 ADD SWAP1 POP SWAP2 SWAP1 POP JUMP JUMPDEST PUSH0 PUSH2 0x1476 DUP3 PUSH2 0x1309 JUMP JUMPDEST PUSH2 0x1480 DUP2 DUP6 PUSH2 0x1313 JUMP JUMPDEST SWAP4 POP DUP4 PUSH1 0x20 DUP3 MUL DUP6 ADD PUSH2 0x1492 DUP6 PUSH2 0x1323 JUMP JUMPDEST DUP1 PUSH0 JUMPDEST DUP6 DUP2 LT ISZERO PUSH2 0x14CD JUMPI DUP5 DUP5 SUB DUP10 MSTORE DUP2 MLOAD PUSH2 0x14AE DUP6 DUP3 PUSH2 0x144D JUMP JUMPDEST SWAP5 POP PUSH2 0x14B9 DUP4 PUSH2 0x1460 JUMP JUMPDEST SWAP3 POP PUSH1 0x20 DUP11 ADD SWAP10 POP POP PUSH1 0x1 DUP2 ADD SWAP1 POP PUSH2 0x1495 JUMP JUMPDEST POP DUP3 SWAP8 POP DUP8 SWAP6 POP POP POP POP POP POP SWAP3 SWAP2 POP POP JUMP JUMPDEST PUSH0 PUSH1 0x20 DUP3 ADD SWAP1 POP DUP2 DUP2 SUB PUSH0 DUP4 ADD MSTORE PUSH2 0x14F7 DUP2 DUP5 PUSH2 0x146C JUMP JUMPDEST SWAP1 POP SWAP3 SWAP2 POP POP JUMP JUMPDEST PUSH2 0x1508 DUP2 PUSH2 0x1200 JUMP JUMPDEST DUP3 MSTORE POP POP JUMP JUMPDEST PUSH2 0x1517 DUP2 PUSH2 0x114D JUMP JUMPDEST DUP3 MSTORE POP POP JUMP JUMPDEST PUSH0 PUSH1 0x40 DUP3 ADD SWAP1 POP PUSH2 0x1530 PUSH0 DUP4 ADD DUP6 PUSH2 0x14FF JUMP JUMPDEST PUSH2 0x153D PUSH1 0x20 DUP4 ADD DUP5 PUSH2 0x150E JUMP JUMPDEST SWAP4 SWAP3 POP POP POP JUMP JUMPDEST PUSH0 PUSH1 0x20 DUP3 DUP5 SUB SLT ISZERO PUSH2 0x1559 JUMPI PUSH2 0x1558 PUSH2 0x1145 JUMP JUMPDEST JUMPDEST PUSH0 PUSH2 0x1566 DUP5 DUP3 DUP6 ADD PUSH2 0x1227 JUMP JUMPDEST SWAP2 POP POP SWAP3 SWAP2 POP POP JUMP JUMPDEST PUSH0 DUP3 DUP3 MSTORE PUSH1 0x20 DUP3 ADD SWAP1 POP SWAP3 SWAP2 POP POP JUMP JUMPDEST PUSH32 0x4163636573732044656E6965643A204E6F7420616E20617574686F72697A6564 PUSH0 DUP3 ADD MSTORE PUSH32 0x206D616E61676572000000000000000000000000000000000000000000000000 PUSH1 0x20 DUP3 ADD MSTORE POP JUMP JUMPDEST PUSH0 PUSH2 0x15D9 PUSH1 0x28 DUP4 PUSH2 0x156F JUMP JUMPDEST SWAP2 POP PUSH2 0x15E4 DUP3 PUSH2 0x157F JUMP JUMPDEST PUSH1 0x40 DUP3 ADD SWAP1 POP SWAP2 SWAP1 POP JUMP JUMPDEST PUSH0 PUSH1 0x20 DUP3 ADD SWAP1 POP DUP2 DUP2 SUB PUSH0 DUP4 ADD MSTORE PUSH2 0x1606 DUP2 PUSH2 0x15CD JUMP JUMPDEST SWAP1 POP SWAP2 SWAP1 POP JUMP JUMPDEST PUSH32 0x5175657279204572726F723A2050726F64756374206E6F742072656769737465 PUSH0 DUP3 ADD MSTORE PUSH32 0x7265640000000000000000000000000000000000000000000000000000000000 PUSH1 0x20 DUP3 ADD MSTORE POP JUMP JUMPDEST PUSH0 PUSH2 0x1667 PUSH1 0x23 DUP4 PUSH2 0x156F JUMP JUMPDEST SWAP2 POP PUSH2 0x1672 DUP3 PUSH2 0x160D JUMP JUMPDEST PUSH1 0x40 DUP3 ADD SWAP1 POP SWAP2 SWAP1 POP JUMP JUMPDEST PUSH0 PUSH1 0x20 DUP3 ADD SWAP1 POP DUP2 DUP2 SUB PUSH0 DUP4 ADD MSTORE PUSH2 0x1694 DUP2 PUSH2 0x165B JUMP JUMPDEST SWAP1 POP SWAP2 SWAP1 POP JUMP JUMPDEST PUSH32 0x4F7065726174696F6E204572726F723A20436F6E747261637420697320706175 PUSH0 DUP3 ADD MSTORE PUSH32 0x7365640000000000000000000000000000000000000000000000000000000000 PUSH1 0x20 DUP3 ADD MSTORE POP JUMP JUMPDEST PUSH0 PUSH2 0x16F5 PUSH1 0x23 DUP4 PUSH2 0x156F JUMP JUMPDEST SWAP2 POP PUSH2 0x1700 DUP3 PUSH2 0x169B JUMP JUMPDEST PUSH1 0x40 DUP3 ADD SWAP1 POP SWAP2 SWAP1 POP JUMP JUMPDEST PUSH0 PUSH1 0x20 DUP3 ADD SWAP1 POP DUP2 DUP2 SUB PUSH0 DUP4 ADD MSTORE PUSH2 0x1722 DUP2 PUSH2 0x16E9 JUMP JUMPDEST SWAP1 POP SWAP2 SWAP1 POP JUMP JUMPDEST PUSH32 0x4E487B7100000000000000000000000000000000000000000000000000000000 PUSH0 MSTORE PUSH1 0x41 PUSH1 0x4 MSTORE PUSH1 0x24 PUSH0 REVERT JUMPDEST PUSH32 0x4E487B7100000000000000000000000000000000000000000000000000000000 PUSH0 MSTORE PUSH1 0x22 PUSH1 0x4 MSTORE PUSH1 0x24 PUSH0 REVERT JUMPDEST PUSH0 PUSH1 0x2 DUP3 DIV SWAP1 POP PUSH1 0x1 DUP3 AND DUP1 PUSH2 0x179A JUMPI PUSH1 0x7F DUP3 AND SWAP2 POP JUMPDEST PUSH1 0x20 DUP3 LT DUP2 SUB PUSH2 0x17AD JUMPI PUSH2 0x17AC PUSH2 0x1756 JUMP JUMPDEST JUMPDEST POP SWAP2 SWAP1 POP JUMP JUMPDEST PUSH0 DUP2 SWAP1 POP DUP2 PUSH0 MSTORE PUSH1 0x20 PUSH0 KECCAK256 SWAP1 POP SWAP2 SWAP1 POP JUMP JUMPDEST PUSH0 PUSH1 0x20 PUSH1 0x1F DUP4 ADD DIV SWAP1 POP SWAP2 SWAP1 POP JUMP JUMPDEST PUSH0 DUP3 DUP3 SHL SWAP1 POP SWAP3 SWAP2 POP POP JUMP JUMPDEST PUSH0 PUSH1 0x8 DUP4 MUL PUSH2 0x180F PUSH32 0xFFFFFFFFFFFFFFFFFFFFFFFFFFFFFFFFFFFFFFFFFFFFFFFFFFFFFFFFFFFFFFFF DUP3 PUSH2 0x17D4 JUMP JUMPDEST PUSH2 0x1819 DUP7 DUP4 PUSH2 0x17D4 JUMP JUMPDEST SWAP6 POP DUP1 NOT DUP5 AND SWAP4 POP DUP1 DUP7 AND DUP5 OR SWAP3 POP POP POP SWAP4 SWAP3 POP POP POP JUMP JUMPDEST PUSH0 DUP2 SWAP1 POP SWAP2 SWAP1 POP JUMP JUMPDEST PUSH0 PUSH2 0x1854 PUSH2 0x184F PUSH2 0x184A DUP5 PUSH2 0x114D JUMP JUMPDEST PUSH2 0x1831 JUMP JUMPDEST PUSH2 0x114D JUMP JUMPDEST SWAP1 POP SWAP2 SWAP1 POP JUMP JUMPDEST PUSH0 DUP2 SWAP1 POP SWAP2 SWAP1 POP JUMP JUMPDEST PUSH2 0x186D DUP4 PUSH2 0x183A JUMP JUMPDEST PUSH2 0x1881 PUSH2 0x1879 DUP3 PUSH2 0x185B JUMP JUMPDEST DUP5 DUP5 SLOAD PUSH2 0x17E0 JUMP JUMPDEST DUP3 SSTORE POP POP POP POP JUMP JUMPDEST PUSH0 SWAP1 JUMP JUMPDEST PUSH2 0x1895 PUSH2 0x1889 JUMP JUMPDEST PUSH2 0x18A0 DUP2 DUP5 DUP5 PUSH2 0x1864 JUMP JUMPDEST POP POP POP JUMP JUMPDEST JUMPDEST DUP2 DUP2 LT ISZERO PUSH2 0x18C3 JUMPI PUSH2 0x18B8 PUSH0 DUP3 PUSH2 0x188D JUMP JUMPDEST PUSH1 0x1 DUP2 ADD SWAP1 POP PUSH2 0x18A6 JUMP JUMPDEST POP POP JUMP JUMPDEST PUSH1 0x1F DUP3 GT ISZERO PUSH2 0x1908 JUMPI PUSH2 0x18D9 DUP2 PUSH2 0x17B3 JUMP JUMPDEST PUSH2 0x18E2 DUP5 PUSH2 0x17C5 JUMP JUMPDEST DUP2 ADD PUSH1 0x20 DUP6 LT ISZERO PUSH2 0x18F1 JUMPI DUP2 SWAP1 POP JUMPDEST PUSH2 0x1905 PUSH2 0x18FD DUP6 PUSH2 0x17C5 JUMP JUMPDEST DUP4 ADD DUP3 PUSH2 0x18A5 JUMP JUMPDEST POP POP JUMPDEST POP POP POP JUMP JUMPDEST PUSH0 DUP3 DUP3 SHR SWAP1 POP SWAP3 SWAP2 POP POP JUMP JUMPDEST PUSH0 PUSH2 0x1928 PUSH0 NOT DUP5 PUSH1 0x8 MUL PUSH2 0x190D JUMP JUMPDEST NOT DUP1 DUP4 AND SWAP2 POP POP SWAP3 SWAP2 POP POP JUMP JUMPDEST PUSH0 PUSH2 0x1940 DUP4 DUP4 PUSH2 0x1919 JUMP JUMPDEST SWAP2 POP DUP3 PUSH1 0x2 MUL DUP3 OR SWAP1 POP SWAP3 SWAP2 POP POP JUMP JUMPDEST PUSH2 0x1959 DUP3 PUSH2 0x1341 JUMP JUMPDEST PUSH8 0xFFFFFFFFFFFFFFFF DUP2 GT ISZERO PUSH2 0x1972 JUMPI PUSH2 0x1971 PUSH2 0x1729 JUMP JUMPDEST JUMPDEST PUSH2 0x197C DUP3 SLOAD PUSH2 0x1783 JUMP JUMPDEST PUSH2 0x1987 DUP3 DUP3 DUP6 PUSH2 0x18C7 JUMP JUMPDEST PUSH0 PUSH1 0x20 SWAP1 POP PUSH1 0x1F DUP4 GT PUSH1 0x1 DUP2 EQ PUSH2 0x19B8 JUMPI PUSH0 DUP5 ISZERO PUSH2 0x19A6 JUMPI DUP3 DUP8 ADD MLOAD SWAP1 POP JUMPDEST PUSH2 0x19B0 DUP6 DUP3 PUSH2 0x1935 JUMP JUMPDEST DUP7 SSTORE POP PUSH2 0x1A17 JUMP JUMPDEST PUSH1 0x1F NOT DUP5 AND PUSH2 0x19C6 DUP7 PUSH2 0x17B3 JUMP JUMPDEST PUSH0 JUMPDEST DUP3 DUP2 LT ISZERO PUSH2 0x19ED JUMPI DUP5 DUP10 ADD MLOAD DUP3 SSTORE PUSH1 0x1 DUP3 ADD SWAP2 POP PUSH1 0x20 DUP6 ADD SWAP5 POP PUSH1 0x20 DUP2 ADD SWAP1 POP PUSH2 0x19C8 JUMP JUMPDEST DUP7 DUP4 LT ISZERO PUSH2 0x1A0A JUMPI DUP5 DUP10 ADD MLOAD PUSH2 0x1A06 PUSH1 0x1F DUP10 AND DUP3 PUSH2 0x1919 JUMP JUMPDEST DUP4 SSTORE POP JUMPDEST PUSH1 0x1 PUSH1 0x2 DUP9 MUL ADD DUP9 SSTORE POP POP POP JUMPDEST POP POP POP POP POP POP JUMP JUMPDEST DUP3 DUP2 DUP4 CALLDATACOPY PUSH0 DUP4 DUP4 ADD MSTORE POP POP POP JUMP JUMPDEST PUSH0 PUSH2 0x1A38 DUP4 DUP6 PUSH2 0x156F JUMP JUMPDEST SWAP4 POP PUSH2 0x1A45 DUP4 DUP6 DUP5 PUSH2 0x1A1F JUMP JUMPDEST PUSH2 0x1A4E DUP4 PUSH2 0x1369 JUMP JUMPDEST DUP5 ADD SWAP1 POP SWAP4 SWAP3 POP POP POP JUMP JUMPDEST PUSH0 PUSH1 0x20 DUP3 ADD SWAP1 POP DUP2 DUP2 SUB PUSH0 DUP4 ADD MSTORE PUSH2 0x1A72 DUP2 DUP5 DUP7 PUSH2 0x1A2D JUMP JUMPDEST SWAP1 POP SWAP4 SWAP3 POP POP POP JUMP JUMPDEST PUSH32 0x52656D6F76616C204572726F723A204D616E61676572206E6F7420666F756E64 PUSH0 DUP3 ADD MSTORE POP JUMP JUMPDEST PUSH0 PUSH2 0x1AAF PUSH1 0x20 DUP4 PUSH2 0x156F JUMP JUMPDEST SWAP2 POP PUSH2 0x1ABA DUP3 PUSH2 0x1A7B JUMP JUMPDEST PUSH1 0x20 DUP3 ADD SWAP1 POP SWAP2 SWAP1 POP JUMP JUMPDEST PUSH0 PUSH1 0x20 DUP3 ADD SWAP1 POP DUP2 DUP2 SUB PUSH0 DUP4 ADD MSTORE PUSH2 0x1ADC DUP2 PUSH2 0x1AA3 JUMP JUMPDEST SWAP1 POP SWAP2 SWAP1 POP JUMP JUMPDEST PUSH32 0x417070726F76616C204572726F723A204D616E6167657220616C726561647920 PUSH0 DUP3 ADD MSTORE PUSH32 0x617070726F766564000000000000000000000000000000000000000000000000 PUSH1 0x20 DUP3 ADD MSTORE POP JUMP JUMPDEST PUSH0 PUSH2 0x1B3D PUSH1 0x28 DUP4 PUSH2 0x156F JUMP JUMPDEST SWAP2 POP PUSH2 0x1B48 DUP3 PUSH2 0x1AE3 JUMP JUMPDEST PUSH1 0x40 DUP3 ADD SWAP1 POP SWAP2 SWAP1 POP JUMP JUMPDEST PUSH0 PUSH1 0x20 DUP3 ADD SWAP1 POP DUP2 DUP2 SUB PUSH0 DUP4 ADD MSTORE PUSH2 0x1B6A DUP2 PUSH2 0x1B31 JUMP JUMPDEST SWAP1 POP SWAP2 SWAP1 POP JUMP JUMPDEST PUSH32 0x526567697374726174696F6E204572726F723A2050726F6475637420616C7265 PUSH0 DUP3 ADD MSTORE PUSH32 0x6164792072656769737465726564000000000000000000000000000000000000 PUSH1 0x20 DUP3 ADD MSTORE POP JUMP JUMPDEST PUSH0 PUSH2 0x1BCB PUSH1 0x2E DUP4 PUSH2 0x156F JUMP JUMPDEST SWAP2 POP PUSH2 0x1BD6 DUP3 PUSH2 0x1B71 JUMP JUMPDEST PUSH1 0x40 DUP3 ADD SWAP1 POP SWAP2 SWAP1 POP JUMP JUMPDEST PUSH0 PUSH1 0x20 DUP3 ADD SWAP1 POP DUP2 DUP2 SUB PUSH0 DUP4 ADD MSTORE PUSH2 0x1BF8 DUP2 PUSH2 0x1BBF JUMP JUMPDEST SWAP1 POP SWAP2 SWAP1 POP JUMP INVALID LOG2 PUSH5 0x6970667358 0x22 SLT KECCAK256 PUSH25 0x7E706DCCF2C8F80714FF4EBB15189D8338241C2233A2502671 PUSH21 0xCA85FA2DB364736F6C634300081A00330000000000 "
				},
				"gasEstimates": {
					"creation": {
						"codeDepositCost": "1444200",
						"executionCost": "27017",
						"totalCost": "1471217"
					},
					"external": {
						"approveManager(address)": "32645",
						"getProductMovementHistory(uint256)": "infinite",
						"pauseContract()": "26649",
						"recordMovement(uint256,string,address,string)": "infinite",
						"registerProduct(uint256)": "101680",
						"removeManager(address)": "32597",
						"unpauseContract()": "26669",
						"verifyProductAuthenticity(uint256)": "infinite"
					}
				},
				"methodIdentifiers": {
					"approveManager(address)": "b5eee722",
					"getProductMovementHistory(uint256)": "6d6bb057",
					"pauseContract()": "439766ce",
					"recordMovement(uint256,string,address,string)": "5abdcb55",
					"registerProduct(uint256)": "c08e0f96",
					"removeManager(address)": "ac18de43",
					"unpauseContract()": "b33712c5",
					"verifyProductAuthenticity(uint256)": "767bdff1"
				}
			},
			"storageLayout": {
				"storage": [
					{
						"astId": 30,
						"contract": "contracts/Traceability.sol:Traceability",
						"label": "productMovements",
						"offset": 0,
						"slot": "0",
						"type": "t_mapping(t_uint256,t_array(t_struct(MovementEvent)15_storage)dyn_storage)"
					},
					{
						"astId": 35,
						"contract": "contracts/Traceability.sol:Traceability",
						"label": "products",
						"offset": 0,
						"slot": "1",
						"type": "t_mapping(t_uint256,t_struct(Product)24_storage)"
					},
					{
						"astId": 39,
						"contract": "contracts/Traceability.sol:Traceability",
						"label": "approvedManagers",
						"offset": 0,
						"slot": "2",
						"type": "t_mapping(t_address,t_bool)"
					},
					{
						"astId": 65,
						"contract": "contracts/Traceability.sol:Traceability",
						"label": "paused",
						"offset": 0,
						"slot": "3",
						"type": "t_bool"
					}
				],
				"types": {
					"t_address": {
						"encoding": "inplace",
						"label": "address",
						"numberOfBytes": "20"
					},
					"t_array(t_struct(MovementEvent)15_storage)dyn_storage": {
						"base": "t_struct(MovementEvent)15_storage",
						"encoding": "dynamic_array",
						"label": "struct Traceability.MovementEvent[]",
						"numberOfBytes": "32"
					},
					"t_bool": {
						"encoding": "inplace",
						"label": "bool",
						"numberOfBytes": "1"
					},
					"t_mapping(t_address,t_bool)": {
						"encoding": "mapping",
						"key": "t_address",
						"label": "mapping(address => bool)",
						"numberOfBytes": "32",
						"value": "t_bool"
					},
					"t_mapping(t_uint256,t_array(t_struct(MovementEvent)15_storage)dyn_storage)": {
						"encoding": "mapping",
						"key": "t_uint256",
						"label": "mapping(uint256 => struct Traceability.MovementEvent[])",
						"numberOfBytes": "32",
						"value": "t_array(t_struct(MovementEvent)15_storage)dyn_storage"
					},
					"t_mapping(t_uint256,t_struct(Product)24_storage)": {
						"encoding": "mapping",
						"key": "t_uint256",
						"label": "mapping(uint256 => struct Traceability.Product)",
						"numberOfBytes": "32",
						"value": "t_struct(Product)24_storage"
					},
					"t_string_storage": {
						"encoding": "bytes",
						"label": "string",
						"numberOfBytes": "32"
					},
					"t_struct(MovementEvent)15_storage": {
						"encoding": "inplace",
						"label": "struct Traceability.MovementEvent",
						"members": [
							{
								"astId": 4,
								"contract": "contracts/Traceability.sol:Traceability",
								"label": "productId",
								"offset": 0,
								"slot": "0",
								"type": "t_uint256"
							},
							{
								"astId": 6,
								"contract": "contracts/Traceability.sol:Traceability",
								"label": "location",
								"offset": 0,
								"slot": "1",
								"type": "t_string_storage"
							},
							{
								"astId": 8,
								"contract": "contracts/Traceability.sol:Traceability",
								"label": "from",
								"offset": 0,
								"slot": "2",
								"type": "t_address"
							},
							{
								"astId": 10,
								"contract": "contracts/Traceability.sol:Traceability",
								"label": "to",
								"offset": 0,
								"slot": "3",
								"type": "t_address"
							},
							{
								"astId": 12,
								"contract": "contracts/Traceability.sol:Traceability",
								"label": "timestamp",
								"offset": 0,
								"slot": "4",
								"type": "t_uint256"
							},
							{
								"astId": 14,
								"contract": "contracts/Traceability.sol:Traceability",
								"label": "eventDetails",
								"offset": 0,
								"slot": "5",
								"type": "t_string_storage"
							}
						],
						"numberOfBytes": "192"
					},
					"t_struct(Product)24_storage": {
						"encoding": "inplace",
						"label": "struct Traceability.Product",
						"members": [
							{
								"astId": 17,
								"contract": "contracts/Traceability.sol:Traceability",
								"label": "productId",
								"offset": 0,
								"slot": "0",
								"type": "t_uint256"
							},
							{
								"astId": 19,
								"contract": "contracts/Traceability.sol:Traceability",
								"label": "isRegistered",
								"offset": 0,
								"slot": "1",
								"type": "t_bool"
							},
							{
								"astId": 21,
								"contract": "contracts/Traceability.sol:Traceability",
								"label": "origin",
								"offset": 1,
								"slot": "1",
								"type": "t_address"
							},
							{
								"astId": 23,
								"contract": "contracts/Traceability.sol:Traceability",
								"label": "creationDate",
								"offset": 0,
								"slot": "2",
								"type": "t_uint256"
							}
						],
						"numberOfBytes": "96"
					},
					"t_uint256": {
						"encoding": "inplace",
						"label": "uint256",
						"numberOfBytes": "32"
					}
				}
			},
			"userdoc": {
				"kind": "user",
				"methods": {
					"approveManager(address)": {
						"notice": "Approve a new manager for product movement management"
					},
					"getProductMovementHistory(uint256)": {
						"notice": "Get the movement history of a product"
					},
					"pauseContract()": {
						"notice": "Pause the contract to prevent certain operations"
					},
					"recordMovement(uint256,string,address,string)": {
						"notice": "Record a product movement event"
					},
					"registerProduct(uint256)": {
						"notice": "Register a new product to start its traceability"
					},
					"removeManager(address)": {
						"notice": "Remove an existing manager"
					},
					"unpauseContract()": {
						"notice": "Unpause the contract to resume operations"
					},
					"verifyProductAuthenticity(uint256)": {
						"notice": "Verify the authenticity and provenance of a product"
					}
				},
				"notice": "This contract manages the recording of events related to product movements within the supply chain.",
				"version": 1
			}
		}
	}
}