{
	"contracts/ParticipantRegistry.sol": {
		"ParticipantRegistry": {
			"abi": [
				{
					"inputs": [],
					"stateMutability": "nonpayable",
					"type": "constructor"
				},
				{
					"anonymous": false,
					"inputs": [
						{
							"indexed": true,
							"internalType": "address",
							"name": "participantAddress",
							"type": "address"
						},
						{
							"indexed": false,
							"internalType": "enum ParticipantRegistry.Role",
							"name": "role",
							"type": "uint8"
						}
					],
					"name": "ParticipantRegistered",
					"type": "event"
				},
				{
					"anonymous": false,
					"inputs": [
						{
							"indexed": true,
							"internalType": "address",
							"name": "participantAddress",
							"type": "address"
						}
					],
					"name": "ParticipantRemoved",
					"type": "event"
				},
				{
					"anonymous": false,
					"inputs": [
						{
							"indexed": true,
							"internalType": "address",
							"name": "registrar",
							"type": "address"
						}
					],
					"name": "RegistrarApproved",
					"type": "event"
				},
				{
					"anonymous": false,
					"inputs": [
						{
							"indexed": true,
							"internalType": "address",
							"name": "registrar",
							"type": "address"
						}
					],
					"name": "RegistrarRemoved",
					"type": "event"
				},
				{
					"anonymous": false,
					"inputs": [
						{
							"indexed": true,
							"internalType": "address",
							"name": "participantAddress",
							"type": "address"
						},
						{
							"indexed": false,
							"internalType": "enum ParticipantRegistry.Role",
							"name": "newRole",
							"type": "uint8"
						}
					],
					"name": "RoleUpdated",
					"type": "event"
				},
				{
					"inputs": [
						{
							"internalType": "address",
							"name": "_registrar",
							"type": "address"
						}
					],
					"name": "approveRegistrar",
					"outputs": [],
					"stateMutability": "nonpayable",
					"type": "function"
				},
				{
					"inputs": [
						{
							"internalType": "address",
							"name": "_participantAddress",
							"type": "address"
						}
					],
					"name": "getParticipant",
					"outputs": [
						{
							"internalType": "enum ParticipantRegistry.Role",
							"name": "",
							"type": "uint8"
						}
					],
					"stateMutability": "view",
					"type": "function"
				},
				{
					"inputs": [],
					"name": "pauseContract",
					"outputs": [],
					"stateMutability": "nonpayable",
					"type": "function"
				},
				{
					"inputs": [
						{
							"internalType": "address",
							"name": "_participantAddress",
							"type": "address"
						},
						{
							"internalType": "enum ParticipantRegistry.Role",
							"name": "_role",
							"type": "uint8"
						}
					],
					"name": "registerParticipant",
					"outputs": [],
					"stateMutability": "nonpayable",
					"type": "function"
				},
				{
					"inputs": [
						{
							"internalType": "address",
							"name": "_participantAddress",
							"type": "address"
						}
					],
					"name": "removeParticipant",
					"outputs": [],
					"stateMutability": "nonpayable",
					"type": "function"
				},
				{
					"inputs": [
						{
							"internalType": "address",
							"name": "_registrar",
							"type": "address"
						}
					],
					"name": "removeRegistrar",
					"outputs": [],
					"stateMutability": "nonpayable",
					"type": "function"
				},
				{
					"inputs": [],
					"name": "unpauseContract",
					"outputs": [],
					"stateMutability": "nonpayable",
					"type": "function"
				},
				{
					"inputs": [
						{
							"internalType": "address",
							"name": "_participantAddress",
							"type": "address"
						},
						{
							"internalType": "enum ParticipantRegistry.Role",
							"name": "_newRole",
							"type": "uint8"
						}
					],
					"name": "updateRole",
					"outputs": [],
					"stateMutability": "nonpayable",
					"type": "function"
				}
			],
			"devdoc": {
				"details": "Includes role-based access control and event logging for transparency.",
				"kind": "dev",
				"methods": {
					"approveRegistrar(address)": {
						"params": {
							"_registrar": "The address to be approved as a registrar"
						}
					},
					"getParticipant(address)": {
						"params": {
							"_participantAddress": "The address of the participant"
						},
						"returns": {
							"_0": "The role of the participant"
						}
					},
					"registerParticipant(address,uint8)": {
						"params": {
							"_participantAddress": "The address of the participant to be registered",
							"_role": "The role assigned to the participant"
						}
					},
					"removeParticipant(address)": {
						"params": {
							"_participantAddress": "The address of the participant to be removed"
						}
					},
					"removeRegistrar(address)": {
						"params": {
							"_registrar": "The address to be removed from approved registrars"
						}
					},
					"updateRole(address,uint8)": {
						"params": {
							"_newRole": "The new role to be assigned to the participant",
							"_participantAddress": "The address of the participant whose role is to be updated"
						}
					}
				},
				"title": "Participant Registry - Supply Chain Management System",
				"version": 1
			},
			"evm": {
				"assembly": "    /* \"contracts/ParticipantRegistry.sol\":309:5686  contract ParticipantRegistry {... */\n  mstore(0x40, 0x80)\n    /* \"contracts/ParticipantRegistry.sol\":2261:2373  constructor() {... */\n  callvalue\n  dup1\n  iszero\n  tag_1\n  jumpi\n  0x00\n  dup1\n  revert\ntag_1:\n  pop\n    /* \"contracts/ParticipantRegistry.sol\":2318:2322  true */\n  0x01\n    /* \"contracts/ParticipantRegistry.sol\":2285:2303  approvedRegistrars */\n  dup1\n    /* \"contracts/ParticipantRegistry.sol\":2285:2315  approvedRegistrars[msg.sender] */\n  0x00\n    /* \"contracts/ParticipantRegistry.sol\":2304:2314  msg.sender */\n  caller\n    /* \"contracts/ParticipantRegistry.sol\":2285:2315  approvedRegistrars[msg.sender] */\n  0xffffffffffffffffffffffffffffffffffffffff\n  and\n  0xffffffffffffffffffffffffffffffffffffffff\n  and\n  dup2\n  mstore\n  0x20\n  add\n  swap1\n  dup2\n  mstore\n  0x20\n  add\n  0x00\n  keccak256\n  0x00\n    /* \"contracts/ParticipantRegistry.sol\":2285:2322  approvedRegistrars[msg.sender] = true */\n  0x0100\n  exp\n  dup2\n  sload\n  dup2\n  0xff\n  mul\n  not\n  and\n  swap1\n  dup4\n  iszero\n  iszero\n  mul\n  or\n  swap1\n  sstore\n  pop\n    /* \"contracts/ParticipantRegistry.sol\":2355:2365  msg.sender */\n  caller\n    /* \"contracts/ParticipantRegistry.sol\":2337:2366  RegistrarApproved(msg.sender) */\n  0xffffffffffffffffffffffffffffffffffffffff\n  and\n  0xa33b5afc5bfd49840d1820b94dff6dd99e640e91f3286fdd3384d20be85faf68\n  mload(0x40)\n  mload(0x40)\n  dup1\n  swap2\n  sub\n  swap1\n  log2\n    /* \"contracts/ParticipantRegistry.sol\":309:5686  contract ParticipantRegistry {... */\n  dataSize(sub_0)\n  dup1\n  dataOffset(sub_0)\n  0x00\n  codecopy\n  0x00\n  return\nstop\n\nsub_0: assembly {\n        /* \"contracts/ParticipantRegistry.sol\":309:5686  contract ParticipantRegistry {... */\n      mstore(0x40, 0x80)\n      callvalue\n      dup1\n      iszero\n      tag_1\n      jumpi\n      0x00\n      dup1\n      revert\n    tag_1:\n      pop\n      jumpi(tag_2, lt(calldatasize, 0x04))\n      shr(0xe0, calldataload(0x00))\n      dup1\n      0x8e96d94e\n      gt\n      tag_11\n      jumpi\n      dup1\n      0x8e96d94e\n      eq\n      tag_7\n      jumpi\n      dup1\n      0xa8b12f5c\n      eq\n      tag_8\n      jumpi\n      dup1\n      0xb33712c5\n      eq\n      tag_9\n      jumpi\n      dup1\n      0xba904eed\n      eq\n      tag_10\n      jumpi\n      jump(tag_2)\n    tag_11:\n      dup1\n      0x439766ce\n      eq\n      tag_3\n      jumpi\n      dup1\n      0x4b394d4a\n      eq\n      tag_4\n      jumpi\n      dup1\n      0x668a2001\n      eq\n      tag_5\n      jumpi\n      dup1\n      0x7143059f\n      eq\n      tag_6\n      jumpi\n    tag_2:\n      0x00\n      dup1\n      revert\n        /* \"contracts/ParticipantRegistry.sol\":5445:5531  function pauseContract() external onlyApprovedRegistrar {... */\n    tag_3:\n      tag_12\n      tag_13\n      jump\t// in\n    tag_12:\n      stop\n        /* \"contracts/ParticipantRegistry.sol\":2516:2801  function approveRegistrar(address _registrar) external onlyApprovedRegistrar whenNotPaused {... */\n    tag_4:\n      tag_14\n      0x04\n      dup1\n      calldatasize\n      sub\n      dup2\n      add\n      swap1\n      tag_15\n      swap2\n      swap1\n      tag_16\n      jump\t// in\n    tag_15:\n      tag_17\n      jump\t// in\n    tag_14:\n      stop\n        /* \"contracts/ParticipantRegistry.sol\":5038:5374  function removeParticipant(address _participantAddress) external onlyApprovedRegistrar whenNotPaused {... */\n    tag_5:\n      tag_18\n      0x04\n      dup1\n      calldatasize\n      sub\n      dup2\n      add\n      swap1\n      tag_19\n      swap2\n      swap1\n      tag_16\n      jump\t// in\n    tag_19:\n      tag_20\n      jump\t// in\n    tag_18:\n      stop\n        /* \"contracts/ParticipantRegistry.sol\":4635:4887  function getParticipant(address _participantAddress) external view returns (Role) {... */\n    tag_6:\n      tag_21\n      0x04\n      dup1\n      calldatasize\n      sub\n      dup2\n      add\n      swap1\n      tag_22\n      swap2\n      swap1\n      tag_16\n      jump\t// in\n    tag_22:\n      tag_23\n      jump\t// in\n    tag_21:\n      mload(0x40)\n      tag_24\n      swap2\n      swap1\n      tag_25\n      jump\t// in\n    tag_24:\n      mload(0x40)\n      dup1\n      swap2\n      sub\n      swap1\n      return\n        /* \"contracts/ParticipantRegistry.sol\":4041:4462  function updateRole(address _participantAddress, Role _newRole) external onlyApprovedRegistrar whenNotPaused {... */\n    tag_7:\n      tag_26\n      0x04\n      dup1\n      calldatasize\n      sub\n      dup2\n      add\n      swap1\n      tag_27\n      swap2\n      swap1\n      tag_28\n      jump\t// in\n    tag_27:\n      tag_29\n      jump\t// in\n    tag_26:\n      stop\n        /* \"contracts/ParticipantRegistry.sol\":3416:3811  function registerParticipant(address _participantAddress, Role _role) external onlyApprovedRegistrar notRegistered(_participantAddress) whenNotPaused {... */\n    tag_8:\n      tag_30\n      0x04\n      dup1\n      calldatasize\n      sub\n      dup2\n      add\n      swap1\n      tag_31\n      swap2\n      swap1\n      tag_28\n      jump\t// in\n    tag_31:\n      tag_32\n      jump\t// in\n    tag_30:\n      stop\n        /* \"contracts/ParticipantRegistry.sol\":5595:5684  function unpauseContract() external onlyApprovedRegistrar {... */\n    tag_9:\n      tag_33\n      tag_34\n      jump\t// in\n    tag_33:\n      stop\n        /* \"contracts/ParticipantRegistry.sol\":2929:3204  function removeRegistrar(address _registrar) external onlyApprovedRegistrar whenNotPaused {... */\n    tag_10:\n      tag_35\n      0x04\n      dup1\n      calldatasize\n      sub\n      dup2\n      add\n      swap1\n      tag_36\n      swap2\n      swap1\n      tag_16\n      jump\t// in\n    tag_36:\n      tag_37\n      jump\t// in\n    tag_35:\n      stop\n        /* \"contracts/ParticipantRegistry.sol\":5445:5531  function pauseContract() external onlyApprovedRegistrar {... */\n    tag_13:\n        /* \"contracts/ParticipantRegistry.sol\":1679:1697  approvedRegistrars */\n      0x01\n        /* \"contracts/ParticipantRegistry.sol\":1679:1709  approvedRegistrars[msg.sender] */\n      0x00\n        /* \"contracts/ParticipantRegistry.sol\":1698:1708  msg.sender */\n      caller\n        /* \"contracts/ParticipantRegistry.sol\":1679:1709  approvedRegistrars[msg.sender] */\n      0xffffffffffffffffffffffffffffffffffffffff\n      and\n      0xffffffffffffffffffffffffffffffffffffffff\n      and\n      dup2\n      mstore\n      0x20\n      add\n      swap1\n      dup2\n      mstore\n      0x20\n      add\n      0x00\n      keccak256\n      0x00\n      swap1\n      sload\n      swap1\n      0x0100\n      exp\n      swap1\n      div\n      0xff\n      and\n        /* \"contracts/ParticipantRegistry.sol\":1671:1756  require(approvedRegistrars[msg.sender], \"Access Denied: Not an authorized registrar\") */\n      tag_39\n      jumpi\n      mload(0x40)\n      0x08c379a000000000000000000000000000000000000000000000000000000000\n      dup2\n      mstore\n      0x04\n      add\n      tag_40\n      swap1\n      tag_41\n      jump\t// in\n    tag_40:\n      mload(0x40)\n      dup1\n      swap2\n      sub\n      swap1\n      revert\n    tag_39:\n        /* \"contracts/ParticipantRegistry.sol\":5520:5524  true */\n      0x01\n        /* \"contracts/ParticipantRegistry.sol\":5511:5517  paused */\n      0x02\n      0x00\n        /* \"contracts/ParticipantRegistry.sol\":5511:5524  paused = true */\n      0x0100\n      exp\n      dup2\n      sload\n      dup2\n      0xff\n      mul\n      not\n      and\n      swap1\n      dup4\n      iszero\n      iszero\n      mul\n      or\n      swap1\n      sstore\n      pop\n        /* \"contracts/ParticipantRegistry.sol\":5445:5531  function pauseContract() external onlyApprovedRegistrar {... */\n      jump\t// out\n        /* \"contracts/ParticipantRegistry.sol\":2516:2801  function approveRegistrar(address _registrar) external onlyApprovedRegistrar whenNotPaused {... */\n    tag_17:\n        /* \"contracts/ParticipantRegistry.sol\":1679:1697  approvedRegistrars */\n      0x01\n        /* \"contracts/ParticipantRegistry.sol\":1679:1709  approvedRegistrars[msg.sender] */\n      0x00\n        /* \"contracts/ParticipantRegistry.sol\":1698:1708  msg.sender */\n      caller\n        /* \"contracts/ParticipantRegistry.sol\":1679:1709  approvedRegistrars[msg.sender] */\n      0xffffffffffffffffffffffffffffffffffffffff\n      and\n      0xffffffffffffffffffffffffffffffffffffffff\n      and\n      dup2\n      mstore\n      0x20\n      add\n      swap1\n      dup2\n      mstore\n      0x20\n      add\n      0x00\n      keccak256\n      0x00\n      swap1\n      sload\n      swap1\n      0x0100\n      exp\n      swap1\n      div\n      0xff\n      and\n        /* \"contracts/ParticipantRegistry.sol\":1671:1756  require(approvedRegistrars[msg.sender], \"Access Denied: Not an authorized registrar\") */\n      tag_44\n      jumpi\n      mload(0x40)\n      0x08c379a000000000000000000000000000000000000000000000000000000000\n      dup2\n      mstore\n      0x04\n      add\n      tag_45\n      swap1\n      tag_41\n      jump\t// in\n    tag_45:\n      mload(0x40)\n      dup1\n      swap2\n      sub\n      swap1\n      revert\n    tag_44:\n        /* \"contracts/ParticipantRegistry.sol\":2116:2122  paused */\n      0x02\n      0x00\n      swap1\n      sload\n      swap1\n      0x0100\n      exp\n      swap1\n      div\n      0xff\n      and\n        /* \"contracts/ParticipantRegistry.sol\":2115:2122  !paused */\n      iszero\n        /* \"contracts/ParticipantRegistry.sol\":2107:2162  require(!paused, \"Operation Error: Contract is paused\") */\n      tag_47\n      jumpi\n      mload(0x40)\n      0x08c379a000000000000000000000000000000000000000000000000000000000\n      dup2\n      mstore\n      0x04\n      add\n      tag_48\n      swap1\n      tag_49\n      jump\t// in\n    tag_48:\n      mload(0x40)\n      dup1\n      swap2\n      sub\n      swap1\n      revert\n    tag_47:\n        /* \"contracts/ParticipantRegistry.sol\":2626:2644  approvedRegistrars */\n      0x01\n        /* \"contracts/ParticipantRegistry.sol\":2626:2656  approvedRegistrars[_registrar] */\n      0x00\n        /* \"contracts/ParticipantRegistry.sol\":2645:2655  _registrar */\n      dup3\n        /* \"contracts/ParticipantRegistry.sol\":2626:2656  approvedRegistrars[_registrar] */\n      0xffffffffffffffffffffffffffffffffffffffff\n      and\n      0xffffffffffffffffffffffffffffffffffffffff\n      and\n      dup2\n      mstore\n      0x20\n      add\n      swap1\n      dup2\n      mstore\n      0x20\n      add\n      0x00\n      keccak256\n      0x00\n      swap1\n      sload\n      swap1\n      0x0100\n      exp\n      swap1\n      div\n      0xff\n      and\n        /* \"contracts/ParticipantRegistry.sol\":2625:2656  !approvedRegistrars[_registrar] */\n      iszero\n        /* \"contracts/ParticipantRegistry.sol\":2617:2703  require(!approvedRegistrars[_registrar], \"Approval Error: Registrar already approved\") */\n      tag_51\n      jumpi\n      mload(0x40)\n      0x08c379a000000000000000000000000000000000000000000000000000000000\n      dup2\n      mstore\n      0x04\n      add\n      tag_52\n      swap1\n      tag_53\n      jump\t// in\n    tag_52:\n      mload(0x40)\n      dup1\n      swap2\n      sub\n      swap1\n      revert\n    tag_51:\n        /* \"contracts/ParticipantRegistry.sol\":2746:2750  true */\n      0x01\n        /* \"contracts/ParticipantRegistry.sol\":2713:2731  approvedRegistrars */\n      dup1\n        /* \"contracts/ParticipantRegistry.sol\":2713:2743  approvedRegistrars[_registrar] */\n      0x00\n        /* \"contracts/ParticipantRegistry.sol\":2732:2742  _registrar */\n      dup4\n        /* \"contracts/ParticipantRegistry.sol\":2713:2743  approvedRegistrars[_registrar] */\n      0xffffffffffffffffffffffffffffffffffffffff\n      and\n      0xffffffffffffffffffffffffffffffffffffffff\n      and\n      dup2\n      mstore\n      0x20\n      add\n      swap1\n      dup2\n      mstore\n      0x20\n      add\n      0x00\n      keccak256\n      0x00\n        /* \"contracts/ParticipantRegistry.sol\":2713:2750  approvedRegistrars[_registrar] = true */\n      0x0100\n      exp\n      dup2\n      sload\n      dup2\n      0xff\n      mul\n      not\n      and\n      swap1\n      dup4\n      iszero\n      iszero\n      mul\n      or\n      swap1\n      sstore\n      pop\n        /* \"contracts/ParticipantRegistry.sol\":2783:2793  _registrar */\n      dup1\n        /* \"contracts/ParticipantRegistry.sol\":2765:2794  RegistrarApproved(_registrar) */\n      0xffffffffffffffffffffffffffffffffffffffff\n      and\n      0xa33b5afc5bfd49840d1820b94dff6dd99e640e91f3286fdd3384d20be85faf68\n      mload(0x40)\n      mload(0x40)\n      dup1\n      swap2\n      sub\n      swap1\n      log2\n        /* \"contracts/ParticipantRegistry.sol\":2516:2801  function approveRegistrar(address _registrar) external onlyApprovedRegistrar whenNotPaused {... */\n      pop\n      jump\t// out\n        /* \"contracts/ParticipantRegistry.sol\":5038:5374  function removeParticipant(address _participantAddress) external onlyApprovedRegistrar whenNotPaused {... */\n    tag_20:\n        /* \"contracts/ParticipantRegistry.sol\":1679:1697  approvedRegistrars */\n      0x01\n        /* \"contracts/ParticipantRegistry.sol\":1679:1709  approvedRegistrars[msg.sender] */\n      0x00\n        /* \"contracts/ParticipantRegistry.sol\":1698:1708  msg.sender */\n      caller\n        /* \"contracts/ParticipantRegistry.sol\":1679:1709  approvedRegistrars[msg.sender] */\n      0xffffffffffffffffffffffffffffffffffffffff\n      and\n      0xffffffffffffffffffffffffffffffffffffffff\n      and\n      dup2\n      mstore\n      0x20\n      add\n      swap1\n      dup2\n      mstore\n      0x20\n      add\n      0x00\n      keccak256\n      0x00\n      swap1\n      sload\n      swap1\n      0x0100\n      exp\n      swap1\n      div\n      0xff\n      and\n        /* \"contracts/ParticipantRegistry.sol\":1671:1756  require(approvedRegistrars[msg.sender], \"Access Denied: Not an authorized registrar\") */\n      tag_55\n      jumpi\n      mload(0x40)\n      0x08c379a000000000000000000000000000000000000000000000000000000000\n      dup2\n      mstore\n      0x04\n      add\n      tag_56\n      swap1\n      tag_41\n      jump\t// in\n    tag_56:\n      mload(0x40)\n      dup1\n      swap2\n      sub\n      swap1\n      revert\n    tag_55:\n        /* \"contracts/ParticipantRegistry.sol\":2116:2122  paused */\n      0x02\n      0x00\n      swap1\n      sload\n      swap1\n      0x0100\n      exp\n      swap1\n      div\n      0xff\n      and\n        /* \"contracts/ParticipantRegistry.sol\":2115:2122  !paused */\n      iszero\n        /* \"contracts/ParticipantRegistry.sol\":2107:2162  require(!paused, \"Operation Error: Contract is paused\") */\n      tag_58\n      jumpi\n      mload(0x40)\n      0x08c379a000000000000000000000000000000000000000000000000000000000\n      dup2\n      mstore\n      0x04\n      add\n      tag_59\n      swap1\n      tag_49\n      jump\t// in\n    tag_59:\n      mload(0x40)\n      dup1\n      swap2\n      sub\n      swap1\n      revert\n    tag_58:\n        /* \"contracts/ParticipantRegistry.sol\":5157:5169  participants */\n      0x00\n        /* \"contracts/ParticipantRegistry.sol\":5157:5190  participants[_participantAddress] */\n      dup1\n        /* \"contracts/ParticipantRegistry.sol\":5170:5189  _participantAddress */\n      dup3\n        /* \"contracts/ParticipantRegistry.sol\":5157:5190  participants[_participantAddress] */\n      0xffffffffffffffffffffffffffffffffffffffff\n      and\n      0xffffffffffffffffffffffffffffffffffffffff\n      and\n      dup2\n      mstore\n      0x20\n      add\n      swap1\n      dup2\n      mstore\n      0x20\n      add\n      0x00\n      keccak256\n        /* \"contracts/ParticipantRegistry.sol\":5157:5203  participants[_participantAddress].isRegistered */\n      0x00\n      add\n      0x15\n      swap1\n      sload\n      swap1\n      0x0100\n      exp\n      swap1\n      div\n      0xff\n      and\n        /* \"contracts/ParticipantRegistry.sol\":5149:5249  require(participants[_participantAddress].isRegistered, \"Removal Error: Participant not registered\") */\n      tag_61\n      jumpi\n      mload(0x40)\n      0x08c379a000000000000000000000000000000000000000000000000000000000\n      dup2\n      mstore\n      0x04\n      add\n      tag_62\n      swap1\n      tag_63\n      jump\t// in\n    tag_62:\n      mload(0x40)\n      dup1\n      swap2\n      sub\n      swap1\n      revert\n    tag_61:\n        /* \"contracts/ParticipantRegistry.sol\":5308:5313  false */\n      0x00\n        /* \"contracts/ParticipantRegistry.sol\":5259:5271  participants */\n      dup1\n        /* \"contracts/ParticipantRegistry.sol\":5259:5292  participants[_participantAddress] */\n      0x00\n        /* \"contracts/ParticipantRegistry.sol\":5272:5291  _participantAddress */\n      dup4\n        /* \"contracts/ParticipantRegistry.sol\":5259:5292  participants[_participantAddress] */\n      0xffffffffffffffffffffffffffffffffffffffff\n      and\n      0xffffffffffffffffffffffffffffffffffffffff\n      and\n      dup2\n      mstore\n      0x20\n      add\n      swap1\n      dup2\n      mstore\n      0x20\n      add\n      0x00\n      keccak256\n        /* \"contracts/ParticipantRegistry.sol\":5259:5305  participants[_participantAddress].isRegistered */\n      0x00\n      add\n      0x15\n        /* \"contracts/ParticipantRegistry.sol\":5259:5313  participants[_participantAddress].isRegistered = false */\n      0x0100\n      exp\n      dup2\n      sload\n      dup2\n      0xff\n      mul\n      not\n      and\n      swap1\n      dup4\n      iszero\n      iszero\n      mul\n      or\n      swap1\n      sstore\n      pop\n        /* \"contracts/ParticipantRegistry.sol\":5347:5366  _participantAddress */\n      dup1\n        /* \"contracts/ParticipantRegistry.sol\":5328:5367  ParticipantRemoved(_participantAddress) */\n      0xffffffffffffffffffffffffffffffffffffffff\n      and\n      0x1a5e355a9a34d7eac1e439a6c610ba1fa72aa45f7645724ce5187fa19c3bd3fc\n      mload(0x40)\n      mload(0x40)\n      dup1\n      swap2\n      sub\n      swap1\n      log2\n        /* \"contracts/ParticipantRegistry.sol\":5038:5374  function removeParticipant(address _participantAddress) external onlyApprovedRegistrar whenNotPaused {... */\n      pop\n      jump\t// out\n        /* \"contracts/ParticipantRegistry.sol\":4635:4887  function getParticipant(address _participantAddress) external view returns (Role) {... */\n    tag_23:\n        /* \"contracts/ParticipantRegistry.sol\":4711:4715  Role */\n      0x00\n        /* \"contracts/ParticipantRegistry.sol\":4735:4747  participants */\n      dup1\n        /* \"contracts/ParticipantRegistry.sol\":4735:4768  participants[_participantAddress] */\n      0x00\n        /* \"contracts/ParticipantRegistry.sol\":4748:4767  _participantAddress */\n      dup4\n        /* \"contracts/ParticipantRegistry.sol\":4735:4768  participants[_participantAddress] */\n      0xffffffffffffffffffffffffffffffffffffffff\n      and\n      0xffffffffffffffffffffffffffffffffffffffff\n      and\n      dup2\n      mstore\n      0x20\n      add\n      swap1\n      dup2\n      mstore\n      0x20\n      add\n      0x00\n      keccak256\n        /* \"contracts/ParticipantRegistry.sol\":4735:4781  participants[_participantAddress].isRegistered */\n      0x00\n      add\n      0x15\n      swap1\n      sload\n      swap1\n      0x0100\n      exp\n      swap1\n      div\n      0xff\n      and\n        /* \"contracts/ParticipantRegistry.sol\":4727:4825  require(participants[_participantAddress].isRegistered, \"Query Error: Participant not registered\") */\n      tag_65\n      jumpi\n      mload(0x40)\n      0x08c379a000000000000000000000000000000000000000000000000000000000\n      dup2\n      mstore\n      0x04\n      add\n      tag_66\n      swap1\n      tag_67\n      jump\t// in\n    tag_66:\n      mload(0x40)\n      dup1\n      swap2\n      sub\n      swap1\n      revert\n    tag_65:\n        /* \"contracts/ParticipantRegistry.sol\":4842:4854  participants */\n      0x00\n        /* \"contracts/ParticipantRegistry.sol\":4842:4875  participants[_participantAddress] */\n      dup1\n        /* \"contracts/ParticipantRegistry.sol\":4855:4874  _participantAddress */\n      dup4\n        /* \"contracts/ParticipantRegistry.sol\":4842:4875  participants[_participantAddress] */\n      0xffffffffffffffffffffffffffffffffffffffff\n      and\n      0xffffffffffffffffffffffffffffffffffffffff\n      and\n      dup2\n      mstore\n      0x20\n      add\n      swap1\n      dup2\n      mstore\n      0x20\n      add\n      0x00\n      keccak256\n        /* \"contracts/ParticipantRegistry.sol\":4842:4880  participants[_participantAddress].role */\n      0x00\n      add\n      0x14\n      swap1\n      sload\n      swap1\n      0x0100\n      exp\n      swap1\n      div\n      0xff\n      and\n        /* \"contracts/ParticipantRegistry.sol\":4835:4880  return participants[_participantAddress].role */\n      swap1\n      pop\n        /* \"contracts/ParticipantRegistry.sol\":4635:4887  function getParticipant(address _participantAddress) external view returns (Role) {... */\n      swap2\n      swap1\n      pop\n      jump\t// out\n        /* \"contracts/ParticipantRegistry.sol\":4041:4462  function updateRole(address _participantAddress, Role _newRole) external onlyApprovedRegistrar whenNotPaused {... */\n    tag_29:\n        /* \"contracts/ParticipantRegistry.sol\":1679:1697  approvedRegistrars */\n      0x01\n        /* \"contracts/ParticipantRegistry.sol\":1679:1709  approvedRegistrars[msg.sender] */\n      0x00\n        /* \"contracts/ParticipantRegistry.sol\":1698:1708  msg.sender */\n      caller\n        /* \"contracts/ParticipantRegistry.sol\":1679:1709  approvedRegistrars[msg.sender] */\n      0xffffffffffffffffffffffffffffffffffffffff\n      and\n      0xffffffffffffffffffffffffffffffffffffffff\n      and\n      dup2\n      mstore\n      0x20\n      add\n      swap1\n      dup2\n      mstore\n      0x20\n      add\n      0x00\n      keccak256\n      0x00\n      swap1\n      sload\n      swap1\n      0x0100\n      exp\n      swap1\n      div\n      0xff\n      and\n        /* \"contracts/ParticipantRegistry.sol\":1671:1756  require(approvedRegistrars[msg.sender], \"Access Denied: Not an authorized registrar\") */\n      tag_69\n      jumpi\n      mload(0x40)\n      0x08c379a000000000000000000000000000000000000000000000000000000000\n      dup2\n      mstore\n      0x04\n      add\n      tag_70\n      swap1\n      tag_41\n      jump\t// in\n    tag_70:\n      mload(0x40)\n      dup1\n      swap2\n      sub\n      swap1\n      revert\n    tag_69:\n        /* \"contracts/ParticipantRegistry.sol\":2116:2122  paused */\n      0x02\n      0x00\n      swap1\n      sload\n      swap1\n      0x0100\n      exp\n      swap1\n      div\n      0xff\n      and\n        /* \"contracts/ParticipantRegistry.sol\":2115:2122  !paused */\n      iszero\n        /* \"contracts/ParticipantRegistry.sol\":2107:2162  require(!paused, \"Operation Error: Contract is paused\") */\n      tag_72\n      jumpi\n      mload(0x40)\n      0x08c379a000000000000000000000000000000000000000000000000000000000\n      dup2\n      mstore\n      0x04\n      add\n      tag_73\n      swap1\n      tag_49\n      jump\t// in\n    tag_73:\n      mload(0x40)\n      dup1\n      swap2\n      sub\n      swap1\n      revert\n    tag_72:\n        /* \"contracts/ParticipantRegistry.sol\":4168:4180  participants */\n      0x00\n        /* \"contracts/ParticipantRegistry.sol\":4168:4201  participants[_participantAddress] */\n      dup1\n        /* \"contracts/ParticipantRegistry.sol\":4181:4200  _participantAddress */\n      dup4\n        /* \"contracts/ParticipantRegistry.sol\":4168:4201  participants[_participantAddress] */\n      0xffffffffffffffffffffffffffffffffffffffff\n      and\n      0xffffffffffffffffffffffffffffffffffffffff\n      and\n      dup2\n      mstore\n      0x20\n      add\n      swap1\n      dup2\n      mstore\n      0x20\n      add\n      0x00\n      keccak256\n        /* \"contracts/ParticipantRegistry.sol\":4168:4214  participants[_participantAddress].isRegistered */\n      0x00\n      add\n      0x15\n      swap1\n      sload\n      swap1\n      0x0100\n      exp\n      swap1\n      div\n      0xff\n      and\n        /* \"contracts/ParticipantRegistry.sol\":4160:4259  require(participants[_participantAddress].isRegistered, \"Update Error: Participant not registered\") */\n      tag_75\n      jumpi\n      mload(0x40)\n      0x08c379a000000000000000000000000000000000000000000000000000000000\n      dup2\n      mstore\n      0x04\n      add\n      tag_76\n      swap1\n      tag_77\n      jump\t// in\n    tag_76:\n      mload(0x40)\n      dup1\n      swap2\n      sub\n      swap1\n      revert\n    tag_75:\n        /* \"contracts/ParticipantRegistry.sol\":4289:4298  Role.None */\n      0x00\n        /* \"contracts/ParticipantRegistry.sol\":4277:4298  _newRole != Role.None */\n      0x05\n      dup2\n      gt\n      iszero\n      tag_78\n      jumpi\n      tag_79\n      tag_80\n      jump\t// in\n    tag_79:\n    tag_78:\n        /* \"contracts/ParticipantRegistry.sol\":4277:4285  _newRole */\n      dup2\n        /* \"contracts/ParticipantRegistry.sol\":4277:4298  _newRole != Role.None */\n      0x05\n      dup2\n      gt\n      iszero\n      tag_81\n      jumpi\n      tag_82\n      tag_80\n      jump\t// in\n    tag_82:\n    tag_81:\n      sub\n        /* \"contracts/ParticipantRegistry.sol\":4269:4339  require(_newRole != Role.None, \"Update Error: Invalid role specified\") */\n      tag_83\n      jumpi\n      mload(0x40)\n      0x08c379a000000000000000000000000000000000000000000000000000000000\n      dup2\n      mstore\n      0x04\n      add\n      tag_84\n      swap1\n      tag_85\n      jump\t// in\n    tag_84:\n      mload(0x40)\n      dup1\n      swap2\n      sub\n      swap1\n      revert\n    tag_83:\n        /* \"contracts/ParticipantRegistry.sol\":4390:4398  _newRole */\n      dup1\n        /* \"contracts/ParticipantRegistry.sol\":4349:4361  participants */\n      0x00\n        /* \"contracts/ParticipantRegistry.sol\":4349:4382  participants[_participantAddress] */\n      dup1\n        /* \"contracts/ParticipantRegistry.sol\":4362:4381  _participantAddress */\n      dup5\n        /* \"contracts/ParticipantRegistry.sol\":4349:4382  participants[_participantAddress] */\n      0xffffffffffffffffffffffffffffffffffffffff\n      and\n      0xffffffffffffffffffffffffffffffffffffffff\n      and\n      dup2\n      mstore\n      0x20\n      add\n      swap1\n      dup2\n      mstore\n      0x20\n      add\n      0x00\n      keccak256\n        /* \"contracts/ParticipantRegistry.sol\":4349:4387  participants[_participantAddress].role */\n      0x00\n      add\n      0x14\n        /* \"contracts/ParticipantRegistry.sol\":4349:4398  participants[_participantAddress].role = _newRole */\n      0x0100\n      exp\n      dup2\n      sload\n      dup2\n      0xff\n      mul\n      not\n      and\n      swap1\n      dup4\n      0x05\n      dup2\n      gt\n      iszero\n      tag_86\n      jumpi\n      tag_87\n      tag_80\n      jump\t// in\n    tag_87:\n    tag_86:\n      mul\n      or\n      swap1\n      sstore\n      pop\n        /* \"contracts/ParticipantRegistry.sol\":4425:4444  _participantAddress */\n      dup2\n        /* \"contracts/ParticipantRegistry.sol\":4413:4455  RoleUpdated(_participantAddress, _newRole) */\n      0xffffffffffffffffffffffffffffffffffffffff\n      and\n      0xc3f8f61911a1537261f77e2703626e158e299a98e341024ecaa26bbd1d884c64\n        /* \"contracts/ParticipantRegistry.sol\":4446:4454  _newRole */\n      dup3\n        /* \"contracts/ParticipantRegistry.sol\":4413:4455  RoleUpdated(_participantAddress, _newRole) */\n      mload(0x40)\n      tag_88\n      swap2\n      swap1\n      tag_25\n      jump\t// in\n    tag_88:\n      mload(0x40)\n      dup1\n      swap2\n      sub\n      swap1\n      log2\n        /* \"contracts/ParticipantRegistry.sol\":4041:4462  function updateRole(address _participantAddress, Role _newRole) external onlyApprovedRegistrar whenNotPaused {... */\n      pop\n      pop\n      jump\t// out\n        /* \"contracts/ParticipantRegistry.sol\":3416:3811  function registerParticipant(address _participantAddress, Role _role) external onlyApprovedRegistrar notRegistered(_participantAddress) whenNotPaused {... */\n    tag_32:\n        /* \"contracts/ParticipantRegistry.sol\":1679:1697  approvedRegistrars */\n      0x01\n        /* \"contracts/ParticipantRegistry.sol\":1679:1709  approvedRegistrars[msg.sender] */\n      0x00\n        /* \"contracts/ParticipantRegistry.sol\":1698:1708  msg.sender */\n      caller\n        /* \"contracts/ParticipantRegistry.sol\":1679:1709  approvedRegistrars[msg.sender] */\n      0xffffffffffffffffffffffffffffffffffffffff\n      and\n      0xffffffffffffffffffffffffffffffffffffffff\n      and\n      dup2\n      mstore\n      0x20\n      add\n      swap1\n      dup2\n      mstore\n      0x20\n      add\n      0x00\n      keccak256\n      0x00\n      swap1\n      sload\n      swap1\n      0x0100\n      exp\n      swap1\n      div\n      0xff\n      and\n        /* \"contracts/ParticipantRegistry.sol\":1671:1756  require(approvedRegistrars[msg.sender], \"Access Denied: Not an authorized registrar\") */\n      tag_90\n      jumpi\n      mload(0x40)\n      0x08c379a000000000000000000000000000000000000000000000000000000000\n      dup2\n      mstore\n      0x04\n      add\n      tag_91\n      swap1\n      tag_41\n      jump\t// in\n    tag_91:\n      mload(0x40)\n      dup1\n      swap2\n      sub\n      swap1\n      revert\n    tag_90:\n        /* \"contracts/ParticipantRegistry.sol\":3531:3550  _participantAddress */\n      dup2\n        /* \"contracts/ParticipantRegistry.sol\":1906:1918  participants */\n      0x00\n        /* \"contracts/ParticipantRegistry.sol\":1906:1928  participants[_address] */\n      dup1\n        /* \"contracts/ParticipantRegistry.sol\":1919:1927  _address */\n      dup3\n        /* \"contracts/ParticipantRegistry.sol\":1906:1928  participants[_address] */\n      0xffffffffffffffffffffffffffffffffffffffff\n      and\n      0xffffffffffffffffffffffffffffffffffffffff\n      and\n      dup2\n      mstore\n      0x20\n      add\n      swap1\n      dup2\n      mstore\n      0x20\n      add\n      0x00\n      keccak256\n        /* \"contracts/ParticipantRegistry.sol\":1906:1941  participants[_address].isRegistered */\n      0x00\n      add\n      0x15\n      swap1\n      sload\n      swap1\n      0x0100\n      exp\n      swap1\n      div\n      0xff\n      and\n        /* \"contracts/ParticipantRegistry.sol\":1905:1941  !participants[_address].isRegistered */\n      iszero\n        /* \"contracts/ParticipantRegistry.sol\":1897:1995  require(!participants[_address].isRegistered, \"Registration Error: Address is already registered\") */\n      tag_93\n      jumpi\n      mload(0x40)\n      0x08c379a000000000000000000000000000000000000000000000000000000000\n      dup2\n      mstore\n      0x04\n      add\n      tag_94\n      swap1\n      tag_95\n      jump\t// in\n    tag_94:\n      mload(0x40)\n      dup1\n      swap2\n      sub\n      swap1\n      revert\n    tag_93:\n        /* \"contracts/ParticipantRegistry.sol\":2116:2122  paused */\n      0x02\n      0x00\n      swap1\n      sload\n      swap1\n      0x0100\n      exp\n      swap1\n      div\n      0xff\n      and\n        /* \"contracts/ParticipantRegistry.sol\":2115:2122  !paused */\n      iszero\n        /* \"contracts/ParticipantRegistry.sol\":2107:2162  require(!paused, \"Operation Error: Contract is paused\") */\n      tag_97\n      jumpi\n      mload(0x40)\n      0x08c379a000000000000000000000000000000000000000000000000000000000\n      dup2\n      mstore\n      0x04\n      add\n      tag_98\n      swap1\n      tag_49\n      jump\t// in\n    tag_98:\n      mload(0x40)\n      dup1\n      swap2\n      sub\n      swap1\n      revert\n    tag_97:\n        /* \"contracts/ParticipantRegistry.sol\":3593:3602  Role.None */\n      0x00\n        /* \"contracts/ParticipantRegistry.sol\":3584:3602  _role != Role.None */\n      0x05\n      dup2\n      gt\n      iszero\n      tag_100\n      jumpi\n      tag_101\n      tag_80\n      jump\t// in\n    tag_101:\n    tag_100:\n        /* \"contracts/ParticipantRegistry.sol\":3584:3589  _role */\n      dup3\n        /* \"contracts/ParticipantRegistry.sol\":3584:3602  _role != Role.None */\n      0x05\n      dup2\n      gt\n      iszero\n      tag_102\n      jumpi\n      tag_103\n      tag_80\n      jump\t// in\n    tag_103:\n    tag_102:\n      sub\n        /* \"contracts/ParticipantRegistry.sol\":3576:3649  require(_role != Role.None, \"Registration Error: Invalid role specified\") */\n      tag_104\n      jumpi\n      mload(0x40)\n      0x08c379a000000000000000000000000000000000000000000000000000000000\n      dup2\n      mstore\n      0x04\n      add\n      tag_105\n      swap1\n      tag_106\n      jump\t// in\n    tag_105:\n      mload(0x40)\n      dup1\n      swap2\n      sub\n      swap1\n      revert\n    tag_104:\n        /* \"contracts/ParticipantRegistry.sol\":3695:3740  Participant(_participantAddress, _role, true) */\n      mload(0x40)\n      dup1\n      0x60\n      add\n      0x40\n      mstore\n      dup1\n        /* \"contracts/ParticipantRegistry.sol\":3707:3726  _participantAddress */\n      dup5\n        /* \"contracts/ParticipantRegistry.sol\":3695:3740  Participant(_participantAddress, _role, true) */\n      0xffffffffffffffffffffffffffffffffffffffff\n      and\n      dup2\n      mstore\n      0x20\n      add\n        /* \"contracts/ParticipantRegistry.sol\":3728:3733  _role */\n      dup4\n        /* \"contracts/ParticipantRegistry.sol\":3695:3740  Participant(_participantAddress, _role, true) */\n      0x05\n      dup2\n      gt\n      iszero\n      tag_107\n      jumpi\n      tag_108\n      tag_80\n      jump\t// in\n    tag_108:\n    tag_107:\n      dup2\n      mstore\n      0x20\n      add\n        /* \"contracts/ParticipantRegistry.sol\":3735:3739  true */\n      0x01\n        /* \"contracts/ParticipantRegistry.sol\":3695:3740  Participant(_participantAddress, _role, true) */\n      iszero\n      iszero\n      dup2\n      mstore\n      pop\n        /* \"contracts/ParticipantRegistry.sol\":3659:3671  participants */\n      0x00\n        /* \"contracts/ParticipantRegistry.sol\":3659:3692  participants[_participantAddress] */\n      dup1\n        /* \"contracts/ParticipantRegistry.sol\":3672:3691  _participantAddress */\n      dup6\n        /* \"contracts/ParticipantRegistry.sol\":3659:3692  participants[_participantAddress] */\n      0xffffffffffffffffffffffffffffffffffffffff\n      and\n      0xffffffffffffffffffffffffffffffffffffffff\n      and\n      dup2\n      mstore\n      0x20\n      add\n      swap1\n      dup2\n      mstore\n      0x20\n      add\n      0x00\n      keccak256\n        /* \"contracts/ParticipantRegistry.sol\":3659:3740  participants[_participantAddress] = Participant(_participantAddress, _role, true) */\n      0x00\n      dup3\n      add\n      mload\n      dup2\n      0x00\n      add\n      exp(0x0100, 0x00)\n      dup2\n      sload\n      dup2\n      0xffffffffffffffffffffffffffffffffffffffff\n      mul\n      not\n      and\n      swap1\n      dup4\n      0xffffffffffffffffffffffffffffffffffffffff\n      and\n      mul\n      or\n      swap1\n      sstore\n      pop\n      0x20\n      dup3\n      add\n      mload\n      dup2\n      0x00\n      add\n      exp(0x0100, 0x14)\n      dup2\n      sload\n      dup2\n      0xff\n      mul\n      not\n      and\n      swap1\n      dup4\n      0x05\n      dup2\n      gt\n      iszero\n      tag_109\n      jumpi\n      tag_110\n      tag_80\n      jump\t// in\n    tag_110:\n    tag_109:\n      mul\n      or\n      swap1\n      sstore\n      pop\n      0x40\n      dup3\n      add\n      mload\n      dup2\n      0x00\n      add\n      exp(0x0100, 0x15)\n      dup2\n      sload\n      dup2\n      0xff\n      mul\n      not\n      and\n      swap1\n      dup4\n      iszero\n      iszero\n      mul\n      or\n      swap1\n      sstore\n      pop\n      swap1\n      pop\n      pop\n        /* \"contracts/ParticipantRegistry.sol\":3777:3796  _participantAddress */\n      dup3\n        /* \"contracts/ParticipantRegistry.sol\":3755:3804  ParticipantRegistered(_participantAddress, _role) */\n      0xffffffffffffffffffffffffffffffffffffffff\n      and\n      0x806d89d78ee0f826f9fa2e75e6e53e4a91ee0f70688d2152fd4d107423f3da63\n        /* \"contracts/ParticipantRegistry.sol\":3798:3803  _role */\n      dup4\n        /* \"contracts/ParticipantRegistry.sol\":3755:3804  ParticipantRegistered(_participantAddress, _role) */\n      mload(0x40)\n      tag_111\n      swap2\n      swap1\n      tag_25\n      jump\t// in\n    tag_111:\n      mload(0x40)\n      dup1\n      swap2\n      sub\n      swap1\n      log2\n        /* \"contracts/ParticipantRegistry.sol\":1766:1767  _ */\n      pop\n        /* \"contracts/ParticipantRegistry.sol\":3416:3811  function registerParticipant(address _participantAddress, Role _role) external onlyApprovedRegistrar notRegistered(_participantAddress) whenNotPaused {... */\n      pop\n      pop\n      jump\t// out\n        /* \"contracts/ParticipantRegistry.sol\":5595:5684  function unpauseContract() external onlyApprovedRegistrar {... */\n    tag_34:\n        /* \"contracts/ParticipantRegistry.sol\":1679:1697  approvedRegistrars */\n      0x01\n        /* \"contracts/ParticipantRegistry.sol\":1679:1709  approvedRegistrars[msg.sender] */\n      0x00\n        /* \"contracts/ParticipantRegistry.sol\":1698:1708  msg.sender */\n      caller\n        /* \"contracts/ParticipantRegistry.sol\":1679:1709  approvedRegistrars[msg.sender] */\n      0xffffffffffffffffffffffffffffffffffffffff\n      and\n      0xffffffffffffffffffffffffffffffffffffffff\n      and\n      dup2\n      mstore\n      0x20\n      add\n      swap1\n      dup2\n      mstore\n      0x20\n      add\n      0x00\n      keccak256\n      0x00\n      swap1\n      sload\n      swap1\n      0x0100\n      exp\n      swap1\n      div\n      0xff\n      and\n        /* \"contracts/ParticipantRegistry.sol\":1671:1756  require(approvedRegistrars[msg.sender], \"Access Denied: Not an authorized registrar\") */\n      tag_113\n      jumpi\n      mload(0x40)\n      0x08c379a000000000000000000000000000000000000000000000000000000000\n      dup2\n      mstore\n      0x04\n      add\n      tag_114\n      swap1\n      tag_41\n      jump\t// in\n    tag_114:\n      mload(0x40)\n      dup1\n      swap2\n      sub\n      swap1\n      revert\n    tag_113:\n        /* \"contracts/ParticipantRegistry.sol\":5672:5677  false */\n      0x00\n        /* \"contracts/ParticipantRegistry.sol\":5663:5669  paused */\n      0x02\n      0x00\n        /* \"contracts/ParticipantRegistry.sol\":5663:5677  paused = false */\n      0x0100\n      exp\n      dup2\n      sload\n      dup2\n      0xff\n      mul\n      not\n      and\n      swap1\n      dup4\n      iszero\n      iszero\n      mul\n      or\n      swap1\n      sstore\n      pop\n        /* \"contracts/ParticipantRegistry.sol\":5595:5684  function unpauseContract() external onlyApprovedRegistrar {... */\n      jump\t// out\n        /* \"contracts/ParticipantRegistry.sol\":2929:3204  function removeRegistrar(address _registrar) external onlyApprovedRegistrar whenNotPaused {... */\n    tag_37:\n        /* \"contracts/ParticipantRegistry.sol\":1679:1697  approvedRegistrars */\n      0x01\n        /* \"contracts/ParticipantRegistry.sol\":1679:1709  approvedRegistrars[msg.sender] */\n      0x00\n        /* \"contracts/ParticipantRegistry.sol\":1698:1708  msg.sender */\n      caller\n        /* \"contracts/ParticipantRegistry.sol\":1679:1709  approvedRegistrars[msg.sender] */\n      0xffffffffffffffffffffffffffffffffffffffff\n      and\n      0xffffffffffffffffffffffffffffffffffffffff\n      and\n      dup2\n      mstore\n      0x20\n      add\n      swap1\n      dup2\n      mstore\n      0x20\n      add\n      0x00\n      keccak256\n      0x00\n      swap1\n      sload\n      swap1\n      0x0100\n      exp\n      swap1\n      div\n      0xff\n      and\n        /* \"contracts/ParticipantRegistry.sol\":1671:1756  require(approvedRegistrars[msg.sender], \"Access Denied: Not an authorized registrar\") */\n      tag_117\n      jumpi\n      mload(0x40)\n      0x08c379a000000000000000000000000000000000000000000000000000000000\n      dup2\n      mstore\n      0x04\n      add\n      tag_118\n      swap1\n      tag_41\n      jump\t// in\n    tag_118:\n      mload(0x40)\n      dup1\n      swap2\n      sub\n      swap1\n      revert\n    tag_117:\n        /* \"contracts/ParticipantRegistry.sol\":2116:2122  paused */\n      0x02\n      0x00\n      swap1\n      sload\n      swap1\n      0x0100\n      exp\n      swap1\n      div\n      0xff\n      and\n        /* \"contracts/ParticipantRegistry.sol\":2115:2122  !paused */\n      iszero\n        /* \"contracts/ParticipantRegistry.sol\":2107:2162  require(!paused, \"Operation Error: Contract is paused\") */\n      tag_120\n      jumpi\n      mload(0x40)\n      0x08c379a000000000000000000000000000000000000000000000000000000000\n      dup2\n      mstore\n      0x04\n      add\n      tag_121\n      swap1\n      tag_49\n      jump\t// in\n    tag_121:\n      mload(0x40)\n      dup1\n      swap2\n      sub\n      swap1\n      revert\n    tag_120:\n        /* \"contracts/ParticipantRegistry.sol\":3037:3055  approvedRegistrars */\n      0x01\n        /* \"contracts/ParticipantRegistry.sol\":3037:3067  approvedRegistrars[_registrar] */\n      0x00\n        /* \"contracts/ParticipantRegistry.sol\":3056:3066  _registrar */\n      dup3\n        /* \"contracts/ParticipantRegistry.sol\":3037:3067  approvedRegistrars[_registrar] */\n      0xffffffffffffffffffffffffffffffffffffffff\n      and\n      0xffffffffffffffffffffffffffffffffffffffff\n      and\n      dup2\n      mstore\n      0x20\n      add\n      swap1\n      dup2\n      mstore\n      0x20\n      add\n      0x00\n      keccak256\n      0x00\n      swap1\n      sload\n      swap1\n      0x0100\n      exp\n      swap1\n      div\n      0xff\n      and\n        /* \"contracts/ParticipantRegistry.sol\":3029:3106  require(approvedRegistrars[_registrar], \"Removal Error: Registrar not found\") */\n      tag_123\n      jumpi\n      mload(0x40)\n      0x08c379a000000000000000000000000000000000000000000000000000000000\n      dup2\n      mstore\n      0x04\n      add\n      tag_124\n      swap1\n      tag_125\n      jump\t// in\n    tag_124:\n      mload(0x40)\n      dup1\n      swap2\n      sub\n      swap1\n      revert\n    tag_123:\n        /* \"contracts/ParticipantRegistry.sol\":3149:3154  false */\n      0x00\n        /* \"contracts/ParticipantRegistry.sol\":3116:3134  approvedRegistrars */\n      0x01\n        /* \"contracts/ParticipantRegistry.sol\":3116:3146  approvedRegistrars[_registrar] */\n      0x00\n        /* \"contracts/ParticipantRegistry.sol\":3135:3145  _registrar */\n      dup4\n        /* \"contracts/ParticipantRegistry.sol\":3116:3146  approvedRegistrars[_registrar] */\n      0xffffffffffffffffffffffffffffffffffffffff\n      and\n      0xffffffffffffffffffffffffffffffffffffffff\n      and\n      dup2\n      mstore\n      0x20\n      add\n      swap1\n      dup2\n      mstore\n      0x20\n      add\n      0x00\n      keccak256\n      0x00\n        /* \"contracts/ParticipantRegistry.sol\":3116:3154  approvedRegistrars[_registrar] = false */\n      0x0100\n      exp\n      dup2\n      sload\n      dup2\n      0xff\n      mul\n      not\n      and\n      swap1\n      dup4\n      iszero\n      iszero\n      mul\n      or\n      swap1\n      sstore\n      pop\n        /* \"contracts/ParticipantRegistry.sol\":3186:3196  _registrar */\n      dup1\n        /* \"contracts/ParticipantRegistry.sol\":3169:3197  RegistrarRemoved(_registrar) */\n      0xffffffffffffffffffffffffffffffffffffffff\n      and\n      0x81cb97a294b3ff5f91ef4048b3173c7f8f6943d9750add2071199061165e5f57\n      mload(0x40)\n      mload(0x40)\n      dup1\n      swap2\n      sub\n      swap1\n      log2\n        /* \"contracts/ParticipantRegistry.sol\":2929:3204  function removeRegistrar(address _registrar) external onlyApprovedRegistrar whenNotPaused {... */\n      pop\n      jump\t// out\n        /* \"#utility.yul\":88:205   */\n    tag_127:\n        /* \"#utility.yul\":197:198   */\n      0x00\n        /* \"#utility.yul\":194:195   */\n      dup1\n        /* \"#utility.yul\":187:199   */\n      revert\n        /* \"#utility.yul\":334:460   */\n    tag_129:\n        /* \"#utility.yul\":371:378   */\n      0x00\n        /* \"#utility.yul\":411:453   */\n      0xffffffffffffffffffffffffffffffffffffffff\n        /* \"#utility.yul\":404:409   */\n      dup3\n        /* \"#utility.yul\":400:454   */\n      and\n        /* \"#utility.yul\":389:454   */\n      swap1\n      pop\n        /* \"#utility.yul\":334:460   */\n      swap2\n      swap1\n      pop\n      jump\t// out\n        /* \"#utility.yul\":466:562   */\n    tag_130:\n        /* \"#utility.yul\":503:510   */\n      0x00\n        /* \"#utility.yul\":532:556   */\n      tag_166\n        /* \"#utility.yul\":550:555   */\n      dup3\n        /* \"#utility.yul\":532:556   */\n      tag_129\n      jump\t// in\n    tag_166:\n        /* \"#utility.yul\":521:556   */\n      swap1\n      pop\n        /* \"#utility.yul\":466:562   */\n      swap2\n      swap1\n      pop\n      jump\t// out\n        /* \"#utility.yul\":568:690   */\n    tag_131:\n        /* \"#utility.yul\":641:665   */\n      tag_168\n        /* \"#utility.yul\":659:664   */\n      dup2\n        /* \"#utility.yul\":641:665   */\n      tag_130\n      jump\t// in\n    tag_168:\n        /* \"#utility.yul\":634:639   */\n      dup2\n        /* \"#utility.yul\":631:666   */\n      eq\n        /* \"#utility.yul\":621:684   */\n      tag_169\n      jumpi\n        /* \"#utility.yul\":680:681   */\n      0x00\n        /* \"#utility.yul\":677:678   */\n      dup1\n        /* \"#utility.yul\":670:682   */\n      revert\n        /* \"#utility.yul\":621:684   */\n    tag_169:\n        /* \"#utility.yul\":568:690   */\n      pop\n      jump\t// out\n        /* \"#utility.yul\":696:835   */\n    tag_132:\n        /* \"#utility.yul\":742:747   */\n      0x00\n        /* \"#utility.yul\":780:786   */\n      dup2\n        /* \"#utility.yul\":767:787   */\n      calldataload\n        /* \"#utility.yul\":758:787   */\n      swap1\n      pop\n        /* \"#utility.yul\":796:829   */\n      tag_171\n        /* \"#utility.yul\":823:828   */\n      dup2\n        /* \"#utility.yul\":796:829   */\n      tag_131\n      jump\t// in\n    tag_171:\n        /* \"#utility.yul\":696:835   */\n      swap3\n      swap2\n      pop\n      pop\n      jump\t// out\n        /* \"#utility.yul\":841:1170   */\n    tag_16:\n        /* \"#utility.yul\":900:906   */\n      0x00\n        /* \"#utility.yul\":949:951   */\n      0x20\n        /* \"#utility.yul\":937:946   */\n      dup3\n        /* \"#utility.yul\":928:935   */\n      dup5\n        /* \"#utility.yul\":924:947   */\n      sub\n        /* \"#utility.yul\":920:952   */\n      slt\n        /* \"#utility.yul\":917:1036   */\n      iszero\n      tag_173\n      jumpi\n        /* \"#utility.yul\":955:1034   */\n      tag_174\n      tag_127\n      jump\t// in\n    tag_174:\n        /* \"#utility.yul\":917:1036   */\n    tag_173:\n        /* \"#utility.yul\":1075:1076   */\n      0x00\n        /* \"#utility.yul\":1100:1153   */\n      tag_175\n        /* \"#utility.yul\":1145:1152   */\n      dup5\n        /* \"#utility.yul\":1136:1142   */\n      dup3\n        /* \"#utility.yul\":1125:1134   */\n      dup6\n        /* \"#utility.yul\":1121:1143   */\n      add\n        /* \"#utility.yul\":1100:1153   */\n      tag_132\n      jump\t// in\n    tag_175:\n        /* \"#utility.yul\":1090:1153   */\n      swap2\n      pop\n        /* \"#utility.yul\":1046:1163   */\n      pop\n        /* \"#utility.yul\":841:1170   */\n      swap3\n      swap2\n      pop\n      pop\n      jump\t// out\n        /* \"#utility.yul\":1176:1356   */\n    tag_80:\n        /* \"#utility.yul\":1224:1301   */\n      0x4e487b7100000000000000000000000000000000000000000000000000000000\n        /* \"#utility.yul\":1221:1222   */\n      0x00\n        /* \"#utility.yul\":1214:1302   */\n      mstore\n        /* \"#utility.yul\":1321:1325   */\n      0x21\n        /* \"#utility.yul\":1318:1319   */\n      0x04\n        /* \"#utility.yul\":1311:1326   */\n      mstore\n        /* \"#utility.yul\":1345:1349   */\n      0x24\n        /* \"#utility.yul\":1342:1343   */\n      0x00\n        /* \"#utility.yul\":1335:1350   */\n      revert\n        /* \"#utility.yul\":1362:1473   */\n    tag_133:\n        /* \"#utility.yul\":1441:1442   */\n      0x06\n        /* \"#utility.yul\":1434:1439   */\n      dup2\n        /* \"#utility.yul\":1431:1443   */\n      lt\n        /* \"#utility.yul\":1421:1467   */\n      tag_178\n      jumpi\n        /* \"#utility.yul\":1447:1465   */\n      tag_179\n      tag_80\n      jump\t// in\n    tag_179:\n        /* \"#utility.yul\":1421:1467   */\n    tag_178:\n        /* \"#utility.yul\":1362:1473   */\n      pop\n      jump\t// out\n        /* \"#utility.yul\":1479:1602   */\n    tag_134:\n        /* \"#utility.yul\":1522:1529   */\n      0x00\n        /* \"#utility.yul\":1551:1556   */\n      dup2\n        /* \"#utility.yul\":1540:1556   */\n      swap1\n      pop\n        /* \"#utility.yul\":1557:1596   */\n      tag_181\n        /* \"#utility.yul\":1590:1595   */\n      dup3\n        /* \"#utility.yul\":1557:1596   */\n      tag_133\n      jump\t// in\n    tag_181:\n        /* \"#utility.yul\":1479:1602   */\n      swap2\n      swap1\n      pop\n      jump\t// out\n        /* \"#utility.yul\":1608:1731   */\n    tag_135:\n        /* \"#utility.yul\":1662:1671   */\n      0x00\n        /* \"#utility.yul\":1695:1725   */\n      tag_183\n        /* \"#utility.yul\":1719:1724   */\n      dup3\n        /* \"#utility.yul\":1695:1725   */\n      tag_134\n      jump\t// in\n    tag_183:\n        /* \"#utility.yul\":1682:1725   */\n      swap1\n      pop\n        /* \"#utility.yul\":1608:1731   */\n      swap2\n      swap1\n      pop\n      jump\t// out\n        /* \"#utility.yul\":1737:1876   */\n    tag_136:\n        /* \"#utility.yul\":1828:1869   */\n      tag_185\n        /* \"#utility.yul\":1863:1868   */\n      dup2\n        /* \"#utility.yul\":1828:1869   */\n      tag_135\n      jump\t// in\n    tag_185:\n        /* \"#utility.yul\":1823:1826   */\n      dup3\n        /* \"#utility.yul\":1816:1870   */\n      mstore\n        /* \"#utility.yul\":1737:1876   */\n      pop\n      pop\n      jump\t// out\n        /* \"#utility.yul\":1882:2112   */\n    tag_25:\n        /* \"#utility.yul\":1979:1983   */\n      0x00\n        /* \"#utility.yul\":2017:2019   */\n      0x20\n        /* \"#utility.yul\":2006:2015   */\n      dup3\n        /* \"#utility.yul\":2002:2020   */\n      add\n        /* \"#utility.yul\":1994:2020   */\n      swap1\n      pop\n        /* \"#utility.yul\":2030:2105   */\n      tag_187\n        /* \"#utility.yul\":2102:2103   */\n      0x00\n        /* \"#utility.yul\":2091:2100   */\n      dup4\n        /* \"#utility.yul\":2087:2104   */\n      add\n        /* \"#utility.yul\":2078:2084   */\n      dup5\n        /* \"#utility.yul\":2030:2105   */\n      tag_136\n      jump\t// in\n    tag_187:\n        /* \"#utility.yul\":1882:2112   */\n      swap3\n      swap2\n      pop\n      pop\n      jump\t// out\n        /* \"#utility.yul\":2118:2223   */\n    tag_137:\n        /* \"#utility.yul\":2197:2198   */\n      0x06\n        /* \"#utility.yul\":2190:2195   */\n      dup2\n        /* \"#utility.yul\":2187:2199   */\n      lt\n        /* \"#utility.yul\":2177:2217   */\n      tag_189\n      jumpi\n        /* \"#utility.yul\":2213:2214   */\n      0x00\n        /* \"#utility.yul\":2210:2211   */\n      dup1\n        /* \"#utility.yul\":2203:2215   */\n      revert\n        /* \"#utility.yul\":2177:2217   */\n    tag_189:\n        /* \"#utility.yul\":2118:2223   */\n      pop\n      jump\t// out\n        /* \"#utility.yul\":2229:2380   */\n    tag_138:\n        /* \"#utility.yul\":2281:2286   */\n      0x00\n        /* \"#utility.yul\":2319:2325   */\n      dup2\n        /* \"#utility.yul\":2306:2326   */\n      calldataload\n        /* \"#utility.yul\":2297:2326   */\n      swap1\n      pop\n        /* \"#utility.yul\":2335:2374   */\n      tag_191\n        /* \"#utility.yul\":2368:2373   */\n      dup2\n        /* \"#utility.yul\":2335:2374   */\n      tag_137\n      jump\t// in\n    tag_191:\n        /* \"#utility.yul\":2229:2380   */\n      swap3\n      swap2\n      pop\n      pop\n      jump\t// out\n        /* \"#utility.yul\":2386:2872   */\n    tag_28:\n        /* \"#utility.yul\":2460:2466   */\n      0x00\n        /* \"#utility.yul\":2468:2474   */\n      dup1\n        /* \"#utility.yul\":2517:2519   */\n      0x40\n        /* \"#utility.yul\":2505:2514   */\n      dup4\n        /* \"#utility.yul\":2496:2503   */\n      dup6\n        /* \"#utility.yul\":2492:2515   */\n      sub\n        /* \"#utility.yul\":2488:2520   */\n      slt\n        /* \"#utility.yul\":2485:2604   */\n      iszero\n      tag_193\n      jumpi\n        /* \"#utility.yul\":2523:2602   */\n      tag_194\n      tag_127\n      jump\t// in\n    tag_194:\n        /* \"#utility.yul\":2485:2604   */\n    tag_193:\n        /* \"#utility.yul\":2643:2644   */\n      0x00\n        /* \"#utility.yul\":2668:2721   */\n      tag_195\n        /* \"#utility.yul\":2713:2720   */\n      dup6\n        /* \"#utility.yul\":2704:2710   */\n      dup3\n        /* \"#utility.yul\":2693:2702   */\n      dup7\n        /* \"#utility.yul\":2689:2711   */\n      add\n        /* \"#utility.yul\":2668:2721   */\n      tag_132\n      jump\t// in\n    tag_195:\n        /* \"#utility.yul\":2658:2721   */\n      swap3\n      pop\n        /* \"#utility.yul\":2614:2731   */\n      pop\n        /* \"#utility.yul\":2770:2772   */\n      0x20\n        /* \"#utility.yul\":2796:2855   */\n      tag_196\n        /* \"#utility.yul\":2847:2854   */\n      dup6\n        /* \"#utility.yul\":2838:2844   */\n      dup3\n        /* \"#utility.yul\":2827:2836   */\n      dup7\n        /* \"#utility.yul\":2823:2845   */\n      add\n        /* \"#utility.yul\":2796:2855   */\n      tag_138\n      jump\t// in\n    tag_196:\n        /* \"#utility.yul\":2786:2855   */\n      swap2\n      pop\n        /* \"#utility.yul\":2741:2865   */\n      pop\n        /* \"#utility.yul\":2386:2872   */\n      swap3\n      pop\n      swap3\n      swap1\n      pop\n      jump\t// out\n        /* \"#utility.yul\":2878:3047   */\n    tag_139:\n        /* \"#utility.yul\":2962:2973   */\n      0x00\n        /* \"#utility.yul\":2996:3002   */\n      dup3\n        /* \"#utility.yul\":2991:2994   */\n      dup3\n        /* \"#utility.yul\":2984:3003   */\n      mstore\n        /* \"#utility.yul\":3036:3040   */\n      0x20\n        /* \"#utility.yul\":3031:3034   */\n      dup3\n        /* \"#utility.yul\":3027:3041   */\n      add\n        /* \"#utility.yul\":3012:3041   */\n      swap1\n      pop\n        /* \"#utility.yul\":2878:3047   */\n      swap3\n      swap2\n      pop\n      pop\n      jump\t// out\n        /* \"#utility.yul\":3053:3282   */\n    tag_140:\n        /* \"#utility.yul\":3193:3227   */\n      0x4163636573732044656e6965643a204e6f7420616e20617574686f72697a6564\n        /* \"#utility.yul\":3189:3190   */\n      0x00\n        /* \"#utility.yul\":3181:3187   */\n      dup3\n        /* \"#utility.yul\":3177:3191   */\n      add\n        /* \"#utility.yul\":3170:3228   */\n      mstore\n        /* \"#utility.yul\":3262:3274   */\n      0x2072656769737472617200000000000000000000000000000000000000000000\n        /* \"#utility.yul\":3257:3259   */\n      0x20\n        /* \"#utility.yul\":3249:3255   */\n      dup3\n        /* \"#utility.yul\":3245:3260   */\n      add\n        /* \"#utility.yul\":3238:3275   */\n      mstore\n        /* \"#utility.yul\":3053:3282   */\n      pop\n      jump\t// out\n        /* \"#utility.yul\":3288:3654   */\n    tag_141:\n        /* \"#utility.yul\":3430:3433   */\n      0x00\n        /* \"#utility.yul\":3451:3518   */\n      tag_200\n        /* \"#utility.yul\":3515:3517   */\n      0x2a\n        /* \"#utility.yul\":3510:3513   */\n      dup4\n        /* \"#utility.yul\":3451:3518   */\n      tag_139\n      jump\t// in\n    tag_200:\n        /* \"#utility.yul\":3444:3518   */\n      swap2\n      pop\n        /* \"#utility.yul\":3527:3620   */\n      tag_201\n        /* \"#utility.yul\":3616:3619   */\n      dup3\n        /* \"#utility.yul\":3527:3620   */\n      tag_140\n      jump\t// in\n    tag_201:\n        /* \"#utility.yul\":3645:3647   */\n      0x40\n        /* \"#utility.yul\":3640:3643   */\n      dup3\n        /* \"#utility.yul\":3636:3648   */\n      add\n        /* \"#utility.yul\":3629:3648   */\n      swap1\n      pop\n        /* \"#utility.yul\":3288:3654   */\n      swap2\n      swap1\n      pop\n      jump\t// out\n        /* \"#utility.yul\":3660:4079   */\n    tag_41:\n        /* \"#utility.yul\":3826:3830   */\n      0x00\n        /* \"#utility.yul\":3864:3866   */\n      0x20\n        /* \"#utility.yul\":3853:3862   */\n      dup3\n        /* \"#utility.yul\":3849:3867   */\n      add\n        /* \"#utility.yul\":3841:3867   */\n      swap1\n      pop\n        /* \"#utility.yul\":3913:3922   */\n      dup2\n        /* \"#utility.yul\":3907:3911   */\n      dup2\n        /* \"#utility.yul\":3903:3923   */\n      sub\n        /* \"#utility.yul\":3899:3900   */\n      0x00\n        /* \"#utility.yul\":3888:3897   */\n      dup4\n        /* \"#utility.yul\":3884:3901   */\n      add\n        /* \"#utility.yul\":3877:3924   */\n      mstore\n        /* \"#utility.yul\":3941:4072   */\n      tag_203\n        /* \"#utility.yul\":4067:4071   */\n      dup2\n        /* \"#utility.yul\":3941:4072   */\n      tag_141\n      jump\t// in\n    tag_203:\n        /* \"#utility.yul\":3933:4072   */\n      swap1\n      pop\n        /* \"#utility.yul\":3660:4079   */\n      swap2\n      swap1\n      pop\n      jump\t// out\n        /* \"#utility.yul\":4085:4307   */\n    tag_142:\n        /* \"#utility.yul\":4225:4259   */\n      0x4f7065726174696f6e204572726f723a20436f6e747261637420697320706175\n        /* \"#utility.yul\":4221:4222   */\n      0x00\n        /* \"#utility.yul\":4213:4219   */\n      dup3\n        /* \"#utility.yul\":4209:4223   */\n      add\n        /* \"#utility.yul\":4202:4260   */\n      mstore\n        /* \"#utility.yul\":4294:4299   */\n      0x7365640000000000000000000000000000000000000000000000000000000000\n        /* \"#utility.yul\":4289:4291   */\n      0x20\n        /* \"#utility.yul\":4281:4287   */\n      dup3\n        /* \"#utility.yul\":4277:4292   */\n      add\n        /* \"#utility.yul\":4270:4300   */\n      mstore\n        /* \"#utility.yul\":4085:4307   */\n      pop\n      jump\t// out\n        /* \"#utility.yul\":4313:4679   */\n    tag_143:\n        /* \"#utility.yul\":4455:4458   */\n      0x00\n        /* \"#utility.yul\":4476:4543   */\n      tag_206\n        /* \"#utility.yul\":4540:4542   */\n      0x23\n        /* \"#utility.yul\":4535:4538   */\n      dup4\n        /* \"#utility.yul\":4476:4543   */\n      tag_139\n      jump\t// in\n    tag_206:\n        /* \"#utility.yul\":4469:4543   */\n      swap2\n      pop\n        /* \"#utility.yul\":4552:4645   */\n      tag_207\n        /* \"#utility.yul\":4641:4644   */\n      dup3\n        /* \"#utility.yul\":4552:4645   */\n      tag_142\n      jump\t// in\n    tag_207:\n        /* \"#utility.yul\":4670:4672   */\n      0x40\n        /* \"#utility.yul\":4665:4668   */\n      dup3\n        /* \"#utility.yul\":4661:4673   */\n      add\n        /* \"#utility.yul\":4654:4673   */\n      swap1\n      pop\n        /* \"#utility.yul\":4313:4679   */\n      swap2\n      swap1\n      pop\n      jump\t// out\n        /* \"#utility.yul\":4685:5104   */\n    tag_49:\n        /* \"#utility.yul\":4851:4855   */\n      0x00\n        /* \"#utility.yul\":4889:4891   */\n      0x20\n        /* \"#utility.yul\":4878:4887   */\n      dup3\n        /* \"#utility.yul\":4874:4892   */\n      add\n        /* \"#utility.yul\":4866:4892   */\n      swap1\n      pop\n        /* \"#utility.yul\":4938:4947   */\n      dup2\n        /* \"#utility.yul\":4932:4936   */\n      dup2\n        /* \"#utility.yul\":4928:4948   */\n      sub\n        /* \"#utility.yul\":4924:4925   */\n      0x00\n        /* \"#utility.yul\":4913:4922   */\n      dup4\n        /* \"#utility.yul\":4909:4926   */\n      add\n        /* \"#utility.yul\":4902:4949   */\n      mstore\n        /* \"#utility.yul\":4966:5097   */\n      tag_209\n        /* \"#utility.yul\":5092:5096   */\n      dup2\n        /* \"#utility.yul\":4966:5097   */\n      tag_143\n      jump\t// in\n    tag_209:\n        /* \"#utility.yul\":4958:5097   */\n      swap1\n      pop\n        /* \"#utility.yul\":4685:5104   */\n      swap2\n      swap1\n      pop\n      jump\t// out\n        /* \"#utility.yul\":5110:5339   */\n    tag_144:\n        /* \"#utility.yul\":5250:5284   */\n      0x417070726f76616c204572726f723a2052656769737472617220616c72656164\n        /* \"#utility.yul\":5246:5247   */\n      0x00\n        /* \"#utility.yul\":5238:5244   */\n      dup3\n        /* \"#utility.yul\":5234:5248   */\n      add\n        /* \"#utility.yul\":5227:5285   */\n      mstore\n        /* \"#utility.yul\":5319:5331   */\n      0x7920617070726f76656400000000000000000000000000000000000000000000\n        /* \"#utility.yul\":5314:5316   */\n      0x20\n        /* \"#utility.yul\":5306:5312   */\n      dup3\n        /* \"#utility.yul\":5302:5317   */\n      add\n        /* \"#utility.yul\":5295:5332   */\n      mstore\n        /* \"#utility.yul\":5110:5339   */\n      pop\n      jump\t// out\n        /* \"#utility.yul\":5345:5711   */\n    tag_145:\n        /* \"#utility.yul\":5487:5490   */\n      0x00\n        /* \"#utility.yul\":5508:5575   */\n      tag_212\n        /* \"#utility.yul\":5572:5574   */\n      0x2a\n        /* \"#utility.yul\":5567:5570   */\n      dup4\n        /* \"#utility.yul\":5508:5575   */\n      tag_139\n      jump\t// in\n    tag_212:\n        /* \"#utility.yul\":5501:5575   */\n      swap2\n      pop\n        /* \"#utility.yul\":5584:5677   */\n      tag_213\n        /* \"#utility.yul\":5673:5676   */\n      dup3\n        /* \"#utility.yul\":5584:5677   */\n      tag_144\n      jump\t// in\n    tag_213:\n        /* \"#utility.yul\":5702:5704   */\n      0x40\n        /* \"#utility.yul\":5697:5700   */\n      dup3\n        /* \"#utility.yul\":5693:5705   */\n      add\n        /* \"#utility.yul\":5686:5705   */\n      swap1\n      pop\n        /* \"#utility.yul\":5345:5711   */\n      swap2\n      swap1\n      pop\n      jump\t// out\n        /* \"#utility.yul\":5717:6136   */\n    tag_53:\n        /* \"#utility.yul\":5883:5887   */\n      0x00\n        /* \"#utility.yul\":5921:5923   */\n      0x20\n        /* \"#utility.yul\":5910:5919   */\n      dup3\n        /* \"#utility.yul\":5906:5924   */\n      add\n        /* \"#utility.yul\":5898:5924   */\n      swap1\n      pop\n        /* \"#utility.yul\":5970:5979   */\n      dup2\n        /* \"#utility.yul\":5964:5968   */\n      dup2\n        /* \"#utility.yul\":5960:5980   */\n      sub\n        /* \"#utility.yul\":5956:5957   */\n      0x00\n        /* \"#utility.yul\":5945:5954   */\n      dup4\n        /* \"#utility.yul\":5941:5958   */\n      add\n        /* \"#utility.yul\":5934:5981   */\n      mstore\n        /* \"#utility.yul\":5998:6129   */\n      tag_215\n        /* \"#utility.yul\":6124:6128   */\n      dup2\n        /* \"#utility.yul\":5998:6129   */\n      tag_145\n      jump\t// in\n    tag_215:\n        /* \"#utility.yul\":5990:6129   */\n      swap1\n      pop\n        /* \"#utility.yul\":5717:6136   */\n      swap2\n      swap1\n      pop\n      jump\t// out\n        /* \"#utility.yul\":6142:6370   */\n    tag_146:\n        /* \"#utility.yul\":6282:6316   */\n      0x52656d6f76616c204572726f723a205061727469636970616e74206e6f742072\n        /* \"#utility.yul\":6278:6279   */\n      0x00\n        /* \"#utility.yul\":6270:6276   */\n      dup3\n        /* \"#utility.yul\":6266:6280   */\n      add\n        /* \"#utility.yul\":6259:6317   */\n      mstore\n        /* \"#utility.yul\":6351:6362   */\n      0x6567697374657265640000000000000000000000000000000000000000000000\n        /* \"#utility.yul\":6346:6348   */\n      0x20\n        /* \"#utility.yul\":6338:6344   */\n      dup3\n        /* \"#utility.yul\":6334:6349   */\n      add\n        /* \"#utility.yul\":6327:6363   */\n      mstore\n        /* \"#utility.yul\":6142:6370   */\n      pop\n      jump\t// out\n        /* \"#utility.yul\":6376:6742   */\n    tag_147:\n        /* \"#utility.yul\":6518:6521   */\n      0x00\n        /* \"#utility.yul\":6539:6606   */\n      tag_218\n        /* \"#utility.yul\":6603:6605   */\n      0x29\n        /* \"#utility.yul\":6598:6601   */\n      dup4\n        /* \"#utility.yul\":6539:6606   */\n      tag_139\n      jump\t// in\n    tag_218:\n        /* \"#utility.yul\":6532:6606   */\n      swap2\n      pop\n        /* \"#utility.yul\":6615:6708   */\n      tag_219\n        /* \"#utility.yul\":6704:6707   */\n      dup3\n        /* \"#utility.yul\":6615:6708   */\n      tag_146\n      jump\t// in\n    tag_219:\n        /* \"#utility.yul\":6733:6735   */\n      0x40\n        /* \"#utility.yul\":6728:6731   */\n      dup3\n        /* \"#utility.yul\":6724:6736   */\n      add\n        /* \"#utility.yul\":6717:6736   */\n      swap1\n      pop\n        /* \"#utility.yul\":6376:6742   */\n      swap2\n      swap1\n      pop\n      jump\t// out\n        /* \"#utility.yul\":6748:7167   */\n    tag_63:\n        /* \"#utility.yul\":6914:6918   */\n      0x00\n        /* \"#utility.yul\":6952:6954   */\n      0x20\n        /* \"#utility.yul\":6941:6950   */\n      dup3\n        /* \"#utility.yul\":6937:6955   */\n      add\n        /* \"#utility.yul\":6929:6955   */\n      swap1\n      pop\n        /* \"#utility.yul\":7001:7010   */\n      dup2\n        /* \"#utility.yul\":6995:6999   */\n      dup2\n        /* \"#utility.yul\":6991:7011   */\n      sub\n        /* \"#utility.yul\":6987:6988   */\n      0x00\n        /* \"#utility.yul\":6976:6985   */\n      dup4\n        /* \"#utility.yul\":6972:6989   */\n      add\n        /* \"#utility.yul\":6965:7012   */\n      mstore\n        /* \"#utility.yul\":7029:7160   */\n      tag_221\n        /* \"#utility.yul\":7155:7159   */\n      dup2\n        /* \"#utility.yul\":7029:7160   */\n      tag_147\n      jump\t// in\n    tag_221:\n        /* \"#utility.yul\":7021:7160   */\n      swap1\n      pop\n        /* \"#utility.yul\":6748:7167   */\n      swap2\n      swap1\n      pop\n      jump\t// out\n        /* \"#utility.yul\":7173:7399   */\n    tag_148:\n        /* \"#utility.yul\":7313:7347   */\n      0x5175657279204572726f723a205061727469636970616e74206e6f7420726567\n        /* \"#utility.yul\":7309:7310   */\n      0x00\n        /* \"#utility.yul\":7301:7307   */\n      dup3\n        /* \"#utility.yul\":7297:7311   */\n      add\n        /* \"#utility.yul\":7290:7348   */\n      mstore\n        /* \"#utility.yul\":7382:7391   */\n      0x6973746572656400000000000000000000000000000000000000000000000000\n        /* \"#utility.yul\":7377:7379   */\n      0x20\n        /* \"#utility.yul\":7369:7375   */\n      dup3\n        /* \"#utility.yul\":7365:7380   */\n      add\n        /* \"#utility.yul\":7358:7392   */\n      mstore\n        /* \"#utility.yul\":7173:7399   */\n      pop\n      jump\t// out\n        /* \"#utility.yul\":7405:7771   */\n    tag_149:\n        /* \"#utility.yul\":7547:7550   */\n      0x00\n        /* \"#utility.yul\":7568:7635   */\n      tag_224\n        /* \"#utility.yul\":7632:7634   */\n      0x27\n        /* \"#utility.yul\":7627:7630   */\n      dup4\n        /* \"#utility.yul\":7568:7635   */\n      tag_139\n      jump\t// in\n    tag_224:\n        /* \"#utility.yul\":7561:7635   */\n      swap2\n      pop\n        /* \"#utility.yul\":7644:7737   */\n      tag_225\n        /* \"#utility.yul\":7733:7736   */\n      dup3\n        /* \"#utility.yul\":7644:7737   */\n      tag_148\n      jump\t// in\n    tag_225:\n        /* \"#utility.yul\":7762:7764   */\n      0x40\n        /* \"#utility.yul\":7757:7760   */\n      dup3\n        /* \"#utility.yul\":7753:7765   */\n      add\n        /* \"#utility.yul\":7746:7765   */\n      swap1\n      pop\n        /* \"#utility.yul\":7405:7771   */\n      swap2\n      swap1\n      pop\n      jump\t// out\n        /* \"#utility.yul\":7777:8196   */\n    tag_67:\n        /* \"#utility.yul\":7943:7947   */\n      0x00\n        /* \"#utility.yul\":7981:7983   */\n      0x20\n        /* \"#utility.yul\":7970:7979   */\n      dup3\n        /* \"#utility.yul\":7966:7984   */\n      add\n        /* \"#utility.yul\":7958:7984   */\n      swap1\n      pop\n        /* \"#utility.yul\":8030:8039   */\n      dup2\n        /* \"#utility.yul\":8024:8028   */\n      dup2\n        /* \"#utility.yul\":8020:8040   */\n      sub\n        /* \"#utility.yul\":8016:8017   */\n      0x00\n        /* \"#utility.yul\":8005:8014   */\n      dup4\n        /* \"#utility.yul\":8001:8018   */\n      add\n        /* \"#utility.yul\":7994:8041   */\n      mstore\n        /* \"#utility.yul\":8058:8189   */\n      tag_227\n        /* \"#utility.yul\":8184:8188   */\n      dup2\n        /* \"#utility.yul\":8058:8189   */\n      tag_149\n      jump\t// in\n    tag_227:\n        /* \"#utility.yul\":8050:8189   */\n      swap1\n      pop\n        /* \"#utility.yul\":7777:8196   */\n      swap2\n      swap1\n      pop\n      jump\t// out\n        /* \"#utility.yul\":8202:8429   */\n    tag_150:\n        /* \"#utility.yul\":8342:8376   */\n      0x557064617465204572726f723a205061727469636970616e74206e6f74207265\n        /* \"#utility.yul\":8338:8339   */\n      0x00\n        /* \"#utility.yul\":8330:8336   */\n      dup3\n        /* \"#utility.yul\":8326:8340   */\n      add\n        /* \"#utility.yul\":8319:8377   */\n      mstore\n        /* \"#utility.yul\":8411:8421   */\n      0x6769737465726564000000000000000000000000000000000000000000000000\n        /* \"#utility.yul\":8406:8408   */\n      0x20\n        /* \"#utility.yul\":8398:8404   */\n      dup3\n        /* \"#utility.yul\":8394:8409   */\n      add\n        /* \"#utility.yul\":8387:8422   */\n      mstore\n        /* \"#utility.yul\":8202:8429   */\n      pop\n      jump\t// out\n        /* \"#utility.yul\":8435:8801   */\n    tag_151:\n        /* \"#utility.yul\":8577:8580   */\n      0x00\n        /* \"#utility.yul\":8598:8665   */\n      tag_230\n        /* \"#utility.yul\":8662:8664   */\n      0x28\n        /* \"#utility.yul\":8657:8660   */\n      dup4\n        /* \"#utility.yul\":8598:8665   */\n      tag_139\n      jump\t// in\n    tag_230:\n        /* \"#utility.yul\":8591:8665   */\n      swap2\n      pop\n        /* \"#utility.yul\":8674:8767   */\n      tag_231\n        /* \"#utility.yul\":8763:8766   */\n      dup3\n        /* \"#utility.yul\":8674:8767   */\n      tag_150\n      jump\t// in\n    tag_231:\n        /* \"#utility.yul\":8792:8794   */\n      0x40\n        /* \"#utility.yul\":8787:8790   */\n      dup3\n        /* \"#utility.yul\":8783:8795   */\n      add\n        /* \"#utility.yul\":8776:8795   */\n      swap1\n      pop\n        /* \"#utility.yul\":8435:8801   */\n      swap2\n      swap1\n      pop\n      jump\t// out\n        /* \"#utility.yul\":8807:9226   */\n    tag_77:\n        /* \"#utility.yul\":8973:8977   */\n      0x00\n        /* \"#utility.yul\":9011:9013   */\n      0x20\n        /* \"#utility.yul\":9000:9009   */\n      dup3\n        /* \"#utility.yul\":8996:9014   */\n      add\n        /* \"#utility.yul\":8988:9014   */\n      swap1\n      pop\n        /* \"#utility.yul\":9060:9069   */\n      dup2\n        /* \"#utility.yul\":9054:9058   */\n      dup2\n        /* \"#utility.yul\":9050:9070   */\n      sub\n        /* \"#utility.yul\":9046:9047   */\n      0x00\n        /* \"#utility.yul\":9035:9044   */\n      dup4\n        /* \"#utility.yul\":9031:9048   */\n      add\n        /* \"#utility.yul\":9024:9071   */\n      mstore\n        /* \"#utility.yul\":9088:9219   */\n      tag_233\n        /* \"#utility.yul\":9214:9218   */\n      dup2\n        /* \"#utility.yul\":9088:9219   */\n      tag_151\n      jump\t// in\n    tag_233:\n        /* \"#utility.yul\":9080:9219   */\n      swap1\n      pop\n        /* \"#utility.yul\":8807:9226   */\n      swap2\n      swap1\n      pop\n      jump\t// out\n        /* \"#utility.yul\":9232:9455   */\n    tag_152:\n        /* \"#utility.yul\":9372:9406   */\n      0x557064617465204572726f723a20496e76616c696420726f6c65207370656369\n        /* \"#utility.yul\":9368:9369   */\n      0x00\n        /* \"#utility.yul\":9360:9366   */\n      dup3\n        /* \"#utility.yul\":9356:9370   */\n      add\n        /* \"#utility.yul\":9349:9407   */\n      mstore\n        /* \"#utility.yul\":9441:9447   */\n      0x6669656400000000000000000000000000000000000000000000000000000000\n        /* \"#utility.yul\":9436:9438   */\n      0x20\n        /* \"#utility.yul\":9428:9434   */\n      dup3\n        /* \"#utility.yul\":9424:9439   */\n      add\n        /* \"#utility.yul\":9417:9448   */\n      mstore\n        /* \"#utility.yul\":9232:9455   */\n      pop\n      jump\t// out\n        /* \"#utility.yul\":9461:9827   */\n    tag_153:\n        /* \"#utility.yul\":9603:9606   */\n      0x00\n        /* \"#utility.yul\":9624:9691   */\n      tag_236\n        /* \"#utility.yul\":9688:9690   */\n      0x24\n        /* \"#utility.yul\":9683:9686   */\n      dup4\n        /* \"#utility.yul\":9624:9691   */\n      tag_139\n      jump\t// in\n    tag_236:\n        /* \"#utility.yul\":9617:9691   */\n      swap2\n      pop\n        /* \"#utility.yul\":9700:9793   */\n      tag_237\n        /* \"#utility.yul\":9789:9792   */\n      dup3\n        /* \"#utility.yul\":9700:9793   */\n      tag_152\n      jump\t// in\n    tag_237:\n        /* \"#utility.yul\":9818:9820   */\n      0x40\n        /* \"#utility.yul\":9813:9816   */\n      dup3\n        /* \"#utility.yul\":9809:9821   */\n      add\n        /* \"#utility.yul\":9802:9821   */\n      swap1\n      pop\n        /* \"#utility.yul\":9461:9827   */\n      swap2\n      swap1\n      pop\n      jump\t// out\n        /* \"#utility.yul\":9833:10252   */\n    tag_85:\n        /* \"#utility.yul\":9999:10003   */\n      0x00\n        /* \"#utility.yul\":10037:10039   */\n      0x20\n        /* \"#utility.yul\":10026:10035   */\n      dup3\n        /* \"#utility.yul\":10022:10040   */\n      add\n        /* \"#utility.yul\":10014:10040   */\n      swap1\n      pop\n        /* \"#utility.yul\":10086:10095   */\n      dup2\n        /* \"#utility.yul\":10080:10084   */\n      dup2\n        /* \"#utility.yul\":10076:10096   */\n      sub\n        /* \"#utility.yul\":10072:10073   */\n      0x00\n        /* \"#utility.yul\":10061:10070   */\n      dup4\n        /* \"#utility.yul\":10057:10074   */\n      add\n        /* \"#utility.yul\":10050:10097   */\n      mstore\n        /* \"#utility.yul\":10114:10245   */\n      tag_239\n        /* \"#utility.yul\":10240:10244   */\n      dup2\n        /* \"#utility.yul\":10114:10245   */\n      tag_153\n      jump\t// in\n    tag_239:\n        /* \"#utility.yul\":10106:10245   */\n      swap1\n      pop\n        /* \"#utility.yul\":9833:10252   */\n      swap2\n      swap1\n      pop\n      jump\t// out\n        /* \"#utility.yul\":10258:10494   */\n    tag_154:\n        /* \"#utility.yul\":10398:10432   */\n      0x526567697374726174696f6e204572726f723a20416464726573732069732061\n        /* \"#utility.yul\":10394:10395   */\n      0x00\n        /* \"#utility.yul\":10386:10392   */\n      dup3\n        /* \"#utility.yul\":10382:10396   */\n      add\n        /* \"#utility.yul\":10375:10433   */\n      mstore\n        /* \"#utility.yul\":10467:10486   */\n      0x6c72656164792072656769737465726564000000000000000000000000000000\n        /* \"#utility.yul\":10462:10464   */\n      0x20\n        /* \"#utility.yul\":10454:10460   */\n      dup3\n        /* \"#utility.yul\":10450:10465   */\n      add\n        /* \"#utility.yul\":10443:10487   */\n      mstore\n        /* \"#utility.yul\":10258:10494   */\n      pop\n      jump\t// out\n        /* \"#utility.yul\":10500:10866   */\n    tag_155:\n        /* \"#utility.yul\":10642:10645   */\n      0x00\n        /* \"#utility.yul\":10663:10730   */\n      tag_242\n        /* \"#utility.yul\":10727:10729   */\n      0x31\n        /* \"#utility.yul\":10722:10725   */\n      dup4\n        /* \"#utility.yul\":10663:10730   */\n      tag_139\n      jump\t// in\n    tag_242:\n        /* \"#utility.yul\":10656:10730   */\n      swap2\n      pop\n        /* \"#utility.yul\":10739:10832   */\n      tag_243\n        /* \"#utility.yul\":10828:10831   */\n      dup3\n        /* \"#utility.yul\":10739:10832   */\n      tag_154\n      jump\t// in\n    tag_243:\n        /* \"#utility.yul\":10857:10859   */\n      0x40\n        /* \"#utility.yul\":10852:10855   */\n      dup3\n        /* \"#utility.yul\":10848:10860   */\n      add\n        /* \"#utility.yul\":10841:10860   */\n      swap1\n      pop\n        /* \"#utility.yul\":10500:10866   */\n      swap2\n      swap1\n      pop\n      jump\t// out\n        /* \"#utility.yul\":10872:11291   */\n    tag_95:\n        /* \"#utility.yul\":11038:11042   */\n      0x00\n        /* \"#utility.yul\":11076:11078   */\n      0x20\n        /* \"#utility.yul\":11065:11074   */\n      dup3\n        /* \"#utility.yul\":11061:11079   */\n      add\n        /* \"#utility.yul\":11053:11079   */\n      swap1\n      pop\n        /* \"#utility.yul\":11125:11134   */\n      dup2\n        /* \"#utility.yul\":11119:11123   */\n      dup2\n        /* \"#utility.yul\":11115:11135   */\n      sub\n        /* \"#utility.yul\":11111:11112   */\n      0x00\n        /* \"#utility.yul\":11100:11109   */\n      dup4\n        /* \"#utility.yul\":11096:11113   */\n      add\n        /* \"#utility.yul\":11089:11136   */\n      mstore\n        /* \"#utility.yul\":11153:11284   */\n      tag_245\n        /* \"#utility.yul\":11279:11283   */\n      dup2\n        /* \"#utility.yul\":11153:11284   */\n      tag_155\n      jump\t// in\n    tag_245:\n        /* \"#utility.yul\":11145:11284   */\n      swap1\n      pop\n        /* \"#utility.yul\":10872:11291   */\n      swap2\n      swap1\n      pop\n      jump\t// out\n        /* \"#utility.yul\":11297:11526   */\n    tag_156:\n        /* \"#utility.yul\":11437:11471   */\n      0x526567697374726174696f6e204572726f723a20496e76616c696420726f6c65\n        /* \"#utility.yul\":11433:11434   */\n      0x00\n        /* \"#utility.yul\":11425:11431   */\n      dup3\n        /* \"#utility.yul\":11421:11435   */\n      add\n        /* \"#utility.yul\":11414:11472   */\n      mstore\n        /* \"#utility.yul\":11506:11518   */\n      0x2073706563696669656400000000000000000000000000000000000000000000\n        /* \"#utility.yul\":11501:11503   */\n      0x20\n        /* \"#utility.yul\":11493:11499   */\n      dup3\n        /* \"#utility.yul\":11489:11504   */\n      add\n        /* \"#utility.yul\":11482:11519   */\n      mstore\n        /* \"#utility.yul\":11297:11526   */\n      pop\n      jump\t// out\n        /* \"#utility.yul\":11532:11898   */\n    tag_157:\n        /* \"#utility.yul\":11674:11677   */\n      0x00\n        /* \"#utility.yul\":11695:11762   */\n      tag_248\n        /* \"#utility.yul\":11759:11761   */\n      0x2a\n        /* \"#utility.yul\":11754:11757   */\n      dup4\n        /* \"#utility.yul\":11695:11762   */\n      tag_139\n      jump\t// in\n    tag_248:\n        /* \"#utility.yul\":11688:11762   */\n      swap2\n      pop\n        /* \"#utility.yul\":11771:11864   */\n      tag_249\n        /* \"#utility.yul\":11860:11863   */\n      dup3\n        /* \"#utility.yul\":11771:11864   */\n      tag_156\n      jump\t// in\n    tag_249:\n        /* \"#utility.yul\":11889:11891   */\n      0x40\n        /* \"#utility.yul\":11884:11887   */\n      dup3\n        /* \"#utility.yul\":11880:11892   */\n      add\n        /* \"#utility.yul\":11873:11892   */\n      swap1\n      pop\n        /* \"#utility.yul\":11532:11898   */\n      swap2\n      swap1\n      pop\n      jump\t// out\n        /* \"#utility.yul\":11904:12323   */\n    tag_106:\n        /* \"#utility.yul\":12070:12074   */\n      0x00\n        /* \"#utility.yul\":12108:12110   */\n      0x20\n        /* \"#utility.yul\":12097:12106   */\n      dup3\n        /* \"#utility.yul\":12093:12111   */\n      add\n        /* \"#utility.yul\":12085:12111   */\n      swap1\n      pop\n        /* \"#utility.yul\":12157:12166   */\n      dup2\n        /* \"#utility.yul\":12151:12155   */\n      dup2\n        /* \"#utility.yul\":12147:12167   */\n      sub\n        /* \"#utility.yul\":12143:12144   */\n      0x00\n        /* \"#utility.yul\":12132:12141   */\n      dup4\n        /* \"#utility.yul\":12128:12145   */\n      add\n        /* \"#utility.yul\":12121:12168   */\n      mstore\n        /* \"#utility.yul\":12185:12316   */\n      tag_251\n        /* \"#utility.yul\":12311:12315   */\n      dup2\n        /* \"#utility.yul\":12185:12316   */\n      tag_157\n      jump\t// in\n    tag_251:\n        /* \"#utility.yul\":12177:12316   */\n      swap1\n      pop\n        /* \"#utility.yul\":11904:12323   */\n      swap2\n      swap1\n      pop\n      jump\t// out\n        /* \"#utility.yul\":12329:12550   */\n    tag_158:\n        /* \"#utility.yul\":12469:12503   */\n      0x52656d6f76616c204572726f723a20526567697374726172206e6f7420666f75\n        /* \"#utility.yul\":12465:12466   */\n      0x00\n        /* \"#utility.yul\":12457:12463   */\n      dup3\n        /* \"#utility.yul\":12453:12467   */\n      add\n        /* \"#utility.yul\":12446:12504   */\n      mstore\n        /* \"#utility.yul\":12538:12542   */\n      0x6e64000000000000000000000000000000000000000000000000000000000000\n        /* \"#utility.yul\":12533:12535   */\n      0x20\n        /* \"#utility.yul\":12525:12531   */\n      dup3\n        /* \"#utility.yul\":12521:12536   */\n      add\n        /* \"#utility.yul\":12514:12543   */\n      mstore\n        /* \"#utility.yul\":12329:12550   */\n      pop\n      jump\t// out\n        /* \"#utility.yul\":12556:12922   */\n    tag_159:\n        /* \"#utility.yul\":12698:12701   */\n      0x00\n        /* \"#utility.yul\":12719:12786   */\n      tag_254\n        /* \"#utility.yul\":12783:12785   */\n      0x22\n        /* \"#utility.yul\":12778:12781   */\n      dup4\n        /* \"#utility.yul\":12719:12786   */\n      tag_139\n      jump\t// in\n    tag_254:\n        /* \"#utility.yul\":12712:12786   */\n      swap2\n      pop\n        /* \"#utility.yul\":12795:12888   */\n      tag_255\n        /* \"#utility.yul\":12884:12887   */\n      dup3\n        /* \"#utility.yul\":12795:12888   */\n      tag_158\n      jump\t// in\n    tag_255:\n        /* \"#utility.yul\":12913:12915   */\n      0x40\n        /* \"#utility.yul\":12908:12911   */\n      dup3\n        /* \"#utility.yul\":12904:12916   */\n      add\n        /* \"#utility.yul\":12897:12916   */\n      swap1\n      pop\n        /* \"#utility.yul\":12556:12922   */\n      swap2\n      swap1\n      pop\n      jump\t// out\n        /* \"#utility.yul\":12928:13347   */\n    tag_125:\n        /* \"#utility.yul\":13094:13098   */\n      0x00\n        /* \"#utility.yul\":13132:13134   */\n      0x20\n        /* \"#utility.yul\":13121:13130   */\n      dup3\n        /* \"#utility.yul\":13117:13135   */\n      add\n        /* \"#utility.yul\":13109:13135   */\n      swap1\n      pop\n        /* \"#utility.yul\":13181:13190   */\n      dup2\n        /* \"#utility.yul\":13175:13179   */\n      dup2\n        /* \"#utility.yul\":13171:13191   */\n      sub\n        /* \"#utility.yul\":13167:13168   */\n      0x00\n        /* \"#utility.yul\":13156:13165   */\n      dup4\n        /* \"#utility.yul\":13152:13169   */\n      add\n        /* \"#utility.yul\":13145:13192   */\n      mstore\n        /* \"#utility.yul\":13209:13340   */\n      tag_257\n        /* \"#utility.yul\":13335:13339   */\n      dup2\n        /* \"#utility.yul\":13209:13340   */\n      tag_159\n      jump\t// in\n    tag_257:\n        /* \"#utility.yul\":13201:13340   */\n      swap1\n      pop\n        /* \"#utility.yul\":12928:13347   */\n      swap2\n      swap1\n      pop\n      jump\t// out\n\n    auxdata: 0xa26469706673582212202ccfda646f43e17eac98376cde3dc2938cd562a1cd5103f1ad5b4ec34426ac3064736f6c634300081a0033\n}\n",
				"bytecode": {
					"linkReferences": {},
					"object": "6080604052348015600e575f80fd5b506001805f3373ffffffffffffffffffffffffffffffffffffffff1673ffffffffffffffffffffffffffffffffffffffff1681526020019081526020015f205f6101000a81548160ff0219169083151502179055503373ffffffffffffffffffffffffffffffffffffffff167fa33b5afc5bfd49840d1820b94dff6dd99e640e91f3286fdd3384d20be85faf6860405160405180910390a2611676806100b35f395ff3fe608060405234801561000f575f80fd5b5060043610610086575f3560e01c80638e96d94e116100595780638e96d94e146100fc578063a8b12f5c14610118578063b33712c514610134578063ba904eed1461013e57610086565b8063439766ce1461008a5780634b394d4a14610094578063668a2001146100b05780637143059f146100cc575b5f80fd5b61009261015a565b005b6100ae60048036038101906100a99190610f8c565b6101ff565b005b6100ca60048036038101906100c59190610f8c565b6103fb565b005b6100e660048036038101906100e19190610f8c565b6105fa565b6040516100f3919061102a565b60405180910390f35b61011660048036038101906101119190611066565b6106d9565b005b610132600480360381019061012d9190611066565b61095a565b005b61013c610c8f565b005b61015860048036038101906101539190610f8c565b610d33565b005b60015f3373ffffffffffffffffffffffffffffffffffffffff1673ffffffffffffffffffffffffffffffffffffffff1681526020019081526020015f205f9054906101000a900460ff166101e3576040517f08c379a00000000000000000000000000000000000000000000000000000000081526004016101da90611124565b60405180910390fd5b600160025f6101000a81548160ff021916908315150217905550565b60015f3373ffffffffffffffffffffffffffffffffffffffff1673ffffffffffffffffffffffffffffffffffffffff1681526020019081526020015f205f9054906101000a900460ff16610288576040517f08c379a000000000000000000000000000000000000000000000000000000000815260040161027f90611124565b60405180910390fd5b60025f9054906101000a900460ff16156102d7576040517f08c379a00000000000000000000000000000000000000000000000000000000081526004016102ce906111b2565b60405180910390fd5b60015f8273ffffffffffffffffffffffffffffffffffffffff1673ffffffffffffffffffffffffffffffffffffffff1681526020019081526020015f205f9054906101000a900460ff1615610361576040517f08c379a000000000000000000000000000000000000000000000000000000000815260040161035890611240565b60405180910390fd5b6001805f8373ffffffffffffffffffffffffffffffffffffffff1673ffffffffffffffffffffffffffffffffffffffff1681526020019081526020015f205f6101000a81548160ff0219169083151502179055508073ffffffffffffffffffffffffffffffffffffffff167fa33b5afc5bfd49840d1820b94dff6dd99e640e91f3286fdd3384d20be85faf6860405160405180910390a250565b60015f3373ffffffffffffffffffffffffffffffffffffffff1673ffffffffffffffffffffffffffffffffffffffff1681526020019081526020015f205f9054906101000a900460ff16610484576040517f08c379a000000000000000000000000000000000000000000000000000000000815260040161047b90611124565b60405180910390fd5b60025f9054906101000a900460ff16156104d3576040517f08c379a00000000000000000000000000000000000000000000000000000000081526004016104ca906111b2565b60405180910390fd5b5f808273ffffffffffffffffffffffffffffffffffffffff1673ffffffffffffffffffffffffffffffffffffffff1681526020019081526020015f205f0160159054906101000a900460ff1661055e576040517f08c379a0000000000000000000000000000000000000000000000000000000008152600401610555906112ce565b60405180910390fd5b5f805f8373ffffffffffffffffffffffffffffffffffffffff1673ffffffffffffffffffffffffffffffffffffffff1681526020019081526020015f205f0160156101000a81548160ff0219169083151502179055508073ffffffffffffffffffffffffffffffffffffffff167f1a5e355a9a34d7eac1e439a6c610ba1fa72aa45f7645724ce5187fa19c3bd3fc60405160405180910390a250565b5f805f8373ffffffffffffffffffffffffffffffffffffffff1673ffffffffffffffffffffffffffffffffffffffff1681526020019081526020015f205f0160159054906101000a900460ff16610686576040517f08c379a000000000000000000000000000000000000000000000000000000000815260040161067d9061135c565b60405180910390fd5b5f808373ffffffffffffffffffffffffffffffffffffffff1673ffffffffffffffffffffffffffffffffffffffff1681526020019081526020015f205f0160149054906101000a900460ff169050919050565b60015f3373ffffffffffffffffffffffffffffffffffffffff1673ffffffffffffffffffffffffffffffffffffffff1681526020019081526020015f205f9054906101000a900460ff16610762576040517f08c379a000000000000000000000000000000000000000000000000000000000815260040161075990611124565b60405180910390fd5b60025f9054906101000a900460ff16156107b1576040517f08c379a00000000000000000000000000000000000000000000000000000000081526004016107a8906111b2565b60405180910390fd5b5f808373ffffffffffffffffffffffffffffffffffffffff1673ffffffffffffffffffffffffffffffffffffffff1681526020019081526020015f205f0160159054906101000a900460ff1661083c576040517f08c379a0000000000000000000000000000000000000000000000000000000008152600401610833906113ea565b60405180910390fd5b5f600581111561084f5761084e610fb7565b5b81600581111561086257610861610fb7565b5b036108a2576040517f08c379a000000000000000000000000000000000000000000000000000000000815260040161089990611478565b60405180910390fd5b805f808473ffffffffffffffffffffffffffffffffffffffff1673ffffffffffffffffffffffffffffffffffffffff1681526020019081526020015f205f0160146101000a81548160ff0219169083600581111561090357610902610fb7565b5b02179055508173ffffffffffffffffffffffffffffffffffffffff167fc3f8f61911a1537261f77e2703626e158e299a98e341024ecaa26bbd1d884c648260405161094e919061102a565b60405180910390a25050565b60015f3373ffffffffffffffffffffffffffffffffffffffff1673ffffffffffffffffffffffffffffffffffffffff1681526020019081526020015f205f9054906101000a900460ff166109e3576040517f08c379a00000000000000000000000000000000000000000000000000000000081526004016109da90611124565b60405180910390fd5b815f808273ffffffffffffffffffffffffffffffffffffffff1673ffffffffffffffffffffffffffffffffffffffff1681526020019081526020015f205f0160159054906101000a900460ff1615610a70576040517f08c379a0000000000000000000000000000000000000000000000000000000008152600401610a6790611506565b60405180910390fd5b60025f9054906101000a900460ff1615610abf576040517f08c379a0000000000000000000000000000000000000000000000000000000008152600401610ab6906111b2565b60405180910390fd5b5f6005811115610ad257610ad1610fb7565b5b826005811115610ae557610ae4610fb7565b5b03610b25576040517f08c379a0000000000000000000000000000000000000000000000000000000008152600401610b1c90611594565b60405180910390fd5b60405180606001604052808473ffffffffffffffffffffffffffffffffffffffff168152602001836005811115610b5f57610b5e610fb7565b5b8152602001600115158152505f808573ffffffffffffffffffffffffffffffffffffffff1673ffffffffffffffffffffffffffffffffffffffff1681526020019081526020015f205f820151815f015f6101000a81548173ffffffffffffffffffffffffffffffffffffffff021916908373ffffffffffffffffffffffffffffffffffffffff1602179055506020820151815f0160146101000a81548160ff02191690836005811115610c1557610c14610fb7565b5b02179055506040820151815f0160156101000a81548160ff0219169083151502179055509050508273ffffffffffffffffffffffffffffffffffffffff167f806d89d78ee0f826f9fa2e75e6e53e4a91ee0f70688d2152fd4d107423f3da6383604051610c82919061102a565b60405180910390a2505050565b60015f3373ffffffffffffffffffffffffffffffffffffffff1673ffffffffffffffffffffffffffffffffffffffff1681526020019081526020015f205f9054906101000a900460ff16610d18576040517f08c379a0000000000000000000000000000000000000000000000000000000008152600401610d0f90611124565b60405180910390fd5b5f60025f6101000a81548160ff021916908315150217905550565b60015f3373ffffffffffffffffffffffffffffffffffffffff1673ffffffffffffffffffffffffffffffffffffffff1681526020019081526020015f205f9054906101000a900460ff16610dbc576040517f08c379a0000000000000000000000000000000000000000000000000000000008152600401610db390611124565b60405180910390fd5b60025f9054906101000a900460ff1615610e0b576040517f08c379a0000000000000000000000000000000000000000000000000000000008152600401610e02906111b2565b60405180910390fd5b60015f8273ffffffffffffffffffffffffffffffffffffffff1673ffffffffffffffffffffffffffffffffffffffff1681526020019081526020015f205f9054906101000a900460ff16610e94576040517f08c379a0000000000000000000000000000000000000000000000000000000008152600401610e8b90611622565b60405180910390fd5b5f60015f8373ffffffffffffffffffffffffffffffffffffffff1673ffffffffffffffffffffffffffffffffffffffff1681526020019081526020015f205f6101000a81548160ff0219169083151502179055508073ffffffffffffffffffffffffffffffffffffffff167f81cb97a294b3ff5f91ef4048b3173c7f8f6943d9750add2071199061165e5f5760405160405180910390a250565b5f80fd5b5f73ffffffffffffffffffffffffffffffffffffffff82169050919050565b5f610f5b82610f32565b9050919050565b610f6b81610f51565b8114610f75575f80fd5b50565b5f81359050610f8681610f62565b92915050565b5f60208284031215610fa157610fa0610f2e565b5b5f610fae84828501610f78565b91505092915050565b7f4e487b71000000000000000000000000000000000000000000000000000000005f52602160045260245ffd5b60068110610ff557610ff4610fb7565b5b50565b5f81905061100582610fe4565b919050565b5f61101482610ff8565b9050919050565b6110248161100a565b82525050565b5f60208201905061103d5f83018461101b565b92915050565b6006811061104f575f80fd5b50565b5f8135905061106081611043565b92915050565b5f806040838503121561107c5761107b610f2e565b5b5f61108985828601610f78565b925050602061109a85828601611052565b9150509250929050565b5f82825260208201905092915050565b7f4163636573732044656e6965643a204e6f7420616e20617574686f72697a65645f8201527f2072656769737472617200000000000000000000000000000000000000000000602082015250565b5f61110e602a836110a4565b9150611119826110b4565b604082019050919050565b5f6020820190508181035f83015261113b81611102565b9050919050565b7f4f7065726174696f6e204572726f723a20436f6e7472616374206973207061755f8201527f7365640000000000000000000000000000000000000000000000000000000000602082015250565b5f61119c6023836110a4565b91506111a782611142565b604082019050919050565b5f6020820190508181035f8301526111c981611190565b9050919050565b7f417070726f76616c204572726f723a2052656769737472617220616c726561645f8201527f7920617070726f76656400000000000000000000000000000000000000000000602082015250565b5f61122a602a836110a4565b9150611235826111d0565b604082019050919050565b5f6020820190508181035f8301526112578161121e565b9050919050565b7f52656d6f76616c204572726f723a205061727469636970616e74206e6f7420725f8201527f6567697374657265640000000000000000000000000000000000000000000000602082015250565b5f6112b86029836110a4565b91506112c38261125e565b604082019050919050565b5f6020820190508181035f8301526112e5816112ac565b9050919050565b7f5175657279204572726f723a205061727469636970616e74206e6f74207265675f8201527f6973746572656400000000000000000000000000000000000000000000000000602082015250565b5f6113466027836110a4565b9150611351826112ec565b604082019050919050565b5f6020820190508181035f8301526113738161133a565b9050919050565b7f557064617465204572726f723a205061727469636970616e74206e6f742072655f8201527f6769737465726564000000000000000000000000000000000000000000000000602082015250565b5f6113d46028836110a4565b91506113df8261137a565b604082019050919050565b5f6020820190508181035f830152611401816113c8565b9050919050565b7f557064617465204572726f723a20496e76616c696420726f6c652073706563695f8201527f6669656400000000000000000000000000000000000000000000000000000000602082015250565b5f6114626024836110a4565b915061146d82611408565b604082019050919050565b5f6020820190508181035f83015261148f81611456565b9050919050565b7f526567697374726174696f6e204572726f723a204164647265737320697320615f8201527f6c72656164792072656769737465726564000000000000000000000000000000602082015250565b5f6114f06031836110a4565b91506114fb82611496565b604082019050919050565b5f6020820190508181035f83015261151d816114e4565b9050919050565b7f526567697374726174696f6e204572726f723a20496e76616c696420726f6c655f8201527f2073706563696669656400000000000000000000000000000000000000000000602082015250565b5f61157e602a836110a4565b915061158982611524565b604082019050919050565b5f6020820190508181035f8301526115ab81611572565b9050919050565b7f52656d6f76616c204572726f723a20526567697374726172206e6f7420666f755f8201527f6e64000000000000000000000000000000000000000000000000000000000000602082015250565b5f61160c6022836110a4565b9150611617826115b2565b604082019050919050565b5f6020820190508181035f83015261163981611600565b905091905056fea26469706673582212202ccfda646f43e17eac98376cde3dc2938cd562a1cd5103f1ad5b4ec34426ac3064736f6c634300081a0033",
					"opcodes": "PUSH1 0x80 PUSH1 0x40 MSTORE CALLVALUE DUP1 ISZERO PUSH1 0xE JUMPI PUSH0 DUP1 REVERT JUMPDEST POP PUSH1 0x1 DUP1 PUSH0 CALLER PUSH20 0xFFFFFFFFFFFFFFFFFFFFFFFFFFFFFFFFFFFFFFFF AND PUSH20 0xFFFFFFFFFFFFFFFFFFFFFFFFFFFFFFFFFFFFFFFF AND DUP2 MSTORE PUSH1 0x20 ADD SWAP1 DUP2 MSTORE PUSH1 0x20 ADD PUSH0 KECCAK256 PUSH0 PUSH2 0x100 EXP DUP2 SLOAD DUP2 PUSH1 0xFF MUL NOT AND SWAP1 DUP4 ISZERO ISZERO MUL OR SWAP1 SSTORE POP CALLER PUSH20 0xFFFFFFFFFFFFFFFFFFFFFFFFFFFFFFFFFFFFFFFF AND PUSH32 0xA33B5AFC5BFD49840D1820B94DFF6DD99E640E91F3286FDD3384D20BE85FAF68 PUSH1 0x40 MLOAD PUSH1 0x40 MLOAD DUP1 SWAP2 SUB SWAP1 LOG2 PUSH2 0x1676 DUP1 PUSH2 0xB3 PUSH0 CODECOPY PUSH0 RETURN INVALID PUSH1 0x80 PUSH1 0x40 MSTORE CALLVALUE DUP1 ISZERO PUSH2 0xF JUMPI PUSH0 DUP1 REVERT JUMPDEST POP PUSH1 0x4 CALLDATASIZE LT PUSH2 0x86 JUMPI PUSH0 CALLDATALOAD PUSH1 0xE0 SHR DUP1 PUSH4 0x8E96D94E GT PUSH2 0x59 JUMPI DUP1 PUSH4 0x8E96D94E EQ PUSH2 0xFC JUMPI DUP1 PUSH4 0xA8B12F5C EQ PUSH2 0x118 JUMPI DUP1 PUSH4 0xB33712C5 EQ PUSH2 0x134 JUMPI DUP1 PUSH4 0xBA904EED EQ PUSH2 0x13E JUMPI PUSH2 0x86 JUMP JUMPDEST DUP1 PUSH4 0x439766CE EQ PUSH2 0x8A JUMPI DUP1 PUSH4 0x4B394D4A EQ PUSH2 0x94 JUMPI DUP1 PUSH4 0x668A2001 EQ PUSH2 0xB0 JUMPI DUP1 PUSH4 0x7143059F EQ PUSH2 0xCC JUMPI JUMPDEST PUSH0 DUP1 REVERT JUMPDEST PUSH2 0x92 PUSH2 0x15A JUMP JUMPDEST STOP JUMPDEST PUSH2 0xAE PUSH1 0x4 DUP1 CALLDATASIZE SUB DUP2 ADD SWAP1 PUSH2 0xA9 SWAP2 SWAP1 PUSH2 0xF8C JUMP JUMPDEST PUSH2 0x1FF JUMP JUMPDEST STOP JUMPDEST PUSH2 0xCA PUSH1 0x4 DUP1 CALLDATASIZE SUB DUP2 ADD SWAP1 PUSH2 0xC5 SWAP2 SWAP1 PUSH2 0xF8C JUMP JUMPDEST PUSH2 0x3FB JUMP JUMPDEST STOP JUMPDEST PUSH2 0xE6 PUSH1 0x4 DUP1 CALLDATASIZE SUB DUP2 ADD SWAP1 PUSH2 0xE1 SWAP2 SWAP1 PUSH2 0xF8C JUMP JUMPDEST PUSH2 0x5FA JUMP JUMPDEST PUSH1 0x40 MLOAD PUSH2 0xF3 SWAP2 SWAP1 PUSH2 0x102A JUMP JUMPDEST PUSH1 0x40 MLOAD DUP1 SWAP2 SUB SWAP1 RETURN JUMPDEST PUSH2 0x116 PUSH1 0x4 DUP1 CALLDATASIZE SUB DUP2 ADD SWAP1 PUSH2 0x111 SWAP2 SWAP1 PUSH2 0x1066 JUMP JUMPDEST PUSH2 0x6D9 JUMP JUMPDEST STOP JUMPDEST PUSH2 0x132 PUSH1 0x4 DUP1 CALLDATASIZE SUB DUP2 ADD SWAP1 PUSH2 0x12D SWAP2 SWAP1 PUSH2 0x1066 JUMP JUMPDEST PUSH2 0x95A JUMP JUMPDEST STOP JUMPDEST PUSH2 0x13C PUSH2 0xC8F JUMP JUMPDEST STOP JUMPDEST PUSH2 0x158 PUSH1 0x4 DUP1 CALLDATASIZE SUB DUP2 ADD SWAP1 PUSH2 0x153 SWAP2 SWAP1 PUSH2 0xF8C JUMP JUMPDEST PUSH2 0xD33 JUMP JUMPDEST STOP JUMPDEST PUSH1 0x1 PUSH0 CALLER PUSH20 0xFFFFFFFFFFFFFFFFFFFFFFFFFFFFFFFFFFFFFFFF AND PUSH20 0xFFFFFFFFFFFFFFFFFFFFFFFFFFFFFFFFFFFFFFFF AND DUP2 MSTORE PUSH1 0x20 ADD SWAP1 DUP2 MSTORE PUSH1 0x20 ADD PUSH0 KECCAK256 PUSH0 SWAP1 SLOAD SWAP1 PUSH2 0x100 EXP SWAP1 DIV PUSH1 0xFF AND PUSH2 0x1E3 JUMPI PUSH1 0x40 MLOAD PUSH32 0x8C379A000000000000000000000000000000000000000000000000000000000 DUP2 MSTORE PUSH1 0x4 ADD PUSH2 0x1DA SWAP1 PUSH2 0x1124 JUMP JUMPDEST PUSH1 0x40 MLOAD DUP1 SWAP2 SUB SWAP1 REVERT JUMPDEST PUSH1 0x1 PUSH1 0x2 PUSH0 PUSH2 0x100 EXP DUP2 SLOAD DUP2 PUSH1 0xFF MUL NOT AND SWAP1 DUP4 ISZERO ISZERO MUL OR SWAP1 SSTORE POP JUMP JUMPDEST PUSH1 0x1 PUSH0 CALLER PUSH20 0xFFFFFFFFFFFFFFFFFFFFFFFFFFFFFFFFFFFFFFFF AND PUSH20 0xFFFFFFFFFFFFFFFFFFFFFFFFFFFFFFFFFFFFFFFF AND DUP2 MSTORE PUSH1 0x20 ADD SWAP1 DUP2 MSTORE PUSH1 0x20 ADD PUSH0 KECCAK256 PUSH0 SWAP1 SLOAD SWAP1 PUSH2 0x100 EXP SWAP1 DIV PUSH1 0xFF AND PUSH2 0x288 JUMPI PUSH1 0x40 MLOAD PUSH32 0x8C379A000000000000000000000000000000000000000000000000000000000 DUP2 MSTORE PUSH1 0x4 ADD PUSH2 0x27F SWAP1 PUSH2 0x1124 JUMP JUMPDEST PUSH1 0x40 MLOAD DUP1 SWAP2 SUB SWAP1 REVERT JUMPDEST PUSH1 0x2 PUSH0 SWAP1 SLOAD SWAP1 PUSH2 0x100 EXP SWAP1 DIV PUSH1 0xFF AND ISZERO PUSH2 0x2D7 JUMPI PUSH1 0x40 MLOAD PUSH32 0x8C379A000000000000000000000000000000000000000000000000000000000 DUP2 MSTORE PUSH1 0x4 ADD PUSH2 0x2CE SWAP1 PUSH2 0x11B2 JUMP JUMPDEST PUSH1 0x40 MLOAD DUP1 SWAP2 SUB SWAP1 REVERT JUMPDEST PUSH1 0x1 PUSH0 DUP3 PUSH20 0xFFFFFFFFFFFFFFFFFFFFFFFFFFFFFFFFFFFFFFFF AND PUSH20 0xFFFFFFFFFFFFFFFFFFFFFFFFFFFFFFFFFFFFFFFF AND DUP2 MSTORE PUSH1 0x20 ADD SWAP1 DUP2 MSTORE PUSH1 0x20 ADD PUSH0 KECCAK256 PUSH0 SWAP1 SLOAD SWAP1 PUSH2 0x100 EXP SWAP1 DIV PUSH1 0xFF AND ISZERO PUSH2 0x361 JUMPI PUSH1 0x40 MLOAD PUSH32 0x8C379A000000000000000000000000000000000000000000000000000000000 DUP2 MSTORE PUSH1 0x4 ADD PUSH2 0x358 SWAP1 PUSH2 0x1240 JUMP JUMPDEST PUSH1 0x40 MLOAD DUP1 SWAP2 SUB SWAP1 REVERT JUMPDEST PUSH1 0x1 DUP1 PUSH0 DUP4 PUSH20 0xFFFFFFFFFFFFFFFFFFFFFFFFFFFFFFFFFFFFFFFF AND PUSH20 0xFFFFFFFFFFFFFFFFFFFFFFFFFFFFFFFFFFFFFFFF AND DUP2 MSTORE PUSH1 0x20 ADD SWAP1 DUP2 MSTORE PUSH1 0x20 ADD PUSH0 KECCAK256 PUSH0 PUSH2 0x100 EXP DUP2 SLOAD DUP2 PUSH1 0xFF MUL NOT AND SWAP1 DUP4 ISZERO ISZERO MUL OR SWAP1 SSTORE POP DUP1 PUSH20 0xFFFFFFFFFFFFFFFFFFFFFFFFFFFFFFFFFFFFFFFF AND PUSH32 0xA33B5AFC5BFD49840D1820B94DFF6DD99E640E91F3286FDD3384D20BE85FAF68 PUSH1 0x40 MLOAD PUSH1 0x40 MLOAD DUP1 SWAP2 SUB SWAP1 LOG2 POP JUMP JUMPDEST PUSH1 0x1 PUSH0 CALLER PUSH20 0xFFFFFFFFFFFFFFFFFFFFFFFFFFFFFFFFFFFFFFFF AND PUSH20 0xFFFFFFFFFFFFFFFFFFFFFFFFFFFFFFFFFFFFFFFF AND DUP2 MSTORE PUSH1 0x20 ADD SWAP1 DUP2 MSTORE PUSH1 0x20 ADD PUSH0 KECCAK256 PUSH0 SWAP1 SLOAD SWAP1 PUSH2 0x100 EXP SWAP1 DIV PUSH1 0xFF AND PUSH2 0x484 JUMPI PUSH1 0x40 MLOAD PUSH32 0x8C379A000000000000000000000000000000000000000000000000000000000 DUP2 MSTORE PUSH1 0x4 ADD PUSH2 0x47B SWAP1 PUSH2 0x1124 JUMP JUMPDEST PUSH1 0x40 MLOAD DUP1 SWAP2 SUB SWAP1 REVERT JUMPDEST PUSH1 0x2 PUSH0 SWAP1 SLOAD SWAP1 PUSH2 0x100 EXP SWAP1 DIV PUSH1 0xFF AND ISZERO PUSH2 0x4D3 JUMPI PUSH1 0x40 MLOAD PUSH32 0x8C379A000000000000000000000000000000000000000000000000000000000 DUP2 MSTORE PUSH1 0x4 ADD PUSH2 0x4CA SWAP1 PUSH2 0x11B2 JUMP JUMPDEST PUSH1 0x40 MLOAD DUP1 SWAP2 SUB SWAP1 REVERT JUMPDEST PUSH0 DUP1 DUP3 PUSH20 0xFFFFFFFFFFFFFFFFFFFFFFFFFFFFFFFFFFFFFFFF AND PUSH20 0xFFFFFFFFFFFFFFFFFFFFFFFFFFFFFFFFFFFFFFFF AND DUP2 MSTORE PUSH1 0x20 ADD SWAP1 DUP2 MSTORE PUSH1 0x20 ADD PUSH0 KECCAK256 PUSH0 ADD PUSH1 0x15 SWAP1 SLOAD SWAP1 PUSH2 0x100 EXP SWAP1 DIV PUSH1 0xFF AND PUSH2 0x55E JUMPI PUSH1 0x40 MLOAD PUSH32 0x8C379A000000000000000000000000000000000000000000000000000000000 DUP2 MSTORE PUSH1 0x4 ADD PUSH2 0x555 SWAP1 PUSH2 0x12CE JUMP JUMPDEST PUSH1 0x40 MLOAD DUP1 SWAP2 SUB SWAP1 REVERT JUMPDEST PUSH0 DUP1 PUSH0 DUP4 PUSH20 0xFFFFFFFFFFFFFFFFFFFFFFFFFFFFFFFFFFFFFFFF AND PUSH20 0xFFFFFFFFFFFFFFFFFFFFFFFFFFFFFFFFFFFFFFFF AND DUP2 MSTORE PUSH1 0x20 ADD SWAP1 DUP2 MSTORE PUSH1 0x20 ADD PUSH0 KECCAK256 PUSH0 ADD PUSH1 0x15 PUSH2 0x100 EXP DUP2 SLOAD DUP2 PUSH1 0xFF MUL NOT AND SWAP1 DUP4 ISZERO ISZERO MUL OR SWAP1 SSTORE POP DUP1 PUSH20 0xFFFFFFFFFFFFFFFFFFFFFFFFFFFFFFFFFFFFFFFF AND PUSH32 0x1A5E355A9A34D7EAC1E439A6C610BA1FA72AA45F7645724CE5187FA19C3BD3FC PUSH1 0x40 MLOAD PUSH1 0x40 MLOAD DUP1 SWAP2 SUB SWAP1 LOG2 POP JUMP JUMPDEST PUSH0 DUP1 PUSH0 DUP4 PUSH20 0xFFFFFFFFFFFFFFFFFFFFFFFFFFFFFFFFFFFFFFFF AND PUSH20 0xFFFFFFFFFFFFFFFFFFFFFFFFFFFFFFFFFFFFFFFF AND DUP2 MSTORE PUSH1 0x20 ADD SWAP1 DUP2 MSTORE PUSH1 0x20 ADD PUSH0 KECCAK256 PUSH0 ADD PUSH1 0x15 SWAP1 SLOAD SWAP1 PUSH2 0x100 EXP SWAP1 DIV PUSH1 0xFF AND PUSH2 0x686 JUMPI PUSH1 0x40 MLOAD PUSH32 0x8C379A000000000000000000000000000000000000000000000000000000000 DUP2 MSTORE PUSH1 0x4 ADD PUSH2 0x67D SWAP1 PUSH2 0x135C JUMP JUMPDEST PUSH1 0x40 MLOAD DUP1 SWAP2 SUB SWAP1 REVERT JUMPDEST PUSH0 DUP1 DUP4 PUSH20 0xFFFFFFFFFFFFFFFFFFFFFFFFFFFFFFFFFFFFFFFF AND PUSH20 0xFFFFFFFFFFFFFFFFFFFFFFFFFFFFFFFFFFFFFFFF AND DUP2 MSTORE PUSH1 0x20 ADD SWAP1 DUP2 MSTORE PUSH1 0x20 ADD PUSH0 KECCAK256 PUSH0 ADD PUSH1 0x14 SWAP1 SLOAD SWAP1 PUSH2 0x100 EXP SWAP1 DIV PUSH1 0xFF AND SWAP1 POP SWAP2 SWAP1 POP JUMP JUMPDEST PUSH1 0x1 PUSH0 CALLER PUSH20 0xFFFFFFFFFFFFFFFFFFFFFFFFFFFFFFFFFFFFFFFF AND PUSH20 0xFFFFFFFFFFFFFFFFFFFFFFFFFFFFFFFFFFFFFFFF AND DUP2 MSTORE PUSH1 0x20 ADD SWAP1 DUP2 MSTORE PUSH1 0x20 ADD PUSH0 KECCAK256 PUSH0 SWAP1 SLOAD SWAP1 PUSH2 0x100 EXP SWAP1 DIV PUSH1 0xFF AND PUSH2 0x762 JUMPI PUSH1 0x40 MLOAD PUSH32 0x8C379A000000000000000000000000000000000000000000000000000000000 DUP2 MSTORE PUSH1 0x4 ADD PUSH2 0x759 SWAP1 PUSH2 0x1124 JUMP JUMPDEST PUSH1 0x40 MLOAD DUP1 SWAP2 SUB SWAP1 REVERT JUMPDEST PUSH1 0x2 PUSH0 SWAP1 SLOAD SWAP1 PUSH2 0x100 EXP SWAP1 DIV PUSH1 0xFF AND ISZERO PUSH2 0x7B1 JUMPI PUSH1 0x40 MLOAD PUSH32 0x8C379A000000000000000000000000000000000000000000000000000000000 DUP2 MSTORE PUSH1 0x4 ADD PUSH2 0x7A8 SWAP1 PUSH2 0x11B2 JUMP JUMPDEST PUSH1 0x40 MLOAD DUP1 SWAP2 SUB SWAP1 REVERT JUMPDEST PUSH0 DUP1 DUP4 PUSH20 0xFFFFFFFFFFFFFFFFFFFFFFFFFFFFFFFFFFFFFFFF AND PUSH20 0xFFFFFFFFFFFFFFFFFFFFFFFFFFFFFFFFFFFFFFFF AND DUP2 MSTORE PUSH1 0x20 ADD SWAP1 DUP2 MSTORE PUSH1 0x20 ADD PUSH0 KECCAK256 PUSH0 ADD PUSH1 0x15 SWAP1 SLOAD SWAP1 PUSH2 0x100 EXP SWAP1 DIV PUSH1 0xFF AND PUSH2 0x83C JUMPI PUSH1 0x40 MLOAD PUSH32 0x8C379A000000000000000000000000000000000000000000000000000000000 DUP2 MSTORE PUSH1 0x4 ADD PUSH2 0x833 SWAP1 PUSH2 0x13EA JUMP JUMPDEST PUSH1 0x40 MLOAD DUP1 SWAP2 SUB SWAP1 REVERT JUMPDEST PUSH0 PUSH1 0x5 DUP2 GT ISZERO PUSH2 0x84F JUMPI PUSH2 0x84E PUSH2 0xFB7 JUMP JUMPDEST JUMPDEST DUP2 PUSH1 0x5 DUP2 GT ISZERO PUSH2 0x862 JUMPI PUSH2 0x861 PUSH2 0xFB7 JUMP JUMPDEST JUMPDEST SUB PUSH2 0x8A2 JUMPI PUSH1 0x40 MLOAD PUSH32 0x8C379A000000000000000000000000000000000000000000000000000000000 DUP2 MSTORE PUSH1 0x4 ADD PUSH2 0x899 SWAP1 PUSH2 0x1478 JUMP JUMPDEST PUSH1 0x40 MLOAD DUP1 SWAP2 SUB SWAP1 REVERT JUMPDEST DUP1 PUSH0 DUP1 DUP5 PUSH20 0xFFFFFFFFFFFFFFFFFFFFFFFFFFFFFFFFFFFFFFFF AND PUSH20 0xFFFFFFFFFFFFFFFFFFFFFFFFFFFFFFFFFFFFFFFF AND DUP2 MSTORE PUSH1 0x20 ADD SWAP1 DUP2 MSTORE PUSH1 0x20 ADD PUSH0 KECCAK256 PUSH0 ADD PUSH1 0x14 PUSH2 0x100 EXP DUP2 SLOAD DUP2 PUSH1 0xFF MUL NOT AND SWAP1 DUP4 PUSH1 0x5 DUP2 GT ISZERO PUSH2 0x903 JUMPI PUSH2 0x902 PUSH2 0xFB7 JUMP JUMPDEST JUMPDEST MUL OR SWAP1 SSTORE POP DUP2 PUSH20 0xFFFFFFFFFFFFFFFFFFFFFFFFFFFFFFFFFFFFFFFF AND PUSH32 0xC3F8F61911A1537261F77E2703626E158E299A98E341024ECAA26BBD1D884C64 DUP3 PUSH1 0x40 MLOAD PUSH2 0x94E SWAP2 SWAP1 PUSH2 0x102A JUMP JUMPDEST PUSH1 0x40 MLOAD DUP1 SWAP2 SUB SWAP1 LOG2 POP POP JUMP JUMPDEST PUSH1 0x1 PUSH0 CALLER PUSH20 0xFFFFFFFFFFFFFFFFFFFFFFFFFFFFFFFFFFFFFFFF AND PUSH20 0xFFFFFFFFFFFFFFFFFFFFFFFFFFFFFFFFFFFFFFFF AND DUP2 MSTORE PUSH1 0x20 ADD SWAP1 DUP2 MSTORE PUSH1 0x20 ADD PUSH0 KECCAK256 PUSH0 SWAP1 SLOAD SWAP1 PUSH2 0x100 EXP SWAP1 DIV PUSH1 0xFF AND PUSH2 0x9E3 JUMPI PUSH1 0x40 MLOAD PUSH32 0x8C379A000000000000000000000000000000000000000000000000000000000 DUP2 MSTORE PUSH1 0x4 ADD PUSH2 0x9DA SWAP1 PUSH2 0x1124 JUMP JUMPDEST PUSH1 0x40 MLOAD DUP1 SWAP2 SUB SWAP1 REVERT JUMPDEST DUP2 PUSH0 DUP1 DUP3 PUSH20 0xFFFFFFFFFFFFFFFFFFFFFFFFFFFFFFFFFFFFFFFF AND PUSH20 0xFFFFFFFFFFFFFFFFFFFFFFFFFFFFFFFFFFFFFFFF AND DUP2 MSTORE PUSH1 0x20 ADD SWAP1 DUP2 MSTORE PUSH1 0x20 ADD PUSH0 KECCAK256 PUSH0 ADD PUSH1 0x15 SWAP1 SLOAD SWAP1 PUSH2 0x100 EXP SWAP1 DIV PUSH1 0xFF AND ISZERO PUSH2 0xA70 JUMPI PUSH1 0x40 MLOAD PUSH32 0x8C379A000000000000000000000000000000000000000000000000000000000 DUP2 MSTORE PUSH1 0x4 ADD PUSH2 0xA67 SWAP1 PUSH2 0x1506 JUMP JUMPDEST PUSH1 0x40 MLOAD DUP1 SWAP2 SUB SWAP1 REVERT JUMPDEST PUSH1 0x2 PUSH0 SWAP1 SLOAD SWAP1 PUSH2 0x100 EXP SWAP1 DIV PUSH1 0xFF AND ISZERO PUSH2 0xABF JUMPI PUSH1 0x40 MLOAD PUSH32 0x8C379A000000000000000000000000000000000000000000000000000000000 DUP2 MSTORE PUSH1 0x4 ADD PUSH2 0xAB6 SWAP1 PUSH2 0x11B2 JUMP JUMPDEST PUSH1 0x40 MLOAD DUP1 SWAP2 SUB SWAP1 REVERT JUMPDEST PUSH0 PUSH1 0x5 DUP2 GT ISZERO PUSH2 0xAD2 JUMPI PUSH2 0xAD1 PUSH2 0xFB7 JUMP JUMPDEST JUMPDEST DUP3 PUSH1 0x5 DUP2 GT ISZERO PUSH2 0xAE5 JUMPI PUSH2 0xAE4 PUSH2 0xFB7 JUMP JUMPDEST JUMPDEST SUB PUSH2 0xB25 JUMPI PUSH1 0x40 MLOAD PUSH32 0x8C379A000000000000000000000000000000000000000000000000000000000 DUP2 MSTORE PUSH1 0x4 ADD PUSH2 0xB1C SWAP1 PUSH2 0x1594 JUMP JUMPDEST PUSH1 0x40 MLOAD DUP1 SWAP2 SUB SWAP1 REVERT JUMPDEST PUSH1 0x40 MLOAD DUP1 PUSH1 0x60 ADD PUSH1 0x40 MSTORE DUP1 DUP5 PUSH20 0xFFFFFFFFFFFFFFFFFFFFFFFFFFFFFFFFFFFFFFFF AND DUP2 MSTORE PUSH1 0x20 ADD DUP4 PUSH1 0x5 DUP2 GT ISZERO PUSH2 0xB5F JUMPI PUSH2 0xB5E PUSH2 0xFB7 JUMP JUMPDEST JUMPDEST DUP2 MSTORE PUSH1 0x20 ADD PUSH1 0x1 ISZERO ISZERO DUP2 MSTORE POP PUSH0 DUP1 DUP6 PUSH20 0xFFFFFFFFFFFFFFFFFFFFFFFFFFFFFFFFFFFFFFFF AND PUSH20 0xFFFFFFFFFFFFFFFFFFFFFFFFFFFFFFFFFFFFFFFF AND DUP2 MSTORE PUSH1 0x20 ADD SWAP1 DUP2 MSTORE PUSH1 0x20 ADD PUSH0 KECCAK256 PUSH0 DUP3 ADD MLOAD DUP2 PUSH0 ADD PUSH0 PUSH2 0x100 EXP DUP2 SLOAD DUP2 PUSH20 0xFFFFFFFFFFFFFFFFFFFFFFFFFFFFFFFFFFFFFFFF MUL NOT AND SWAP1 DUP4 PUSH20 0xFFFFFFFFFFFFFFFFFFFFFFFFFFFFFFFFFFFFFFFF AND MUL OR SWAP1 SSTORE POP PUSH1 0x20 DUP3 ADD MLOAD DUP2 PUSH0 ADD PUSH1 0x14 PUSH2 0x100 EXP DUP2 SLOAD DUP2 PUSH1 0xFF MUL NOT AND SWAP1 DUP4 PUSH1 0x5 DUP2 GT ISZERO PUSH2 0xC15 JUMPI PUSH2 0xC14 PUSH2 0xFB7 JUMP JUMPDEST JUMPDEST MUL OR SWAP1 SSTORE POP PUSH1 0x40 DUP3 ADD MLOAD DUP2 PUSH0 ADD PUSH1 0x15 PUSH2 0x100 EXP DUP2 SLOAD DUP2 PUSH1 0xFF MUL NOT AND SWAP1 DUP4 ISZERO ISZERO MUL OR SWAP1 SSTORE POP SWAP1 POP POP DUP3 PUSH20 0xFFFFFFFFFFFFFFFFFFFFFFFFFFFFFFFFFFFFFFFF AND PUSH32 0x806D89D78EE0F826F9FA2E75E6E53E4A91EE0F70688D2152FD4D107423F3DA63 DUP4 PUSH1 0x40 MLOAD PUSH2 0xC82 SWAP2 SWAP1 PUSH2 0x102A JUMP JUMPDEST PUSH1 0x40 MLOAD DUP1 SWAP2 SUB SWAP1 LOG2 POP POP POP JUMP JUMPDEST PUSH1 0x1 PUSH0 CALLER PUSH20 0xFFFFFFFFFFFFFFFFFFFFFFFFFFFFFFFFFFFFFFFF AND PUSH20 0xFFFFFFFFFFFFFFFFFFFFFFFFFFFFFFFFFFFFFFFF AND DUP2 MSTORE PUSH1 0x20 ADD SWAP1 DUP2 MSTORE PUSH1 0x20 ADD PUSH0 KECCAK256 PUSH0 SWAP1 SLOAD SWAP1 PUSH2 0x100 EXP SWAP1 DIV PUSH1 0xFF AND PUSH2 0xD18 JUMPI PUSH1 0x40 MLOAD PUSH32 0x8C379A000000000000000000000000000000000000000000000000000000000 DUP2 MSTORE PUSH1 0x4 ADD PUSH2 0xD0F SWAP1 PUSH2 0x1124 JUMP JUMPDEST PUSH1 0x40 MLOAD DUP1 SWAP2 SUB SWAP1 REVERT JUMPDEST PUSH0 PUSH1 0x2 PUSH0 PUSH2 0x100 EXP DUP2 SLOAD DUP2 PUSH1 0xFF MUL NOT AND SWAP1 DUP4 ISZERO ISZERO MUL OR SWAP1 SSTORE POP JUMP JUMPDEST PUSH1 0x1 PUSH0 CALLER PUSH20 0xFFFFFFFFFFFFFFFFFFFFFFFFFFFFFFFFFFFFFFFF AND PUSH20 0xFFFFFFFFFFFFFFFFFFFFFFFFFFFFFFFFFFFFFFFF AND DUP2 MSTORE PUSH1 0x20 ADD SWAP1 DUP2 MSTORE PUSH1 0x20 ADD PUSH0 KECCAK256 PUSH0 SWAP1 SLOAD SWAP1 PUSH2 0x100 EXP SWAP1 DIV PUSH1 0xFF AND PUSH2 0xDBC JUMPI PUSH1 0x40 MLOAD PUSH32 0x8C379A000000000000000000000000000000000000000000000000000000000 DUP2 MSTORE PUSH1 0x4 ADD PUSH2 0xDB3 SWAP1 PUSH2 0x1124 JUMP JUMPDEST PUSH1 0x40 MLOAD DUP1 SWAP2 SUB SWAP1 REVERT JUMPDEST PUSH1 0x2 PUSH0 SWAP1 SLOAD SWAP1 PUSH2 0x100 EXP SWAP1 DIV PUSH1 0xFF AND ISZERO PUSH2 0xE0B JUMPI PUSH1 0x40 MLOAD PUSH32 0x8C379A000000000000000000000000000000000000000000000000000000000 DUP2 MSTORE PUSH1 0x4 ADD PUSH2 0xE02 SWAP1 PUSH2 0x11B2 JUMP JUMPDEST PUSH1 0x40 MLOAD DUP1 SWAP2 SUB SWAP1 REVERT JUMPDEST PUSH1 0x1 PUSH0 DUP3 PUSH20 0xFFFFFFFFFFFFFFFFFFFFFFFFFFFFFFFFFFFFFFFF AND PUSH20 0xFFFFFFFFFFFFFFFFFFFFFFFFFFFFFFFFFFFFFFFF AND DUP2 MSTORE PUSH1 0x20 ADD SWAP1 DUP2 MSTORE PUSH1 0x20 ADD PUSH0 KECCAK256 PUSH0 SWAP1 SLOAD SWAP1 PUSH2 0x100 EXP SWAP1 DIV PUSH1 0xFF AND PUSH2 0xE94 JUMPI PUSH1 0x40 MLOAD PUSH32 0x8C379A000000000000000000000000000000000000000000000000000000000 DUP2 MSTORE PUSH1 0x4 ADD PUSH2 0xE8B SWAP1 PUSH2 0x1622 JUMP JUMPDEST PUSH1 0x40 MLOAD DUP1 SWAP2 SUB SWAP1 REVERT JUMPDEST PUSH0 PUSH1 0x1 PUSH0 DUP4 PUSH20 0xFFFFFFFFFFFFFFFFFFFFFFFFFFFFFFFFFFFFFFFF AND PUSH20 0xFFFFFFFFFFFFFFFFFFFFFFFFFFFFFFFFFFFFFFFF AND DUP2 MSTORE PUSH1 0x20 ADD SWAP1 DUP2 MSTORE PUSH1 0x20 ADD PUSH0 KECCAK256 PUSH0 PUSH2 0x100 EXP DUP2 SLOAD DUP2 PUSH1 0xFF MUL NOT AND SWAP1 DUP4 ISZERO ISZERO MUL OR SWAP1 SSTORE POP DUP1 PUSH20 0xFFFFFFFFFFFFFFFFFFFFFFFFFFFFFFFFFFFFFFFF AND PUSH32 0x81CB97A294B3FF5F91EF4048B3173C7F8F6943D9750ADD2071199061165E5F57 PUSH1 0x40 MLOAD PUSH1 0x40 MLOAD DUP1 SWAP2 SUB SWAP1 LOG2 POP JUMP JUMPDEST PUSH0 DUP1 REVERT JUMPDEST PUSH0 PUSH20 0xFFFFFFFFFFFFFFFFFFFFFFFFFFFFFFFFFFFFFFFF DUP3 AND SWAP1 POP SWAP2 SWAP1 POP JUMP JUMPDEST PUSH0 PUSH2 0xF5B DUP3 PUSH2 0xF32 JUMP JUMPDEST SWAP1 POP SWAP2 SWAP1 POP JUMP JUMPDEST PUSH2 0xF6B DUP2 PUSH2 0xF51 JUMP JUMPDEST DUP2 EQ PUSH2 0xF75 JUMPI PUSH0 DUP1 REVERT JUMPDEST POP JUMP JUMPDEST PUSH0 DUP2 CALLDATALOAD SWAP1 POP PUSH2 0xF86 DUP2 PUSH2 0xF62 JUMP JUMPDEST SWAP3 SWAP2 POP POP JUMP JUMPDEST PUSH0 PUSH1 0x20 DUP3 DUP5 SUB SLT ISZERO PUSH2 0xFA1 JUMPI PUSH2 0xFA0 PUSH2 0xF2E JUMP JUMPDEST JUMPDEST PUSH0 PUSH2 0xFAE DUP5 DUP3 DUP6 ADD PUSH2 0xF78 JUMP JUMPDEST SWAP2 POP POP SWAP3 SWAP2 POP POP JUMP JUMPDEST PUSH32 0x4E487B7100000000000000000000000000000000000000000000000000000000 PUSH0 MSTORE PUSH1 0x21 PUSH1 0x4 MSTORE PUSH1 0x24 PUSH0 REVERT JUMPDEST PUSH1 0x6 DUP2 LT PUSH2 0xFF5 JUMPI PUSH2 0xFF4 PUSH2 0xFB7 JUMP JUMPDEST JUMPDEST POP JUMP JUMPDEST PUSH0 DUP2 SWAP1 POP PUSH2 0x1005 DUP3 PUSH2 0xFE4 JUMP JUMPDEST SWAP2 SWAP1 POP JUMP JUMPDEST PUSH0 PUSH2 0x1014 DUP3 PUSH2 0xFF8 JUMP JUMPDEST SWAP1 POP SWAP2 SWAP1 POP JUMP JUMPDEST PUSH2 0x1024 DUP2 PUSH2 0x100A JUMP JUMPDEST DUP3 MSTORE POP POP JUMP JUMPDEST PUSH0 PUSH1 0x20 DUP3 ADD SWAP1 POP PUSH2 0x103D PUSH0 DUP4 ADD DUP5 PUSH2 0x101B JUMP JUMPDEST SWAP3 SWAP2 POP POP JUMP JUMPDEST PUSH1 0x6 DUP2 LT PUSH2 0x104F JUMPI PUSH0 DUP1 REVERT JUMPDEST POP JUMP JUMPDEST PUSH0 DUP2 CALLDATALOAD SWAP1 POP PUSH2 0x1060 DUP2 PUSH2 0x1043 JUMP JUMPDEST SWAP3 SWAP2 POP POP JUMP JUMPDEST PUSH0 DUP1 PUSH1 0x40 DUP4 DUP6 SUB SLT ISZERO PUSH2 0x107C JUMPI PUSH2 0x107B PUSH2 0xF2E JUMP JUMPDEST JUMPDEST PUSH0 PUSH2 0x1089 DUP6 DUP3 DUP7 ADD PUSH2 0xF78 JUMP JUMPDEST SWAP3 POP POP PUSH1 0x20 PUSH2 0x109A DUP6 DUP3 DUP7 ADD PUSH2 0x1052 JUMP JUMPDEST SWAP2 POP POP SWAP3 POP SWAP3 SWAP1 POP JUMP JUMPDEST PUSH0 DUP3 DUP3 MSTORE PUSH1 0x20 DUP3 ADD SWAP1 POP SWAP3 SWAP2 POP POP JUMP JUMPDEST PUSH32 0x4163636573732044656E6965643A204E6F7420616E20617574686F72697A6564 PUSH0 DUP3 ADD MSTORE PUSH32 0x2072656769737472617200000000000000000000000000000000000000000000 PUSH1 0x20 DUP3 ADD MSTORE POP JUMP JUMPDEST PUSH0 PUSH2 0x110E PUSH1 0x2A DUP4 PUSH2 0x10A4 JUMP JUMPDEST SWAP2 POP PUSH2 0x1119 DUP3 PUSH2 0x10B4 JUMP JUMPDEST PUSH1 0x40 DUP3 ADD SWAP1 POP SWAP2 SWAP1 POP JUMP JUMPDEST PUSH0 PUSH1 0x20 DUP3 ADD SWAP1 POP DUP2 DUP2 SUB PUSH0 DUP4 ADD MSTORE PUSH2 0x113B DUP2 PUSH2 0x1102 JUMP JUMPDEST SWAP1 POP SWAP2 SWAP1 POP JUMP JUMPDEST PUSH32 0x4F7065726174696F6E204572726F723A20436F6E747261637420697320706175 PUSH0 DUP3 ADD MSTORE PUSH32 0x7365640000000000000000000000000000000000000000000000000000000000 PUSH1 0x20 DUP3 ADD MSTORE POP JUMP JUMPDEST PUSH0 PUSH2 0x119C PUSH1 0x23 DUP4 PUSH2 0x10A4 JUMP JUMPDEST SWAP2 POP PUSH2 0x11A7 DUP3 PUSH2 0x1142 JUMP JUMPDEST PUSH1 0x40 DUP3 ADD SWAP1 POP SWAP2 SWAP1 POP JUMP JUMPDEST PUSH0 PUSH1 0x20 DUP3 ADD SWAP1 POP DUP2 DUP2 SUB PUSH0 DUP4 ADD MSTORE PUSH2 0x11C9 DUP2 PUSH2 0x1190 JUMP JUMPDEST SWAP1 POP SWAP2 SWAP1 POP JUMP JUMPDEST PUSH32 0x417070726F76616C204572726F723A2052656769737472617220616C72656164 PUSH0 DUP3 ADD MSTORE PUSH32 0x7920617070726F76656400000000000000000000000000000000000000000000 PUSH1 0x20 DUP3 ADD MSTORE POP JUMP JUMPDEST PUSH0 PUSH2 0x122A PUSH1 0x2A DUP4 PUSH2 0x10A4 JUMP JUMPDEST SWAP2 POP PUSH2 0x1235 DUP3 PUSH2 0x11D0 JUMP JUMPDEST PUSH1 0x40 DUP3 ADD SWAP1 POP SWAP2 SWAP1 POP JUMP JUMPDEST PUSH0 PUSH1 0x20 DUP3 ADD SWAP1 POP DUP2 DUP2 SUB PUSH0 DUP4 ADD MSTORE PUSH2 0x1257 DUP2 PUSH2 0x121E JUMP JUMPDEST SWAP1 POP SWAP2 SWAP1 POP JUMP JUMPDEST PUSH32 0x52656D6F76616C204572726F723A205061727469636970616E74206E6F742072 PUSH0 DUP3 ADD MSTORE PUSH32 0x6567697374657265640000000000000000000000000000000000000000000000 PUSH1 0x20 DUP3 ADD MSTORE POP JUMP JUMPDEST PUSH0 PUSH2 0x12B8 PUSH1 0x29 DUP4 PUSH2 0x10A4 JUMP JUMPDEST SWAP2 POP PUSH2 0x12C3 DUP3 PUSH2 0x125E JUMP JUMPDEST PUSH1 0x40 DUP3 ADD SWAP1 POP SWAP2 SWAP1 POP JUMP JUMPDEST PUSH0 PUSH1 0x20 DUP3 ADD SWAP1 POP DUP2 DUP2 SUB PUSH0 DUP4 ADD MSTORE PUSH2 0x12E5 DUP2 PUSH2 0x12AC JUMP JUMPDEST SWAP1 POP SWAP2 SWAP1 POP JUMP JUMPDEST PUSH32 0x5175657279204572726F723A205061727469636970616E74206E6F7420726567 PUSH0 DUP3 ADD MSTORE PUSH32 0x6973746572656400000000000000000000000000000000000000000000000000 PUSH1 0x20 DUP3 ADD MSTORE POP JUMP JUMPDEST PUSH0 PUSH2 0x1346 PUSH1 0x27 DUP4 PUSH2 0x10A4 JUMP JUMPDEST SWAP2 POP PUSH2 0x1351 DUP3 PUSH2 0x12EC JUMP JUMPDEST PUSH1 0x40 DUP3 ADD SWAP1 POP SWAP2 SWAP1 POP JUMP JUMPDEST PUSH0 PUSH1 0x20 DUP3 ADD SWAP1 POP DUP2 DUP2 SUB PUSH0 DUP4 ADD MSTORE PUSH2 0x1373 DUP2 PUSH2 0x133A JUMP JUMPDEST SWAP1 POP SWAP2 SWAP1 POP JUMP JUMPDEST PUSH32 0x557064617465204572726F723A205061727469636970616E74206E6F74207265 PUSH0 DUP3 ADD MSTORE PUSH32 0x6769737465726564000000000000000000000000000000000000000000000000 PUSH1 0x20 DUP3 ADD MSTORE POP JUMP JUMPDEST PUSH0 PUSH2 0x13D4 PUSH1 0x28 DUP4 PUSH2 0x10A4 JUMP JUMPDEST SWAP2 POP PUSH2 0x13DF DUP3 PUSH2 0x137A JUMP JUMPDEST PUSH1 0x40 DUP3 ADD SWAP1 POP SWAP2 SWAP1 POP JUMP JUMPDEST PUSH0 PUSH1 0x20 DUP3 ADD SWAP1 POP DUP2 DUP2 SUB PUSH0 DUP4 ADD MSTORE PUSH2 0x1401 DUP2 PUSH2 0x13C8 JUMP JUMPDEST SWAP1 POP SWAP2 SWAP1 POP JUMP JUMPDEST PUSH32 0x557064617465204572726F723A20496E76616C696420726F6C65207370656369 PUSH0 DUP3 ADD MSTORE PUSH32 0x6669656400000000000000000000000000000000000000000000000000000000 PUSH1 0x20 DUP3 ADD MSTORE POP JUMP JUMPDEST PUSH0 PUSH2 0x1462 PUSH1 0x24 DUP4 PUSH2 0x10A4 JUMP JUMPDEST SWAP2 POP PUSH2 0x146D DUP3 PUSH2 0x1408 JUMP JUMPDEST PUSH1 0x40 DUP3 ADD SWAP1 POP SWAP2 SWAP1 POP JUMP JUMPDEST PUSH0 PUSH1 0x20 DUP3 ADD SWAP1 POP DUP2 DUP2 SUB PUSH0 DUP4 ADD MSTORE PUSH2 0x148F DUP2 PUSH2 0x1456 JUMP JUMPDEST SWAP1 POP SWAP2 SWAP1 POP JUMP JUMPDEST PUSH32 0x526567697374726174696F6E204572726F723A20416464726573732069732061 PUSH0 DUP3 ADD MSTORE PUSH32 0x6C72656164792072656769737465726564000000000000000000000000000000 PUSH1 0x20 DUP3 ADD MSTORE POP JUMP JUMPDEST PUSH0 PUSH2 0x14F0 PUSH1 0x31 DUP4 PUSH2 0x10A4 JUMP JUMPDEST SWAP2 POP PUSH2 0x14FB DUP3 PUSH2 0x1496 JUMP JUMPDEST PUSH1 0x40 DUP3 ADD SWAP1 POP SWAP2 SWAP1 POP JUMP JUMPDEST PUSH0 PUSH1 0x20 DUP3 ADD SWAP1 POP DUP2 DUP2 SUB PUSH0 DUP4 ADD MSTORE PUSH2 0x151D DUP2 PUSH2 0x14E4 JUMP JUMPDEST SWAP1 POP SWAP2 SWAP1 POP JUMP JUMPDEST PUSH32 0x526567697374726174696F6E204572726F723A20496E76616C696420726F6C65 PUSH0 DUP3 ADD MSTORE PUSH32 0x2073706563696669656400000000000000000000000000000000000000000000 PUSH1 0x20 DUP3 ADD MSTORE POP JUMP JUMPDEST PUSH0 PUSH2 0x157E PUSH1 0x2A DUP4 PUSH2 0x10A4 JUMP JUMPDEST SWAP2 POP PUSH2 0x1589 DUP3 PUSH2 0x1524 JUMP JUMPDEST PUSH1 0x40 DUP3 ADD SWAP1 POP SWAP2 SWAP1 POP JUMP JUMPDEST PUSH0 PUSH1 0x20 DUP3 ADD SWAP1 POP DUP2 DUP2 SUB PUSH0 DUP4 ADD MSTORE PUSH2 0x15AB DUP2 PUSH2 0x1572 JUMP JUMPDEST SWAP1 POP SWAP2 SWAP1 POP JUMP JUMPDEST PUSH32 0x52656D6F76616C204572726F723A20526567697374726172206E6F7420666F75 PUSH0 DUP3 ADD MSTORE PUSH32 0x6E64000000000000000000000000000000000000000000000000000000000000 PUSH1 0x20 DUP3 ADD MSTORE POP JUMP JUMPDEST PUSH0 PUSH2 0x160C PUSH1 0x22 DUP4 PUSH2 0x10A4 JUMP JUMPDEST SWAP2 POP PUSH2 0x1617 DUP3 PUSH2 0x15B2 JUMP JUMPDEST PUSH1 0x40 DUP3 ADD SWAP1 POP SWAP2 SWAP1 POP JUMP JUMPDEST PUSH0 PUSH1 0x20 DUP3 ADD SWAP1 POP DUP2 DUP2 SUB PUSH0 DUP4 ADD MSTORE PUSH2 0x1639 DUP2 PUSH2 0x1600 JUMP JUMPDEST SWAP1 POP SWAP2 SWAP1 POP JUMP INVALID LOG2 PUSH5 0x6970667358 0x22 SLT KECCAK256 0x2C 0xCF 0xDA PUSH5 0x6F43E17EAC SWAP9 CALLDATACOPY PUSH13 0xDE3DC2938CD562A1CD5103F1AD JUMPDEST 0x4E 0xC3 PREVRANDAO 0x26 0xAC ADDRESS PUSH5 0x736F6C6343 STOP ADDMOD BYTE STOP CALLER "
				},
				"gasEstimates": {
					"creation": {
						"codeDepositCost": "1150000",
						"executionCost": "26705",
						"totalCost": "1176705"
					},
					"external": {
						"approveRegistrar(address)": "32624",
						"getParticipant(address)": "5377",
						"pauseContract()": "26649",
						"registerParticipant(address,uint8)": "82209",
						"removeParticipant(address)": "32754",
						"removeRegistrar(address)": "32663",
						"unpauseContract()": "26691",
						"updateRole(address,uint8)": "33438"
					}
				},
				"methodIdentifiers": {
					"approveRegistrar(address)": "4b394d4a",
					"getParticipant(address)": "7143059f",
					"pauseContract()": "439766ce",
					"registerParticipant(address,uint8)": "a8b12f5c",
					"removeParticipant(address)": "668a2001",
					"removeRegistrar(address)": "ba904eed",
					"unpauseContract()": "b33712c5",
					"updateRole(address,uint8)": "8e96d94e"
				}
			},
			"storageLayout": {
				"storage": [
					{
						"astId": 22,
						"contract": "contracts/ParticipantRegistry.sol:ParticipantRegistry",
						"label": "participants",
						"offset": 0,
						"slot": "0",
						"type": "t_mapping(t_address,t_struct(Participant)17_storage)"
					},
					{
						"astId": 26,
						"contract": "contracts/ParticipantRegistry.sol:ParticipantRegistry",
						"label": "approvedRegistrars",
						"offset": 0,
						"slot": "1",
						"type": "t_mapping(t_address,t_bool)"
					},
					{
						"astId": 54,
						"contract": "contracts/ParticipantRegistry.sol:ParticipantRegistry",
						"label": "paused",
						"offset": 0,
						"slot": "2",
						"type": "t_bool"
					}
				],
				"types": {
					"t_address": {
						"encoding": "inplace",
						"label": "address",
						"numberOfBytes": "20"
					},
					"t_bool": {
						"encoding": "inplace",
						"label": "bool",
						"numberOfBytes": "1"
					},
					"t_enum(Role)9": {
						"encoding": "inplace",
						"label": "enum ParticipantRegistry.Role",
						"numberOfBytes": "1"
					},
					"t_mapping(t_address,t_bool)": {
						"encoding": "mapping",
						"key": "t_address",
						"label": "mapping(address => bool)",
						"numberOfBytes": "32",
						"value": "t_bool"
					},
					"t_mapping(t_address,t_struct(Participant)17_storage)": {
						"encoding": "mapping",
						"key": "t_address",
						"label": "mapping(address => struct ParticipantRegistry.Participant)",
						"numberOfBytes": "32",
						"value": "t_struct(Participant)17_storage"
					},
					"t_struct(Participant)17_storage": {
						"encoding": "inplace",
						"label": "struct ParticipantRegistry.Participant",
						"members": [
							{
								"astId": 11,
								"contract": "contracts/ParticipantRegistry.sol:ParticipantRegistry",
								"label": "participantAddress",
								"offset": 0,
								"slot": "0",
								"type": "t_address"
							},
							{
								"astId": 14,
								"contract": "contracts/ParticipantRegistry.sol:ParticipantRegistry",
								"label": "role",
								"offset": 20,
								"slot": "0",
								"type": "t_enum(Role)9"
							},
							{
								"astId": 16,
								"contract": "contracts/ParticipantRegistry.sol:ParticipantRegistry",
								"label": "isRegistered",
								"offset": 21,
								"slot": "0",
								"type": "t_bool"
							}
						],
						"numberOfBytes": "32"
					}
				}
			},
			"userdoc": {
				"kind": "user",
				"methods": {
					"approveRegistrar(address)": {
						"notice": "Approve a new registrar for participant registration"
					},
					"getParticipant(address)": {
						"notice": "Get the role of a registered participant"
					},
					"pauseContract()": {
						"notice": "Pause the contract to prevent certain operations"
					},
					"registerParticipant(address,uint8)": {
						"notice": "Register a new participant with a specified role"
					},
					"removeParticipant(address)": {
						"notice": "Remove an existing participant from the registry"
					},
					"removeRegistrar(address)": {
						"notice": "Remove an existing registrar"
					},
					"unpauseContract()": {
						"notice": "Unpause the contract to resume operations"
					},
					"updateRole(address,uint8)": {
						"notice": "Update the role of an existing participant"
					}
				},
				"notice": "This contract manages the registration and role assignment of participants in a supply chain.",
				"version": 1
			}
		}
	}
}