{
	"contracts/InventoryManagement.sol": {
		"InventoryManagement": {
			"abi": [
				{
					"inputs": [],
					"stateMutability": "nonpayable",
					"type": "constructor"
				},
				{
					"anonymous": false,
					"inputs": [
						{
							"indexed": true,
							"internalType": "uint256",
							"name": "productId",
							"type": "uint256"
						},
						{
							"indexed": true,
							"internalType": "address",
							"name": "owner",
							"type": "address"
						},
						{
							"indexed": false,
							"internalType": "uint256",
							"name": "stock",
							"type": "uint256"
						}
					],
					"name": "InventoryRegistered",
					"type": "event"
				},
				{
					"anonymous": false,
					"inputs": [
						{
							"indexed": true,
							"internalType": "uint256",
							"name": "productId",
							"type": "uint256"
						},
						{
							"indexed": true,
							"internalType": "address",
							"name": "owner",
							"type": "address"
						},
						{
							"indexed": false,
							"internalType": "uint256",
							"name": "newStock",
							"type": "uint256"
						}
					],
					"name": "InventoryUpdated",
					"type": "event"
				},
				{
					"anonymous": false,
					"inputs": [
						{
							"indexed": true,
							"internalType": "address",
							"name": "manager",
							"type": "address"
						}
					],
					"name": "ManagerApproved",
					"type": "event"
				},
				{
					"anonymous": false,
					"inputs": [
						{
							"indexed": true,
							"internalType": "address",
							"name": "manager",
							"type": "address"
						}
					],
					"name": "ManagerRemoved",
					"type": "event"
				},
				{
					"inputs": [
						{
							"internalType": "address",
							"name": "_manager",
							"type": "address"
						}
					],
					"name": "approveManager",
					"outputs": [],
					"stateMutability": "nonpayable",
					"type": "function"
				},
				{
					"inputs": [
						{
							"internalType": "uint256",
							"name": "_productId",
							"type": "uint256"
						}
					],
					"name": "getInventory",
					"outputs": [
						{
							"internalType": "uint256",
							"name": "productId",
							"type": "uint256"
						},
						{
							"internalType": "uint256",
							"name": "stock",
							"type": "uint256"
						},
						{
							"internalType": "address",
							"name": "owner",
							"type": "address"
						},
						{
							"internalType": "bool",
							"name": "isRegistered",
							"type": "bool"
						}
					],
					"stateMutability": "view",
					"type": "function"
				},
				{
					"inputs": [],
					"name": "pauseContract",
					"outputs": [],
					"stateMutability": "nonpayable",
					"type": "function"
				},
				{
					"inputs": [
						{
							"internalType": "uint256",
							"name": "_productId",
							"type": "uint256"
						},
						{
							"internalType": "uint256",
							"name": "_stock",
							"type": "uint256"
						},
						{
							"internalType": "address",
							"name": "_owner",
							"type": "address"
						}
					],
					"name": "registerInventory",
					"outputs": [],
					"stateMutability": "nonpayable",
					"type": "function"
				},
				{
					"inputs": [
						{
							"internalType": "address",
							"name": "_manager",
							"type": "address"
						}
					],
					"name": "removeManager",
					"outputs": [],
					"stateMutability": "nonpayable",
					"type": "function"
				},
				{
					"inputs": [],
					"name": "unpauseContract",
					"outputs": [],
					"stateMutability": "nonpayable",
					"type": "function"
				},
				{
					"inputs": [
						{
							"internalType": "uint256",
							"name": "_productId",
							"type": "uint256"
						},
						{
							"internalType": "uint256",
							"name": "_newStock",
							"type": "uint256"
						}
					],
					"name": "updateInventory",
					"outputs": [],
					"stateMutability": "nonpayable",
					"type": "function"
				}
			],
			"devdoc": {
				"details": "Inventory levels are tracked in real-time and updated as transactions occur, ensuring transparency and traceability.",
				"kind": "dev",
				"methods": {
					"approveManager(address)": {
						"params": {
							"_manager": "The address to be approved as a manager"
						}
					},
					"getInventory(uint256)": {
						"params": {
							"_productId": "The unique ID of the product"
						},
						"returns": {
							"isRegistered": "Indicates if the product is registered in the inventory",
							"owner": "The address of the inventory owner",
							"productId": "The unique ID of the product",
							"stock": "The current stock level of the product"
						}
					},
					"registerInventory(uint256,uint256,address)": {
						"params": {
							"_owner": "The address of the inventory owner",
							"_productId": "The unique ID of the product",
							"_stock": "The initial stock level of the product"
						}
					},
					"removeManager(address)": {
						"params": {
							"_manager": "The address to be removed from approved managers"
						}
					},
					"updateInventory(uint256,uint256)": {
						"params": {
							"_newStock": "The new stock level of the product",
							"_productId": "The unique ID of the product"
						}
					}
				},
				"title": "Inventory Management Contract - Supply Chain Management System",
				"version": 1
			},
			"evm": {
				"assembly": "    /* \"contracts/InventoryManagement.sol\":411:5259  contract InventoryManagement {... */\n  mstore(0x40, 0x80)\n    /* \"contracts/InventoryManagement.sol\":1990:2098  constructor() {... */\n  callvalue\n  dup1\n  iszero\n  tag_1\n  jumpi\n  0x00\n  dup1\n  revert\ntag_1:\n  pop\n    /* \"contracts/InventoryManagement.sol\":2045:2049  true */\n  0x01\n    /* \"contracts/InventoryManagement.sol\":2014:2030  approvedManagers */\n  dup1\n    /* \"contracts/InventoryManagement.sol\":2014:2042  approvedManagers[msg.sender] */\n  0x00\n    /* \"contracts/InventoryManagement.sol\":2031:2041  msg.sender */\n  caller\n    /* \"contracts/InventoryManagement.sol\":2014:2042  approvedManagers[msg.sender] */\n  0xffffffffffffffffffffffffffffffffffffffff\n  and\n  0xffffffffffffffffffffffffffffffffffffffff\n  and\n  dup2\n  mstore\n  0x20\n  add\n  swap1\n  dup2\n  mstore\n  0x20\n  add\n  0x00\n  keccak256\n  0x00\n    /* \"contracts/InventoryManagement.sol\":2014:2049  approvedManagers[msg.sender] = true */\n  0x0100\n  exp\n  dup2\n  sload\n  dup2\n  0xff\n  mul\n  not\n  and\n  swap1\n  dup4\n  iszero\n  iszero\n  mul\n  or\n  swap1\n  sstore\n  pop\n    /* \"contracts/InventoryManagement.sol\":2080:2090  msg.sender */\n  caller\n    /* \"contracts/InventoryManagement.sol\":2064:2091  ManagerApproved(msg.sender) */\n  0xffffffffffffffffffffffffffffffffffffffff\n  and\n  0x450ad6a6ac3c2e8b8a02820cb64d6102a1f91ebe1fa3848a0cfc45c870c043af\n  mload(0x40)\n  mload(0x40)\n  dup1\n  swap2\n  sub\n  swap1\n  log2\n    /* \"contracts/InventoryManagement.sol\":411:5259  contract InventoryManagement {... */\n  dataSize(sub_0)\n  dup1\n  dataOffset(sub_0)\n  0x00\n  codecopy\n  0x00\n  return\nstop\n\nsub_0: assembly {\n        /* \"contracts/InventoryManagement.sol\":411:5259  contract InventoryManagement {... */\n      mstore(0x40, 0x80)\n      callvalue\n      dup1\n      iszero\n      tag_1\n      jumpi\n      0x00\n      dup1\n      revert\n    tag_1:\n      pop\n      jumpi(tag_2, lt(calldatasize, 0x04))\n      shr(0xe0, calldataload(0x00))\n      dup1\n      0x5b298d32\n      gt\n      tag_10\n      jumpi\n      dup1\n      0x5b298d32\n      eq\n      tag_6\n      jumpi\n      dup1\n      0xac18de43\n      eq\n      tag_7\n      jumpi\n      dup1\n      0xb33712c5\n      eq\n      tag_8\n      jumpi\n      dup1\n      0xb5eee722\n      eq\n      tag_9\n      jumpi\n      jump(tag_2)\n    tag_10:\n      dup1\n      0x15f3d72b\n      eq\n      tag_3\n      jumpi\n      dup1\n      0x439766ce\n      eq\n      tag_4\n      jumpi\n      dup1\n      0x522547a8\n      eq\n      tag_5\n      jumpi\n    tag_2:\n      0x00\n      dup1\n      revert\n        /* \"contracts/InventoryManagement.sol\":3109:3701  function registerInventory(uint256 _productId, uint256 _stock, address _owner) ... */\n    tag_3:\n      tag_11\n      0x04\n      dup1\n      calldatasize\n      sub\n      dup2\n      add\n      swap1\n      tag_12\n      swap2\n      swap1\n      tag_13\n      jump\t// in\n    tag_12:\n      tag_14\n      jump\t// in\n    tag_11:\n      stop\n        /* \"contracts/InventoryManagement.sol\":5022:5106  function pauseContract() external onlyApprovedManager {... */\n    tag_4:\n      tag_15\n      tag_16\n      jump\t// in\n    tag_15:\n      stop\n        /* \"contracts/InventoryManagement.sol\":3878:4217  function updateInventory(uint256 _productId, uint256 _newStock) ... */\n    tag_5:\n      tag_17\n      0x04\n      dup1\n      calldatasize\n      sub\n      dup2\n      add\n      swap1\n      tag_18\n      swap2\n      swap1\n      tag_19\n      jump\t// in\n    tag_18:\n      tag_20\n      jump\t// in\n    tag_17:\n      stop\n        /* \"contracts/InventoryManagement.sol\":4591:4951  function getInventory(uint256 _productId) ... */\n    tag_6:\n      tag_21\n      0x04\n      dup1\n      calldatasize\n      sub\n      dup2\n      add\n      swap1\n      tag_22\n      swap2\n      swap1\n      tag_23\n      jump\t// in\n    tag_22:\n      tag_24\n      jump\t// in\n    tag_21:\n      mload(0x40)\n      tag_25\n      swap5\n      swap4\n      swap3\n      swap2\n      swap1\n      tag_26\n      jump\t// in\n    tag_25:\n      mload(0x40)\n      dup1\n      swap2\n      sub\n      swap1\n      return\n        /* \"contracts/InventoryManagement.sol\":2613:2868  function removeManager(address _manager) external onlyApprovedManager whenNotPaused {... */\n    tag_7:\n      tag_27\n      0x04\n      dup1\n      calldatasize\n      sub\n      dup2\n      add\n      swap1\n      tag_28\n      swap2\n      swap1\n      tag_29\n      jump\t// in\n    tag_28:\n      tag_30\n      jump\t// in\n    tag_27:\n      stop\n        /* \"contracts/InventoryManagement.sol\":5170:5257  function unpauseContract() external onlyApprovedManager {... */\n    tag_8:\n      tag_31\n      tag_32\n      jump\t// in\n    tag_31:\n      stop\n        /* \"contracts/InventoryManagement.sol\":2216:2481  function approveManager(address _manager) external onlyApprovedManager whenNotPaused {... */\n    tag_9:\n      tag_33\n      0x04\n      dup1\n      calldatasize\n      sub\n      dup2\n      add\n      swap1\n      tag_34\n      swap2\n      swap1\n      tag_29\n      jump\t// in\n    tag_34:\n      tag_35\n      jump\t// in\n    tag_33:\n      stop\n        /* \"contracts/InventoryManagement.sol\":3109:3701  function registerInventory(uint256 _productId, uint256 _stock, address _owner) ... */\n    tag_14:\n        /* \"contracts/InventoryManagement.sol\":1413:1429  approvedManagers */\n      0x01\n        /* \"contracts/InventoryManagement.sol\":1413:1441  approvedManagers[msg.sender] */\n      0x00\n        /* \"contracts/InventoryManagement.sol\":1430:1440  msg.sender */\n      caller\n        /* \"contracts/InventoryManagement.sol\":1413:1441  approvedManagers[msg.sender] */\n      0xffffffffffffffffffffffffffffffffffffffff\n      and\n      0xffffffffffffffffffffffffffffffffffffffff\n      and\n      dup2\n      mstore\n      0x20\n      add\n      swap1\n      dup2\n      mstore\n      0x20\n      add\n      0x00\n      keccak256\n      0x00\n      swap1\n      sload\n      swap1\n      0x0100\n      exp\n      swap1\n      div\n      0xff\n      and\n        /* \"contracts/InventoryManagement.sol\":1405:1486  require(approvedManagers[msg.sender], \"Access Denied: Not an authorized manager\") */\n      tag_37\n      jumpi\n      mload(0x40)\n      0x08c379a000000000000000000000000000000000000000000000000000000000\n      dup2\n      mstore\n      0x04\n      add\n      tag_38\n      swap1\n      tag_39\n      jump\t// in\n    tag_38:\n      mload(0x40)\n      dup1\n      swap2\n      sub\n      swap1\n      revert\n    tag_37:\n        /* \"contracts/InventoryManagement.sol\":1607:1613  paused */\n      0x02\n      0x00\n      swap1\n      sload\n      swap1\n      0x0100\n      exp\n      swap1\n      div\n      0xff\n      and\n        /* \"contracts/InventoryManagement.sol\":1606:1613  !paused */\n      iszero\n        /* \"contracts/InventoryManagement.sol\":1598:1653  require(!paused, \"Operation Error: Contract is paused\") */\n      tag_41\n      jumpi\n      mload(0x40)\n      0x08c379a000000000000000000000000000000000000000000000000000000000\n      dup2\n      mstore\n      0x04\n      add\n      tag_42\n      swap1\n      tag_43\n      jump\t// in\n    tag_42:\n      mload(0x40)\n      dup1\n      swap2\n      sub\n      swap1\n      revert\n    tag_41:\n        /* \"contracts/InventoryManagement.sol\":3264:3275  inventories */\n      0x00\n        /* \"contracts/InventoryManagement.sol\":3264:3287  inventories[_productId] */\n      dup1\n        /* \"contracts/InventoryManagement.sol\":3276:3286  _productId */\n      dup5\n        /* \"contracts/InventoryManagement.sol\":3264:3287  inventories[_productId] */\n      dup2\n      mstore\n      0x20\n      add\n      swap1\n      dup2\n      mstore\n      0x20\n      add\n      0x00\n      keccak256\n        /* \"contracts/InventoryManagement.sol\":3264:3300  inventories[_productId].isRegistered */\n      0x02\n      add\n      0x14\n      swap1\n      sload\n      swap1\n      0x0100\n      exp\n      swap1\n      div\n      0xff\n      and\n        /* \"contracts/InventoryManagement.sol\":3263:3300  !inventories[_productId].isRegistered */\n      iszero\n        /* \"contracts/InventoryManagement.sol\":3255:3361  require(!inventories[_productId].isRegistered, \"Registration Error: Product inventory already registered\") */\n      tag_45\n      jumpi\n      mload(0x40)\n      0x08c379a000000000000000000000000000000000000000000000000000000000\n      dup2\n      mstore\n      0x04\n      add\n      tag_46\n      swap1\n      tag_47\n      jump\t// in\n    tag_46:\n      mload(0x40)\n      dup1\n      swap2\n      sub\n      swap1\n      revert\n    tag_45:\n        /* \"contracts/InventoryManagement.sol\":3397:3398  0 */\n      0x00\n        /* \"contracts/InventoryManagement.sol\":3379:3399  _owner != address(0) */\n      0xffffffffffffffffffffffffffffffffffffffff\n      and\n        /* \"contracts/InventoryManagement.sol\":3379:3385  _owner */\n      dup2\n        /* \"contracts/InventoryManagement.sol\":3379:3399  _owner != address(0) */\n      0xffffffffffffffffffffffffffffffffffffffff\n      and\n      sub\n        /* \"contracts/InventoryManagement.sol\":3371:3445  require(_owner != address(0), \"Registration Error: Invalid owner address\") */\n      tag_48\n      jumpi\n      mload(0x40)\n      0x08c379a000000000000000000000000000000000000000000000000000000000\n      dup2\n      mstore\n      0x04\n      add\n      tag_49\n      swap1\n      tag_50\n      jump\t// in\n    tag_49:\n      mload(0x40)\n      dup1\n      swap2\n      sub\n      swap1\n      revert\n    tag_48:\n        /* \"contracts/InventoryManagement.sol\":3482:3631  ProductInventory({... */\n      mload(0x40)\n      dup1\n      0x80\n      add\n      0x40\n      mstore\n      dup1\n        /* \"contracts/InventoryManagement.sol\":3524:3534  _productId */\n      dup5\n        /* \"contracts/InventoryManagement.sol\":3482:3631  ProductInventory({... */\n      dup2\n      mstore\n      0x20\n      add\n        /* \"contracts/InventoryManagement.sol\":3555:3561  _stock */\n      dup4\n        /* \"contracts/InventoryManagement.sol\":3482:3631  ProductInventory({... */\n      dup2\n      mstore\n      0x20\n      add\n        /* \"contracts/InventoryManagement.sol\":3582:3588  _owner */\n      dup3\n        /* \"contracts/InventoryManagement.sol\":3482:3631  ProductInventory({... */\n      0xffffffffffffffffffffffffffffffffffffffff\n      and\n      dup2\n      mstore\n      0x20\n      add\n        /* \"contracts/InventoryManagement.sol\":3616:3620  true */\n      0x01\n        /* \"contracts/InventoryManagement.sol\":3482:3631  ProductInventory({... */\n      iszero\n      iszero\n      dup2\n      mstore\n      pop\n        /* \"contracts/InventoryManagement.sol\":3456:3467  inventories */\n      0x00\n        /* \"contracts/InventoryManagement.sol\":3456:3479  inventories[_productId] */\n      dup1\n        /* \"contracts/InventoryManagement.sol\":3468:3478  _productId */\n      dup6\n        /* \"contracts/InventoryManagement.sol\":3456:3479  inventories[_productId] */\n      dup2\n      mstore\n      0x20\n      add\n      swap1\n      dup2\n      mstore\n      0x20\n      add\n      0x00\n      keccak256\n        /* \"contracts/InventoryManagement.sol\":3456:3631  inventories[_productId] = ProductInventory({... */\n      0x00\n      dup3\n      add\n      mload\n      dup2\n      0x00\n      add\n      sstore\n      0x20\n      dup3\n      add\n      mload\n      dup2\n      0x01\n      add\n      sstore\n      0x40\n      dup3\n      add\n      mload\n      dup2\n      0x02\n      add\n      exp(0x0100, 0x00)\n      dup2\n      sload\n      dup2\n      0xffffffffffffffffffffffffffffffffffffffff\n      mul\n      not\n      and\n      swap1\n      dup4\n      0xffffffffffffffffffffffffffffffffffffffff\n      and\n      mul\n      or\n      swap1\n      sstore\n      pop\n      0x60\n      dup3\n      add\n      mload\n      dup2\n      0x02\n      add\n      exp(0x0100, 0x14)\n      dup2\n      sload\n      dup2\n      0xff\n      mul\n      not\n      and\n      swap1\n      dup4\n      iszero\n      iszero\n      mul\n      or\n      swap1\n      sstore\n      pop\n      swap1\n      pop\n      pop\n        /* \"contracts/InventoryManagement.sol\":3679:3685  _owner */\n      dup1\n        /* \"contracts/InventoryManagement.sol\":3647:3694  InventoryRegistered(_productId, _owner, _stock) */\n      0xffffffffffffffffffffffffffffffffffffffff\n      and\n        /* \"contracts/InventoryManagement.sol\":3667:3677  _productId */\n      dup4\n        /* \"contracts/InventoryManagement.sol\":3647:3694  InventoryRegistered(_productId, _owner, _stock) */\n      0xbd435e244288d5af455bcc628eb4f794e234450b79a0dc9db86169eedbd5fe0f\n        /* \"contracts/InventoryManagement.sol\":3687:3693  _stock */\n      dup5\n        /* \"contracts/InventoryManagement.sol\":3647:3694  InventoryRegistered(_productId, _owner, _stock) */\n      mload(0x40)\n      tag_51\n      swap2\n      swap1\n      tag_52\n      jump\t// in\n    tag_51:\n      mload(0x40)\n      dup1\n      swap2\n      sub\n      swap1\n      log3\n        /* \"contracts/InventoryManagement.sol\":3109:3701  function registerInventory(uint256 _productId, uint256 _stock, address _owner) ... */\n      pop\n      pop\n      pop\n      jump\t// out\n        /* \"contracts/InventoryManagement.sol\":5022:5106  function pauseContract() external onlyApprovedManager {... */\n    tag_16:\n        /* \"contracts/InventoryManagement.sol\":1413:1429  approvedManagers */\n      0x01\n        /* \"contracts/InventoryManagement.sol\":1413:1441  approvedManagers[msg.sender] */\n      0x00\n        /* \"contracts/InventoryManagement.sol\":1430:1440  msg.sender */\n      caller\n        /* \"contracts/InventoryManagement.sol\":1413:1441  approvedManagers[msg.sender] */\n      0xffffffffffffffffffffffffffffffffffffffff\n      and\n      0xffffffffffffffffffffffffffffffffffffffff\n      and\n      dup2\n      mstore\n      0x20\n      add\n      swap1\n      dup2\n      mstore\n      0x20\n      add\n      0x00\n      keccak256\n      0x00\n      swap1\n      sload\n      swap1\n      0x0100\n      exp\n      swap1\n      div\n      0xff\n      and\n        /* \"contracts/InventoryManagement.sol\":1405:1486  require(approvedManagers[msg.sender], \"Access Denied: Not an authorized manager\") */\n      tag_54\n      jumpi\n      mload(0x40)\n      0x08c379a000000000000000000000000000000000000000000000000000000000\n      dup2\n      mstore\n      0x04\n      add\n      tag_55\n      swap1\n      tag_39\n      jump\t// in\n    tag_55:\n      mload(0x40)\n      dup1\n      swap2\n      sub\n      swap1\n      revert\n    tag_54:\n        /* \"contracts/InventoryManagement.sol\":5095:5099  true */\n      0x01\n        /* \"contracts/InventoryManagement.sol\":5086:5092  paused */\n      0x02\n      0x00\n        /* \"contracts/InventoryManagement.sol\":5086:5099  paused = true */\n      0x0100\n      exp\n      dup2\n      sload\n      dup2\n      0xff\n      mul\n      not\n      and\n      swap1\n      dup4\n      iszero\n      iszero\n      mul\n      or\n      swap1\n      sstore\n      pop\n        /* \"contracts/InventoryManagement.sol\":5022:5106  function pauseContract() external onlyApprovedManager {... */\n      jump\t// out\n        /* \"contracts/InventoryManagement.sol\":3878:4217  function updateInventory(uint256 _productId, uint256 _newStock) ... */\n    tag_20:\n        /* \"contracts/InventoryManagement.sol\":1413:1429  approvedManagers */\n      0x01\n        /* \"contracts/InventoryManagement.sol\":1413:1441  approvedManagers[msg.sender] */\n      0x00\n        /* \"contracts/InventoryManagement.sol\":1430:1440  msg.sender */\n      caller\n        /* \"contracts/InventoryManagement.sol\":1413:1441  approvedManagers[msg.sender] */\n      0xffffffffffffffffffffffffffffffffffffffff\n      and\n      0xffffffffffffffffffffffffffffffffffffffff\n      and\n      dup2\n      mstore\n      0x20\n      add\n      swap1\n      dup2\n      mstore\n      0x20\n      add\n      0x00\n      keccak256\n      0x00\n      swap1\n      sload\n      swap1\n      0x0100\n      exp\n      swap1\n      div\n      0xff\n      and\n        /* \"contracts/InventoryManagement.sol\":1405:1486  require(approvedManagers[msg.sender], \"Access Denied: Not an authorized manager\") */\n      tag_58\n      jumpi\n      mload(0x40)\n      0x08c379a000000000000000000000000000000000000000000000000000000000\n      dup2\n      mstore\n      0x04\n      add\n      tag_59\n      swap1\n      tag_39\n      jump\t// in\n    tag_59:\n      mload(0x40)\n      dup1\n      swap2\n      sub\n      swap1\n      revert\n    tag_58:\n        /* \"contracts/InventoryManagement.sol\":4000:4010  _productId */\n      dup2\n        /* \"contracts/InventoryManagement.sol\":1794:1805  inventories */\n      0x00\n        /* \"contracts/InventoryManagement.sol\":1794:1817  inventories[_productId] */\n      dup1\n        /* \"contracts/InventoryManagement.sol\":1806:1816  _productId */\n      dup3\n        /* \"contracts/InventoryManagement.sol\":1794:1817  inventories[_productId] */\n      dup2\n      mstore\n      0x20\n      add\n      swap1\n      dup2\n      mstore\n      0x20\n      add\n      0x00\n      keccak256\n        /* \"contracts/InventoryManagement.sol\":1794:1830  inventories[_productId].isRegistered */\n      0x02\n      add\n      0x14\n      swap1\n      sload\n      swap1\n      0x0100\n      exp\n      swap1\n      div\n      0xff\n      and\n        /* \"contracts/InventoryManagement.sol\":1786:1883  require(inventories[_productId].isRegistered, \"Query Error: Product not registered in inventory\") */\n      tag_61\n      jumpi\n      mload(0x40)\n      0x08c379a000000000000000000000000000000000000000000000000000000000\n      dup2\n      mstore\n      0x04\n      add\n      tag_62\n      swap1\n      tag_63\n      jump\t// in\n    tag_62:\n      mload(0x40)\n      dup1\n      swap2\n      sub\n      swap1\n      revert\n    tag_61:\n        /* \"contracts/InventoryManagement.sol\":1607:1613  paused */\n      0x02\n      0x00\n      swap1\n      sload\n      swap1\n      0x0100\n      exp\n      swap1\n      div\n      0xff\n      and\n        /* \"contracts/InventoryManagement.sol\":1606:1613  !paused */\n      iszero\n        /* \"contracts/InventoryManagement.sol\":1598:1653  require(!paused, \"Operation Error: Contract is paused\") */\n      tag_65\n      jumpi\n      mload(0x40)\n      0x08c379a000000000000000000000000000000000000000000000000000000000\n      dup2\n      mstore\n      0x04\n      add\n      tag_66\n      swap1\n      tag_43\n      jump\t// in\n    tag_66:\n      mload(0x40)\n      dup1\n      swap2\n      sub\n      swap1\n      revert\n    tag_65:\n        /* \"contracts/InventoryManagement.sol\":4041:4075  ProductInventory storage inventory */\n      0x00\n        /* \"contracts/InventoryManagement.sol\":4078:4089  inventories */\n      dup1\n        /* \"contracts/InventoryManagement.sol\":4078:4101  inventories[_productId] */\n      0x00\n        /* \"contracts/InventoryManagement.sol\":4090:4100  _productId */\n      dup6\n        /* \"contracts/InventoryManagement.sol\":4078:4101  inventories[_productId] */\n      dup2\n      mstore\n      0x20\n      add\n      swap1\n      dup2\n      mstore\n      0x20\n      add\n      0x00\n      keccak256\n        /* \"contracts/InventoryManagement.sol\":4041:4101  ProductInventory storage inventory = inventories[_productId] */\n      swap1\n      pop\n        /* \"contracts/InventoryManagement.sol\":4129:4138  _newStock */\n      dup3\n        /* \"contracts/InventoryManagement.sol\":4111:4120  inventory */\n      dup2\n        /* \"contracts/InventoryManagement.sol\":4111:4126  inventory.stock */\n      0x01\n      add\n        /* \"contracts/InventoryManagement.sol\":4111:4138  inventory.stock = _newStock */\n      dup2\n      swap1\n      sstore\n      pop\n        /* \"contracts/InventoryManagement.sol\":4183:4192  inventory */\n      dup1\n        /* \"contracts/InventoryManagement.sol\":4183:4198  inventory.owner */\n      0x02\n      add\n      0x00\n      swap1\n      sload\n      swap1\n      0x0100\n      exp\n      swap1\n      div\n      0xffffffffffffffffffffffffffffffffffffffff\n      and\n        /* \"contracts/InventoryManagement.sol\":4154:4210  InventoryUpdated(_productId, inventory.owner, _newStock) */\n      0xffffffffffffffffffffffffffffffffffffffff\n      and\n        /* \"contracts/InventoryManagement.sol\":4171:4181  _productId */\n      dup5\n        /* \"contracts/InventoryManagement.sol\":4154:4210  InventoryUpdated(_productId, inventory.owner, _newStock) */\n      0x248922c07ff27dfe3de8404bfa838352eb6a3fa25efff3c79598356d8c7ccb6d\n        /* \"contracts/InventoryManagement.sol\":4200:4209  _newStock */\n      dup6\n        /* \"contracts/InventoryManagement.sol\":4154:4210  InventoryUpdated(_productId, inventory.owner, _newStock) */\n      mload(0x40)\n      tag_68\n      swap2\n      swap1\n      tag_52\n      jump\t// in\n    tag_68:\n      mload(0x40)\n      dup1\n      swap2\n      sub\n      swap1\n      log3\n        /* \"contracts/InventoryManagement.sol\":4031:4217  {... */\n      pop\n        /* \"contracts/InventoryManagement.sol\":1496:1497  _ */\n      pop\n        /* \"contracts/InventoryManagement.sol\":3878:4217  function updateInventory(uint256 _productId, uint256 _newStock) ... */\n      pop\n      pop\n      jump\t// out\n        /* \"contracts/InventoryManagement.sol\":4591:4951  function getInventory(uint256 _productId) ... */\n    tag_24:\n        /* \"contracts/InventoryManagement.sol\":4706:4723  uint256 productId */\n      0x00\n        /* \"contracts/InventoryManagement.sol\":4725:4738  uint256 stock */\n      dup1\n        /* \"contracts/InventoryManagement.sol\":4740:4753  address owner */\n      0x00\n        /* \"contracts/InventoryManagement.sol\":4755:4772  bool isRegistered */\n      dup1\n        /* \"contracts/InventoryManagement.sol\":4676:4686  _productId */\n      dup5\n        /* \"contracts/InventoryManagement.sol\":1794:1805  inventories */\n      0x00\n        /* \"contracts/InventoryManagement.sol\":1794:1817  inventories[_productId] */\n      dup1\n        /* \"contracts/InventoryManagement.sol\":1806:1816  _productId */\n      dup3\n        /* \"contracts/InventoryManagement.sol\":1794:1817  inventories[_productId] */\n      dup2\n      mstore\n      0x20\n      add\n      swap1\n      dup2\n      mstore\n      0x20\n      add\n      0x00\n      keccak256\n        /* \"contracts/InventoryManagement.sol\":1794:1830  inventories[_productId].isRegistered */\n      0x02\n      add\n      0x14\n      swap1\n      sload\n      swap1\n      0x0100\n      exp\n      swap1\n      div\n      0xff\n      and\n        /* \"contracts/InventoryManagement.sol\":1786:1883  require(inventories[_productId].isRegistered, \"Query Error: Product not registered in inventory\") */\n      tag_70\n      jumpi\n      mload(0x40)\n      0x08c379a000000000000000000000000000000000000000000000000000000000\n      dup2\n      mstore\n      0x04\n      add\n      tag_71\n      swap1\n      tag_63\n      jump\t// in\n    tag_71:\n      mload(0x40)\n      dup1\n      swap2\n      sub\n      swap1\n      revert\n    tag_70:\n        /* \"contracts/InventoryManagement.sol\":4789:4822  ProductInventory memory inventory */\n      0x00\n        /* \"contracts/InventoryManagement.sol\":4825:4836  inventories */\n      dup1\n        /* \"contracts/InventoryManagement.sol\":4825:4848  inventories[_productId] */\n      0x00\n        /* \"contracts/InventoryManagement.sol\":4837:4847  _productId */\n      dup9\n        /* \"contracts/InventoryManagement.sol\":4825:4848  inventories[_productId] */\n      dup2\n      mstore\n      0x20\n      add\n      swap1\n      dup2\n      mstore\n      0x20\n      add\n      0x00\n      keccak256\n        /* \"contracts/InventoryManagement.sol\":4789:4848  ProductInventory memory inventory = inventories[_productId] */\n      mload(0x40)\n      dup1\n      0x80\n      add\n      0x40\n      mstore\n      swap1\n      dup2\n      0x00\n      dup3\n      add\n      sload\n      dup2\n      mstore\n      0x20\n      add\n      0x01\n      dup3\n      add\n      sload\n      dup2\n      mstore\n      0x20\n      add\n      0x02\n      dup3\n      add\n      0x00\n      swap1\n      sload\n      swap1\n      0x0100\n      exp\n      swap1\n      div\n      0xffffffffffffffffffffffffffffffffffffffff\n      and\n      0xffffffffffffffffffffffffffffffffffffffff\n      and\n      0xffffffffffffffffffffffffffffffffffffffff\n      and\n      dup2\n      mstore\n      0x20\n      add\n      0x02\n      dup3\n      add\n      0x14\n      swap1\n      sload\n      swap1\n      0x0100\n      exp\n      swap1\n      div\n      0xff\n      and\n      iszero\n      iszero\n      iszero\n      iszero\n      dup2\n      mstore\n      pop\n      pop\n      swap1\n      pop\n        /* \"contracts/InventoryManagement.sol\":4866:4875  inventory */\n      dup1\n        /* \"contracts/InventoryManagement.sol\":4866:4885  inventory.productId */\n      0x00\n      add\n      mload\n        /* \"contracts/InventoryManagement.sol\":4887:4896  inventory */\n      dup2\n        /* \"contracts/InventoryManagement.sol\":4887:4902  inventory.stock */\n      0x20\n      add\n      mload\n        /* \"contracts/InventoryManagement.sol\":4904:4913  inventory */\n      dup3\n        /* \"contracts/InventoryManagement.sol\":4904:4919  inventory.owner */\n      0x40\n      add\n      mload\n        /* \"contracts/InventoryManagement.sol\":4921:4930  inventory */\n      dup4\n        /* \"contracts/InventoryManagement.sol\":4921:4943  inventory.isRegistered */\n      0x60\n      add\n      mload\n        /* \"contracts/InventoryManagement.sol\":4858:4944  return (inventory.productId, inventory.stock, inventory.owner, inventory.isRegistered) */\n      swap6\n      pop\n      swap6\n      pop\n      swap6\n      pop\n      swap6\n      pop\n      pop\n        /* \"contracts/InventoryManagement.sol\":4591:4951  function getInventory(uint256 _productId) ... */\n      pop\n      swap2\n      swap4\n      pop\n      swap2\n      swap4\n      jump\t// out\n        /* \"contracts/InventoryManagement.sol\":2613:2868  function removeManager(address _manager) external onlyApprovedManager whenNotPaused {... */\n    tag_30:\n        /* \"contracts/InventoryManagement.sol\":1413:1429  approvedManagers */\n      0x01\n        /* \"contracts/InventoryManagement.sol\":1413:1441  approvedManagers[msg.sender] */\n      0x00\n        /* \"contracts/InventoryManagement.sol\":1430:1440  msg.sender */\n      caller\n        /* \"contracts/InventoryManagement.sol\":1413:1441  approvedManagers[msg.sender] */\n      0xffffffffffffffffffffffffffffffffffffffff\n      and\n      0xffffffffffffffffffffffffffffffffffffffff\n      and\n      dup2\n      mstore\n      0x20\n      add\n      swap1\n      dup2\n      mstore\n      0x20\n      add\n      0x00\n      keccak256\n      0x00\n      swap1\n      sload\n      swap1\n      0x0100\n      exp\n      swap1\n      div\n      0xff\n      and\n        /* \"contracts/InventoryManagement.sol\":1405:1486  require(approvedManagers[msg.sender], \"Access Denied: Not an authorized manager\") */\n      tag_74\n      jumpi\n      mload(0x40)\n      0x08c379a000000000000000000000000000000000000000000000000000000000\n      dup2\n      mstore\n      0x04\n      add\n      tag_75\n      swap1\n      tag_39\n      jump\t// in\n    tag_75:\n      mload(0x40)\n      dup1\n      swap2\n      sub\n      swap1\n      revert\n    tag_74:\n        /* \"contracts/InventoryManagement.sol\":1607:1613  paused */\n      0x02\n      0x00\n      swap1\n      sload\n      swap1\n      0x0100\n      exp\n      swap1\n      div\n      0xff\n      and\n        /* \"contracts/InventoryManagement.sol\":1606:1613  !paused */\n      iszero\n        /* \"contracts/InventoryManagement.sol\":1598:1653  require(!paused, \"Operation Error: Contract is paused\") */\n      tag_77\n      jumpi\n      mload(0x40)\n      0x08c379a000000000000000000000000000000000000000000000000000000000\n      dup2\n      mstore\n      0x04\n      add\n      tag_78\n      swap1\n      tag_43\n      jump\t// in\n    tag_78:\n      mload(0x40)\n      dup1\n      swap2\n      sub\n      swap1\n      revert\n    tag_77:\n        /* \"contracts/InventoryManagement.sol\":2715:2731  approvedManagers */\n      0x01\n        /* \"contracts/InventoryManagement.sol\":2715:2741  approvedManagers[_manager] */\n      0x00\n        /* \"contracts/InventoryManagement.sol\":2732:2740  _manager */\n      dup3\n        /* \"contracts/InventoryManagement.sol\":2715:2741  approvedManagers[_manager] */\n      0xffffffffffffffffffffffffffffffffffffffff\n      and\n      0xffffffffffffffffffffffffffffffffffffffff\n      and\n      dup2\n      mstore\n      0x20\n      add\n      swap1\n      dup2\n      mstore\n      0x20\n      add\n      0x00\n      keccak256\n      0x00\n      swap1\n      sload\n      swap1\n      0x0100\n      exp\n      swap1\n      div\n      0xff\n      and\n        /* \"contracts/InventoryManagement.sol\":2707:2778  require(approvedManagers[_manager], \"Removal Error: Manager not found\") */\n      tag_80\n      jumpi\n      mload(0x40)\n      0x08c379a000000000000000000000000000000000000000000000000000000000\n      dup2\n      mstore\n      0x04\n      add\n      tag_81\n      swap1\n      tag_82\n      jump\t// in\n    tag_81:\n      mload(0x40)\n      dup1\n      swap2\n      sub\n      swap1\n      revert\n    tag_80:\n        /* \"contracts/InventoryManagement.sol\":2817:2822  false */\n      0x00\n        /* \"contracts/InventoryManagement.sol\":2788:2804  approvedManagers */\n      0x01\n        /* \"contracts/InventoryManagement.sol\":2788:2814  approvedManagers[_manager] */\n      0x00\n        /* \"contracts/InventoryManagement.sol\":2805:2813  _manager */\n      dup4\n        /* \"contracts/InventoryManagement.sol\":2788:2814  approvedManagers[_manager] */\n      0xffffffffffffffffffffffffffffffffffffffff\n      and\n      0xffffffffffffffffffffffffffffffffffffffff\n      and\n      dup2\n      mstore\n      0x20\n      add\n      swap1\n      dup2\n      mstore\n      0x20\n      add\n      0x00\n      keccak256\n      0x00\n        /* \"contracts/InventoryManagement.sol\":2788:2822  approvedManagers[_manager] = false */\n      0x0100\n      exp\n      dup2\n      sload\n      dup2\n      0xff\n      mul\n      not\n      and\n      swap1\n      dup4\n      iszero\n      iszero\n      mul\n      or\n      swap1\n      sstore\n      pop\n        /* \"contracts/InventoryManagement.sol\":2852:2860  _manager */\n      dup1\n        /* \"contracts/InventoryManagement.sol\":2837:2861  ManagerRemoved(_manager) */\n      0xffffffffffffffffffffffffffffffffffffffff\n      and\n      0xef69f7d97228658c92417be1b16b19058315de71fecb435d07b7d23728b6bd31\n      mload(0x40)\n      mload(0x40)\n      dup1\n      swap2\n      sub\n      swap1\n      log2\n        /* \"contracts/InventoryManagement.sol\":2613:2868  function removeManager(address _manager) external onlyApprovedManager whenNotPaused {... */\n      pop\n      jump\t// out\n        /* \"contracts/InventoryManagement.sol\":5170:5257  function unpauseContract() external onlyApprovedManager {... */\n    tag_32:\n        /* \"contracts/InventoryManagement.sol\":1413:1429  approvedManagers */\n      0x01\n        /* \"contracts/InventoryManagement.sol\":1413:1441  approvedManagers[msg.sender] */\n      0x00\n        /* \"contracts/InventoryManagement.sol\":1430:1440  msg.sender */\n      caller\n        /* \"contracts/InventoryManagement.sol\":1413:1441  approvedManagers[msg.sender] */\n      0xffffffffffffffffffffffffffffffffffffffff\n      and\n      0xffffffffffffffffffffffffffffffffffffffff\n      and\n      dup2\n      mstore\n      0x20\n      add\n      swap1\n      dup2\n      mstore\n      0x20\n      add\n      0x00\n      keccak256\n      0x00\n      swap1\n      sload\n      swap1\n      0x0100\n      exp\n      swap1\n      div\n      0xff\n      and\n        /* \"contracts/InventoryManagement.sol\":1405:1486  require(approvedManagers[msg.sender], \"Access Denied: Not an authorized manager\") */\n      tag_84\n      jumpi\n      mload(0x40)\n      0x08c379a000000000000000000000000000000000000000000000000000000000\n      dup2\n      mstore\n      0x04\n      add\n      tag_85\n      swap1\n      tag_39\n      jump\t// in\n    tag_85:\n      mload(0x40)\n      dup1\n      swap2\n      sub\n      swap1\n      revert\n    tag_84:\n        /* \"contracts/InventoryManagement.sol\":5245:5250  false */\n      0x00\n        /* \"contracts/InventoryManagement.sol\":5236:5242  paused */\n      0x02\n      0x00\n        /* \"contracts/InventoryManagement.sol\":5236:5250  paused = false */\n      0x0100\n      exp\n      dup2\n      sload\n      dup2\n      0xff\n      mul\n      not\n      and\n      swap1\n      dup4\n      iszero\n      iszero\n      mul\n      or\n      swap1\n      sstore\n      pop\n        /* \"contracts/InventoryManagement.sol\":5170:5257  function unpauseContract() external onlyApprovedManager {... */\n      jump\t// out\n        /* \"contracts/InventoryManagement.sol\":2216:2481  function approveManager(address _manager) external onlyApprovedManager whenNotPaused {... */\n    tag_35:\n        /* \"contracts/InventoryManagement.sol\":1413:1429  approvedManagers */\n      0x01\n        /* \"contracts/InventoryManagement.sol\":1413:1441  approvedManagers[msg.sender] */\n      0x00\n        /* \"contracts/InventoryManagement.sol\":1430:1440  msg.sender */\n      caller\n        /* \"contracts/InventoryManagement.sol\":1413:1441  approvedManagers[msg.sender] */\n      0xffffffffffffffffffffffffffffffffffffffff\n      and\n      0xffffffffffffffffffffffffffffffffffffffff\n      and\n      dup2\n      mstore\n      0x20\n      add\n      swap1\n      dup2\n      mstore\n      0x20\n      add\n      0x00\n      keccak256\n      0x00\n      swap1\n      sload\n      swap1\n      0x0100\n      exp\n      swap1\n      div\n      0xff\n      and\n        /* \"contracts/InventoryManagement.sol\":1405:1486  require(approvedManagers[msg.sender], \"Access Denied: Not an authorized manager\") */\n      tag_88\n      jumpi\n      mload(0x40)\n      0x08c379a000000000000000000000000000000000000000000000000000000000\n      dup2\n      mstore\n      0x04\n      add\n      tag_89\n      swap1\n      tag_39\n      jump\t// in\n    tag_89:\n      mload(0x40)\n      dup1\n      swap2\n      sub\n      swap1\n      revert\n    tag_88:\n        /* \"contracts/InventoryManagement.sol\":1607:1613  paused */\n      0x02\n      0x00\n      swap1\n      sload\n      swap1\n      0x0100\n      exp\n      swap1\n      div\n      0xff\n      and\n        /* \"contracts/InventoryManagement.sol\":1606:1613  !paused */\n      iszero\n        /* \"contracts/InventoryManagement.sol\":1598:1653  require(!paused, \"Operation Error: Contract is paused\") */\n      tag_91\n      jumpi\n      mload(0x40)\n      0x08c379a000000000000000000000000000000000000000000000000000000000\n      dup2\n      mstore\n      0x04\n      add\n      tag_92\n      swap1\n      tag_43\n      jump\t// in\n    tag_92:\n      mload(0x40)\n      dup1\n      swap2\n      sub\n      swap1\n      revert\n    tag_91:\n        /* \"contracts/InventoryManagement.sol\":2320:2336  approvedManagers */\n      0x01\n        /* \"contracts/InventoryManagement.sol\":2320:2346  approvedManagers[_manager] */\n      0x00\n        /* \"contracts/InventoryManagement.sol\":2337:2345  _manager */\n      dup3\n        /* \"contracts/InventoryManagement.sol\":2320:2346  approvedManagers[_manager] */\n      0xffffffffffffffffffffffffffffffffffffffff\n      and\n      0xffffffffffffffffffffffffffffffffffffffff\n      and\n      dup2\n      mstore\n      0x20\n      add\n      swap1\n      dup2\n      mstore\n      0x20\n      add\n      0x00\n      keccak256\n      0x00\n      swap1\n      sload\n      swap1\n      0x0100\n      exp\n      swap1\n      div\n      0xff\n      and\n        /* \"contracts/InventoryManagement.sol\":2319:2346  !approvedManagers[_manager] */\n      iszero\n        /* \"contracts/InventoryManagement.sol\":2311:2391  require(!approvedManagers[_manager], \"Approval Error: Manager already approved\") */\n      tag_94\n      jumpi\n      mload(0x40)\n      0x08c379a000000000000000000000000000000000000000000000000000000000\n      dup2\n      mstore\n      0x04\n      add\n      tag_95\n      swap1\n      tag_96\n      jump\t// in\n    tag_95:\n      mload(0x40)\n      dup1\n      swap2\n      sub\n      swap1\n      revert\n    tag_94:\n        /* \"contracts/InventoryManagement.sol\":2430:2434  true */\n      0x01\n        /* \"contracts/InventoryManagement.sol\":2401:2417  approvedManagers */\n      dup1\n        /* \"contracts/InventoryManagement.sol\":2401:2427  approvedManagers[_manager] */\n      0x00\n        /* \"contracts/InventoryManagement.sol\":2418:2426  _manager */\n      dup4\n        /* \"contracts/InventoryManagement.sol\":2401:2427  approvedManagers[_manager] */\n      0xffffffffffffffffffffffffffffffffffffffff\n      and\n      0xffffffffffffffffffffffffffffffffffffffff\n      and\n      dup2\n      mstore\n      0x20\n      add\n      swap1\n      dup2\n      mstore\n      0x20\n      add\n      0x00\n      keccak256\n      0x00\n        /* \"contracts/InventoryManagement.sol\":2401:2434  approvedManagers[_manager] = true */\n      0x0100\n      exp\n      dup2\n      sload\n      dup2\n      0xff\n      mul\n      not\n      and\n      swap1\n      dup4\n      iszero\n      iszero\n      mul\n      or\n      swap1\n      sstore\n      pop\n        /* \"contracts/InventoryManagement.sol\":2465:2473  _manager */\n      dup1\n        /* \"contracts/InventoryManagement.sol\":2449:2474  ManagerApproved(_manager) */\n      0xffffffffffffffffffffffffffffffffffffffff\n      and\n      0x450ad6a6ac3c2e8b8a02820cb64d6102a1f91ebe1fa3848a0cfc45c870c043af\n      mload(0x40)\n      mload(0x40)\n      dup1\n      swap2\n      sub\n      swap1\n      log2\n        /* \"contracts/InventoryManagement.sol\":2216:2481  function approveManager(address _manager) external onlyApprovedManager whenNotPaused {... */\n      pop\n      jump\t// out\n        /* \"#utility.yul\":88:205   */\n    tag_98:\n        /* \"#utility.yul\":197:198   */\n      0x00\n        /* \"#utility.yul\":194:195   */\n      dup1\n        /* \"#utility.yul\":187:199   */\n      revert\n        /* \"#utility.yul\":334:411   */\n    tag_100:\n        /* \"#utility.yul\":371:378   */\n      0x00\n        /* \"#utility.yul\":400:405   */\n      dup2\n        /* \"#utility.yul\":389:405   */\n      swap1\n      pop\n        /* \"#utility.yul\":334:411   */\n      swap2\n      swap1\n      pop\n      jump\t// out\n        /* \"#utility.yul\":417:539   */\n    tag_101:\n        /* \"#utility.yul\":490:514   */\n      tag_132\n        /* \"#utility.yul\":508:513   */\n      dup2\n        /* \"#utility.yul\":490:514   */\n      tag_100\n      jump\t// in\n    tag_132:\n        /* \"#utility.yul\":483:488   */\n      dup2\n        /* \"#utility.yul\":480:515   */\n      eq\n        /* \"#utility.yul\":470:533   */\n      tag_133\n      jumpi\n        /* \"#utility.yul\":529:530   */\n      0x00\n        /* \"#utility.yul\":526:527   */\n      dup1\n        /* \"#utility.yul\":519:531   */\n      revert\n        /* \"#utility.yul\":470:533   */\n    tag_133:\n        /* \"#utility.yul\":417:539   */\n      pop\n      jump\t// out\n        /* \"#utility.yul\":545:684   */\n    tag_102:\n        /* \"#utility.yul\":591:596   */\n      0x00\n        /* \"#utility.yul\":629:635   */\n      dup2\n        /* \"#utility.yul\":616:636   */\n      calldataload\n        /* \"#utility.yul\":607:636   */\n      swap1\n      pop\n        /* \"#utility.yul\":645:678   */\n      tag_135\n        /* \"#utility.yul\":672:677   */\n      dup2\n        /* \"#utility.yul\":645:678   */\n      tag_101\n      jump\t// in\n    tag_135:\n        /* \"#utility.yul\":545:684   */\n      swap3\n      swap2\n      pop\n      pop\n      jump\t// out\n        /* \"#utility.yul\":690:816   */\n    tag_103:\n        /* \"#utility.yul\":727:734   */\n      0x00\n        /* \"#utility.yul\":767:809   */\n      0xffffffffffffffffffffffffffffffffffffffff\n        /* \"#utility.yul\":760:765   */\n      dup3\n        /* \"#utility.yul\":756:810   */\n      and\n        /* \"#utility.yul\":745:810   */\n      swap1\n      pop\n        /* \"#utility.yul\":690:816   */\n      swap2\n      swap1\n      pop\n      jump\t// out\n        /* \"#utility.yul\":822:918   */\n    tag_104:\n        /* \"#utility.yul\":859:866   */\n      0x00\n        /* \"#utility.yul\":888:912   */\n      tag_138\n        /* \"#utility.yul\":906:911   */\n      dup3\n        /* \"#utility.yul\":888:912   */\n      tag_103\n      jump\t// in\n    tag_138:\n        /* \"#utility.yul\":877:912   */\n      swap1\n      pop\n        /* \"#utility.yul\":822:918   */\n      swap2\n      swap1\n      pop\n      jump\t// out\n        /* \"#utility.yul\":924:1046   */\n    tag_105:\n        /* \"#utility.yul\":997:1021   */\n      tag_140\n        /* \"#utility.yul\":1015:1020   */\n      dup2\n        /* \"#utility.yul\":997:1021   */\n      tag_104\n      jump\t// in\n    tag_140:\n        /* \"#utility.yul\":990:995   */\n      dup2\n        /* \"#utility.yul\":987:1022   */\n      eq\n        /* \"#utility.yul\":977:1040   */\n      tag_141\n      jumpi\n        /* \"#utility.yul\":1036:1037   */\n      0x00\n        /* \"#utility.yul\":1033:1034   */\n      dup1\n        /* \"#utility.yul\":1026:1038   */\n      revert\n        /* \"#utility.yul\":977:1040   */\n    tag_141:\n        /* \"#utility.yul\":924:1046   */\n      pop\n      jump\t// out\n        /* \"#utility.yul\":1052:1191   */\n    tag_106:\n        /* \"#utility.yul\":1098:1103   */\n      0x00\n        /* \"#utility.yul\":1136:1142   */\n      dup2\n        /* \"#utility.yul\":1123:1143   */\n      calldataload\n        /* \"#utility.yul\":1114:1143   */\n      swap1\n      pop\n        /* \"#utility.yul\":1152:1185   */\n      tag_143\n        /* \"#utility.yul\":1179:1184   */\n      dup2\n        /* \"#utility.yul\":1152:1185   */\n      tag_105\n      jump\t// in\n    tag_143:\n        /* \"#utility.yul\":1052:1191   */\n      swap3\n      swap2\n      pop\n      pop\n      jump\t// out\n        /* \"#utility.yul\":1197:1816   */\n    tag_13:\n        /* \"#utility.yul\":1274:1280   */\n      0x00\n        /* \"#utility.yul\":1282:1288   */\n      dup1\n        /* \"#utility.yul\":1290:1296   */\n      0x00\n        /* \"#utility.yul\":1339:1341   */\n      0x60\n        /* \"#utility.yul\":1327:1336   */\n      dup5\n        /* \"#utility.yul\":1318:1325   */\n      dup7\n        /* \"#utility.yul\":1314:1337   */\n      sub\n        /* \"#utility.yul\":1310:1342   */\n      slt\n        /* \"#utility.yul\":1307:1426   */\n      iszero\n      tag_145\n      jumpi\n        /* \"#utility.yul\":1345:1424   */\n      tag_146\n      tag_98\n      jump\t// in\n    tag_146:\n        /* \"#utility.yul\":1307:1426   */\n    tag_145:\n        /* \"#utility.yul\":1465:1466   */\n      0x00\n        /* \"#utility.yul\":1490:1543   */\n      tag_147\n        /* \"#utility.yul\":1535:1542   */\n      dup7\n        /* \"#utility.yul\":1526:1532   */\n      dup3\n        /* \"#utility.yul\":1515:1524   */\n      dup8\n        /* \"#utility.yul\":1511:1533   */\n      add\n        /* \"#utility.yul\":1490:1543   */\n      tag_102\n      jump\t// in\n    tag_147:\n        /* \"#utility.yul\":1480:1543   */\n      swap4\n      pop\n        /* \"#utility.yul\":1436:1553   */\n      pop\n        /* \"#utility.yul\":1592:1594   */\n      0x20\n        /* \"#utility.yul\":1618:1671   */\n      tag_148\n        /* \"#utility.yul\":1663:1670   */\n      dup7\n        /* \"#utility.yul\":1654:1660   */\n      dup3\n        /* \"#utility.yul\":1643:1652   */\n      dup8\n        /* \"#utility.yul\":1639:1661   */\n      add\n        /* \"#utility.yul\":1618:1671   */\n      tag_102\n      jump\t// in\n    tag_148:\n        /* \"#utility.yul\":1608:1671   */\n      swap3\n      pop\n        /* \"#utility.yul\":1563:1681   */\n      pop\n        /* \"#utility.yul\":1720:1722   */\n      0x40\n        /* \"#utility.yul\":1746:1799   */\n      tag_149\n        /* \"#utility.yul\":1791:1798   */\n      dup7\n        /* \"#utility.yul\":1782:1788   */\n      dup3\n        /* \"#utility.yul\":1771:1780   */\n      dup8\n        /* \"#utility.yul\":1767:1789   */\n      add\n        /* \"#utility.yul\":1746:1799   */\n      tag_106\n      jump\t// in\n    tag_149:\n        /* \"#utility.yul\":1736:1799   */\n      swap2\n      pop\n        /* \"#utility.yul\":1691:1809   */\n      pop\n        /* \"#utility.yul\":1197:1816   */\n      swap3\n      pop\n      swap3\n      pop\n      swap3\n      jump\t// out\n        /* \"#utility.yul\":1822:2296   */\n    tag_19:\n        /* \"#utility.yul\":1890:1896   */\n      0x00\n        /* \"#utility.yul\":1898:1904   */\n      dup1\n        /* \"#utility.yul\":1947:1949   */\n      0x40\n        /* \"#utility.yul\":1935:1944   */\n      dup4\n        /* \"#utility.yul\":1926:1933   */\n      dup6\n        /* \"#utility.yul\":1922:1945   */\n      sub\n        /* \"#utility.yul\":1918:1950   */\n      slt\n        /* \"#utility.yul\":1915:2034   */\n      iszero\n      tag_151\n      jumpi\n        /* \"#utility.yul\":1953:2032   */\n      tag_152\n      tag_98\n      jump\t// in\n    tag_152:\n        /* \"#utility.yul\":1915:2034   */\n    tag_151:\n        /* \"#utility.yul\":2073:2074   */\n      0x00\n        /* \"#utility.yul\":2098:2151   */\n      tag_153\n        /* \"#utility.yul\":2143:2150   */\n      dup6\n        /* \"#utility.yul\":2134:2140   */\n      dup3\n        /* \"#utility.yul\":2123:2132   */\n      dup7\n        /* \"#utility.yul\":2119:2141   */\n      add\n        /* \"#utility.yul\":2098:2151   */\n      tag_102\n      jump\t// in\n    tag_153:\n        /* \"#utility.yul\":2088:2151   */\n      swap3\n      pop\n        /* \"#utility.yul\":2044:2161   */\n      pop\n        /* \"#utility.yul\":2200:2202   */\n      0x20\n        /* \"#utility.yul\":2226:2279   */\n      tag_154\n        /* \"#utility.yul\":2271:2278   */\n      dup6\n        /* \"#utility.yul\":2262:2268   */\n      dup3\n        /* \"#utility.yul\":2251:2260   */\n      dup7\n        /* \"#utility.yul\":2247:2269   */\n      add\n        /* \"#utility.yul\":2226:2279   */\n      tag_102\n      jump\t// in\n    tag_154:\n        /* \"#utility.yul\":2216:2279   */\n      swap2\n      pop\n        /* \"#utility.yul\":2171:2289   */\n      pop\n        /* \"#utility.yul\":1822:2296   */\n      swap3\n      pop\n      swap3\n      swap1\n      pop\n      jump\t// out\n        /* \"#utility.yul\":2302:2631   */\n    tag_23:\n        /* \"#utility.yul\":2361:2367   */\n      0x00\n        /* \"#utility.yul\":2410:2412   */\n      0x20\n        /* \"#utility.yul\":2398:2407   */\n      dup3\n        /* \"#utility.yul\":2389:2396   */\n      dup5\n        /* \"#utility.yul\":2385:2408   */\n      sub\n        /* \"#utility.yul\":2381:2413   */\n      slt\n        /* \"#utility.yul\":2378:2497   */\n      iszero\n      tag_156\n      jumpi\n        /* \"#utility.yul\":2416:2495   */\n      tag_157\n      tag_98\n      jump\t// in\n    tag_157:\n        /* \"#utility.yul\":2378:2497   */\n    tag_156:\n        /* \"#utility.yul\":2536:2537   */\n      0x00\n        /* \"#utility.yul\":2561:2614   */\n      tag_158\n        /* \"#utility.yul\":2606:2613   */\n      dup5\n        /* \"#utility.yul\":2597:2603   */\n      dup3\n        /* \"#utility.yul\":2586:2595   */\n      dup6\n        /* \"#utility.yul\":2582:2604   */\n      add\n        /* \"#utility.yul\":2561:2614   */\n      tag_102\n      jump\t// in\n    tag_158:\n        /* \"#utility.yul\":2551:2614   */\n      swap2\n      pop\n        /* \"#utility.yul\":2507:2624   */\n      pop\n        /* \"#utility.yul\":2302:2631   */\n      swap3\n      swap2\n      pop\n      pop\n      jump\t// out\n        /* \"#utility.yul\":2637:2755   */\n    tag_107:\n        /* \"#utility.yul\":2724:2748   */\n      tag_160\n        /* \"#utility.yul\":2742:2747   */\n      dup2\n        /* \"#utility.yul\":2724:2748   */\n      tag_100\n      jump\t// in\n    tag_160:\n        /* \"#utility.yul\":2719:2722   */\n      dup3\n        /* \"#utility.yul\":2712:2749   */\n      mstore\n        /* \"#utility.yul\":2637:2755   */\n      pop\n      pop\n      jump\t// out\n        /* \"#utility.yul\":2761:2879   */\n    tag_108:\n        /* \"#utility.yul\":2848:2872   */\n      tag_162\n        /* \"#utility.yul\":2866:2871   */\n      dup2\n        /* \"#utility.yul\":2848:2872   */\n      tag_104\n      jump\t// in\n    tag_162:\n        /* \"#utility.yul\":2843:2846   */\n      dup3\n        /* \"#utility.yul\":2836:2873   */\n      mstore\n        /* \"#utility.yul\":2761:2879   */\n      pop\n      pop\n      jump\t// out\n        /* \"#utility.yul\":2885:2975   */\n    tag_109:\n        /* \"#utility.yul\":2919:2926   */\n      0x00\n        /* \"#utility.yul\":2962:2967   */\n      dup2\n        /* \"#utility.yul\":2955:2968   */\n      iszero\n        /* \"#utility.yul\":2948:2969   */\n      iszero\n        /* \"#utility.yul\":2937:2969   */\n      swap1\n      pop\n        /* \"#utility.yul\":2885:2975   */\n      swap2\n      swap1\n      pop\n      jump\t// out\n        /* \"#utility.yul\":2981:3090   */\n    tag_110:\n        /* \"#utility.yul\":3062:3083   */\n      tag_165\n        /* \"#utility.yul\":3077:3082   */\n      dup2\n        /* \"#utility.yul\":3062:3083   */\n      tag_109\n      jump\t// in\n    tag_165:\n        /* \"#utility.yul\":3057:3060   */\n      dup3\n        /* \"#utility.yul\":3050:3084   */\n      mstore\n        /* \"#utility.yul\":2981:3090   */\n      pop\n      pop\n      jump\t// out\n        /* \"#utility.yul\":3096:3637   */\n    tag_26:\n        /* \"#utility.yul\":3267:3271   */\n      0x00\n        /* \"#utility.yul\":3305:3308   */\n      0x80\n        /* \"#utility.yul\":3294:3303   */\n      dup3\n        /* \"#utility.yul\":3290:3309   */\n      add\n        /* \"#utility.yul\":3282:3309   */\n      swap1\n      pop\n        /* \"#utility.yul\":3319:3390   */\n      tag_167\n        /* \"#utility.yul\":3387:3388   */\n      0x00\n        /* \"#utility.yul\":3376:3385   */\n      dup4\n        /* \"#utility.yul\":3372:3389   */\n      add\n        /* \"#utility.yul\":3363:3369   */\n      dup8\n        /* \"#utility.yul\":3319:3390   */\n      tag_107\n      jump\t// in\n    tag_167:\n        /* \"#utility.yul\":3400:3472   */\n      tag_168\n        /* \"#utility.yul\":3468:3470   */\n      0x20\n        /* \"#utility.yul\":3457:3466   */\n      dup4\n        /* \"#utility.yul\":3453:3471   */\n      add\n        /* \"#utility.yul\":3444:3450   */\n      dup7\n        /* \"#utility.yul\":3400:3472   */\n      tag_107\n      jump\t// in\n    tag_168:\n        /* \"#utility.yul\":3482:3554   */\n      tag_169\n        /* \"#utility.yul\":3550:3552   */\n      0x40\n        /* \"#utility.yul\":3539:3548   */\n      dup4\n        /* \"#utility.yul\":3535:3553   */\n      add\n        /* \"#utility.yul\":3526:3532   */\n      dup6\n        /* \"#utility.yul\":3482:3554   */\n      tag_108\n      jump\t// in\n    tag_169:\n        /* \"#utility.yul\":3564:3630   */\n      tag_170\n        /* \"#utility.yul\":3626:3628   */\n      0x60\n        /* \"#utility.yul\":3615:3624   */\n      dup4\n        /* \"#utility.yul\":3611:3629   */\n      add\n        /* \"#utility.yul\":3602:3608   */\n      dup5\n        /* \"#utility.yul\":3564:3630   */\n      tag_110\n      jump\t// in\n    tag_170:\n        /* \"#utility.yul\":3096:3637   */\n      swap6\n      swap5\n      pop\n      pop\n      pop\n      pop\n      pop\n      jump\t// out\n        /* \"#utility.yul\":3643:3972   */\n    tag_29:\n        /* \"#utility.yul\":3702:3708   */\n      0x00\n        /* \"#utility.yul\":3751:3753   */\n      0x20\n        /* \"#utility.yul\":3739:3748   */\n      dup3\n        /* \"#utility.yul\":3730:3737   */\n      dup5\n        /* \"#utility.yul\":3726:3749   */\n      sub\n        /* \"#utility.yul\":3722:3754   */\n      slt\n        /* \"#utility.yul\":3719:3838   */\n      iszero\n      tag_172\n      jumpi\n        /* \"#utility.yul\":3757:3836   */\n      tag_173\n      tag_98\n      jump\t// in\n    tag_173:\n        /* \"#utility.yul\":3719:3838   */\n    tag_172:\n        /* \"#utility.yul\":3877:3878   */\n      0x00\n        /* \"#utility.yul\":3902:3955   */\n      tag_174\n        /* \"#utility.yul\":3947:3954   */\n      dup5\n        /* \"#utility.yul\":3938:3944   */\n      dup3\n        /* \"#utility.yul\":3927:3936   */\n      dup6\n        /* \"#utility.yul\":3923:3945   */\n      add\n        /* \"#utility.yul\":3902:3955   */\n      tag_106\n      jump\t// in\n    tag_174:\n        /* \"#utility.yul\":3892:3955   */\n      swap2\n      pop\n        /* \"#utility.yul\":3848:3965   */\n      pop\n        /* \"#utility.yul\":3643:3972   */\n      swap3\n      swap2\n      pop\n      pop\n      jump\t// out\n        /* \"#utility.yul\":3978:4147   */\n    tag_111:\n        /* \"#utility.yul\":4062:4073   */\n      0x00\n        /* \"#utility.yul\":4096:4102   */\n      dup3\n        /* \"#utility.yul\":4091:4094   */\n      dup3\n        /* \"#utility.yul\":4084:4103   */\n      mstore\n        /* \"#utility.yul\":4136:4140   */\n      0x20\n        /* \"#utility.yul\":4131:4134   */\n      dup3\n        /* \"#utility.yul\":4127:4141   */\n      add\n        /* \"#utility.yul\":4112:4141   */\n      swap1\n      pop\n        /* \"#utility.yul\":3978:4147   */\n      swap3\n      swap2\n      pop\n      pop\n      jump\t// out\n        /* \"#utility.yul\":4153:4380   */\n    tag_112:\n        /* \"#utility.yul\":4293:4327   */\n      0x4163636573732044656e6965643a204e6f7420616e20617574686f72697a6564\n        /* \"#utility.yul\":4289:4290   */\n      0x00\n        /* \"#utility.yul\":4281:4287   */\n      dup3\n        /* \"#utility.yul\":4277:4291   */\n      add\n        /* \"#utility.yul\":4270:4328   */\n      mstore\n        /* \"#utility.yul\":4362:4372   */\n      0x206d616e61676572000000000000000000000000000000000000000000000000\n        /* \"#utility.yul\":4357:4359   */\n      0x20\n        /* \"#utility.yul\":4349:4355   */\n      dup3\n        /* \"#utility.yul\":4345:4360   */\n      add\n        /* \"#utility.yul\":4338:4373   */\n      mstore\n        /* \"#utility.yul\":4153:4380   */\n      pop\n      jump\t// out\n        /* \"#utility.yul\":4386:4752   */\n    tag_113:\n        /* \"#utility.yul\":4528:4531   */\n      0x00\n        /* \"#utility.yul\":4549:4616   */\n      tag_178\n        /* \"#utility.yul\":4613:4615   */\n      0x28\n        /* \"#utility.yul\":4608:4611   */\n      dup4\n        /* \"#utility.yul\":4549:4616   */\n      tag_111\n      jump\t// in\n    tag_178:\n        /* \"#utility.yul\":4542:4616   */\n      swap2\n      pop\n        /* \"#utility.yul\":4625:4718   */\n      tag_179\n        /* \"#utility.yul\":4714:4717   */\n      dup3\n        /* \"#utility.yul\":4625:4718   */\n      tag_112\n      jump\t// in\n    tag_179:\n        /* \"#utility.yul\":4743:4745   */\n      0x40\n        /* \"#utility.yul\":4738:4741   */\n      dup3\n        /* \"#utility.yul\":4734:4746   */\n      add\n        /* \"#utility.yul\":4727:4746   */\n      swap1\n      pop\n        /* \"#utility.yul\":4386:4752   */\n      swap2\n      swap1\n      pop\n      jump\t// out\n        /* \"#utility.yul\":4758:5177   */\n    tag_39:\n        /* \"#utility.yul\":4924:4928   */\n      0x00\n        /* \"#utility.yul\":4962:4964   */\n      0x20\n        /* \"#utility.yul\":4951:4960   */\n      dup3\n        /* \"#utility.yul\":4947:4965   */\n      add\n        /* \"#utility.yul\":4939:4965   */\n      swap1\n      pop\n        /* \"#utility.yul\":5011:5020   */\n      dup2\n        /* \"#utility.yul\":5005:5009   */\n      dup2\n        /* \"#utility.yul\":5001:5021   */\n      sub\n        /* \"#utility.yul\":4997:4998   */\n      0x00\n        /* \"#utility.yul\":4986:4995   */\n      dup4\n        /* \"#utility.yul\":4982:4999   */\n      add\n        /* \"#utility.yul\":4975:5022   */\n      mstore\n        /* \"#utility.yul\":5039:5170   */\n      tag_181\n        /* \"#utility.yul\":5165:5169   */\n      dup2\n        /* \"#utility.yul\":5039:5170   */\n      tag_113\n      jump\t// in\n    tag_181:\n        /* \"#utility.yul\":5031:5170   */\n      swap1\n      pop\n        /* \"#utility.yul\":4758:5177   */\n      swap2\n      swap1\n      pop\n      jump\t// out\n        /* \"#utility.yul\":5183:5405   */\n    tag_114:\n        /* \"#utility.yul\":5323:5357   */\n      0x4f7065726174696f6e204572726f723a20436f6e747261637420697320706175\n        /* \"#utility.yul\":5319:5320   */\n      0x00\n        /* \"#utility.yul\":5311:5317   */\n      dup3\n        /* \"#utility.yul\":5307:5321   */\n      add\n        /* \"#utility.yul\":5300:5358   */\n      mstore\n        /* \"#utility.yul\":5392:5397   */\n      0x7365640000000000000000000000000000000000000000000000000000000000\n        /* \"#utility.yul\":5387:5389   */\n      0x20\n        /* \"#utility.yul\":5379:5385   */\n      dup3\n        /* \"#utility.yul\":5375:5390   */\n      add\n        /* \"#utility.yul\":5368:5398   */\n      mstore\n        /* \"#utility.yul\":5183:5405   */\n      pop\n      jump\t// out\n        /* \"#utility.yul\":5411:5777   */\n    tag_115:\n        /* \"#utility.yul\":5553:5556   */\n      0x00\n        /* \"#utility.yul\":5574:5641   */\n      tag_184\n        /* \"#utility.yul\":5638:5640   */\n      0x23\n        /* \"#utility.yul\":5633:5636   */\n      dup4\n        /* \"#utility.yul\":5574:5641   */\n      tag_111\n      jump\t// in\n    tag_184:\n        /* \"#utility.yul\":5567:5641   */\n      swap2\n      pop\n        /* \"#utility.yul\":5650:5743   */\n      tag_185\n        /* \"#utility.yul\":5739:5742   */\n      dup3\n        /* \"#utility.yul\":5650:5743   */\n      tag_114\n      jump\t// in\n    tag_185:\n        /* \"#utility.yul\":5768:5770   */\n      0x40\n        /* \"#utility.yul\":5763:5766   */\n      dup3\n        /* \"#utility.yul\":5759:5771   */\n      add\n        /* \"#utility.yul\":5752:5771   */\n      swap1\n      pop\n        /* \"#utility.yul\":5411:5777   */\n      swap2\n      swap1\n      pop\n      jump\t// out\n        /* \"#utility.yul\":5783:6202   */\n    tag_43:\n        /* \"#utility.yul\":5949:5953   */\n      0x00\n        /* \"#utility.yul\":5987:5989   */\n      0x20\n        /* \"#utility.yul\":5976:5985   */\n      dup3\n        /* \"#utility.yul\":5972:5990   */\n      add\n        /* \"#utility.yul\":5964:5990   */\n      swap1\n      pop\n        /* \"#utility.yul\":6036:6045   */\n      dup2\n        /* \"#utility.yul\":6030:6034   */\n      dup2\n        /* \"#utility.yul\":6026:6046   */\n      sub\n        /* \"#utility.yul\":6022:6023   */\n      0x00\n        /* \"#utility.yul\":6011:6020   */\n      dup4\n        /* \"#utility.yul\":6007:6024   */\n      add\n        /* \"#utility.yul\":6000:6047   */\n      mstore\n        /* \"#utility.yul\":6064:6195   */\n      tag_187\n        /* \"#utility.yul\":6190:6194   */\n      dup2\n        /* \"#utility.yul\":6064:6195   */\n      tag_115\n      jump\t// in\n    tag_187:\n        /* \"#utility.yul\":6056:6195   */\n      swap1\n      pop\n        /* \"#utility.yul\":5783:6202   */\n      swap2\n      swap1\n      pop\n      jump\t// out\n        /* \"#utility.yul\":6208:6451   */\n    tag_116:\n        /* \"#utility.yul\":6348:6382   */\n      0x526567697374726174696f6e204572726f723a2050726f6475637420696e7665\n        /* \"#utility.yul\":6344:6345   */\n      0x00\n        /* \"#utility.yul\":6336:6342   */\n      dup3\n        /* \"#utility.yul\":6332:6346   */\n      add\n        /* \"#utility.yul\":6325:6383   */\n      mstore\n        /* \"#utility.yul\":6417:6443   */\n      0x6e746f727920616c726561647920726567697374657265640000000000000000\n        /* \"#utility.yul\":6412:6414   */\n      0x20\n        /* \"#utility.yul\":6404:6410   */\n      dup3\n        /* \"#utility.yul\":6400:6415   */\n      add\n        /* \"#utility.yul\":6393:6444   */\n      mstore\n        /* \"#utility.yul\":6208:6451   */\n      pop\n      jump\t// out\n        /* \"#utility.yul\":6457:6823   */\n    tag_117:\n        /* \"#utility.yul\":6599:6602   */\n      0x00\n        /* \"#utility.yul\":6620:6687   */\n      tag_190\n        /* \"#utility.yul\":6684:6686   */\n      0x38\n        /* \"#utility.yul\":6679:6682   */\n      dup4\n        /* \"#utility.yul\":6620:6687   */\n      tag_111\n      jump\t// in\n    tag_190:\n        /* \"#utility.yul\":6613:6687   */\n      swap2\n      pop\n        /* \"#utility.yul\":6696:6789   */\n      tag_191\n        /* \"#utility.yul\":6785:6788   */\n      dup3\n        /* \"#utility.yul\":6696:6789   */\n      tag_116\n      jump\t// in\n    tag_191:\n        /* \"#utility.yul\":6814:6816   */\n      0x40\n        /* \"#utility.yul\":6809:6812   */\n      dup3\n        /* \"#utility.yul\":6805:6817   */\n      add\n        /* \"#utility.yul\":6798:6817   */\n      swap1\n      pop\n        /* \"#utility.yul\":6457:6823   */\n      swap2\n      swap1\n      pop\n      jump\t// out\n        /* \"#utility.yul\":6829:7248   */\n    tag_47:\n        /* \"#utility.yul\":6995:6999   */\n      0x00\n        /* \"#utility.yul\":7033:7035   */\n      0x20\n        /* \"#utility.yul\":7022:7031   */\n      dup3\n        /* \"#utility.yul\":7018:7036   */\n      add\n        /* \"#utility.yul\":7010:7036   */\n      swap1\n      pop\n        /* \"#utility.yul\":7082:7091   */\n      dup2\n        /* \"#utility.yul\":7076:7080   */\n      dup2\n        /* \"#utility.yul\":7072:7092   */\n      sub\n        /* \"#utility.yul\":7068:7069   */\n      0x00\n        /* \"#utility.yul\":7057:7066   */\n      dup4\n        /* \"#utility.yul\":7053:7070   */\n      add\n        /* \"#utility.yul\":7046:7093   */\n      mstore\n        /* \"#utility.yul\":7110:7241   */\n      tag_193\n        /* \"#utility.yul\":7236:7240   */\n      dup2\n        /* \"#utility.yul\":7110:7241   */\n      tag_117\n      jump\t// in\n    tag_193:\n        /* \"#utility.yul\":7102:7241   */\n      swap1\n      pop\n        /* \"#utility.yul\":6829:7248   */\n      swap2\n      swap1\n      pop\n      jump\t// out\n        /* \"#utility.yul\":7254:7482   */\n    tag_118:\n        /* \"#utility.yul\":7394:7428   */\n      0x526567697374726174696f6e204572726f723a20496e76616c6964206f776e65\n        /* \"#utility.yul\":7390:7391   */\n      0x00\n        /* \"#utility.yul\":7382:7388   */\n      dup3\n        /* \"#utility.yul\":7378:7392   */\n      add\n        /* \"#utility.yul\":7371:7429   */\n      mstore\n        /* \"#utility.yul\":7463:7474   */\n      0x7220616464726573730000000000000000000000000000000000000000000000\n        /* \"#utility.yul\":7458:7460   */\n      0x20\n        /* \"#utility.yul\":7450:7456   */\n      dup3\n        /* \"#utility.yul\":7446:7461   */\n      add\n        /* \"#utility.yul\":7439:7475   */\n      mstore\n        /* \"#utility.yul\":7254:7482   */\n      pop\n      jump\t// out\n        /* \"#utility.yul\":7488:7854   */\n    tag_119:\n        /* \"#utility.yul\":7630:7633   */\n      0x00\n        /* \"#utility.yul\":7651:7718   */\n      tag_196\n        /* \"#utility.yul\":7715:7717   */\n      0x29\n        /* \"#utility.yul\":7710:7713   */\n      dup4\n        /* \"#utility.yul\":7651:7718   */\n      tag_111\n      jump\t// in\n    tag_196:\n        /* \"#utility.yul\":7644:7718   */\n      swap2\n      pop\n        /* \"#utility.yul\":7727:7820   */\n      tag_197\n        /* \"#utility.yul\":7816:7819   */\n      dup3\n        /* \"#utility.yul\":7727:7820   */\n      tag_118\n      jump\t// in\n    tag_197:\n        /* \"#utility.yul\":7845:7847   */\n      0x40\n        /* \"#utility.yul\":7840:7843   */\n      dup3\n        /* \"#utility.yul\":7836:7848   */\n      add\n        /* \"#utility.yul\":7829:7848   */\n      swap1\n      pop\n        /* \"#utility.yul\":7488:7854   */\n      swap2\n      swap1\n      pop\n      jump\t// out\n        /* \"#utility.yul\":7860:8279   */\n    tag_50:\n        /* \"#utility.yul\":8026:8030   */\n      0x00\n        /* \"#utility.yul\":8064:8066   */\n      0x20\n        /* \"#utility.yul\":8053:8062   */\n      dup3\n        /* \"#utility.yul\":8049:8067   */\n      add\n        /* \"#utility.yul\":8041:8067   */\n      swap1\n      pop\n        /* \"#utility.yul\":8113:8122   */\n      dup2\n        /* \"#utility.yul\":8107:8111   */\n      dup2\n        /* \"#utility.yul\":8103:8123   */\n      sub\n        /* \"#utility.yul\":8099:8100   */\n      0x00\n        /* \"#utility.yul\":8088:8097   */\n      dup4\n        /* \"#utility.yul\":8084:8101   */\n      add\n        /* \"#utility.yul\":8077:8124   */\n      mstore\n        /* \"#utility.yul\":8141:8272   */\n      tag_199\n        /* \"#utility.yul\":8267:8271   */\n      dup2\n        /* \"#utility.yul\":8141:8272   */\n      tag_119\n      jump\t// in\n    tag_199:\n        /* \"#utility.yul\":8133:8272   */\n      swap1\n      pop\n        /* \"#utility.yul\":7860:8279   */\n      swap2\n      swap1\n      pop\n      jump\t// out\n        /* \"#utility.yul\":8285:8507   */\n    tag_52:\n        /* \"#utility.yul\":8378:8382   */\n      0x00\n        /* \"#utility.yul\":8416:8418   */\n      0x20\n        /* \"#utility.yul\":8405:8414   */\n      dup3\n        /* \"#utility.yul\":8401:8419   */\n      add\n        /* \"#utility.yul\":8393:8419   */\n      swap1\n      pop\n        /* \"#utility.yul\":8429:8500   */\n      tag_201\n        /* \"#utility.yul\":8497:8498   */\n      0x00\n        /* \"#utility.yul\":8486:8495   */\n      dup4\n        /* \"#utility.yul\":8482:8499   */\n      add\n        /* \"#utility.yul\":8473:8479   */\n      dup5\n        /* \"#utility.yul\":8429:8500   */\n      tag_107\n      jump\t// in\n    tag_201:\n        /* \"#utility.yul\":8285:8507   */\n      swap3\n      swap2\n      pop\n      pop\n      jump\t// out\n        /* \"#utility.yul\":8513:8748   */\n    tag_120:\n        /* \"#utility.yul\":8653:8687   */\n      0x5175657279204572726f723a2050726f64756374206e6f742072656769737465\n        /* \"#utility.yul\":8649:8650   */\n      0x00\n        /* \"#utility.yul\":8641:8647   */\n      dup3\n        /* \"#utility.yul\":8637:8651   */\n      add\n        /* \"#utility.yul\":8630:8688   */\n      mstore\n        /* \"#utility.yul\":8722:8740   */\n      0x72656420696e20696e76656e746f727900000000000000000000000000000000\n        /* \"#utility.yul\":8717:8719   */\n      0x20\n        /* \"#utility.yul\":8709:8715   */\n      dup3\n        /* \"#utility.yul\":8705:8720   */\n      add\n        /* \"#utility.yul\":8698:8741   */\n      mstore\n        /* \"#utility.yul\":8513:8748   */\n      pop\n      jump\t// out\n        /* \"#utility.yul\":8754:9120   */\n    tag_121:\n        /* \"#utility.yul\":8896:8899   */\n      0x00\n        /* \"#utility.yul\":8917:8984   */\n      tag_204\n        /* \"#utility.yul\":8981:8983   */\n      0x30\n        /* \"#utility.yul\":8976:8979   */\n      dup4\n        /* \"#utility.yul\":8917:8984   */\n      tag_111\n      jump\t// in\n    tag_204:\n        /* \"#utility.yul\":8910:8984   */\n      swap2\n      pop\n        /* \"#utility.yul\":8993:9086   */\n      tag_205\n        /* \"#utility.yul\":9082:9085   */\n      dup3\n        /* \"#utility.yul\":8993:9086   */\n      tag_120\n      jump\t// in\n    tag_205:\n        /* \"#utility.yul\":9111:9113   */\n      0x40\n        /* \"#utility.yul\":9106:9109   */\n      dup3\n        /* \"#utility.yul\":9102:9114   */\n      add\n        /* \"#utility.yul\":9095:9114   */\n      swap1\n      pop\n        /* \"#utility.yul\":8754:9120   */\n      swap2\n      swap1\n      pop\n      jump\t// out\n        /* \"#utility.yul\":9126:9545   */\n    tag_63:\n        /* \"#utility.yul\":9292:9296   */\n      0x00\n        /* \"#utility.yul\":9330:9332   */\n      0x20\n        /* \"#utility.yul\":9319:9328   */\n      dup3\n        /* \"#utility.yul\":9315:9333   */\n      add\n        /* \"#utility.yul\":9307:9333   */\n      swap1\n      pop\n        /* \"#utility.yul\":9379:9388   */\n      dup2\n        /* \"#utility.yul\":9373:9377   */\n      dup2\n        /* \"#utility.yul\":9369:9389   */\n      sub\n        /* \"#utility.yul\":9365:9366   */\n      0x00\n        /* \"#utility.yul\":9354:9363   */\n      dup4\n        /* \"#utility.yul\":9350:9367   */\n      add\n        /* \"#utility.yul\":9343:9390   */\n      mstore\n        /* \"#utility.yul\":9407:9538   */\n      tag_207\n        /* \"#utility.yul\":9533:9537   */\n      dup2\n        /* \"#utility.yul\":9407:9538   */\n      tag_121\n      jump\t// in\n    tag_207:\n        /* \"#utility.yul\":9399:9538   */\n      swap1\n      pop\n        /* \"#utility.yul\":9126:9545   */\n      swap2\n      swap1\n      pop\n      jump\t// out\n        /* \"#utility.yul\":9551:9733   */\n    tag_122:\n        /* \"#utility.yul\":9691:9725   */\n      0x52656d6f76616c204572726f723a204d616e61676572206e6f7420666f756e64\n        /* \"#utility.yul\":9687:9688   */\n      0x00\n        /* \"#utility.yul\":9679:9685   */\n      dup3\n        /* \"#utility.yul\":9675:9689   */\n      add\n        /* \"#utility.yul\":9668:9726   */\n      mstore\n        /* \"#utility.yul\":9551:9733   */\n      pop\n      jump\t// out\n        /* \"#utility.yul\":9739:10105   */\n    tag_123:\n        /* \"#utility.yul\":9881:9884   */\n      0x00\n        /* \"#utility.yul\":9902:9969   */\n      tag_210\n        /* \"#utility.yul\":9966:9968   */\n      0x20\n        /* \"#utility.yul\":9961:9964   */\n      dup4\n        /* \"#utility.yul\":9902:9969   */\n      tag_111\n      jump\t// in\n    tag_210:\n        /* \"#utility.yul\":9895:9969   */\n      swap2\n      pop\n        /* \"#utility.yul\":9978:10071   */\n      tag_211\n        /* \"#utility.yul\":10067:10070   */\n      dup3\n        /* \"#utility.yul\":9978:10071   */\n      tag_122\n      jump\t// in\n    tag_211:\n        /* \"#utility.yul\":10096:10098   */\n      0x20\n        /* \"#utility.yul\":10091:10094   */\n      dup3\n        /* \"#utility.yul\":10087:10099   */\n      add\n        /* \"#utility.yul\":10080:10099   */\n      swap1\n      pop\n        /* \"#utility.yul\":9739:10105   */\n      swap2\n      swap1\n      pop\n      jump\t// out\n        /* \"#utility.yul\":10111:10530   */\n    tag_82:\n        /* \"#utility.yul\":10277:10281   */\n      0x00\n        /* \"#utility.yul\":10315:10317   */\n      0x20\n        /* \"#utility.yul\":10304:10313   */\n      dup3\n        /* \"#utility.yul\":10300:10318   */\n      add\n        /* \"#utility.yul\":10292:10318   */\n      swap1\n      pop\n        /* \"#utility.yul\":10364:10373   */\n      dup2\n        /* \"#utility.yul\":10358:10362   */\n      dup2\n        /* \"#utility.yul\":10354:10374   */\n      sub\n        /* \"#utility.yul\":10350:10351   */\n      0x00\n        /* \"#utility.yul\":10339:10348   */\n      dup4\n        /* \"#utility.yul\":10335:10352   */\n      add\n        /* \"#utility.yul\":10328:10375   */\n      mstore\n        /* \"#utility.yul\":10392:10523   */\n      tag_213\n        /* \"#utility.yul\":10518:10522   */\n      dup2\n        /* \"#utility.yul\":10392:10523   */\n      tag_123\n      jump\t// in\n    tag_213:\n        /* \"#utility.yul\":10384:10523   */\n      swap1\n      pop\n        /* \"#utility.yul\":10111:10530   */\n      swap2\n      swap1\n      pop\n      jump\t// out\n        /* \"#utility.yul\":10536:10763   */\n    tag_124:\n        /* \"#utility.yul\":10676:10710   */\n      0x417070726f76616c204572726f723a204d616e6167657220616c726561647920\n        /* \"#utility.yul\":10672:10673   */\n      0x00\n        /* \"#utility.yul\":10664:10670   */\n      dup3\n        /* \"#utility.yul\":10660:10674   */\n      add\n        /* \"#utility.yul\":10653:10711   */\n      mstore\n        /* \"#utility.yul\":10745:10755   */\n      0x617070726f766564000000000000000000000000000000000000000000000000\n        /* \"#utility.yul\":10740:10742   */\n      0x20\n        /* \"#utility.yul\":10732:10738   */\n      dup3\n        /* \"#utility.yul\":10728:10743   */\n      add\n        /* \"#utility.yul\":10721:10756   */\n      mstore\n        /* \"#utility.yul\":10536:10763   */\n      pop\n      jump\t// out\n        /* \"#utility.yul\":10769:11135   */\n    tag_125:\n        /* \"#utility.yul\":10911:10914   */\n      0x00\n        /* \"#utility.yul\":10932:10999   */\n      tag_216\n        /* \"#utility.yul\":10996:10998   */\n      0x28\n        /* \"#utility.yul\":10991:10994   */\n      dup4\n        /* \"#utility.yul\":10932:10999   */\n      tag_111\n      jump\t// in\n    tag_216:\n        /* \"#utility.yul\":10925:10999   */\n      swap2\n      pop\n        /* \"#utility.yul\":11008:11101   */\n      tag_217\n        /* \"#utility.yul\":11097:11100   */\n      dup3\n        /* \"#utility.yul\":11008:11101   */\n      tag_124\n      jump\t// in\n    tag_217:\n        /* \"#utility.yul\":11126:11128   */\n      0x40\n        /* \"#utility.yul\":11121:11124   */\n      dup3\n        /* \"#utility.yul\":11117:11129   */\n      add\n        /* \"#utility.yul\":11110:11129   */\n      swap1\n      pop\n        /* \"#utility.yul\":10769:11135   */\n      swap2\n      swap1\n      pop\n      jump\t// out\n        /* \"#utility.yul\":11141:11560   */\n    tag_96:\n        /* \"#utility.yul\":11307:11311   */\n      0x00\n        /* \"#utility.yul\":11345:11347   */\n      0x20\n        /* \"#utility.yul\":11334:11343   */\n      dup3\n        /* \"#utility.yul\":11330:11348   */\n      add\n        /* \"#utility.yul\":11322:11348   */\n      swap1\n      pop\n        /* \"#utility.yul\":11394:11403   */\n      dup2\n        /* \"#utility.yul\":11388:11392   */\n      dup2\n        /* \"#utility.yul\":11384:11404   */\n      sub\n        /* \"#utility.yul\":11380:11381   */\n      0x00\n        /* \"#utility.yul\":11369:11378   */\n      dup4\n        /* \"#utility.yul\":11365:11382   */\n      add\n        /* \"#utility.yul\":11358:11405   */\n      mstore\n        /* \"#utility.yul\":11422:11553   */\n      tag_219\n        /* \"#utility.yul\":11548:11552   */\n      dup2\n        /* \"#utility.yul\":11422:11553   */\n      tag_125\n      jump\t// in\n    tag_219:\n        /* \"#utility.yul\":11414:11553   */\n      swap1\n      pop\n        /* \"#utility.yul\":11141:11560   */\n      swap2\n      swap1\n      pop\n      jump\t// out\n\n    auxdata: 0xa2646970667358221220d16ceb57d5e30b386284bda539098be655161f15475f6298aa358200206f3b3664736f6c634300081a0033\n}\n",
				"bytecode": {
					"linkReferences": {},
					"object": "6080604052348015600e575f80fd5b506001805f3373ffffffffffffffffffffffffffffffffffffffff1673ffffffffffffffffffffffffffffffffffffffff1681526020019081526020015f205f6101000a81548160ff0219169083151502179055503373ffffffffffffffffffffffffffffffffffffffff167f450ad6a6ac3c2e8b8a02820cb64d6102a1f91ebe1fa3848a0cfc45c870c043af60405160405180910390a2611238806100b35f395ff3fe608060405234801561000f575f80fd5b506004361061007b575f3560e01c80635b298d32116100595780635b298d32146100c1578063ac18de43146100f4578063b33712c514610110578063b5eee7221461011a5761007b565b806315f3d72b1461007f578063439766ce1461009b578063522547a8146100a5575b5f80fd5b61009960048036038101906100949190610cbe565b610136565b005b6100a36103f6565b005b6100bf60048036038101906100ba9190610d0e565b61049b565b005b6100db60048036038101906100d69190610d4c565b610668565b6040516100eb9493929190610daf565b60405180910390f35b61010e60048036038101906101099190610df2565b610792565b005b61011861098d565b005b610134600480360381019061012f9190610df2565b610a31565b005b60015f3373ffffffffffffffffffffffffffffffffffffffff1673ffffffffffffffffffffffffffffffffffffffff1681526020019081526020015f205f9054906101000a900460ff166101bf576040517f08c379a00000000000000000000000000000000000000000000000000000000081526004016101b690610e9d565b60405180910390fd5b60025f9054906101000a900460ff161561020e576040517f08c379a000000000000000000000000000000000000000000000000000000000815260040161020590610f2b565b60405180910390fd5b5f808481526020019081526020015f2060020160149054906101000a900460ff161561026f576040517f08c379a000000000000000000000000000000000000000000000000000000000815260040161026690610fb9565b60405180910390fd5b5f73ffffffffffffffffffffffffffffffffffffffff168173ffffffffffffffffffffffffffffffffffffffff16036102dd576040517f08c379a00000000000000000000000000000000000000000000000000000000081526004016102d490611047565b60405180910390fd5b60405180608001604052808481526020018381526020018273ffffffffffffffffffffffffffffffffffffffff168152602001600115158152505f808581526020019081526020015f205f820151815f0155602082015181600101556040820151816002015f6101000a81548173ffffffffffffffffffffffffffffffffffffffff021916908373ffffffffffffffffffffffffffffffffffffffff16021790555060608201518160020160146101000a81548160ff0219169083151502179055509050508073ffffffffffffffffffffffffffffffffffffffff16837fbd435e244288d5af455bcc628eb4f794e234450b79a0dc9db86169eedbd5fe0f846040516103e99190611065565b60405180910390a3505050565b60015f3373ffffffffffffffffffffffffffffffffffffffff1673ffffffffffffffffffffffffffffffffffffffff1681526020019081526020015f205f9054906101000a900460ff1661047f576040517f08c379a000000000000000000000000000000000000000000000000000000000815260040161047690610e9d565b60405180910390fd5b600160025f6101000a81548160ff021916908315150217905550565b60015f3373ffffffffffffffffffffffffffffffffffffffff1673ffffffffffffffffffffffffffffffffffffffff1681526020019081526020015f205f9054906101000a900460ff16610524576040517f08c379a000000000000000000000000000000000000000000000000000000000815260040161051b90610e9d565b60405180910390fd5b815f808281526020019081526020015f2060020160149054906101000a900460ff16610585576040517f08c379a000000000000000000000000000000000000000000000000000000000815260040161057c906110ee565b60405180910390fd5b60025f9054906101000a900460ff16156105d4576040517f08c379a00000000000000000000000000000000000000000000000000000000081526004016105cb90610f2b565b60405180910390fd5b5f805f8581526020019081526020015f209050828160010181905550806002015f9054906101000a900473ffffffffffffffffffffffffffffffffffffffff1673ffffffffffffffffffffffffffffffffffffffff16847f248922c07ff27dfe3de8404bfa838352eb6a3fa25efff3c79598356d8c7ccb6d8560405161065a9190611065565b60405180910390a350505050565b5f805f80845f808281526020019081526020015f2060020160149054906101000a900460ff166106cd576040517f08c379a00000000000000000000000000000000000000000000000000000000081526004016106c4906110ee565b60405180910390fd5b5f805f8881526020019081526020015f206040518060800160405290815f820154815260200160018201548152602001600282015f9054906101000a900473ffffffffffffffffffffffffffffffffffffffff1673ffffffffffffffffffffffffffffffffffffffff1673ffffffffffffffffffffffffffffffffffffffff1681526020016002820160149054906101000a900460ff1615151515815250509050805f0151816020015182604001518360600151955095509550955050509193509193565b60015f3373ffffffffffffffffffffffffffffffffffffffff1673ffffffffffffffffffffffffffffffffffffffff1681526020019081526020015f205f9054906101000a900460ff1661081b576040517f08c379a000000000000000000000000000000000000000000000000000000000815260040161081290610e9d565b60405180910390fd5b60025f9054906101000a900460ff161561086a576040517f08c379a000000000000000000000000000000000000000000000000000000000815260040161086190610f2b565b60405180910390fd5b60015f8273ffffffffffffffffffffffffffffffffffffffff1673ffffffffffffffffffffffffffffffffffffffff1681526020019081526020015f205f9054906101000a900460ff166108f3576040517f08c379a00000000000000000000000000000000000000000000000000000000081526004016108ea90611156565b60405180910390fd5b5f60015f8373ffffffffffffffffffffffffffffffffffffffff1673ffffffffffffffffffffffffffffffffffffffff1681526020019081526020015f205f6101000a81548160ff0219169083151502179055508073ffffffffffffffffffffffffffffffffffffffff167fef69f7d97228658c92417be1b16b19058315de71fecb435d07b7d23728b6bd3160405160405180910390a250565b60015f3373ffffffffffffffffffffffffffffffffffffffff1673ffffffffffffffffffffffffffffffffffffffff1681526020019081526020015f205f9054906101000a900460ff16610a16576040517f08c379a0000000000000000000000000000000000000000000000000000000008152600401610a0d90610e9d565b60405180910390fd5b5f60025f6101000a81548160ff021916908315150217905550565b60015f3373ffffffffffffffffffffffffffffffffffffffff1673ffffffffffffffffffffffffffffffffffffffff1681526020019081526020015f205f9054906101000a900460ff16610aba576040517f08c379a0000000000000000000000000000000000000000000000000000000008152600401610ab190610e9d565b60405180910390fd5b60025f9054906101000a900460ff1615610b09576040517f08c379a0000000000000000000000000000000000000000000000000000000008152600401610b0090610f2b565b60405180910390fd5b60015f8273ffffffffffffffffffffffffffffffffffffffff1673ffffffffffffffffffffffffffffffffffffffff1681526020019081526020015f205f9054906101000a900460ff1615610b93576040517f08c379a0000000000000000000000000000000000000000000000000000000008152600401610b8a906111e4565b60405180910390fd5b6001805f8373ffffffffffffffffffffffffffffffffffffffff1673ffffffffffffffffffffffffffffffffffffffff1681526020019081526020015f205f6101000a81548160ff0219169083151502179055508073ffffffffffffffffffffffffffffffffffffffff167f450ad6a6ac3c2e8b8a02820cb64d6102a1f91ebe1fa3848a0cfc45c870c043af60405160405180910390a250565b5f80fd5b5f819050919050565b610c4381610c31565b8114610c4d575f80fd5b50565b5f81359050610c5e81610c3a565b92915050565b5f73ffffffffffffffffffffffffffffffffffffffff82169050919050565b5f610c8d82610c64565b9050919050565b610c9d81610c83565b8114610ca7575f80fd5b50565b5f81359050610cb881610c94565b92915050565b5f805f60608486031215610cd557610cd4610c2d565b5b5f610ce286828701610c50565b9350506020610cf386828701610c50565b9250506040610d0486828701610caa565b9150509250925092565b5f8060408385031215610d2457610d23610c2d565b5b5f610d3185828601610c50565b9250506020610d4285828601610c50565b9150509250929050565b5f60208284031215610d6157610d60610c2d565b5b5f610d6e84828501610c50565b91505092915050565b610d8081610c31565b82525050565b610d8f81610c83565b82525050565b5f8115159050919050565b610da981610d95565b82525050565b5f608082019050610dc25f830187610d77565b610dcf6020830186610d77565b610ddc6040830185610d86565b610de96060830184610da0565b95945050505050565b5f60208284031215610e0757610e06610c2d565b5b5f610e1484828501610caa565b91505092915050565b5f82825260208201905092915050565b7f4163636573732044656e6965643a204e6f7420616e20617574686f72697a65645f8201527f206d616e61676572000000000000000000000000000000000000000000000000602082015250565b5f610e87602883610e1d565b9150610e9282610e2d565b604082019050919050565b5f6020820190508181035f830152610eb481610e7b565b9050919050565b7f4f7065726174696f6e204572726f723a20436f6e7472616374206973207061755f8201527f7365640000000000000000000000000000000000000000000000000000000000602082015250565b5f610f15602383610e1d565b9150610f2082610ebb565b604082019050919050565b5f6020820190508181035f830152610f4281610f09565b9050919050565b7f526567697374726174696f6e204572726f723a2050726f6475637420696e76655f8201527f6e746f727920616c726561647920726567697374657265640000000000000000602082015250565b5f610fa3603883610e1d565b9150610fae82610f49565b604082019050919050565b5f6020820190508181035f830152610fd081610f97565b9050919050565b7f526567697374726174696f6e204572726f723a20496e76616c6964206f776e655f8201527f7220616464726573730000000000000000000000000000000000000000000000602082015250565b5f611031602983610e1d565b915061103c82610fd7565b604082019050919050565b5f6020820190508181035f83015261105e81611025565b9050919050565b5f6020820190506110785f830184610d77565b92915050565b7f5175657279204572726f723a2050726f64756374206e6f7420726567697374655f8201527f72656420696e20696e76656e746f727900000000000000000000000000000000602082015250565b5f6110d8603083610e1d565b91506110e38261107e565b604082019050919050565b5f6020820190508181035f830152611105816110cc565b9050919050565b7f52656d6f76616c204572726f723a204d616e61676572206e6f7420666f756e645f82015250565b5f611140602083610e1d565b915061114b8261110c565b602082019050919050565b5f6020820190508181035f83015261116d81611134565b9050919050565b7f417070726f76616c204572726f723a204d616e6167657220616c7265616479205f8201527f617070726f766564000000000000000000000000000000000000000000000000602082015250565b5f6111ce602883610e1d565b91506111d982611174565b604082019050919050565b5f6020820190508181035f8301526111fb816111c2565b905091905056fea2646970667358221220d16ceb57d5e30b386284bda539098be655161f15475f6298aa358200206f3b3664736f6c634300081a0033",
					"opcodes": "PUSH1 0x80 PUSH1 0x40 MSTORE CALLVALUE DUP1 ISZERO PUSH1 0xE JUMPI PUSH0 DUP1 REVERT JUMPDEST POP PUSH1 0x1 DUP1 PUSH0 CALLER PUSH20 0xFFFFFFFFFFFFFFFFFFFFFFFFFFFFFFFFFFFFFFFF AND PUSH20 0xFFFFFFFFFFFFFFFFFFFFFFFFFFFFFFFFFFFFFFFF AND DUP2 MSTORE PUSH1 0x20 ADD SWAP1 DUP2 MSTORE PUSH1 0x20 ADD PUSH0 KECCAK256 PUSH0 PUSH2 0x100 EXP DUP2 SLOAD DUP2 PUSH1 0xFF MUL NOT AND SWAP1 DUP4 ISZERO ISZERO MUL OR SWAP1 SSTORE POP CALLER PUSH20 0xFFFFFFFFFFFFFFFFFFFFFFFFFFFFFFFFFFFFFFFF AND PUSH32 0x450AD6A6AC3C2E8B8A02820CB64D6102A1F91EBE1FA3848A0CFC45C870C043AF PUSH1 0x40 MLOAD PUSH1 0x40 MLOAD DUP1 SWAP2 SUB SWAP1 LOG2 PUSH2 0x1238 DUP1 PUSH2 0xB3 PUSH0 CODECOPY PUSH0 RETURN INVALID PUSH1 0x80 PUSH1 0x40 MSTORE CALLVALUE DUP1 ISZERO PUSH2 0xF JUMPI PUSH0 DUP1 REVERT JUMPDEST POP PUSH1 0x4 CALLDATASIZE LT PUSH2 0x7B JUMPI PUSH0 CALLDATALOAD PUSH1 0xE0 SHR DUP1 PUSH4 0x5B298D32 GT PUSH2 0x59 JUMPI DUP1 PUSH4 0x5B298D32 EQ PUSH2 0xC1 JUMPI DUP1 PUSH4 0xAC18DE43 EQ PUSH2 0xF4 JUMPI DUP1 PUSH4 0xB33712C5 EQ PUSH2 0x110 JUMPI DUP1 PUSH4 0xB5EEE722 EQ PUSH2 0x11A JUMPI PUSH2 0x7B JUMP JUMPDEST DUP1 PUSH4 0x15F3D72B EQ PUSH2 0x7F JUMPI DUP1 PUSH4 0x439766CE EQ PUSH2 0x9B JUMPI DUP1 PUSH4 0x522547A8 EQ PUSH2 0xA5 JUMPI JUMPDEST PUSH0 DUP1 REVERT JUMPDEST PUSH2 0x99 PUSH1 0x4 DUP1 CALLDATASIZE SUB DUP2 ADD SWAP1 PUSH2 0x94 SWAP2 SWAP1 PUSH2 0xCBE JUMP JUMPDEST PUSH2 0x136 JUMP JUMPDEST STOP JUMPDEST PUSH2 0xA3 PUSH2 0x3F6 JUMP JUMPDEST STOP JUMPDEST PUSH2 0xBF PUSH1 0x4 DUP1 CALLDATASIZE SUB DUP2 ADD SWAP1 PUSH2 0xBA SWAP2 SWAP1 PUSH2 0xD0E JUMP JUMPDEST PUSH2 0x49B JUMP JUMPDEST STOP JUMPDEST PUSH2 0xDB PUSH1 0x4 DUP1 CALLDATASIZE SUB DUP2 ADD SWAP1 PUSH2 0xD6 SWAP2 SWAP1 PUSH2 0xD4C JUMP JUMPDEST PUSH2 0x668 JUMP JUMPDEST PUSH1 0x40 MLOAD PUSH2 0xEB SWAP5 SWAP4 SWAP3 SWAP2 SWAP1 PUSH2 0xDAF JUMP JUMPDEST PUSH1 0x40 MLOAD DUP1 SWAP2 SUB SWAP1 RETURN JUMPDEST PUSH2 0x10E PUSH1 0x4 DUP1 CALLDATASIZE SUB DUP2 ADD SWAP1 PUSH2 0x109 SWAP2 SWAP1 PUSH2 0xDF2 JUMP JUMPDEST PUSH2 0x792 JUMP JUMPDEST STOP JUMPDEST PUSH2 0x118 PUSH2 0x98D JUMP JUMPDEST STOP JUMPDEST PUSH2 0x134 PUSH1 0x4 DUP1 CALLDATASIZE SUB DUP2 ADD SWAP1 PUSH2 0x12F SWAP2 SWAP1 PUSH2 0xDF2 JUMP JUMPDEST PUSH2 0xA31 JUMP JUMPDEST STOP JUMPDEST PUSH1 0x1 PUSH0 CALLER PUSH20 0xFFFFFFFFFFFFFFFFFFFFFFFFFFFFFFFFFFFFFFFF AND PUSH20 0xFFFFFFFFFFFFFFFFFFFFFFFFFFFFFFFFFFFFFFFF AND DUP2 MSTORE PUSH1 0x20 ADD SWAP1 DUP2 MSTORE PUSH1 0x20 ADD PUSH0 KECCAK256 PUSH0 SWAP1 SLOAD SWAP1 PUSH2 0x100 EXP SWAP1 DIV PUSH1 0xFF AND PUSH2 0x1BF JUMPI PUSH1 0x40 MLOAD PUSH32 0x8C379A000000000000000000000000000000000000000000000000000000000 DUP2 MSTORE PUSH1 0x4 ADD PUSH2 0x1B6 SWAP1 PUSH2 0xE9D JUMP JUMPDEST PUSH1 0x40 MLOAD DUP1 SWAP2 SUB SWAP1 REVERT JUMPDEST PUSH1 0x2 PUSH0 SWAP1 SLOAD SWAP1 PUSH2 0x100 EXP SWAP1 DIV PUSH1 0xFF AND ISZERO PUSH2 0x20E JUMPI PUSH1 0x40 MLOAD PUSH32 0x8C379A000000000000000000000000000000000000000000000000000000000 DUP2 MSTORE PUSH1 0x4 ADD PUSH2 0x205 SWAP1 PUSH2 0xF2B JUMP JUMPDEST PUSH1 0x40 MLOAD DUP1 SWAP2 SUB SWAP1 REVERT JUMPDEST PUSH0 DUP1 DUP5 DUP2 MSTORE PUSH1 0x20 ADD SWAP1 DUP2 MSTORE PUSH1 0x20 ADD PUSH0 KECCAK256 PUSH1 0x2 ADD PUSH1 0x14 SWAP1 SLOAD SWAP1 PUSH2 0x100 EXP SWAP1 DIV PUSH1 0xFF AND ISZERO PUSH2 0x26F JUMPI PUSH1 0x40 MLOAD PUSH32 0x8C379A000000000000000000000000000000000000000000000000000000000 DUP2 MSTORE PUSH1 0x4 ADD PUSH2 0x266 SWAP1 PUSH2 0xFB9 JUMP JUMPDEST PUSH1 0x40 MLOAD DUP1 SWAP2 SUB SWAP1 REVERT JUMPDEST PUSH0 PUSH20 0xFFFFFFFFFFFFFFFFFFFFFFFFFFFFFFFFFFFFFFFF AND DUP2 PUSH20 0xFFFFFFFFFFFFFFFFFFFFFFFFFFFFFFFFFFFFFFFF AND SUB PUSH2 0x2DD JUMPI PUSH1 0x40 MLOAD PUSH32 0x8C379A000000000000000000000000000000000000000000000000000000000 DUP2 MSTORE PUSH1 0x4 ADD PUSH2 0x2D4 SWAP1 PUSH2 0x1047 JUMP JUMPDEST PUSH1 0x40 MLOAD DUP1 SWAP2 SUB SWAP1 REVERT JUMPDEST PUSH1 0x40 MLOAD DUP1 PUSH1 0x80 ADD PUSH1 0x40 MSTORE DUP1 DUP5 DUP2 MSTORE PUSH1 0x20 ADD DUP4 DUP2 MSTORE PUSH1 0x20 ADD DUP3 PUSH20 0xFFFFFFFFFFFFFFFFFFFFFFFFFFFFFFFFFFFFFFFF AND DUP2 MSTORE PUSH1 0x20 ADD PUSH1 0x1 ISZERO ISZERO DUP2 MSTORE POP PUSH0 DUP1 DUP6 DUP2 MSTORE PUSH1 0x20 ADD SWAP1 DUP2 MSTORE PUSH1 0x20 ADD PUSH0 KECCAK256 PUSH0 DUP3 ADD MLOAD DUP2 PUSH0 ADD SSTORE PUSH1 0x20 DUP3 ADD MLOAD DUP2 PUSH1 0x1 ADD SSTORE PUSH1 0x40 DUP3 ADD MLOAD DUP2 PUSH1 0x2 ADD PUSH0 PUSH2 0x100 EXP DUP2 SLOAD DUP2 PUSH20 0xFFFFFFFFFFFFFFFFFFFFFFFFFFFFFFFFFFFFFFFF MUL NOT AND SWAP1 DUP4 PUSH20 0xFFFFFFFFFFFFFFFFFFFFFFFFFFFFFFFFFFFFFFFF AND MUL OR SWAP1 SSTORE POP PUSH1 0x60 DUP3 ADD MLOAD DUP2 PUSH1 0x2 ADD PUSH1 0x14 PUSH2 0x100 EXP DUP2 SLOAD DUP2 PUSH1 0xFF MUL NOT AND SWAP1 DUP4 ISZERO ISZERO MUL OR SWAP1 SSTORE POP SWAP1 POP POP DUP1 PUSH20 0xFFFFFFFFFFFFFFFFFFFFFFFFFFFFFFFFFFFFFFFF AND DUP4 PUSH32 0xBD435E244288D5AF455BCC628EB4F794E234450B79A0DC9DB86169EEDBD5FE0F DUP5 PUSH1 0x40 MLOAD PUSH2 0x3E9 SWAP2 SWAP1 PUSH2 0x1065 JUMP JUMPDEST PUSH1 0x40 MLOAD DUP1 SWAP2 SUB SWAP1 LOG3 POP POP POP JUMP JUMPDEST PUSH1 0x1 PUSH0 CALLER PUSH20 0xFFFFFFFFFFFFFFFFFFFFFFFFFFFFFFFFFFFFFFFF AND PUSH20 0xFFFFFFFFFFFFFFFFFFFFFFFFFFFFFFFFFFFFFFFF AND DUP2 MSTORE PUSH1 0x20 ADD SWAP1 DUP2 MSTORE PUSH1 0x20 ADD PUSH0 KECCAK256 PUSH0 SWAP1 SLOAD SWAP1 PUSH2 0x100 EXP SWAP1 DIV PUSH1 0xFF AND PUSH2 0x47F JUMPI PUSH1 0x40 MLOAD PUSH32 0x8C379A000000000000000000000000000000000000000000000000000000000 DUP2 MSTORE PUSH1 0x4 ADD PUSH2 0x476 SWAP1 PUSH2 0xE9D JUMP JUMPDEST PUSH1 0x40 MLOAD DUP1 SWAP2 SUB SWAP1 REVERT JUMPDEST PUSH1 0x1 PUSH1 0x2 PUSH0 PUSH2 0x100 EXP DUP2 SLOAD DUP2 PUSH1 0xFF MUL NOT AND SWAP1 DUP4 ISZERO ISZERO MUL OR SWAP1 SSTORE POP JUMP JUMPDEST PUSH1 0x1 PUSH0 CALLER PUSH20 0xFFFFFFFFFFFFFFFFFFFFFFFFFFFFFFFFFFFFFFFF AND PUSH20 0xFFFFFFFFFFFFFFFFFFFFFFFFFFFFFFFFFFFFFFFF AND DUP2 MSTORE PUSH1 0x20 ADD SWAP1 DUP2 MSTORE PUSH1 0x20 ADD PUSH0 KECCAK256 PUSH0 SWAP1 SLOAD SWAP1 PUSH2 0x100 EXP SWAP1 DIV PUSH1 0xFF AND PUSH2 0x524 JUMPI PUSH1 0x40 MLOAD PUSH32 0x8C379A000000000000000000000000000000000000000000000000000000000 DUP2 MSTORE PUSH1 0x4 ADD PUSH2 0x51B SWAP1 PUSH2 0xE9D JUMP JUMPDEST PUSH1 0x40 MLOAD DUP1 SWAP2 SUB SWAP1 REVERT JUMPDEST DUP2 PUSH0 DUP1 DUP3 DUP2 MSTORE PUSH1 0x20 ADD SWAP1 DUP2 MSTORE PUSH1 0x20 ADD PUSH0 KECCAK256 PUSH1 0x2 ADD PUSH1 0x14 SWAP1 SLOAD SWAP1 PUSH2 0x100 EXP SWAP1 DIV PUSH1 0xFF AND PUSH2 0x585 JUMPI PUSH1 0x40 MLOAD PUSH32 0x8C379A000000000000000000000000000000000000000000000000000000000 DUP2 MSTORE PUSH1 0x4 ADD PUSH2 0x57C SWAP1 PUSH2 0x10EE JUMP JUMPDEST PUSH1 0x40 MLOAD DUP1 SWAP2 SUB SWAP1 REVERT JUMPDEST PUSH1 0x2 PUSH0 SWAP1 SLOAD SWAP1 PUSH2 0x100 EXP SWAP1 DIV PUSH1 0xFF AND ISZERO PUSH2 0x5D4 JUMPI PUSH1 0x40 MLOAD PUSH32 0x8C379A000000000000000000000000000000000000000000000000000000000 DUP2 MSTORE PUSH1 0x4 ADD PUSH2 0x5CB SWAP1 PUSH2 0xF2B JUMP JUMPDEST PUSH1 0x40 MLOAD DUP1 SWAP2 SUB SWAP1 REVERT JUMPDEST PUSH0 DUP1 PUSH0 DUP6 DUP2 MSTORE PUSH1 0x20 ADD SWAP1 DUP2 MSTORE PUSH1 0x20 ADD PUSH0 KECCAK256 SWAP1 POP DUP3 DUP2 PUSH1 0x1 ADD DUP2 SWAP1 SSTORE POP DUP1 PUSH1 0x2 ADD PUSH0 SWAP1 SLOAD SWAP1 PUSH2 0x100 EXP SWAP1 DIV PUSH20 0xFFFFFFFFFFFFFFFFFFFFFFFFFFFFFFFFFFFFFFFF AND PUSH20 0xFFFFFFFFFFFFFFFFFFFFFFFFFFFFFFFFFFFFFFFF AND DUP5 PUSH32 0x248922C07FF27DFE3DE8404BFA838352EB6A3FA25EFFF3C79598356D8C7CCB6D DUP6 PUSH1 0x40 MLOAD PUSH2 0x65A SWAP2 SWAP1 PUSH2 0x1065 JUMP JUMPDEST PUSH1 0x40 MLOAD DUP1 SWAP2 SUB SWAP1 LOG3 POP POP POP POP JUMP JUMPDEST PUSH0 DUP1 PUSH0 DUP1 DUP5 PUSH0 DUP1 DUP3 DUP2 MSTORE PUSH1 0x20 ADD SWAP1 DUP2 MSTORE PUSH1 0x20 ADD PUSH0 KECCAK256 PUSH1 0x2 ADD PUSH1 0x14 SWAP1 SLOAD SWAP1 PUSH2 0x100 EXP SWAP1 DIV PUSH1 0xFF AND PUSH2 0x6CD JUMPI PUSH1 0x40 MLOAD PUSH32 0x8C379A000000000000000000000000000000000000000000000000000000000 DUP2 MSTORE PUSH1 0x4 ADD PUSH2 0x6C4 SWAP1 PUSH2 0x10EE JUMP JUMPDEST PUSH1 0x40 MLOAD DUP1 SWAP2 SUB SWAP1 REVERT JUMPDEST PUSH0 DUP1 PUSH0 DUP9 DUP2 MSTORE PUSH1 0x20 ADD SWAP1 DUP2 MSTORE PUSH1 0x20 ADD PUSH0 KECCAK256 PUSH1 0x40 MLOAD DUP1 PUSH1 0x80 ADD PUSH1 0x40 MSTORE SWAP1 DUP2 PUSH0 DUP3 ADD SLOAD DUP2 MSTORE PUSH1 0x20 ADD PUSH1 0x1 DUP3 ADD SLOAD DUP2 MSTORE PUSH1 0x20 ADD PUSH1 0x2 DUP3 ADD PUSH0 SWAP1 SLOAD SWAP1 PUSH2 0x100 EXP SWAP1 DIV PUSH20 0xFFFFFFFFFFFFFFFFFFFFFFFFFFFFFFFFFFFFFFFF AND PUSH20 0xFFFFFFFFFFFFFFFFFFFFFFFFFFFFFFFFFFFFFFFF AND PUSH20 0xFFFFFFFFFFFFFFFFFFFFFFFFFFFFFFFFFFFFFFFF AND DUP2 MSTORE PUSH1 0x20 ADD PUSH1 0x2 DUP3 ADD PUSH1 0x14 SWAP1 SLOAD SWAP1 PUSH2 0x100 EXP SWAP1 DIV PUSH1 0xFF AND ISZERO ISZERO ISZERO ISZERO DUP2 MSTORE POP POP SWAP1 POP DUP1 PUSH0 ADD MLOAD DUP2 PUSH1 0x20 ADD MLOAD DUP3 PUSH1 0x40 ADD MLOAD DUP4 PUSH1 0x60 ADD MLOAD SWAP6 POP SWAP6 POP SWAP6 POP SWAP6 POP POP POP SWAP2 SWAP4 POP SWAP2 SWAP4 JUMP JUMPDEST PUSH1 0x1 PUSH0 CALLER PUSH20 0xFFFFFFFFFFFFFFFFFFFFFFFFFFFFFFFFFFFFFFFF AND PUSH20 0xFFFFFFFFFFFFFFFFFFFFFFFFFFFFFFFFFFFFFFFF AND DUP2 MSTORE PUSH1 0x20 ADD SWAP1 DUP2 MSTORE PUSH1 0x20 ADD PUSH0 KECCAK256 PUSH0 SWAP1 SLOAD SWAP1 PUSH2 0x100 EXP SWAP1 DIV PUSH1 0xFF AND PUSH2 0x81B JUMPI PUSH1 0x40 MLOAD PUSH32 0x8C379A000000000000000000000000000000000000000000000000000000000 DUP2 MSTORE PUSH1 0x4 ADD PUSH2 0x812 SWAP1 PUSH2 0xE9D JUMP JUMPDEST PUSH1 0x40 MLOAD DUP1 SWAP2 SUB SWAP1 REVERT JUMPDEST PUSH1 0x2 PUSH0 SWAP1 SLOAD SWAP1 PUSH2 0x100 EXP SWAP1 DIV PUSH1 0xFF AND ISZERO PUSH2 0x86A JUMPI PUSH1 0x40 MLOAD PUSH32 0x8C379A000000000000000000000000000000000000000000000000000000000 DUP2 MSTORE PUSH1 0x4 ADD PUSH2 0x861 SWAP1 PUSH2 0xF2B JUMP JUMPDEST PUSH1 0x40 MLOAD DUP1 SWAP2 SUB SWAP1 REVERT JUMPDEST PUSH1 0x1 PUSH0 DUP3 PUSH20 0xFFFFFFFFFFFFFFFFFFFFFFFFFFFFFFFFFFFFFFFF AND PUSH20 0xFFFFFFFFFFFFFFFFFFFFFFFFFFFFFFFFFFFFFFFF AND DUP2 MSTORE PUSH1 0x20 ADD SWAP1 DUP2 MSTORE PUSH1 0x20 ADD PUSH0 KECCAK256 PUSH0 SWAP1 SLOAD SWAP1 PUSH2 0x100 EXP SWAP1 DIV PUSH1 0xFF AND PUSH2 0x8F3 JUMPI PUSH1 0x40 MLOAD PUSH32 0x8C379A000000000000000000000000000000000000000000000000000000000 DUP2 MSTORE PUSH1 0x4 ADD PUSH2 0x8EA SWAP1 PUSH2 0x1156 JUMP JUMPDEST PUSH1 0x40 MLOAD DUP1 SWAP2 SUB SWAP1 REVERT JUMPDEST PUSH0 PUSH1 0x1 PUSH0 DUP4 PUSH20 0xFFFFFFFFFFFFFFFFFFFFFFFFFFFFFFFFFFFFFFFF AND PUSH20 0xFFFFFFFFFFFFFFFFFFFFFFFFFFFFFFFFFFFFFFFF AND DUP2 MSTORE PUSH1 0x20 ADD SWAP1 DUP2 MSTORE PUSH1 0x20 ADD PUSH0 KECCAK256 PUSH0 PUSH2 0x100 EXP DUP2 SLOAD DUP2 PUSH1 0xFF MUL NOT AND SWAP1 DUP4 ISZERO ISZERO MUL OR SWAP1 SSTORE POP DUP1 PUSH20 0xFFFFFFFFFFFFFFFFFFFFFFFFFFFFFFFFFFFFFFFF AND PUSH32 0xEF69F7D97228658C92417BE1B16B19058315DE71FECB435D07B7D23728B6BD31 PUSH1 0x40 MLOAD PUSH1 0x40 MLOAD DUP1 SWAP2 SUB SWAP1 LOG2 POP JUMP JUMPDEST PUSH1 0x1 PUSH0 CALLER PUSH20 0xFFFFFFFFFFFFFFFFFFFFFFFFFFFFFFFFFFFFFFFF AND PUSH20 0xFFFFFFFFFFFFFFFFFFFFFFFFFFFFFFFFFFFFFFFF AND DUP2 MSTORE PUSH1 0x20 ADD SWAP1 DUP2 MSTORE PUSH1 0x20 ADD PUSH0 KECCAK256 PUSH0 SWAP1 SLOAD SWAP1 PUSH2 0x100 EXP SWAP1 DIV PUSH1 0xFF AND PUSH2 0xA16 JUMPI PUSH1 0x40 MLOAD PUSH32 0x8C379A000000000000000000000000000000000000000000000000000000000 DUP2 MSTORE PUSH1 0x4 ADD PUSH2 0xA0D SWAP1 PUSH2 0xE9D JUMP JUMPDEST PUSH1 0x40 MLOAD DUP1 SWAP2 SUB SWAP1 REVERT JUMPDEST PUSH0 PUSH1 0x2 PUSH0 PUSH2 0x100 EXP DUP2 SLOAD DUP2 PUSH1 0xFF MUL NOT AND SWAP1 DUP4 ISZERO ISZERO MUL OR SWAP1 SSTORE POP JUMP JUMPDEST PUSH1 0x1 PUSH0 CALLER PUSH20 0xFFFFFFFFFFFFFFFFFFFFFFFFFFFFFFFFFFFFFFFF AND PUSH20 0xFFFFFFFFFFFFFFFFFFFFFFFFFFFFFFFFFFFFFFFF AND DUP2 MSTORE PUSH1 0x20 ADD SWAP1 DUP2 MSTORE PUSH1 0x20 ADD PUSH0 KECCAK256 PUSH0 SWAP1 SLOAD SWAP1 PUSH2 0x100 EXP SWAP1 DIV PUSH1 0xFF AND PUSH2 0xABA JUMPI PUSH1 0x40 MLOAD PUSH32 0x8C379A000000000000000000000000000000000000000000000000000000000 DUP2 MSTORE PUSH1 0x4 ADD PUSH2 0xAB1 SWAP1 PUSH2 0xE9D JUMP JUMPDEST PUSH1 0x40 MLOAD DUP1 SWAP2 SUB SWAP1 REVERT JUMPDEST PUSH1 0x2 PUSH0 SWAP1 SLOAD SWAP1 PUSH2 0x100 EXP SWAP1 DIV PUSH1 0xFF AND ISZERO PUSH2 0xB09 JUMPI PUSH1 0x40 MLOAD PUSH32 0x8C379A000000000000000000000000000000000000000000000000000000000 DUP2 MSTORE PUSH1 0x4 ADD PUSH2 0xB00 SWAP1 PUSH2 0xF2B JUMP JUMPDEST PUSH1 0x40 MLOAD DUP1 SWAP2 SUB SWAP1 REVERT JUMPDEST PUSH1 0x1 PUSH0 DUP3 PUSH20 0xFFFFFFFFFFFFFFFFFFFFFFFFFFFFFFFFFFFFFFFF AND PUSH20 0xFFFFFFFFFFFFFFFFFFFFFFFFFFFFFFFFFFFFFFFF AND DUP2 MSTORE PUSH1 0x20 ADD SWAP1 DUP2 MSTORE PUSH1 0x20 ADD PUSH0 KECCAK256 PUSH0 SWAP1 SLOAD SWAP1 PUSH2 0x100 EXP SWAP1 DIV PUSH1 0xFF AND ISZERO PUSH2 0xB93 JUMPI PUSH1 0x40 MLOAD PUSH32 0x8C379A000000000000000000000000000000000000000000000000000000000 DUP2 MSTORE PUSH1 0x4 ADD PUSH2 0xB8A SWAP1 PUSH2 0x11E4 JUMP JUMPDEST PUSH1 0x40 MLOAD DUP1 SWAP2 SUB SWAP1 REVERT JUMPDEST PUSH1 0x1 DUP1 PUSH0 DUP4 PUSH20 0xFFFFFFFFFFFFFFFFFFFFFFFFFFFFFFFFFFFFFFFF AND PUSH20 0xFFFFFFFFFFFFFFFFFFFFFFFFFFFFFFFFFFFFFFFF AND DUP2 MSTORE PUSH1 0x20 ADD SWAP1 DUP2 MSTORE PUSH1 0x20 ADD PUSH0 KECCAK256 PUSH0 PUSH2 0x100 EXP DUP2 SLOAD DUP2 PUSH1 0xFF MUL NOT AND SWAP1 DUP4 ISZERO ISZERO MUL OR SWAP1 SSTORE POP DUP1 PUSH20 0xFFFFFFFFFFFFFFFFFFFFFFFFFFFFFFFFFFFFFFFF AND PUSH32 0x450AD6A6AC3C2E8B8A02820CB64D6102A1F91EBE1FA3848A0CFC45C870C043AF PUSH1 0x40 MLOAD PUSH1 0x40 MLOAD DUP1 SWAP2 SUB SWAP1 LOG2 POP JUMP JUMPDEST PUSH0 DUP1 REVERT JUMPDEST PUSH0 DUP2 SWAP1 POP SWAP2 SWAP1 POP JUMP JUMPDEST PUSH2 0xC43 DUP2 PUSH2 0xC31 JUMP JUMPDEST DUP2 EQ PUSH2 0xC4D JUMPI PUSH0 DUP1 REVERT JUMPDEST POP JUMP JUMPDEST PUSH0 DUP2 CALLDATALOAD SWAP1 POP PUSH2 0xC5E DUP2 PUSH2 0xC3A JUMP JUMPDEST SWAP3 SWAP2 POP POP JUMP JUMPDEST PUSH0 PUSH20 0xFFFFFFFFFFFFFFFFFFFFFFFFFFFFFFFFFFFFFFFF DUP3 AND SWAP1 POP SWAP2 SWAP1 POP JUMP JUMPDEST PUSH0 PUSH2 0xC8D DUP3 PUSH2 0xC64 JUMP JUMPDEST SWAP1 POP SWAP2 SWAP1 POP JUMP JUMPDEST PUSH2 0xC9D DUP2 PUSH2 0xC83 JUMP JUMPDEST DUP2 EQ PUSH2 0xCA7 JUMPI PUSH0 DUP1 REVERT JUMPDEST POP JUMP JUMPDEST PUSH0 DUP2 CALLDATALOAD SWAP1 POP PUSH2 0xCB8 DUP2 PUSH2 0xC94 JUMP JUMPDEST SWAP3 SWAP2 POP POP JUMP JUMPDEST PUSH0 DUP1 PUSH0 PUSH1 0x60 DUP5 DUP7 SUB SLT ISZERO PUSH2 0xCD5 JUMPI PUSH2 0xCD4 PUSH2 0xC2D JUMP JUMPDEST JUMPDEST PUSH0 PUSH2 0xCE2 DUP7 DUP3 DUP8 ADD PUSH2 0xC50 JUMP JUMPDEST SWAP4 POP POP PUSH1 0x20 PUSH2 0xCF3 DUP7 DUP3 DUP8 ADD PUSH2 0xC50 JUMP JUMPDEST SWAP3 POP POP PUSH1 0x40 PUSH2 0xD04 DUP7 DUP3 DUP8 ADD PUSH2 0xCAA JUMP JUMPDEST SWAP2 POP POP SWAP3 POP SWAP3 POP SWAP3 JUMP JUMPDEST PUSH0 DUP1 PUSH1 0x40 DUP4 DUP6 SUB SLT ISZERO PUSH2 0xD24 JUMPI PUSH2 0xD23 PUSH2 0xC2D JUMP JUMPDEST JUMPDEST PUSH0 PUSH2 0xD31 DUP6 DUP3 DUP7 ADD PUSH2 0xC50 JUMP JUMPDEST SWAP3 POP POP PUSH1 0x20 PUSH2 0xD42 DUP6 DUP3 DUP7 ADD PUSH2 0xC50 JUMP JUMPDEST SWAP2 POP POP SWAP3 POP SWAP3 SWAP1 POP JUMP JUMPDEST PUSH0 PUSH1 0x20 DUP3 DUP5 SUB SLT ISZERO PUSH2 0xD61 JUMPI PUSH2 0xD60 PUSH2 0xC2D JUMP JUMPDEST JUMPDEST PUSH0 PUSH2 0xD6E DUP5 DUP3 DUP6 ADD PUSH2 0xC50 JUMP JUMPDEST SWAP2 POP POP SWAP3 SWAP2 POP POP JUMP JUMPDEST PUSH2 0xD80 DUP2 PUSH2 0xC31 JUMP JUMPDEST DUP3 MSTORE POP POP JUMP JUMPDEST PUSH2 0xD8F DUP2 PUSH2 0xC83 JUMP JUMPDEST DUP3 MSTORE POP POP JUMP JUMPDEST PUSH0 DUP2 ISZERO ISZERO SWAP1 POP SWAP2 SWAP1 POP JUMP JUMPDEST PUSH2 0xDA9 DUP2 PUSH2 0xD95 JUMP JUMPDEST DUP3 MSTORE POP POP JUMP JUMPDEST PUSH0 PUSH1 0x80 DUP3 ADD SWAP1 POP PUSH2 0xDC2 PUSH0 DUP4 ADD DUP8 PUSH2 0xD77 JUMP JUMPDEST PUSH2 0xDCF PUSH1 0x20 DUP4 ADD DUP7 PUSH2 0xD77 JUMP JUMPDEST PUSH2 0xDDC PUSH1 0x40 DUP4 ADD DUP6 PUSH2 0xD86 JUMP JUMPDEST PUSH2 0xDE9 PUSH1 0x60 DUP4 ADD DUP5 PUSH2 0xDA0 JUMP JUMPDEST SWAP6 SWAP5 POP POP POP POP POP JUMP JUMPDEST PUSH0 PUSH1 0x20 DUP3 DUP5 SUB SLT ISZERO PUSH2 0xE07 JUMPI PUSH2 0xE06 PUSH2 0xC2D JUMP JUMPDEST JUMPDEST PUSH0 PUSH2 0xE14 DUP5 DUP3 DUP6 ADD PUSH2 0xCAA JUMP JUMPDEST SWAP2 POP POP SWAP3 SWAP2 POP POP JUMP JUMPDEST PUSH0 DUP3 DUP3 MSTORE PUSH1 0x20 DUP3 ADD SWAP1 POP SWAP3 SWAP2 POP POP JUMP JUMPDEST PUSH32 0x4163636573732044656E6965643A204E6F7420616E20617574686F72697A6564 PUSH0 DUP3 ADD MSTORE PUSH32 0x206D616E61676572000000000000000000000000000000000000000000000000 PUSH1 0x20 DUP3 ADD MSTORE POP JUMP JUMPDEST PUSH0 PUSH2 0xE87 PUSH1 0x28 DUP4 PUSH2 0xE1D JUMP JUMPDEST SWAP2 POP PUSH2 0xE92 DUP3 PUSH2 0xE2D JUMP JUMPDEST PUSH1 0x40 DUP3 ADD SWAP1 POP SWAP2 SWAP1 POP JUMP JUMPDEST PUSH0 PUSH1 0x20 DUP3 ADD SWAP1 POP DUP2 DUP2 SUB PUSH0 DUP4 ADD MSTORE PUSH2 0xEB4 DUP2 PUSH2 0xE7B JUMP JUMPDEST SWAP1 POP SWAP2 SWAP1 POP JUMP JUMPDEST PUSH32 0x4F7065726174696F6E204572726F723A20436F6E747261637420697320706175 PUSH0 DUP3 ADD MSTORE PUSH32 0x7365640000000000000000000000000000000000000000000000000000000000 PUSH1 0x20 DUP3 ADD MSTORE POP JUMP JUMPDEST PUSH0 PUSH2 0xF15 PUSH1 0x23 DUP4 PUSH2 0xE1D JUMP JUMPDEST SWAP2 POP PUSH2 0xF20 DUP3 PUSH2 0xEBB JUMP JUMPDEST PUSH1 0x40 DUP3 ADD SWAP1 POP SWAP2 SWAP1 POP JUMP JUMPDEST PUSH0 PUSH1 0x20 DUP3 ADD SWAP1 POP DUP2 DUP2 SUB PUSH0 DUP4 ADD MSTORE PUSH2 0xF42 DUP2 PUSH2 0xF09 JUMP JUMPDEST SWAP1 POP SWAP2 SWAP1 POP JUMP JUMPDEST PUSH32 0x526567697374726174696F6E204572726F723A2050726F6475637420696E7665 PUSH0 DUP3 ADD MSTORE PUSH32 0x6E746F727920616C726561647920726567697374657265640000000000000000 PUSH1 0x20 DUP3 ADD MSTORE POP JUMP JUMPDEST PUSH0 PUSH2 0xFA3 PUSH1 0x38 DUP4 PUSH2 0xE1D JUMP JUMPDEST SWAP2 POP PUSH2 0xFAE DUP3 PUSH2 0xF49 JUMP JUMPDEST PUSH1 0x40 DUP3 ADD SWAP1 POP SWAP2 SWAP1 POP JUMP JUMPDEST PUSH0 PUSH1 0x20 DUP3 ADD SWAP1 POP DUP2 DUP2 SUB PUSH0 DUP4 ADD MSTORE PUSH2 0xFD0 DUP2 PUSH2 0xF97 JUMP JUMPDEST SWAP1 POP SWAP2 SWAP1 POP JUMP JUMPDEST PUSH32 0x526567697374726174696F6E204572726F723A20496E76616C6964206F776E65 PUSH0 DUP3 ADD MSTORE PUSH32 0x7220616464726573730000000000000000000000000000000000000000000000 PUSH1 0x20 DUP3 ADD MSTORE POP JUMP JUMPDEST PUSH0 PUSH2 0x1031 PUSH1 0x29 DUP4 PUSH2 0xE1D JUMP JUMPDEST SWAP2 POP PUSH2 0x103C DUP3 PUSH2 0xFD7 JUMP JUMPDEST PUSH1 0x40 DUP3 ADD SWAP1 POP SWAP2 SWAP1 POP JUMP JUMPDEST PUSH0 PUSH1 0x20 DUP3 ADD SWAP1 POP DUP2 DUP2 SUB PUSH0 DUP4 ADD MSTORE PUSH2 0x105E DUP2 PUSH2 0x1025 JUMP JUMPDEST SWAP1 POP SWAP2 SWAP1 POP JUMP JUMPDEST PUSH0 PUSH1 0x20 DUP3 ADD SWAP1 POP PUSH2 0x1078 PUSH0 DUP4 ADD DUP5 PUSH2 0xD77 JUMP JUMPDEST SWAP3 SWAP2 POP POP JUMP JUMPDEST PUSH32 0x5175657279204572726F723A2050726F64756374206E6F742072656769737465 PUSH0 DUP3 ADD MSTORE PUSH32 0x72656420696E20696E76656E746F727900000000000000000000000000000000 PUSH1 0x20 DUP3 ADD MSTORE POP JUMP JUMPDEST PUSH0 PUSH2 0x10D8 PUSH1 0x30 DUP4 PUSH2 0xE1D JUMP JUMPDEST SWAP2 POP PUSH2 0x10E3 DUP3 PUSH2 0x107E JUMP JUMPDEST PUSH1 0x40 DUP3 ADD SWAP1 POP SWAP2 SWAP1 POP JUMP JUMPDEST PUSH0 PUSH1 0x20 DUP3 ADD SWAP1 POP DUP2 DUP2 SUB PUSH0 DUP4 ADD MSTORE PUSH2 0x1105 DUP2 PUSH2 0x10CC JUMP JUMPDEST SWAP1 POP SWAP2 SWAP1 POP JUMP JUMPDEST PUSH32 0x52656D6F76616C204572726F723A204D616E61676572206E6F7420666F756E64 PUSH0 DUP3 ADD MSTORE POP JUMP JUMPDEST PUSH0 PUSH2 0x1140 PUSH1 0x20 DUP4 PUSH2 0xE1D JUMP JUMPDEST SWAP2 POP PUSH2 0x114B DUP3 PUSH2 0x110C JUMP JUMPDEST PUSH1 0x20 DUP3 ADD SWAP1 POP SWAP2 SWAP1 POP JUMP JUMPDEST PUSH0 PUSH1 0x20 DUP3 ADD SWAP1 POP DUP2 DUP2 SUB PUSH0 DUP4 ADD MSTORE PUSH2 0x116D DUP2 PUSH2 0x1134 JUMP JUMPDEST SWAP1 POP SWAP2 SWAP1 POP JUMP JUMPDEST PUSH32 0x417070726F76616C204572726F723A204D616E6167657220616C726561647920 PUSH0 DUP3 ADD MSTORE PUSH32 0x617070726F766564000000000000000000000000000000000000000000000000 PUSH1 0x20 DUP3 ADD MSTORE POP JUMP JUMPDEST PUSH0 PUSH2 0x11CE PUSH1 0x28 DUP4 PUSH2 0xE1D JUMP JUMPDEST SWAP2 POP PUSH2 0x11D9 DUP3 PUSH2 0x1174 JUMP JUMPDEST PUSH1 0x40 DUP3 ADD SWAP1 POP SWAP2 SWAP1 POP JUMP JUMPDEST PUSH0 PUSH1 0x20 DUP3 ADD SWAP1 POP DUP2 DUP2 SUB PUSH0 DUP4 ADD MSTORE PUSH2 0x11FB DUP2 PUSH2 0x11C2 JUMP JUMPDEST SWAP1 POP SWAP2 SWAP1 POP JUMP INVALID LOG2 PUSH5 0x6970667358 0x22 SLT KECCAK256 0xD1 PUSH13 0xEB57D5E30B386284BDA539098B 0xE6 SSTORE AND 0x1F ISZERO SELFBALANCE PUSH0 PUSH3 0x98AA35 DUP3 STOP KECCAK256 PUSH16 0x3B3664736F6C634300081A0033000000 "
				},
				"gasEstimates": {
					"creation": {
						"codeDepositCost": "932800",
						"executionCost": "26479",
						"totalCost": "959279"
					},
					"external": {
						"approveManager(address)": "32667",
						"getInventory(uint256)": "infinite",
						"pauseContract()": "26671",
						"registerInventory(uint256,uint256,address)": "infinite",
						"removeManager(address)": "32619",
						"unpauseContract()": "26691",
						"updateInventory(uint256,uint256)": "infinite"
					}
				},
				"methodIdentifiers": {
					"approveManager(address)": "b5eee722",
					"getInventory(uint256)": "5b298d32",
					"pauseContract()": "439766ce",
					"registerInventory(uint256,uint256,address)": "15f3d72b",
					"removeManager(address)": "ac18de43",
					"unpauseContract()": "b33712c5",
					"updateInventory(uint256,uint256)": "522547a8"
				}
			},
			"storageLayout": {
				"storage": [
					{
						"astId": 8,
						"contract": "contracts/InventoryManagement.sol:InventoryManagement",
						"label": "inventories",
						"offset": 0,
						"slot": "0",
						"type": "t_mapping(t_uint256,t_struct(ProductInventory)304_storage)"
					},
					{
						"astId": 12,
						"contract": "contracts/InventoryManagement.sol:InventoryManagement",
						"label": "approvedManagers",
						"offset": 0,
						"slot": "1",
						"type": "t_mapping(t_address,t_bool)"
					},
					{
						"astId": 38,
						"contract": "contracts/InventoryManagement.sol:InventoryManagement",
						"label": "paused",
						"offset": 0,
						"slot": "2",
						"type": "t_bool"
					}
				],
				"types": {
					"t_address": {
						"encoding": "inplace",
						"label": "address",
						"numberOfBytes": "20"
					},
					"t_bool": {
						"encoding": "inplace",
						"label": "bool",
						"numberOfBytes": "1"
					},
					"t_mapping(t_address,t_bool)": {
						"encoding": "mapping",
						"key": "t_address",
						"label": "mapping(address => bool)",
						"numberOfBytes": "32",
						"value": "t_bool"
					},
					"t_mapping(t_uint256,t_struct(ProductInventory)304_storage)": {
						"encoding": "mapping",
						"key": "t_uint256",
						"label": "mapping(uint256 => struct ProductInventory)",
						"numberOfBytes": "32",
						"value": "t_struct(ProductInventory)304_storage"
					},
					"t_struct(ProductInventory)304_storage": {
						"encoding": "inplace",
						"label": "struct ProductInventory",
						"members": [
							{
								"astId": 297,
								"contract": "contracts/InventoryManagement.sol:InventoryManagement",
								"label": "productId",
								"offset": 0,
								"slot": "0",
								"type": "t_uint256"
							},
							{
								"astId": 299,
								"contract": "contracts/InventoryManagement.sol:InventoryManagement",
								"label": "stock",
								"offset": 0,
								"slot": "1",
								"type": "t_uint256"
							},
							{
								"astId": 301,
								"contract": "contracts/InventoryManagement.sol:InventoryManagement",
								"label": "owner",
								"offset": 0,
								"slot": "2",
								"type": "t_address"
							},
							{
								"astId": 303,
								"contract": "contracts/InventoryManagement.sol:InventoryManagement",
								"label": "isRegistered",
								"offset": 20,
								"slot": "2",
								"type": "t_bool"
							}
						],
						"numberOfBytes": "96"
					},
					"t_uint256": {
						"encoding": "inplace",
						"label": "uint256",
						"numberOfBytes": "32"
					}
				}
			},
			"userdoc": {
				"kind": "user",
				"methods": {
					"approveManager(address)": {
						"notice": "Approve a new inventory manager"
					},
					"getInventory(uint256)": {
						"notice": "Get the inventory details of a product"
					},
					"pauseContract()": {
						"notice": "Pause the contract to prevent certain operations"
					},
					"registerInventory(uint256,uint256,address)": {
						"notice": "Register a new product inventory for an owner"
					},
					"removeManager(address)": {
						"notice": "Remove an existing inventory manager"
					},
					"unpauseContract()": {
						"notice": "Unpause the contract to resume operations"
					},
					"updateInventory(uint256,uint256)": {
						"notice": "Update the inventory stock of a product"
					}
				},
				"notice": "This contract manages the inventory of products available at different stages of the supply chain.",
				"version": 1
			}
		}
	}
}