{
	"contracts/QualityCertification.sol": {
		"QualityCertification": {
			"abi": [
				{
					"inputs": [],
					"stateMutability": "nonpayable",
					"type": "constructor"
				},
				{
					"anonymous": false,
					"inputs": [
						{
							"indexed": true,
							"internalType": "uint256",
							"name": "productId",
							"type": "uint256"
						},
						{
							"indexed": false,
							"internalType": "string",
							"name": "criteria",
							"type": "string"
						},
						{
							"indexed": false,
							"internalType": "enum QualityCertification.QualityStatus",
							"name": "status",
							"type": "uint8"
						},
						{
							"indexed": true,
							"internalType": "address",
							"name": "inspector",
							"type": "address"
						}
					],
					"name": "CertificationAdded",
					"type": "event"
				},
				{
					"anonymous": false,
					"inputs": [
						{
							"indexed": true,
							"internalType": "address",
							"name": "inspector",
							"type": "address"
						}
					],
					"name": "InspectorApproved",
					"type": "event"
				},
				{
					"anonymous": false,
					"inputs": [
						{
							"indexed": true,
							"internalType": "address",
							"name": "inspector",
							"type": "address"
						}
					],
					"name": "InspectorRemoved",
					"type": "event"
				},
				{
					"inputs": [
						{
							"internalType": "uint256",
							"name": "_productId",
							"type": "uint256"
						},
						{
							"internalType": "string",
							"name": "_criteria",
							"type": "string"
						},
						{
							"internalType": "enum QualityCertification.QualityStatus",
							"name": "_status",
							"type": "uint8"
						}
					],
					"name": "addCertification",
					"outputs": [],
					"stateMutability": "nonpayable",
					"type": "function"
				},
				{
					"inputs": [
						{
							"internalType": "address",
							"name": "_inspector",
							"type": "address"
						}
					],
					"name": "approveInspector",
					"outputs": [],
					"stateMutability": "nonpayable",
					"type": "function"
				},
				{
					"inputs": [
						{
							"internalType": "uint256",
							"name": "_productId",
							"type": "uint256"
						}
					],
					"name": "getCertification",
					"outputs": [
						{
							"internalType": "string",
							"name": "criteria",
							"type": "string"
						},
						{
							"internalType": "enum QualityCertification.QualityStatus",
							"name": "status",
							"type": "uint8"
						},
						{
							"internalType": "uint256",
							"name": "timestamp",
							"type": "uint256"
						},
						{
							"internalType": "address",
							"name": "inspector",
							"type": "address"
						}
					],
					"stateMutability": "view",
					"type": "function"
				},
				{
					"inputs": [],
					"name": "pauseContract",
					"outputs": [],
					"stateMutability": "nonpayable",
					"type": "function"
				},
				{
					"inputs": [
						{
							"internalType": "address",
							"name": "_inspector",
							"type": "address"
						}
					],
					"name": "removeInspector",
					"outputs": [],
					"stateMutability": "nonpayable",
					"type": "function"
				},
				{
					"inputs": [],
					"name": "unpauseContract",
					"outputs": [],
					"stateMutability": "nonpayable",
					"type": "function"
				}
			],
			"devdoc": {
				"details": "It includes quality inspector roles, product certification records, and quality verification functions.",
				"kind": "dev",
				"methods": {
					"addCertification(uint256,string,uint8)": {
						"params": {
							"_criteria": "The quality criteria applied for certification",
							"_productId": "The unique ID of the product",
							"_status": "The quality status of the product"
						}
					},
					"approveInspector(address)": {
						"params": {
							"_inspector": "The address to be approved as an inspector"
						}
					},
					"getCertification(uint256)": {
						"params": {
							"_productId": "The unique ID of the product"
						},
						"returns": {
							"criteria": "The quality criteria applied for certification",
							"inspector": "The address of the inspector who certified the product",
							"status": "The quality status of the product",
							"timestamp": "The time when the certification was recorded"
						}
					},
					"removeInspector(address)": {
						"params": {
							"_inspector": "The address to be removed from approved inspectors"
						}
					}
				},
				"title": "Quality Certification Contract - Supply Chain Management System",
				"version": 1
			},
			"evm": {
				"assembly": "    /* \"contracts/QualityCertification.sol\":347:4919  contract QualityCertification {... */\n  mstore(0x40, 0x80)\n    /* \"contracts/QualityCertification.sol\":1923:2035  constructor() {... */\n  callvalue\n  dup1\n  iszero\n  tag_1\n  jumpi\n  0x00\n  dup1\n  revert\ntag_1:\n  pop\n    /* \"contracts/QualityCertification.sol\":1980:1984  true */\n  0x01\n    /* \"contracts/QualityCertification.sol\":1947:1965  approvedInspectors */\n  dup1\n    /* \"contracts/QualityCertification.sol\":1947:1977  approvedInspectors[msg.sender] */\n  0x00\n    /* \"contracts/QualityCertification.sol\":1966:1976  msg.sender */\n  caller\n    /* \"contracts/QualityCertification.sol\":1947:1977  approvedInspectors[msg.sender] */\n  0xffffffffffffffffffffffffffffffffffffffff\n  and\n  0xffffffffffffffffffffffffffffffffffffffff\n  and\n  dup2\n  mstore\n  0x20\n  add\n  swap1\n  dup2\n  mstore\n  0x20\n  add\n  0x00\n  keccak256\n  0x00\n    /* \"contracts/QualityCertification.sol\":1947:1984  approvedInspectors[msg.sender] = true */\n  0x0100\n  exp\n  dup2\n  sload\n  dup2\n  0xff\n  mul\n  not\n  and\n  swap1\n  dup4\n  iszero\n  iszero\n  mul\n  or\n  swap1\n  sstore\n  pop\n    /* \"contracts/QualityCertification.sol\":2017:2027  msg.sender */\n  caller\n    /* \"contracts/QualityCertification.sol\":1999:2028  InspectorApproved(msg.sender) */\n  0xffffffffffffffffffffffffffffffffffffffff\n  and\n  0x3ecabff09fdbcefeff156ba8f96b2ce9b7459d027d48bc9258a5231357112393\n  mload(0x40)\n  mload(0x40)\n  dup1\n  swap2\n  sub\n  swap1\n  log2\n    /* \"contracts/QualityCertification.sol\":347:4919  contract QualityCertification {... */\n  dataSize(sub_0)\n  dup1\n  dataOffset(sub_0)\n  0x00\n  codecopy\n  0x00\n  return\nstop\n\nsub_0: assembly {\n        /* \"contracts/QualityCertification.sol\":347:4919  contract QualityCertification {... */\n      mstore(0x40, 0x80)\n      callvalue\n      dup1\n      iszero\n      tag_1\n      jumpi\n      0x00\n      dup1\n      revert\n    tag_1:\n      pop\n      jumpi(tag_2, lt(calldatasize, 0x04))\n      shr(0xe0, calldataload(0x00))\n      dup1\n      0x439766ce\n      eq\n      tag_3\n      jumpi\n      dup1\n      0x73bf3b98\n      eq\n      tag_4\n      jumpi\n      dup1\n      0x7c70e791\n      eq\n      tag_5\n      jumpi\n      dup1\n      0xa647dbbd\n      eq\n      tag_6\n      jumpi\n      dup1\n      0xb33712c5\n      eq\n      tag_7\n      jumpi\n      dup1\n      0xec981eac\n      eq\n      tag_8\n      jumpi\n    tag_2:\n      0x00\n      dup1\n      revert\n        /* \"contracts/QualityCertification.sol\":4678:4764  function pauseContract() external onlyApprovedInspector {... */\n    tag_3:\n      tag_9\n      tag_10\n      jump\t// in\n    tag_9:\n      stop\n        /* \"contracts/QualityCertification.sol\":2176:2461  function approveInspector(address _inspector) external onlyApprovedInspector whenNotPaused {... */\n    tag_4:\n      tag_11\n      0x04\n      dup1\n      calldatasize\n      sub\n      dup2\n      add\n      swap1\n      tag_12\n      swap2\n      swap1\n      tag_13\n      jump\t// in\n    tag_12:\n      tag_14\n      jump\t// in\n    tag_11:\n      stop\n        /* \"contracts/QualityCertification.sol\":2589:2864  function removeInspector(address _inspector) external onlyApprovedInspector whenNotPaused {... */\n    tag_5:\n      tag_15\n      0x04\n      dup1\n      calldatasize\n      sub\n      dup2\n      add\n      swap1\n      tag_16\n      swap2\n      swap1\n      tag_13\n      jump\t// in\n    tag_16:\n      tag_17\n      jump\t// in\n    tag_15:\n      stop\n        /* \"contracts/QualityCertification.sol\":3112:3706  function addCertification(uint256 _productId, string calldata _criteria, QualityStatus _status)... */\n    tag_6:\n      tag_18\n      0x04\n      dup1\n      calldatasize\n      sub\n      dup2\n      add\n      swap1\n      tag_19\n      swap2\n      swap1\n      tag_20\n      jump\t// in\n    tag_19:\n      tag_21\n      jump\t// in\n    tag_18:\n      stop\n        /* \"contracts/QualityCertification.sol\":4828:4917  function unpauseContract() external onlyApprovedInspector {... */\n    tag_7:\n      tag_22\n      tag_23\n      jump\t// in\n    tag_22:\n      stop\n        /* \"contracts/QualityCertification.sol\":4115:4607  function getCertification(uint256 _productId) ... */\n    tag_8:\n      tag_24\n      0x04\n      dup1\n      calldatasize\n      sub\n      dup2\n      add\n      swap1\n      tag_25\n      swap2\n      swap1\n      tag_26\n      jump\t// in\n    tag_25:\n      tag_27\n      jump\t// in\n    tag_24:\n      mload(0x40)\n      tag_28\n      swap5\n      swap4\n      swap3\n      swap2\n      swap1\n      tag_29\n      jump\t// in\n    tag_28:\n      mload(0x40)\n      dup1\n      swap2\n      sub\n      swap1\n      return\n        /* \"contracts/QualityCertification.sol\":4678:4764  function pauseContract() external onlyApprovedInspector {... */\n    tag_10:\n        /* \"contracts/QualityCertification.sol\":1580:1598  approvedInspectors */\n      0x01\n        /* \"contracts/QualityCertification.sol\":1580:1610  approvedInspectors[msg.sender] */\n      0x00\n        /* \"contracts/QualityCertification.sol\":1599:1609  msg.sender */\n      caller\n        /* \"contracts/QualityCertification.sol\":1580:1610  approvedInspectors[msg.sender] */\n      0xffffffffffffffffffffffffffffffffffffffff\n      and\n      0xffffffffffffffffffffffffffffffffffffffff\n      and\n      dup2\n      mstore\n      0x20\n      add\n      swap1\n      dup2\n      mstore\n      0x20\n      add\n      0x00\n      keccak256\n      0x00\n      swap1\n      sload\n      swap1\n      0x0100\n      exp\n      swap1\n      div\n      0xff\n      and\n        /* \"contracts/QualityCertification.sol\":1572:1657  require(approvedInspectors[msg.sender], \"Access Denied: Not an authorized inspector\") */\n      tag_31\n      jumpi\n      mload(0x40)\n      0x08c379a000000000000000000000000000000000000000000000000000000000\n      dup2\n      mstore\n      0x04\n      add\n      tag_32\n      swap1\n      tag_33\n      jump\t// in\n    tag_32:\n      mload(0x40)\n      dup1\n      swap2\n      sub\n      swap1\n      revert\n    tag_31:\n        /* \"contracts/QualityCertification.sol\":4753:4757  true */\n      0x01\n        /* \"contracts/QualityCertification.sol\":4744:4750  paused */\n      0x02\n      0x00\n        /* \"contracts/QualityCertification.sol\":4744:4757  paused = true */\n      0x0100\n      exp\n      dup2\n      sload\n      dup2\n      0xff\n      mul\n      not\n      and\n      swap1\n      dup4\n      iszero\n      iszero\n      mul\n      or\n      swap1\n      sstore\n      pop\n        /* \"contracts/QualityCertification.sol\":4678:4764  function pauseContract() external onlyApprovedInspector {... */\n      jump\t// out\n        /* \"contracts/QualityCertification.sol\":2176:2461  function approveInspector(address _inspector) external onlyApprovedInspector whenNotPaused {... */\n    tag_14:\n        /* \"contracts/QualityCertification.sol\":1580:1598  approvedInspectors */\n      0x01\n        /* \"contracts/QualityCertification.sol\":1580:1610  approvedInspectors[msg.sender] */\n      0x00\n        /* \"contracts/QualityCertification.sol\":1599:1609  msg.sender */\n      caller\n        /* \"contracts/QualityCertification.sol\":1580:1610  approvedInspectors[msg.sender] */\n      0xffffffffffffffffffffffffffffffffffffffff\n      and\n      0xffffffffffffffffffffffffffffffffffffffff\n      and\n      dup2\n      mstore\n      0x20\n      add\n      swap1\n      dup2\n      mstore\n      0x20\n      add\n      0x00\n      keccak256\n      0x00\n      swap1\n      sload\n      swap1\n      0x0100\n      exp\n      swap1\n      div\n      0xff\n      and\n        /* \"contracts/QualityCertification.sol\":1572:1657  require(approvedInspectors[msg.sender], \"Access Denied: Not an authorized inspector\") */\n      tag_36\n      jumpi\n      mload(0x40)\n      0x08c379a000000000000000000000000000000000000000000000000000000000\n      dup2\n      mstore\n      0x04\n      add\n      tag_37\n      swap1\n      tag_33\n      jump\t// in\n    tag_37:\n      mload(0x40)\n      dup1\n      swap2\n      sub\n      swap1\n      revert\n    tag_36:\n        /* \"contracts/QualityCertification.sol\":1778:1784  paused */\n      0x02\n      0x00\n      swap1\n      sload\n      swap1\n      0x0100\n      exp\n      swap1\n      div\n      0xff\n      and\n        /* \"contracts/QualityCertification.sol\":1777:1784  !paused */\n      iszero\n        /* \"contracts/QualityCertification.sol\":1769:1824  require(!paused, \"Operation Error: Contract is paused\") */\n      tag_39\n      jumpi\n      mload(0x40)\n      0x08c379a000000000000000000000000000000000000000000000000000000000\n      dup2\n      mstore\n      0x04\n      add\n      tag_40\n      swap1\n      tag_41\n      jump\t// in\n    tag_40:\n      mload(0x40)\n      dup1\n      swap2\n      sub\n      swap1\n      revert\n    tag_39:\n        /* \"contracts/QualityCertification.sol\":2286:2304  approvedInspectors */\n      0x01\n        /* \"contracts/QualityCertification.sol\":2286:2316  approvedInspectors[_inspector] */\n      0x00\n        /* \"contracts/QualityCertification.sol\":2305:2315  _inspector */\n      dup3\n        /* \"contracts/QualityCertification.sol\":2286:2316  approvedInspectors[_inspector] */\n      0xffffffffffffffffffffffffffffffffffffffff\n      and\n      0xffffffffffffffffffffffffffffffffffffffff\n      and\n      dup2\n      mstore\n      0x20\n      add\n      swap1\n      dup2\n      mstore\n      0x20\n      add\n      0x00\n      keccak256\n      0x00\n      swap1\n      sload\n      swap1\n      0x0100\n      exp\n      swap1\n      div\n      0xff\n      and\n        /* \"contracts/QualityCertification.sol\":2285:2316  !approvedInspectors[_inspector] */\n      iszero\n        /* \"contracts/QualityCertification.sol\":2277:2363  require(!approvedInspectors[_inspector], \"Approval Error: Inspector already approved\") */\n      tag_43\n      jumpi\n      mload(0x40)\n      0x08c379a000000000000000000000000000000000000000000000000000000000\n      dup2\n      mstore\n      0x04\n      add\n      tag_44\n      swap1\n      tag_45\n      jump\t// in\n    tag_44:\n      mload(0x40)\n      dup1\n      swap2\n      sub\n      swap1\n      revert\n    tag_43:\n        /* \"contracts/QualityCertification.sol\":2406:2410  true */\n      0x01\n        /* \"contracts/QualityCertification.sol\":2373:2391  approvedInspectors */\n      dup1\n        /* \"contracts/QualityCertification.sol\":2373:2403  approvedInspectors[_inspector] */\n      0x00\n        /* \"contracts/QualityCertification.sol\":2392:2402  _inspector */\n      dup4\n        /* \"contracts/QualityCertification.sol\":2373:2403  approvedInspectors[_inspector] */\n      0xffffffffffffffffffffffffffffffffffffffff\n      and\n      0xffffffffffffffffffffffffffffffffffffffff\n      and\n      dup2\n      mstore\n      0x20\n      add\n      swap1\n      dup2\n      mstore\n      0x20\n      add\n      0x00\n      keccak256\n      0x00\n        /* \"contracts/QualityCertification.sol\":2373:2410  approvedInspectors[_inspector] = true */\n      0x0100\n      exp\n      dup2\n      sload\n      dup2\n      0xff\n      mul\n      not\n      and\n      swap1\n      dup4\n      iszero\n      iszero\n      mul\n      or\n      swap1\n      sstore\n      pop\n        /* \"contracts/QualityCertification.sol\":2443:2453  _inspector */\n      dup1\n        /* \"contracts/QualityCertification.sol\":2425:2454  InspectorApproved(_inspector) */\n      0xffffffffffffffffffffffffffffffffffffffff\n      and\n      0x3ecabff09fdbcefeff156ba8f96b2ce9b7459d027d48bc9258a5231357112393\n      mload(0x40)\n      mload(0x40)\n      dup1\n      swap2\n      sub\n      swap1\n      log2\n        /* \"contracts/QualityCertification.sol\":2176:2461  function approveInspector(address _inspector) external onlyApprovedInspector whenNotPaused {... */\n      pop\n      jump\t// out\n        /* \"contracts/QualityCertification.sol\":2589:2864  function removeInspector(address _inspector) external onlyApprovedInspector whenNotPaused {... */\n    tag_17:\n        /* \"contracts/QualityCertification.sol\":1580:1598  approvedInspectors */\n      0x01\n        /* \"contracts/QualityCertification.sol\":1580:1610  approvedInspectors[msg.sender] */\n      0x00\n        /* \"contracts/QualityCertification.sol\":1599:1609  msg.sender */\n      caller\n        /* \"contracts/QualityCertification.sol\":1580:1610  approvedInspectors[msg.sender] */\n      0xffffffffffffffffffffffffffffffffffffffff\n      and\n      0xffffffffffffffffffffffffffffffffffffffff\n      and\n      dup2\n      mstore\n      0x20\n      add\n      swap1\n      dup2\n      mstore\n      0x20\n      add\n      0x00\n      keccak256\n      0x00\n      swap1\n      sload\n      swap1\n      0x0100\n      exp\n      swap1\n      div\n      0xff\n      and\n        /* \"contracts/QualityCertification.sol\":1572:1657  require(approvedInspectors[msg.sender], \"Access Denied: Not an authorized inspector\") */\n      tag_47\n      jumpi\n      mload(0x40)\n      0x08c379a000000000000000000000000000000000000000000000000000000000\n      dup2\n      mstore\n      0x04\n      add\n      tag_48\n      swap1\n      tag_33\n      jump\t// in\n    tag_48:\n      mload(0x40)\n      dup1\n      swap2\n      sub\n      swap1\n      revert\n    tag_47:\n        /* \"contracts/QualityCertification.sol\":1778:1784  paused */\n      0x02\n      0x00\n      swap1\n      sload\n      swap1\n      0x0100\n      exp\n      swap1\n      div\n      0xff\n      and\n        /* \"contracts/QualityCertification.sol\":1777:1784  !paused */\n      iszero\n        /* \"contracts/QualityCertification.sol\":1769:1824  require(!paused, \"Operation Error: Contract is paused\") */\n      tag_50\n      jumpi\n      mload(0x40)\n      0x08c379a000000000000000000000000000000000000000000000000000000000\n      dup2\n      mstore\n      0x04\n      add\n      tag_51\n      swap1\n      tag_41\n      jump\t// in\n    tag_51:\n      mload(0x40)\n      dup1\n      swap2\n      sub\n      swap1\n      revert\n    tag_50:\n        /* \"contracts/QualityCertification.sol\":2697:2715  approvedInspectors */\n      0x01\n        /* \"contracts/QualityCertification.sol\":2697:2727  approvedInspectors[_inspector] */\n      0x00\n        /* \"contracts/QualityCertification.sol\":2716:2726  _inspector */\n      dup3\n        /* \"contracts/QualityCertification.sol\":2697:2727  approvedInspectors[_inspector] */\n      0xffffffffffffffffffffffffffffffffffffffff\n      and\n      0xffffffffffffffffffffffffffffffffffffffff\n      and\n      dup2\n      mstore\n      0x20\n      add\n      swap1\n      dup2\n      mstore\n      0x20\n      add\n      0x00\n      keccak256\n      0x00\n      swap1\n      sload\n      swap1\n      0x0100\n      exp\n      swap1\n      div\n      0xff\n      and\n        /* \"contracts/QualityCertification.sol\":2689:2766  require(approvedInspectors[_inspector], \"Removal Error: Inspector not found\") */\n      tag_53\n      jumpi\n      mload(0x40)\n      0x08c379a000000000000000000000000000000000000000000000000000000000\n      dup2\n      mstore\n      0x04\n      add\n      tag_54\n      swap1\n      tag_55\n      jump\t// in\n    tag_54:\n      mload(0x40)\n      dup1\n      swap2\n      sub\n      swap1\n      revert\n    tag_53:\n        /* \"contracts/QualityCertification.sol\":2809:2814  false */\n      0x00\n        /* \"contracts/QualityCertification.sol\":2776:2794  approvedInspectors */\n      0x01\n        /* \"contracts/QualityCertification.sol\":2776:2806  approvedInspectors[_inspector] */\n      0x00\n        /* \"contracts/QualityCertification.sol\":2795:2805  _inspector */\n      dup4\n        /* \"contracts/QualityCertification.sol\":2776:2806  approvedInspectors[_inspector] */\n      0xffffffffffffffffffffffffffffffffffffffff\n      and\n      0xffffffffffffffffffffffffffffffffffffffff\n      and\n      dup2\n      mstore\n      0x20\n      add\n      swap1\n      dup2\n      mstore\n      0x20\n      add\n      0x00\n      keccak256\n      0x00\n        /* \"contracts/QualityCertification.sol\":2776:2814  approvedInspectors[_inspector] = false */\n      0x0100\n      exp\n      dup2\n      sload\n      dup2\n      0xff\n      mul\n      not\n      and\n      swap1\n      dup4\n      iszero\n      iszero\n      mul\n      or\n      swap1\n      sstore\n      pop\n        /* \"contracts/QualityCertification.sol\":2846:2856  _inspector */\n      dup1\n        /* \"contracts/QualityCertification.sol\":2829:2857  InspectorRemoved(_inspector) */\n      0xffffffffffffffffffffffffffffffffffffffff\n      and\n      0x737c9e54b555afb1794817809534974cb61ead2136d82d4a8fecb34d09329220\n      mload(0x40)\n      mload(0x40)\n      dup1\n      swap2\n      sub\n      swap1\n      log2\n        /* \"contracts/QualityCertification.sol\":2589:2864  function removeInspector(address _inspector) external onlyApprovedInspector whenNotPaused {... */\n      pop\n      jump\t// out\n        /* \"contracts/QualityCertification.sol\":3112:3706  function addCertification(uint256 _productId, string calldata _criteria, QualityStatus _status)... */\n    tag_21:\n        /* \"contracts/QualityCertification.sol\":1580:1598  approvedInspectors */\n      0x01\n        /* \"contracts/QualityCertification.sol\":1580:1610  approvedInspectors[msg.sender] */\n      0x00\n        /* \"contracts/QualityCertification.sol\":1599:1609  msg.sender */\n      caller\n        /* \"contracts/QualityCertification.sol\":1580:1610  approvedInspectors[msg.sender] */\n      0xffffffffffffffffffffffffffffffffffffffff\n      and\n      0xffffffffffffffffffffffffffffffffffffffff\n      and\n      dup2\n      mstore\n      0x20\n      add\n      swap1\n      dup2\n      mstore\n      0x20\n      add\n      0x00\n      keccak256\n      0x00\n      swap1\n      sload\n      swap1\n      0x0100\n      exp\n      swap1\n      div\n      0xff\n      and\n        /* \"contracts/QualityCertification.sol\":1572:1657  require(approvedInspectors[msg.sender], \"Access Denied: Not an authorized inspector\") */\n      tag_57\n      jumpi\n      mload(0x40)\n      0x08c379a000000000000000000000000000000000000000000000000000000000\n      dup2\n      mstore\n      0x04\n      add\n      tag_58\n      swap1\n      tag_33\n      jump\t// in\n    tag_58:\n      mload(0x40)\n      dup1\n      swap2\n      sub\n      swap1\n      revert\n    tag_57:\n        /* \"contracts/QualityCertification.sol\":1778:1784  paused */\n      0x02\n      0x00\n      swap1\n      sload\n      swap1\n      0x0100\n      exp\n      swap1\n      div\n      0xff\n      and\n        /* \"contracts/QualityCertification.sol\":1777:1784  !paused */\n      iszero\n        /* \"contracts/QualityCertification.sol\":1769:1824  require(!paused, \"Operation Error: Contract is paused\") */\n      tag_60\n      jumpi\n      mload(0x40)\n      0x08c379a000000000000000000000000000000000000000000000000000000000\n      dup2\n      mstore\n      0x04\n      add\n      tag_61\n      swap1\n      tag_41\n      jump\t// in\n    tag_61:\n      mload(0x40)\n      dup1\n      swap2\n      sub\n      swap1\n      revert\n    tag_60:\n        /* \"contracts/QualityCertification.sol\":3295:3321  QualityStatus.NotCertified */\n      0x00\n        /* \"contracts/QualityCertification.sol\":3284:3321  _status != QualityStatus.NotCertified */\n      0x02\n      dup2\n      gt\n      iszero\n      tag_63\n      jumpi\n      tag_64\n      tag_65\n      jump\t// in\n    tag_64:\n    tag_63:\n        /* \"contracts/QualityCertification.sol\":3284:3291  _status */\n      dup2\n        /* \"contracts/QualityCertification.sol\":3284:3321  _status != QualityStatus.NotCertified */\n      0x02\n      dup2\n      gt\n      iszero\n      tag_66\n      jumpi\n      tag_67\n      tag_65\n      jump\t// in\n    tag_67:\n    tag_66:\n      sub\n        /* \"contracts/QualityCertification.sol\":3276:3369  require(_status != QualityStatus.NotCertified, \"Certification Error: Invalid quality status\") */\n      tag_68\n      jumpi\n      mload(0x40)\n      0x08c379a000000000000000000000000000000000000000000000000000000000\n      dup2\n      mstore\n      0x04\n      add\n      tag_69\n      swap1\n      tag_70\n      jump\t// in\n    tag_69:\n      mload(0x40)\n      dup1\n      swap2\n      sub\n      swap1\n      revert\n    tag_68:\n        /* \"contracts/QualityCertification.sol\":3424:3621  Certification({... */\n      mload(0x40)\n      dup1\n      0xa0\n      add\n      0x40\n      mstore\n      dup1\n        /* \"contracts/QualityCertification.sol\":3463:3473  _productId */\n      dup6\n        /* \"contracts/QualityCertification.sol\":3424:3621  Certification({... */\n      dup2\n      mstore\n      0x20\n      add\n        /* \"contracts/QualityCertification.sol\":3497:3506  _criteria */\n      dup5\n      dup5\n        /* \"contracts/QualityCertification.sol\":3424:3621  Certification({... */\n      dup1\n      dup1\n      0x1f\n      add\n      0x20\n      dup1\n      swap2\n      div\n      mul\n      0x20\n      add\n      mload(0x40)\n      swap1\n      dup2\n      add\n      0x40\n      mstore\n      dup1\n      swap4\n      swap3\n      swap2\n      swap1\n      dup2\n      dup2\n      mstore\n      0x20\n      add\n      dup4\n      dup4\n      dup1\n      dup3\n      dup5\n      calldatacopy\n      0x00\n      dup2\n      dup5\n      add\n      mstore\n      not(0x1f)\n      0x1f\n      dup3\n      add\n      and\n      swap1\n      pop\n      dup1\n      dup4\n      add\n      swap3\n      pop\n      pop\n      pop\n      pop\n      pop\n      pop\n      pop\n      dup2\n      mstore\n      0x20\n      add\n        /* \"contracts/QualityCertification.sol\":3528:3535  _status */\n      dup3\n        /* \"contracts/QualityCertification.sol\":3424:3621  Certification({... */\n      0x02\n      dup2\n      gt\n      iszero\n      tag_71\n      jumpi\n      tag_72\n      tag_65\n      jump\t// in\n    tag_72:\n    tag_71:\n      dup2\n      mstore\n      0x20\n      add\n        /* \"contracts/QualityCertification.sol\":3560:3575  block.timestamp */\n      timestamp\n        /* \"contracts/QualityCertification.sol\":3424:3621  Certification({... */\n      dup2\n      mstore\n      0x20\n      add\n        /* \"contracts/QualityCertification.sol\":3600:3610  msg.sender */\n      caller\n        /* \"contracts/QualityCertification.sol\":3424:3621  Certification({... */\n      0xffffffffffffffffffffffffffffffffffffffff\n      and\n      dup2\n      mstore\n      pop\n        /* \"contracts/QualityCertification.sol\":3388:3409  productCertifications */\n      0x00\n        /* \"contracts/QualityCertification.sol\":3388:3421  productCertifications[_productId] */\n      dup1\n        /* \"contracts/QualityCertification.sol\":3410:3420  _productId */\n      dup7\n        /* \"contracts/QualityCertification.sol\":3388:3421  productCertifications[_productId] */\n      dup2\n      mstore\n      0x20\n      add\n      swap1\n      dup2\n      mstore\n      0x20\n      add\n      0x00\n      keccak256\n        /* \"contracts/QualityCertification.sol\":3388:3621  productCertifications[_productId] = Certification({... */\n      0x00\n      dup3\n      add\n      mload\n      dup2\n      0x00\n      add\n      sstore\n      0x20\n      dup3\n      add\n      mload\n      dup2\n      0x01\n      add\n      swap1\n      dup2\n      tag_73\n      swap2\n      swap1\n      tag_74\n      jump\t// in\n    tag_73:\n      pop\n      0x40\n      dup3\n      add\n      mload\n      dup2\n      0x02\n      add\n      exp(0x0100, 0x00)\n      dup2\n      sload\n      dup2\n      0xff\n      mul\n      not\n      and\n      swap1\n      dup4\n      0x02\n      dup2\n      gt\n      iszero\n      tag_75\n      jumpi\n      tag_76\n      tag_65\n      jump\t// in\n    tag_76:\n    tag_75:\n      mul\n      or\n      swap1\n      sstore\n      pop\n      0x60\n      dup3\n      add\n      mload\n      dup2\n      0x03\n      add\n      sstore\n      0x80\n      dup3\n      add\n      mload\n      dup2\n      0x04\n      add\n      exp(0x0100, 0x00)\n      dup2\n      sload\n      dup2\n      0xffffffffffffffffffffffffffffffffffffffff\n      mul\n      not\n      and\n      swap1\n      dup4\n      0xffffffffffffffffffffffffffffffffffffffff\n      and\n      mul\n      or\n      swap1\n      sstore\n      pop\n      swap1\n      pop\n      pop\n        /* \"contracts/QualityCertification.sol\":3688:3698  msg.sender */\n      caller\n        /* \"contracts/QualityCertification.sol\":3637:3699  CertificationAdded(_productId, _criteria, _status, msg.sender) */\n      0xffffffffffffffffffffffffffffffffffffffff\n      and\n        /* \"contracts/QualityCertification.sol\":3656:3666  _productId */\n      dup5\n        /* \"contracts/QualityCertification.sol\":3637:3699  CertificationAdded(_productId, _criteria, _status, msg.sender) */\n      0x6dfe85a00f2644a811567fd19c478d250454c3c0dca7025e2198ce4fe24c1b77\n        /* \"contracts/QualityCertification.sol\":3668:3677  _criteria */\n      dup6\n      dup6\n        /* \"contracts/QualityCertification.sol\":3679:3686  _status */\n      dup6\n        /* \"contracts/QualityCertification.sol\":3637:3699  CertificationAdded(_productId, _criteria, _status, msg.sender) */\n      mload(0x40)\n      tag_77\n      swap4\n      swap3\n      swap2\n      swap1\n      tag_78\n      jump\t// in\n    tag_77:\n      mload(0x40)\n      dup1\n      swap2\n      sub\n      swap1\n      log3\n        /* \"contracts/QualityCertification.sol\":3112:3706  function addCertification(uint256 _productId, string calldata _criteria, QualityStatus _status)... */\n      pop\n      pop\n      pop\n      pop\n      jump\t// out\n        /* \"contracts/QualityCertification.sol\":4828:4917  function unpauseContract() external onlyApprovedInspector {... */\n    tag_23:\n        /* \"contracts/QualityCertification.sol\":1580:1598  approvedInspectors */\n      0x01\n        /* \"contracts/QualityCertification.sol\":1580:1610  approvedInspectors[msg.sender] */\n      0x00\n        /* \"contracts/QualityCertification.sol\":1599:1609  msg.sender */\n      caller\n        /* \"contracts/QualityCertification.sol\":1580:1610  approvedInspectors[msg.sender] */\n      0xffffffffffffffffffffffffffffffffffffffff\n      and\n      0xffffffffffffffffffffffffffffffffffffffff\n      and\n      dup2\n      mstore\n      0x20\n      add\n      swap1\n      dup2\n      mstore\n      0x20\n      add\n      0x00\n      keccak256\n      0x00\n      swap1\n      sload\n      swap1\n      0x0100\n      exp\n      swap1\n      div\n      0xff\n      and\n        /* \"contracts/QualityCertification.sol\":1572:1657  require(approvedInspectors[msg.sender], \"Access Denied: Not an authorized inspector\") */\n      tag_80\n      jumpi\n      mload(0x40)\n      0x08c379a000000000000000000000000000000000000000000000000000000000\n      dup2\n      mstore\n      0x04\n      add\n      tag_81\n      swap1\n      tag_33\n      jump\t// in\n    tag_81:\n      mload(0x40)\n      dup1\n      swap2\n      sub\n      swap1\n      revert\n    tag_80:\n        /* \"contracts/QualityCertification.sol\":4905:4910  false */\n      0x00\n        /* \"contracts/QualityCertification.sol\":4896:4902  paused */\n      0x02\n      0x00\n        /* \"contracts/QualityCertification.sol\":4896:4910  paused = false */\n      0x0100\n      exp\n      dup2\n      sload\n      dup2\n      0xff\n      mul\n      not\n      and\n      swap1\n      dup4\n      iszero\n      iszero\n      mul\n      or\n      swap1\n      sstore\n      pop\n        /* \"contracts/QualityCertification.sol\":4828:4917  function unpauseContract() external onlyApprovedInspector {... */\n      jump\t// out\n        /* \"contracts/QualityCertification.sol\":4115:4607  function getCertification(uint256 _productId) ... */\n    tag_27:\n        /* \"contracts/QualityCertification.sol\":4202:4224  string memory criteria */\n      0x60\n        /* \"contracts/QualityCertification.sol\":4226:4246  QualityStatus status */\n      0x00\n        /* \"contracts/QualityCertification.sol\":4248:4265  uint256 timestamp */\n      dup1\n        /* \"contracts/QualityCertification.sol\":4267:4284  address inspector */\n      0x00\n        /* \"contracts/QualityCertification.sol\":4301:4335  Certification memory certification */\n      dup1\n        /* \"contracts/QualityCertification.sol\":4338:4359  productCertifications */\n      0x00\n        /* \"contracts/QualityCertification.sol\":4338:4371  productCertifications[_productId] */\n      dup1\n        /* \"contracts/QualityCertification.sol\":4360:4370  _productId */\n      dup8\n        /* \"contracts/QualityCertification.sol\":4338:4371  productCertifications[_productId] */\n      dup2\n      mstore\n      0x20\n      add\n      swap1\n      dup2\n      mstore\n      0x20\n      add\n      0x00\n      keccak256\n        /* \"contracts/QualityCertification.sol\":4301:4371  Certification memory certification = productCertifications[_productId] */\n      mload(0x40)\n      dup1\n      0xa0\n      add\n      0x40\n      mstore\n      swap1\n      dup2\n      0x00\n      dup3\n      add\n      sload\n      dup2\n      mstore\n      0x20\n      add\n      0x01\n      dup3\n      add\n      dup1\n      sload\n      tag_84\n      swap1\n      tag_85\n      jump\t// in\n    tag_84:\n      dup1\n      0x1f\n      add\n      0x20\n      dup1\n      swap2\n      div\n      mul\n      0x20\n      add\n      mload(0x40)\n      swap1\n      dup2\n      add\n      0x40\n      mstore\n      dup1\n      swap3\n      swap2\n      swap1\n      dup2\n      dup2\n      mstore\n      0x20\n      add\n      dup3\n      dup1\n      sload\n      tag_86\n      swap1\n      tag_85\n      jump\t// in\n    tag_86:\n      dup1\n      iszero\n      tag_87\n      jumpi\n      dup1\n      0x1f\n      lt\n      tag_88\n      jumpi\n      0x0100\n      dup1\n      dup4\n      sload\n      div\n      mul\n      dup4\n      mstore\n      swap2\n      0x20\n      add\n      swap2\n      jump(tag_87)\n    tag_88:\n      dup3\n      add\n      swap2\n      swap1\n      0x00\n      mstore\n      keccak256(0x00, 0x20)\n      swap1\n    tag_89:\n      dup2\n      sload\n      dup2\n      mstore\n      swap1\n      0x01\n      add\n      swap1\n      0x20\n      add\n      dup1\n      dup4\n      gt\n      tag_89\n      jumpi\n      dup3\n      swap1\n      sub\n      0x1f\n      and\n      dup3\n      add\n      swap2\n    tag_87:\n      pop\n      pop\n      pop\n      pop\n      pop\n      dup2\n      mstore\n      0x20\n      add\n      0x02\n      dup3\n      add\n      0x00\n      swap1\n      sload\n      swap1\n      0x0100\n      exp\n      swap1\n      div\n      0xff\n      and\n      0x02\n      dup2\n      gt\n      iszero\n      tag_90\n      jumpi\n      tag_91\n      tag_65\n      jump\t// in\n    tag_91:\n    tag_90:\n      0x02\n      dup2\n      gt\n      iszero\n      tag_92\n      jumpi\n      tag_93\n      tag_65\n      jump\t// in\n    tag_93:\n    tag_92:\n      dup2\n      mstore\n      0x20\n      add\n      0x03\n      dup3\n      add\n      sload\n      dup2\n      mstore\n      0x20\n      add\n      0x04\n      dup3\n      add\n      0x00\n      swap1\n      sload\n      swap1\n      0x0100\n      exp\n      swap1\n      div\n      0xffffffffffffffffffffffffffffffffffffffff\n      and\n      0xffffffffffffffffffffffffffffffffffffffff\n      and\n      0xffffffffffffffffffffffffffffffffffffffff\n      and\n      dup2\n      mstore\n      pop\n      pop\n      swap1\n      pop\n        /* \"contracts/QualityCertification.sol\":4413:4439  QualityStatus.NotCertified */\n      0x00\n        /* \"contracts/QualityCertification.sol\":4389:4439  certification.status != QualityStatus.NotCertified */\n      0x02\n      dup2\n      gt\n      iszero\n      tag_94\n      jumpi\n      tag_95\n      tag_65\n      jump\t// in\n    tag_95:\n    tag_94:\n        /* \"contracts/QualityCertification.sol\":4389:4402  certification */\n      dup2\n        /* \"contracts/QualityCertification.sol\":4389:4409  certification.status */\n      0x40\n      add\n      mload\n        /* \"contracts/QualityCertification.sol\":4389:4439  certification.status != QualityStatus.NotCertified */\n      0x02\n      dup2\n      gt\n      iszero\n      tag_96\n      jumpi\n      tag_97\n      tag_65\n      jump\t// in\n    tag_97:\n    tag_96:\n      sub\n        /* \"contracts/QualityCertification.sol\":4381:4478  require(certification.status != QualityStatus.NotCertified, \"Query Error: Product not certified\") */\n      tag_98\n      jumpi\n      mload(0x40)\n      0x08c379a000000000000000000000000000000000000000000000000000000000\n      dup2\n      mstore\n      0x04\n      add\n      tag_99\n      swap1\n      tag_100\n      jump\t// in\n    tag_99:\n      mload(0x40)\n      dup1\n      swap2\n      sub\n      swap1\n      revert\n    tag_98:\n        /* \"contracts/QualityCertification.sol\":4505:4518  certification */\n      dup1\n        /* \"contracts/QualityCertification.sol\":4505:4527  certification.criteria */\n      0x20\n      add\n      mload\n        /* \"contracts/QualityCertification.sol\":4529:4542  certification */\n      dup2\n        /* \"contracts/QualityCertification.sol\":4529:4549  certification.status */\n      0x40\n      add\n      mload\n        /* \"contracts/QualityCertification.sol\":4551:4564  certification */\n      dup3\n        /* \"contracts/QualityCertification.sol\":4551:4574  certification.timestamp */\n      0x60\n      add\n      mload\n        /* \"contracts/QualityCertification.sol\":4576:4589  certification */\n      dup4\n        /* \"contracts/QualityCertification.sol\":4576:4599  certification.inspector */\n      0x80\n      add\n      mload\n        /* \"contracts/QualityCertification.sol\":4497:4600  return (certification.criteria, certification.status, certification.timestamp, certification.inspector) */\n      swap5\n      pop\n      swap5\n      pop\n      swap5\n      pop\n      swap5\n      pop\n      pop\n        /* \"contracts/QualityCertification.sol\":4115:4607  function getCertification(uint256 _productId) ... */\n      swap2\n      swap4\n      pop\n      swap2\n      swap4\n      jump\t// out\n        /* \"#utility.yul\":88:205   */\n    tag_102:\n        /* \"#utility.yul\":197:198   */\n      0x00\n        /* \"#utility.yul\":194:195   */\n      dup1\n        /* \"#utility.yul\":187:199   */\n      revert\n        /* \"#utility.yul\":211:328   */\n    tag_103:\n        /* \"#utility.yul\":320:321   */\n      0x00\n        /* \"#utility.yul\":317:318   */\n      dup1\n        /* \"#utility.yul\":310:322   */\n      revert\n        /* \"#utility.yul\":334:460   */\n    tag_104:\n        /* \"#utility.yul\":371:378   */\n      0x00\n        /* \"#utility.yul\":411:453   */\n      0xffffffffffffffffffffffffffffffffffffffff\n        /* \"#utility.yul\":404:409   */\n      dup3\n        /* \"#utility.yul\":400:454   */\n      and\n        /* \"#utility.yul\":389:454   */\n      swap1\n      pop\n        /* \"#utility.yul\":334:460   */\n      swap2\n      swap1\n      pop\n      jump\t// out\n        /* \"#utility.yul\":466:562   */\n    tag_105:\n        /* \"#utility.yul\":503:510   */\n      0x00\n        /* \"#utility.yul\":532:556   */\n      tag_165\n        /* \"#utility.yul\":550:555   */\n      dup3\n        /* \"#utility.yul\":532:556   */\n      tag_104\n      jump\t// in\n    tag_165:\n        /* \"#utility.yul\":521:556   */\n      swap1\n      pop\n        /* \"#utility.yul\":466:562   */\n      swap2\n      swap1\n      pop\n      jump\t// out\n        /* \"#utility.yul\":568:690   */\n    tag_106:\n        /* \"#utility.yul\":641:665   */\n      tag_167\n        /* \"#utility.yul\":659:664   */\n      dup2\n        /* \"#utility.yul\":641:665   */\n      tag_105\n      jump\t// in\n    tag_167:\n        /* \"#utility.yul\":634:639   */\n      dup2\n        /* \"#utility.yul\":631:666   */\n      eq\n        /* \"#utility.yul\":621:684   */\n      tag_168\n      jumpi\n        /* \"#utility.yul\":680:681   */\n      0x00\n        /* \"#utility.yul\":677:678   */\n      dup1\n        /* \"#utility.yul\":670:682   */\n      revert\n        /* \"#utility.yul\":621:684   */\n    tag_168:\n        /* \"#utility.yul\":568:690   */\n      pop\n      jump\t// out\n        /* \"#utility.yul\":696:835   */\n    tag_107:\n        /* \"#utility.yul\":742:747   */\n      0x00\n        /* \"#utility.yul\":780:786   */\n      dup2\n        /* \"#utility.yul\":767:787   */\n      calldataload\n        /* \"#utility.yul\":758:787   */\n      swap1\n      pop\n        /* \"#utility.yul\":796:829   */\n      tag_170\n        /* \"#utility.yul\":823:828   */\n      dup2\n        /* \"#utility.yul\":796:829   */\n      tag_106\n      jump\t// in\n    tag_170:\n        /* \"#utility.yul\":696:835   */\n      swap3\n      swap2\n      pop\n      pop\n      jump\t// out\n        /* \"#utility.yul\":841:1170   */\n    tag_13:\n        /* \"#utility.yul\":900:906   */\n      0x00\n        /* \"#utility.yul\":949:951   */\n      0x20\n        /* \"#utility.yul\":937:946   */\n      dup3\n        /* \"#utility.yul\":928:935   */\n      dup5\n        /* \"#utility.yul\":924:947   */\n      sub\n        /* \"#utility.yul\":920:952   */\n      slt\n        /* \"#utility.yul\":917:1036   */\n      iszero\n      tag_172\n      jumpi\n        /* \"#utility.yul\":955:1034   */\n      tag_173\n      tag_102\n      jump\t// in\n    tag_173:\n        /* \"#utility.yul\":917:1036   */\n    tag_172:\n        /* \"#utility.yul\":1075:1076   */\n      0x00\n        /* \"#utility.yul\":1100:1153   */\n      tag_174\n        /* \"#utility.yul\":1145:1152   */\n      dup5\n        /* \"#utility.yul\":1136:1142   */\n      dup3\n        /* \"#utility.yul\":1125:1134   */\n      dup6\n        /* \"#utility.yul\":1121:1143   */\n      add\n        /* \"#utility.yul\":1100:1153   */\n      tag_107\n      jump\t// in\n    tag_174:\n        /* \"#utility.yul\":1090:1153   */\n      swap2\n      pop\n        /* \"#utility.yul\":1046:1163   */\n      pop\n        /* \"#utility.yul\":841:1170   */\n      swap3\n      swap2\n      pop\n      pop\n      jump\t// out\n        /* \"#utility.yul\":1176:1253   */\n    tag_108:\n        /* \"#utility.yul\":1213:1220   */\n      0x00\n        /* \"#utility.yul\":1242:1247   */\n      dup2\n        /* \"#utility.yul\":1231:1247   */\n      swap1\n      pop\n        /* \"#utility.yul\":1176:1253   */\n      swap2\n      swap1\n      pop\n      jump\t// out\n        /* \"#utility.yul\":1259:1381   */\n    tag_109:\n        /* \"#utility.yul\":1332:1356   */\n      tag_177\n        /* \"#utility.yul\":1350:1355   */\n      dup2\n        /* \"#utility.yul\":1332:1356   */\n      tag_108\n      jump\t// in\n    tag_177:\n        /* \"#utility.yul\":1325:1330   */\n      dup2\n        /* \"#utility.yul\":1322:1357   */\n      eq\n        /* \"#utility.yul\":1312:1375   */\n      tag_178\n      jumpi\n        /* \"#utility.yul\":1371:1372   */\n      0x00\n        /* \"#utility.yul\":1368:1369   */\n      dup1\n        /* \"#utility.yul\":1361:1373   */\n      revert\n        /* \"#utility.yul\":1312:1375   */\n    tag_178:\n        /* \"#utility.yul\":1259:1381   */\n      pop\n      jump\t// out\n        /* \"#utility.yul\":1387:1526   */\n    tag_110:\n        /* \"#utility.yul\":1433:1438   */\n      0x00\n        /* \"#utility.yul\":1471:1477   */\n      dup2\n        /* \"#utility.yul\":1458:1478   */\n      calldataload\n        /* \"#utility.yul\":1449:1478   */\n      swap1\n      pop\n        /* \"#utility.yul\":1487:1520   */\n      tag_180\n        /* \"#utility.yul\":1514:1519   */\n      dup2\n        /* \"#utility.yul\":1487:1520   */\n      tag_109\n      jump\t// in\n    tag_180:\n        /* \"#utility.yul\":1387:1526   */\n      swap3\n      swap2\n      pop\n      pop\n      jump\t// out\n        /* \"#utility.yul\":1532:1649   */\n    tag_111:\n        /* \"#utility.yul\":1641:1642   */\n      0x00\n        /* \"#utility.yul\":1638:1639   */\n      dup1\n        /* \"#utility.yul\":1631:1643   */\n      revert\n        /* \"#utility.yul\":1655:1772   */\n    tag_112:\n        /* \"#utility.yul\":1764:1765   */\n      0x00\n        /* \"#utility.yul\":1761:1762   */\n      dup1\n        /* \"#utility.yul\":1754:1766   */\n      revert\n        /* \"#utility.yul\":1778:1895   */\n    tag_113:\n        /* \"#utility.yul\":1887:1888   */\n      0x00\n        /* \"#utility.yul\":1884:1885   */\n      dup1\n        /* \"#utility.yul\":1877:1889   */\n      revert\n        /* \"#utility.yul\":1915:2468   */\n    tag_114:\n        /* \"#utility.yul\":1973:1981   */\n      0x00\n        /* \"#utility.yul\":1983:1989   */\n      dup1\n        /* \"#utility.yul\":2033:2036   */\n      dup4\n        /* \"#utility.yul\":2026:2030   */\n      0x1f\n        /* \"#utility.yul\":2018:2024   */\n      dup5\n        /* \"#utility.yul\":2014:2031   */\n      add\n        /* \"#utility.yul\":2010:2037   */\n      slt\n        /* \"#utility.yul\":2000:2122   */\n      tag_185\n      jumpi\n        /* \"#utility.yul\":2041:2120   */\n      tag_186\n      tag_111\n      jump\t// in\n    tag_186:\n        /* \"#utility.yul\":2000:2122   */\n    tag_185:\n        /* \"#utility.yul\":2154:2160   */\n      dup3\n        /* \"#utility.yul\":2141:2161   */\n      calldataload\n        /* \"#utility.yul\":2131:2161   */\n      swap1\n      pop\n        /* \"#utility.yul\":2184:2202   */\n      0xffffffffffffffff\n        /* \"#utility.yul\":2176:2182   */\n      dup2\n        /* \"#utility.yul\":2173:2203   */\n      gt\n        /* \"#utility.yul\":2170:2287   */\n      iszero\n      tag_187\n      jumpi\n        /* \"#utility.yul\":2206:2285   */\n      tag_188\n      tag_112\n      jump\t// in\n    tag_188:\n        /* \"#utility.yul\":2170:2287   */\n    tag_187:\n        /* \"#utility.yul\":2320:2324   */\n      0x20\n        /* \"#utility.yul\":2312:2318   */\n      dup4\n        /* \"#utility.yul\":2308:2325   */\n      add\n        /* \"#utility.yul\":2296:2325   */\n      swap2\n      pop\n        /* \"#utility.yul\":2374:2377   */\n      dup4\n        /* \"#utility.yul\":2366:2370   */\n      0x01\n        /* \"#utility.yul\":2358:2364   */\n      dup3\n        /* \"#utility.yul\":2354:2371   */\n      mul\n        /* \"#utility.yul\":2344:2352   */\n      dup4\n        /* \"#utility.yul\":2340:2372   */\n      add\n        /* \"#utility.yul\":2337:2378   */\n      gt\n        /* \"#utility.yul\":2334:2462   */\n      iszero\n      tag_189\n      jumpi\n        /* \"#utility.yul\":2381:2460   */\n      tag_190\n      tag_113\n      jump\t// in\n    tag_190:\n        /* \"#utility.yul\":2334:2462   */\n    tag_189:\n        /* \"#utility.yul\":1915:2468   */\n      swap3\n      pop\n      swap3\n      swap1\n      pop\n      jump\t// out\n        /* \"#utility.yul\":2474:2588   */\n    tag_115:\n        /* \"#utility.yul\":2562:2563   */\n      0x03\n        /* \"#utility.yul\":2555:2560   */\n      dup2\n        /* \"#utility.yul\":2552:2564   */\n      lt\n        /* \"#utility.yul\":2542:2582   */\n      tag_192\n      jumpi\n        /* \"#utility.yul\":2578:2579   */\n      0x00\n        /* \"#utility.yul\":2575:2576   */\n      dup1\n        /* \"#utility.yul\":2568:2580   */\n      revert\n        /* \"#utility.yul\":2542:2582   */\n    tag_192:\n        /* \"#utility.yul\":2474:2588   */\n      pop\n      jump\t// out\n        /* \"#utility.yul\":2594:2763   */\n    tag_116:\n        /* \"#utility.yul\":2655:2660   */\n      0x00\n        /* \"#utility.yul\":2693:2699   */\n      dup2\n        /* \"#utility.yul\":2680:2700   */\n      calldataload\n        /* \"#utility.yul\":2671:2700   */\n      swap1\n      pop\n        /* \"#utility.yul\":2709:2757   */\n      tag_194\n        /* \"#utility.yul\":2751:2756   */\n      dup2\n        /* \"#utility.yul\":2709:2757   */\n      tag_115\n      jump\t// in\n    tag_194:\n        /* \"#utility.yul\":2594:2763   */\n      swap3\n      swap2\n      pop\n      pop\n      jump\t// out\n        /* \"#utility.yul\":2769:3618   */\n    tag_20:\n        /* \"#utility.yul\":2873:2879   */\n      0x00\n        /* \"#utility.yul\":2881:2887   */\n      dup1\n        /* \"#utility.yul\":2889:2895   */\n      0x00\n        /* \"#utility.yul\":2897:2903   */\n      dup1\n        /* \"#utility.yul\":2946:2948   */\n      0x60\n        /* \"#utility.yul\":2934:2943   */\n      dup6\n        /* \"#utility.yul\":2925:2932   */\n      dup8\n        /* \"#utility.yul\":2921:2944   */\n      sub\n        /* \"#utility.yul\":2917:2949   */\n      slt\n        /* \"#utility.yul\":2914:3033   */\n      iszero\n      tag_196\n      jumpi\n        /* \"#utility.yul\":2952:3031   */\n      tag_197\n      tag_102\n      jump\t// in\n    tag_197:\n        /* \"#utility.yul\":2914:3033   */\n    tag_196:\n        /* \"#utility.yul\":3072:3073   */\n      0x00\n        /* \"#utility.yul\":3097:3150   */\n      tag_198\n        /* \"#utility.yul\":3142:3149   */\n      dup8\n        /* \"#utility.yul\":3133:3139   */\n      dup3\n        /* \"#utility.yul\":3122:3131   */\n      dup9\n        /* \"#utility.yul\":3118:3140   */\n      add\n        /* \"#utility.yul\":3097:3150   */\n      tag_110\n      jump\t// in\n    tag_198:\n        /* \"#utility.yul\":3087:3150   */\n      swap5\n      pop\n        /* \"#utility.yul\":3043:3160   */\n      pop\n        /* \"#utility.yul\":3227:3229   */\n      0x20\n        /* \"#utility.yul\":3216:3225   */\n      dup6\n        /* \"#utility.yul\":3212:3230   */\n      add\n        /* \"#utility.yul\":3199:3231   */\n      calldataload\n        /* \"#utility.yul\":3258:3276   */\n      0xffffffffffffffff\n        /* \"#utility.yul\":3250:3256   */\n      dup2\n        /* \"#utility.yul\":3247:3277   */\n      gt\n        /* \"#utility.yul\":3244:3361   */\n      iszero\n      tag_199\n      jumpi\n        /* \"#utility.yul\":3280:3359   */\n      tag_200\n      tag_103\n      jump\t// in\n    tag_200:\n        /* \"#utility.yul\":3244:3361   */\n    tag_199:\n        /* \"#utility.yul\":3393:3458   */\n      tag_201\n        /* \"#utility.yul\":3450:3457   */\n      dup8\n        /* \"#utility.yul\":3441:3447   */\n      dup3\n        /* \"#utility.yul\":3430:3439   */\n      dup9\n        /* \"#utility.yul\":3426:3448   */\n      add\n        /* \"#utility.yul\":3393:3458   */\n      tag_114\n      jump\t// in\n    tag_201:\n        /* \"#utility.yul\":3375:3458   */\n      swap4\n      pop\n      swap4\n      pop\n        /* \"#utility.yul\":3170:3468   */\n      pop\n        /* \"#utility.yul\":3507:3509   */\n      0x40\n        /* \"#utility.yul\":3533:3601   */\n      tag_202\n        /* \"#utility.yul\":3593:3600   */\n      dup8\n        /* \"#utility.yul\":3584:3590   */\n      dup3\n        /* \"#utility.yul\":3573:3582   */\n      dup9\n        /* \"#utility.yul\":3569:3591   */\n      add\n        /* \"#utility.yul\":3533:3601   */\n      tag_116\n      jump\t// in\n    tag_202:\n        /* \"#utility.yul\":3523:3601   */\n      swap2\n      pop\n        /* \"#utility.yul\":3478:3611   */\n      pop\n        /* \"#utility.yul\":2769:3618   */\n      swap3\n      swap6\n      swap2\n      swap5\n      pop\n      swap3\n      pop\n      jump\t// out\n        /* \"#utility.yul\":3624:3953   */\n    tag_26:\n        /* \"#utility.yul\":3683:3689   */\n      0x00\n        /* \"#utility.yul\":3732:3734   */\n      0x20\n        /* \"#utility.yul\":3720:3729   */\n      dup3\n        /* \"#utility.yul\":3711:3718   */\n      dup5\n        /* \"#utility.yul\":3707:3730   */\n      sub\n        /* \"#utility.yul\":3703:3735   */\n      slt\n        /* \"#utility.yul\":3700:3819   */\n      iszero\n      tag_204\n      jumpi\n        /* \"#utility.yul\":3738:3817   */\n      tag_205\n      tag_102\n      jump\t// in\n    tag_205:\n        /* \"#utility.yul\":3700:3819   */\n    tag_204:\n        /* \"#utility.yul\":3858:3859   */\n      0x00\n        /* \"#utility.yul\":3883:3936   */\n      tag_206\n        /* \"#utility.yul\":3928:3935   */\n      dup5\n        /* \"#utility.yul\":3919:3925   */\n      dup3\n        /* \"#utility.yul\":3908:3917   */\n      dup6\n        /* \"#utility.yul\":3904:3926   */\n      add\n        /* \"#utility.yul\":3883:3936   */\n      tag_110\n      jump\t// in\n    tag_206:\n        /* \"#utility.yul\":3873:3936   */\n      swap2\n      pop\n        /* \"#utility.yul\":3829:3946   */\n      pop\n        /* \"#utility.yul\":3624:3953   */\n      swap3\n      swap2\n      pop\n      pop\n      jump\t// out\n        /* \"#utility.yul\":3959:4058   */\n    tag_117:\n        /* \"#utility.yul\":4011:4017   */\n      0x00\n        /* \"#utility.yul\":4045:4050   */\n      dup2\n        /* \"#utility.yul\":4039:4051   */\n      mload\n        /* \"#utility.yul\":4029:4051   */\n      swap1\n      pop\n        /* \"#utility.yul\":3959:4058   */\n      swap2\n      swap1\n      pop\n      jump\t// out\n        /* \"#utility.yul\":4064:4233   */\n    tag_118:\n        /* \"#utility.yul\":4148:4159   */\n      0x00\n        /* \"#utility.yul\":4182:4188   */\n      dup3\n        /* \"#utility.yul\":4177:4180   */\n      dup3\n        /* \"#utility.yul\":4170:4189   */\n      mstore\n        /* \"#utility.yul\":4222:4226   */\n      0x20\n        /* \"#utility.yul\":4217:4220   */\n      dup3\n        /* \"#utility.yul\":4213:4227   */\n      add\n        /* \"#utility.yul\":4198:4227   */\n      swap1\n      pop\n        /* \"#utility.yul\":4064:4233   */\n      swap3\n      swap2\n      pop\n      pop\n      jump\t// out\n        /* \"#utility.yul\":4239:4378   */\n    tag_119:\n        /* \"#utility.yul\":4328:4334   */\n      dup3\n        /* \"#utility.yul\":4323:4326   */\n      dup2\n        /* \"#utility.yul\":4318:4321   */\n      dup4\n        /* \"#utility.yul\":4312:4335   */\n      mcopy\n        /* \"#utility.yul\":4369:4370   */\n      0x00\n        /* \"#utility.yul\":4360:4366   */\n      dup4\n        /* \"#utility.yul\":4355:4358   */\n      dup4\n        /* \"#utility.yul\":4351:4367   */\n      add\n        /* \"#utility.yul\":4344:4371   */\n      mstore\n        /* \"#utility.yul\":4239:4378   */\n      pop\n      pop\n      pop\n      jump\t// out\n        /* \"#utility.yul\":4384:4486   */\n    tag_120:\n        /* \"#utility.yul\":4425:4431   */\n      0x00\n        /* \"#utility.yul\":4476:4478   */\n      0x1f\n        /* \"#utility.yul\":4472:4479   */\n      not\n        /* \"#utility.yul\":4467:4469   */\n      0x1f\n        /* \"#utility.yul\":4460:4465   */\n      dup4\n        /* \"#utility.yul\":4456:4470   */\n      add\n        /* \"#utility.yul\":4452:4480   */\n      and\n        /* \"#utility.yul\":4442:4480   */\n      swap1\n      pop\n        /* \"#utility.yul\":4384:4486   */\n      swap2\n      swap1\n      pop\n      jump\t// out\n        /* \"#utility.yul\":4492:4869   */\n    tag_121:\n        /* \"#utility.yul\":4580:4583   */\n      0x00\n        /* \"#utility.yul\":4608:4647   */\n      tag_212\n        /* \"#utility.yul\":4641:4646   */\n      dup3\n        /* \"#utility.yul\":4608:4647   */\n      tag_117\n      jump\t// in\n    tag_212:\n        /* \"#utility.yul\":4663:4734   */\n      tag_213\n        /* \"#utility.yul\":4727:4733   */\n      dup2\n        /* \"#utility.yul\":4722:4725   */\n      dup6\n        /* \"#utility.yul\":4663:4734   */\n      tag_118\n      jump\t// in\n    tag_213:\n        /* \"#utility.yul\":4656:4734   */\n      swap4\n      pop\n        /* \"#utility.yul\":4743:4808   */\n      tag_214\n        /* \"#utility.yul\":4801:4807   */\n      dup2\n        /* \"#utility.yul\":4796:4799   */\n      dup6\n        /* \"#utility.yul\":4789:4793   */\n      0x20\n        /* \"#utility.yul\":4782:4787   */\n      dup7\n        /* \"#utility.yul\":4778:4794   */\n      add\n        /* \"#utility.yul\":4743:4808   */\n      tag_119\n      jump\t// in\n    tag_214:\n        /* \"#utility.yul\":4833:4862   */\n      tag_215\n        /* \"#utility.yul\":4855:4861   */\n      dup2\n        /* \"#utility.yul\":4833:4862   */\n      tag_120\n      jump\t// in\n    tag_215:\n        /* \"#utility.yul\":4828:4831   */\n      dup5\n        /* \"#utility.yul\":4824:4863   */\n      add\n        /* \"#utility.yul\":4817:4863   */\n      swap2\n      pop\n        /* \"#utility.yul\":4584:4869   */\n      pop\n        /* \"#utility.yul\":4492:4869   */\n      swap3\n      swap2\n      pop\n      pop\n      jump\t// out\n        /* \"#utility.yul\":4875:5055   */\n    tag_65:\n        /* \"#utility.yul\":4923:5000   */\n      0x4e487b7100000000000000000000000000000000000000000000000000000000\n        /* \"#utility.yul\":4920:4921   */\n      0x00\n        /* \"#utility.yul\":4913:5001   */\n      mstore\n        /* \"#utility.yul\":5020:5024   */\n      0x21\n        /* \"#utility.yul\":5017:5018   */\n      0x04\n        /* \"#utility.yul\":5010:5025   */\n      mstore\n        /* \"#utility.yul\":5044:5048   */\n      0x24\n        /* \"#utility.yul\":5041:5042   */\n      0x00\n        /* \"#utility.yul\":5034:5049   */\n      revert\n        /* \"#utility.yul\":5061:5181   */\n    tag_122:\n        /* \"#utility.yul\":5149:5150   */\n      0x03\n        /* \"#utility.yul\":5142:5147   */\n      dup2\n        /* \"#utility.yul\":5139:5151   */\n      lt\n        /* \"#utility.yul\":5129:5175   */\n      tag_218\n      jumpi\n        /* \"#utility.yul\":5155:5173   */\n      tag_219\n      tag_65\n      jump\t// in\n    tag_219:\n        /* \"#utility.yul\":5129:5175   */\n    tag_218:\n        /* \"#utility.yul\":5061:5181   */\n      pop\n      jump\t// out\n        /* \"#utility.yul\":5187:5328   */\n    tag_123:\n        /* \"#utility.yul\":5239:5246   */\n      0x00\n        /* \"#utility.yul\":5268:5273   */\n      dup2\n        /* \"#utility.yul\":5257:5273   */\n      swap1\n      pop\n        /* \"#utility.yul\":5274:5322   */\n      tag_221\n        /* \"#utility.yul\":5316:5321   */\n      dup3\n        /* \"#utility.yul\":5274:5322   */\n      tag_122\n      jump\t// in\n    tag_221:\n        /* \"#utility.yul\":5187:5328   */\n      swap2\n      swap1\n      pop\n      jump\t// out\n        /* \"#utility.yul\":5334:5475   */\n    tag_124:\n        /* \"#utility.yul\":5397:5406   */\n      0x00\n        /* \"#utility.yul\":5430:5469   */\n      tag_223\n        /* \"#utility.yul\":5463:5468   */\n      dup3\n        /* \"#utility.yul\":5430:5469   */\n      tag_123\n      jump\t// in\n    tag_223:\n        /* \"#utility.yul\":5417:5469   */\n      swap1\n      pop\n        /* \"#utility.yul\":5334:5475   */\n      swap2\n      swap1\n      pop\n      jump\t// out\n        /* \"#utility.yul\":5481:5638   */\n    tag_125:\n        /* \"#utility.yul\":5581:5631   */\n      tag_225\n        /* \"#utility.yul\":5625:5630   */\n      dup2\n        /* \"#utility.yul\":5581:5631   */\n      tag_124\n      jump\t// in\n    tag_225:\n        /* \"#utility.yul\":5576:5579   */\n      dup3\n        /* \"#utility.yul\":5569:5632   */\n      mstore\n        /* \"#utility.yul\":5481:5638   */\n      pop\n      pop\n      jump\t// out\n        /* \"#utility.yul\":5644:5762   */\n    tag_126:\n        /* \"#utility.yul\":5731:5755   */\n      tag_227\n        /* \"#utility.yul\":5749:5754   */\n      dup2\n        /* \"#utility.yul\":5731:5755   */\n      tag_108\n      jump\t// in\n    tag_227:\n        /* \"#utility.yul\":5726:5729   */\n      dup3\n        /* \"#utility.yul\":5719:5756   */\n      mstore\n        /* \"#utility.yul\":5644:5762   */\n      pop\n      pop\n      jump\t// out\n        /* \"#utility.yul\":5768:5886   */\n    tag_127:\n        /* \"#utility.yul\":5855:5879   */\n      tag_229\n        /* \"#utility.yul\":5873:5878   */\n      dup2\n        /* \"#utility.yul\":5855:5879   */\n      tag_105\n      jump\t// in\n    tag_229:\n        /* \"#utility.yul\":5850:5853   */\n      dup3\n        /* \"#utility.yul\":5843:5880   */\n      mstore\n        /* \"#utility.yul\":5768:5886   */\n      pop\n      pop\n      jump\t// out\n        /* \"#utility.yul\":5892:6562   */\n    tag_29:\n        /* \"#utility.yul\":6102:6106   */\n      0x00\n        /* \"#utility.yul\":6140:6143   */\n      0x80\n        /* \"#utility.yul\":6129:6138   */\n      dup3\n        /* \"#utility.yul\":6125:6144   */\n      add\n        /* \"#utility.yul\":6117:6144   */\n      swap1\n      pop\n        /* \"#utility.yul\":6190:6199   */\n      dup2\n        /* \"#utility.yul\":6184:6188   */\n      dup2\n        /* \"#utility.yul\":6180:6200   */\n      sub\n        /* \"#utility.yul\":6176:6177   */\n      0x00\n        /* \"#utility.yul\":6165:6174   */\n      dup4\n        /* \"#utility.yul\":6161:6178   */\n      add\n        /* \"#utility.yul\":6154:6201   */\n      mstore\n        /* \"#utility.yul\":6218:6296   */\n      tag_231\n        /* \"#utility.yul\":6291:6295   */\n      dup2\n        /* \"#utility.yul\":6282:6288   */\n      dup8\n        /* \"#utility.yul\":6218:6296   */\n      tag_121\n      jump\t// in\n    tag_231:\n        /* \"#utility.yul\":6210:6296   */\n      swap1\n      pop\n        /* \"#utility.yul\":6306:6391   */\n      tag_232\n        /* \"#utility.yul\":6387:6389   */\n      0x20\n        /* \"#utility.yul\":6376:6385   */\n      dup4\n        /* \"#utility.yul\":6372:6390   */\n      add\n        /* \"#utility.yul\":6363:6369   */\n      dup7\n        /* \"#utility.yul\":6306:6391   */\n      tag_125\n      jump\t// in\n    tag_232:\n        /* \"#utility.yul\":6401:6473   */\n      tag_233\n        /* \"#utility.yul\":6469:6471   */\n      0x40\n        /* \"#utility.yul\":6458:6467   */\n      dup4\n        /* \"#utility.yul\":6454:6472   */\n      add\n        /* \"#utility.yul\":6445:6451   */\n      dup6\n        /* \"#utility.yul\":6401:6473   */\n      tag_126\n      jump\t// in\n    tag_233:\n        /* \"#utility.yul\":6483:6555   */\n      tag_234\n        /* \"#utility.yul\":6551:6553   */\n      0x60\n        /* \"#utility.yul\":6540:6549   */\n      dup4\n        /* \"#utility.yul\":6536:6554   */\n      add\n        /* \"#utility.yul\":6527:6533   */\n      dup5\n        /* \"#utility.yul\":6483:6555   */\n      tag_127\n      jump\t// in\n    tag_234:\n        /* \"#utility.yul\":5892:6562   */\n      swap6\n      swap5\n      pop\n      pop\n      pop\n      pop\n      pop\n      jump\t// out\n        /* \"#utility.yul\":6568:6797   */\n    tag_128:\n        /* \"#utility.yul\":6708:6742   */\n      0x4163636573732044656e6965643a204e6f7420616e20617574686f72697a6564\n        /* \"#utility.yul\":6704:6705   */\n      0x00\n        /* \"#utility.yul\":6696:6702   */\n      dup3\n        /* \"#utility.yul\":6692:6706   */\n      add\n        /* \"#utility.yul\":6685:6743   */\n      mstore\n        /* \"#utility.yul\":6777:6789   */\n      0x20696e73706563746f7200000000000000000000000000000000000000000000\n        /* \"#utility.yul\":6772:6774   */\n      0x20\n        /* \"#utility.yul\":6764:6770   */\n      dup3\n        /* \"#utility.yul\":6760:6775   */\n      add\n        /* \"#utility.yul\":6753:6790   */\n      mstore\n        /* \"#utility.yul\":6568:6797   */\n      pop\n      jump\t// out\n        /* \"#utility.yul\":6803:7169   */\n    tag_129:\n        /* \"#utility.yul\":6945:6948   */\n      0x00\n        /* \"#utility.yul\":6966:7033   */\n      tag_237\n        /* \"#utility.yul\":7030:7032   */\n      0x2a\n        /* \"#utility.yul\":7025:7028   */\n      dup4\n        /* \"#utility.yul\":6966:7033   */\n      tag_118\n      jump\t// in\n    tag_237:\n        /* \"#utility.yul\":6959:7033   */\n      swap2\n      pop\n        /* \"#utility.yul\":7042:7135   */\n      tag_238\n        /* \"#utility.yul\":7131:7134   */\n      dup3\n        /* \"#utility.yul\":7042:7135   */\n      tag_128\n      jump\t// in\n    tag_238:\n        /* \"#utility.yul\":7160:7162   */\n      0x40\n        /* \"#utility.yul\":7155:7158   */\n      dup3\n        /* \"#utility.yul\":7151:7163   */\n      add\n        /* \"#utility.yul\":7144:7163   */\n      swap1\n      pop\n        /* \"#utility.yul\":6803:7169   */\n      swap2\n      swap1\n      pop\n      jump\t// out\n        /* \"#utility.yul\":7175:7594   */\n    tag_33:\n        /* \"#utility.yul\":7341:7345   */\n      0x00\n        /* \"#utility.yul\":7379:7381   */\n      0x20\n        /* \"#utility.yul\":7368:7377   */\n      dup3\n        /* \"#utility.yul\":7364:7382   */\n      add\n        /* \"#utility.yul\":7356:7382   */\n      swap1\n      pop\n        /* \"#utility.yul\":7428:7437   */\n      dup2\n        /* \"#utility.yul\":7422:7426   */\n      dup2\n        /* \"#utility.yul\":7418:7438   */\n      sub\n        /* \"#utility.yul\":7414:7415   */\n      0x00\n        /* \"#utility.yul\":7403:7412   */\n      dup4\n        /* \"#utility.yul\":7399:7416   */\n      add\n        /* \"#utility.yul\":7392:7439   */\n      mstore\n        /* \"#utility.yul\":7456:7587   */\n      tag_240\n        /* \"#utility.yul\":7582:7586   */\n      dup2\n        /* \"#utility.yul\":7456:7587   */\n      tag_129\n      jump\t// in\n    tag_240:\n        /* \"#utility.yul\":7448:7587   */\n      swap1\n      pop\n        /* \"#utility.yul\":7175:7594   */\n      swap2\n      swap1\n      pop\n      jump\t// out\n        /* \"#utility.yul\":7600:7822   */\n    tag_130:\n        /* \"#utility.yul\":7740:7774   */\n      0x4f7065726174696f6e204572726f723a20436f6e747261637420697320706175\n        /* \"#utility.yul\":7736:7737   */\n      0x00\n        /* \"#utility.yul\":7728:7734   */\n      dup3\n        /* \"#utility.yul\":7724:7738   */\n      add\n        /* \"#utility.yul\":7717:7775   */\n      mstore\n        /* \"#utility.yul\":7809:7814   */\n      0x7365640000000000000000000000000000000000000000000000000000000000\n        /* \"#utility.yul\":7804:7806   */\n      0x20\n        /* \"#utility.yul\":7796:7802   */\n      dup3\n        /* \"#utility.yul\":7792:7807   */\n      add\n        /* \"#utility.yul\":7785:7815   */\n      mstore\n        /* \"#utility.yul\":7600:7822   */\n      pop\n      jump\t// out\n        /* \"#utility.yul\":7828:8194   */\n    tag_131:\n        /* \"#utility.yul\":7970:7973   */\n      0x00\n        /* \"#utility.yul\":7991:8058   */\n      tag_243\n        /* \"#utility.yul\":8055:8057   */\n      0x23\n        /* \"#utility.yul\":8050:8053   */\n      dup4\n        /* \"#utility.yul\":7991:8058   */\n      tag_118\n      jump\t// in\n    tag_243:\n        /* \"#utility.yul\":7984:8058   */\n      swap2\n      pop\n        /* \"#utility.yul\":8067:8160   */\n      tag_244\n        /* \"#utility.yul\":8156:8159   */\n      dup3\n        /* \"#utility.yul\":8067:8160   */\n      tag_130\n      jump\t// in\n    tag_244:\n        /* \"#utility.yul\":8185:8187   */\n      0x40\n        /* \"#utility.yul\":8180:8183   */\n      dup3\n        /* \"#utility.yul\":8176:8188   */\n      add\n        /* \"#utility.yul\":8169:8188   */\n      swap1\n      pop\n        /* \"#utility.yul\":7828:8194   */\n      swap2\n      swap1\n      pop\n      jump\t// out\n        /* \"#utility.yul\":8200:8619   */\n    tag_41:\n        /* \"#utility.yul\":8366:8370   */\n      0x00\n        /* \"#utility.yul\":8404:8406   */\n      0x20\n        /* \"#utility.yul\":8393:8402   */\n      dup3\n        /* \"#utility.yul\":8389:8407   */\n      add\n        /* \"#utility.yul\":8381:8407   */\n      swap1\n      pop\n        /* \"#utility.yul\":8453:8462   */\n      dup2\n        /* \"#utility.yul\":8447:8451   */\n      dup2\n        /* \"#utility.yul\":8443:8463   */\n      sub\n        /* \"#utility.yul\":8439:8440   */\n      0x00\n        /* \"#utility.yul\":8428:8437   */\n      dup4\n        /* \"#utility.yul\":8424:8441   */\n      add\n        /* \"#utility.yul\":8417:8464   */\n      mstore\n        /* \"#utility.yul\":8481:8612   */\n      tag_246\n        /* \"#utility.yul\":8607:8611   */\n      dup2\n        /* \"#utility.yul\":8481:8612   */\n      tag_131\n      jump\t// in\n    tag_246:\n        /* \"#utility.yul\":8473:8612   */\n      swap1\n      pop\n        /* \"#utility.yul\":8200:8619   */\n      swap2\n      swap1\n      pop\n      jump\t// out\n        /* \"#utility.yul\":8625:8854   */\n    tag_132:\n        /* \"#utility.yul\":8765:8799   */\n      0x417070726f76616c204572726f723a20496e73706563746f7220616c72656164\n        /* \"#utility.yul\":8761:8762   */\n      0x00\n        /* \"#utility.yul\":8753:8759   */\n      dup3\n        /* \"#utility.yul\":8749:8763   */\n      add\n        /* \"#utility.yul\":8742:8800   */\n      mstore\n        /* \"#utility.yul\":8834:8846   */\n      0x7920617070726f76656400000000000000000000000000000000000000000000\n        /* \"#utility.yul\":8829:8831   */\n      0x20\n        /* \"#utility.yul\":8821:8827   */\n      dup3\n        /* \"#utility.yul\":8817:8832   */\n      add\n        /* \"#utility.yul\":8810:8847   */\n      mstore\n        /* \"#utility.yul\":8625:8854   */\n      pop\n      jump\t// out\n        /* \"#utility.yul\":8860:9226   */\n    tag_133:\n        /* \"#utility.yul\":9002:9005   */\n      0x00\n        /* \"#utility.yul\":9023:9090   */\n      tag_249\n        /* \"#utility.yul\":9087:9089   */\n      0x2a\n        /* \"#utility.yul\":9082:9085   */\n      dup4\n        /* \"#utility.yul\":9023:9090   */\n      tag_118\n      jump\t// in\n    tag_249:\n        /* \"#utility.yul\":9016:9090   */\n      swap2\n      pop\n        /* \"#utility.yul\":9099:9192   */\n      tag_250\n        /* \"#utility.yul\":9188:9191   */\n      dup3\n        /* \"#utility.yul\":9099:9192   */\n      tag_132\n      jump\t// in\n    tag_250:\n        /* \"#utility.yul\":9217:9219   */\n      0x40\n        /* \"#utility.yul\":9212:9215   */\n      dup3\n        /* \"#utility.yul\":9208:9220   */\n      add\n        /* \"#utility.yul\":9201:9220   */\n      swap1\n      pop\n        /* \"#utility.yul\":8860:9226   */\n      swap2\n      swap1\n      pop\n      jump\t// out\n        /* \"#utility.yul\":9232:9651   */\n    tag_45:\n        /* \"#utility.yul\":9398:9402   */\n      0x00\n        /* \"#utility.yul\":9436:9438   */\n      0x20\n        /* \"#utility.yul\":9425:9434   */\n      dup3\n        /* \"#utility.yul\":9421:9439   */\n      add\n        /* \"#utility.yul\":9413:9439   */\n      swap1\n      pop\n        /* \"#utility.yul\":9485:9494   */\n      dup2\n        /* \"#utility.yul\":9479:9483   */\n      dup2\n        /* \"#utility.yul\":9475:9495   */\n      sub\n        /* \"#utility.yul\":9471:9472   */\n      0x00\n        /* \"#utility.yul\":9460:9469   */\n      dup4\n        /* \"#utility.yul\":9456:9473   */\n      add\n        /* \"#utility.yul\":9449:9496   */\n      mstore\n        /* \"#utility.yul\":9513:9644   */\n      tag_252\n        /* \"#utility.yul\":9639:9643   */\n      dup2\n        /* \"#utility.yul\":9513:9644   */\n      tag_133\n      jump\t// in\n    tag_252:\n        /* \"#utility.yul\":9505:9644   */\n      swap1\n      pop\n        /* \"#utility.yul\":9232:9651   */\n      swap2\n      swap1\n      pop\n      jump\t// out\n        /* \"#utility.yul\":9657:9878   */\n    tag_134:\n        /* \"#utility.yul\":9797:9831   */\n      0x52656d6f76616c204572726f723a20496e73706563746f72206e6f7420666f75\n        /* \"#utility.yul\":9793:9794   */\n      0x00\n        /* \"#utility.yul\":9785:9791   */\n      dup3\n        /* \"#utility.yul\":9781:9795   */\n      add\n        /* \"#utility.yul\":9774:9832   */\n      mstore\n        /* \"#utility.yul\":9866:9870   */\n      0x6e64000000000000000000000000000000000000000000000000000000000000\n        /* \"#utility.yul\":9861:9863   */\n      0x20\n        /* \"#utility.yul\":9853:9859   */\n      dup3\n        /* \"#utility.yul\":9849:9864   */\n      add\n        /* \"#utility.yul\":9842:9871   */\n      mstore\n        /* \"#utility.yul\":9657:9878   */\n      pop\n      jump\t// out\n        /* \"#utility.yul\":9884:10250   */\n    tag_135:\n        /* \"#utility.yul\":10026:10029   */\n      0x00\n        /* \"#utility.yul\":10047:10114   */\n      tag_255\n        /* \"#utility.yul\":10111:10113   */\n      0x22\n        /* \"#utility.yul\":10106:10109   */\n      dup4\n        /* \"#utility.yul\":10047:10114   */\n      tag_118\n      jump\t// in\n    tag_255:\n        /* \"#utility.yul\":10040:10114   */\n      swap2\n      pop\n        /* \"#utility.yul\":10123:10216   */\n      tag_256\n        /* \"#utility.yul\":10212:10215   */\n      dup3\n        /* \"#utility.yul\":10123:10216   */\n      tag_134\n      jump\t// in\n    tag_256:\n        /* \"#utility.yul\":10241:10243   */\n      0x40\n        /* \"#utility.yul\":10236:10239   */\n      dup3\n        /* \"#utility.yul\":10232:10244   */\n      add\n        /* \"#utility.yul\":10225:10244   */\n      swap1\n      pop\n        /* \"#utility.yul\":9884:10250   */\n      swap2\n      swap1\n      pop\n      jump\t// out\n        /* \"#utility.yul\":10256:10675   */\n    tag_55:\n        /* \"#utility.yul\":10422:10426   */\n      0x00\n        /* \"#utility.yul\":10460:10462   */\n      0x20\n        /* \"#utility.yul\":10449:10458   */\n      dup3\n        /* \"#utility.yul\":10445:10463   */\n      add\n        /* \"#utility.yul\":10437:10463   */\n      swap1\n      pop\n        /* \"#utility.yul\":10509:10518   */\n      dup2\n        /* \"#utility.yul\":10503:10507   */\n      dup2\n        /* \"#utility.yul\":10499:10519   */\n      sub\n        /* \"#utility.yul\":10495:10496   */\n      0x00\n        /* \"#utility.yul\":10484:10493   */\n      dup4\n        /* \"#utility.yul\":10480:10497   */\n      add\n        /* \"#utility.yul\":10473:10520   */\n      mstore\n        /* \"#utility.yul\":10537:10668   */\n      tag_258\n        /* \"#utility.yul\":10663:10667   */\n      dup2\n        /* \"#utility.yul\":10537:10668   */\n      tag_135\n      jump\t// in\n    tag_258:\n        /* \"#utility.yul\":10529:10668   */\n      swap1\n      pop\n        /* \"#utility.yul\":10256:10675   */\n      swap2\n      swap1\n      pop\n      jump\t// out\n        /* \"#utility.yul\":10681:10911   */\n    tag_136:\n        /* \"#utility.yul\":10821:10855   */\n      0x43657274696669636174696f6e204572726f723a20496e76616c696420717561\n        /* \"#utility.yul\":10817:10818   */\n      0x00\n        /* \"#utility.yul\":10809:10815   */\n      dup3\n        /* \"#utility.yul\":10805:10819   */\n      add\n        /* \"#utility.yul\":10798:10856   */\n      mstore\n        /* \"#utility.yul\":10890:10903   */\n      0x6c69747920737461747573000000000000000000000000000000000000000000\n        /* \"#utility.yul\":10885:10887   */\n      0x20\n        /* \"#utility.yul\":10877:10883   */\n      dup3\n        /* \"#utility.yul\":10873:10888   */\n      add\n        /* \"#utility.yul\":10866:10904   */\n      mstore\n        /* \"#utility.yul\":10681:10911   */\n      pop\n      jump\t// out\n        /* \"#utility.yul\":10917:11283   */\n    tag_137:\n        /* \"#utility.yul\":11059:11062   */\n      0x00\n        /* \"#utility.yul\":11080:11147   */\n      tag_261\n        /* \"#utility.yul\":11144:11146   */\n      0x2b\n        /* \"#utility.yul\":11139:11142   */\n      dup4\n        /* \"#utility.yul\":11080:11147   */\n      tag_118\n      jump\t// in\n    tag_261:\n        /* \"#utility.yul\":11073:11147   */\n      swap2\n      pop\n        /* \"#utility.yul\":11156:11249   */\n      tag_262\n        /* \"#utility.yul\":11245:11248   */\n      dup3\n        /* \"#utility.yul\":11156:11249   */\n      tag_136\n      jump\t// in\n    tag_262:\n        /* \"#utility.yul\":11274:11276   */\n      0x40\n        /* \"#utility.yul\":11269:11272   */\n      dup3\n        /* \"#utility.yul\":11265:11277   */\n      add\n        /* \"#utility.yul\":11258:11277   */\n      swap1\n      pop\n        /* \"#utility.yul\":10917:11283   */\n      swap2\n      swap1\n      pop\n      jump\t// out\n        /* \"#utility.yul\":11289:11708   */\n    tag_70:\n        /* \"#utility.yul\":11455:11459   */\n      0x00\n        /* \"#utility.yul\":11493:11495   */\n      0x20\n        /* \"#utility.yul\":11482:11491   */\n      dup3\n        /* \"#utility.yul\":11478:11496   */\n      add\n        /* \"#utility.yul\":11470:11496   */\n      swap1\n      pop\n        /* \"#utility.yul\":11542:11551   */\n      dup2\n        /* \"#utility.yul\":11536:11540   */\n      dup2\n        /* \"#utility.yul\":11532:11552   */\n      sub\n        /* \"#utility.yul\":11528:11529   */\n      0x00\n        /* \"#utility.yul\":11517:11526   */\n      dup4\n        /* \"#utility.yul\":11513:11530   */\n      add\n        /* \"#utility.yul\":11506:11553   */\n      mstore\n        /* \"#utility.yul\":11570:11701   */\n      tag_264\n        /* \"#utility.yul\":11696:11700   */\n      dup2\n        /* \"#utility.yul\":11570:11701   */\n      tag_137\n      jump\t// in\n    tag_264:\n        /* \"#utility.yul\":11562:11701   */\n      swap1\n      pop\n        /* \"#utility.yul\":11289:11708   */\n      swap2\n      swap1\n      pop\n      jump\t// out\n        /* \"#utility.yul\":11714:11894   */\n    tag_138:\n        /* \"#utility.yul\":11762:11839   */\n      0x4e487b7100000000000000000000000000000000000000000000000000000000\n        /* \"#utility.yul\":11759:11760   */\n      0x00\n        /* \"#utility.yul\":11752:11840   */\n      mstore\n        /* \"#utility.yul\":11859:11863   */\n      0x41\n        /* \"#utility.yul\":11856:11857   */\n      0x04\n        /* \"#utility.yul\":11849:11864   */\n      mstore\n        /* \"#utility.yul\":11883:11887   */\n      0x24\n        /* \"#utility.yul\":11880:11881   */\n      0x00\n        /* \"#utility.yul\":11873:11888   */\n      revert\n        /* \"#utility.yul\":11900:12080   */\n    tag_139:\n        /* \"#utility.yul\":11948:12025   */\n      0x4e487b7100000000000000000000000000000000000000000000000000000000\n        /* \"#utility.yul\":11945:11946   */\n      0x00\n        /* \"#utility.yul\":11938:12026   */\n      mstore\n        /* \"#utility.yul\":12045:12049   */\n      0x22\n        /* \"#utility.yul\":12042:12043   */\n      0x04\n        /* \"#utility.yul\":12035:12050   */\n      mstore\n        /* \"#utility.yul\":12069:12073   */\n      0x24\n        /* \"#utility.yul\":12066:12067   */\n      0x00\n        /* \"#utility.yul\":12059:12074   */\n      revert\n        /* \"#utility.yul\":12086:12406   */\n    tag_85:\n        /* \"#utility.yul\":12130:12136   */\n      0x00\n        /* \"#utility.yul\":12167:12168   */\n      0x02\n        /* \"#utility.yul\":12161:12165   */\n      dup3\n        /* \"#utility.yul\":12157:12169   */\n      div\n        /* \"#utility.yul\":12147:12169   */\n      swap1\n      pop\n        /* \"#utility.yul\":12214:12215   */\n      0x01\n        /* \"#utility.yul\":12208:12212   */\n      dup3\n        /* \"#utility.yul\":12204:12216   */\n      and\n        /* \"#utility.yul\":12235:12253   */\n      dup1\n        /* \"#utility.yul\":12225:12306   */\n      tag_268\n      jumpi\n        /* \"#utility.yul\":12291:12295   */\n      0x7f\n        /* \"#utility.yul\":12283:12289   */\n      dup3\n        /* \"#utility.yul\":12279:12296   */\n      and\n        /* \"#utility.yul\":12269:12296   */\n      swap2\n      pop\n        /* \"#utility.yul\":12225:12306   */\n    tag_268:\n        /* \"#utility.yul\":12353:12355   */\n      0x20\n        /* \"#utility.yul\":12345:12351   */\n      dup3\n        /* \"#utility.yul\":12342:12356   */\n      lt\n        /* \"#utility.yul\":12322:12340   */\n      dup2\n        /* \"#utility.yul\":12319:12357   */\n      sub\n        /* \"#utility.yul\":12316:12400   */\n      tag_269\n      jumpi\n        /* \"#utility.yul\":12372:12390   */\n      tag_270\n      tag_139\n      jump\t// in\n    tag_270:\n        /* \"#utility.yul\":12316:12400   */\n    tag_269:\n        /* \"#utility.yul\":12137:12406   */\n      pop\n        /* \"#utility.yul\":12086:12406   */\n      swap2\n      swap1\n      pop\n      jump\t// out\n        /* \"#utility.yul\":12412:12553   */\n    tag_140:\n        /* \"#utility.yul\":12461:12465   */\n      0x00\n        /* \"#utility.yul\":12484:12487   */\n      dup2\n        /* \"#utility.yul\":12476:12487   */\n      swap1\n      pop\n        /* \"#utility.yul\":12507:12510   */\n      dup2\n        /* \"#utility.yul\":12504:12505   */\n      0x00\n        /* \"#utility.yul\":12497:12511   */\n      mstore\n        /* \"#utility.yul\":12541:12545   */\n      0x20\n        /* \"#utility.yul\":12538:12539   */\n      0x00\n        /* \"#utility.yul\":12528:12546   */\n      keccak256\n        /* \"#utility.yul\":12520:12546   */\n      swap1\n      pop\n        /* \"#utility.yul\":12412:12553   */\n      swap2\n      swap1\n      pop\n      jump\t// out\n        /* \"#utility.yul\":12559:12652   */\n    tag_141:\n        /* \"#utility.yul\":12596:12602   */\n      0x00\n        /* \"#utility.yul\":12643:12645   */\n      0x20\n        /* \"#utility.yul\":12638:12640   */\n      0x1f\n        /* \"#utility.yul\":12631:12636   */\n      dup4\n        /* \"#utility.yul\":12627:12641   */\n      add\n        /* \"#utility.yul\":12623:12646   */\n      div\n        /* \"#utility.yul\":12613:12646   */\n      swap1\n      pop\n        /* \"#utility.yul\":12559:12652   */\n      swap2\n      swap1\n      pop\n      jump\t// out\n        /* \"#utility.yul\":12658:12765   */\n    tag_142:\n        /* \"#utility.yul\":12702:12710   */\n      0x00\n        /* \"#utility.yul\":12752:12757   */\n      dup3\n        /* \"#utility.yul\":12746:12750   */\n      dup3\n        /* \"#utility.yul\":12742:12758   */\n      shl\n        /* \"#utility.yul\":12721:12758   */\n      swap1\n      pop\n        /* \"#utility.yul\":12658:12765   */\n      swap3\n      swap2\n      pop\n      pop\n      jump\t// out\n        /* \"#utility.yul\":12771:13164   */\n    tag_143:\n        /* \"#utility.yul\":12840:12846   */\n      0x00\n        /* \"#utility.yul\":12890:12891   */\n      0x08\n        /* \"#utility.yul\":12878:12888   */\n      dup4\n        /* \"#utility.yul\":12874:12892   */\n      mul\n        /* \"#utility.yul\":12913:13010   */\n      tag_275\n        /* \"#utility.yul\":12943:13009   */\n      0xffffffffffffffffffffffffffffffffffffffffffffffffffffffffffffffff\n        /* \"#utility.yul\":12932:12941   */\n      dup3\n        /* \"#utility.yul\":12913:13010   */\n      tag_142\n      jump\t// in\n    tag_275:\n        /* \"#utility.yul\":13031:13070   */\n      tag_276\n        /* \"#utility.yul\":13061:13069   */\n      dup7\n        /* \"#utility.yul\":13050:13059   */\n      dup4\n        /* \"#utility.yul\":13031:13070   */\n      tag_142\n      jump\t// in\n    tag_276:\n        /* \"#utility.yul\":13019:13070   */\n      swap6\n      pop\n        /* \"#utility.yul\":13103:13107   */\n      dup1\n        /* \"#utility.yul\":13099:13108   */\n      not\n        /* \"#utility.yul\":13092:13097   */\n      dup5\n        /* \"#utility.yul\":13088:13109   */\n      and\n        /* \"#utility.yul\":13079:13109   */\n      swap4\n      pop\n        /* \"#utility.yul\":13152:13156   */\n      dup1\n        /* \"#utility.yul\":13142:13150   */\n      dup7\n        /* \"#utility.yul\":13138:13157   */\n      and\n        /* \"#utility.yul\":13131:13136   */\n      dup5\n        /* \"#utility.yul\":13128:13158   */\n      or\n        /* \"#utility.yul\":13118:13158   */\n      swap3\n      pop\n        /* \"#utility.yul\":12847:13164   */\n      pop\n      pop\n        /* \"#utility.yul\":12771:13164   */\n      swap4\n      swap3\n      pop\n      pop\n      pop\n      jump\t// out\n        /* \"#utility.yul\":13170:13230   */\n    tag_144:\n        /* \"#utility.yul\":13198:13201   */\n      0x00\n        /* \"#utility.yul\":13219:13224   */\n      dup2\n        /* \"#utility.yul\":13212:13224   */\n      swap1\n      pop\n        /* \"#utility.yul\":13170:13230   */\n      swap2\n      swap1\n      pop\n      jump\t// out\n        /* \"#utility.yul\":13236:13378   */\n    tag_145:\n        /* \"#utility.yul\":13286:13295   */\n      0x00\n        /* \"#utility.yul\":13319:13372   */\n      tag_279\n        /* \"#utility.yul\":13337:13371   */\n      tag_280\n        /* \"#utility.yul\":13346:13370   */\n      tag_281\n        /* \"#utility.yul\":13364:13369   */\n      dup5\n        /* \"#utility.yul\":13346:13370   */\n      tag_108\n      jump\t// in\n    tag_281:\n        /* \"#utility.yul\":13337:13371   */\n      tag_144\n      jump\t// in\n    tag_280:\n        /* \"#utility.yul\":13319:13372   */\n      tag_108\n      jump\t// in\n    tag_279:\n        /* \"#utility.yul\":13306:13372   */\n      swap1\n      pop\n        /* \"#utility.yul\":13236:13378   */\n      swap2\n      swap1\n      pop\n      jump\t// out\n        /* \"#utility.yul\":13384:13459   */\n    tag_146:\n        /* \"#utility.yul\":13427:13430   */\n      0x00\n        /* \"#utility.yul\":13448:13453   */\n      dup2\n        /* \"#utility.yul\":13441:13453   */\n      swap1\n      pop\n        /* \"#utility.yul\":13384:13459   */\n      swap2\n      swap1\n      pop\n      jump\t// out\n        /* \"#utility.yul\":13465:13734   */\n    tag_147:\n        /* \"#utility.yul\":13575:13614   */\n      tag_284\n        /* \"#utility.yul\":13606:13613   */\n      dup4\n        /* \"#utility.yul\":13575:13614   */\n      tag_145\n      jump\t// in\n    tag_284:\n        /* \"#utility.yul\":13636:13727   */\n      tag_285\n        /* \"#utility.yul\":13685:13726   */\n      tag_286\n        /* \"#utility.yul\":13709:13725   */\n      dup3\n        /* \"#utility.yul\":13685:13726   */\n      tag_146\n      jump\t// in\n    tag_286:\n        /* \"#utility.yul\":13677:13683   */\n      dup5\n        /* \"#utility.yul\":13670:13674   */\n      dup5\n        /* \"#utility.yul\":13664:13675   */\n      sload\n        /* \"#utility.yul\":13636:13727   */\n      tag_143\n      jump\t// in\n    tag_285:\n        /* \"#utility.yul\":13630:13634   */\n      dup3\n        /* \"#utility.yul\":13623:13728   */\n      sstore\n        /* \"#utility.yul\":13541:13734   */\n      pop\n        /* \"#utility.yul\":13465:13734   */\n      pop\n      pop\n      pop\n      jump\t// out\n        /* \"#utility.yul\":13740:13813   */\n    tag_148:\n        /* \"#utility.yul\":13785:13788   */\n      0x00\n        /* \"#utility.yul\":13740:13813   */\n      swap1\n      jump\t// out\n        /* \"#utility.yul\":13819:14008   */\n    tag_149:\n        /* \"#utility.yul\":13896:13928   */\n      tag_289\n      tag_148\n      jump\t// in\n    tag_289:\n        /* \"#utility.yul\":13937:14002   */\n      tag_290\n        /* \"#utility.yul\":13995:14001   */\n      dup2\n        /* \"#utility.yul\":13987:13993   */\n      dup5\n        /* \"#utility.yul\":13981:13985   */\n      dup5\n        /* \"#utility.yul\":13937:14002   */\n      tag_147\n      jump\t// in\n    tag_290:\n        /* \"#utility.yul\":13872:14008   */\n      pop\n        /* \"#utility.yul\":13819:14008   */\n      pop\n      pop\n      jump\t// out\n        /* \"#utility.yul\":14014:14200   */\n    tag_150:\n        /* \"#utility.yul\":14074:14194   */\n    tag_292:\n        /* \"#utility.yul\":14091:14094   */\n      dup2\n        /* \"#utility.yul\":14084:14089   */\n      dup2\n        /* \"#utility.yul\":14081:14095   */\n      lt\n        /* \"#utility.yul\":14074:14194   */\n      iszero\n      tag_294\n      jumpi\n        /* \"#utility.yul\":14145:14184   */\n      tag_295\n        /* \"#utility.yul\":14182:14183   */\n      0x00\n        /* \"#utility.yul\":14175:14180   */\n      dup3\n        /* \"#utility.yul\":14145:14184   */\n      tag_149\n      jump\t// in\n    tag_295:\n        /* \"#utility.yul\":14118:14119   */\n      0x01\n        /* \"#utility.yul\":14111:14116   */\n      dup2\n        /* \"#utility.yul\":14107:14120   */\n      add\n        /* \"#utility.yul\":14098:14120   */\n      swap1\n      pop\n        /* \"#utility.yul\":14074:14194   */\n      jump(tag_292)\n    tag_294:\n        /* \"#utility.yul\":14014:14200   */\n      pop\n      pop\n      jump\t// out\n        /* \"#utility.yul\":14206:14749   */\n    tag_151:\n        /* \"#utility.yul\":14307:14309   */\n      0x1f\n        /* \"#utility.yul\":14302:14305   */\n      dup3\n        /* \"#utility.yul\":14299:14310   */\n      gt\n        /* \"#utility.yul\":14296:14742   */\n      iszero\n      tag_297\n      jumpi\n        /* \"#utility.yul\":14341:14379   */\n      tag_298\n        /* \"#utility.yul\":14373:14378   */\n      dup2\n        /* \"#utility.yul\":14341:14379   */\n      tag_140\n      jump\t// in\n    tag_298:\n        /* \"#utility.yul\":14425:14454   */\n      tag_299\n        /* \"#utility.yul\":14443:14453   */\n      dup5\n        /* \"#utility.yul\":14425:14454   */\n      tag_141\n      jump\t// in\n    tag_299:\n        /* \"#utility.yul\":14415:14423   */\n      dup2\n        /* \"#utility.yul\":14411:14455   */\n      add\n        /* \"#utility.yul\":14608:14610   */\n      0x20\n        /* \"#utility.yul\":14596:14606   */\n      dup6\n        /* \"#utility.yul\":14593:14611   */\n      lt\n        /* \"#utility.yul\":14590:14639   */\n      iszero\n      tag_300\n      jumpi\n        /* \"#utility.yul\":14629:14637   */\n      dup2\n        /* \"#utility.yul\":14614:14637   */\n      swap1\n      pop\n        /* \"#utility.yul\":14590:14639   */\n    tag_300:\n        /* \"#utility.yul\":14652:14732   */\n      tag_301\n        /* \"#utility.yul\":14708:14730   */\n      tag_302\n        /* \"#utility.yul\":14726:14729   */\n      dup6\n        /* \"#utility.yul\":14708:14730   */\n      tag_141\n      jump\t// in\n    tag_302:\n        /* \"#utility.yul\":14698:14706   */\n      dup4\n        /* \"#utility.yul\":14694:14731   */\n      add\n        /* \"#utility.yul\":14681:14692   */\n      dup3\n        /* \"#utility.yul\":14652:14732   */\n      tag_150\n      jump\t// in\n    tag_301:\n        /* \"#utility.yul\":14311:14742   */\n      pop\n      pop\n        /* \"#utility.yul\":14296:14742   */\n    tag_297:\n        /* \"#utility.yul\":14206:14749   */\n      pop\n      pop\n      pop\n      jump\t// out\n        /* \"#utility.yul\":14755:14872   */\n    tag_152:\n        /* \"#utility.yul\":14809:14817   */\n      0x00\n        /* \"#utility.yul\":14859:14864   */\n      dup3\n        /* \"#utility.yul\":14853:14857   */\n      dup3\n        /* \"#utility.yul\":14849:14865   */\n      shr\n        /* \"#utility.yul\":14828:14865   */\n      swap1\n      pop\n        /* \"#utility.yul\":14755:14872   */\n      swap3\n      swap2\n      pop\n      pop\n      jump\t// out\n        /* \"#utility.yul\":14878:15047   */\n    tag_153:\n        /* \"#utility.yul\":14922:14928   */\n      0x00\n        /* \"#utility.yul\":14955:15006   */\n      tag_305\n        /* \"#utility.yul\":15003:15004   */\n      0x00\n        /* \"#utility.yul\":14999:15005   */\n      not\n        /* \"#utility.yul\":14991:14996   */\n      dup5\n        /* \"#utility.yul\":14988:14989   */\n      0x08\n        /* \"#utility.yul\":14984:14997   */\n      mul\n        /* \"#utility.yul\":14955:15006   */\n      tag_152\n      jump\t// in\n    tag_305:\n        /* \"#utility.yul\":14951:15007   */\n      not\n        /* \"#utility.yul\":15036:15040   */\n      dup1\n        /* \"#utility.yul\":15030:15034   */\n      dup4\n        /* \"#utility.yul\":15026:15041   */\n      and\n        /* \"#utility.yul\":15016:15041   */\n      swap2\n      pop\n        /* \"#utility.yul\":14929:15047   */\n      pop\n        /* \"#utility.yul\":14878:15047   */\n      swap3\n      swap2\n      pop\n      pop\n      jump\t// out\n        /* \"#utility.yul\":15052:15347   */\n    tag_154:\n        /* \"#utility.yul\":15128:15132   */\n      0x00\n        /* \"#utility.yul\":15274:15303   */\n      tag_307\n        /* \"#utility.yul\":15299:15302   */\n      dup4\n        /* \"#utility.yul\":15293:15297   */\n      dup4\n        /* \"#utility.yul\":15274:15303   */\n      tag_153\n      jump\t// in\n    tag_307:\n        /* \"#utility.yul\":15266:15303   */\n      swap2\n      pop\n        /* \"#utility.yul\":15336:15339   */\n      dup3\n        /* \"#utility.yul\":15333:15334   */\n      0x02\n        /* \"#utility.yul\":15329:15340   */\n      mul\n        /* \"#utility.yul\":15323:15327   */\n      dup3\n        /* \"#utility.yul\":15320:15341   */\n      or\n        /* \"#utility.yul\":15312:15341   */\n      swap1\n      pop\n        /* \"#utility.yul\":15052:15347   */\n      swap3\n      swap2\n      pop\n      pop\n      jump\t// out\n        /* \"#utility.yul\":15352:16747   */\n    tag_74:\n        /* \"#utility.yul\":15469:15506   */\n      tag_309\n        /* \"#utility.yul\":15502:15505   */\n      dup3\n        /* \"#utility.yul\":15469:15506   */\n      tag_117\n      jump\t// in\n    tag_309:\n        /* \"#utility.yul\":15571:15589   */\n      0xffffffffffffffff\n        /* \"#utility.yul\":15563:15569   */\n      dup2\n        /* \"#utility.yul\":15560:15590   */\n      gt\n        /* \"#utility.yul\":15557:15613   */\n      iszero\n      tag_310\n      jumpi\n        /* \"#utility.yul\":15593:15611   */\n      tag_311\n      tag_138\n      jump\t// in\n    tag_311:\n        /* \"#utility.yul\":15557:15613   */\n    tag_310:\n        /* \"#utility.yul\":15637:15675   */\n      tag_312\n        /* \"#utility.yul\":15669:15673   */\n      dup3\n        /* \"#utility.yul\":15663:15674   */\n      sload\n        /* \"#utility.yul\":15637:15675   */\n      tag_85\n      jump\t// in\n    tag_312:\n        /* \"#utility.yul\":15722:15789   */\n      tag_313\n        /* \"#utility.yul\":15782:15788   */\n      dup3\n        /* \"#utility.yul\":15774:15780   */\n      dup3\n        /* \"#utility.yul\":15768:15772   */\n      dup6\n        /* \"#utility.yul\":15722:15789   */\n      tag_151\n      jump\t// in\n    tag_313:\n        /* \"#utility.yul\":15816:15817   */\n      0x00\n        /* \"#utility.yul\":15840:15844   */\n      0x20\n        /* \"#utility.yul\":15827:15844   */\n      swap1\n      pop\n        /* \"#utility.yul\":15872:15874   */\n      0x1f\n        /* \"#utility.yul\":15864:15870   */\n      dup4\n        /* \"#utility.yul\":15861:15875   */\n      gt\n        /* \"#utility.yul\":15889:15890   */\n      0x01\n        /* \"#utility.yul\":15884:16502   */\n      dup2\n      eq\n      tag_315\n      jumpi\n        /* \"#utility.yul\":16546:16547   */\n      0x00\n        /* \"#utility.yul\":16563:16569   */\n      dup5\n        /* \"#utility.yul\":16560:16637   */\n      iszero\n      tag_316\n      jumpi\n        /* \"#utility.yul\":16612:16621   */\n      dup3\n        /* \"#utility.yul\":16607:16610   */\n      dup8\n        /* \"#utility.yul\":16603:16622   */\n      add\n        /* \"#utility.yul\":16597:16623   */\n      mload\n        /* \"#utility.yul\":16588:16623   */\n      swap1\n      pop\n        /* \"#utility.yul\":16560:16637   */\n    tag_316:\n        /* \"#utility.yul\":16663:16730   */\n      tag_317\n        /* \"#utility.yul\":16723:16729   */\n      dup6\n        /* \"#utility.yul\":16716:16721   */\n      dup3\n        /* \"#utility.yul\":16663:16730   */\n      tag_154\n      jump\t// in\n    tag_317:\n        /* \"#utility.yul\":16657:16661   */\n      dup7\n        /* \"#utility.yul\":16650:16731   */\n      sstore\n        /* \"#utility.yul\":16519:16741   */\n      pop\n        /* \"#utility.yul\":15854:16741   */\n      jump(tag_314)\n        /* \"#utility.yul\":15884:16502   */\n    tag_315:\n        /* \"#utility.yul\":15936:15940   */\n      0x1f\n        /* \"#utility.yul\":15932:15941   */\n      not\n        /* \"#utility.yul\":15924:15930   */\n      dup5\n        /* \"#utility.yul\":15920:15942   */\n      and\n        /* \"#utility.yul\":15970:16007   */\n      tag_318\n        /* \"#utility.yul\":16002:16006   */\n      dup7\n        /* \"#utility.yul\":15970:16007   */\n      tag_140\n      jump\t// in\n    tag_318:\n        /* \"#utility.yul\":16029:16030   */\n      0x00\n        /* \"#utility.yul\":16043:16251   */\n    tag_319:\n        /* \"#utility.yul\":16057:16064   */\n      dup3\n        /* \"#utility.yul\":16054:16055   */\n      dup2\n        /* \"#utility.yul\":16051:16065   */\n      lt\n        /* \"#utility.yul\":16043:16251   */\n      iszero\n      tag_321\n      jumpi\n        /* \"#utility.yul\":16136:16145   */\n      dup5\n        /* \"#utility.yul\":16131:16134   */\n      dup10\n        /* \"#utility.yul\":16127:16146   */\n      add\n        /* \"#utility.yul\":16121:16147   */\n      mload\n        /* \"#utility.yul\":16113:16119   */\n      dup3\n        /* \"#utility.yul\":16106:16148   */\n      sstore\n        /* \"#utility.yul\":16187:16188   */\n      0x01\n        /* \"#utility.yul\":16179:16185   */\n      dup3\n        /* \"#utility.yul\":16175:16189   */\n      add\n        /* \"#utility.yul\":16165:16189   */\n      swap2\n      pop\n        /* \"#utility.yul\":16234:16236   */\n      0x20\n        /* \"#utility.yul\":16223:16232   */\n      dup6\n        /* \"#utility.yul\":16219:16237   */\n      add\n        /* \"#utility.yul\":16206:16237   */\n      swap5\n      pop\n        /* \"#utility.yul\":16080:16084   */\n      0x20\n        /* \"#utility.yul\":16077:16078   */\n      dup2\n        /* \"#utility.yul\":16073:16085   */\n      add\n        /* \"#utility.yul\":16068:16085   */\n      swap1\n      pop\n        /* \"#utility.yul\":16043:16251   */\n      jump(tag_319)\n    tag_321:\n        /* \"#utility.yul\":16279:16285   */\n      dup7\n        /* \"#utility.yul\":16270:16277   */\n      dup4\n        /* \"#utility.yul\":16267:16286   */\n      lt\n        /* \"#utility.yul\":16264:16443   */\n      iszero\n      tag_322\n      jumpi\n        /* \"#utility.yul\":16337:16346   */\n      dup5\n        /* \"#utility.yul\":16332:16335   */\n      dup10\n        /* \"#utility.yul\":16328:16347   */\n      add\n        /* \"#utility.yul\":16322:16348   */\n      mload\n        /* \"#utility.yul\":16380:16428   */\n      tag_323\n        /* \"#utility.yul\":16422:16426   */\n      0x1f\n        /* \"#utility.yul\":16414:16420   */\n      dup10\n        /* \"#utility.yul\":16410:16427   */\n      and\n        /* \"#utility.yul\":16399:16408   */\n      dup3\n        /* \"#utility.yul\":16380:16428   */\n      tag_153\n      jump\t// in\n    tag_323:\n        /* \"#utility.yul\":16372:16378   */\n      dup4\n        /* \"#utility.yul\":16365:16429   */\n      sstore\n        /* \"#utility.yul\":16287:16443   */\n      pop\n        /* \"#utility.yul\":16264:16443   */\n    tag_322:\n        /* \"#utility.yul\":16489:16490   */\n      0x01\n        /* \"#utility.yul\":16485:16486   */\n      0x02\n        /* \"#utility.yul\":16477:16483   */\n      dup9\n        /* \"#utility.yul\":16473:16487   */\n      mul\n        /* \"#utility.yul\":16469:16491   */\n      add\n        /* \"#utility.yul\":16463:16467   */\n      dup9\n        /* \"#utility.yul\":16456:16492   */\n      sstore\n        /* \"#utility.yul\":15891:16502   */\n      pop\n      pop\n      pop\n        /* \"#utility.yul\":15854:16741   */\n    tag_314:\n      pop\n        /* \"#utility.yul\":15444:16747   */\n      pop\n      pop\n      pop\n        /* \"#utility.yul\":15352:16747   */\n      pop\n      pop\n      jump\t// out\n        /* \"#utility.yul\":16753:16901   */\n    tag_155:\n        /* \"#utility.yul\":16851:16857   */\n      dup3\n        /* \"#utility.yul\":16846:16849   */\n      dup2\n        /* \"#utility.yul\":16841:16844   */\n      dup4\n        /* \"#utility.yul\":16828:16858   */\n      calldatacopy\n        /* \"#utility.yul\":16892:16893   */\n      0x00\n        /* \"#utility.yul\":16883:16889   */\n      dup4\n        /* \"#utility.yul\":16878:16881   */\n      dup4\n        /* \"#utility.yul\":16874:16890   */\n      add\n        /* \"#utility.yul\":16867:16894   */\n      mstore\n        /* \"#utility.yul\":16753:16901   */\n      pop\n      pop\n      pop\n      jump\t// out\n        /* \"#utility.yul\":16931:17248   */\n    tag_156:\n        /* \"#utility.yul\":17029:17032   */\n      0x00\n        /* \"#utility.yul\":17050:17121   */\n      tag_326\n        /* \"#utility.yul\":17114:17120   */\n      dup4\n        /* \"#utility.yul\":17109:17112   */\n      dup6\n        /* \"#utility.yul\":17050:17121   */\n      tag_118\n      jump\t// in\n    tag_326:\n        /* \"#utility.yul\":17043:17121   */\n      swap4\n      pop\n        /* \"#utility.yul\":17131:17187   */\n      tag_327\n        /* \"#utility.yul\":17180:17186   */\n      dup4\n        /* \"#utility.yul\":17175:17178   */\n      dup6\n        /* \"#utility.yul\":17168:17173   */\n      dup5\n        /* \"#utility.yul\":17131:17187   */\n      tag_155\n      jump\t// in\n    tag_327:\n        /* \"#utility.yul\":17212:17241   */\n      tag_328\n        /* \"#utility.yul\":17234:17240   */\n      dup4\n        /* \"#utility.yul\":17212:17241   */\n      tag_120\n      jump\t// in\n    tag_328:\n        /* \"#utility.yul\":17207:17210   */\n      dup5\n        /* \"#utility.yul\":17203:17242   */\n      add\n        /* \"#utility.yul\":17196:17242   */\n      swap1\n      pop\n        /* \"#utility.yul\":16931:17248   */\n      swap4\n      swap3\n      pop\n      pop\n      pop\n      jump\t// out\n        /* \"#utility.yul\":17254:17723   */\n    tag_78:\n        /* \"#utility.yul\":17418:17422   */\n      0x00\n        /* \"#utility.yul\":17456:17458   */\n      0x40\n        /* \"#utility.yul\":17445:17454   */\n      dup3\n        /* \"#utility.yul\":17441:17459   */\n      add\n        /* \"#utility.yul\":17433:17459   */\n      swap1\n      pop\n        /* \"#utility.yul\":17505:17514   */\n      dup2\n        /* \"#utility.yul\":17499:17503   */\n      dup2\n        /* \"#utility.yul\":17495:17515   */\n      sub\n        /* \"#utility.yul\":17491:17492   */\n      0x00\n        /* \"#utility.yul\":17480:17489   */\n      dup4\n        /* \"#utility.yul\":17476:17493   */\n      add\n        /* \"#utility.yul\":17469:17516   */\n      mstore\n        /* \"#utility.yul\":17533:17621   */\n      tag_330\n        /* \"#utility.yul\":17616:17620   */\n      dup2\n        /* \"#utility.yul\":17607:17613   */\n      dup6\n        /* \"#utility.yul\":17599:17605   */\n      dup8\n        /* \"#utility.yul\":17533:17621   */\n      tag_156\n      jump\t// in\n    tag_330:\n        /* \"#utility.yul\":17525:17621   */\n      swap1\n      pop\n        /* \"#utility.yul\":17631:17716   */\n      tag_331\n        /* \"#utility.yul\":17712:17714   */\n      0x20\n        /* \"#utility.yul\":17701:17710   */\n      dup4\n        /* \"#utility.yul\":17697:17715   */\n      add\n        /* \"#utility.yul\":17688:17694   */\n      dup5\n        /* \"#utility.yul\":17631:17716   */\n      tag_125\n      jump\t// in\n    tag_331:\n        /* \"#utility.yul\":17254:17723   */\n      swap5\n      swap4\n      pop\n      pop\n      pop\n      pop\n      jump\t// out\n        /* \"#utility.yul\":17729:17950   */\n    tag_157:\n        /* \"#utility.yul\":17869:17903   */\n      0x5175657279204572726f723a2050726f64756374206e6f742063657274696669\n        /* \"#utility.yul\":17865:17866   */\n      0x00\n        /* \"#utility.yul\":17857:17863   */\n      dup3\n        /* \"#utility.yul\":17853:17867   */\n      add\n        /* \"#utility.yul\":17846:17904   */\n      mstore\n        /* \"#utility.yul\":17938:17942   */\n      0x6564000000000000000000000000000000000000000000000000000000000000\n        /* \"#utility.yul\":17933:17935   */\n      0x20\n        /* \"#utility.yul\":17925:17931   */\n      dup3\n        /* \"#utility.yul\":17921:17936   */\n      add\n        /* \"#utility.yul\":17914:17943   */\n      mstore\n        /* \"#utility.yul\":17729:17950   */\n      pop\n      jump\t// out\n        /* \"#utility.yul\":17956:18322   */\n    tag_158:\n        /* \"#utility.yul\":18098:18101   */\n      0x00\n        /* \"#utility.yul\":18119:18186   */\n      tag_334\n        /* \"#utility.yul\":18183:18185   */\n      0x22\n        /* \"#utility.yul\":18178:18181   */\n      dup4\n        /* \"#utility.yul\":18119:18186   */\n      tag_118\n      jump\t// in\n    tag_334:\n        /* \"#utility.yul\":18112:18186   */\n      swap2\n      pop\n        /* \"#utility.yul\":18195:18288   */\n      tag_335\n        /* \"#utility.yul\":18284:18287   */\n      dup3\n        /* \"#utility.yul\":18195:18288   */\n      tag_157\n      jump\t// in\n    tag_335:\n        /* \"#utility.yul\":18313:18315   */\n      0x40\n        /* \"#utility.yul\":18308:18311   */\n      dup3\n        /* \"#utility.yul\":18304:18316   */\n      add\n        /* \"#utility.yul\":18297:18316   */\n      swap1\n      pop\n        /* \"#utility.yul\":17956:18322   */\n      swap2\n      swap1\n      pop\n      jump\t// out\n        /* \"#utility.yul\":18328:18747   */\n    tag_100:\n        /* \"#utility.yul\":18494:18498   */\n      0x00\n        /* \"#utility.yul\":18532:18534   */\n      0x20\n        /* \"#utility.yul\":18521:18530   */\n      dup3\n        /* \"#utility.yul\":18517:18535   */\n      add\n        /* \"#utility.yul\":18509:18535   */\n      swap1\n      pop\n        /* \"#utility.yul\":18581:18590   */\n      dup2\n        /* \"#utility.yul\":18575:18579   */\n      dup2\n        /* \"#utility.yul\":18571:18591   */\n      sub\n        /* \"#utility.yul\":18567:18568   */\n      0x00\n        /* \"#utility.yul\":18556:18565   */\n      dup4\n        /* \"#utility.yul\":18552:18569   */\n      add\n        /* \"#utility.yul\":18545:18592   */\n      mstore\n        /* \"#utility.yul\":18609:18740   */\n      tag_337\n        /* \"#utility.yul\":18735:18739   */\n      dup2\n        /* \"#utility.yul\":18609:18740   */\n      tag_158\n      jump\t// in\n    tag_337:\n        /* \"#utility.yul\":18601:18740   */\n      swap1\n      pop\n        /* \"#utility.yul\":18328:18747   */\n      swap2\n      swap1\n      pop\n      jump\t// out\n\n    auxdata: 0xa2646970667358221220b9110bee090cdbadfd1ab911f28404ef001d6bb470081a392d03494e6ed867b764736f6c634300081a0033\n}\n",
				"bytecode": {
					"linkReferences": {},
					"object": "6080604052348015600e575f80fd5b506001805f3373ffffffffffffffffffffffffffffffffffffffff1673ffffffffffffffffffffffffffffffffffffffff1681526020019081526020015f205f6101000a81548160ff0219169083151502179055503373ffffffffffffffffffffffffffffffffffffffff167f3ecabff09fdbcefeff156ba8f96b2ce9b7459d027d48bc9258a523135711239360405160405180910390a2611510806100b35f395ff3fe608060405234801561000f575f80fd5b5060043610610060575f3560e01c8063439766ce1461006457806373bf3b981461006e5780637c70e7911461008a578063a647dbbd146100a6578063b33712c5146100c2578063ec981eac146100cc575b5f80fd5b61006c6100ff565b005b61008860048036038101906100839190610b5d565b6101a4565b005b6100a4600480360381019061009f9190610b5d565b6103a0565b005b6100c060048036038101906100bb9190610c3f565b61059b565b005b6100ca610874565b005b6100e660048036038101906100e19190610cb0565b610918565b6040516100f69493929190610ddc565b60405180910390f35b60015f3373ffffffffffffffffffffffffffffffffffffffff1673ffffffffffffffffffffffffffffffffffffffff1681526020019081526020015f205f9054906101000a900460ff16610188576040517f08c379a000000000000000000000000000000000000000000000000000000000815260040161017f90610e96565b60405180910390fd5b600160025f6101000a81548160ff021916908315150217905550565b60015f3373ffffffffffffffffffffffffffffffffffffffff1673ffffffffffffffffffffffffffffffffffffffff1681526020019081526020015f205f9054906101000a900460ff1661022d576040517f08c379a000000000000000000000000000000000000000000000000000000000815260040161022490610e96565b60405180910390fd5b60025f9054906101000a900460ff161561027c576040517f08c379a000000000000000000000000000000000000000000000000000000000815260040161027390610f24565b60405180910390fd5b60015f8273ffffffffffffffffffffffffffffffffffffffff1673ffffffffffffffffffffffffffffffffffffffff1681526020019081526020015f205f9054906101000a900460ff1615610306576040517f08c379a00000000000000000000000000000000000000000000000000000000081526004016102fd90610fb2565b60405180910390fd5b6001805f8373ffffffffffffffffffffffffffffffffffffffff1673ffffffffffffffffffffffffffffffffffffffff1681526020019081526020015f205f6101000a81548160ff0219169083151502179055508073ffffffffffffffffffffffffffffffffffffffff167f3ecabff09fdbcefeff156ba8f96b2ce9b7459d027d48bc9258a523135711239360405160405180910390a250565b60015f3373ffffffffffffffffffffffffffffffffffffffff1673ffffffffffffffffffffffffffffffffffffffff1681526020019081526020015f205f9054906101000a900460ff16610429576040517f08c379a000000000000000000000000000000000000000000000000000000000815260040161042090610e96565b60405180910390fd5b60025f9054906101000a900460ff1615610478576040517f08c379a000000000000000000000000000000000000000000000000000000000815260040161046f90610f24565b60405180910390fd5b60015f8273ffffffffffffffffffffffffffffffffffffffff1673ffffffffffffffffffffffffffffffffffffffff1681526020019081526020015f205f9054906101000a900460ff16610501576040517f08c379a00000000000000000000000000000000000000000000000000000000081526004016104f890611040565b60405180910390fd5b5f60015f8373ffffffffffffffffffffffffffffffffffffffff1673ffffffffffffffffffffffffffffffffffffffff1681526020019081526020015f205f6101000a81548160ff0219169083151502179055508073ffffffffffffffffffffffffffffffffffffffff167f737c9e54b555afb1794817809534974cb61ead2136d82d4a8fecb34d0932922060405160405180910390a250565b60015f3373ffffffffffffffffffffffffffffffffffffffff1673ffffffffffffffffffffffffffffffffffffffff1681526020019081526020015f205f9054906101000a900460ff16610624576040517f08c379a000000000000000000000000000000000000000000000000000000000815260040161061b90610e96565b60405180910390fd5b60025f9054906101000a900460ff1615610673576040517f08c379a000000000000000000000000000000000000000000000000000000000815260040161066a90610f24565b60405180910390fd5b5f600281111561068657610685610d4b565b5b81600281111561069957610698610d4b565b5b036106d9576040517f08c379a00000000000000000000000000000000000000000000000000000000081526004016106d0906110ce565b60405180910390fd5b6040518060a0016040528085815260200184848080601f0160208091040260200160405190810160405280939291908181526020018383808284375f81840152601f19601f82011690508083019250505050505050815260200182600281111561074657610745610d4b565b5b81526020014281526020013373ffffffffffffffffffffffffffffffffffffffff168152505f808681526020019081526020015f205f820151815f015560208201518160010190816107989190611313565b506040820151816002015f6101000a81548160ff021916908360028111156107c3576107c2610d4b565b5b0217905550606082015181600301556080820151816004015f6101000a81548173ffffffffffffffffffffffffffffffffffffffff021916908373ffffffffffffffffffffffffffffffffffffffff1602179055509050503373ffffffffffffffffffffffffffffffffffffffff16847f6dfe85a00f2644a811567fd19c478d250454c3c0dca7025e2198ce4fe24c1b778585856040516108669392919061141c565b60405180910390a350505050565b60015f3373ffffffffffffffffffffffffffffffffffffffff1673ffffffffffffffffffffffffffffffffffffffff1681526020019081526020015f205f9054906101000a900460ff166108fd576040517f08c379a00000000000000000000000000000000000000000000000000000000081526004016108f490610e96565b60405180910390fd5b5f60025f6101000a81548160ff021916908315150217905550565b60605f805f805f808781526020019081526020015f206040518060a00160405290815f820154815260200160018201805461095290611146565b80601f016020809104026020016040519081016040528092919081815260200182805461097e90611146565b80156109c95780601f106109a0576101008083540402835291602001916109c9565b820191905f5260205f20905b8154815290600101906020018083116109ac57829003601f168201915b50505050508152602001600282015f9054906101000a900460ff1660028111156109f6576109f5610d4b565b5b6002811115610a0857610a07610d4b565b5b815260200160038201548152602001600482015f9054906101000a900473ffffffffffffffffffffffffffffffffffffffff1673ffffffffffffffffffffffffffffffffffffffff1673ffffffffffffffffffffffffffffffffffffffff168152505090505f6002811115610a8057610a7f610d4b565b5b81604001516002811115610a9757610a96610d4b565b5b03610ad7576040517f08c379a0000000000000000000000000000000000000000000000000000000008152600401610ace906114bc565b60405180910390fd5b80602001518160400151826060015183608001519450945094509450509193509193565b5f80fd5b5f80fd5b5f73ffffffffffffffffffffffffffffffffffffffff82169050919050565b5f610b2c82610b03565b9050919050565b610b3c81610b22565b8114610b46575f80fd5b50565b5f81359050610b5781610b33565b92915050565b5f60208284031215610b7257610b71610afb565b5b5f610b7f84828501610b49565b91505092915050565b5f819050919050565b610b9a81610b88565b8114610ba4575f80fd5b50565b5f81359050610bb581610b91565b92915050565b5f80fd5b5f80fd5b5f80fd5b5f8083601f840112610bdc57610bdb610bbb565b5b8235905067ffffffffffffffff811115610bf957610bf8610bbf565b5b602083019150836001820283011115610c1557610c14610bc3565b5b9250929050565b60038110610c28575f80fd5b50565b5f81359050610c3981610c1c565b92915050565b5f805f8060608587031215610c5757610c56610afb565b5b5f610c6487828801610ba7565b945050602085013567ffffffffffffffff811115610c8557610c84610aff565b5b610c9187828801610bc7565b93509350506040610ca487828801610c2b565b91505092959194509250565b5f60208284031215610cc557610cc4610afb565b5b5f610cd284828501610ba7565b91505092915050565b5f81519050919050565b5f82825260208201905092915050565b8281835e5f83830152505050565b5f601f19601f8301169050919050565b5f610d1d82610cdb565b610d278185610ce5565b9350610d37818560208601610cf5565b610d4081610d03565b840191505092915050565b7f4e487b71000000000000000000000000000000000000000000000000000000005f52602160045260245ffd5b60038110610d8957610d88610d4b565b5b50565b5f819050610d9982610d78565b919050565b5f610da882610d8c565b9050919050565b610db881610d9e565b82525050565b610dc781610b88565b82525050565b610dd681610b22565b82525050565b5f6080820190508181035f830152610df48187610d13565b9050610e036020830186610daf565b610e106040830185610dbe565b610e1d6060830184610dcd565b95945050505050565b7f4163636573732044656e6965643a204e6f7420616e20617574686f72697a65645f8201527f20696e73706563746f7200000000000000000000000000000000000000000000602082015250565b5f610e80602a83610ce5565b9150610e8b82610e26565b604082019050919050565b5f6020820190508181035f830152610ead81610e74565b9050919050565b7f4f7065726174696f6e204572726f723a20436f6e7472616374206973207061755f8201527f7365640000000000000000000000000000000000000000000000000000000000602082015250565b5f610f0e602383610ce5565b9150610f1982610eb4565b604082019050919050565b5f6020820190508181035f830152610f3b81610f02565b9050919050565b7f417070726f76616c204572726f723a20496e73706563746f7220616c726561645f8201527f7920617070726f76656400000000000000000000000000000000000000000000602082015250565b5f610f9c602a83610ce5565b9150610fa782610f42565b604082019050919050565b5f6020820190508181035f830152610fc981610f90565b9050919050565b7f52656d6f76616c204572726f723a20496e73706563746f72206e6f7420666f755f8201527f6e64000000000000000000000000000000000000000000000000000000000000602082015250565b5f61102a602283610ce5565b915061103582610fd0565b604082019050919050565b5f6020820190508181035f8301526110578161101e565b9050919050565b7f43657274696669636174696f6e204572726f723a20496e76616c6964207175615f8201527f6c69747920737461747573000000000000000000000000000000000000000000602082015250565b5f6110b8602b83610ce5565b91506110c38261105e565b604082019050919050565b5f6020820190508181035f8301526110e5816110ac565b9050919050565b7f4e487b71000000000000000000000000000000000000000000000000000000005f52604160045260245ffd5b7f4e487b71000000000000000000000000000000000000000000000000000000005f52602260045260245ffd5b5f600282049050600182168061115d57607f821691505b6020821081036111705761116f611119565b5b50919050565b5f819050815f5260205f209050919050565b5f6020601f8301049050919050565b5f82821b905092915050565b5f600883026111d27fffffffffffffffffffffffffffffffffffffffffffffffffffffffffffffffff82611197565b6111dc8683611197565b95508019841693508086168417925050509392505050565b5f819050919050565b5f61121761121261120d84610b88565b6111f4565b610b88565b9050919050565b5f819050919050565b611230836111fd565b61124461123c8261121e565b8484546111a3565b825550505050565b5f90565b61125861124c565b611263818484611227565b505050565b5b818110156112865761127b5f82611250565b600181019050611269565b5050565b601f8211156112cb5761129c81611176565b6112a584611188565b810160208510156112b4578190505b6112c86112c085611188565b830182611268565b50505b505050565b5f82821c905092915050565b5f6112eb5f19846008026112d0565b1980831691505092915050565b5f61130383836112dc565b9150826002028217905092915050565b61131c82610cdb565b67ffffffffffffffff811115611335576113346110ec565b5b61133f8254611146565b61134a82828561128a565b5f60209050601f83116001811461137b575f8415611369578287015190505b61137385826112f8565b8655506113da565b601f19841661138986611176565b5f5b828110156113b05784890151825560018201915060208501945060208101905061138b565b868310156113cd57848901516113c9601f8916826112dc565b8355505b6001600288020188555050505b505050505050565b828183375f83830152505050565b5f6113fb8385610ce5565b93506114088385846113e2565b61141183610d03565b840190509392505050565b5f6040820190508181035f8301526114358185876113f0565b90506114446020830184610daf565b949350505050565b7f5175657279204572726f723a2050726f64756374206e6f7420636572746966695f8201527f6564000000000000000000000000000000000000000000000000000000000000602082015250565b5f6114a6602283610ce5565b91506114b18261144c565b604082019050919050565b5f6020820190508181035f8301526114d38161149a565b905091905056fea2646970667358221220b9110bee090cdbadfd1ab911f28404ef001d6bb470081a392d03494e6ed867b764736f6c634300081a0033",
					"opcodes": "PUSH1 0x80 PUSH1 0x40 MSTORE CALLVALUE DUP1 ISZERO PUSH1 0xE JUMPI PUSH0 DUP1 REVERT JUMPDEST POP PUSH1 0x1 DUP1 PUSH0 CALLER PUSH20 0xFFFFFFFFFFFFFFFFFFFFFFFFFFFFFFFFFFFFFFFF AND PUSH20 0xFFFFFFFFFFFFFFFFFFFFFFFFFFFFFFFFFFFFFFFF AND DUP2 MSTORE PUSH1 0x20 ADD SWAP1 DUP2 MSTORE PUSH1 0x20 ADD PUSH0 KECCAK256 PUSH0 PUSH2 0x100 EXP DUP2 SLOAD DUP2 PUSH1 0xFF MUL NOT AND SWAP1 DUP4 ISZERO ISZERO MUL OR SWAP1 SSTORE POP CALLER PUSH20 0xFFFFFFFFFFFFFFFFFFFFFFFFFFFFFFFFFFFFFFFF AND PUSH32 0x3ECABFF09FDBCEFEFF156BA8F96B2CE9B7459D027D48BC9258A5231357112393 PUSH1 0x40 MLOAD PUSH1 0x40 MLOAD DUP1 SWAP2 SUB SWAP1 LOG2 PUSH2 0x1510 DUP1 PUSH2 0xB3 PUSH0 CODECOPY PUSH0 RETURN INVALID PUSH1 0x80 PUSH1 0x40 MSTORE CALLVALUE DUP1 ISZERO PUSH2 0xF JUMPI PUSH0 DUP1 REVERT JUMPDEST POP PUSH1 0x4 CALLDATASIZE LT PUSH2 0x60 JUMPI PUSH0 CALLDATALOAD PUSH1 0xE0 SHR DUP1 PUSH4 0x439766CE EQ PUSH2 0x64 JUMPI DUP1 PUSH4 0x73BF3B98 EQ PUSH2 0x6E JUMPI DUP1 PUSH4 0x7C70E791 EQ PUSH2 0x8A JUMPI DUP1 PUSH4 0xA647DBBD EQ PUSH2 0xA6 JUMPI DUP1 PUSH4 0xB33712C5 EQ PUSH2 0xC2 JUMPI DUP1 PUSH4 0xEC981EAC EQ PUSH2 0xCC JUMPI JUMPDEST PUSH0 DUP1 REVERT JUMPDEST PUSH2 0x6C PUSH2 0xFF JUMP JUMPDEST STOP JUMPDEST PUSH2 0x88 PUSH1 0x4 DUP1 CALLDATASIZE SUB DUP2 ADD SWAP1 PUSH2 0x83 SWAP2 SWAP1 PUSH2 0xB5D JUMP JUMPDEST PUSH2 0x1A4 JUMP JUMPDEST STOP JUMPDEST PUSH2 0xA4 PUSH1 0x4 DUP1 CALLDATASIZE SUB DUP2 ADD SWAP1 PUSH2 0x9F SWAP2 SWAP1 PUSH2 0xB5D JUMP JUMPDEST PUSH2 0x3A0 JUMP JUMPDEST STOP JUMPDEST PUSH2 0xC0 PUSH1 0x4 DUP1 CALLDATASIZE SUB DUP2 ADD SWAP1 PUSH2 0xBB SWAP2 SWAP1 PUSH2 0xC3F JUMP JUMPDEST PUSH2 0x59B JUMP JUMPDEST STOP JUMPDEST PUSH2 0xCA PUSH2 0x874 JUMP JUMPDEST STOP JUMPDEST PUSH2 0xE6 PUSH1 0x4 DUP1 CALLDATASIZE SUB DUP2 ADD SWAP1 PUSH2 0xE1 SWAP2 SWAP1 PUSH2 0xCB0 JUMP JUMPDEST PUSH2 0x918 JUMP JUMPDEST PUSH1 0x40 MLOAD PUSH2 0xF6 SWAP5 SWAP4 SWAP3 SWAP2 SWAP1 PUSH2 0xDDC JUMP JUMPDEST PUSH1 0x40 MLOAD DUP1 SWAP2 SUB SWAP1 RETURN JUMPDEST PUSH1 0x1 PUSH0 CALLER PUSH20 0xFFFFFFFFFFFFFFFFFFFFFFFFFFFFFFFFFFFFFFFF AND PUSH20 0xFFFFFFFFFFFFFFFFFFFFFFFFFFFFFFFFFFFFFFFF AND DUP2 MSTORE PUSH1 0x20 ADD SWAP1 DUP2 MSTORE PUSH1 0x20 ADD PUSH0 KECCAK256 PUSH0 SWAP1 SLOAD SWAP1 PUSH2 0x100 EXP SWAP1 DIV PUSH1 0xFF AND PUSH2 0x188 JUMPI PUSH1 0x40 MLOAD PUSH32 0x8C379A000000000000000000000000000000000000000000000000000000000 DUP2 MSTORE PUSH1 0x4 ADD PUSH2 0x17F SWAP1 PUSH2 0xE96 JUMP JUMPDEST PUSH1 0x40 MLOAD DUP1 SWAP2 SUB SWAP1 REVERT JUMPDEST PUSH1 0x1 PUSH1 0x2 PUSH0 PUSH2 0x100 EXP DUP2 SLOAD DUP2 PUSH1 0xFF MUL NOT AND SWAP1 DUP4 ISZERO ISZERO MUL OR SWAP1 SSTORE POP JUMP JUMPDEST PUSH1 0x1 PUSH0 CALLER PUSH20 0xFFFFFFFFFFFFFFFFFFFFFFFFFFFFFFFFFFFFFFFF AND PUSH20 0xFFFFFFFFFFFFFFFFFFFFFFFFFFFFFFFFFFFFFFFF AND DUP2 MSTORE PUSH1 0x20 ADD SWAP1 DUP2 MSTORE PUSH1 0x20 ADD PUSH0 KECCAK256 PUSH0 SWAP1 SLOAD SWAP1 PUSH2 0x100 EXP SWAP1 DIV PUSH1 0xFF AND PUSH2 0x22D JUMPI PUSH1 0x40 MLOAD PUSH32 0x8C379A000000000000000000000000000000000000000000000000000000000 DUP2 MSTORE PUSH1 0x4 ADD PUSH2 0x224 SWAP1 PUSH2 0xE96 JUMP JUMPDEST PUSH1 0x40 MLOAD DUP1 SWAP2 SUB SWAP1 REVERT JUMPDEST PUSH1 0x2 PUSH0 SWAP1 SLOAD SWAP1 PUSH2 0x100 EXP SWAP1 DIV PUSH1 0xFF AND ISZERO PUSH2 0x27C JUMPI PUSH1 0x40 MLOAD PUSH32 0x8C379A000000000000000000000000000000000000000000000000000000000 DUP2 MSTORE PUSH1 0x4 ADD PUSH2 0x273 SWAP1 PUSH2 0xF24 JUMP JUMPDEST PUSH1 0x40 MLOAD DUP1 SWAP2 SUB SWAP1 REVERT JUMPDEST PUSH1 0x1 PUSH0 DUP3 PUSH20 0xFFFFFFFFFFFFFFFFFFFFFFFFFFFFFFFFFFFFFFFF AND PUSH20 0xFFFFFFFFFFFFFFFFFFFFFFFFFFFFFFFFFFFFFFFF AND DUP2 MSTORE PUSH1 0x20 ADD SWAP1 DUP2 MSTORE PUSH1 0x20 ADD PUSH0 KECCAK256 PUSH0 SWAP1 SLOAD SWAP1 PUSH2 0x100 EXP SWAP1 DIV PUSH1 0xFF AND ISZERO PUSH2 0x306 JUMPI PUSH1 0x40 MLOAD PUSH32 0x8C379A000000000000000000000000000000000000000000000000000000000 DUP2 MSTORE PUSH1 0x4 ADD PUSH2 0x2FD SWAP1 PUSH2 0xFB2 JUMP JUMPDEST PUSH1 0x40 MLOAD DUP1 SWAP2 SUB SWAP1 REVERT JUMPDEST PUSH1 0x1 DUP1 PUSH0 DUP4 PUSH20 0xFFFFFFFFFFFFFFFFFFFFFFFFFFFFFFFFFFFFFFFF AND PUSH20 0xFFFFFFFFFFFFFFFFFFFFFFFFFFFFFFFFFFFFFFFF AND DUP2 MSTORE PUSH1 0x20 ADD SWAP1 DUP2 MSTORE PUSH1 0x20 ADD PUSH0 KECCAK256 PUSH0 PUSH2 0x100 EXP DUP2 SLOAD DUP2 PUSH1 0xFF MUL NOT AND SWAP1 DUP4 ISZERO ISZERO MUL OR SWAP1 SSTORE POP DUP1 PUSH20 0xFFFFFFFFFFFFFFFFFFFFFFFFFFFFFFFFFFFFFFFF AND PUSH32 0x3ECABFF09FDBCEFEFF156BA8F96B2CE9B7459D027D48BC9258A5231357112393 PUSH1 0x40 MLOAD PUSH1 0x40 MLOAD DUP1 SWAP2 SUB SWAP1 LOG2 POP JUMP JUMPDEST PUSH1 0x1 PUSH0 CALLER PUSH20 0xFFFFFFFFFFFFFFFFFFFFFFFFFFFFFFFFFFFFFFFF AND PUSH20 0xFFFFFFFFFFFFFFFFFFFFFFFFFFFFFFFFFFFFFFFF AND DUP2 MSTORE PUSH1 0x20 ADD SWAP1 DUP2 MSTORE PUSH1 0x20 ADD PUSH0 KECCAK256 PUSH0 SWAP1 SLOAD SWAP1 PUSH2 0x100 EXP SWAP1 DIV PUSH1 0xFF AND PUSH2 0x429 JUMPI PUSH1 0x40 MLOAD PUSH32 0x8C379A000000000000000000000000000000000000000000000000000000000 DUP2 MSTORE PUSH1 0x4 ADD PUSH2 0x420 SWAP1 PUSH2 0xE96 JUMP JUMPDEST PUSH1 0x40 MLOAD DUP1 SWAP2 SUB SWAP1 REVERT JUMPDEST PUSH1 0x2 PUSH0 SWAP1 SLOAD SWAP1 PUSH2 0x100 EXP SWAP1 DIV PUSH1 0xFF AND ISZERO PUSH2 0x478 JUMPI PUSH1 0x40 MLOAD PUSH32 0x8C379A000000000000000000000000000000000000000000000000000000000 DUP2 MSTORE PUSH1 0x4 ADD PUSH2 0x46F SWAP1 PUSH2 0xF24 JUMP JUMPDEST PUSH1 0x40 MLOAD DUP1 SWAP2 SUB SWAP1 REVERT JUMPDEST PUSH1 0x1 PUSH0 DUP3 PUSH20 0xFFFFFFFFFFFFFFFFFFFFFFFFFFFFFFFFFFFFFFFF AND PUSH20 0xFFFFFFFFFFFFFFFFFFFFFFFFFFFFFFFFFFFFFFFF AND DUP2 MSTORE PUSH1 0x20 ADD SWAP1 DUP2 MSTORE PUSH1 0x20 ADD PUSH0 KECCAK256 PUSH0 SWAP1 SLOAD SWAP1 PUSH2 0x100 EXP SWAP1 DIV PUSH1 0xFF AND PUSH2 0x501 JUMPI PUSH1 0x40 MLOAD PUSH32 0x8C379A000000000000000000000000000000000000000000000000000000000 DUP2 MSTORE PUSH1 0x4 ADD PUSH2 0x4F8 SWAP1 PUSH2 0x1040 JUMP JUMPDEST PUSH1 0x40 MLOAD DUP1 SWAP2 SUB SWAP1 REVERT JUMPDEST PUSH0 PUSH1 0x1 PUSH0 DUP4 PUSH20 0xFFFFFFFFFFFFFFFFFFFFFFFFFFFFFFFFFFFFFFFF AND PUSH20 0xFFFFFFFFFFFFFFFFFFFFFFFFFFFFFFFFFFFFFFFF AND DUP2 MSTORE PUSH1 0x20 ADD SWAP1 DUP2 MSTORE PUSH1 0x20 ADD PUSH0 KECCAK256 PUSH0 PUSH2 0x100 EXP DUP2 SLOAD DUP2 PUSH1 0xFF MUL NOT AND SWAP1 DUP4 ISZERO ISZERO MUL OR SWAP1 SSTORE POP DUP1 PUSH20 0xFFFFFFFFFFFFFFFFFFFFFFFFFFFFFFFFFFFFFFFF AND PUSH32 0x737C9E54B555AFB1794817809534974CB61EAD2136D82D4A8FECB34D09329220 PUSH1 0x40 MLOAD PUSH1 0x40 MLOAD DUP1 SWAP2 SUB SWAP1 LOG2 POP JUMP JUMPDEST PUSH1 0x1 PUSH0 CALLER PUSH20 0xFFFFFFFFFFFFFFFFFFFFFFFFFFFFFFFFFFFFFFFF AND PUSH20 0xFFFFFFFFFFFFFFFFFFFFFFFFFFFFFFFFFFFFFFFF AND DUP2 MSTORE PUSH1 0x20 ADD SWAP1 DUP2 MSTORE PUSH1 0x20 ADD PUSH0 KECCAK256 PUSH0 SWAP1 SLOAD SWAP1 PUSH2 0x100 EXP SWAP1 DIV PUSH1 0xFF AND PUSH2 0x624 JUMPI PUSH1 0x40 MLOAD PUSH32 0x8C379A000000000000000000000000000000000000000000000000000000000 DUP2 MSTORE PUSH1 0x4 ADD PUSH2 0x61B SWAP1 PUSH2 0xE96 JUMP JUMPDEST PUSH1 0x40 MLOAD DUP1 SWAP2 SUB SWAP1 REVERT JUMPDEST PUSH1 0x2 PUSH0 SWAP1 SLOAD SWAP1 PUSH2 0x100 EXP SWAP1 DIV PUSH1 0xFF AND ISZERO PUSH2 0x673 JUMPI PUSH1 0x40 MLOAD PUSH32 0x8C379A000000000000000000000000000000000000000000000000000000000 DUP2 MSTORE PUSH1 0x4 ADD PUSH2 0x66A SWAP1 PUSH2 0xF24 JUMP JUMPDEST PUSH1 0x40 MLOAD DUP1 SWAP2 SUB SWAP1 REVERT JUMPDEST PUSH0 PUSH1 0x2 DUP2 GT ISZERO PUSH2 0x686 JUMPI PUSH2 0x685 PUSH2 0xD4B JUMP JUMPDEST JUMPDEST DUP2 PUSH1 0x2 DUP2 GT ISZERO PUSH2 0x699 JUMPI PUSH2 0x698 PUSH2 0xD4B JUMP JUMPDEST JUMPDEST SUB PUSH2 0x6D9 JUMPI PUSH1 0x40 MLOAD PUSH32 0x8C379A000000000000000000000000000000000000000000000000000000000 DUP2 MSTORE PUSH1 0x4 ADD PUSH2 0x6D0 SWAP1 PUSH2 0x10CE JUMP JUMPDEST PUSH1 0x40 MLOAD DUP1 SWAP2 SUB SWAP1 REVERT JUMPDEST PUSH1 0x40 MLOAD DUP1 PUSH1 0xA0 ADD PUSH1 0x40 MSTORE DUP1 DUP6 DUP2 MSTORE PUSH1 0x20 ADD DUP5 DUP5 DUP1 DUP1 PUSH1 0x1F ADD PUSH1 0x20 DUP1 SWAP2 DIV MUL PUSH1 0x20 ADD PUSH1 0x40 MLOAD SWAP1 DUP2 ADD PUSH1 0x40 MSTORE DUP1 SWAP4 SWAP3 SWAP2 SWAP1 DUP2 DUP2 MSTORE PUSH1 0x20 ADD DUP4 DUP4 DUP1 DUP3 DUP5 CALLDATACOPY PUSH0 DUP2 DUP5 ADD MSTORE PUSH1 0x1F NOT PUSH1 0x1F DUP3 ADD AND SWAP1 POP DUP1 DUP4 ADD SWAP3 POP POP POP POP POP POP POP DUP2 MSTORE PUSH1 0x20 ADD DUP3 PUSH1 0x2 DUP2 GT ISZERO PUSH2 0x746 JUMPI PUSH2 0x745 PUSH2 0xD4B JUMP JUMPDEST JUMPDEST DUP2 MSTORE PUSH1 0x20 ADD TIMESTAMP DUP2 MSTORE PUSH1 0x20 ADD CALLER PUSH20 0xFFFFFFFFFFFFFFFFFFFFFFFFFFFFFFFFFFFFFFFF AND DUP2 MSTORE POP PUSH0 DUP1 DUP7 DUP2 MSTORE PUSH1 0x20 ADD SWAP1 DUP2 MSTORE PUSH1 0x20 ADD PUSH0 KECCAK256 PUSH0 DUP3 ADD MLOAD DUP2 PUSH0 ADD SSTORE PUSH1 0x20 DUP3 ADD MLOAD DUP2 PUSH1 0x1 ADD SWAP1 DUP2 PUSH2 0x798 SWAP2 SWAP1 PUSH2 0x1313 JUMP JUMPDEST POP PUSH1 0x40 DUP3 ADD MLOAD DUP2 PUSH1 0x2 ADD PUSH0 PUSH2 0x100 EXP DUP2 SLOAD DUP2 PUSH1 0xFF MUL NOT AND SWAP1 DUP4 PUSH1 0x2 DUP2 GT ISZERO PUSH2 0x7C3 JUMPI PUSH2 0x7C2 PUSH2 0xD4B JUMP JUMPDEST JUMPDEST MUL OR SWAP1 SSTORE POP PUSH1 0x60 DUP3 ADD MLOAD DUP2 PUSH1 0x3 ADD SSTORE PUSH1 0x80 DUP3 ADD MLOAD DUP2 PUSH1 0x4 ADD PUSH0 PUSH2 0x100 EXP DUP2 SLOAD DUP2 PUSH20 0xFFFFFFFFFFFFFFFFFFFFFFFFFFFFFFFFFFFFFFFF MUL NOT AND SWAP1 DUP4 PUSH20 0xFFFFFFFFFFFFFFFFFFFFFFFFFFFFFFFFFFFFFFFF AND MUL OR SWAP1 SSTORE POP SWAP1 POP POP CALLER PUSH20 0xFFFFFFFFFFFFFFFFFFFFFFFFFFFFFFFFFFFFFFFF AND DUP5 PUSH32 0x6DFE85A00F2644A811567FD19C478D250454C3C0DCA7025E2198CE4FE24C1B77 DUP6 DUP6 DUP6 PUSH1 0x40 MLOAD PUSH2 0x866 SWAP4 SWAP3 SWAP2 SWAP1 PUSH2 0x141C JUMP JUMPDEST PUSH1 0x40 MLOAD DUP1 SWAP2 SUB SWAP1 LOG3 POP POP POP POP JUMP JUMPDEST PUSH1 0x1 PUSH0 CALLER PUSH20 0xFFFFFFFFFFFFFFFFFFFFFFFFFFFFFFFFFFFFFFFF AND PUSH20 0xFFFFFFFFFFFFFFFFFFFFFFFFFFFFFFFFFFFFFFFF AND DUP2 MSTORE PUSH1 0x20 ADD SWAP1 DUP2 MSTORE PUSH1 0x20 ADD PUSH0 KECCAK256 PUSH0 SWAP1 SLOAD SWAP1 PUSH2 0x100 EXP SWAP1 DIV PUSH1 0xFF AND PUSH2 0x8FD JUMPI PUSH1 0x40 MLOAD PUSH32 0x8C379A000000000000000000000000000000000000000000000000000000000 DUP2 MSTORE PUSH1 0x4 ADD PUSH2 0x8F4 SWAP1 PUSH2 0xE96 JUMP JUMPDEST PUSH1 0x40 MLOAD DUP1 SWAP2 SUB SWAP1 REVERT JUMPDEST PUSH0 PUSH1 0x2 PUSH0 PUSH2 0x100 EXP DUP2 SLOAD DUP2 PUSH1 0xFF MUL NOT AND SWAP1 DUP4 ISZERO ISZERO MUL OR SWAP1 SSTORE POP JUMP JUMPDEST PUSH1 0x60 PUSH0 DUP1 PUSH0 DUP1 PUSH0 DUP1 DUP8 DUP2 MSTORE PUSH1 0x20 ADD SWAP1 DUP2 MSTORE PUSH1 0x20 ADD PUSH0 KECCAK256 PUSH1 0x40 MLOAD DUP1 PUSH1 0xA0 ADD PUSH1 0x40 MSTORE SWAP1 DUP2 PUSH0 DUP3 ADD SLOAD DUP2 MSTORE PUSH1 0x20 ADD PUSH1 0x1 DUP3 ADD DUP1 SLOAD PUSH2 0x952 SWAP1 PUSH2 0x1146 JUMP JUMPDEST DUP1 PUSH1 0x1F ADD PUSH1 0x20 DUP1 SWAP2 DIV MUL PUSH1 0x20 ADD PUSH1 0x40 MLOAD SWAP1 DUP2 ADD PUSH1 0x40 MSTORE DUP1 SWAP3 SWAP2 SWAP1 DUP2 DUP2 MSTORE PUSH1 0x20 ADD DUP3 DUP1 SLOAD PUSH2 0x97E SWAP1 PUSH2 0x1146 JUMP JUMPDEST DUP1 ISZERO PUSH2 0x9C9 JUMPI DUP1 PUSH1 0x1F LT PUSH2 0x9A0 JUMPI PUSH2 0x100 DUP1 DUP4 SLOAD DIV MUL DUP4 MSTORE SWAP2 PUSH1 0x20 ADD SWAP2 PUSH2 0x9C9 JUMP JUMPDEST DUP3 ADD SWAP2 SWAP1 PUSH0 MSTORE PUSH1 0x20 PUSH0 KECCAK256 SWAP1 JUMPDEST DUP2 SLOAD DUP2 MSTORE SWAP1 PUSH1 0x1 ADD SWAP1 PUSH1 0x20 ADD DUP1 DUP4 GT PUSH2 0x9AC JUMPI DUP3 SWAP1 SUB PUSH1 0x1F AND DUP3 ADD SWAP2 JUMPDEST POP POP POP POP POP DUP2 MSTORE PUSH1 0x20 ADD PUSH1 0x2 DUP3 ADD PUSH0 SWAP1 SLOAD SWAP1 PUSH2 0x100 EXP SWAP1 DIV PUSH1 0xFF AND PUSH1 0x2 DUP2 GT ISZERO PUSH2 0x9F6 JUMPI PUSH2 0x9F5 PUSH2 0xD4B JUMP JUMPDEST JUMPDEST PUSH1 0x2 DUP2 GT ISZERO PUSH2 0xA08 JUMPI PUSH2 0xA07 PUSH2 0xD4B JUMP JUMPDEST JUMPDEST DUP2 MSTORE PUSH1 0x20 ADD PUSH1 0x3 DUP3 ADD SLOAD DUP2 MSTORE PUSH1 0x20 ADD PUSH1 0x4 DUP3 ADD PUSH0 SWAP1 SLOAD SWAP1 PUSH2 0x100 EXP SWAP1 DIV PUSH20 0xFFFFFFFFFFFFFFFFFFFFFFFFFFFFFFFFFFFFFFFF AND PUSH20 0xFFFFFFFFFFFFFFFFFFFFFFFFFFFFFFFFFFFFFFFF AND PUSH20 0xFFFFFFFFFFFFFFFFFFFFFFFFFFFFFFFFFFFFFFFF AND DUP2 MSTORE POP POP SWAP1 POP PUSH0 PUSH1 0x2 DUP2 GT ISZERO PUSH2 0xA80 JUMPI PUSH2 0xA7F PUSH2 0xD4B JUMP JUMPDEST JUMPDEST DUP2 PUSH1 0x40 ADD MLOAD PUSH1 0x2 DUP2 GT ISZERO PUSH2 0xA97 JUMPI PUSH2 0xA96 PUSH2 0xD4B JUMP JUMPDEST JUMPDEST SUB PUSH2 0xAD7 JUMPI PUSH1 0x40 MLOAD PUSH32 0x8C379A000000000000000000000000000000000000000000000000000000000 DUP2 MSTORE PUSH1 0x4 ADD PUSH2 0xACE SWAP1 PUSH2 0x14BC JUMP JUMPDEST PUSH1 0x40 MLOAD DUP1 SWAP2 SUB SWAP1 REVERT JUMPDEST DUP1 PUSH1 0x20 ADD MLOAD DUP2 PUSH1 0x40 ADD MLOAD DUP3 PUSH1 0x60 ADD MLOAD DUP4 PUSH1 0x80 ADD MLOAD SWAP5 POP SWAP5 POP SWAP5 POP SWAP5 POP POP SWAP2 SWAP4 POP SWAP2 SWAP4 JUMP JUMPDEST PUSH0 DUP1 REVERT JUMPDEST PUSH0 DUP1 REVERT JUMPDEST PUSH0 PUSH20 0xFFFFFFFFFFFFFFFFFFFFFFFFFFFFFFFFFFFFFFFF DUP3 AND SWAP1 POP SWAP2 SWAP1 POP JUMP JUMPDEST PUSH0 PUSH2 0xB2C DUP3 PUSH2 0xB03 JUMP JUMPDEST SWAP1 POP SWAP2 SWAP1 POP JUMP JUMPDEST PUSH2 0xB3C DUP2 PUSH2 0xB22 JUMP JUMPDEST DUP2 EQ PUSH2 0xB46 JUMPI PUSH0 DUP1 REVERT JUMPDEST POP JUMP JUMPDEST PUSH0 DUP2 CALLDATALOAD SWAP1 POP PUSH2 0xB57 DUP2 PUSH2 0xB33 JUMP JUMPDEST SWAP3 SWAP2 POP POP JUMP JUMPDEST PUSH0 PUSH1 0x20 DUP3 DUP5 SUB SLT ISZERO PUSH2 0xB72 JUMPI PUSH2 0xB71 PUSH2 0xAFB JUMP JUMPDEST JUMPDEST PUSH0 PUSH2 0xB7F DUP5 DUP3 DUP6 ADD PUSH2 0xB49 JUMP JUMPDEST SWAP2 POP POP SWAP3 SWAP2 POP POP JUMP JUMPDEST PUSH0 DUP2 SWAP1 POP SWAP2 SWAP1 POP JUMP JUMPDEST PUSH2 0xB9A DUP2 PUSH2 0xB88 JUMP JUMPDEST DUP2 EQ PUSH2 0xBA4 JUMPI PUSH0 DUP1 REVERT JUMPDEST POP JUMP JUMPDEST PUSH0 DUP2 CALLDATALOAD SWAP1 POP PUSH2 0xBB5 DUP2 PUSH2 0xB91 JUMP JUMPDEST SWAP3 SWAP2 POP POP JUMP JUMPDEST PUSH0 DUP1 REVERT JUMPDEST PUSH0 DUP1 REVERT JUMPDEST PUSH0 DUP1 REVERT JUMPDEST PUSH0 DUP1 DUP4 PUSH1 0x1F DUP5 ADD SLT PUSH2 0xBDC JUMPI PUSH2 0xBDB PUSH2 0xBBB JUMP JUMPDEST JUMPDEST DUP3 CALLDATALOAD SWAP1 POP PUSH8 0xFFFFFFFFFFFFFFFF DUP2 GT ISZERO PUSH2 0xBF9 JUMPI PUSH2 0xBF8 PUSH2 0xBBF JUMP JUMPDEST JUMPDEST PUSH1 0x20 DUP4 ADD SWAP2 POP DUP4 PUSH1 0x1 DUP3 MUL DUP4 ADD GT ISZERO PUSH2 0xC15 JUMPI PUSH2 0xC14 PUSH2 0xBC3 JUMP JUMPDEST JUMPDEST SWAP3 POP SWAP3 SWAP1 POP JUMP JUMPDEST PUSH1 0x3 DUP2 LT PUSH2 0xC28 JUMPI PUSH0 DUP1 REVERT JUMPDEST POP JUMP JUMPDEST PUSH0 DUP2 CALLDATALOAD SWAP1 POP PUSH2 0xC39 DUP2 PUSH2 0xC1C JUMP JUMPDEST SWAP3 SWAP2 POP POP JUMP JUMPDEST PUSH0 DUP1 PUSH0 DUP1 PUSH1 0x60 DUP6 DUP8 SUB SLT ISZERO PUSH2 0xC57 JUMPI PUSH2 0xC56 PUSH2 0xAFB JUMP JUMPDEST JUMPDEST PUSH0 PUSH2 0xC64 DUP8 DUP3 DUP9 ADD PUSH2 0xBA7 JUMP JUMPDEST SWAP5 POP POP PUSH1 0x20 DUP6 ADD CALLDATALOAD PUSH8 0xFFFFFFFFFFFFFFFF DUP2 GT ISZERO PUSH2 0xC85 JUMPI PUSH2 0xC84 PUSH2 0xAFF JUMP JUMPDEST JUMPDEST PUSH2 0xC91 DUP8 DUP3 DUP9 ADD PUSH2 0xBC7 JUMP JUMPDEST SWAP4 POP SWAP4 POP POP PUSH1 0x40 PUSH2 0xCA4 DUP8 DUP3 DUP9 ADD PUSH2 0xC2B JUMP JUMPDEST SWAP2 POP POP SWAP3 SWAP6 SWAP2 SWAP5 POP SWAP3 POP JUMP JUMPDEST PUSH0 PUSH1 0x20 DUP3 DUP5 SUB SLT ISZERO PUSH2 0xCC5 JUMPI PUSH2 0xCC4 PUSH2 0xAFB JUMP JUMPDEST JUMPDEST PUSH0 PUSH2 0xCD2 DUP5 DUP3 DUP6 ADD PUSH2 0xBA7 JUMP JUMPDEST SWAP2 POP POP SWAP3 SWAP2 POP POP JUMP JUMPDEST PUSH0 DUP2 MLOAD SWAP1 POP SWAP2 SWAP1 POP JUMP JUMPDEST PUSH0 DUP3 DUP3 MSTORE PUSH1 0x20 DUP3 ADD SWAP1 POP SWAP3 SWAP2 POP POP JUMP JUMPDEST DUP3 DUP2 DUP4 MCOPY PUSH0 DUP4 DUP4 ADD MSTORE POP POP POP JUMP JUMPDEST PUSH0 PUSH1 0x1F NOT PUSH1 0x1F DUP4 ADD AND SWAP1 POP SWAP2 SWAP1 POP JUMP JUMPDEST PUSH0 PUSH2 0xD1D DUP3 PUSH2 0xCDB JUMP JUMPDEST PUSH2 0xD27 DUP2 DUP6 PUSH2 0xCE5 JUMP JUMPDEST SWAP4 POP PUSH2 0xD37 DUP2 DUP6 PUSH1 0x20 DUP7 ADD PUSH2 0xCF5 JUMP JUMPDEST PUSH2 0xD40 DUP2 PUSH2 0xD03 JUMP JUMPDEST DUP5 ADD SWAP2 POP POP SWAP3 SWAP2 POP POP JUMP JUMPDEST PUSH32 0x4E487B7100000000000000000000000000000000000000000000000000000000 PUSH0 MSTORE PUSH1 0x21 PUSH1 0x4 MSTORE PUSH1 0x24 PUSH0 REVERT JUMPDEST PUSH1 0x3 DUP2 LT PUSH2 0xD89 JUMPI PUSH2 0xD88 PUSH2 0xD4B JUMP JUMPDEST JUMPDEST POP JUMP JUMPDEST PUSH0 DUP2 SWAP1 POP PUSH2 0xD99 DUP3 PUSH2 0xD78 JUMP JUMPDEST SWAP2 SWAP1 POP JUMP JUMPDEST PUSH0 PUSH2 0xDA8 DUP3 PUSH2 0xD8C JUMP JUMPDEST SWAP1 POP SWAP2 SWAP1 POP JUMP JUMPDEST PUSH2 0xDB8 DUP2 PUSH2 0xD9E JUMP JUMPDEST DUP3 MSTORE POP POP JUMP JUMPDEST PUSH2 0xDC7 DUP2 PUSH2 0xB88 JUMP JUMPDEST DUP3 MSTORE POP POP JUMP JUMPDEST PUSH2 0xDD6 DUP2 PUSH2 0xB22 JUMP JUMPDEST DUP3 MSTORE POP POP JUMP JUMPDEST PUSH0 PUSH1 0x80 DUP3 ADD SWAP1 POP DUP2 DUP2 SUB PUSH0 DUP4 ADD MSTORE PUSH2 0xDF4 DUP2 DUP8 PUSH2 0xD13 JUMP JUMPDEST SWAP1 POP PUSH2 0xE03 PUSH1 0x20 DUP4 ADD DUP7 PUSH2 0xDAF JUMP JUMPDEST PUSH2 0xE10 PUSH1 0x40 DUP4 ADD DUP6 PUSH2 0xDBE JUMP JUMPDEST PUSH2 0xE1D PUSH1 0x60 DUP4 ADD DUP5 PUSH2 0xDCD JUMP JUMPDEST SWAP6 SWAP5 POP POP POP POP POP JUMP JUMPDEST PUSH32 0x4163636573732044656E6965643A204E6F7420616E20617574686F72697A6564 PUSH0 DUP3 ADD MSTORE PUSH32 0x20696E73706563746F7200000000000000000000000000000000000000000000 PUSH1 0x20 DUP3 ADD MSTORE POP JUMP JUMPDEST PUSH0 PUSH2 0xE80 PUSH1 0x2A DUP4 PUSH2 0xCE5 JUMP JUMPDEST SWAP2 POP PUSH2 0xE8B DUP3 PUSH2 0xE26 JUMP JUMPDEST PUSH1 0x40 DUP3 ADD SWAP1 POP SWAP2 SWAP1 POP JUMP JUMPDEST PUSH0 PUSH1 0x20 DUP3 ADD SWAP1 POP DUP2 DUP2 SUB PUSH0 DUP4 ADD MSTORE PUSH2 0xEAD DUP2 PUSH2 0xE74 JUMP JUMPDEST SWAP1 POP SWAP2 SWAP1 POP JUMP JUMPDEST PUSH32 0x4F7065726174696F6E204572726F723A20436F6E747261637420697320706175 PUSH0 DUP3 ADD MSTORE PUSH32 0x7365640000000000000000000000000000000000000000000000000000000000 PUSH1 0x20 DUP3 ADD MSTORE POP JUMP JUMPDEST PUSH0 PUSH2 0xF0E PUSH1 0x23 DUP4 PUSH2 0xCE5 JUMP JUMPDEST SWAP2 POP PUSH2 0xF19 DUP3 PUSH2 0xEB4 JUMP JUMPDEST PUSH1 0x40 DUP3 ADD SWAP1 POP SWAP2 SWAP1 POP JUMP JUMPDEST PUSH0 PUSH1 0x20 DUP3 ADD SWAP1 POP DUP2 DUP2 SUB PUSH0 DUP4 ADD MSTORE PUSH2 0xF3B DUP2 PUSH2 0xF02 JUMP JUMPDEST SWAP1 POP SWAP2 SWAP1 POP JUMP JUMPDEST PUSH32 0x417070726F76616C204572726F723A20496E73706563746F7220616C72656164 PUSH0 DUP3 ADD MSTORE PUSH32 0x7920617070726F76656400000000000000000000000000000000000000000000 PUSH1 0x20 DUP3 ADD MSTORE POP JUMP JUMPDEST PUSH0 PUSH2 0xF9C PUSH1 0x2A DUP4 PUSH2 0xCE5 JUMP JUMPDEST SWAP2 POP PUSH2 0xFA7 DUP3 PUSH2 0xF42 JUMP JUMPDEST PUSH1 0x40 DUP3 ADD SWAP1 POP SWAP2 SWAP1 POP JUMP JUMPDEST PUSH0 PUSH1 0x20 DUP3 ADD SWAP1 POP DUP2 DUP2 SUB PUSH0 DUP4 ADD MSTORE PUSH2 0xFC9 DUP2 PUSH2 0xF90 JUMP JUMPDEST SWAP1 POP SWAP2 SWAP1 POP JUMP JUMPDEST PUSH32 0x52656D6F76616C204572726F723A20496E73706563746F72206E6F7420666F75 PUSH0 DUP3 ADD MSTORE PUSH32 0x6E64000000000000000000000000000000000000000000000000000000000000 PUSH1 0x20 DUP3 ADD MSTORE POP JUMP JUMPDEST PUSH0 PUSH2 0x102A PUSH1 0x22 DUP4 PUSH2 0xCE5 JUMP JUMPDEST SWAP2 POP PUSH2 0x1035 DUP3 PUSH2 0xFD0 JUMP JUMPDEST PUSH1 0x40 DUP3 ADD SWAP1 POP SWAP2 SWAP1 POP JUMP JUMPDEST PUSH0 PUSH1 0x20 DUP3 ADD SWAP1 POP DUP2 DUP2 SUB PUSH0 DUP4 ADD MSTORE PUSH2 0x1057 DUP2 PUSH2 0x101E JUMP JUMPDEST SWAP1 POP SWAP2 SWAP1 POP JUMP JUMPDEST PUSH32 0x43657274696669636174696F6E204572726F723A20496E76616C696420717561 PUSH0 DUP3 ADD MSTORE PUSH32 0x6C69747920737461747573000000000000000000000000000000000000000000 PUSH1 0x20 DUP3 ADD MSTORE POP JUMP JUMPDEST PUSH0 PUSH2 0x10B8 PUSH1 0x2B DUP4 PUSH2 0xCE5 JUMP JUMPDEST SWAP2 POP PUSH2 0x10C3 DUP3 PUSH2 0x105E JUMP JUMPDEST PUSH1 0x40 DUP3 ADD SWAP1 POP SWAP2 SWAP1 POP JUMP JUMPDEST PUSH0 PUSH1 0x20 DUP3 ADD SWAP1 POP DUP2 DUP2 SUB PUSH0 DUP4 ADD MSTORE PUSH2 0x10E5 DUP2 PUSH2 0x10AC JUMP JUMPDEST SWAP1 POP SWAP2 SWAP1 POP JUMP JUMPDEST PUSH32 0x4E487B7100000000000000000000000000000000000000000000000000000000 PUSH0 MSTORE PUSH1 0x41 PUSH1 0x4 MSTORE PUSH1 0x24 PUSH0 REVERT JUMPDEST PUSH32 0x4E487B7100000000000000000000000000000000000000000000000000000000 PUSH0 MSTORE PUSH1 0x22 PUSH1 0x4 MSTORE PUSH1 0x24 PUSH0 REVERT JUMPDEST PUSH0 PUSH1 0x2 DUP3 DIV SWAP1 POP PUSH1 0x1 DUP3 AND DUP1 PUSH2 0x115D JUMPI PUSH1 0x7F DUP3 AND SWAP2 POP JUMPDEST PUSH1 0x20 DUP3 LT DUP2 SUB PUSH2 0x1170 JUMPI PUSH2 0x116F PUSH2 0x1119 JUMP JUMPDEST JUMPDEST POP SWAP2 SWAP1 POP JUMP JUMPDEST PUSH0 DUP2 SWAP1 POP DUP2 PUSH0 MSTORE PUSH1 0x20 PUSH0 KECCAK256 SWAP1 POP SWAP2 SWAP1 POP JUMP JUMPDEST PUSH0 PUSH1 0x20 PUSH1 0x1F DUP4 ADD DIV SWAP1 POP SWAP2 SWAP1 POP JUMP JUMPDEST PUSH0 DUP3 DUP3 SHL SWAP1 POP SWAP3 SWAP2 POP POP JUMP JUMPDEST PUSH0 PUSH1 0x8 DUP4 MUL PUSH2 0x11D2 PUSH32 0xFFFFFFFFFFFFFFFFFFFFFFFFFFFFFFFFFFFFFFFFFFFFFFFFFFFFFFFFFFFFFFFF DUP3 PUSH2 0x1197 JUMP JUMPDEST PUSH2 0x11DC DUP7 DUP4 PUSH2 0x1197 JUMP JUMPDEST SWAP6 POP DUP1 NOT DUP5 AND SWAP4 POP DUP1 DUP7 AND DUP5 OR SWAP3 POP POP POP SWAP4 SWAP3 POP POP POP JUMP JUMPDEST PUSH0 DUP2 SWAP1 POP SWAP2 SWAP1 POP JUMP JUMPDEST PUSH0 PUSH2 0x1217 PUSH2 0x1212 PUSH2 0x120D DUP5 PUSH2 0xB88 JUMP JUMPDEST PUSH2 0x11F4 JUMP JUMPDEST PUSH2 0xB88 JUMP JUMPDEST SWAP1 POP SWAP2 SWAP1 POP JUMP JUMPDEST PUSH0 DUP2 SWAP1 POP SWAP2 SWAP1 POP JUMP JUMPDEST PUSH2 0x1230 DUP4 PUSH2 0x11FD JUMP JUMPDEST PUSH2 0x1244 PUSH2 0x123C DUP3 PUSH2 0x121E JUMP JUMPDEST DUP5 DUP5 SLOAD PUSH2 0x11A3 JUMP JUMPDEST DUP3 SSTORE POP POP POP POP JUMP JUMPDEST PUSH0 SWAP1 JUMP JUMPDEST PUSH2 0x1258 PUSH2 0x124C JUMP JUMPDEST PUSH2 0x1263 DUP2 DUP5 DUP5 PUSH2 0x1227 JUMP JUMPDEST POP POP POP JUMP JUMPDEST JUMPDEST DUP2 DUP2 LT ISZERO PUSH2 0x1286 JUMPI PUSH2 0x127B PUSH0 DUP3 PUSH2 0x1250 JUMP JUMPDEST PUSH1 0x1 DUP2 ADD SWAP1 POP PUSH2 0x1269 JUMP JUMPDEST POP POP JUMP JUMPDEST PUSH1 0x1F DUP3 GT ISZERO PUSH2 0x12CB JUMPI PUSH2 0x129C DUP2 PUSH2 0x1176 JUMP JUMPDEST PUSH2 0x12A5 DUP5 PUSH2 0x1188 JUMP JUMPDEST DUP2 ADD PUSH1 0x20 DUP6 LT ISZERO PUSH2 0x12B4 JUMPI DUP2 SWAP1 POP JUMPDEST PUSH2 0x12C8 PUSH2 0x12C0 DUP6 PUSH2 0x1188 JUMP JUMPDEST DUP4 ADD DUP3 PUSH2 0x1268 JUMP JUMPDEST POP POP JUMPDEST POP POP POP JUMP JUMPDEST PUSH0 DUP3 DUP3 SHR SWAP1 POP SWAP3 SWAP2 POP POP JUMP JUMPDEST PUSH0 PUSH2 0x12EB PUSH0 NOT DUP5 PUSH1 0x8 MUL PUSH2 0x12D0 JUMP JUMPDEST NOT DUP1 DUP4 AND SWAP2 POP POP SWAP3 SWAP2 POP POP JUMP JUMPDEST PUSH0 PUSH2 0x1303 DUP4 DUP4 PUSH2 0x12DC JUMP JUMPDEST SWAP2 POP DUP3 PUSH1 0x2 MUL DUP3 OR SWAP1 POP SWAP3 SWAP2 POP POP JUMP JUMPDEST PUSH2 0x131C DUP3 PUSH2 0xCDB JUMP JUMPDEST PUSH8 0xFFFFFFFFFFFFFFFF DUP2 GT ISZERO PUSH2 0x1335 JUMPI PUSH2 0x1334 PUSH2 0x10EC JUMP JUMPDEST JUMPDEST PUSH2 0x133F DUP3 SLOAD PUSH2 0x1146 JUMP JUMPDEST PUSH2 0x134A DUP3 DUP3 DUP6 PUSH2 0x128A JUMP JUMPDEST PUSH0 PUSH1 0x20 SWAP1 POP PUSH1 0x1F DUP4 GT PUSH1 0x1 DUP2 EQ PUSH2 0x137B JUMPI PUSH0 DUP5 ISZERO PUSH2 0x1369 JUMPI DUP3 DUP8 ADD MLOAD SWAP1 POP JUMPDEST PUSH2 0x1373 DUP6 DUP3 PUSH2 0x12F8 JUMP JUMPDEST DUP7 SSTORE POP PUSH2 0x13DA JUMP JUMPDEST PUSH1 0x1F NOT DUP5 AND PUSH2 0x1389 DUP7 PUSH2 0x1176 JUMP JUMPDEST PUSH0 JUMPDEST DUP3 DUP2 LT ISZERO PUSH2 0x13B0 JUMPI DUP5 DUP10 ADD MLOAD DUP3 SSTORE PUSH1 0x1 DUP3 ADD SWAP2 POP PUSH1 0x20 DUP6 ADD SWAP5 POP PUSH1 0x20 DUP2 ADD SWAP1 POP PUSH2 0x138B JUMP JUMPDEST DUP7 DUP4 LT ISZERO PUSH2 0x13CD JUMPI DUP5 DUP10 ADD MLOAD PUSH2 0x13C9 PUSH1 0x1F DUP10 AND DUP3 PUSH2 0x12DC JUMP JUMPDEST DUP4 SSTORE POP JUMPDEST PUSH1 0x1 PUSH1 0x2 DUP9 MUL ADD DUP9 SSTORE POP POP POP JUMPDEST POP POP POP POP POP POP JUMP JUMPDEST DUP3 DUP2 DUP4 CALLDATACOPY PUSH0 DUP4 DUP4 ADD MSTORE POP POP POP JUMP JUMPDEST PUSH0 PUSH2 0x13FB DUP4 DUP6 PUSH2 0xCE5 JUMP JUMPDEST SWAP4 POP PUSH2 0x1408 DUP4 DUP6 DUP5 PUSH2 0x13E2 JUMP JUMPDEST PUSH2 0x1411 DUP4 PUSH2 0xD03 JUMP JUMPDEST DUP5 ADD SWAP1 POP SWAP4 SWAP3 POP POP POP JUMP JUMPDEST PUSH0 PUSH1 0x40 DUP3 ADD SWAP1 POP DUP2 DUP2 SUB PUSH0 DUP4 ADD MSTORE PUSH2 0x1435 DUP2 DUP6 DUP8 PUSH2 0x13F0 JUMP JUMPDEST SWAP1 POP PUSH2 0x1444 PUSH1 0x20 DUP4 ADD DUP5 PUSH2 0xDAF JUMP JUMPDEST SWAP5 SWAP4 POP POP POP POP JUMP JUMPDEST PUSH32 0x5175657279204572726F723A2050726F64756374206E6F742063657274696669 PUSH0 DUP3 ADD MSTORE PUSH32 0x6564000000000000000000000000000000000000000000000000000000000000 PUSH1 0x20 DUP3 ADD MSTORE POP JUMP JUMPDEST PUSH0 PUSH2 0x14A6 PUSH1 0x22 DUP4 PUSH2 0xCE5 JUMP JUMPDEST SWAP2 POP PUSH2 0x14B1 DUP3 PUSH2 0x144C JUMP JUMPDEST PUSH1 0x40 DUP3 ADD SWAP1 POP SWAP2 SWAP1 POP JUMP JUMPDEST PUSH0 PUSH1 0x20 DUP3 ADD SWAP1 POP DUP2 DUP2 SUB PUSH0 DUP4 ADD MSTORE PUSH2 0x14D3 DUP2 PUSH2 0x149A JUMP JUMPDEST SWAP1 POP SWAP2 SWAP1 POP JUMP INVALID LOG2 PUSH5 0x6970667358 0x22 SLT KECCAK256 0xB9 GT SIGNEXTEND 0xEE MULMOD 0xC 0xDB 0xAD REVERT BYTE 0xB9 GT CALLCODE DUP5 DIV 0xEF STOP SAR PUSH12 0xB470081A392D03494E6ED867 0xB7 PUSH5 0x736F6C6343 STOP ADDMOD BYTE STOP CALLER "
				},
				"gasEstimates": {
					"creation": {
						"codeDepositCost": "1078400",
						"executionCost": "26631",
						"totalCost": "1105031"
					},
					"external": {
						"addCertification(uint256,string,uint8)": "infinite",
						"approveInspector(address)": "32601",
						"getCertification(uint256)": "infinite",
						"pauseContract()": "26626",
						"removeInspector(address)": "32619",
						"unpauseContract()": "26713"
					}
				},
				"methodIdentifiers": {
					"addCertification(uint256,string,uint8)": "a647dbbd",
					"approveInspector(address)": "73bf3b98",
					"getCertification(uint256)": "ec981eac",
					"pauseContract()": "439766ce",
					"removeInspector(address)": "7c70e791",
					"unpauseContract()": "b33712c5"
				}
			},
			"storageLayout": {
				"storage": [
					{
						"astId": 23,
						"contract": "contracts/QualityCertification.sol:QualityCertification",
						"label": "productCertifications",
						"offset": 0,
						"slot": "0",
						"type": "t_mapping(t_uint256,t_struct(Certification)18_storage)"
					},
					{
						"astId": 27,
						"contract": "contracts/QualityCertification.sol:QualityCertification",
						"label": "approvedInspectors",
						"offset": 0,
						"slot": "1",
						"type": "t_mapping(t_address,t_bool)"
					},
					{
						"astId": 48,
						"contract": "contracts/QualityCertification.sol:QualityCertification",
						"label": "paused",
						"offset": 0,
						"slot": "2",
						"type": "t_bool"
					}
				],
				"types": {
					"t_address": {
						"encoding": "inplace",
						"label": "address",
						"numberOfBytes": "20"
					},
					"t_bool": {
						"encoding": "inplace",
						"label": "bool",
						"numberOfBytes": "1"
					},
					"t_enum(QualityStatus)6": {
						"encoding": "inplace",
						"label": "enum QualityCertification.QualityStatus",
						"numberOfBytes": "1"
					},
					"t_mapping(t_address,t_bool)": {
						"encoding": "mapping",
						"key": "t_address",
						"label": "mapping(address => bool)",
						"numberOfBytes": "32",
						"value": "t_bool"
					},
					"t_mapping(t_uint256,t_struct(Certification)18_storage)": {
						"encoding": "mapping",
						"key": "t_uint256",
						"label": "mapping(uint256 => struct QualityCertification.Certification)",
						"numberOfBytes": "32",
						"value": "t_struct(Certification)18_storage"
					},
					"t_string_storage": {
						"encoding": "bytes",
						"label": "string",
						"numberOfBytes": "32"
					},
					"t_struct(Certification)18_storage": {
						"encoding": "inplace",
						"label": "struct QualityCertification.Certification",
						"members": [
							{
								"astId": 8,
								"contract": "contracts/QualityCertification.sol:QualityCertification",
								"label": "productId",
								"offset": 0,
								"slot": "0",
								"type": "t_uint256"
							},
							{
								"astId": 10,
								"contract": "contracts/QualityCertification.sol:QualityCertification",
								"label": "criteria",
								"offset": 0,
								"slot": "1",
								"type": "t_string_storage"
							},
							{
								"astId": 13,
								"contract": "contracts/QualityCertification.sol:QualityCertification",
								"label": "status",
								"offset": 0,
								"slot": "2",
								"type": "t_enum(QualityStatus)6"
							},
							{
								"astId": 15,
								"contract": "contracts/QualityCertification.sol:QualityCertification",
								"label": "timestamp",
								"offset": 0,
								"slot": "3",
								"type": "t_uint256"
							},
							{
								"astId": 17,
								"contract": "contracts/QualityCertification.sol:QualityCertification",
								"label": "inspector",
								"offset": 0,
								"slot": "4",
								"type": "t_address"
							}
						],
						"numberOfBytes": "160"
					},
					"t_uint256": {
						"encoding": "inplace",
						"label": "uint256",
						"numberOfBytes": "32"
					}
				}
			},
			"userdoc": {
				"kind": "user",
				"methods": {
					"addCertification(uint256,string,uint8)": {
						"notice": "Add a quality certification for a product"
					},
					"approveInspector(address)": {
						"notice": "Approve a new inspector for quality certification"
					},
					"getCertification(uint256)": {
						"notice": "Get the quality certification details of a product"
					},
					"pauseContract()": {
						"notice": "Pause the contract to prevent certain operations"
					},
					"removeInspector(address)": {
						"notice": "Remove an existing inspector"
					},
					"unpauseContract()": {
						"notice": "Unpause the contract to resume operations"
					}
				},
				"notice": "This contract manages quality criteria, product certifications, and compliance tracking.",
				"version": 1
			}
		}
	}
}